{
	"contracts/MemeTokenBase/memetoken.sol": {
		"DeflationaryMemeToken": {
			"abi": [
				{
					"inputs": [
						{
							"internalType": "address",
							"name": "_liquidityWallet",
							"type": "address"
						},
						{
							"internalType": "address",
							"name": "_treasuryWallet",
							"type": "address"
						}
					],
					"stateMutability": "nonpayable",
					"type": "constructor"
				},
				{
					"anonymous": false,
					"inputs": [
						{
							"indexed": true,
							"internalType": "address",
							"name": "owner",
							"type": "address"
						},
						{
							"indexed": true,
							"internalType": "address",
							"name": "spender",
							"type": "address"
						},
						{
							"indexed": false,
							"internalType": "uint256",
							"name": "value",
							"type": "uint256"
						}
					],
					"name": "Approval",
					"type": "event"
				},
				{
					"anonymous": false,
					"inputs": [
						{
							"indexed": true,
							"internalType": "address",
							"name": "previousOwner",
							"type": "address"
						},
						{
							"indexed": true,
							"internalType": "address",
							"name": "newOwner",
							"type": "address"
						}
					],
					"name": "OwnershipTransferred",
					"type": "event"
				},
				{
					"anonymous": false,
					"inputs": [
						{
							"indexed": true,
							"internalType": "address",
							"name": "from",
							"type": "address"
						},
						{
							"indexed": true,
							"internalType": "address",
							"name": "to",
							"type": "address"
						},
						{
							"indexed": false,
							"internalType": "uint256",
							"name": "value",
							"type": "uint256"
						}
					],
					"name": "Transfer",
					"type": "event"
				},
				{
					"inputs": [],
					"name": "BURN_RATE",
					"outputs": [
						{
							"internalType": "uint256",
							"name": "",
							"type": "uint256"
						}
					],
					"stateMutability": "view",
					"type": "function"
				},
				{
					"inputs": [],
					"name": "DEAD",
					"outputs": [
						{
							"internalType": "address",
							"name": "",
							"type": "address"
						}
					],
					"stateMutability": "view",
					"type": "function"
				},
				{
					"inputs": [],
					"name": "LIQUIDITY_FEE",
					"outputs": [
						{
							"internalType": "uint256",
							"name": "",
							"type": "uint256"
						}
					],
					"stateMutability": "view",
					"type": "function"
				},
				{
					"inputs": [],
					"name": "TOTAL_SUPPLY",
					"outputs": [
						{
							"internalType": "uint256",
							"name": "",
							"type": "uint256"
						}
					],
					"stateMutability": "view",
					"type": "function"
				},
				{
					"inputs": [],
					"name": "TREASURY_FEE",
					"outputs": [
						{
							"internalType": "uint256",
							"name": "",
							"type": "uint256"
						}
					],
					"stateMutability": "view",
					"type": "function"
				},
				{
					"inputs": [],
					"name": "ZERO",
					"outputs": [
						{
							"internalType": "address",
							"name": "",
							"type": "address"
						}
					],
					"stateMutability": "view",
					"type": "function"
				},
				{
					"inputs": [
						{
							"internalType": "address",
							"name": "owner",
							"type": "address"
						},
						{
							"internalType": "address",
							"name": "spender",
							"type": "address"
						}
					],
					"name": "allowance",
					"outputs": [
						{
							"internalType": "uint256",
							"name": "",
							"type": "uint256"
						}
					],
					"stateMutability": "view",
					"type": "function"
				},
				{
					"inputs": [
						{
							"internalType": "address",
							"name": "spender",
							"type": "address"
						},
						{
							"internalType": "uint256",
							"name": "amount",
							"type": "uint256"
						}
					],
					"name": "approve",
					"outputs": [
						{
							"internalType": "bool",
							"name": "",
							"type": "bool"
						}
					],
					"stateMutability": "nonpayable",
					"type": "function"
				},
				{
					"inputs": [
						{
							"internalType": "address",
							"name": "account",
							"type": "address"
						}
					],
					"name": "balanceOf",
					"outputs": [
						{
							"internalType": "uint256",
							"name": "",
							"type": "uint256"
						}
					],
					"stateMutability": "view",
					"type": "function"
				},
				{
					"inputs": [],
					"name": "decimals",
					"outputs": [
						{
							"internalType": "uint8",
							"name": "",
							"type": "uint8"
						}
					],
					"stateMutability": "view",
					"type": "function"
				},
				{
					"inputs": [
						{
							"internalType": "address",
							"name": "spender",
							"type": "address"
						},
						{
							"internalType": "uint256",
							"name": "subtractedValue",
							"type": "uint256"
						}
					],
					"name": "decreaseAllowance",
					"outputs": [
						{
							"internalType": "bool",
							"name": "",
							"type": "bool"
						}
					],
					"stateMutability": "nonpayable",
					"type": "function"
				},
				{
					"inputs": [
						{
							"internalType": "address",
							"name": "spender",
							"type": "address"
						},
						{
							"internalType": "uint256",
							"name": "addedValue",
							"type": "uint256"
						}
					],
					"name": "increaseAllowance",
					"outputs": [
						{
							"internalType": "bool",
							"name": "",
							"type": "bool"
						}
					],
					"stateMutability": "nonpayable",
					"type": "function"
				},
				{
					"inputs": [],
					"name": "liquidityWallet",
					"outputs": [
						{
							"internalType": "address",
							"name": "",
							"type": "address"
						}
					],
					"stateMutability": "view",
					"type": "function"
				},
				{
					"inputs": [],
					"name": "name",
					"outputs": [
						{
							"internalType": "string",
							"name": "",
							"type": "string"
						}
					],
					"stateMutability": "view",
					"type": "function"
				},
				{
					"inputs": [],
					"name": "owner",
					"outputs": [
						{
							"internalType": "address",
							"name": "",
							"type": "address"
						}
					],
					"stateMutability": "view",
					"type": "function"
				},
				{
					"inputs": [],
					"name": "renounceOwnership",
					"outputs": [],
					"stateMutability": "nonpayable",
					"type": "function"
				},
				{
					"inputs": [],
					"name": "symbol",
					"outputs": [
						{
							"internalType": "string",
							"name": "",
							"type": "string"
						}
					],
					"stateMutability": "view",
					"type": "function"
				},
				{
					"inputs": [],
					"name": "totalSupply",
					"outputs": [
						{
							"internalType": "uint256",
							"name": "",
							"type": "uint256"
						}
					],
					"stateMutability": "view",
					"type": "function"
				},
				{
					"inputs": [
						{
							"internalType": "address",
							"name": "recipient",
							"type": "address"
						},
						{
							"internalType": "uint256",
							"name": "amount",
							"type": "uint256"
						}
					],
					"name": "transfer",
					"outputs": [
						{
							"internalType": "bool",
							"name": "",
							"type": "bool"
						}
					],
					"stateMutability": "nonpayable",
					"type": "function"
				},
				{
					"inputs": [
						{
							"internalType": "address",
							"name": "sender",
							"type": "address"
						},
						{
							"internalType": "address",
							"name": "recipient",
							"type": "address"
						},
						{
							"internalType": "uint256",
							"name": "amount",
							"type": "uint256"
						}
					],
					"name": "transferFrom",
					"outputs": [
						{
							"internalType": "bool",
							"name": "",
							"type": "bool"
						}
					],
					"stateMutability": "nonpayable",
					"type": "function"
				},
				{
					"inputs": [
						{
							"internalType": "address",
							"name": "newOwner",
							"type": "address"
						}
					],
					"name": "transferOwnership",
					"outputs": [],
					"stateMutability": "nonpayable",
					"type": "function"
				},
				{
					"inputs": [],
					"name": "treasuryWallet",
					"outputs": [
						{
							"internalType": "address",
							"name": "",
							"type": "address"
						}
					],
					"stateMutability": "view",
					"type": "function"
				}
			],
			"devdoc": {
				"kind": "dev",
				"methods": {
					"allowance(address,address)": {
						"details": "See {IERC20-allowance}."
					},
					"approve(address,uint256)": {
						"details": "See {IERC20-approve}. NOTE: If `amount` is the maximum `uint256`, the allowance is not updated on `transferFrom`. This is semantically equivalent to an infinite approval. Requirements: - `spender` cannot be the zero address."
					},
					"balanceOf(address)": {
						"details": "See {IERC20-balanceOf}."
					},
					"decimals()": {
						"details": "Returns the number of decimals used to get its user representation. For example, if `decimals` equals `2`, a balance of `505` tokens should be displayed to a user as `5.05` (`505 / 10 ** 2`). Tokens usually opt for a value of 18, imitating the relationship between Ether and Wei. This is the default value returned by this function, unless it's overridden. NOTE: This information is only used for _display_ purposes: it in no way affects any of the arithmetic of the contract, including {IERC20-balanceOf} and {IERC20-transfer}."
					},
					"decreaseAllowance(address,uint256)": {
						"details": "Atomically decreases the allowance granted to `spender` by the caller. This is an alternative to {approve} that can be used as a mitigation for problems described in {IERC20-approve}. Emits an {Approval} event indicating the updated allowance. Requirements: - `spender` cannot be the zero address. - `spender` must have allowance for the caller of at least `subtractedValue`."
					},
					"increaseAllowance(address,uint256)": {
						"details": "Atomically increases the allowance granted to `spender` by the caller. This is an alternative to {approve} that can be used as a mitigation for problems described in {IERC20-approve}. Emits an {Approval} event indicating the updated allowance. Requirements: - `spender` cannot be the zero address."
					},
					"name()": {
						"details": "Returns the name of the token."
					},
					"owner()": {
						"details": "Returns the address of the current owner."
					},
					"renounceOwnership()": {
						"details": "Leaves the contract without owner. It will not be possible to call `onlyOwner` functions. Can only be called by the current owner. NOTE: Renouncing ownership will leave the contract without an owner, thereby disabling any functionality that is only available to the owner."
					},
					"symbol()": {
						"details": "Returns the symbol of the token, usually a shorter version of the name."
					},
					"totalSupply()": {
						"details": "See {IERC20-totalSupply}."
					},
					"transferOwnership(address)": {
						"details": "Transfers ownership of the contract to a new account (`newOwner`). Can only be called by the current owner."
					}
				},
				"version": 1
			},
			"evm": {
				"assembly": "    /* \"contracts/MemeTokenBase/memetoken.sol\":172:2212  contract DeflationaryMemeToken is ERC20, Ownable {\r... */\n  mstore(0x40, 0x80)\n    /* \"contracts/MemeTokenBase/memetoken.sol\":755:1010  constructor(address _liquidityWallet, address _treasuryWallet) ERC20(\"[TEST] Deflationary Meme Token\", \"DMT09\") {\r... */\n  callvalue\n  dup1\n  iszero\n  tag_1\n  jumpi\n  0x00\n  dup1\n  revert\ntag_1:\n  pop\n  mload(0x40)\n  sub(codesize, bytecodeSize)\n  dup1\n  bytecodeSize\n  dup4\n  codecopy\n  dup2\n  dup2\n  add\n  0x40\n  mstore\n  dup2\n  add\n  swap1\n  tag_2\n  swap2\n  swap1\n  tag_3\n  jump\t// in\ntag_2:\n    /* \"@openzeppelin/contracts/token/ERC20/ERC20.sol\":1980:2093  constructor(string memory name_, string memory symbol_) {... */\n  mload(0x40)\n  dup1\n  0x40\n  add\n  0x40\n  mstore\n  dup1\n  0x1e\n  dup2\n  mstore\n  0x20\n  add\n  0x5b544553545d204465666c6174696f6e617279204d656d6520546f6b656e0000\n  dup2\n  mstore\n  pop\n  mload(0x40)\n  dup1\n  0x40\n  add\n  0x40\n  mstore\n  dup1\n  0x05\n  dup2\n  mstore\n  0x20\n  add\n  0x444d543039000000000000000000000000000000000000000000000000000000\n  dup2\n  mstore\n  pop\n    /* \"@openzeppelin/contracts/token/ERC20/ERC20.sol\":2054:2059  name_ */\n  dup2\n    /* \"@openzeppelin/contracts/token/ERC20/ERC20.sol\":2046:2051  _name */\n  0x03\n    /* \"@openzeppelin/contracts/token/ERC20/ERC20.sol\":2046:2059  _name = name_ */\n  swap1\n  dup1\n  mload\n  swap1\n  0x20\n  add\n  swap1\n  tag_8\n  swap3\n  swap2\n  swap1\n  tag_9\n  jump\t// in\ntag_8:\n  pop\n    /* \"@openzeppelin/contracts/token/ERC20/ERC20.sol\":2079:2086  symbol_ */\n  dup1\n    /* \"@openzeppelin/contracts/token/ERC20/ERC20.sol\":2069:2076  _symbol */\n  0x04\n    /* \"@openzeppelin/contracts/token/ERC20/ERC20.sol\":2069:2086  _symbol = symbol_ */\n  swap1\n  dup1\n  mload\n  swap1\n  0x20\n  add\n  swap1\n  tag_10\n  swap3\n  swap2\n  swap1\n  tag_9\n  jump\t// in\ntag_10:\n  pop\n    /* \"@openzeppelin/contracts/token/ERC20/ERC20.sol\":1980:2093  constructor(string memory name_, string memory symbol_) {... */\n  pop\n  pop\n    /* \"@openzeppelin/contracts/access/Ownable.sol\":936:968  _transferOwnership(_msgSender()) */\n  tag_12\n    /* \"@openzeppelin/contracts/access/Ownable.sol\":955:967  _msgSender() */\n  tag_13\n    /* \"@openzeppelin/contracts/access/Ownable.sol\":955:965  _msgSender */\n  shl(0x20, tag_14)\n    /* \"@openzeppelin/contracts/access/Ownable.sol\":955:967  _msgSender() */\n  0x20\n  shr\n  jump\t// in\ntag_13:\n    /* \"@openzeppelin/contracts/access/Ownable.sol\":936:954  _transferOwnership */\n  shl(0x20, tag_15)\n    /* \"@openzeppelin/contracts/access/Ownable.sol\":936:968  _transferOwnership(_msgSender()) */\n  0x20\n  shr\n  jump\t// in\ntag_12:\n    /* \"contracts/MemeTokenBase/memetoken.sol\":896:912  _liquidityWallet */\n  dup2\n    /* \"contracts/MemeTokenBase/memetoken.sol\":878:893  liquidityWallet */\n  0x07\n  0x00\n    /* \"contracts/MemeTokenBase/memetoken.sol\":878:912  liquidityWallet = _liquidityWallet */\n  0x0100\n  exp\n  dup2\n  sload\n  dup2\n  0xffffffffffffffffffffffffffffffffffffffff\n  mul\n  not\n  and\n  swap1\n  dup4\n  0xffffffffffffffffffffffffffffffffffffffff\n  and\n  mul\n  or\n  swap1\n  sstore\n  pop\n    /* \"contracts/MemeTokenBase/memetoken.sol\":940:955  _treasuryWallet */\n  dup1\n    /* \"contracts/MemeTokenBase/memetoken.sol\":923:937  treasuryWallet */\n  0x06\n  0x00\n    /* \"contracts/MemeTokenBase/memetoken.sol\":923:955  treasuryWallet = _treasuryWallet */\n  0x0100\n  exp\n  dup2\n  sload\n  dup2\n  0xffffffffffffffffffffffffffffffffffffffff\n  mul\n  not\n  and\n  swap1\n  dup4\n  0xffffffffffffffffffffffffffffffffffffffff\n  and\n  mul\n  or\n  swap1\n  sstore\n  pop\n    /* \"contracts/MemeTokenBase/memetoken.sol\":966:1002  _mint(liquidityWallet, TOTAL_SUPPLY) */\n  tag_17\n    /* \"contracts/MemeTokenBase/memetoken.sol\":972:987  liquidityWallet */\n  0x07\n  0x00\n  swap1\n  sload\n  swap1\n  0x0100\n  exp\n  swap1\n  div\n  0xffffffffffffffffffffffffffffffffffffffff\n  and\n    /* \"contracts/MemeTokenBase/memetoken.sol\":673:695  100000000 * (10 ** 18) */\n  0x52b7d2dcc80cd2e4000000\n    /* \"contracts/MemeTokenBase/memetoken.sol\":966:971  _mint */\n  shl(0x20, tag_18)\n    /* \"contracts/MemeTokenBase/memetoken.sol\":966:1002  _mint(liquidityWallet, TOTAL_SUPPLY) */\n  0x20\n  shr\n  jump\t// in\ntag_17:\n    /* \"contracts/MemeTokenBase/memetoken.sol\":755:1010  constructor(address _liquidityWallet, address _treasuryWallet) ERC20(\"[TEST] Deflationary Meme Token\", \"DMT09\") {\r... */\n  pop\n  pop\n    /* \"contracts/MemeTokenBase/memetoken.sol\":172:2212  contract DeflationaryMemeToken is ERC20, Ownable {\r... */\n  jump(tag_19)\n    /* \"@openzeppelin/contracts/utils/Context.sol\":640:736  function _msgSender() internal view virtual returns (address) {... */\ntag_14:\n    /* \"@openzeppelin/contracts/utils/Context.sol\":693:700  address */\n  0x00\n    /* \"@openzeppelin/contracts/utils/Context.sol\":719:729  msg.sender */\n  caller\n    /* \"@openzeppelin/contracts/utils/Context.sol\":712:729  return msg.sender */\n  swap1\n  pop\n    /* \"@openzeppelin/contracts/utils/Context.sol\":640:736  function _msgSender() internal view virtual returns (address) {... */\n  swap1\n  jump\t// out\n    /* \"@openzeppelin/contracts/access/Ownable.sol\":2426:2613  function _transferOwnership(address newOwner) internal virtual {... */\ntag_15:\n    /* \"@openzeppelin/contracts/access/Ownable.sol\":2499:2515  address oldOwner */\n  0x00\n    /* \"@openzeppelin/contracts/access/Ownable.sol\":2518:2524  _owner */\n  0x05\n  0x00\n  swap1\n  sload\n  swap1\n  0x0100\n  exp\n  swap1\n  div\n  0xffffffffffffffffffffffffffffffffffffffff\n  and\n    /* \"@openzeppelin/contracts/access/Ownable.sol\":2499:2524  address oldOwner = _owner */\n  swap1\n  pop\n    /* \"@openzeppelin/contracts/access/Ownable.sol\":2543:2551  newOwner */\n  dup2\n    /* \"@openzeppelin/contracts/access/Ownable.sol\":2534:2540  _owner */\n  0x05\n  0x00\n    /* \"@openzeppelin/contracts/access/Ownable.sol\":2534:2551  _owner = newOwner */\n  0x0100\n  exp\n  dup2\n  sload\n  dup2\n  0xffffffffffffffffffffffffffffffffffffffff\n  mul\n  not\n  and\n  swap1\n  dup4\n  0xffffffffffffffffffffffffffffffffffffffff\n  and\n  mul\n  or\n  swap1\n  sstore\n  pop\n    /* \"@openzeppelin/contracts/access/Ownable.sol\":2597:2605  newOwner */\n  dup2\n    /* \"@openzeppelin/contracts/access/Ownable.sol\":2566:2606  OwnershipTransferred(oldOwner, newOwner) */\n  0xffffffffffffffffffffffffffffffffffffffff\n  and\n    /* \"@openzeppelin/contracts/access/Ownable.sol\":2587:2595  oldOwner */\n  dup2\n    /* \"@openzeppelin/contracts/access/Ownable.sol\":2566:2606  OwnershipTransferred(oldOwner, newOwner) */\n  0xffffffffffffffffffffffffffffffffffffffff\n  and\n  0x8be0079c531659141344cd1fd0a4f28419497f9722a3daafe3b4186f6b6457e0\n  mload(0x40)\n  mload(0x40)\n  dup1\n  swap2\n  sub\n  swap1\n  log3\n    /* \"@openzeppelin/contracts/access/Ownable.sol\":2489:2613  {... */\n  pop\n    /* \"@openzeppelin/contracts/access/Ownable.sol\":2426:2613  function _transferOwnership(address newOwner) internal virtual {... */\n  pop\n  jump\t// out\n    /* \"@openzeppelin/contracts/token/ERC20/ERC20.sol\":8520:9055  function _mint(address account, uint256 amount) internal virtual {... */\ntag_18:\n    /* \"@openzeppelin/contracts/token/ERC20/ERC20.sol\":8622:8623  0 */\n  0x00\n    /* \"@openzeppelin/contracts/token/ERC20/ERC20.sol\":8603:8624  account != address(0) */\n  0xffffffffffffffffffffffffffffffffffffffff\n  and\n    /* \"@openzeppelin/contracts/token/ERC20/ERC20.sol\":8603:8610  account */\n  dup3\n    /* \"@openzeppelin/contracts/token/ERC20/ERC20.sol\":8603:8624  account != address(0) */\n  0xffffffffffffffffffffffffffffffffffffffff\n  and\n  eq\n  iszero\n    /* \"@openzeppelin/contracts/token/ERC20/ERC20.sol\":8595:8660  require(account != address(0), \"ERC20: mint to the zero address\") */\n  tag_23\n  jumpi\n  mload(0x40)\n  0x08c379a000000000000000000000000000000000000000000000000000000000\n  dup2\n  mstore\n  0x04\n  add\n  tag_24\n  swap1\n  tag_25\n  jump\t// in\ntag_24:\n  mload(0x40)\n  dup1\n  swap2\n  sub\n  swap1\n  revert\ntag_23:\n    /* \"@openzeppelin/contracts/token/ERC20/ERC20.sol\":8671:8720  _beforeTokenTransfer(address(0), account, amount) */\n  tag_26\n    /* \"@openzeppelin/contracts/token/ERC20/ERC20.sol\":8700:8701  0 */\n  0x00\n    /* \"@openzeppelin/contracts/token/ERC20/ERC20.sol\":8704:8711  account */\n  dup4\n    /* \"@openzeppelin/contracts/token/ERC20/ERC20.sol\":8713:8719  amount */\n  dup4\n    /* \"@openzeppelin/contracts/token/ERC20/ERC20.sol\":8671:8691  _beforeTokenTransfer */\n  shl(0x20, tag_27)\n    /* \"@openzeppelin/contracts/token/ERC20/ERC20.sol\":8671:8720  _beforeTokenTransfer(address(0), account, amount) */\n  0x20\n  shr\n  jump\t// in\ntag_26:\n    /* \"@openzeppelin/contracts/token/ERC20/ERC20.sol\":8747:8753  amount */\n  dup1\n    /* \"@openzeppelin/contracts/token/ERC20/ERC20.sol\":8731:8743  _totalSupply */\n  0x02\n  0x00\n    /* \"@openzeppelin/contracts/token/ERC20/ERC20.sol\":8731:8753  _totalSupply += amount */\n  dup3\n  dup3\n  sload\n  tag_28\n  swap2\n  swap1\n  tag_29\n  jump\t// in\ntag_28:\n  swap3\n  pop\n  pop\n  dup2\n  swap1\n  sstore\n  pop\n    /* \"@openzeppelin/contracts/token/ERC20/ERC20.sol\":8921:8927  amount */\n  dup1\n    /* \"@openzeppelin/contracts/token/ERC20/ERC20.sol\":8899:8908  _balances */\n  0x00\n    /* \"@openzeppelin/contracts/token/ERC20/ERC20.sol\":8899:8917  _balances[account] */\n  dup1\n    /* \"@openzeppelin/contracts/token/ERC20/ERC20.sol\":8909:8916  account */\n  dup5\n    /* \"@openzeppelin/contracts/token/ERC20/ERC20.sol\":8899:8917  _balances[account] */\n  0xffffffffffffffffffffffffffffffffffffffff\n  and\n  0xffffffffffffffffffffffffffffffffffffffff\n  and\n  dup2\n  mstore\n  0x20\n  add\n  swap1\n  dup2\n  mstore\n  0x20\n  add\n  0x00\n  keccak256\n  0x00\n    /* \"@openzeppelin/contracts/token/ERC20/ERC20.sol\":8899:8927  _balances[account] += amount */\n  dup3\n  dup3\n  sload\n  add\n  swap3\n  pop\n  pop\n  dup2\n  swap1\n  sstore\n  pop\n    /* \"@openzeppelin/contracts/token/ERC20/ERC20.sol\":8973:8980  account */\n  dup2\n    /* \"@openzeppelin/contracts/token/ERC20/ERC20.sol\":8952:8989  Transfer(address(0), account, amount) */\n  0xffffffffffffffffffffffffffffffffffffffff\n  and\n    /* \"@openzeppelin/contracts/token/ERC20/ERC20.sol\":8969:8970  0 */\n  0x00\n    /* \"@openzeppelin/contracts/token/ERC20/ERC20.sol\":8952:8989  Transfer(address(0), account, amount) */\n  0xffffffffffffffffffffffffffffffffffffffff\n  and\n  0xddf252ad1be2c89b69c2b068fc378daa952ba7f163c4a11628f55a4df523b3ef\n    /* \"@openzeppelin/contracts/token/ERC20/ERC20.sol\":8982:8988  amount */\n  dup4\n    /* \"@openzeppelin/contracts/token/ERC20/ERC20.sol\":8952:8989  Transfer(address(0), account, amount) */\n  mload(0x40)\n  tag_30\n  swap2\n  swap1\n  tag_31\n  jump\t// in\ntag_30:\n  mload(0x40)\n  dup1\n  swap2\n  sub\n  swap1\n  log3\n    /* \"@openzeppelin/contracts/token/ERC20/ERC20.sol\":9000:9048  _afterTokenTransfer(address(0), account, amount) */\n  tag_32\n    /* \"@openzeppelin/contracts/token/ERC20/ERC20.sol\":9028:9029  0 */\n  0x00\n    /* \"@openzeppelin/contracts/token/ERC20/ERC20.sol\":9032:9039  account */\n  dup4\n    /* \"@openzeppelin/contracts/token/ERC20/ERC20.sol\":9041:9047  amount */\n  dup4\n    /* \"@openzeppelin/contracts/token/ERC20/ERC20.sol\":9000:9019  _afterTokenTransfer */\n  shl(0x20, tag_33)\n    /* \"@openzeppelin/contracts/token/ERC20/ERC20.sol\":9000:9048  _afterTokenTransfer(address(0), account, amount) */\n  0x20\n  shr\n  jump\t// in\ntag_32:\n    /* \"@openzeppelin/contracts/token/ERC20/ERC20.sol\":8520:9055  function _mint(address account, uint256 amount) internal virtual {... */\n  pop\n  pop\n  jump\t// out\n    /* \"@openzeppelin/contracts/token/ERC20/ERC20.sol\":12073:12164  function _beforeTokenTransfer(address from, address to, uint256 amount) internal virtual {} */\ntag_27:\n  pop\n  pop\n  pop\n  jump\t// out\n    /* \"@openzeppelin/contracts/token/ERC20/ERC20.sol\":12752:12842  function _afterTokenTransfer(address from, address to, uint256 amount) internal virtual {} */\ntag_33:\n  pop\n  pop\n  pop\n  jump\t// out\n    /* \"contracts/MemeTokenBase/memetoken.sol\":172:2212  contract DeflationaryMemeToken is ERC20, Ownable {\r... */\ntag_9:\n  dup3\n  dup1\n  sload\n  tag_36\n  swap1\n  tag_37\n  jump\t// in\ntag_36:\n  swap1\n  0x00\n  mstore\n  keccak256(0x00, 0x20)\n  swap1\n  0x1f\n  add\n  0x20\n  swap1\n  div\n  dup2\n  add\n  swap3\n  dup3\n  tag_39\n  jumpi\n  0x00\n  dup6\n  sstore\n  jump(tag_38)\ntag_39:\n  dup3\n  0x1f\n  lt\n  tag_40\n  jumpi\n  dup1\n  mload\n  not(0xff)\n  and\n  dup4\n  dup1\n  add\n  or\n  dup6\n  sstore\n  jump(tag_38)\ntag_40:\n  dup3\n  dup1\n  add\n  0x01\n  add\n  dup6\n  sstore\n  dup3\n  iszero\n  tag_38\n  jumpi\n  swap2\n  dup3\n  add\ntag_41:\n  dup3\n  dup2\n  gt\n  iszero\n  tag_42\n  jumpi\n  dup3\n  mload\n  dup3\n  sstore\n  swap2\n  0x20\n  add\n  swap2\n  swap1\n  0x01\n  add\n  swap1\n  jump(tag_41)\ntag_42:\ntag_38:\n  pop\n  swap1\n  pop\n  tag_43\n  swap2\n  swap1\n  tag_44\n  jump\t// in\ntag_43:\n  pop\n  swap1\n  jump\t// out\ntag_44:\ntag_45:\n  dup1\n  dup3\n  gt\n  iszero\n  tag_46\n  jumpi\n  0x00\n  dup2\n  0x00\n  swap1\n  sstore\n  pop\n  0x01\n  add\n  jump(tag_45)\ntag_46:\n  pop\n  swap1\n  jump\t// out\n    /* \"#utility.yul\":7:150   */\ntag_48:\n    /* \"#utility.yul\":64:69   */\n  0x00\n    /* \"#utility.yul\":95:101   */\n  dup2\n    /* \"#utility.yul\":89:102   */\n  mload\n    /* \"#utility.yul\":80:102   */\n  swap1\n  pop\n    /* \"#utility.yul\":111:144   */\n  tag_50\n    /* \"#utility.yul\":138:143   */\n  dup2\n    /* \"#utility.yul\":111:144   */\n  tag_51\n  jump\t// in\ntag_50:\n    /* \"#utility.yul\":70:150   */\n  swap3\n  swap2\n  pop\n  pop\n  jump\t// out\n    /* \"#utility.yul\":156:663   */\ntag_3:\n    /* \"#utility.yul\":235:241   */\n  0x00\n    /* \"#utility.yul\":243:249   */\n  dup1\n    /* \"#utility.yul\":292:294   */\n  0x40\n    /* \"#utility.yul\":280:289   */\n  dup4\n    /* \"#utility.yul\":271:278   */\n  dup6\n    /* \"#utility.yul\":267:290   */\n  sub\n    /* \"#utility.yul\":263:295   */\n  slt\n    /* \"#utility.yul\":260:262   */\n  iszero\n  tag_53\n  jumpi\n    /* \"#utility.yul\":298:377   */\n  tag_54\n  tag_55\n  jump\t// in\ntag_54:\n    /* \"#utility.yul\":260:262   */\ntag_53:\n    /* \"#utility.yul\":418:419   */\n  0x00\n    /* \"#utility.yul\":443:507   */\n  tag_56\n    /* \"#utility.yul\":499:506   */\n  dup6\n    /* \"#utility.yul\":490:496   */\n  dup3\n    /* \"#utility.yul\":479:488   */\n  dup7\n    /* \"#utility.yul\":475:497   */\n  add\n    /* \"#utility.yul\":443:507   */\n  tag_48\n  jump\t// in\ntag_56:\n    /* \"#utility.yul\":433:507   */\n  swap3\n  pop\n    /* \"#utility.yul\":389:517   */\n  pop\n    /* \"#utility.yul\":556:558   */\n  0x20\n    /* \"#utility.yul\":582:646   */\n  tag_57\n    /* \"#utility.yul\":638:645   */\n  dup6\n    /* \"#utility.yul\":629:635   */\n  dup3\n    /* \"#utility.yul\":618:627   */\n  dup7\n    /* \"#utility.yul\":614:636   */\n  add\n    /* \"#utility.yul\":582:646   */\n  tag_48\n  jump\t// in\ntag_57:\n    /* \"#utility.yul\":572:646   */\n  swap2\n  pop\n    /* \"#utility.yul\":527:656   */\n  pop\n    /* \"#utility.yul\":250:663   */\n  swap3\n  pop\n  swap3\n  swap1\n  pop\n  jump\t// out\n    /* \"#utility.yul\":669:1035   */\ntag_58:\n    /* \"#utility.yul\":811:814   */\n  0x00\n    /* \"#utility.yul\":832:899   */\n  tag_60\n    /* \"#utility.yul\":896:898   */\n  0x1f\n    /* \"#utility.yul\":891:894   */\n  dup4\n    /* \"#utility.yul\":832:899   */\n  tag_61\n  jump\t// in\ntag_60:\n    /* \"#utility.yul\":825:899   */\n  swap2\n  pop\n    /* \"#utility.yul\":908:1001   */\n  tag_62\n    /* \"#utility.yul\":997:1000   */\n  dup3\n    /* \"#utility.yul\":908:1001   */\n  tag_63\n  jump\t// in\ntag_62:\n    /* \"#utility.yul\":1026:1028   */\n  0x20\n    /* \"#utility.yul\":1021:1024   */\n  dup3\n    /* \"#utility.yul\":1017:1029   */\n  add\n    /* \"#utility.yul\":1010:1029   */\n  swap1\n  pop\n    /* \"#utility.yul\":815:1035   */\n  swap2\n  swap1\n  pop\n  jump\t// out\n    /* \"#utility.yul\":1041:1159   */\ntag_64:\n    /* \"#utility.yul\":1128:1152   */\n  tag_66\n    /* \"#utility.yul\":1146:1151   */\n  dup2\n    /* \"#utility.yul\":1128:1152   */\n  tag_67\n  jump\t// in\ntag_66:\n    /* \"#utility.yul\":1123:1126   */\n  dup3\n    /* \"#utility.yul\":1116:1153   */\n  mstore\n    /* \"#utility.yul\":1106:1159   */\n  pop\n  pop\n  jump\t// out\n    /* \"#utility.yul\":1165:1584   */\ntag_25:\n    /* \"#utility.yul\":1331:1335   */\n  0x00\n    /* \"#utility.yul\":1369:1371   */\n  0x20\n    /* \"#utility.yul\":1358:1367   */\n  dup3\n    /* \"#utility.yul\":1354:1372   */\n  add\n    /* \"#utility.yul\":1346:1372   */\n  swap1\n  pop\n    /* \"#utility.yul\":1418:1427   */\n  dup2\n    /* \"#utility.yul\":1412:1416   */\n  dup2\n    /* \"#utility.yul\":1408:1428   */\n  sub\n    /* \"#utility.yul\":1404:1405   */\n  0x00\n    /* \"#utility.yul\":1393:1402   */\n  dup4\n    /* \"#utility.yul\":1389:1406   */\n  add\n    /* \"#utility.yul\":1382:1429   */\n  mstore\n    /* \"#utility.yul\":1446:1577   */\n  tag_69\n    /* \"#utility.yul\":1572:1576   */\n  dup2\n    /* \"#utility.yul\":1446:1577   */\n  tag_58\n  jump\t// in\ntag_69:\n    /* \"#utility.yul\":1438:1577   */\n  swap1\n  pop\n    /* \"#utility.yul\":1336:1584   */\n  swap2\n  swap1\n  pop\n  jump\t// out\n    /* \"#utility.yul\":1590:1812   */\ntag_31:\n    /* \"#utility.yul\":1683:1687   */\n  0x00\n    /* \"#utility.yul\":1721:1723   */\n  0x20\n    /* \"#utility.yul\":1710:1719   */\n  dup3\n    /* \"#utility.yul\":1706:1724   */\n  add\n    /* \"#utility.yul\":1698:1724   */\n  swap1\n  pop\n    /* \"#utility.yul\":1734:1805   */\n  tag_71\n    /* \"#utility.yul\":1802:1803   */\n  0x00\n    /* \"#utility.yul\":1791:1800   */\n  dup4\n    /* \"#utility.yul\":1787:1804   */\n  add\n    /* \"#utility.yul\":1778:1784   */\n  dup5\n    /* \"#utility.yul\":1734:1805   */\n  tag_64\n  jump\t// in\ntag_71:\n    /* \"#utility.yul\":1688:1812   */\n  swap3\n  swap2\n  pop\n  pop\n  jump\t// out\n    /* \"#utility.yul\":1899:2068   */\ntag_61:\n    /* \"#utility.yul\":1983:1994   */\n  0x00\n    /* \"#utility.yul\":2017:2023   */\n  dup3\n    /* \"#utility.yul\":2012:2015   */\n  dup3\n    /* \"#utility.yul\":2005:2024   */\n  mstore\n    /* \"#utility.yul\":2057:2061   */\n  0x20\n    /* \"#utility.yul\":2052:2055   */\n  dup3\n    /* \"#utility.yul\":2048:2062   */\n  add\n    /* \"#utility.yul\":2033:2062   */\n  swap1\n  pop\n    /* \"#utility.yul\":1995:2068   */\n  swap3\n  swap2\n  pop\n  pop\n  jump\t// out\n    /* \"#utility.yul\":2074:2379   */\ntag_29:\n    /* \"#utility.yul\":2114:2117   */\n  0x00\n    /* \"#utility.yul\":2133:2153   */\n  tag_76\n    /* \"#utility.yul\":2151:2152   */\n  dup3\n    /* \"#utility.yul\":2133:2153   */\n  tag_67\n  jump\t// in\ntag_76:\n    /* \"#utility.yul\":2128:2153   */\n  swap2\n  pop\n    /* \"#utility.yul\":2167:2187   */\n  tag_77\n    /* \"#utility.yul\":2185:2186   */\n  dup4\n    /* \"#utility.yul\":2167:2187   */\n  tag_67\n  jump\t// in\ntag_77:\n    /* \"#utility.yul\":2162:2187   */\n  swap3\n  pop\n    /* \"#utility.yul\":2321:2322   */\n  dup3\n    /* \"#utility.yul\":2253:2319   */\n  0xffffffffffffffffffffffffffffffffffffffffffffffffffffffffffffffff\n    /* \"#utility.yul\":2249:2323   */\n  sub\n    /* \"#utility.yul\":2246:2247   */\n  dup3\n    /* \"#utility.yul\":2243:2324   */\n  gt\n    /* \"#utility.yul\":2240:2242   */\n  iszero\n  tag_78\n  jumpi\n    /* \"#utility.yul\":2327:2345   */\n  tag_79\n  tag_80\n  jump\t// in\ntag_79:\n    /* \"#utility.yul\":2240:2242   */\ntag_78:\n    /* \"#utility.yul\":2371:2372   */\n  dup3\n    /* \"#utility.yul\":2368:2369   */\n  dup3\n    /* \"#utility.yul\":2364:2373   */\n  add\n    /* \"#utility.yul\":2357:2373   */\n  swap1\n  pop\n    /* \"#utility.yul\":2118:2379   */\n  swap3\n  swap2\n  pop\n  pop\n  jump\t// out\n    /* \"#utility.yul\":2385:2481   */\ntag_81:\n    /* \"#utility.yul\":2422:2429   */\n  0x00\n    /* \"#utility.yul\":2451:2475   */\n  tag_83\n    /* \"#utility.yul\":2469:2474   */\n  dup3\n    /* \"#utility.yul\":2451:2475   */\n  tag_84\n  jump\t// in\ntag_83:\n    /* \"#utility.yul\":2440:2475   */\n  swap1\n  pop\n    /* \"#utility.yul\":2430:2481   */\n  swap2\n  swap1\n  pop\n  jump\t// out\n    /* \"#utility.yul\":2487:2613   */\ntag_84:\n    /* \"#utility.yul\":2524:2531   */\n  0x00\n    /* \"#utility.yul\":2564:2606   */\n  0xffffffffffffffffffffffffffffffffffffffff\n    /* \"#utility.yul\":2557:2562   */\n  dup3\n    /* \"#utility.yul\":2553:2607   */\n  and\n    /* \"#utility.yul\":2542:2607   */\n  swap1\n  pop\n    /* \"#utility.yul\":2532:2613   */\n  swap2\n  swap1\n  pop\n  jump\t// out\n    /* \"#utility.yul\":2619:2696   */\ntag_67:\n    /* \"#utility.yul\":2656:2663   */\n  0x00\n    /* \"#utility.yul\":2685:2690   */\n  dup2\n    /* \"#utility.yul\":2674:2690   */\n  swap1\n  pop\n    /* \"#utility.yul\":2664:2696   */\n  swap2\n  swap1\n  pop\n  jump\t// out\n    /* \"#utility.yul\":2702:3022   */\ntag_37:\n    /* \"#utility.yul\":2746:2752   */\n  0x00\n    /* \"#utility.yul\":2783:2784   */\n  0x02\n    /* \"#utility.yul\":2777:2781   */\n  dup3\n    /* \"#utility.yul\":2773:2785   */\n  div\n    /* \"#utility.yul\":2763:2785   */\n  swap1\n  pop\n    /* \"#utility.yul\":2830:2831   */\n  0x01\n    /* \"#utility.yul\":2824:2828   */\n  dup3\n    /* \"#utility.yul\":2820:2832   */\n  and\n    /* \"#utility.yul\":2851:2869   */\n  dup1\n    /* \"#utility.yul\":2841:2843   */\n  tag_88\n  jumpi\n    /* \"#utility.yul\":2907:2911   */\n  0x7f\n    /* \"#utility.yul\":2899:2905   */\n  dup3\n    /* \"#utility.yul\":2895:2912   */\n  and\n    /* \"#utility.yul\":2885:2912   */\n  swap2\n  pop\n    /* \"#utility.yul\":2841:2843   */\ntag_88:\n    /* \"#utility.yul\":2969:2971   */\n  0x20\n    /* \"#utility.yul\":2961:2967   */\n  dup3\n    /* \"#utility.yul\":2958:2972   */\n  lt\n    /* \"#utility.yul\":2938:2956   */\n  dup2\n    /* \"#utility.yul\":2935:2973   */\n  eq\n    /* \"#utility.yul\":2932:2934   */\n  iszero\n  tag_89\n  jumpi\n    /* \"#utility.yul\":2988:3006   */\n  tag_90\n  tag_91\n  jump\t// in\ntag_90:\n    /* \"#utility.yul\":2932:2934   */\ntag_89:\n    /* \"#utility.yul\":2753:3022   */\n  pop\n  swap2\n  swap1\n  pop\n  jump\t// out\n    /* \"#utility.yul\":3028:3208   */\ntag_80:\n    /* \"#utility.yul\":3076:3153   */\n  0x4e487b7100000000000000000000000000000000000000000000000000000000\n    /* \"#utility.yul\":3073:3074   */\n  0x00\n    /* \"#utility.yul\":3066:3154   */\n  mstore\n    /* \"#utility.yul\":3173:3177   */\n  0x11\n    /* \"#utility.yul\":3170:3171   */\n  0x04\n    /* \"#utility.yul\":3163:3178   */\n  mstore\n    /* \"#utility.yul\":3197:3201   */\n  0x24\n    /* \"#utility.yul\":3194:3195   */\n  0x00\n    /* \"#utility.yul\":3187:3202   */\n  revert\n    /* \"#utility.yul\":3214:3394   */\ntag_91:\n    /* \"#utility.yul\":3262:3339   */\n  0x4e487b7100000000000000000000000000000000000000000000000000000000\n    /* \"#utility.yul\":3259:3260   */\n  0x00\n    /* \"#utility.yul\":3252:3340   */\n  mstore\n    /* \"#utility.yul\":3359:3363   */\n  0x22\n    /* \"#utility.yul\":3356:3357   */\n  0x04\n    /* \"#utility.yul\":3349:3364   */\n  mstore\n    /* \"#utility.yul\":3383:3387   */\n  0x24\n    /* \"#utility.yul\":3380:3381   */\n  0x00\n    /* \"#utility.yul\":3373:3388   */\n  revert\n    /* \"#utility.yul\":3523:3640   */\ntag_55:\n    /* \"#utility.yul\":3632:3633   */\n  0x00\n    /* \"#utility.yul\":3629:3630   */\n  dup1\n    /* \"#utility.yul\":3622:3634   */\n  revert\n    /* \"#utility.yul\":3646:3827   */\ntag_63:\n    /* \"#utility.yul\":3786:3819   */\n  0x45524332303a206d696e7420746f20746865207a65726f206164647265737300\n    /* \"#utility.yul\":3782:3783   */\n  0x00\n    /* \"#utility.yul\":3774:3780   */\n  dup3\n    /* \"#utility.yul\":3770:3784   */\n  add\n    /* \"#utility.yul\":3763:3820   */\n  mstore\n    /* \"#utility.yul\":3752:3827   */\n  pop\n  jump\t// out\n    /* \"#utility.yul\":3833:3955   */\ntag_51:\n    /* \"#utility.yul\":3906:3930   */\n  tag_99\n    /* \"#utility.yul\":3924:3929   */\n  dup2\n    /* \"#utility.yul\":3906:3930   */\n  tag_81\n  jump\t// in\ntag_99:\n    /* \"#utility.yul\":3899:3904   */\n  dup2\n    /* \"#utility.yul\":3896:3931   */\n  eq\n    /* \"#utility.yul\":3886:3888   */\n  tag_100\n  jumpi\n    /* \"#utility.yul\":3945:3946   */\n  0x00\n    /* \"#utility.yul\":3942:3943   */\n  dup1\n    /* \"#utility.yul\":3935:3947   */\n  revert\n    /* \"#utility.yul\":3886:3888   */\ntag_100:\n    /* \"#utility.yul\":3876:3955   */\n  pop\n  jump\t// out\n    /* \"contracts/MemeTokenBase/memetoken.sol\":172:2212  contract DeflationaryMemeToken is ERC20, Ownable {\r... */\ntag_19:\n  dataSize(sub_0)\n  dup1\n  dataOffset(sub_0)\n  0x00\n  codecopy\n  0x00\n  return\nstop\n\nsub_0: assembly {\n        /* \"contracts/MemeTokenBase/memetoken.sol\":172:2212  contract DeflationaryMemeToken is ERC20, Ownable {\r... */\n      mstore(0x40, 0x80)\n      callvalue\n      dup1\n      iszero\n      tag_1\n      jumpi\n      0x00\n      dup1\n      revert\n    tag_1:\n      pop\n      jumpi(tag_2, lt(calldatasize, 0x04))\n      shr(0xe0, calldataload(0x00))\n      dup1\n      0x715018a6\n      gt\n      tag_25\n      jumpi\n      dup1\n      0xa457c2d7\n      gt\n      tag_26\n      jumpi\n      dup1\n      0xa457c2d7\n      eq\n      tag_19\n      jumpi\n      dup1\n      0xa9059cbb\n      eq\n      tag_20\n      jumpi\n      dup1\n      0xd4698016\n      eq\n      tag_21\n      jumpi\n      dup1\n      0xdd62ed3e\n      eq\n      tag_22\n      jumpi\n      dup1\n      0xf2fde38b\n      eq\n      tag_23\n      jumpi\n      dup1\n      0xf846a885\n      eq\n      tag_24\n      jumpi\n      jump(tag_2)\n    tag_26:\n      dup1\n      0x715018a6\n      eq\n      tag_14\n      jumpi\n      dup1\n      0x8ce1a483\n      eq\n      tag_15\n      jumpi\n      dup1\n      0x8da5cb5b\n      eq\n      tag_16\n      jumpi\n      dup1\n      0x902d55a5\n      eq\n      tag_17\n      jumpi\n      dup1\n      0x95d89b41\n      eq\n      tag_18\n      jumpi\n      jump(tag_2)\n    tag_25:\n      dup1\n      0x313ce567\n      gt\n      tag_27\n      jumpi\n      dup1\n      0x313ce567\n      eq\n      tag_8\n      jumpi\n      dup1\n      0x39509351\n      eq\n      tag_9\n      jumpi\n      dup1\n      0x4626402b\n      eq\n      tag_10\n      jumpi\n      dup1\n      0x53ab431b\n      eq\n      tag_11\n      jumpi\n      dup1\n      0x58fa63ca\n      eq\n      tag_12\n      jumpi\n      dup1\n      0x70a08231\n      eq\n      tag_13\n      jumpi\n      jump(tag_2)\n    tag_27:\n      dup1\n      0x03fd2a45\n      eq\n      tag_3\n      jumpi\n      dup1\n      0x06fdde03\n      eq\n      tag_4\n      jumpi\n      dup1\n      0x095ea7b3\n      eq\n      tag_5\n      jumpi\n      dup1\n      0x18160ddd\n      eq\n      tag_6\n      jumpi\n      dup1\n      0x23b872dd\n      eq\n      tag_7\n      jumpi\n    tag_2:\n      0x00\n      dup1\n      revert\n        /* \"contracts/MemeTokenBase/memetoken.sol\":228:301  address public constant DEAD = 0x000000000000000000000000000000000000dEaD */\n    tag_3:\n      tag_28\n      tag_29\n      jump\t// in\n    tag_28:\n      mload(0x40)\n      tag_30\n      swap2\n      swap1\n      tag_31\n      jump\t// in\n    tag_30:\n      mload(0x40)\n      dup1\n      swap2\n      sub\n      swap1\n      return\n        /* \"@openzeppelin/contracts/token/ERC20/ERC20.sol\":2158:2256  function name() public view virtual override returns (string memory) {... */\n    tag_4:\n      tag_32\n      tag_33\n      jump\t// in\n    tag_32:\n      mload(0x40)\n      tag_34\n      swap2\n      swap1\n      tag_35\n      jump\t// in\n    tag_34:\n      mload(0x40)\n      dup1\n      swap2\n      sub\n      swap1\n      return\n        /* \"@openzeppelin/contracts/token/ERC20/ERC20.sol\":4444:4641  function approve(address spender, uint256 amount) public virtual override returns (bool) {... */\n    tag_5:\n      tag_36\n      0x04\n      dup1\n      calldatasize\n      sub\n      dup2\n      add\n      swap1\n      tag_37\n      swap2\n      swap1\n      tag_38\n      jump\t// in\n    tag_37:\n      tag_39\n      jump\t// in\n    tag_36:\n      mload(0x40)\n      tag_40\n      swap2\n      swap1\n      tag_41\n      jump\t// in\n    tag_40:\n      mload(0x40)\n      dup1\n      swap2\n      sub\n      swap1\n      return\n        /* \"@openzeppelin/contracts/token/ERC20/ERC20.sol\":3255:3361  function totalSupply() public view virtual override returns (uint256) {... */\n    tag_6:\n      tag_42\n      tag_43\n      jump\t// in\n    tag_42:\n      mload(0x40)\n      tag_44\n      swap2\n      swap1\n      tag_45\n      jump\t// in\n    tag_44:\n      mload(0x40)\n      dup1\n      swap2\n      sub\n      swap1\n      return\n        /* \"contracts/MemeTokenBase/memetoken.sol\":1186:1589  function transferFrom(address sender, address recipient, uint256 amount) public override returns (bool) {\r... */\n    tag_7:\n      tag_46\n      0x04\n      dup1\n      calldatasize\n      sub\n      dup2\n      add\n      swap1\n      tag_47\n      swap2\n      swap1\n      tag_48\n      jump\t// in\n    tag_47:\n      tag_49\n      jump\t// in\n    tag_46:\n      mload(0x40)\n      tag_50\n      swap2\n      swap1\n      tag_41\n      jump\t// in\n    tag_50:\n      mload(0x40)\n      dup1\n      swap2\n      sub\n      swap1\n      return\n        /* \"@openzeppelin/contracts/token/ERC20/ERC20.sol\":3104:3195  function decimals() public view virtual override returns (uint8) {... */\n    tag_8:\n      tag_51\n      tag_52\n      jump\t// in\n    tag_51:\n      mload(0x40)\n      tag_53\n      swap2\n      swap1\n      tag_54\n      jump\t// in\n    tag_53:\n      mload(0x40)\n      dup1\n      swap2\n      sub\n      swap1\n      return\n        /* \"@openzeppelin/contracts/token/ERC20/ERC20.sol\":5854:6088  function increaseAllowance(address spender, uint256 addedValue) public virtual returns (bool) {... */\n    tag_9:\n      tag_55\n      0x04\n      dup1\n      calldatasize\n      sub\n      dup2\n      add\n      swap1\n      tag_56\n      swap2\n      swap1\n      tag_38\n      jump\t// in\n    tag_56:\n      tag_57\n      jump\t// in\n    tag_55:\n      mload(0x40)\n      tag_58\n      swap2\n      swap1\n      tag_41\n      jump\t// in\n    tag_58:\n      mload(0x40)\n      dup1\n      swap2\n      sub\n      swap1\n      return\n        /* \"contracts/MemeTokenBase/memetoken.sol\":388:417  address public treasuryWallet */\n    tag_10:\n      tag_59\n      tag_60\n      jump\t// in\n    tag_59:\n      mload(0x40)\n      tag_61\n      swap2\n      swap1\n      tag_31\n      jump\t// in\n    tag_61:\n      mload(0x40)\n      dup1\n      swap2\n      sub\n      swap1\n      return\n        /* \"contracts/MemeTokenBase/memetoken.sol\":520:562  uint256 public constant LIQUIDITY_FEE = 25 */\n    tag_11:\n      tag_62\n      tag_63\n      jump\t// in\n    tag_62:\n      mload(0x40)\n      tag_64\n      swap2\n      swap1\n      tag_45\n      jump\t// in\n    tag_64:\n      mload(0x40)\n      dup1\n      swap2\n      sub\n      swap1\n      return\n        /* \"contracts/MemeTokenBase/memetoken.sol\":308:381  address public constant ZERO = 0x0000000000000000000000000000000000000000 */\n    tag_12:\n      tag_65\n      tag_66\n      jump\t// in\n    tag_65:\n      mload(0x40)\n      tag_67\n      swap2\n      swap1\n      tag_31\n      jump\t// in\n    tag_67:\n      mload(0x40)\n      dup1\n      swap2\n      sub\n      swap1\n      return\n        /* \"@openzeppelin/contracts/token/ERC20/ERC20.sol\":3419:3544  function balanceOf(address account) public view virtual override returns (uint256) {... */\n    tag_13:\n      tag_68\n      0x04\n      dup1\n      calldatasize\n      sub\n      dup2\n      add\n      swap1\n      tag_69\n      swap2\n      swap1\n      tag_70\n      jump\t// in\n    tag_69:\n      tag_71\n      jump\t// in\n    tag_68:\n      mload(0x40)\n      tag_72\n      swap2\n      swap1\n      tag_45\n      jump\t// in\n    tag_72:\n      mload(0x40)\n      dup1\n      swap2\n      sub\n      swap1\n      return\n        /* \"@openzeppelin/contracts/access/Ownable.sol\":1824:1925  function renounceOwnership() public virtual onlyOwner {... */\n    tag_14:\n      tag_73\n      tag_74\n      jump\t// in\n    tag_73:\n      stop\n        /* \"contracts/MemeTokenBase/memetoken.sol\":463:504  uint256 public constant TREASURY_FEE = 50 */\n    tag_15:\n      tag_75\n      tag_76\n      jump\t// in\n    tag_75:\n      mload(0x40)\n      tag_77\n      swap2\n      swap1\n      tag_45\n      jump\t// in\n    tag_77:\n      mload(0x40)\n      dup1\n      swap2\n      sub\n      swap1\n      return\n        /* \"@openzeppelin/contracts/access/Ownable.sol\":1201:1286  function owner() public view virtual returns (address) {... */\n    tag_16:\n      tag_78\n      tag_79\n      jump\t// in\n    tag_78:\n      mload(0x40)\n      tag_80\n      swap2\n      swap1\n      tag_31\n      jump\t// in\n    tag_80:\n      mload(0x40)\n      dup1\n      swap2\n      sub\n      swap1\n      return\n        /* \"contracts/MemeTokenBase/memetoken.sol\":634:695  uint256 public constant TOTAL_SUPPLY = 100000000 * (10 ** 18) */\n    tag_17:\n      tag_81\n      tag_82\n      jump\t// in\n    tag_81:\n      mload(0x40)\n      tag_83\n      swap2\n      swap1\n      tag_45\n      jump\t// in\n    tag_83:\n      mload(0x40)\n      dup1\n      swap2\n      sub\n      swap1\n      return\n        /* \"@openzeppelin/contracts/token/ERC20/ERC20.sol\":2369:2471  function symbol() public view virtual override returns (string memory) {... */\n    tag_18:\n      tag_84\n      tag_85\n      jump\t// in\n    tag_84:\n      mload(0x40)\n      tag_86\n      swap2\n      swap1\n      tag_35\n      jump\t// in\n    tag_86:\n      mload(0x40)\n      dup1\n      swap2\n      sub\n      swap1\n      return\n        /* \"@openzeppelin/contracts/token/ERC20/ERC20.sol\":6575:7002  function decreaseAllowance(address spender, uint256 subtractedValue) public virtual returns (bool) {... */\n    tag_19:\n      tag_87\n      0x04\n      dup1\n      calldatasize\n      sub\n      dup2\n      add\n      swap1\n      tag_88\n      swap2\n      swap1\n      tag_38\n      jump\t// in\n    tag_88:\n      tag_89\n      jump\t// in\n    tag_87:\n      mload(0x40)\n      tag_90\n      swap2\n      swap1\n      tag_41\n      jump\t// in\n    tag_90:\n      mload(0x40)\n      dup1\n      swap2\n      sub\n      swap1\n      return\n        /* \"contracts/MemeTokenBase/memetoken.sol\":1018:1178  function transfer(address recipient, uint256 amount) public override returns (bool) {\r... */\n    tag_20:\n      tag_91\n      0x04\n      dup1\n      calldatasize\n      sub\n      dup2\n      add\n      swap1\n      tag_92\n      swap2\n      swap1\n      tag_38\n      jump\t// in\n    tag_92:\n      tag_93\n      jump\t// in\n    tag_91:\n      mload(0x40)\n      tag_94\n      swap2\n      swap1\n      tag_41\n      jump\t// in\n    tag_94:\n      mload(0x40)\n      dup1\n      swap2\n      sub\n      swap1\n      return\n        /* \"contracts/MemeTokenBase/memetoken.sol\":424:454  address public liquidityWallet */\n    tag_21:\n      tag_95\n      tag_96\n      jump\t// in\n    tag_95:\n      mload(0x40)\n      tag_97\n      swap2\n      swap1\n      tag_31\n      jump\t// in\n    tag_97:\n      mload(0x40)\n      dup1\n      swap2\n      sub\n      swap1\n      return\n        /* \"@openzeppelin/contracts/token/ERC20/ERC20.sol\":3987:4136  function allowance(address owner, address spender) public view virtual override returns (uint256) {... */\n    tag_22:\n      tag_98\n      0x04\n      dup1\n      calldatasize\n      sub\n      dup2\n      add\n      swap1\n      tag_99\n      swap2\n      swap1\n      tag_100\n      jump\t// in\n    tag_99:\n      tag_101\n      jump\t// in\n    tag_98:\n      mload(0x40)\n      tag_102\n      swap2\n      swap1\n      tag_45\n      jump\t// in\n    tag_102:\n      mload(0x40)\n      dup1\n      swap2\n      sub\n      swap1\n      return\n        /* \"@openzeppelin/contracts/access/Ownable.sol\":2074:2272  function transferOwnership(address newOwner) public virtual onlyOwner {... */\n    tag_23:\n      tag_103\n      0x04\n      dup1\n      calldatasize\n      sub\n      dup2\n      add\n      swap1\n      tag_104\n      swap2\n      swap1\n      tag_70\n      jump\t// in\n    tag_104:\n      tag_105\n      jump\t// in\n    tag_103:\n      stop\n        /* \"contracts/MemeTokenBase/memetoken.sol\":579:617  uint256 public constant BURN_RATE = 35 */\n    tag_24:\n      tag_106\n      tag_107\n      jump\t// in\n    tag_106:\n      mload(0x40)\n      tag_108\n      swap2\n      swap1\n      tag_45\n      jump\t// in\n    tag_108:\n      mload(0x40)\n      dup1\n      swap2\n      sub\n      swap1\n      return\n        /* \"contracts/MemeTokenBase/memetoken.sol\":228:301  address public constant DEAD = 0x000000000000000000000000000000000000dEaD */\n    tag_29:\n        /* \"contracts/MemeTokenBase/memetoken.sol\":259:301  0x000000000000000000000000000000000000dEaD */\n      0xdead\n        /* \"contracts/MemeTokenBase/memetoken.sol\":228:301  address public constant DEAD = 0x000000000000000000000000000000000000dEaD */\n      dup2\n      jump\t// out\n        /* \"@openzeppelin/contracts/token/ERC20/ERC20.sol\":2158:2256  function name() public view virtual override returns (string memory) {... */\n    tag_33:\n        /* \"@openzeppelin/contracts/token/ERC20/ERC20.sol\":2212:2225  string memory */\n      0x60\n        /* \"@openzeppelin/contracts/token/ERC20/ERC20.sol\":2244:2249  _name */\n      0x03\n        /* \"@openzeppelin/contracts/token/ERC20/ERC20.sol\":2237:2249  return _name */\n      dup1\n      sload\n      tag_110\n      swap1\n      tag_111\n      jump\t// in\n    tag_110:\n      dup1\n      0x1f\n      add\n      0x20\n      dup1\n      swap2\n      div\n      mul\n      0x20\n      add\n      mload(0x40)\n      swap1\n      dup2\n      add\n      0x40\n      mstore\n      dup1\n      swap3\n      swap2\n      swap1\n      dup2\n      dup2\n      mstore\n      0x20\n      add\n      dup3\n      dup1\n      sload\n      tag_112\n      swap1\n      tag_111\n      jump\t// in\n    tag_112:\n      dup1\n      iszero\n      tag_113\n      jumpi\n      dup1\n      0x1f\n      lt\n      tag_114\n      jumpi\n      0x0100\n      dup1\n      dup4\n      sload\n      div\n      mul\n      dup4\n      mstore\n      swap2\n      0x20\n      add\n      swap2\n      jump(tag_113)\n    tag_114:\n      dup3\n      add\n      swap2\n      swap1\n      0x00\n      mstore\n      keccak256(0x00, 0x20)\n      swap1\n    tag_115:\n      dup2\n      sload\n      dup2\n      mstore\n      swap1\n      0x01\n      add\n      swap1\n      0x20\n      add\n      dup1\n      dup4\n      gt\n      tag_115\n      jumpi\n      dup3\n      swap1\n      sub\n      0x1f\n      and\n      dup3\n      add\n      swap2\n    tag_113:\n      pop\n      pop\n      pop\n      pop\n      pop\n      swap1\n      pop\n        /* \"@openzeppelin/contracts/token/ERC20/ERC20.sol\":2158:2256  function name() public view virtual override returns (string memory) {... */\n      swap1\n      jump\t// out\n        /* \"@openzeppelin/contracts/token/ERC20/ERC20.sol\":4444:4641  function approve(address spender, uint256 amount) public virtual override returns (bool) {... */\n    tag_39:\n        /* \"@openzeppelin/contracts/token/ERC20/ERC20.sol\":4527:4531  bool */\n      0x00\n        /* \"@openzeppelin/contracts/token/ERC20/ERC20.sol\":4543:4556  address owner */\n      dup1\n        /* \"@openzeppelin/contracts/token/ERC20/ERC20.sol\":4559:4571  _msgSender() */\n      tag_117\n        /* \"@openzeppelin/contracts/token/ERC20/ERC20.sol\":4559:4569  _msgSender */\n      tag_118\n        /* \"@openzeppelin/contracts/token/ERC20/ERC20.sol\":4559:4571  _msgSender() */\n      jump\t// in\n    tag_117:\n        /* \"@openzeppelin/contracts/token/ERC20/ERC20.sol\":4543:4571  address owner = _msgSender() */\n      swap1\n      pop\n        /* \"@openzeppelin/contracts/token/ERC20/ERC20.sol\":4581:4613  _approve(owner, spender, amount) */\n      tag_119\n        /* \"@openzeppelin/contracts/token/ERC20/ERC20.sol\":4590:4595  owner */\n      dup2\n        /* \"@openzeppelin/contracts/token/ERC20/ERC20.sol\":4597:4604  spender */\n      dup6\n        /* \"@openzeppelin/contracts/token/ERC20/ERC20.sol\":4606:4612  amount */\n      dup6\n        /* \"@openzeppelin/contracts/token/ERC20/ERC20.sol\":4581:4589  _approve */\n      tag_120\n        /* \"@openzeppelin/contracts/token/ERC20/ERC20.sol\":4581:4613  _approve(owner, spender, amount) */\n      jump\t// in\n    tag_119:\n        /* \"@openzeppelin/contracts/token/ERC20/ERC20.sol\":4630:4634  true */\n      0x01\n        /* \"@openzeppelin/contracts/token/ERC20/ERC20.sol\":4623:4634  return true */\n      swap2\n      pop\n      pop\n        /* \"@openzeppelin/contracts/token/ERC20/ERC20.sol\":4444:4641  function approve(address spender, uint256 amount) public virtual override returns (bool) {... */\n      swap3\n      swap2\n      pop\n      pop\n      jump\t// out\n        /* \"@openzeppelin/contracts/token/ERC20/ERC20.sol\":3255:3361  function totalSupply() public view virtual override returns (uint256) {... */\n    tag_43:\n        /* \"@openzeppelin/contracts/token/ERC20/ERC20.sol\":3316:3323  uint256 */\n      0x00\n        /* \"@openzeppelin/contracts/token/ERC20/ERC20.sol\":3342:3354  _totalSupply */\n      sload(0x02)\n        /* \"@openzeppelin/contracts/token/ERC20/ERC20.sol\":3335:3354  return _totalSupply */\n      swap1\n      pop\n        /* \"@openzeppelin/contracts/token/ERC20/ERC20.sol\":3255:3361  function totalSupply() public view virtual override returns (uint256) {... */\n      swap1\n      jump\t// out\n        /* \"contracts/MemeTokenBase/memetoken.sol\":1186:1589  function transferFrom(address sender, address recipient, uint256 amount) public override returns (bool) {\r... */\n    tag_49:\n        /* \"contracts/MemeTokenBase/memetoken.sol\":1284:1288  bool */\n      0x00\n        /* \"contracts/MemeTokenBase/memetoken.sol\":1301:1325  uint256 currentAllowance */\n      dup1\n        /* \"contracts/MemeTokenBase/memetoken.sol\":1328:1359  allowance(sender, _msgSender()) */\n      tag_123\n        /* \"contracts/MemeTokenBase/memetoken.sol\":1338:1344  sender */\n      dup6\n        /* \"contracts/MemeTokenBase/memetoken.sol\":1346:1358  _msgSender() */\n      tag_124\n        /* \"contracts/MemeTokenBase/memetoken.sol\":1346:1356  _msgSender */\n      tag_118\n        /* \"contracts/MemeTokenBase/memetoken.sol\":1346:1358  _msgSender() */\n      jump\t// in\n    tag_124:\n        /* \"contracts/MemeTokenBase/memetoken.sol\":1328:1337  allowance */\n      tag_101\n        /* \"contracts/MemeTokenBase/memetoken.sol\":1328:1359  allowance(sender, _msgSender()) */\n      jump\t// in\n    tag_123:\n        /* \"contracts/MemeTokenBase/memetoken.sol\":1301:1359  uint256 currentAllowance = allowance(sender, _msgSender()) */\n      swap1\n      pop\n        /* \"contracts/MemeTokenBase/memetoken.sol\":1398:1404  amount */\n      dup3\n        /* \"contracts/MemeTokenBase/memetoken.sol\":1378:1394  currentAllowance */\n      dup2\n        /* \"contracts/MemeTokenBase/memetoken.sol\":1378:1404  currentAllowance >= amount */\n      lt\n      iszero\n        /* \"contracts/MemeTokenBase/memetoken.sol\":1370:1449  require(currentAllowance >= amount, \"ERC20: transfer amount exceeds allowance\") */\n      tag_125\n      jumpi\n      mload(0x40)\n      0x08c379a000000000000000000000000000000000000000000000000000000000\n      dup2\n      mstore\n      0x04\n      add\n      tag_126\n      swap1\n      tag_127\n      jump\t// in\n    tag_126:\n      mload(0x40)\n      dup1\n      swap2\n      sub\n      swap1\n      revert\n    tag_125:\n        /* \"contracts/MemeTokenBase/memetoken.sol\":1460:1517  _approve(sender, _msgSender(), currentAllowance - amount) */\n      tag_128\n        /* \"contracts/MemeTokenBase/memetoken.sol\":1469:1475  sender */\n      dup6\n        /* \"contracts/MemeTokenBase/memetoken.sol\":1477:1489  _msgSender() */\n      tag_129\n        /* \"contracts/MemeTokenBase/memetoken.sol\":1477:1487  _msgSender */\n      tag_118\n        /* \"contracts/MemeTokenBase/memetoken.sol\":1477:1489  _msgSender() */\n      jump\t// in\n    tag_129:\n        /* \"contracts/MemeTokenBase/memetoken.sol\":1510:1516  amount */\n      dup6\n        /* \"contracts/MemeTokenBase/memetoken.sol\":1491:1507  currentAllowance */\n      dup5\n        /* \"contracts/MemeTokenBase/memetoken.sol\":1491:1516  currentAllowance - amount */\n      tag_130\n      swap2\n      swap1\n      tag_131\n      jump\t// in\n    tag_130:\n        /* \"contracts/MemeTokenBase/memetoken.sol\":1460:1468  _approve */\n      tag_120\n        /* \"contracts/MemeTokenBase/memetoken.sol\":1460:1517  _approve(sender, _msgSender(), currentAllowance - amount) */\n      jump\t// in\n    tag_128:\n        /* \"contracts/MemeTokenBase/memetoken.sol\":1535:1581  _processTransaction(sender, recipient, amount) */\n      tag_132\n        /* \"contracts/MemeTokenBase/memetoken.sol\":1555:1561  sender */\n      dup6\n        /* \"contracts/MemeTokenBase/memetoken.sol\":1563:1572  recipient */\n      dup6\n        /* \"contracts/MemeTokenBase/memetoken.sol\":1574:1580  amount */\n      dup6\n        /* \"contracts/MemeTokenBase/memetoken.sol\":1535:1554  _processTransaction */\n      tag_133\n        /* \"contracts/MemeTokenBase/memetoken.sol\":1535:1581  _processTransaction(sender, recipient, amount) */\n      jump\t// in\n    tag_132:\n        /* \"contracts/MemeTokenBase/memetoken.sol\":1528:1581  return _processTransaction(sender, recipient, amount) */\n      swap2\n      pop\n      pop\n        /* \"contracts/MemeTokenBase/memetoken.sol\":1186:1589  function transferFrom(address sender, address recipient, uint256 amount) public override returns (bool) {\r... */\n      swap4\n      swap3\n      pop\n      pop\n      pop\n      jump\t// out\n        /* \"@openzeppelin/contracts/token/ERC20/ERC20.sol\":3104:3195  function decimals() public view virtual override returns (uint8) {... */\n    tag_52:\n        /* \"@openzeppelin/contracts/token/ERC20/ERC20.sol\":3162:3167  uint8 */\n      0x00\n        /* \"@openzeppelin/contracts/token/ERC20/ERC20.sol\":3186:3188  18 */\n      0x12\n        /* \"@openzeppelin/contracts/token/ERC20/ERC20.sol\":3179:3188  return 18 */\n      swap1\n      pop\n        /* \"@openzeppelin/contracts/token/ERC20/ERC20.sol\":3104:3195  function decimals() public view virtual override returns (uint8) {... */\n      swap1\n      jump\t// out\n        /* \"@openzeppelin/contracts/token/ERC20/ERC20.sol\":5854:6088  function increaseAllowance(address spender, uint256 addedValue) public virtual returns (bool) {... */\n    tag_57:\n        /* \"@openzeppelin/contracts/token/ERC20/ERC20.sol\":5942:5946  bool */\n      0x00\n        /* \"@openzeppelin/contracts/token/ERC20/ERC20.sol\":5958:5971  address owner */\n      dup1\n        /* \"@openzeppelin/contracts/token/ERC20/ERC20.sol\":5974:5986  _msgSender() */\n      tag_136\n        /* \"@openzeppelin/contracts/token/ERC20/ERC20.sol\":5974:5984  _msgSender */\n      tag_118\n        /* \"@openzeppelin/contracts/token/ERC20/ERC20.sol\":5974:5986  _msgSender() */\n      jump\t// in\n    tag_136:\n        /* \"@openzeppelin/contracts/token/ERC20/ERC20.sol\":5958:5986  address owner = _msgSender() */\n      swap1\n      pop\n        /* \"@openzeppelin/contracts/token/ERC20/ERC20.sol\":5996:6060  _approve(owner, spender, allowance(owner, spender) + addedValue) */\n      tag_137\n        /* \"@openzeppelin/contracts/token/ERC20/ERC20.sol\":6005:6010  owner */\n      dup2\n        /* \"@openzeppelin/contracts/token/ERC20/ERC20.sol\":6012:6019  spender */\n      dup6\n        /* \"@openzeppelin/contracts/token/ERC20/ERC20.sol\":6049:6059  addedValue */\n      dup6\n        /* \"@openzeppelin/contracts/token/ERC20/ERC20.sol\":6021:6046  allowance(owner, spender) */\n      tag_138\n        /* \"@openzeppelin/contracts/token/ERC20/ERC20.sol\":6031:6036  owner */\n      dup6\n        /* \"@openzeppelin/contracts/token/ERC20/ERC20.sol\":6038:6045  spender */\n      dup10\n        /* \"@openzeppelin/contracts/token/ERC20/ERC20.sol\":6021:6030  allowance */\n      tag_101\n        /* \"@openzeppelin/contracts/token/ERC20/ERC20.sol\":6021:6046  allowance(owner, spender) */\n      jump\t// in\n    tag_138:\n        /* \"@openzeppelin/contracts/token/ERC20/ERC20.sol\":6021:6059  allowance(owner, spender) + addedValue */\n      tag_139\n      swap2\n      swap1\n      tag_140\n      jump\t// in\n    tag_139:\n        /* \"@openzeppelin/contracts/token/ERC20/ERC20.sol\":5996:6004  _approve */\n      tag_120\n        /* \"@openzeppelin/contracts/token/ERC20/ERC20.sol\":5996:6060  _approve(owner, spender, allowance(owner, spender) + addedValue) */\n      jump\t// in\n    tag_137:\n        /* \"@openzeppelin/contracts/token/ERC20/ERC20.sol\":6077:6081  true */\n      0x01\n        /* \"@openzeppelin/contracts/token/ERC20/ERC20.sol\":6070:6081  return true */\n      swap2\n      pop\n      pop\n        /* \"@openzeppelin/contracts/token/ERC20/ERC20.sol\":5854:6088  function increaseAllowance(address spender, uint256 addedValue) public virtual returns (bool) {... */\n      swap3\n      swap2\n      pop\n      pop\n      jump\t// out\n        /* \"contracts/MemeTokenBase/memetoken.sol\":388:417  address public treasuryWallet */\n    tag_60:\n      0x06\n      0x00\n      swap1\n      sload\n      swap1\n      0x0100\n      exp\n      swap1\n      div\n      0xffffffffffffffffffffffffffffffffffffffff\n      and\n      dup2\n      jump\t// out\n        /* \"contracts/MemeTokenBase/memetoken.sol\":520:562  uint256 public constant LIQUIDITY_FEE = 25 */\n    tag_63:\n        /* \"contracts/MemeTokenBase/memetoken.sol\":560:562  25 */\n      0x19\n        /* \"contracts/MemeTokenBase/memetoken.sol\":520:562  uint256 public constant LIQUIDITY_FEE = 25 */\n      dup2\n      jump\t// out\n        /* \"contracts/MemeTokenBase/memetoken.sol\":308:381  address public constant ZERO = 0x0000000000000000000000000000000000000000 */\n    tag_66:\n        /* \"contracts/MemeTokenBase/memetoken.sol\":339:381  0x0000000000000000000000000000000000000000 */\n      0x00\n        /* \"contracts/MemeTokenBase/memetoken.sol\":308:381  address public constant ZERO = 0x0000000000000000000000000000000000000000 */\n      dup2\n      jump\t// out\n        /* \"@openzeppelin/contracts/token/ERC20/ERC20.sol\":3419:3544  function balanceOf(address account) public view virtual override returns (uint256) {... */\n    tag_71:\n        /* \"@openzeppelin/contracts/token/ERC20/ERC20.sol\":3493:3500  uint256 */\n      0x00\n        /* \"@openzeppelin/contracts/token/ERC20/ERC20.sol\":3519:3528  _balances */\n      dup1\n        /* \"@openzeppelin/contracts/token/ERC20/ERC20.sol\":3519:3537  _balances[account] */\n      0x00\n        /* \"@openzeppelin/contracts/token/ERC20/ERC20.sol\":3529:3536  account */\n      dup4\n        /* \"@openzeppelin/contracts/token/ERC20/ERC20.sol\":3519:3537  _balances[account] */\n      0xffffffffffffffffffffffffffffffffffffffff\n      and\n      0xffffffffffffffffffffffffffffffffffffffff\n      and\n      dup2\n      mstore\n      0x20\n      add\n      swap1\n      dup2\n      mstore\n      0x20\n      add\n      0x00\n      keccak256\n      sload\n        /* \"@openzeppelin/contracts/token/ERC20/ERC20.sol\":3512:3537  return _balances[account] */\n      swap1\n      pop\n        /* \"@openzeppelin/contracts/token/ERC20/ERC20.sol\":3419:3544  function balanceOf(address account) public view virtual override returns (uint256) {... */\n      swap2\n      swap1\n      pop\n      jump\t// out\n        /* \"@openzeppelin/contracts/access/Ownable.sol\":1824:1925  function renounceOwnership() public virtual onlyOwner {... */\n    tag_74:\n        /* \"@openzeppelin/contracts/access/Ownable.sol\":1094:1107  _checkOwner() */\n      tag_143\n        /* \"@openzeppelin/contracts/access/Ownable.sol\":1094:1105  _checkOwner */\n      tag_144\n        /* \"@openzeppelin/contracts/access/Ownable.sol\":1094:1107  _checkOwner() */\n      jump\t// in\n    tag_143:\n        /* \"@openzeppelin/contracts/access/Ownable.sol\":1888:1918  _transferOwnership(address(0)) */\n      tag_146\n        /* \"@openzeppelin/contracts/access/Ownable.sol\":1915:1916  0 */\n      0x00\n        /* \"@openzeppelin/contracts/access/Ownable.sol\":1888:1906  _transferOwnership */\n      tag_147\n        /* \"@openzeppelin/contracts/access/Ownable.sol\":1888:1918  _transferOwnership(address(0)) */\n      jump\t// in\n    tag_146:\n        /* \"@openzeppelin/contracts/access/Ownable.sol\":1824:1925  function renounceOwnership() public virtual onlyOwner {... */\n      jump\t// out\n        /* \"contracts/MemeTokenBase/memetoken.sol\":463:504  uint256 public constant TREASURY_FEE = 50 */\n    tag_76:\n        /* \"contracts/MemeTokenBase/memetoken.sol\":502:504  50 */\n      0x32\n        /* \"contracts/MemeTokenBase/memetoken.sol\":463:504  uint256 public constant TREASURY_FEE = 50 */\n      dup2\n      jump\t// out\n        /* \"@openzeppelin/contracts/access/Ownable.sol\":1201:1286  function owner() public view virtual returns (address) {... */\n    tag_79:\n        /* \"@openzeppelin/contracts/access/Ownable.sol\":1247:1254  address */\n      0x00\n        /* \"@openzeppelin/contracts/access/Ownable.sol\":1273:1279  _owner */\n      0x05\n      0x00\n      swap1\n      sload\n      swap1\n      0x0100\n      exp\n      swap1\n      div\n      0xffffffffffffffffffffffffffffffffffffffff\n      and\n        /* \"@openzeppelin/contracts/access/Ownable.sol\":1266:1279  return _owner */\n      swap1\n      pop\n        /* \"@openzeppelin/contracts/access/Ownable.sol\":1201:1286  function owner() public view virtual returns (address) {... */\n      swap1\n      jump\t// out\n        /* \"contracts/MemeTokenBase/memetoken.sol\":634:695  uint256 public constant TOTAL_SUPPLY = 100000000 * (10 ** 18) */\n    tag_82:\n        /* \"contracts/MemeTokenBase/memetoken.sol\":673:695  100000000 * (10 ** 18) */\n      0x52b7d2dcc80cd2e4000000\n        /* \"contracts/MemeTokenBase/memetoken.sol\":634:695  uint256 public constant TOTAL_SUPPLY = 100000000 * (10 ** 18) */\n      dup2\n      jump\t// out\n        /* \"@openzeppelin/contracts/token/ERC20/ERC20.sol\":2369:2471  function symbol() public view virtual override returns (string memory) {... */\n    tag_85:\n        /* \"@openzeppelin/contracts/token/ERC20/ERC20.sol\":2425:2438  string memory */\n      0x60\n        /* \"@openzeppelin/contracts/token/ERC20/ERC20.sol\":2457:2464  _symbol */\n      0x04\n        /* \"@openzeppelin/contracts/token/ERC20/ERC20.sol\":2450:2464  return _symbol */\n      dup1\n      sload\n      tag_150\n      swap1\n      tag_111\n      jump\t// in\n    tag_150:\n      dup1\n      0x1f\n      add\n      0x20\n      dup1\n      swap2\n      div\n      mul\n      0x20\n      add\n      mload(0x40)\n      swap1\n      dup2\n      add\n      0x40\n      mstore\n      dup1\n      swap3\n      swap2\n      swap1\n      dup2\n      dup2\n      mstore\n      0x20\n      add\n      dup3\n      dup1\n      sload\n      tag_151\n      swap1\n      tag_111\n      jump\t// in\n    tag_151:\n      dup1\n      iszero\n      tag_152\n      jumpi\n      dup1\n      0x1f\n      lt\n      tag_153\n      jumpi\n      0x0100\n      dup1\n      dup4\n      sload\n      div\n      mul\n      dup4\n      mstore\n      swap2\n      0x20\n      add\n      swap2\n      jump(tag_152)\n    tag_153:\n      dup3\n      add\n      swap2\n      swap1\n      0x00\n      mstore\n      keccak256(0x00, 0x20)\n      swap1\n    tag_154:\n      dup2\n      sload\n      dup2\n      mstore\n      swap1\n      0x01\n      add\n      swap1\n      0x20\n      add\n      dup1\n      dup4\n      gt\n      tag_154\n      jumpi\n      dup3\n      swap1\n      sub\n      0x1f\n      and\n      dup3\n      add\n      swap2\n    tag_152:\n      pop\n      pop\n      pop\n      pop\n      pop\n      swap1\n      pop\n        /* \"@openzeppelin/contracts/token/ERC20/ERC20.sol\":2369:2471  function symbol() public view virtual override returns (string memory) {... */\n      swap1\n      jump\t// out\n        /* \"@openzeppelin/contracts/token/ERC20/ERC20.sol\":6575:7002  function decreaseAllowance(address spender, uint256 subtractedValue) public virtual returns (bool) {... */\n    tag_89:\n        /* \"@openzeppelin/contracts/token/ERC20/ERC20.sol\":6668:6672  bool */\n      0x00\n        /* \"@openzeppelin/contracts/token/ERC20/ERC20.sol\":6684:6697  address owner */\n      dup1\n        /* \"@openzeppelin/contracts/token/ERC20/ERC20.sol\":6700:6712  _msgSender() */\n      tag_156\n        /* \"@openzeppelin/contracts/token/ERC20/ERC20.sol\":6700:6710  _msgSender */\n      tag_118\n        /* \"@openzeppelin/contracts/token/ERC20/ERC20.sol\":6700:6712  _msgSender() */\n      jump\t// in\n    tag_156:\n        /* \"@openzeppelin/contracts/token/ERC20/ERC20.sol\":6684:6712  address owner = _msgSender() */\n      swap1\n      pop\n        /* \"@openzeppelin/contracts/token/ERC20/ERC20.sol\":6722:6746  uint256 currentAllowance */\n      0x00\n        /* \"@openzeppelin/contracts/token/ERC20/ERC20.sol\":6749:6774  allowance(owner, spender) */\n      tag_157\n        /* \"@openzeppelin/contracts/token/ERC20/ERC20.sol\":6759:6764  owner */\n      dup3\n        /* \"@openzeppelin/contracts/token/ERC20/ERC20.sol\":6766:6773  spender */\n      dup7\n        /* \"@openzeppelin/contracts/token/ERC20/ERC20.sol\":6749:6758  allowance */\n      tag_101\n        /* \"@openzeppelin/contracts/token/ERC20/ERC20.sol\":6749:6774  allowance(owner, spender) */\n      jump\t// in\n    tag_157:\n        /* \"@openzeppelin/contracts/token/ERC20/ERC20.sol\":6722:6774  uint256 currentAllowance = allowance(owner, spender) */\n      swap1\n      pop\n        /* \"@openzeppelin/contracts/token/ERC20/ERC20.sol\":6812:6827  subtractedValue */\n      dup4\n        /* \"@openzeppelin/contracts/token/ERC20/ERC20.sol\":6792:6808  currentAllowance */\n      dup2\n        /* \"@openzeppelin/contracts/token/ERC20/ERC20.sol\":6792:6827  currentAllowance >= subtractedValue */\n      lt\n      iszero\n        /* \"@openzeppelin/contracts/token/ERC20/ERC20.sol\":6784:6869  require(currentAllowance >= subtractedValue, \"ERC20: decreased allowance below zero\") */\n      tag_158\n      jumpi\n      mload(0x40)\n      0x08c379a000000000000000000000000000000000000000000000000000000000\n      dup2\n      mstore\n      0x04\n      add\n      tag_159\n      swap1\n      tag_160\n      jump\t// in\n    tag_159:\n      mload(0x40)\n      dup1\n      swap2\n      sub\n      swap1\n      revert\n    tag_158:\n        /* \"@openzeppelin/contracts/token/ERC20/ERC20.sol\":6903:6963  _approve(owner, spender, currentAllowance - subtractedValue) */\n      tag_161\n        /* \"@openzeppelin/contracts/token/ERC20/ERC20.sol\":6912:6917  owner */\n      dup3\n        /* \"@openzeppelin/contracts/token/ERC20/ERC20.sol\":6919:6926  spender */\n      dup7\n        /* \"@openzeppelin/contracts/token/ERC20/ERC20.sol\":6947:6962  subtractedValue */\n      dup7\n        /* \"@openzeppelin/contracts/token/ERC20/ERC20.sol\":6928:6944  currentAllowance */\n      dup5\n        /* \"@openzeppelin/contracts/token/ERC20/ERC20.sol\":6928:6962  currentAllowance - subtractedValue */\n      sub\n        /* \"@openzeppelin/contracts/token/ERC20/ERC20.sol\":6903:6911  _approve */\n      tag_120\n        /* \"@openzeppelin/contracts/token/ERC20/ERC20.sol\":6903:6963  _approve(owner, spender, currentAllowance - subtractedValue) */\n      jump\t// in\n    tag_161:\n        /* \"@openzeppelin/contracts/token/ERC20/ERC20.sol\":6991:6995  true */\n      0x01\n        /* \"@openzeppelin/contracts/token/ERC20/ERC20.sol\":6984:6995  return true */\n      swap3\n      pop\n      pop\n      pop\n        /* \"@openzeppelin/contracts/token/ERC20/ERC20.sol\":6575:7002  function decreaseAllowance(address spender, uint256 subtractedValue) public virtual returns (bool) {... */\n      swap3\n      swap2\n      pop\n      pop\n      jump\t// out\n        /* \"contracts/MemeTokenBase/memetoken.sol\":1018:1178  function transfer(address recipient, uint256 amount) public override returns (bool) {\r... */\n    tag_93:\n        /* \"contracts/MemeTokenBase/memetoken.sol\":1096:1100  bool */\n      0x00\n        /* \"contracts/MemeTokenBase/memetoken.sol\":1120:1170  _processTransaction(msg.sender, recipient, amount) */\n      tag_163\n        /* \"contracts/MemeTokenBase/memetoken.sol\":1140:1150  msg.sender */\n      caller\n        /* \"contracts/MemeTokenBase/memetoken.sol\":1152:1161  recipient */\n      dup5\n        /* \"contracts/MemeTokenBase/memetoken.sol\":1163:1169  amount */\n      dup5\n        /* \"contracts/MemeTokenBase/memetoken.sol\":1120:1139  _processTransaction */\n      tag_133\n        /* \"contracts/MemeTokenBase/memetoken.sol\":1120:1170  _processTransaction(msg.sender, recipient, amount) */\n      jump\t// in\n    tag_163:\n        /* \"contracts/MemeTokenBase/memetoken.sol\":1113:1170  return _processTransaction(msg.sender, recipient, amount) */\n      swap1\n      pop\n        /* \"contracts/MemeTokenBase/memetoken.sol\":1018:1178  function transfer(address recipient, uint256 amount) public override returns (bool) {\r... */\n      swap3\n      swap2\n      pop\n      pop\n      jump\t// out\n        /* \"contracts/MemeTokenBase/memetoken.sol\":424:454  address public liquidityWallet */\n    tag_96:\n      0x07\n      0x00\n      swap1\n      sload\n      swap1\n      0x0100\n      exp\n      swap1\n      div\n      0xffffffffffffffffffffffffffffffffffffffff\n      and\n      dup2\n      jump\t// out\n        /* \"@openzeppelin/contracts/token/ERC20/ERC20.sol\":3987:4136  function allowance(address owner, address spender) public view virtual override returns (uint256) {... */\n    tag_101:\n        /* \"@openzeppelin/contracts/token/ERC20/ERC20.sol\":4076:4083  uint256 */\n      0x00\n        /* \"@openzeppelin/contracts/token/ERC20/ERC20.sol\":4102:4113  _allowances */\n      0x01\n        /* \"@openzeppelin/contracts/token/ERC20/ERC20.sol\":4102:4120  _allowances[owner] */\n      0x00\n        /* \"@openzeppelin/contracts/token/ERC20/ERC20.sol\":4114:4119  owner */\n      dup5\n        /* \"@openzeppelin/contracts/token/ERC20/ERC20.sol\":4102:4120  _allowances[owner] */\n      0xffffffffffffffffffffffffffffffffffffffff\n      and\n      0xffffffffffffffffffffffffffffffffffffffff\n      and\n      dup2\n      mstore\n      0x20\n      add\n      swap1\n      dup2\n      mstore\n      0x20\n      add\n      0x00\n      keccak256\n        /* \"@openzeppelin/contracts/token/ERC20/ERC20.sol\":4102:4129  _allowances[owner][spender] */\n      0x00\n        /* \"@openzeppelin/contracts/token/ERC20/ERC20.sol\":4121:4128  spender */\n      dup4\n        /* \"@openzeppelin/contracts/token/ERC20/ERC20.sol\":4102:4129  _allowances[owner][spender] */\n      0xffffffffffffffffffffffffffffffffffffffff\n      and\n      0xffffffffffffffffffffffffffffffffffffffff\n      and\n      dup2\n      mstore\n      0x20\n      add\n      swap1\n      dup2\n      mstore\n      0x20\n      add\n      0x00\n      keccak256\n      sload\n        /* \"@openzeppelin/contracts/token/ERC20/ERC20.sol\":4095:4129  return _allowances[owner][spender] */\n      swap1\n      pop\n        /* \"@openzeppelin/contracts/token/ERC20/ERC20.sol\":3987:4136  function allowance(address owner, address spender) public view virtual override returns (uint256) {... */\n      swap3\n      swap2\n      pop\n      pop\n      jump\t// out\n        /* \"@openzeppelin/contracts/access/Ownable.sol\":2074:2272  function transferOwnership(address newOwner) public virtual onlyOwner {... */\n    tag_105:\n        /* \"@openzeppelin/contracts/access/Ownable.sol\":1094:1107  _checkOwner() */\n      tag_166\n        /* \"@openzeppelin/contracts/access/Ownable.sol\":1094:1105  _checkOwner */\n      tag_144\n        /* \"@openzeppelin/contracts/access/Ownable.sol\":1094:1107  _checkOwner() */\n      jump\t// in\n    tag_166:\n        /* \"@openzeppelin/contracts/access/Ownable.sol\":2182:2183  0 */\n      0x00\n        /* \"@openzeppelin/contracts/access/Ownable.sol\":2162:2184  newOwner != address(0) */\n      0xffffffffffffffffffffffffffffffffffffffff\n      and\n        /* \"@openzeppelin/contracts/access/Ownable.sol\":2162:2170  newOwner */\n      dup2\n        /* \"@openzeppelin/contracts/access/Ownable.sol\":2162:2184  newOwner != address(0) */\n      0xffffffffffffffffffffffffffffffffffffffff\n      and\n      eq\n      iszero\n        /* \"@openzeppelin/contracts/access/Ownable.sol\":2154:2227  require(newOwner != address(0), \"Ownable: new owner is the zero address\") */\n      tag_168\n      jumpi\n      mload(0x40)\n      0x08c379a000000000000000000000000000000000000000000000000000000000\n      dup2\n      mstore\n      0x04\n      add\n      tag_169\n      swap1\n      tag_170\n      jump\t// in\n    tag_169:\n      mload(0x40)\n      dup1\n      swap2\n      sub\n      swap1\n      revert\n    tag_168:\n        /* \"@openzeppelin/contracts/access/Ownable.sol\":2237:2265  _transferOwnership(newOwner) */\n      tag_171\n        /* \"@openzeppelin/contracts/access/Ownable.sol\":2256:2264  newOwner */\n      dup2\n        /* \"@openzeppelin/contracts/access/Ownable.sol\":2237:2255  _transferOwnership */\n      tag_147\n        /* \"@openzeppelin/contracts/access/Ownable.sol\":2237:2265  _transferOwnership(newOwner) */\n      jump\t// in\n    tag_171:\n        /* \"@openzeppelin/contracts/access/Ownable.sol\":2074:2272  function transferOwnership(address newOwner) public virtual onlyOwner {... */\n      pop\n      jump\t// out\n        /* \"contracts/MemeTokenBase/memetoken.sol\":579:617  uint256 public constant BURN_RATE = 35 */\n    tag_107:\n        /* \"contracts/MemeTokenBase/memetoken.sol\":615:617  35 */\n      0x23\n        /* \"contracts/MemeTokenBase/memetoken.sol\":579:617  uint256 public constant BURN_RATE = 35 */\n      dup2\n      jump\t// out\n        /* \"@openzeppelin/contracts/utils/Context.sol\":640:736  function _msgSender() internal view virtual returns (address) {... */\n    tag_118:\n        /* \"@openzeppelin/contracts/utils/Context.sol\":693:700  address */\n      0x00\n        /* \"@openzeppelin/contracts/utils/Context.sol\":719:729  msg.sender */\n      caller\n        /* \"@openzeppelin/contracts/utils/Context.sol\":712:729  return msg.sender */\n      swap1\n      pop\n        /* \"@openzeppelin/contracts/utils/Context.sol\":640:736  function _msgSender() internal view virtual returns (address) {... */\n      swap1\n      jump\t// out\n        /* \"@openzeppelin/contracts/token/ERC20/ERC20.sol\":10457:10797  function _approve(address owner, address spender, uint256 amount) internal virtual {... */\n    tag_120:\n        /* \"@openzeppelin/contracts/token/ERC20/ERC20.sol\":10575:10576  0 */\n      0x00\n        /* \"@openzeppelin/contracts/token/ERC20/ERC20.sol\":10558:10577  owner != address(0) */\n      0xffffffffffffffffffffffffffffffffffffffff\n      and\n        /* \"@openzeppelin/contracts/token/ERC20/ERC20.sol\":10558:10563  owner */\n      dup4\n        /* \"@openzeppelin/contracts/token/ERC20/ERC20.sol\":10558:10577  owner != address(0) */\n      0xffffffffffffffffffffffffffffffffffffffff\n      and\n      eq\n      iszero\n        /* \"@openzeppelin/contracts/token/ERC20/ERC20.sol\":10550:10618  require(owner != address(0), \"ERC20: approve from the zero address\") */\n      tag_174\n      jumpi\n      mload(0x40)\n      0x08c379a000000000000000000000000000000000000000000000000000000000\n      dup2\n      mstore\n      0x04\n      add\n      tag_175\n      swap1\n      tag_176\n      jump\t// in\n    tag_175:\n      mload(0x40)\n      dup1\n      swap2\n      sub\n      swap1\n      revert\n    tag_174:\n        /* \"@openzeppelin/contracts/token/ERC20/ERC20.sol\":10655:10656  0 */\n      0x00\n        /* \"@openzeppelin/contracts/token/ERC20/ERC20.sol\":10636:10657  spender != address(0) */\n      0xffffffffffffffffffffffffffffffffffffffff\n      and\n        /* \"@openzeppelin/contracts/token/ERC20/ERC20.sol\":10636:10643  spender */\n      dup3\n        /* \"@openzeppelin/contracts/token/ERC20/ERC20.sol\":10636:10657  spender != address(0) */\n      0xffffffffffffffffffffffffffffffffffffffff\n      and\n      eq\n      iszero\n        /* \"@openzeppelin/contracts/token/ERC20/ERC20.sol\":10628:10696  require(spender != address(0), \"ERC20: approve to the zero address\") */\n      tag_177\n      jumpi\n      mload(0x40)\n      0x08c379a000000000000000000000000000000000000000000000000000000000\n      dup2\n      mstore\n      0x04\n      add\n      tag_178\n      swap1\n      tag_179\n      jump\t// in\n    tag_178:\n      mload(0x40)\n      dup1\n      swap2\n      sub\n      swap1\n      revert\n    tag_177:\n        /* \"@openzeppelin/contracts/token/ERC20/ERC20.sol\":10737:10743  amount */\n      dup1\n        /* \"@openzeppelin/contracts/token/ERC20/ERC20.sol\":10707:10718  _allowances */\n      0x01\n        /* \"@openzeppelin/contracts/token/ERC20/ERC20.sol\":10707:10725  _allowances[owner] */\n      0x00\n        /* \"@openzeppelin/contracts/token/ERC20/ERC20.sol\":10719:10724  owner */\n      dup6\n        /* \"@openzeppelin/contracts/token/ERC20/ERC20.sol\":10707:10725  _allowances[owner] */\n      0xffffffffffffffffffffffffffffffffffffffff\n      and\n      0xffffffffffffffffffffffffffffffffffffffff\n      and\n      dup2\n      mstore\n      0x20\n      add\n      swap1\n      dup2\n      mstore\n      0x20\n      add\n      0x00\n      keccak256\n        /* \"@openzeppelin/contracts/token/ERC20/ERC20.sol\":10707:10734  _allowances[owner][spender] */\n      0x00\n        /* \"@openzeppelin/contracts/token/ERC20/ERC20.sol\":10726:10733  spender */\n      dup5\n        /* \"@openzeppelin/contracts/token/ERC20/ERC20.sol\":10707:10734  _allowances[owner][spender] */\n      0xffffffffffffffffffffffffffffffffffffffff\n      and\n      0xffffffffffffffffffffffffffffffffffffffff\n      and\n      dup2\n      mstore\n      0x20\n      add\n      swap1\n      dup2\n      mstore\n      0x20\n      add\n      0x00\n      keccak256\n        /* \"@openzeppelin/contracts/token/ERC20/ERC20.sol\":10707:10743  _allowances[owner][spender] = amount */\n      dup2\n      swap1\n      sstore\n      pop\n        /* \"@openzeppelin/contracts/token/ERC20/ERC20.sol\":10774:10781  spender */\n      dup2\n        /* \"@openzeppelin/contracts/token/ERC20/ERC20.sol\":10758:10790  Approval(owner, spender, amount) */\n      0xffffffffffffffffffffffffffffffffffffffff\n      and\n        /* \"@openzeppelin/contracts/token/ERC20/ERC20.sol\":10767:10772  owner */\n      dup4\n        /* \"@openzeppelin/contracts/token/ERC20/ERC20.sol\":10758:10790  Approval(owner, spender, amount) */\n      0xffffffffffffffffffffffffffffffffffffffff\n      and\n      0x8c5be1e5ebec7d5bd14f71427d1e84f3dd0314c0f7b2291e5b200ac8c7c3b925\n        /* \"@openzeppelin/contracts/token/ERC20/ERC20.sol\":10783:10789  amount */\n      dup4\n        /* \"@openzeppelin/contracts/token/ERC20/ERC20.sol\":10758:10790  Approval(owner, spender, amount) */\n      mload(0x40)\n      tag_180\n      swap2\n      swap1\n      tag_45\n      jump\t// in\n    tag_180:\n      mload(0x40)\n      dup1\n      swap2\n      sub\n      swap1\n      log3\n        /* \"@openzeppelin/contracts/token/ERC20/ERC20.sol\":10457:10797  function _approve(address owner, address spender, uint256 amount) internal virtual {... */\n      pop\n      pop\n      pop\n      jump\t// out\n        /* \"contracts/MemeTokenBase/memetoken.sol\":1597:2209  function _processTransaction(address sender, address recipient, uint256 amount) private returns (bool) {\r... */\n    tag_133:\n        /* \"contracts/MemeTokenBase/memetoken.sol\":1694:1698  bool */\n      0x00\n        /* \"contracts/MemeTokenBase/memetoken.sol\":1711:1729  uint256 burnAmount */\n      dup1\n        /* \"contracts/MemeTokenBase/memetoken.sol\":1753:1758  10000 */\n      0x2710\n        /* \"contracts/MemeTokenBase/memetoken.sol\":615:617  35 */\n      0x23\n        /* \"contracts/MemeTokenBase/memetoken.sol\":1732:1738  amount */\n      dup5\n        /* \"contracts/MemeTokenBase/memetoken.sol\":1732:1750  amount * BURN_RATE */\n      tag_182\n      swap2\n      swap1\n      tag_183\n      jump\t// in\n    tag_182:\n        /* \"contracts/MemeTokenBase/memetoken.sol\":1732:1758  amount * BURN_RATE / 10000 */\n      tag_184\n      swap2\n      swap1\n      tag_185\n      jump\t// in\n    tag_184:\n        /* \"contracts/MemeTokenBase/memetoken.sol\":1711:1758  uint256 burnAmount = amount * BURN_RATE / 10000 */\n      swap1\n      pop\n        /* \"contracts/MemeTokenBase/memetoken.sol\":1769:1788  uint256 treasuryFee */\n      0x00\n        /* \"contracts/MemeTokenBase/memetoken.sol\":1815:1820  10000 */\n      0x2710\n        /* \"contracts/MemeTokenBase/memetoken.sol\":502:504  50 */\n      0x32\n        /* \"contracts/MemeTokenBase/memetoken.sol\":1791:1797  amount */\n      dup6\n        /* \"contracts/MemeTokenBase/memetoken.sol\":1791:1812  amount * TREASURY_FEE */\n      tag_186\n      swap2\n      swap1\n      tag_183\n      jump\t// in\n    tag_186:\n        /* \"contracts/MemeTokenBase/memetoken.sol\":1791:1820  amount * TREASURY_FEE / 10000 */\n      tag_187\n      swap2\n      swap1\n      tag_185\n      jump\t// in\n    tag_187:\n        /* \"contracts/MemeTokenBase/memetoken.sol\":1769:1820  uint256 treasuryFee = amount * TREASURY_FEE / 10000 */\n      swap1\n      pop\n        /* \"contracts/MemeTokenBase/memetoken.sol\":1831:1851  uint256 liquidityFee */\n      0x00\n        /* \"contracts/MemeTokenBase/memetoken.sol\":1879:1884  10000 */\n      0x2710\n        /* \"contracts/MemeTokenBase/memetoken.sol\":560:562  25 */\n      0x19\n        /* \"contracts/MemeTokenBase/memetoken.sol\":1854:1860  amount */\n      dup7\n        /* \"contracts/MemeTokenBase/memetoken.sol\":1854:1876  amount * LIQUIDITY_FEE */\n      tag_188\n      swap2\n      swap1\n      tag_183\n      jump\t// in\n    tag_188:\n        /* \"contracts/MemeTokenBase/memetoken.sol\":1854:1884  amount * LIQUIDITY_FEE / 10000 */\n      tag_189\n      swap2\n      swap1\n      tag_185\n      jump\t// in\n    tag_189:\n        /* \"contracts/MemeTokenBase/memetoken.sol\":1831:1884  uint256 liquidityFee = amount * LIQUIDITY_FEE / 10000 */\n      swap1\n      pop\n        /* \"contracts/MemeTokenBase/memetoken.sol\":1895:1917  uint256 transferAmount */\n      0x00\n        /* \"contracts/MemeTokenBase/memetoken.sol\":1956:1968  liquidityFee */\n      dup2\n        /* \"contracts/MemeTokenBase/memetoken.sol\":1942:1953  treasuryFee */\n      dup4\n        /* \"contracts/MemeTokenBase/memetoken.sol\":1929:1939  burnAmount */\n      dup6\n        /* \"contracts/MemeTokenBase/memetoken.sol\":1920:1926  amount */\n      dup9\n        /* \"contracts/MemeTokenBase/memetoken.sol\":1920:1939  amount - burnAmount */\n      tag_190\n      swap2\n      swap1\n      tag_131\n      jump\t// in\n    tag_190:\n        /* \"contracts/MemeTokenBase/memetoken.sol\":1920:1953  amount - burnAmount - treasuryFee */\n      tag_191\n      swap2\n      swap1\n      tag_131\n      jump\t// in\n    tag_191:\n        /* \"contracts/MemeTokenBase/memetoken.sol\":1920:1968  amount - burnAmount - treasuryFee - liquidityFee */\n      tag_192\n      swap2\n      swap1\n      tag_131\n      jump\t// in\n    tag_192:\n        /* \"contracts/MemeTokenBase/memetoken.sol\":1895:1968  uint256 transferAmount = amount - burnAmount - treasuryFee - liquidityFee */\n      swap1\n      pop\n        /* \"contracts/MemeTokenBase/memetoken.sol\":1981:2006  _burn(sender, burnAmount) */\n      tag_193\n        /* \"contracts/MemeTokenBase/memetoken.sol\":1987:1993  sender */\n      dup9\n        /* \"contracts/MemeTokenBase/memetoken.sol\":1995:2005  burnAmount */\n      dup6\n        /* \"contracts/MemeTokenBase/memetoken.sol\":1981:1986  _burn */\n      tag_194\n        /* \"contracts/MemeTokenBase/memetoken.sol\":1981:2006  _burn(sender, burnAmount) */\n      jump\t// in\n    tag_193:\n        /* \"contracts/MemeTokenBase/memetoken.sol\":2017:2063  _transfer(sender, treasuryWallet, treasuryFee) */\n      tag_195\n        /* \"contracts/MemeTokenBase/memetoken.sol\":2027:2033  sender */\n      dup9\n        /* \"contracts/MemeTokenBase/memetoken.sol\":2035:2049  treasuryWallet */\n      0x06\n      0x00\n      swap1\n      sload\n      swap1\n      0x0100\n      exp\n      swap1\n      div\n      0xffffffffffffffffffffffffffffffffffffffff\n      and\n        /* \"contracts/MemeTokenBase/memetoken.sol\":2051:2062  treasuryFee */\n      dup6\n        /* \"contracts/MemeTokenBase/memetoken.sol\":2017:2026  _transfer */\n      tag_196\n        /* \"contracts/MemeTokenBase/memetoken.sol\":2017:2063  _transfer(sender, treasuryWallet, treasuryFee) */\n      jump\t// in\n    tag_195:\n        /* \"contracts/MemeTokenBase/memetoken.sol\":2074:2122  _transfer(sender, liquidityWallet, liquidityFee) */\n      tag_197\n        /* \"contracts/MemeTokenBase/memetoken.sol\":2084:2090  sender */\n      dup9\n        /* \"contracts/MemeTokenBase/memetoken.sol\":2092:2107  liquidityWallet */\n      0x07\n      0x00\n      swap1\n      sload\n      swap1\n      0x0100\n      exp\n      swap1\n      div\n      0xffffffffffffffffffffffffffffffffffffffff\n      and\n        /* \"contracts/MemeTokenBase/memetoken.sol\":2109:2121  liquidityFee */\n      dup5\n        /* \"contracts/MemeTokenBase/memetoken.sol\":2074:2083  _transfer */\n      tag_196\n        /* \"contracts/MemeTokenBase/memetoken.sol\":2074:2122  _transfer(sender, liquidityWallet, liquidityFee) */\n      jump\t// in\n    tag_197:\n        /* \"contracts/MemeTokenBase/memetoken.sol\":2133:2177  _transfer(sender, recipient, transferAmount) */\n      tag_198\n        /* \"contracts/MemeTokenBase/memetoken.sol\":2143:2149  sender */\n      dup9\n        /* \"contracts/MemeTokenBase/memetoken.sol\":2151:2160  recipient */\n      dup9\n        /* \"contracts/MemeTokenBase/memetoken.sol\":2162:2176  transferAmount */\n      dup4\n        /* \"contracts/MemeTokenBase/memetoken.sol\":2133:2142  _transfer */\n      tag_196\n        /* \"contracts/MemeTokenBase/memetoken.sol\":2133:2177  _transfer(sender, recipient, transferAmount) */\n      jump\t// in\n    tag_198:\n        /* \"contracts/MemeTokenBase/memetoken.sol\":2197:2201  true */\n      0x01\n        /* \"contracts/MemeTokenBase/memetoken.sol\":2190:2201  return true */\n      swap5\n      pop\n      pop\n      pop\n      pop\n      pop\n        /* \"contracts/MemeTokenBase/memetoken.sol\":1597:2209  function _processTransaction(address sender, address recipient, uint256 amount) private returns (bool) {\r... */\n      swap4\n      swap3\n      pop\n      pop\n      pop\n      jump\t// out\n        /* \"@openzeppelin/contracts/access/Ownable.sol\":1359:1489  function _checkOwner() internal view virtual {... */\n    tag_144:\n        /* \"@openzeppelin/contracts/access/Ownable.sol\":1433:1445  _msgSender() */\n      tag_200\n        /* \"@openzeppelin/contracts/access/Ownable.sol\":1433:1443  _msgSender */\n      tag_118\n        /* \"@openzeppelin/contracts/access/Ownable.sol\":1433:1445  _msgSender() */\n      jump\t// in\n    tag_200:\n        /* \"@openzeppelin/contracts/access/Ownable.sol\":1422:1445  owner() == _msgSender() */\n      0xffffffffffffffffffffffffffffffffffffffff\n      and\n        /* \"@openzeppelin/contracts/access/Ownable.sol\":1422:1429  owner() */\n      tag_201\n        /* \"@openzeppelin/contracts/access/Ownable.sol\":1422:1427  owner */\n      tag_79\n        /* \"@openzeppelin/contracts/access/Ownable.sol\":1422:1429  owner() */\n      jump\t// in\n    tag_201:\n        /* \"@openzeppelin/contracts/access/Ownable.sol\":1422:1445  owner() == _msgSender() */\n      0xffffffffffffffffffffffffffffffffffffffff\n      and\n      eq\n        /* \"@openzeppelin/contracts/access/Ownable.sol\":1414:1482  require(owner() == _msgSender(), \"Ownable: caller is not the owner\") */\n      tag_202\n      jumpi\n      mload(0x40)\n      0x08c379a000000000000000000000000000000000000000000000000000000000\n      dup2\n      mstore\n      0x04\n      add\n      tag_203\n      swap1\n      tag_204\n      jump\t// in\n    tag_203:\n      mload(0x40)\n      dup1\n      swap2\n      sub\n      swap1\n      revert\n    tag_202:\n        /* \"@openzeppelin/contracts/access/Ownable.sol\":1359:1489  function _checkOwner() internal view virtual {... */\n      jump\t// out\n        /* \"@openzeppelin/contracts/access/Ownable.sol\":2426:2613  function _transferOwnership(address newOwner) internal virtual {... */\n    tag_147:\n        /* \"@openzeppelin/contracts/access/Ownable.sol\":2499:2515  address oldOwner */\n      0x00\n        /* \"@openzeppelin/contracts/access/Ownable.sol\":2518:2524  _owner */\n      0x05\n      0x00\n      swap1\n      sload\n      swap1\n      0x0100\n      exp\n      swap1\n      div\n      0xffffffffffffffffffffffffffffffffffffffff\n      and\n        /* \"@openzeppelin/contracts/access/Ownable.sol\":2499:2524  address oldOwner = _owner */\n      swap1\n      pop\n        /* \"@openzeppelin/contracts/access/Ownable.sol\":2543:2551  newOwner */\n      dup2\n        /* \"@openzeppelin/contracts/access/Ownable.sol\":2534:2540  _owner */\n      0x05\n      0x00\n        /* \"@openzeppelin/contracts/access/Ownable.sol\":2534:2551  _owner = newOwner */\n      0x0100\n      exp\n      dup2\n      sload\n      dup2\n      0xffffffffffffffffffffffffffffffffffffffff\n      mul\n      not\n      and\n      swap1\n      dup4\n      0xffffffffffffffffffffffffffffffffffffffff\n      and\n      mul\n      or\n      swap1\n      sstore\n      pop\n        /* \"@openzeppelin/contracts/access/Ownable.sol\":2597:2605  newOwner */\n      dup2\n        /* \"@openzeppelin/contracts/access/Ownable.sol\":2566:2606  OwnershipTransferred(oldOwner, newOwner) */\n      0xffffffffffffffffffffffffffffffffffffffff\n      and\n        /* \"@openzeppelin/contracts/access/Ownable.sol\":2587:2595  oldOwner */\n      dup2\n        /* \"@openzeppelin/contracts/access/Ownable.sol\":2566:2606  OwnershipTransferred(oldOwner, newOwner) */\n      0xffffffffffffffffffffffffffffffffffffffff\n      and\n      0x8be0079c531659141344cd1fd0a4f28419497f9722a3daafe3b4186f6b6457e0\n      mload(0x40)\n      mload(0x40)\n      dup1\n      swap2\n      sub\n      swap1\n      log3\n        /* \"@openzeppelin/contracts/access/Ownable.sol\":2489:2613  {... */\n      pop\n        /* \"@openzeppelin/contracts/access/Ownable.sol\":2426:2613  function _transferOwnership(address newOwner) internal virtual {... */\n      pop\n      jump\t// out\n        /* \"@openzeppelin/contracts/token/ERC20/ERC20.sol\":9375:10034  function _burn(address account, uint256 amount) internal virtual {... */\n    tag_194:\n        /* \"@openzeppelin/contracts/token/ERC20/ERC20.sol\":9477:9478  0 */\n      0x00\n        /* \"@openzeppelin/contracts/token/ERC20/ERC20.sol\":9458:9479  account != address(0) */\n      0xffffffffffffffffffffffffffffffffffffffff\n      and\n        /* \"@openzeppelin/contracts/token/ERC20/ERC20.sol\":9458:9465  account */\n      dup3\n        /* \"@openzeppelin/contracts/token/ERC20/ERC20.sol\":9458:9479  account != address(0) */\n      0xffffffffffffffffffffffffffffffffffffffff\n      and\n      eq\n      iszero\n        /* \"@openzeppelin/contracts/token/ERC20/ERC20.sol\":9450:9517  require(account != address(0), \"ERC20: burn from the zero address\") */\n      tag_207\n      jumpi\n      mload(0x40)\n      0x08c379a000000000000000000000000000000000000000000000000000000000\n      dup2\n      mstore\n      0x04\n      add\n      tag_208\n      swap1\n      tag_209\n      jump\t// in\n    tag_208:\n      mload(0x40)\n      dup1\n      swap2\n      sub\n      swap1\n      revert\n    tag_207:\n        /* \"@openzeppelin/contracts/token/ERC20/ERC20.sol\":9528:9577  _beforeTokenTransfer(account, address(0), amount) */\n      tag_210\n        /* \"@openzeppelin/contracts/token/ERC20/ERC20.sol\":9549:9556  account */\n      dup3\n        /* \"@openzeppelin/contracts/token/ERC20/ERC20.sol\":9566:9567  0 */\n      0x00\n        /* \"@openzeppelin/contracts/token/ERC20/ERC20.sol\":9570:9576  amount */\n      dup4\n        /* \"@openzeppelin/contracts/token/ERC20/ERC20.sol\":9528:9548  _beforeTokenTransfer */\n      tag_211\n        /* \"@openzeppelin/contracts/token/ERC20/ERC20.sol\":9528:9577  _beforeTokenTransfer(account, address(0), amount) */\n      jump\t// in\n    tag_210:\n        /* \"@openzeppelin/contracts/token/ERC20/ERC20.sol\":9588:9610  uint256 accountBalance */\n      0x00\n        /* \"@openzeppelin/contracts/token/ERC20/ERC20.sol\":9613:9622  _balances */\n      dup1\n        /* \"@openzeppelin/contracts/token/ERC20/ERC20.sol\":9613:9631  _balances[account] */\n      0x00\n        /* \"@openzeppelin/contracts/token/ERC20/ERC20.sol\":9623:9630  account */\n      dup5\n        /* \"@openzeppelin/contracts/token/ERC20/ERC20.sol\":9613:9631  _balances[account] */\n      0xffffffffffffffffffffffffffffffffffffffff\n      and\n      0xffffffffffffffffffffffffffffffffffffffff\n      and\n      dup2\n      mstore\n      0x20\n      add\n      swap1\n      dup2\n      mstore\n      0x20\n      add\n      0x00\n      keccak256\n      sload\n        /* \"@openzeppelin/contracts/token/ERC20/ERC20.sol\":9588:9631  uint256 accountBalance = _balances[account] */\n      swap1\n      pop\n        /* \"@openzeppelin/contracts/token/ERC20/ERC20.sol\":9667:9673  amount */\n      dup2\n        /* \"@openzeppelin/contracts/token/ERC20/ERC20.sol\":9649:9663  accountBalance */\n      dup2\n        /* \"@openzeppelin/contracts/token/ERC20/ERC20.sol\":9649:9673  accountBalance >= amount */\n      lt\n      iszero\n        /* \"@openzeppelin/contracts/token/ERC20/ERC20.sol\":9641:9712  require(accountBalance >= amount, \"ERC20: burn amount exceeds balance\") */\n      tag_212\n      jumpi\n      mload(0x40)\n      0x08c379a000000000000000000000000000000000000000000000000000000000\n      dup2\n      mstore\n      0x04\n      add\n      tag_213\n      swap1\n      tag_214\n      jump\t// in\n    tag_213:\n      mload(0x40)\n      dup1\n      swap2\n      sub\n      swap1\n      revert\n    tag_212:\n        /* \"@openzeppelin/contracts/token/ERC20/ERC20.sol\":9784:9790  amount */\n      dup2\n        /* \"@openzeppelin/contracts/token/ERC20/ERC20.sol\":9767:9781  accountBalance */\n      dup2\n        /* \"@openzeppelin/contracts/token/ERC20/ERC20.sol\":9767:9790  accountBalance - amount */\n      sub\n        /* \"@openzeppelin/contracts/token/ERC20/ERC20.sol\":9746:9755  _balances */\n      0x00\n        /* \"@openzeppelin/contracts/token/ERC20/ERC20.sol\":9746:9764  _balances[account] */\n      dup1\n        /* \"@openzeppelin/contracts/token/ERC20/ERC20.sol\":9756:9763  account */\n      dup6\n        /* \"@openzeppelin/contracts/token/ERC20/ERC20.sol\":9746:9764  _balances[account] */\n      0xffffffffffffffffffffffffffffffffffffffff\n      and\n      0xffffffffffffffffffffffffffffffffffffffff\n      and\n      dup2\n      mstore\n      0x20\n      add\n      swap1\n      dup2\n      mstore\n      0x20\n      add\n      0x00\n      keccak256\n        /* \"@openzeppelin/contracts/token/ERC20/ERC20.sol\":9746:9790  _balances[account] = accountBalance - amount */\n      dup2\n      swap1\n      sstore\n      pop\n        /* \"@openzeppelin/contracts/token/ERC20/ERC20.sol\":9899:9905  amount */\n      dup2\n        /* \"@openzeppelin/contracts/token/ERC20/ERC20.sol\":9883:9895  _totalSupply */\n      0x02\n      0x00\n        /* \"@openzeppelin/contracts/token/ERC20/ERC20.sol\":9883:9905  _totalSupply -= amount */\n      dup3\n      dup3\n      sload\n      sub\n      swap3\n      pop\n      pop\n      dup2\n      swap1\n      sstore\n      pop\n        /* \"@openzeppelin/contracts/token/ERC20/ERC20.sol\":9957:9958  0 */\n      0x00\n        /* \"@openzeppelin/contracts/token/ERC20/ERC20.sol\":9931:9968  Transfer(account, address(0), amount) */\n      0xffffffffffffffffffffffffffffffffffffffff\n      and\n        /* \"@openzeppelin/contracts/token/ERC20/ERC20.sol\":9940:9947  account */\n      dup4\n        /* \"@openzeppelin/contracts/token/ERC20/ERC20.sol\":9931:9968  Transfer(account, address(0), amount) */\n      0xffffffffffffffffffffffffffffffffffffffff\n      and\n      0xddf252ad1be2c89b69c2b068fc378daa952ba7f163c4a11628f55a4df523b3ef\n        /* \"@openzeppelin/contracts/token/ERC20/ERC20.sol\":9961:9967  amount */\n      dup5\n        /* \"@openzeppelin/contracts/token/ERC20/ERC20.sol\":9931:9968  Transfer(account, address(0), amount) */\n      mload(0x40)\n      tag_215\n      swap2\n      swap1\n      tag_45\n      jump\t// in\n    tag_215:\n      mload(0x40)\n      dup1\n      swap2\n      sub\n      swap1\n      log3\n        /* \"@openzeppelin/contracts/token/ERC20/ERC20.sol\":9979:10027  _afterTokenTransfer(account, address(0), amount) */\n      tag_216\n        /* \"@openzeppelin/contracts/token/ERC20/ERC20.sol\":9999:10006  account */\n      dup4\n        /* \"@openzeppelin/contracts/token/ERC20/ERC20.sol\":10016:10017  0 */\n      0x00\n        /* \"@openzeppelin/contracts/token/ERC20/ERC20.sol\":10020:10026  amount */\n      dup5\n        /* \"@openzeppelin/contracts/token/ERC20/ERC20.sol\":9979:9998  _afterTokenTransfer */\n      tag_217\n        /* \"@openzeppelin/contracts/token/ERC20/ERC20.sol\":9979:10027  _afterTokenTransfer(account, address(0), amount) */\n      jump\t// in\n    tag_216:\n        /* \"@openzeppelin/contracts/token/ERC20/ERC20.sol\":9440:10034  {... */\n      pop\n        /* \"@openzeppelin/contracts/token/ERC20/ERC20.sol\":9375:10034  function _burn(address account, uint256 amount) internal virtual {... */\n      pop\n      pop\n      jump\t// out\n        /* \"@openzeppelin/contracts/token/ERC20/ERC20.sol\":7456:8244  function _transfer(address from, address to, uint256 amount) internal virtual {... */\n    tag_196:\n        /* \"@openzeppelin/contracts/token/ERC20/ERC20.sol\":7568:7569  0 */\n      0x00\n        /* \"@openzeppelin/contracts/token/ERC20/ERC20.sol\":7552:7570  from != address(0) */\n      0xffffffffffffffffffffffffffffffffffffffff\n      and\n        /* \"@openzeppelin/contracts/token/ERC20/ERC20.sol\":7552:7556  from */\n      dup4\n        /* \"@openzeppelin/contracts/token/ERC20/ERC20.sol\":7552:7570  from != address(0) */\n      0xffffffffffffffffffffffffffffffffffffffff\n      and\n      eq\n      iszero\n        /* \"@openzeppelin/contracts/token/ERC20/ERC20.sol\":7544:7612  require(from != address(0), \"ERC20: transfer from the zero address\") */\n      tag_219\n      jumpi\n      mload(0x40)\n      0x08c379a000000000000000000000000000000000000000000000000000000000\n      dup2\n      mstore\n      0x04\n      add\n      tag_220\n      swap1\n      tag_221\n      jump\t// in\n    tag_220:\n      mload(0x40)\n      dup1\n      swap2\n      sub\n      swap1\n      revert\n    tag_219:\n        /* \"@openzeppelin/contracts/token/ERC20/ERC20.sol\":7644:7645  0 */\n      0x00\n        /* \"@openzeppelin/contracts/token/ERC20/ERC20.sol\":7630:7646  to != address(0) */\n      0xffffffffffffffffffffffffffffffffffffffff\n      and\n        /* \"@openzeppelin/contracts/token/ERC20/ERC20.sol\":7630:7632  to */\n      dup3\n        /* \"@openzeppelin/contracts/token/ERC20/ERC20.sol\":7630:7646  to != address(0) */\n      0xffffffffffffffffffffffffffffffffffffffff\n      and\n      eq\n      iszero\n        /* \"@openzeppelin/contracts/token/ERC20/ERC20.sol\":7622:7686  require(to != address(0), \"ERC20: transfer to the zero address\") */\n      tag_222\n      jumpi\n      mload(0x40)\n      0x08c379a000000000000000000000000000000000000000000000000000000000\n      dup2\n      mstore\n      0x04\n      add\n      tag_223\n      swap1\n      tag_224\n      jump\t// in\n    tag_223:\n      mload(0x40)\n      dup1\n      swap2\n      sub\n      swap1\n      revert\n    tag_222:\n        /* \"@openzeppelin/contracts/token/ERC20/ERC20.sol\":7697:7735  _beforeTokenTransfer(from, to, amount) */\n      tag_225\n        /* \"@openzeppelin/contracts/token/ERC20/ERC20.sol\":7718:7722  from */\n      dup4\n        /* \"@openzeppelin/contracts/token/ERC20/ERC20.sol\":7724:7726  to */\n      dup4\n        /* \"@openzeppelin/contracts/token/ERC20/ERC20.sol\":7728:7734  amount */\n      dup4\n        /* \"@openzeppelin/contracts/token/ERC20/ERC20.sol\":7697:7717  _beforeTokenTransfer */\n      tag_211\n        /* \"@openzeppelin/contracts/token/ERC20/ERC20.sol\":7697:7735  _beforeTokenTransfer(from, to, amount) */\n      jump\t// in\n    tag_225:\n        /* \"@openzeppelin/contracts/token/ERC20/ERC20.sol\":7746:7765  uint256 fromBalance */\n      0x00\n        /* \"@openzeppelin/contracts/token/ERC20/ERC20.sol\":7768:7777  _balances */\n      dup1\n        /* \"@openzeppelin/contracts/token/ERC20/ERC20.sol\":7768:7783  _balances[from] */\n      0x00\n        /* \"@openzeppelin/contracts/token/ERC20/ERC20.sol\":7778:7782  from */\n      dup6\n        /* \"@openzeppelin/contracts/token/ERC20/ERC20.sol\":7768:7783  _balances[from] */\n      0xffffffffffffffffffffffffffffffffffffffff\n      and\n      0xffffffffffffffffffffffffffffffffffffffff\n      and\n      dup2\n      mstore\n      0x20\n      add\n      swap1\n      dup2\n      mstore\n      0x20\n      add\n      0x00\n      keccak256\n      sload\n        /* \"@openzeppelin/contracts/token/ERC20/ERC20.sol\":7746:7783  uint256 fromBalance = _balances[from] */\n      swap1\n      pop\n        /* \"@openzeppelin/contracts/token/ERC20/ERC20.sol\":7816:7822  amount */\n      dup2\n        /* \"@openzeppelin/contracts/token/ERC20/ERC20.sol\":7801:7812  fromBalance */\n      dup2\n        /* \"@openzeppelin/contracts/token/ERC20/ERC20.sol\":7801:7822  fromBalance >= amount */\n      lt\n      iszero\n        /* \"@openzeppelin/contracts/token/ERC20/ERC20.sol\":7793:7865  require(fromBalance >= amount, \"ERC20: transfer amount exceeds balance\") */\n      tag_226\n      jumpi\n      mload(0x40)\n      0x08c379a000000000000000000000000000000000000000000000000000000000\n      dup2\n      mstore\n      0x04\n      add\n      tag_227\n      swap1\n      tag_228\n      jump\t// in\n    tag_227:\n      mload(0x40)\n      dup1\n      swap2\n      sub\n      swap1\n      revert\n    tag_226:\n        /* \"@openzeppelin/contracts/token/ERC20/ERC20.sol\":7931:7937  amount */\n      dup2\n        /* \"@openzeppelin/contracts/token/ERC20/ERC20.sol\":7917:7928  fromBalance */\n      dup2\n        /* \"@openzeppelin/contracts/token/ERC20/ERC20.sol\":7917:7937  fromBalance - amount */\n      sub\n        /* \"@openzeppelin/contracts/token/ERC20/ERC20.sol\":7899:7908  _balances */\n      0x00\n        /* \"@openzeppelin/contracts/token/ERC20/ERC20.sol\":7899:7914  _balances[from] */\n      dup1\n        /* \"@openzeppelin/contracts/token/ERC20/ERC20.sol\":7909:7913  from */\n      dup7\n        /* \"@openzeppelin/contracts/token/ERC20/ERC20.sol\":7899:7914  _balances[from] */\n      0xffffffffffffffffffffffffffffffffffffffff\n      and\n      0xffffffffffffffffffffffffffffffffffffffff\n      and\n      dup2\n      mstore\n      0x20\n      add\n      swap1\n      dup2\n      mstore\n      0x20\n      add\n      0x00\n      keccak256\n        /* \"@openzeppelin/contracts/token/ERC20/ERC20.sol\":7899:7937  _balances[from] = fromBalance - amount */\n      dup2\n      swap1\n      sstore\n      pop\n        /* \"@openzeppelin/contracts/token/ERC20/ERC20.sol\":8131:8137  amount */\n      dup2\n        /* \"@openzeppelin/contracts/token/ERC20/ERC20.sol\":8114:8123  _balances */\n      0x00\n        /* \"@openzeppelin/contracts/token/ERC20/ERC20.sol\":8114:8127  _balances[to] */\n      dup1\n        /* \"@openzeppelin/contracts/token/ERC20/ERC20.sol\":8124:8126  to */\n      dup6\n        /* \"@openzeppelin/contracts/token/ERC20/ERC20.sol\":8114:8127  _balances[to] */\n      0xffffffffffffffffffffffffffffffffffffffff\n      and\n      0xffffffffffffffffffffffffffffffffffffffff\n      and\n      dup2\n      mstore\n      0x20\n      add\n      swap1\n      dup2\n      mstore\n      0x20\n      add\n      0x00\n      keccak256\n      0x00\n        /* \"@openzeppelin/contracts/token/ERC20/ERC20.sol\":8114:8137  _balances[to] += amount */\n      dup3\n      dup3\n      sload\n      add\n      swap3\n      pop\n      pop\n      dup2\n      swap1\n      sstore\n      pop\n        /* \"@openzeppelin/contracts/token/ERC20/ERC20.sol\":8178:8180  to */\n      dup3\n        /* \"@openzeppelin/contracts/token/ERC20/ERC20.sol\":8163:8189  Transfer(from, to, amount) */\n      0xffffffffffffffffffffffffffffffffffffffff\n      and\n        /* \"@openzeppelin/contracts/token/ERC20/ERC20.sol\":8172:8176  from */\n      dup5\n        /* \"@openzeppelin/contracts/token/ERC20/ERC20.sol\":8163:8189  Transfer(from, to, amount) */\n      0xffffffffffffffffffffffffffffffffffffffff\n      and\n      0xddf252ad1be2c89b69c2b068fc378daa952ba7f163c4a11628f55a4df523b3ef\n        /* \"@openzeppelin/contracts/token/ERC20/ERC20.sol\":8182:8188  amount */\n      dup5\n        /* \"@openzeppelin/contracts/token/ERC20/ERC20.sol\":8163:8189  Transfer(from, to, amount) */\n      mload(0x40)\n      tag_229\n      swap2\n      swap1\n      tag_45\n      jump\t// in\n    tag_229:\n      mload(0x40)\n      dup1\n      swap2\n      sub\n      swap1\n      log3\n        /* \"@openzeppelin/contracts/token/ERC20/ERC20.sol\":8200:8237  _afterTokenTransfer(from, to, amount) */\n      tag_230\n        /* \"@openzeppelin/contracts/token/ERC20/ERC20.sol\":8220:8224  from */\n      dup5\n        /* \"@openzeppelin/contracts/token/ERC20/ERC20.sol\":8226:8228  to */\n      dup5\n        /* \"@openzeppelin/contracts/token/ERC20/ERC20.sol\":8230:8236  amount */\n      dup5\n        /* \"@openzeppelin/contracts/token/ERC20/ERC20.sol\":8200:8219  _afterTokenTransfer */\n      tag_217\n        /* \"@openzeppelin/contracts/token/ERC20/ERC20.sol\":8200:8237  _afterTokenTransfer(from, to, amount) */\n      jump\t// in\n    tag_230:\n        /* \"@openzeppelin/contracts/token/ERC20/ERC20.sol\":7534:8244  {... */\n      pop\n        /* \"@openzeppelin/contracts/token/ERC20/ERC20.sol\":7456:8244  function _transfer(address from, address to, uint256 amount) internal virtual {... */\n      pop\n      pop\n      pop\n      jump\t// out\n        /* \"@openzeppelin/contracts/token/ERC20/ERC20.sol\":12073:12164  function _beforeTokenTransfer(address from, address to, uint256 amount) internal virtual {} */\n    tag_211:\n      pop\n      pop\n      pop\n      jump\t// out\n        /* \"@openzeppelin/contracts/token/ERC20/ERC20.sol\":12752:12842  function _afterTokenTransfer(address from, address to, uint256 amount) internal virtual {} */\n    tag_217:\n      pop\n      pop\n      pop\n      jump\t// out\n        /* \"#utility.yul\":7:146   */\n    tag_234:\n        /* \"#utility.yul\":53:58   */\n      0x00\n        /* \"#utility.yul\":91:97   */\n      dup2\n        /* \"#utility.yul\":78:98   */\n      calldataload\n        /* \"#utility.yul\":69:98   */\n      swap1\n      pop\n        /* \"#utility.yul\":107:140   */\n      tag_236\n        /* \"#utility.yul\":134:139   */\n      dup2\n        /* \"#utility.yul\":107:140   */\n      tag_237\n      jump\t// in\n    tag_236:\n        /* \"#utility.yul\":59:146   */\n      swap3\n      swap2\n      pop\n      pop\n      jump\t// out\n        /* \"#utility.yul\":152:291   */\n    tag_238:\n        /* \"#utility.yul\":198:203   */\n      0x00\n        /* \"#utility.yul\":236:242   */\n      dup2\n        /* \"#utility.yul\":223:243   */\n      calldataload\n        /* \"#utility.yul\":214:243   */\n      swap1\n      pop\n        /* \"#utility.yul\":252:285   */\n      tag_240\n        /* \"#utility.yul\":279:284   */\n      dup2\n        /* \"#utility.yul\":252:285   */\n      tag_241\n      jump\t// in\n    tag_240:\n        /* \"#utility.yul\":204:291   */\n      swap3\n      swap2\n      pop\n      pop\n      jump\t// out\n        /* \"#utility.yul\":297:626   */\n    tag_70:\n        /* \"#utility.yul\":356:362   */\n      0x00\n        /* \"#utility.yul\":405:407   */\n      0x20\n        /* \"#utility.yul\":393:402   */\n      dup3\n        /* \"#utility.yul\":384:391   */\n      dup5\n        /* \"#utility.yul\":380:403   */\n      sub\n        /* \"#utility.yul\":376:408   */\n      slt\n        /* \"#utility.yul\":373:375   */\n      iszero\n      tag_243\n      jumpi\n        /* \"#utility.yul\":411:490   */\n      tag_244\n      tag_245\n      jump\t// in\n    tag_244:\n        /* \"#utility.yul\":373:375   */\n    tag_243:\n        /* \"#utility.yul\":531:532   */\n      0x00\n        /* \"#utility.yul\":556:609   */\n      tag_246\n        /* \"#utility.yul\":601:608   */\n      dup5\n        /* \"#utility.yul\":592:598   */\n      dup3\n        /* \"#utility.yul\":581:590   */\n      dup6\n        /* \"#utility.yul\":577:599   */\n      add\n        /* \"#utility.yul\":556:609   */\n      tag_234\n      jump\t// in\n    tag_246:\n        /* \"#utility.yul\":546:609   */\n      swap2\n      pop\n        /* \"#utility.yul\":502:619   */\n      pop\n        /* \"#utility.yul\":363:626   */\n      swap3\n      swap2\n      pop\n      pop\n      jump\t// out\n        /* \"#utility.yul\":632:1106   */\n    tag_100:\n        /* \"#utility.yul\":700:706   */\n      0x00\n        /* \"#utility.yul\":708:714   */\n      dup1\n        /* \"#utility.yul\":757:759   */\n      0x40\n        /* \"#utility.yul\":745:754   */\n      dup4\n        /* \"#utility.yul\":736:743   */\n      dup6\n        /* \"#utility.yul\":732:755   */\n      sub\n        /* \"#utility.yul\":728:760   */\n      slt\n        /* \"#utility.yul\":725:727   */\n      iszero\n      tag_248\n      jumpi\n        /* \"#utility.yul\":763:842   */\n      tag_249\n      tag_245\n      jump\t// in\n    tag_249:\n        /* \"#utility.yul\":725:727   */\n    tag_248:\n        /* \"#utility.yul\":883:884   */\n      0x00\n        /* \"#utility.yul\":908:961   */\n      tag_250\n        /* \"#utility.yul\":953:960   */\n      dup6\n        /* \"#utility.yul\":944:950   */\n      dup3\n        /* \"#utility.yul\":933:942   */\n      dup7\n        /* \"#utility.yul\":929:951   */\n      add\n        /* \"#utility.yul\":908:961   */\n      tag_234\n      jump\t// in\n    tag_250:\n        /* \"#utility.yul\":898:961   */\n      swap3\n      pop\n        /* \"#utility.yul\":854:971   */\n      pop\n        /* \"#utility.yul\":1010:1012   */\n      0x20\n        /* \"#utility.yul\":1036:1089   */\n      tag_251\n        /* \"#utility.yul\":1081:1088   */\n      dup6\n        /* \"#utility.yul\":1072:1078   */\n      dup3\n        /* \"#utility.yul\":1061:1070   */\n      dup7\n        /* \"#utility.yul\":1057:1079   */\n      add\n        /* \"#utility.yul\":1036:1089   */\n      tag_234\n      jump\t// in\n    tag_251:\n        /* \"#utility.yul\":1026:1089   */\n      swap2\n      pop\n        /* \"#utility.yul\":981:1099   */\n      pop\n        /* \"#utility.yul\":715:1106   */\n      swap3\n      pop\n      swap3\n      swap1\n      pop\n      jump\t// out\n        /* \"#utility.yul\":1112:1731   */\n    tag_48:\n        /* \"#utility.yul\":1189:1195   */\n      0x00\n        /* \"#utility.yul\":1197:1203   */\n      dup1\n        /* \"#utility.yul\":1205:1211   */\n      0x00\n        /* \"#utility.yul\":1254:1256   */\n      0x60\n        /* \"#utility.yul\":1242:1251   */\n      dup5\n        /* \"#utility.yul\":1233:1240   */\n      dup7\n        /* \"#utility.yul\":1229:1252   */\n      sub\n        /* \"#utility.yul\":1225:1257   */\n      slt\n        /* \"#utility.yul\":1222:1224   */\n      iszero\n      tag_253\n      jumpi\n        /* \"#utility.yul\":1260:1339   */\n      tag_254\n      tag_245\n      jump\t// in\n    tag_254:\n        /* \"#utility.yul\":1222:1224   */\n    tag_253:\n        /* \"#utility.yul\":1380:1381   */\n      0x00\n        /* \"#utility.yul\":1405:1458   */\n      tag_255\n        /* \"#utility.yul\":1450:1457   */\n      dup7\n        /* \"#utility.yul\":1441:1447   */\n      dup3\n        /* \"#utility.yul\":1430:1439   */\n      dup8\n        /* \"#utility.yul\":1426:1448   */\n      add\n        /* \"#utility.yul\":1405:1458   */\n      tag_234\n      jump\t// in\n    tag_255:\n        /* \"#utility.yul\":1395:1458   */\n      swap4\n      pop\n        /* \"#utility.yul\":1351:1468   */\n      pop\n        /* \"#utility.yul\":1507:1509   */\n      0x20\n        /* \"#utility.yul\":1533:1586   */\n      tag_256\n        /* \"#utility.yul\":1578:1585   */\n      dup7\n        /* \"#utility.yul\":1569:1575   */\n      dup3\n        /* \"#utility.yul\":1558:1567   */\n      dup8\n        /* \"#utility.yul\":1554:1576   */\n      add\n        /* \"#utility.yul\":1533:1586   */\n      tag_234\n      jump\t// in\n    tag_256:\n        /* \"#utility.yul\":1523:1586   */\n      swap3\n      pop\n        /* \"#utility.yul\":1478:1596   */\n      pop\n        /* \"#utility.yul\":1635:1637   */\n      0x40\n        /* \"#utility.yul\":1661:1714   */\n      tag_257\n        /* \"#utility.yul\":1706:1713   */\n      dup7\n        /* \"#utility.yul\":1697:1703   */\n      dup3\n        /* \"#utility.yul\":1686:1695   */\n      dup8\n        /* \"#utility.yul\":1682:1704   */\n      add\n        /* \"#utility.yul\":1661:1714   */\n      tag_238\n      jump\t// in\n    tag_257:\n        /* \"#utility.yul\":1651:1714   */\n      swap2\n      pop\n        /* \"#utility.yul\":1606:1724   */\n      pop\n        /* \"#utility.yul\":1212:1731   */\n      swap3\n      pop\n      swap3\n      pop\n      swap3\n      jump\t// out\n        /* \"#utility.yul\":1737:2211   */\n    tag_38:\n        /* \"#utility.yul\":1805:1811   */\n      0x00\n        /* \"#utility.yul\":1813:1819   */\n      dup1\n        /* \"#utility.yul\":1862:1864   */\n      0x40\n        /* \"#utility.yul\":1850:1859   */\n      dup4\n        /* \"#utility.yul\":1841:1848   */\n      dup6\n        /* \"#utility.yul\":1837:1860   */\n      sub\n        /* \"#utility.yul\":1833:1865   */\n      slt\n        /* \"#utility.yul\":1830:1832   */\n      iszero\n      tag_259\n      jumpi\n        /* \"#utility.yul\":1868:1947   */\n      tag_260\n      tag_245\n      jump\t// in\n    tag_260:\n        /* \"#utility.yul\":1830:1832   */\n    tag_259:\n        /* \"#utility.yul\":1988:1989   */\n      0x00\n        /* \"#utility.yul\":2013:2066   */\n      tag_261\n        /* \"#utility.yul\":2058:2065   */\n      dup6\n        /* \"#utility.yul\":2049:2055   */\n      dup3\n        /* \"#utility.yul\":2038:2047   */\n      dup7\n        /* \"#utility.yul\":2034:2056   */\n      add\n        /* \"#utility.yul\":2013:2066   */\n      tag_234\n      jump\t// in\n    tag_261:\n        /* \"#utility.yul\":2003:2066   */\n      swap3\n      pop\n        /* \"#utility.yul\":1959:2076   */\n      pop\n        /* \"#utility.yul\":2115:2117   */\n      0x20\n        /* \"#utility.yul\":2141:2194   */\n      tag_262\n        /* \"#utility.yul\":2186:2193   */\n      dup6\n        /* \"#utility.yul\":2177:2183   */\n      dup3\n        /* \"#utility.yul\":2166:2175   */\n      dup7\n        /* \"#utility.yul\":2162:2184   */\n      add\n        /* \"#utility.yul\":2141:2194   */\n      tag_238\n      jump\t// in\n    tag_262:\n        /* \"#utility.yul\":2131:2194   */\n      swap2\n      pop\n        /* \"#utility.yul\":2086:2204   */\n      pop\n        /* \"#utility.yul\":1820:2211   */\n      swap3\n      pop\n      swap3\n      swap1\n      pop\n      jump\t// out\n        /* \"#utility.yul\":2217:2335   */\n    tag_263:\n        /* \"#utility.yul\":2304:2328   */\n      tag_265\n        /* \"#utility.yul\":2322:2327   */\n      dup2\n        /* \"#utility.yul\":2304:2328   */\n      tag_266\n      jump\t// in\n    tag_265:\n        /* \"#utility.yul\":2299:2302   */\n      dup3\n        /* \"#utility.yul\":2292:2329   */\n      mstore\n        /* \"#utility.yul\":2282:2335   */\n      pop\n      pop\n      jump\t// out\n        /* \"#utility.yul\":2341:2450   */\n    tag_267:\n        /* \"#utility.yul\":2422:2443   */\n      tag_269\n        /* \"#utility.yul\":2437:2442   */\n      dup2\n        /* \"#utility.yul\":2422:2443   */\n      tag_270\n      jump\t// in\n    tag_269:\n        /* \"#utility.yul\":2417:2420   */\n      dup3\n        /* \"#utility.yul\":2410:2444   */\n      mstore\n        /* \"#utility.yul\":2400:2450   */\n      pop\n      pop\n      jump\t// out\n        /* \"#utility.yul\":2456:2820   */\n    tag_271:\n        /* \"#utility.yul\":2544:2547   */\n      0x00\n        /* \"#utility.yul\":2572:2611   */\n      tag_273\n        /* \"#utility.yul\":2605:2610   */\n      dup3\n        /* \"#utility.yul\":2572:2611   */\n      tag_274\n      jump\t// in\n    tag_273:\n        /* \"#utility.yul\":2627:2698   */\n      tag_275\n        /* \"#utility.yul\":2691:2697   */\n      dup2\n        /* \"#utility.yul\":2686:2689   */\n      dup6\n        /* \"#utility.yul\":2627:2698   */\n      tag_276\n      jump\t// in\n    tag_275:\n        /* \"#utility.yul\":2620:2698   */\n      swap4\n      pop\n        /* \"#utility.yul\":2707:2759   */\n      tag_277\n        /* \"#utility.yul\":2752:2758   */\n      dup2\n        /* \"#utility.yul\":2747:2750   */\n      dup6\n        /* \"#utility.yul\":2740:2744   */\n      0x20\n        /* \"#utility.yul\":2733:2738   */\n      dup7\n        /* \"#utility.yul\":2729:2745   */\n      add\n        /* \"#utility.yul\":2707:2759   */\n      tag_278\n      jump\t// in\n    tag_277:\n        /* \"#utility.yul\":2784:2813   */\n      tag_279\n        /* \"#utility.yul\":2806:2812   */\n      dup2\n        /* \"#utility.yul\":2784:2813   */\n      tag_280\n      jump\t// in\n    tag_279:\n        /* \"#utility.yul\":2779:2782   */\n      dup5\n        /* \"#utility.yul\":2775:2814   */\n      add\n        /* \"#utility.yul\":2768:2814   */\n      swap2\n      pop\n        /* \"#utility.yul\":2548:2820   */\n      pop\n      swap3\n      swap2\n      pop\n      pop\n      jump\t// out\n        /* \"#utility.yul\":2826:3192   */\n    tag_281:\n        /* \"#utility.yul\":2968:2971   */\n      0x00\n        /* \"#utility.yul\":2989:3056   */\n      tag_283\n        /* \"#utility.yul\":3053:3055   */\n      0x23\n        /* \"#utility.yul\":3048:3051   */\n      dup4\n        /* \"#utility.yul\":2989:3056   */\n      tag_276\n      jump\t// in\n    tag_283:\n        /* \"#utility.yul\":2982:3056   */\n      swap2\n      pop\n        /* \"#utility.yul\":3065:3158   */\n      tag_284\n        /* \"#utility.yul\":3154:3157   */\n      dup3\n        /* \"#utility.yul\":3065:3158   */\n      tag_285\n      jump\t// in\n    tag_284:\n        /* \"#utility.yul\":3183:3185   */\n      0x40\n        /* \"#utility.yul\":3178:3181   */\n      dup3\n        /* \"#utility.yul\":3174:3186   */\n      add\n        /* \"#utility.yul\":3167:3186   */\n      swap1\n      pop\n        /* \"#utility.yul\":2972:3192   */\n      swap2\n      swap1\n      pop\n      jump\t// out\n        /* \"#utility.yul\":3198:3564   */\n    tag_286:\n        /* \"#utility.yul\":3340:3343   */\n      0x00\n        /* \"#utility.yul\":3361:3428   */\n      tag_288\n        /* \"#utility.yul\":3425:3427   */\n      0x22\n        /* \"#utility.yul\":3420:3423   */\n      dup4\n        /* \"#utility.yul\":3361:3428   */\n      tag_276\n      jump\t// in\n    tag_288:\n        /* \"#utility.yul\":3354:3428   */\n      swap2\n      pop\n        /* \"#utility.yul\":3437:3530   */\n      tag_289\n        /* \"#utility.yul\":3526:3529   */\n      dup3\n        /* \"#utility.yul\":3437:3530   */\n      tag_290\n      jump\t// in\n    tag_289:\n        /* \"#utility.yul\":3555:3557   */\n      0x40\n        /* \"#utility.yul\":3550:3553   */\n      dup3\n        /* \"#utility.yul\":3546:3558   */\n      add\n        /* \"#utility.yul\":3539:3558   */\n      swap1\n      pop\n        /* \"#utility.yul\":3344:3564   */\n      swap2\n      swap1\n      pop\n      jump\t// out\n        /* \"#utility.yul\":3570:3936   */\n    tag_291:\n        /* \"#utility.yul\":3712:3715   */\n      0x00\n        /* \"#utility.yul\":3733:3800   */\n      tag_293\n        /* \"#utility.yul\":3797:3799   */\n      0x26\n        /* \"#utility.yul\":3792:3795   */\n      dup4\n        /* \"#utility.yul\":3733:3800   */\n      tag_276\n      jump\t// in\n    tag_293:\n        /* \"#utility.yul\":3726:3800   */\n      swap2\n      pop\n        /* \"#utility.yul\":3809:3902   */\n      tag_294\n        /* \"#utility.yul\":3898:3901   */\n      dup3\n        /* \"#utility.yul\":3809:3902   */\n      tag_295\n      jump\t// in\n    tag_294:\n        /* \"#utility.yul\":3927:3929   */\n      0x40\n        /* \"#utility.yul\":3922:3925   */\n      dup3\n        /* \"#utility.yul\":3918:3930   */\n      add\n        /* \"#utility.yul\":3911:3930   */\n      swap1\n      pop\n        /* \"#utility.yul\":3716:3936   */\n      swap2\n      swap1\n      pop\n      jump\t// out\n        /* \"#utility.yul\":3942:4308   */\n    tag_296:\n        /* \"#utility.yul\":4084:4087   */\n      0x00\n        /* \"#utility.yul\":4105:4172   */\n      tag_298\n        /* \"#utility.yul\":4169:4171   */\n      0x22\n        /* \"#utility.yul\":4164:4167   */\n      dup4\n        /* \"#utility.yul\":4105:4172   */\n      tag_276\n      jump\t// in\n    tag_298:\n        /* \"#utility.yul\":4098:4172   */\n      swap2\n      pop\n        /* \"#utility.yul\":4181:4274   */\n      tag_299\n        /* \"#utility.yul\":4270:4273   */\n      dup3\n        /* \"#utility.yul\":4181:4274   */\n      tag_300\n      jump\t// in\n    tag_299:\n        /* \"#utility.yul\":4299:4301   */\n      0x40\n        /* \"#utility.yul\":4294:4297   */\n      dup3\n        /* \"#utility.yul\":4290:4302   */\n      add\n        /* \"#utility.yul\":4283:4302   */\n      swap1\n      pop\n        /* \"#utility.yul\":4088:4308   */\n      swap2\n      swap1\n      pop\n      jump\t// out\n        /* \"#utility.yul\":4314:4680   */\n    tag_301:\n        /* \"#utility.yul\":4456:4459   */\n      0x00\n        /* \"#utility.yul\":4477:4544   */\n      tag_303\n        /* \"#utility.yul\":4541:4543   */\n      0x26\n        /* \"#utility.yul\":4536:4539   */\n      dup4\n        /* \"#utility.yul\":4477:4544   */\n      tag_276\n      jump\t// in\n    tag_303:\n        /* \"#utility.yul\":4470:4544   */\n      swap2\n      pop\n        /* \"#utility.yul\":4553:4646   */\n      tag_304\n        /* \"#utility.yul\":4642:4645   */\n      dup3\n        /* \"#utility.yul\":4553:4646   */\n      tag_305\n      jump\t// in\n    tag_304:\n        /* \"#utility.yul\":4671:4673   */\n      0x40\n        /* \"#utility.yul\":4666:4669   */\n      dup3\n        /* \"#utility.yul\":4662:4674   */\n      add\n        /* \"#utility.yul\":4655:4674   */\n      swap1\n      pop\n        /* \"#utility.yul\":4460:4680   */\n      swap2\n      swap1\n      pop\n      jump\t// out\n        /* \"#utility.yul\":4686:5052   */\n    tag_306:\n        /* \"#utility.yul\":4828:4831   */\n      0x00\n        /* \"#utility.yul\":4849:4916   */\n      tag_308\n        /* \"#utility.yul\":4913:4915   */\n      0x28\n        /* \"#utility.yul\":4908:4911   */\n      dup4\n        /* \"#utility.yul\":4849:4916   */\n      tag_276\n      jump\t// in\n    tag_308:\n        /* \"#utility.yul\":4842:4916   */\n      swap2\n      pop\n        /* \"#utility.yul\":4925:5018   */\n      tag_309\n        /* \"#utility.yul\":5014:5017   */\n      dup3\n        /* \"#utility.yul\":4925:5018   */\n      tag_310\n      jump\t// in\n    tag_309:\n        /* \"#utility.yul\":5043:5045   */\n      0x40\n        /* \"#utility.yul\":5038:5041   */\n      dup3\n        /* \"#utility.yul\":5034:5046   */\n      add\n        /* \"#utility.yul\":5027:5046   */\n      swap1\n      pop\n        /* \"#utility.yul\":4832:5052   */\n      swap2\n      swap1\n      pop\n      jump\t// out\n        /* \"#utility.yul\":5058:5424   */\n    tag_311:\n        /* \"#utility.yul\":5200:5203   */\n      0x00\n        /* \"#utility.yul\":5221:5288   */\n      tag_313\n        /* \"#utility.yul\":5285:5287   */\n      0x20\n        /* \"#utility.yul\":5280:5283   */\n      dup4\n        /* \"#utility.yul\":5221:5288   */\n      tag_276\n      jump\t// in\n    tag_313:\n        /* \"#utility.yul\":5214:5288   */\n      swap2\n      pop\n        /* \"#utility.yul\":5297:5390   */\n      tag_314\n        /* \"#utility.yul\":5386:5389   */\n      dup3\n        /* \"#utility.yul\":5297:5390   */\n      tag_315\n      jump\t// in\n    tag_314:\n        /* \"#utility.yul\":5415:5417   */\n      0x20\n        /* \"#utility.yul\":5410:5413   */\n      dup3\n        /* \"#utility.yul\":5406:5418   */\n      add\n        /* \"#utility.yul\":5399:5418   */\n      swap1\n      pop\n        /* \"#utility.yul\":5204:5424   */\n      swap2\n      swap1\n      pop\n      jump\t// out\n        /* \"#utility.yul\":5430:5796   */\n    tag_316:\n        /* \"#utility.yul\":5572:5575   */\n      0x00\n        /* \"#utility.yul\":5593:5660   */\n      tag_318\n        /* \"#utility.yul\":5657:5659   */\n      0x21\n        /* \"#utility.yul\":5652:5655   */\n      dup4\n        /* \"#utility.yul\":5593:5660   */\n      tag_276\n      jump\t// in\n    tag_318:\n        /* \"#utility.yul\":5586:5660   */\n      swap2\n      pop\n        /* \"#utility.yul\":5669:5762   */\n      tag_319\n        /* \"#utility.yul\":5758:5761   */\n      dup3\n        /* \"#utility.yul\":5669:5762   */\n      tag_320\n      jump\t// in\n    tag_319:\n        /* \"#utility.yul\":5787:5789   */\n      0x40\n        /* \"#utility.yul\":5782:5785   */\n      dup3\n        /* \"#utility.yul\":5778:5790   */\n      add\n        /* \"#utility.yul\":5771:5790   */\n      swap1\n      pop\n        /* \"#utility.yul\":5576:5796   */\n      swap2\n      swap1\n      pop\n      jump\t// out\n        /* \"#utility.yul\":5802:6168   */\n    tag_321:\n        /* \"#utility.yul\":5944:5947   */\n      0x00\n        /* \"#utility.yul\":5965:6032   */\n      tag_323\n        /* \"#utility.yul\":6029:6031   */\n      0x25\n        /* \"#utility.yul\":6024:6027   */\n      dup4\n        /* \"#utility.yul\":5965:6032   */\n      tag_276\n      jump\t// in\n    tag_323:\n        /* \"#utility.yul\":5958:6032   */\n      swap2\n      pop\n        /* \"#utility.yul\":6041:6134   */\n      tag_324\n        /* \"#utility.yul\":6130:6133   */\n      dup3\n        /* \"#utility.yul\":6041:6134   */\n      tag_325\n      jump\t// in\n    tag_324:\n        /* \"#utility.yul\":6159:6161   */\n      0x40\n        /* \"#utility.yul\":6154:6157   */\n      dup3\n        /* \"#utility.yul\":6150:6162   */\n      add\n        /* \"#utility.yul\":6143:6162   */\n      swap1\n      pop\n        /* \"#utility.yul\":5948:6168   */\n      swap2\n      swap1\n      pop\n      jump\t// out\n        /* \"#utility.yul\":6174:6540   */\n    tag_326:\n        /* \"#utility.yul\":6316:6319   */\n      0x00\n        /* \"#utility.yul\":6337:6404   */\n      tag_328\n        /* \"#utility.yul\":6401:6403   */\n      0x24\n        /* \"#utility.yul\":6396:6399   */\n      dup4\n        /* \"#utility.yul\":6337:6404   */\n      tag_276\n      jump\t// in\n    tag_328:\n        /* \"#utility.yul\":6330:6404   */\n      swap2\n      pop\n        /* \"#utility.yul\":6413:6506   */\n      tag_329\n        /* \"#utility.yul\":6502:6505   */\n      dup3\n        /* \"#utility.yul\":6413:6506   */\n      tag_330\n      jump\t// in\n    tag_329:\n        /* \"#utility.yul\":6531:6533   */\n      0x40\n        /* \"#utility.yul\":6526:6529   */\n      dup3\n        /* \"#utility.yul\":6522:6534   */\n      add\n        /* \"#utility.yul\":6515:6534   */\n      swap1\n      pop\n        /* \"#utility.yul\":6320:6540   */\n      swap2\n      swap1\n      pop\n      jump\t// out\n        /* \"#utility.yul\":6546:6912   */\n    tag_331:\n        /* \"#utility.yul\":6688:6691   */\n      0x00\n        /* \"#utility.yul\":6709:6776   */\n      tag_333\n        /* \"#utility.yul\":6773:6775   */\n      0x25\n        /* \"#utility.yul\":6768:6771   */\n      dup4\n        /* \"#utility.yul\":6709:6776   */\n      tag_276\n      jump\t// in\n    tag_333:\n        /* \"#utility.yul\":6702:6776   */\n      swap2\n      pop\n        /* \"#utility.yul\":6785:6878   */\n      tag_334\n        /* \"#utility.yul\":6874:6877   */\n      dup3\n        /* \"#utility.yul\":6785:6878   */\n      tag_335\n      jump\t// in\n    tag_334:\n        /* \"#utility.yul\":6903:6905   */\n      0x40\n        /* \"#utility.yul\":6898:6901   */\n      dup3\n        /* \"#utility.yul\":6894:6906   */\n      add\n        /* \"#utility.yul\":6887:6906   */\n      swap1\n      pop\n        /* \"#utility.yul\":6692:6912   */\n      swap2\n      swap1\n      pop\n      jump\t// out\n        /* \"#utility.yul\":6918:7036   */\n    tag_336:\n        /* \"#utility.yul\":7005:7029   */\n      tag_338\n        /* \"#utility.yul\":7023:7028   */\n      dup2\n        /* \"#utility.yul\":7005:7029   */\n      tag_339\n      jump\t// in\n    tag_338:\n        /* \"#utility.yul\":7000:7003   */\n      dup3\n        /* \"#utility.yul\":6993:7030   */\n      mstore\n        /* \"#utility.yul\":6983:7036   */\n      pop\n      pop\n      jump\t// out\n        /* \"#utility.yul\":7042:7154   */\n    tag_340:\n        /* \"#utility.yul\":7125:7147   */\n      tag_342\n        /* \"#utility.yul\":7141:7146   */\n      dup2\n        /* \"#utility.yul\":7125:7147   */\n      tag_343\n      jump\t// in\n    tag_342:\n        /* \"#utility.yul\":7120:7123   */\n      dup3\n        /* \"#utility.yul\":7113:7148   */\n      mstore\n        /* \"#utility.yul\":7103:7154   */\n      pop\n      pop\n      jump\t// out\n        /* \"#utility.yul\":7160:7382   */\n    tag_31:\n        /* \"#utility.yul\":7253:7257   */\n      0x00\n        /* \"#utility.yul\":7291:7293   */\n      0x20\n        /* \"#utility.yul\":7280:7289   */\n      dup3\n        /* \"#utility.yul\":7276:7294   */\n      add\n        /* \"#utility.yul\":7268:7294   */\n      swap1\n      pop\n        /* \"#utility.yul\":7304:7375   */\n      tag_345\n        /* \"#utility.yul\":7372:7373   */\n      0x00\n        /* \"#utility.yul\":7361:7370   */\n      dup4\n        /* \"#utility.yul\":7357:7374   */\n      add\n        /* \"#utility.yul\":7348:7354   */\n      dup5\n        /* \"#utility.yul\":7304:7375   */\n      tag_263\n      jump\t// in\n    tag_345:\n        /* \"#utility.yul\":7258:7382   */\n      swap3\n      swap2\n      pop\n      pop\n      jump\t// out\n        /* \"#utility.yul\":7388:7598   */\n    tag_41:\n        /* \"#utility.yul\":7475:7479   */\n      0x00\n        /* \"#utility.yul\":7513:7515   */\n      0x20\n        /* \"#utility.yul\":7502:7511   */\n      dup3\n        /* \"#utility.yul\":7498:7516   */\n      add\n        /* \"#utility.yul\":7490:7516   */\n      swap1\n      pop\n        /* \"#utility.yul\":7526:7591   */\n      tag_347\n        /* \"#utility.yul\":7588:7589   */\n      0x00\n        /* \"#utility.yul\":7577:7586   */\n      dup4\n        /* \"#utility.yul\":7573:7590   */\n      add\n        /* \"#utility.yul\":7564:7570   */\n      dup5\n        /* \"#utility.yul\":7526:7591   */\n      tag_267\n      jump\t// in\n    tag_347:\n        /* \"#utility.yul\":7480:7598   */\n      swap3\n      swap2\n      pop\n      pop\n      jump\t// out\n        /* \"#utility.yul\":7604:7917   */\n    tag_35:\n        /* \"#utility.yul\":7717:7721   */\n      0x00\n        /* \"#utility.yul\":7755:7757   */\n      0x20\n        /* \"#utility.yul\":7744:7753   */\n      dup3\n        /* \"#utility.yul\":7740:7758   */\n      add\n        /* \"#utility.yul\":7732:7758   */\n      swap1\n      pop\n        /* \"#utility.yul\":7804:7813   */\n      dup2\n        /* \"#utility.yul\":7798:7802   */\n      dup2\n        /* \"#utility.yul\":7794:7814   */\n      sub\n        /* \"#utility.yul\":7790:7791   */\n      0x00\n        /* \"#utility.yul\":7779:7788   */\n      dup4\n        /* \"#utility.yul\":7775:7792   */\n      add\n        /* \"#utility.yul\":7768:7815   */\n      mstore\n        /* \"#utility.yul\":7832:7910   */\n      tag_349\n        /* \"#utility.yul\":7905:7909   */\n      dup2\n        /* \"#utility.yul\":7896:7902   */\n      dup5\n        /* \"#utility.yul\":7832:7910   */\n      tag_271\n      jump\t// in\n    tag_349:\n        /* \"#utility.yul\":7824:7910   */\n      swap1\n      pop\n        /* \"#utility.yul\":7722:7917   */\n      swap3\n      swap2\n      pop\n      pop\n      jump\t// out\n        /* \"#utility.yul\":7923:8342   */\n    tag_224:\n        /* \"#utility.yul\":8089:8093   */\n      0x00\n        /* \"#utility.yul\":8127:8129   */\n      0x20\n        /* \"#utility.yul\":8116:8125   */\n      dup3\n        /* \"#utility.yul\":8112:8130   */\n      add\n        /* \"#utility.yul\":8104:8130   */\n      swap1\n      pop\n        /* \"#utility.yul\":8176:8185   */\n      dup2\n        /* \"#utility.yul\":8170:8174   */\n      dup2\n        /* \"#utility.yul\":8166:8186   */\n      sub\n        /* \"#utility.yul\":8162:8163   */\n      0x00\n        /* \"#utility.yul\":8151:8160   */\n      dup4\n        /* \"#utility.yul\":8147:8164   */\n      add\n        /* \"#utility.yul\":8140:8187   */\n      mstore\n        /* \"#utility.yul\":8204:8335   */\n      tag_351\n        /* \"#utility.yul\":8330:8334   */\n      dup2\n        /* \"#utility.yul\":8204:8335   */\n      tag_281\n      jump\t// in\n    tag_351:\n        /* \"#utility.yul\":8196:8335   */\n      swap1\n      pop\n        /* \"#utility.yul\":8094:8342   */\n      swap2\n      swap1\n      pop\n      jump\t// out\n        /* \"#utility.yul\":8348:8767   */\n    tag_214:\n        /* \"#utility.yul\":8514:8518   */\n      0x00\n        /* \"#utility.yul\":8552:8554   */\n      0x20\n        /* \"#utility.yul\":8541:8550   */\n      dup3\n        /* \"#utility.yul\":8537:8555   */\n      add\n        /* \"#utility.yul\":8529:8555   */\n      swap1\n      pop\n        /* \"#utility.yul\":8601:8610   */\n      dup2\n        /* \"#utility.yul\":8595:8599   */\n      dup2\n        /* \"#utility.yul\":8591:8611   */\n      sub\n        /* \"#utility.yul\":8587:8588   */\n      0x00\n        /* \"#utility.yul\":8576:8585   */\n      dup4\n        /* \"#utility.yul\":8572:8589   */\n      add\n        /* \"#utility.yul\":8565:8612   */\n      mstore\n        /* \"#utility.yul\":8629:8760   */\n      tag_353\n        /* \"#utility.yul\":8755:8759   */\n      dup2\n        /* \"#utility.yul\":8629:8760   */\n      tag_286\n      jump\t// in\n    tag_353:\n        /* \"#utility.yul\":8621:8760   */\n      swap1\n      pop\n        /* \"#utility.yul\":8519:8767   */\n      swap2\n      swap1\n      pop\n      jump\t// out\n        /* \"#utility.yul\":8773:9192   */\n    tag_170:\n        /* \"#utility.yul\":8939:8943   */\n      0x00\n        /* \"#utility.yul\":8977:8979   */\n      0x20\n        /* \"#utility.yul\":8966:8975   */\n      dup3\n        /* \"#utility.yul\":8962:8980   */\n      add\n        /* \"#utility.yul\":8954:8980   */\n      swap1\n      pop\n        /* \"#utility.yul\":9026:9035   */\n      dup2\n        /* \"#utility.yul\":9020:9024   */\n      dup2\n        /* \"#utility.yul\":9016:9036   */\n      sub\n        /* \"#utility.yul\":9012:9013   */\n      0x00\n        /* \"#utility.yul\":9001:9010   */\n      dup4\n        /* \"#utility.yul\":8997:9014   */\n      add\n        /* \"#utility.yul\":8990:9037   */\n      mstore\n        /* \"#utility.yul\":9054:9185   */\n      tag_355\n        /* \"#utility.yul\":9180:9184   */\n      dup2\n        /* \"#utility.yul\":9054:9185   */\n      tag_291\n      jump\t// in\n    tag_355:\n        /* \"#utility.yul\":9046:9185   */\n      swap1\n      pop\n        /* \"#utility.yul\":8944:9192   */\n      swap2\n      swap1\n      pop\n      jump\t// out\n        /* \"#utility.yul\":9198:9617   */\n    tag_179:\n        /* \"#utility.yul\":9364:9368   */\n      0x00\n        /* \"#utility.yul\":9402:9404   */\n      0x20\n        /* \"#utility.yul\":9391:9400   */\n      dup3\n        /* \"#utility.yul\":9387:9405   */\n      add\n        /* \"#utility.yul\":9379:9405   */\n      swap1\n      pop\n        /* \"#utility.yul\":9451:9460   */\n      dup2\n        /* \"#utility.yul\":9445:9449   */\n      dup2\n        /* \"#utility.yul\":9441:9461   */\n      sub\n        /* \"#utility.yul\":9437:9438   */\n      0x00\n        /* \"#utility.yul\":9426:9435   */\n      dup4\n        /* \"#utility.yul\":9422:9439   */\n      add\n        /* \"#utility.yul\":9415:9462   */\n      mstore\n        /* \"#utility.yul\":9479:9610   */\n      tag_357\n        /* \"#utility.yul\":9605:9609   */\n      dup2\n        /* \"#utility.yul\":9479:9610   */\n      tag_296\n      jump\t// in\n    tag_357:\n        /* \"#utility.yul\":9471:9610   */\n      swap1\n      pop\n        /* \"#utility.yul\":9369:9617   */\n      swap2\n      swap1\n      pop\n      jump\t// out\n        /* \"#utility.yul\":9623:10042   */\n    tag_228:\n        /* \"#utility.yul\":9789:9793   */\n      0x00\n        /* \"#utility.yul\":9827:9829   */\n      0x20\n        /* \"#utility.yul\":9816:9825   */\n      dup3\n        /* \"#utility.yul\":9812:9830   */\n      add\n        /* \"#utility.yul\":9804:9830   */\n      swap1\n      pop\n        /* \"#utility.yul\":9876:9885   */\n      dup2\n        /* \"#utility.yul\":9870:9874   */\n      dup2\n        /* \"#utility.yul\":9866:9886   */\n      sub\n        /* \"#utility.yul\":9862:9863   */\n      0x00\n        /* \"#utility.yul\":9851:9860   */\n      dup4\n        /* \"#utility.yul\":9847:9864   */\n      add\n        /* \"#utility.yul\":9840:9887   */\n      mstore\n        /* \"#utility.yul\":9904:10035   */\n      tag_359\n        /* \"#utility.yul\":10030:10034   */\n      dup2\n        /* \"#utility.yul\":9904:10035   */\n      tag_301\n      jump\t// in\n    tag_359:\n        /* \"#utility.yul\":9896:10035   */\n      swap1\n      pop\n        /* \"#utility.yul\":9794:10042   */\n      swap2\n      swap1\n      pop\n      jump\t// out\n        /* \"#utility.yul\":10048:10467   */\n    tag_127:\n        /* \"#utility.yul\":10214:10218   */\n      0x00\n        /* \"#utility.yul\":10252:10254   */\n      0x20\n        /* \"#utility.yul\":10241:10250   */\n      dup3\n        /* \"#utility.yul\":10237:10255   */\n      add\n        /* \"#utility.yul\":10229:10255   */\n      swap1\n      pop\n        /* \"#utility.yul\":10301:10310   */\n      dup2\n        /* \"#utility.yul\":10295:10299   */\n      dup2\n        /* \"#utility.yul\":10291:10311   */\n      sub\n        /* \"#utility.yul\":10287:10288   */\n      0x00\n        /* \"#utility.yul\":10276:10285   */\n      dup4\n        /* \"#utility.yul\":10272:10289   */\n      add\n        /* \"#utility.yul\":10265:10312   */\n      mstore\n        /* \"#utility.yul\":10329:10460   */\n      tag_361\n        /* \"#utility.yul\":10455:10459   */\n      dup2\n        /* \"#utility.yul\":10329:10460   */\n      tag_306\n      jump\t// in\n    tag_361:\n        /* \"#utility.yul\":10321:10460   */\n      swap1\n      pop\n        /* \"#utility.yul\":10219:10467   */\n      swap2\n      swap1\n      pop\n      jump\t// out\n        /* \"#utility.yul\":10473:10892   */\n    tag_204:\n        /* \"#utility.yul\":10639:10643   */\n      0x00\n        /* \"#utility.yul\":10677:10679   */\n      0x20\n        /* \"#utility.yul\":10666:10675   */\n      dup3\n        /* \"#utility.yul\":10662:10680   */\n      add\n        /* \"#utility.yul\":10654:10680   */\n      swap1\n      pop\n        /* \"#utility.yul\":10726:10735   */\n      dup2\n        /* \"#utility.yul\":10720:10724   */\n      dup2\n        /* \"#utility.yul\":10716:10736   */\n      sub\n        /* \"#utility.yul\":10712:10713   */\n      0x00\n        /* \"#utility.yul\":10701:10710   */\n      dup4\n        /* \"#utility.yul\":10697:10714   */\n      add\n        /* \"#utility.yul\":10690:10737   */\n      mstore\n        /* \"#utility.yul\":10754:10885   */\n      tag_363\n        /* \"#utility.yul\":10880:10884   */\n      dup2\n        /* \"#utility.yul\":10754:10885   */\n      tag_311\n      jump\t// in\n    tag_363:\n        /* \"#utility.yul\":10746:10885   */\n      swap1\n      pop\n        /* \"#utility.yul\":10644:10892   */\n      swap2\n      swap1\n      pop\n      jump\t// out\n        /* \"#utility.yul\":10898:11317   */\n    tag_209:\n        /* \"#utility.yul\":11064:11068   */\n      0x00\n        /* \"#utility.yul\":11102:11104   */\n      0x20\n        /* \"#utility.yul\":11091:11100   */\n      dup3\n        /* \"#utility.yul\":11087:11105   */\n      add\n        /* \"#utility.yul\":11079:11105   */\n      swap1\n      pop\n        /* \"#utility.yul\":11151:11160   */\n      dup2\n        /* \"#utility.yul\":11145:11149   */\n      dup2\n        /* \"#utility.yul\":11141:11161   */\n      sub\n        /* \"#utility.yul\":11137:11138   */\n      0x00\n        /* \"#utility.yul\":11126:11135   */\n      dup4\n        /* \"#utility.yul\":11122:11139   */\n      add\n        /* \"#utility.yul\":11115:11162   */\n      mstore\n        /* \"#utility.yul\":11179:11310   */\n      tag_365\n        /* \"#utility.yul\":11305:11309   */\n      dup2\n        /* \"#utility.yul\":11179:11310   */\n      tag_316\n      jump\t// in\n    tag_365:\n        /* \"#utility.yul\":11171:11310   */\n      swap1\n      pop\n        /* \"#utility.yul\":11069:11317   */\n      swap2\n      swap1\n      pop\n      jump\t// out\n        /* \"#utility.yul\":11323:11742   */\n    tag_221:\n        /* \"#utility.yul\":11489:11493   */\n      0x00\n        /* \"#utility.yul\":11527:11529   */\n      0x20\n        /* \"#utility.yul\":11516:11525   */\n      dup3\n        /* \"#utility.yul\":11512:11530   */\n      add\n        /* \"#utility.yul\":11504:11530   */\n      swap1\n      pop\n        /* \"#utility.yul\":11576:11585   */\n      dup2\n        /* \"#utility.yul\":11570:11574   */\n      dup2\n        /* \"#utility.yul\":11566:11586   */\n      sub\n        /* \"#utility.yul\":11562:11563   */\n      0x00\n        /* \"#utility.yul\":11551:11560   */\n      dup4\n        /* \"#utility.yul\":11547:11564   */\n      add\n        /* \"#utility.yul\":11540:11587   */\n      mstore\n        /* \"#utility.yul\":11604:11735   */\n      tag_367\n        /* \"#utility.yul\":11730:11734   */\n      dup2\n        /* \"#utility.yul\":11604:11735   */\n      tag_321\n      jump\t// in\n    tag_367:\n        /* \"#utility.yul\":11596:11735   */\n      swap1\n      pop\n        /* \"#utility.yul\":11494:11742   */\n      swap2\n      swap1\n      pop\n      jump\t// out\n        /* \"#utility.yul\":11748:12167   */\n    tag_176:\n        /* \"#utility.yul\":11914:11918   */\n      0x00\n        /* \"#utility.yul\":11952:11954   */\n      0x20\n        /* \"#utility.yul\":11941:11950   */\n      dup3\n        /* \"#utility.yul\":11937:11955   */\n      add\n        /* \"#utility.yul\":11929:11955   */\n      swap1\n      pop\n        /* \"#utility.yul\":12001:12010   */\n      dup2\n        /* \"#utility.yul\":11995:11999   */\n      dup2\n        /* \"#utility.yul\":11991:12011   */\n      sub\n        /* \"#utility.yul\":11987:11988   */\n      0x00\n        /* \"#utility.yul\":11976:11985   */\n      dup4\n        /* \"#utility.yul\":11972:11989   */\n      add\n        /* \"#utility.yul\":11965:12012   */\n      mstore\n        /* \"#utility.yul\":12029:12160   */\n      tag_369\n        /* \"#utility.yul\":12155:12159   */\n      dup2\n        /* \"#utility.yul\":12029:12160   */\n      tag_326\n      jump\t// in\n    tag_369:\n        /* \"#utility.yul\":12021:12160   */\n      swap1\n      pop\n        /* \"#utility.yul\":11919:12167   */\n      swap2\n      swap1\n      pop\n      jump\t// out\n        /* \"#utility.yul\":12173:12592   */\n    tag_160:\n        /* \"#utility.yul\":12339:12343   */\n      0x00\n        /* \"#utility.yul\":12377:12379   */\n      0x20\n        /* \"#utility.yul\":12366:12375   */\n      dup3\n        /* \"#utility.yul\":12362:12380   */\n      add\n        /* \"#utility.yul\":12354:12380   */\n      swap1\n      pop\n        /* \"#utility.yul\":12426:12435   */\n      dup2\n        /* \"#utility.yul\":12420:12424   */\n      dup2\n        /* \"#utility.yul\":12416:12436   */\n      sub\n        /* \"#utility.yul\":12412:12413   */\n      0x00\n        /* \"#utility.yul\":12401:12410   */\n      dup4\n        /* \"#utility.yul\":12397:12414   */\n      add\n        /* \"#utility.yul\":12390:12437   */\n      mstore\n        /* \"#utility.yul\":12454:12585   */\n      tag_371\n        /* \"#utility.yul\":12580:12584   */\n      dup2\n        /* \"#utility.yul\":12454:12585   */\n      tag_331\n      jump\t// in\n    tag_371:\n        /* \"#utility.yul\":12446:12585   */\n      swap1\n      pop\n        /* \"#utility.yul\":12344:12592   */\n      swap2\n      swap1\n      pop\n      jump\t// out\n        /* \"#utility.yul\":12598:12820   */\n    tag_45:\n        /* \"#utility.yul\":12691:12695   */\n      0x00\n        /* \"#utility.yul\":12729:12731   */\n      0x20\n        /* \"#utility.yul\":12718:12727   */\n      dup3\n        /* \"#utility.yul\":12714:12732   */\n      add\n        /* \"#utility.yul\":12706:12732   */\n      swap1\n      pop\n        /* \"#utility.yul\":12742:12813   */\n      tag_373\n        /* \"#utility.yul\":12810:12811   */\n      0x00\n        /* \"#utility.yul\":12799:12808   */\n      dup4\n        /* \"#utility.yul\":12795:12812   */\n      add\n        /* \"#utility.yul\":12786:12792   */\n      dup5\n        /* \"#utility.yul\":12742:12813   */\n      tag_336\n      jump\t// in\n    tag_373:\n        /* \"#utility.yul\":12696:12820   */\n      swap3\n      swap2\n      pop\n      pop\n      jump\t// out\n        /* \"#utility.yul\":12826:13040   */\n    tag_54:\n        /* \"#utility.yul\":12915:12919   */\n      0x00\n        /* \"#utility.yul\":12953:12955   */\n      0x20\n        /* \"#utility.yul\":12942:12951   */\n      dup3\n        /* \"#utility.yul\":12938:12956   */\n      add\n        /* \"#utility.yul\":12930:12956   */\n      swap1\n      pop\n        /* \"#utility.yul\":12966:13033   */\n      tag_375\n        /* \"#utility.yul\":13030:13031   */\n      0x00\n        /* \"#utility.yul\":13019:13028   */\n      dup4\n        /* \"#utility.yul\":13015:13032   */\n      add\n        /* \"#utility.yul\":13006:13012   */\n      dup5\n        /* \"#utility.yul\":12966:13033   */\n      tag_340\n      jump\t// in\n    tag_375:\n        /* \"#utility.yul\":12920:13040   */\n      swap3\n      swap2\n      pop\n      pop\n      jump\t// out\n        /* \"#utility.yul\":13127:13226   */\n    tag_274:\n        /* \"#utility.yul\":13179:13185   */\n      0x00\n        /* \"#utility.yul\":13213:13218   */\n      dup2\n        /* \"#utility.yul\":13207:13219   */\n      mload\n        /* \"#utility.yul\":13197:13219   */\n      swap1\n      pop\n        /* \"#utility.yul\":13186:13226   */\n      swap2\n      swap1\n      pop\n      jump\t// out\n        /* \"#utility.yul\":13232:13401   */\n    tag_276:\n        /* \"#utility.yul\":13316:13327   */\n      0x00\n        /* \"#utility.yul\":13350:13356   */\n      dup3\n        /* \"#utility.yul\":13345:13348   */\n      dup3\n        /* \"#utility.yul\":13338:13357   */\n      mstore\n        /* \"#utility.yul\":13390:13394   */\n      0x20\n        /* \"#utility.yul\":13385:13388   */\n      dup3\n        /* \"#utility.yul\":13381:13395   */\n      add\n        /* \"#utility.yul\":13366:13395   */\n      swap1\n      pop\n        /* \"#utility.yul\":13328:13401   */\n      swap3\n      swap2\n      pop\n      pop\n      jump\t// out\n        /* \"#utility.yul\":13407:13712   */\n    tag_140:\n        /* \"#utility.yul\":13447:13450   */\n      0x00\n        /* \"#utility.yul\":13466:13486   */\n      tag_381\n        /* \"#utility.yul\":13484:13485   */\n      dup3\n        /* \"#utility.yul\":13466:13486   */\n      tag_339\n      jump\t// in\n    tag_381:\n        /* \"#utility.yul\":13461:13486   */\n      swap2\n      pop\n        /* \"#utility.yul\":13500:13520   */\n      tag_382\n        /* \"#utility.yul\":13518:13519   */\n      dup4\n        /* \"#utility.yul\":13500:13520   */\n      tag_339\n      jump\t// in\n    tag_382:\n        /* \"#utility.yul\":13495:13520   */\n      swap3\n      pop\n        /* \"#utility.yul\":13654:13655   */\n      dup3\n        /* \"#utility.yul\":13586:13652   */\n      0xffffffffffffffffffffffffffffffffffffffffffffffffffffffffffffffff\n        /* \"#utility.yul\":13582:13656   */\n      sub\n        /* \"#utility.yul\":13579:13580   */\n      dup3\n        /* \"#utility.yul\":13576:13657   */\n      gt\n        /* \"#utility.yul\":13573:13575   */\n      iszero\n      tag_383\n      jumpi\n        /* \"#utility.yul\":13660:13678   */\n      tag_384\n      tag_385\n      jump\t// in\n    tag_384:\n        /* \"#utility.yul\":13573:13575   */\n    tag_383:\n        /* \"#utility.yul\":13704:13705   */\n      dup3\n        /* \"#utility.yul\":13701:13702   */\n      dup3\n        /* \"#utility.yul\":13697:13706   */\n      add\n        /* \"#utility.yul\":13690:13706   */\n      swap1\n      pop\n        /* \"#utility.yul\":13451:13712   */\n      swap3\n      swap2\n      pop\n      pop\n      jump\t// out\n        /* \"#utility.yul\":13718:13903   */\n    tag_185:\n        /* \"#utility.yul\":13758:13759   */\n      0x00\n        /* \"#utility.yul\":13775:13795   */\n      tag_387\n        /* \"#utility.yul\":13793:13794   */\n      dup3\n        /* \"#utility.yul\":13775:13795   */\n      tag_339\n      jump\t// in\n    tag_387:\n        /* \"#utility.yul\":13770:13795   */\n      swap2\n      pop\n        /* \"#utility.yul\":13809:13829   */\n      tag_388\n        /* \"#utility.yul\":13827:13828   */\n      dup4\n        /* \"#utility.yul\":13809:13829   */\n      tag_339\n      jump\t// in\n    tag_388:\n        /* \"#utility.yul\":13804:13829   */\n      swap3\n      pop\n        /* \"#utility.yul\":13848:13849   */\n      dup3\n        /* \"#utility.yul\":13838:13840   */\n      tag_389\n      jumpi\n        /* \"#utility.yul\":13853:13871   */\n      tag_390\n      tag_391\n      jump\t// in\n    tag_390:\n        /* \"#utility.yul\":13838:13840   */\n    tag_389:\n        /* \"#utility.yul\":13895:13896   */\n      dup3\n        /* \"#utility.yul\":13892:13893   */\n      dup3\n        /* \"#utility.yul\":13888:13897   */\n      div\n        /* \"#utility.yul\":13883:13897   */\n      swap1\n      pop\n        /* \"#utility.yul\":13760:13903   */\n      swap3\n      swap2\n      pop\n      pop\n      jump\t// out\n        /* \"#utility.yul\":13909:14257   */\n    tag_183:\n        /* \"#utility.yul\":13949:13956   */\n      0x00\n        /* \"#utility.yul\":13972:13992   */\n      tag_393\n        /* \"#utility.yul\":13990:13991   */\n      dup3\n        /* \"#utility.yul\":13972:13992   */\n      tag_339\n      jump\t// in\n    tag_393:\n        /* \"#utility.yul\":13967:13992   */\n      swap2\n      pop\n        /* \"#utility.yul\":14006:14026   */\n      tag_394\n        /* \"#utility.yul\":14024:14025   */\n      dup4\n        /* \"#utility.yul\":14006:14026   */\n      tag_339\n      jump\t// in\n    tag_394:\n        /* \"#utility.yul\":14001:14026   */\n      swap3\n      pop\n        /* \"#utility.yul\":14194:14195   */\n      dup2\n        /* \"#utility.yul\":14126:14192   */\n      0xffffffffffffffffffffffffffffffffffffffffffffffffffffffffffffffff\n        /* \"#utility.yul\":14122:14196   */\n      div\n        /* \"#utility.yul\":14119:14120   */\n      dup4\n        /* \"#utility.yul\":14116:14197   */\n      gt\n        /* \"#utility.yul\":14111:14112   */\n      dup3\n        /* \"#utility.yul\":14104:14113   */\n      iszero\n        /* \"#utility.yul\":14097:14114   */\n      iszero\n        /* \"#utility.yul\":14093:14198   */\n      and\n        /* \"#utility.yul\":14090:14092   */\n      iszero\n      tag_395\n      jumpi\n        /* \"#utility.yul\":14201:14219   */\n      tag_396\n      tag_385\n      jump\t// in\n    tag_396:\n        /* \"#utility.yul\":14090:14092   */\n    tag_395:\n        /* \"#utility.yul\":14249:14250   */\n      dup3\n        /* \"#utility.yul\":14246:14247   */\n      dup3\n        /* \"#utility.yul\":14242:14251   */\n      mul\n        /* \"#utility.yul\":14231:14251   */\n      swap1\n      pop\n        /* \"#utility.yul\":13957:14257   */\n      swap3\n      swap2\n      pop\n      pop\n      jump\t// out\n        /* \"#utility.yul\":14263:14454   */\n    tag_131:\n        /* \"#utility.yul\":14303:14307   */\n      0x00\n        /* \"#utility.yul\":14323:14343   */\n      tag_398\n        /* \"#utility.yul\":14341:14342   */\n      dup3\n        /* \"#utility.yul\":14323:14343   */\n      tag_339\n      jump\t// in\n    tag_398:\n        /* \"#utility.yul\":14318:14343   */\n      swap2\n      pop\n        /* \"#utility.yul\":14357:14377   */\n      tag_399\n        /* \"#utility.yul\":14375:14376   */\n      dup4\n        /* \"#utility.yul\":14357:14377   */\n      tag_339\n      jump\t// in\n    tag_399:\n        /* \"#utility.yul\":14352:14377   */\n      swap3\n      pop\n        /* \"#utility.yul\":14396:14397   */\n      dup3\n        /* \"#utility.yul\":14393:14394   */\n      dup3\n        /* \"#utility.yul\":14390:14398   */\n      lt\n        /* \"#utility.yul\":14387:14389   */\n      iszero\n      tag_400\n      jumpi\n        /* \"#utility.yul\":14401:14419   */\n      tag_401\n      tag_385\n      jump\t// in\n    tag_401:\n        /* \"#utility.yul\":14387:14389   */\n    tag_400:\n        /* \"#utility.yul\":14446:14447   */\n      dup3\n        /* \"#utility.yul\":14443:14444   */\n      dup3\n        /* \"#utility.yul\":14439:14448   */\n      sub\n        /* \"#utility.yul\":14431:14448   */\n      swap1\n      pop\n        /* \"#utility.yul\":14308:14454   */\n      swap3\n      swap2\n      pop\n      pop\n      jump\t// out\n        /* \"#utility.yul\":14460:14556   */\n    tag_266:\n        /* \"#utility.yul\":14497:14504   */\n      0x00\n        /* \"#utility.yul\":14526:14550   */\n      tag_403\n        /* \"#utility.yul\":14544:14549   */\n      dup3\n        /* \"#utility.yul\":14526:14550   */\n      tag_404\n      jump\t// in\n    tag_403:\n        /* \"#utility.yul\":14515:14550   */\n      swap1\n      pop\n        /* \"#utility.yul\":14505:14556   */\n      swap2\n      swap1\n      pop\n      jump\t// out\n        /* \"#utility.yul\":14562:14652   */\n    tag_270:\n        /* \"#utility.yul\":14596:14603   */\n      0x00\n        /* \"#utility.yul\":14639:14644   */\n      dup2\n        /* \"#utility.yul\":14632:14645   */\n      iszero\n        /* \"#utility.yul\":14625:14646   */\n      iszero\n        /* \"#utility.yul\":14614:14646   */\n      swap1\n      pop\n        /* \"#utility.yul\":14604:14652   */\n      swap2\n      swap1\n      pop\n      jump\t// out\n        /* \"#utility.yul\":14658:14784   */\n    tag_404:\n        /* \"#utility.yul\":14695:14702   */\n      0x00\n        /* \"#utility.yul\":14735:14777   */\n      0xffffffffffffffffffffffffffffffffffffffff\n        /* \"#utility.yul\":14728:14733   */\n      dup3\n        /* \"#utility.yul\":14724:14778   */\n      and\n        /* \"#utility.yul\":14713:14778   */\n      swap1\n      pop\n        /* \"#utility.yul\":14703:14784   */\n      swap2\n      swap1\n      pop\n      jump\t// out\n        /* \"#utility.yul\":14790:14867   */\n    tag_339:\n        /* \"#utility.yul\":14827:14834   */\n      0x00\n        /* \"#utility.yul\":14856:14861   */\n      dup2\n        /* \"#utility.yul\":14845:14861   */\n      swap1\n      pop\n        /* \"#utility.yul\":14835:14867   */\n      swap2\n      swap1\n      pop\n      jump\t// out\n        /* \"#utility.yul\":14873:14959   */\n    tag_343:\n        /* \"#utility.yul\":14908:14915   */\n      0x00\n        /* \"#utility.yul\":14948:14952   */\n      0xff\n        /* \"#utility.yul\":14941:14946   */\n      dup3\n        /* \"#utility.yul\":14937:14953   */\n      and\n        /* \"#utility.yul\":14926:14953   */\n      swap1\n      pop\n        /* \"#utility.yul\":14916:14959   */\n      swap2\n      swap1\n      pop\n      jump\t// out\n        /* \"#utility.yul\":14965:15272   */\n    tag_278:\n        /* \"#utility.yul\":15033:15034   */\n      0x00\n        /* \"#utility.yul\":15043:15156   */\n    tag_410:\n        /* \"#utility.yul\":15057:15063   */\n      dup4\n        /* \"#utility.yul\":15054:15055   */\n      dup2\n        /* \"#utility.yul\":15051:15064   */\n      lt\n        /* \"#utility.yul\":15043:15156   */\n      iszero\n      tag_412\n      jumpi\n        /* \"#utility.yul\":15142:15143   */\n      dup1\n        /* \"#utility.yul\":15137:15140   */\n      dup3\n        /* \"#utility.yul\":15133:15144   */\n      add\n        /* \"#utility.yul\":15127:15145   */\n      mload\n        /* \"#utility.yul\":15123:15124   */\n      dup2\n        /* \"#utility.yul\":15118:15121   */\n      dup5\n        /* \"#utility.yul\":15114:15125   */\n      add\n        /* \"#utility.yul\":15107:15146   */\n      mstore\n        /* \"#utility.yul\":15079:15081   */\n      0x20\n        /* \"#utility.yul\":15076:15077   */\n      dup2\n        /* \"#utility.yul\":15072:15082   */\n      add\n        /* \"#utility.yul\":15067:15082   */\n      swap1\n      pop\n        /* \"#utility.yul\":15043:15156   */\n      jump(tag_410)\n    tag_412:\n        /* \"#utility.yul\":15174:15180   */\n      dup4\n        /* \"#utility.yul\":15171:15172   */\n      dup2\n        /* \"#utility.yul\":15168:15181   */\n      gt\n        /* \"#utility.yul\":15165:15167   */\n      iszero\n      tag_413\n      jumpi\n        /* \"#utility.yul\":15254:15255   */\n      0x00\n        /* \"#utility.yul\":15245:15251   */\n      dup5\n        /* \"#utility.yul\":15240:15243   */\n      dup5\n        /* \"#utility.yul\":15236:15252   */\n      add\n        /* \"#utility.yul\":15229:15256   */\n      mstore\n        /* \"#utility.yul\":15165:15167   */\n    tag_413:\n        /* \"#utility.yul\":15014:15272   */\n      pop\n      pop\n      pop\n      pop\n      jump\t// out\n        /* \"#utility.yul\":15278:15598   */\n    tag_111:\n        /* \"#utility.yul\":15322:15328   */\n      0x00\n        /* \"#utility.yul\":15359:15360   */\n      0x02\n        /* \"#utility.yul\":15353:15357   */\n      dup3\n        /* \"#utility.yul\":15349:15361   */\n      div\n        /* \"#utility.yul\":15339:15361   */\n      swap1\n      pop\n        /* \"#utility.yul\":15406:15407   */\n      0x01\n        /* \"#utility.yul\":15400:15404   */\n      dup3\n        /* \"#utility.yul\":15396:15408   */\n      and\n        /* \"#utility.yul\":15427:15445   */\n      dup1\n        /* \"#utility.yul\":15417:15419   */\n      tag_415\n      jumpi\n        /* \"#utility.yul\":15483:15487   */\n      0x7f\n        /* \"#utility.yul\":15475:15481   */\n      dup3\n        /* \"#utility.yul\":15471:15488   */\n      and\n        /* \"#utility.yul\":15461:15488   */\n      swap2\n      pop\n        /* \"#utility.yul\":15417:15419   */\n    tag_415:\n        /* \"#utility.yul\":15545:15547   */\n      0x20\n        /* \"#utility.yul\":15537:15543   */\n      dup3\n        /* \"#utility.yul\":15534:15548   */\n      lt\n        /* \"#utility.yul\":15514:15532   */\n      dup2\n        /* \"#utility.yul\":15511:15549   */\n      eq\n        /* \"#utility.yul\":15508:15510   */\n      iszero\n      tag_416\n      jumpi\n        /* \"#utility.yul\":15564:15582   */\n      tag_417\n      tag_418\n      jump\t// in\n    tag_417:\n        /* \"#utility.yul\":15508:15510   */\n    tag_416:\n        /* \"#utility.yul\":15329:15598   */\n      pop\n      swap2\n      swap1\n      pop\n      jump\t// out\n        /* \"#utility.yul\":15604:15784   */\n    tag_385:\n        /* \"#utility.yul\":15652:15729   */\n      0x4e487b7100000000000000000000000000000000000000000000000000000000\n        /* \"#utility.yul\":15649:15650   */\n      0x00\n        /* \"#utility.yul\":15642:15730   */\n      mstore\n        /* \"#utility.yul\":15749:15753   */\n      0x11\n        /* \"#utility.yul\":15746:15747   */\n      0x04\n        /* \"#utility.yul\":15739:15754   */\n      mstore\n        /* \"#utility.yul\":15773:15777   */\n      0x24\n        /* \"#utility.yul\":15770:15771   */\n      0x00\n        /* \"#utility.yul\":15763:15778   */\n      revert\n        /* \"#utility.yul\":15790:15970   */\n    tag_391:\n        /* \"#utility.yul\":15838:15915   */\n      0x4e487b7100000000000000000000000000000000000000000000000000000000\n        /* \"#utility.yul\":15835:15836   */\n      0x00\n        /* \"#utility.yul\":15828:15916   */\n      mstore\n        /* \"#utility.yul\":15935:15939   */\n      0x12\n        /* \"#utility.yul\":15932:15933   */\n      0x04\n        /* \"#utility.yul\":15925:15940   */\n      mstore\n        /* \"#utility.yul\":15959:15963   */\n      0x24\n        /* \"#utility.yul\":15956:15957   */\n      0x00\n        /* \"#utility.yul\":15949:15964   */\n      revert\n        /* \"#utility.yul\":15976:16156   */\n    tag_418:\n        /* \"#utility.yul\":16024:16101   */\n      0x4e487b7100000000000000000000000000000000000000000000000000000000\n        /* \"#utility.yul\":16021:16022   */\n      0x00\n        /* \"#utility.yul\":16014:16102   */\n      mstore\n        /* \"#utility.yul\":16121:16125   */\n      0x22\n        /* \"#utility.yul\":16118:16119   */\n      0x04\n        /* \"#utility.yul\":16111:16126   */\n      mstore\n        /* \"#utility.yul\":16145:16149   */\n      0x24\n        /* \"#utility.yul\":16142:16143   */\n      0x00\n        /* \"#utility.yul\":16135:16150   */\n      revert\n        /* \"#utility.yul\":16285:16402   */\n    tag_245:\n        /* \"#utility.yul\":16394:16395   */\n      0x00\n        /* \"#utility.yul\":16391:16392   */\n      dup1\n        /* \"#utility.yul\":16384:16396   */\n      revert\n        /* \"#utility.yul\":16408:16510   */\n    tag_280:\n        /* \"#utility.yul\":16449:16455   */\n      0x00\n        /* \"#utility.yul\":16500:16502   */\n      0x1f\n        /* \"#utility.yul\":16496:16503   */\n      not\n        /* \"#utility.yul\":16491:16493   */\n      0x1f\n        /* \"#utility.yul\":16484:16489   */\n      dup4\n        /* \"#utility.yul\":16480:16494   */\n      add\n        /* \"#utility.yul\":16476:16504   */\n      and\n        /* \"#utility.yul\":16466:16504   */\n      swap1\n      pop\n        /* \"#utility.yul\":16456:16510   */\n      swap2\n      swap1\n      pop\n      jump\t// out\n        /* \"#utility.yul\":16516:16738   */\n    tag_285:\n        /* \"#utility.yul\":16656:16690   */\n      0x45524332303a207472616e7366657220746f20746865207a65726f2061646472\n        /* \"#utility.yul\":16652:16653   */\n      0x00\n        /* \"#utility.yul\":16644:16650   */\n      dup3\n        /* \"#utility.yul\":16640:16654   */\n      add\n        /* \"#utility.yul\":16633:16691   */\n      mstore\n        /* \"#utility.yul\":16725:16730   */\n      0x6573730000000000000000000000000000000000000000000000000000000000\n        /* \"#utility.yul\":16720:16722   */\n      0x20\n        /* \"#utility.yul\":16712:16718   */\n      dup3\n        /* \"#utility.yul\":16708:16723   */\n      add\n        /* \"#utility.yul\":16701:16731   */\n      mstore\n        /* \"#utility.yul\":16622:16738   */\n      pop\n      jump\t// out\n        /* \"#utility.yul\":16744:16965   */\n    tag_290:\n        /* \"#utility.yul\":16884:16918   */\n      0x45524332303a206275726e20616d6f756e7420657863656564732062616c616e\n        /* \"#utility.yul\":16880:16881   */\n      0x00\n        /* \"#utility.yul\":16872:16878   */\n      dup3\n        /* \"#utility.yul\":16868:16882   */\n      add\n        /* \"#utility.yul\":16861:16919   */\n      mstore\n        /* \"#utility.yul\":16953:16957   */\n      0x6365000000000000000000000000000000000000000000000000000000000000\n        /* \"#utility.yul\":16948:16950   */\n      0x20\n        /* \"#utility.yul\":16940:16946   */\n      dup3\n        /* \"#utility.yul\":16936:16951   */\n      add\n        /* \"#utility.yul\":16929:16958   */\n      mstore\n        /* \"#utility.yul\":16850:16965   */\n      pop\n      jump\t// out\n        /* \"#utility.yul\":16971:17196   */\n    tag_295:\n        /* \"#utility.yul\":17111:17145   */\n      0x4f776e61626c653a206e6577206f776e657220697320746865207a65726f2061\n        /* \"#utility.yul\":17107:17108   */\n      0x00\n        /* \"#utility.yul\":17099:17105   */\n      dup3\n        /* \"#utility.yul\":17095:17109   */\n      add\n        /* \"#utility.yul\":17088:17146   */\n      mstore\n        /* \"#utility.yul\":17180:17188   */\n      0x6464726573730000000000000000000000000000000000000000000000000000\n        /* \"#utility.yul\":17175:17177   */\n      0x20\n        /* \"#utility.yul\":17167:17173   */\n      dup3\n        /* \"#utility.yul\":17163:17178   */\n      add\n        /* \"#utility.yul\":17156:17189   */\n      mstore\n        /* \"#utility.yul\":17077:17196   */\n      pop\n      jump\t// out\n        /* \"#utility.yul\":17202:17423   */\n    tag_300:\n        /* \"#utility.yul\":17342:17376   */\n      0x45524332303a20617070726f766520746f20746865207a65726f206164647265\n        /* \"#utility.yul\":17338:17339   */\n      0x00\n        /* \"#utility.yul\":17330:17336   */\n      dup3\n        /* \"#utility.yul\":17326:17340   */\n      add\n        /* \"#utility.yul\":17319:17377   */\n      mstore\n        /* \"#utility.yul\":17411:17415   */\n      0x7373000000000000000000000000000000000000000000000000000000000000\n        /* \"#utility.yul\":17406:17408   */\n      0x20\n        /* \"#utility.yul\":17398:17404   */\n      dup3\n        /* \"#utility.yul\":17394:17409   */\n      add\n        /* \"#utility.yul\":17387:17416   */\n      mstore\n        /* \"#utility.yul\":17308:17423   */\n      pop\n      jump\t// out\n        /* \"#utility.yul\":17429:17654   */\n    tag_305:\n        /* \"#utility.yul\":17569:17603   */\n      0x45524332303a207472616e7366657220616d6f756e7420657863656564732062\n        /* \"#utility.yul\":17565:17566   */\n      0x00\n        /* \"#utility.yul\":17557:17563   */\n      dup3\n        /* \"#utility.yul\":17553:17567   */\n      add\n        /* \"#utility.yul\":17546:17604   */\n      mstore\n        /* \"#utility.yul\":17638:17646   */\n      0x616c616e63650000000000000000000000000000000000000000000000000000\n        /* \"#utility.yul\":17633:17635   */\n      0x20\n        /* \"#utility.yul\":17625:17631   */\n      dup3\n        /* \"#utility.yul\":17621:17636   */\n      add\n        /* \"#utility.yul\":17614:17647   */\n      mstore\n        /* \"#utility.yul\":17535:17654   */\n      pop\n      jump\t// out\n        /* \"#utility.yul\":17660:17887   */\n    tag_310:\n        /* \"#utility.yul\":17800:17834   */\n      0x45524332303a207472616e7366657220616d6f756e7420657863656564732061\n        /* \"#utility.yul\":17796:17797   */\n      0x00\n        /* \"#utility.yul\":17788:17794   */\n      dup3\n        /* \"#utility.yul\":17784:17798   */\n      add\n        /* \"#utility.yul\":17777:17835   */\n      mstore\n        /* \"#utility.yul\":17869:17879   */\n      0x6c6c6f77616e6365000000000000000000000000000000000000000000000000\n        /* \"#utility.yul\":17864:17866   */\n      0x20\n        /* \"#utility.yul\":17856:17862   */\n      dup3\n        /* \"#utility.yul\":17852:17867   */\n      add\n        /* \"#utility.yul\":17845:17880   */\n      mstore\n        /* \"#utility.yul\":17766:17887   */\n      pop\n      jump\t// out\n        /* \"#utility.yul\":17893:18075   */\n    tag_315:\n        /* \"#utility.yul\":18033:18067   */\n      0x4f776e61626c653a2063616c6c6572206973206e6f7420746865206f776e6572\n        /* \"#utility.yul\":18029:18030   */\n      0x00\n        /* \"#utility.yul\":18021:18027   */\n      dup3\n        /* \"#utility.yul\":18017:18031   */\n      add\n        /* \"#utility.yul\":18010:18068   */\n      mstore\n        /* \"#utility.yul\":17999:18075   */\n      pop\n      jump\t// out\n        /* \"#utility.yul\":18081:18301   */\n    tag_320:\n        /* \"#utility.yul\":18221:18255   */\n      0x45524332303a206275726e2066726f6d20746865207a65726f20616464726573\n        /* \"#utility.yul\":18217:18218   */\n      0x00\n        /* \"#utility.yul\":18209:18215   */\n      dup3\n        /* \"#utility.yul\":18205:18219   */\n      add\n        /* \"#utility.yul\":18198:18256   */\n      mstore\n        /* \"#utility.yul\":18290:18293   */\n      0x7300000000000000000000000000000000000000000000000000000000000000\n        /* \"#utility.yul\":18285:18287   */\n      0x20\n        /* \"#utility.yul\":18277:18283   */\n      dup3\n        /* \"#utility.yul\":18273:18288   */\n      add\n        /* \"#utility.yul\":18266:18294   */\n      mstore\n        /* \"#utility.yul\":18187:18301   */\n      pop\n      jump\t// out\n        /* \"#utility.yul\":18307:18531   */\n    tag_325:\n        /* \"#utility.yul\":18447:18481   */\n      0x45524332303a207472616e736665722066726f6d20746865207a65726f206164\n        /* \"#utility.yul\":18443:18444   */\n      0x00\n        /* \"#utility.yul\":18435:18441   */\n      dup3\n        /* \"#utility.yul\":18431:18445   */\n      add\n        /* \"#utility.yul\":18424:18482   */\n      mstore\n        /* \"#utility.yul\":18516:18523   */\n      0x6472657373000000000000000000000000000000000000000000000000000000\n        /* \"#utility.yul\":18511:18513   */\n      0x20\n        /* \"#utility.yul\":18503:18509   */\n      dup3\n        /* \"#utility.yul\":18499:18514   */\n      add\n        /* \"#utility.yul\":18492:18524   */\n      mstore\n        /* \"#utility.yul\":18413:18531   */\n      pop\n      jump\t// out\n        /* \"#utility.yul\":18537:18760   */\n    tag_330:\n        /* \"#utility.yul\":18677:18711   */\n      0x45524332303a20617070726f76652066726f6d20746865207a65726f20616464\n        /* \"#utility.yul\":18673:18674   */\n      0x00\n        /* \"#utility.yul\":18665:18671   */\n      dup3\n        /* \"#utility.yul\":18661:18675   */\n      add\n        /* \"#utility.yul\":18654:18712   */\n      mstore\n        /* \"#utility.yul\":18746:18752   */\n      0x7265737300000000000000000000000000000000000000000000000000000000\n        /* \"#utility.yul\":18741:18743   */\n      0x20\n        /* \"#utility.yul\":18733:18739   */\n      dup3\n        /* \"#utility.yul\":18729:18744   */\n      add\n        /* \"#utility.yul\":18722:18753   */\n      mstore\n        /* \"#utility.yul\":18643:18760   */\n      pop\n      jump\t// out\n        /* \"#utility.yul\":18766:18990   */\n    tag_335:\n        /* \"#utility.yul\":18906:18940   */\n      0x45524332303a2064656372656173656420616c6c6f77616e63652062656c6f77\n        /* \"#utility.yul\":18902:18903   */\n      0x00\n        /* \"#utility.yul\":18894:18900   */\n      dup3\n        /* \"#utility.yul\":18890:18904   */\n      add\n        /* \"#utility.yul\":18883:18941   */\n      mstore\n        /* \"#utility.yul\":18975:18982   */\n      0x207a65726f000000000000000000000000000000000000000000000000000000\n        /* \"#utility.yul\":18970:18972   */\n      0x20\n        /* \"#utility.yul\":18962:18968   */\n      dup3\n        /* \"#utility.yul\":18958:18973   */\n      add\n        /* \"#utility.yul\":18951:18983   */\n      mstore\n        /* \"#utility.yul\":18872:18990   */\n      pop\n      jump\t// out\n        /* \"#utility.yul\":18996:19118   */\n    tag_237:\n        /* \"#utility.yul\":19069:19093   */\n      tag_438\n        /* \"#utility.yul\":19087:19092   */\n      dup2\n        /* \"#utility.yul\":19069:19093   */\n      tag_266\n      jump\t// in\n    tag_438:\n        /* \"#utility.yul\":19062:19067   */\n      dup2\n        /* \"#utility.yul\":19059:19094   */\n      eq\n        /* \"#utility.yul\":19049:19051   */\n      tag_439\n      jumpi\n        /* \"#utility.yul\":19108:19109   */\n      0x00\n        /* \"#utility.yul\":19105:19106   */\n      dup1\n        /* \"#utility.yul\":19098:19110   */\n      revert\n        /* \"#utility.yul\":19049:19051   */\n    tag_439:\n        /* \"#utility.yul\":19039:19118   */\n      pop\n      jump\t// out\n        /* \"#utility.yul\":19124:19246   */\n    tag_241:\n        /* \"#utility.yul\":19197:19221   */\n      tag_441\n        /* \"#utility.yul\":19215:19220   */\n      dup2\n        /* \"#utility.yul\":19197:19221   */\n      tag_339\n      jump\t// in\n    tag_441:\n        /* \"#utility.yul\":19190:19195   */\n      dup2\n        /* \"#utility.yul\":19187:19222   */\n      eq\n        /* \"#utility.yul\":19177:19179   */\n      tag_442\n      jumpi\n        /* \"#utility.yul\":19236:19237   */\n      0x00\n        /* \"#utility.yul\":19233:19234   */\n      dup1\n        /* \"#utility.yul\":19226:19238   */\n      revert\n        /* \"#utility.yul\":19177:19179   */\n    tag_442:\n        /* \"#utility.yul\":19167:19246   */\n      pop\n      jump\t// out\n\n    auxdata: 0xa264697066735822122002026ba78d6c34ab8ef0f9a3f8e7d1c99b6ed736ac2466f0b52d996b48ed915e64736f6c63430008060033\n}\n",
				"bytecode": {
					"linkReferences": {},
					"object": "60806040523480156200001157600080fd5b50604051620023b9380380620023b98339818101604052810190620000379190620004cd565b6040518060400160405280601e81526020017f5b544553545d204465666c6174696f6e617279204d656d6520546f6b656e00008152506040518060400160405280600581526020017f444d5430390000000000000000000000000000000000000000000000000000008152508160039080519060200190620000bb92919062000406565b508060049080519060200190620000d492919062000406565b505050620000f7620000eb620001c060201b60201c565b620001c860201b60201c565b81600760006101000a81548173ffffffffffffffffffffffffffffffffffffffff021916908373ffffffffffffffffffffffffffffffffffffffff16021790555080600660006101000a81548173ffffffffffffffffffffffffffffffffffffffff021916908373ffffffffffffffffffffffffffffffffffffffff160217905550620001b8600760009054906101000a900473ffffffffffffffffffffffffffffffffffffffff166a52b7d2dcc80cd2e40000006200028e60201b60201c565b505062000713565b600033905090565b6000600560009054906101000a900473ffffffffffffffffffffffffffffffffffffffff16905081600560006101000a81548173ffffffffffffffffffffffffffffffffffffffff021916908373ffffffffffffffffffffffffffffffffffffffff1602179055508173ffffffffffffffffffffffffffffffffffffffff168173ffffffffffffffffffffffffffffffffffffffff167f8be0079c531659141344cd1fd0a4f28419497f9722a3daafe3b4186f6b6457e060405160405180910390a35050565b600073ffffffffffffffffffffffffffffffffffffffff168273ffffffffffffffffffffffffffffffffffffffff16141562000301576040517f08c379a0000000000000000000000000000000000000000000000000000000008152600401620002f8906200054c565b60405180910390fd5b6200031560008383620003fc60201b60201c565b80600260008282546200032991906200059c565b92505081905550806000808473ffffffffffffffffffffffffffffffffffffffff1673ffffffffffffffffffffffffffffffffffffffff168152602001908152602001600020600082825401925050819055508173ffffffffffffffffffffffffffffffffffffffff16600073ffffffffffffffffffffffffffffffffffffffff167fddf252ad1be2c89b69c2b068fc378daa952ba7f163c4a11628f55a4df523b3ef83604051620003dc91906200056e565b60405180910390a3620003f8600083836200040160201b60201c565b5050565b505050565b505050565b828054620004149062000637565b90600052602060002090601f01602090048101928262000438576000855562000484565b82601f106200045357805160ff191683800117855562000484565b8280016001018555821562000484579182015b828111156200048357825182559160200191906001019062000466565b5b50905062000493919062000497565b5090565b5b80821115620004b257600081600090555060010162000498565b5090565b600081519050620004c781620006f9565b92915050565b60008060408385031215620004e757620004e6620006cb565b5b6000620004f785828601620004b6565b92505060206200050a85828601620004b6565b9150509250929050565b600062000523601f836200058b565b91506200053082620006d0565b602082019050919050565b62000546816200062d565b82525050565b60006020820190508181036000830152620005678162000514565b9050919050565b60006020820190506200058560008301846200053b565b92915050565b600082825260208201905092915050565b6000620005a9826200062d565b9150620005b6836200062d565b9250827fffffffffffffffffffffffffffffffffffffffffffffffffffffffffffffffff03821115620005ee57620005ed6200066d565b5b828201905092915050565b600062000606826200060d565b9050919050565b600073ffffffffffffffffffffffffffffffffffffffff82169050919050565b6000819050919050565b600060028204905060018216806200065057607f821691505b602082108114156200066757620006666200069c565b5b50919050565b7f4e487b7100000000000000000000000000000000000000000000000000000000600052601160045260246000fd5b7f4e487b7100000000000000000000000000000000000000000000000000000000600052602260045260246000fd5b600080fd5b7f45524332303a206d696e7420746f20746865207a65726f206164647265737300600082015250565b6200070481620005f9565b81146200071057600080fd5b50565b611c9680620007236000396000f3fe608060405234801561001057600080fd5b50600436106101425760003560e01c8063715018a6116100b8578063a457c2d71161007c578063a457c2d71461035b578063a9059cbb1461038b578063d4698016146103bb578063dd62ed3e146103d9578063f2fde38b14610409578063f846a8851461042557610142565b8063715018a6146102d95780638ce1a483146102e35780638da5cb5b14610301578063902d55a51461031f57806395d89b411461033d57610142565b8063313ce5671161010a578063313ce56714610201578063395093511461021f5780634626402b1461024f57806353ab431b1461026d57806358fa63ca1461028b57806370a08231146102a957610142565b806303fd2a451461014757806306fdde0314610165578063095ea7b31461018357806318160ddd146101b357806323b872dd146101d1575b600080fd5b61014f610443565b60405161015c9190611477565b60405180910390f35b61016d610449565b60405161017a91906114ad565b60405180910390f35b61019d60048036038101906101989190611241565b6104db565b6040516101aa9190611492565b60405180910390f35b6101bb6104fe565b6040516101c8919061162f565b60405180910390f35b6101eb60048036038101906101e691906111ee565b610508565b6040516101f89190611492565b60405180910390f35b610209610593565b604051610216919061164a565b60405180910390f35b61023960048036038101906102349190611241565b61059c565b6040516102469190611492565b60405180910390f35b6102576105d3565b6040516102649190611477565b60405180910390f35b6102756105f9565b604051610282919061162f565b60405180910390f35b6102936105fe565b6040516102a09190611477565b60405180910390f35b6102c360048036038101906102be9190611181565b610603565b6040516102d0919061162f565b60405180910390f35b6102e161064b565b005b6102eb61065f565b6040516102f8919061162f565b60405180910390f35b610309610664565b6040516103169190611477565b60405180910390f35b61032761068e565b604051610334919061162f565b60405180910390f35b61034561069d565b60405161035291906114ad565b60405180910390f35b61037560048036038101906103709190611241565b61072f565b6040516103829190611492565b60405180910390f35b6103a560048036038101906103a09190611241565b6107a6565b6040516103b29190611492565b60405180910390f35b6103c36107bb565b6040516103d09190611477565b60405180910390f35b6103f360048036038101906103ee91906111ae565b6107e1565b604051610400919061162f565b60405180910390f35b610423600480360381019061041e9190611181565b610868565b005b61042d6108ec565b60405161043a919061162f565b60405180910390f35b61dead81565b6060600380546104589061181e565b80601f01602080910402602001604051908101604052809291908181526020018280546104849061181e565b80156104d15780601f106104a6576101008083540402835291602001916104d1565b820191906000526020600020905b8154815290600101906020018083116104b457829003601f168201915b5050505050905090565b6000806104e66108f1565b90506104f38185856108f9565b600191505092915050565b6000600254905090565b60008061051c856105176108f1565b6107e1565b905082811015610561576040517f08c379a00000000000000000000000000000000000000000000000000000000081526004016105589061156f565b60405180910390fd5b61057e8561056d6108f1565b85846105799190611762565b6108f9565b610589858585610ac4565b9150509392505050565b60006012905090565b6000806105a76108f1565b90506105c88185856105b985896107e1565b6105c39190611681565b6108f9565b600191505092915050565b600660009054906101000a900473ffffffffffffffffffffffffffffffffffffffff1681565b601981565b600081565b60008060008373ffffffffffffffffffffffffffffffffffffffff1673ffffffffffffffffffffffffffffffffffffffff168152602001908152602001600020549050919050565b610653610bc3565b61065d6000610c41565b565b603281565b6000600560009054906101000a900473ffffffffffffffffffffffffffffffffffffffff16905090565b6a52b7d2dcc80cd2e400000081565b6060600480546106ac9061181e565b80601f01602080910402602001604051908101604052809291908181526020018280546106d89061181e565b80156107255780601f106106fa57610100808354040283529160200191610725565b820191906000526020600020905b81548152906001019060200180831161070857829003601f168201915b5050505050905090565b60008061073a6108f1565b9050600061074882866107e1565b90508381101561078d576040517f08c379a00000000000000000000000000000000000000000000000000000000081526004016107849061160f565b60405180910390fd5b61079a82868684036108f9565b60019250505092915050565b60006107b3338484610ac4565b905092915050565b600760009054906101000a900473ffffffffffffffffffffffffffffffffffffffff1681565b6000600160008473ffffffffffffffffffffffffffffffffffffffff1673ffffffffffffffffffffffffffffffffffffffff16815260200190815260200160002060008373ffffffffffffffffffffffffffffffffffffffff1673ffffffffffffffffffffffffffffffffffffffff16815260200190815260200160002054905092915050565b610870610bc3565b600073ffffffffffffffffffffffffffffffffffffffff168173ffffffffffffffffffffffffffffffffffffffff1614156108e0576040517f08c379a00000000000000000000000000000000000000000000000000000000081526004016108d79061150f565b60405180910390fd5b6108e981610c41565b50565b602381565b600033905090565b600073ffffffffffffffffffffffffffffffffffffffff168373ffffffffffffffffffffffffffffffffffffffff161415610969576040517f08c379a0000000000000000000000000000000000000000000000000000000008152600401610960906115ef565b60405180910390fd5b600073ffffffffffffffffffffffffffffffffffffffff168273ffffffffffffffffffffffffffffffffffffffff1614156109d9576040517f08c379a00000000000000000000000000000000000000000000000000000000081526004016109d09061152f565b60405180910390fd5b80600160008573ffffffffffffffffffffffffffffffffffffffff1673ffffffffffffffffffffffffffffffffffffffff16815260200190815260200160002060008473ffffffffffffffffffffffffffffffffffffffff1673ffffffffffffffffffffffffffffffffffffffff168152602001908152602001600020819055508173ffffffffffffffffffffffffffffffffffffffff168373ffffffffffffffffffffffffffffffffffffffff167f8c5be1e5ebec7d5bd14f71427d1e84f3dd0314c0f7b2291e5b200ac8c7c3b92583604051610ab7919061162f565b60405180910390a3505050565b600080612710602384610ad79190611708565b610ae191906116d7565b90506000612710603285610af59190611708565b610aff91906116d7565b90506000612710601986610b139190611708565b610b1d91906116d7565b9050600081838588610b2f9190611762565b610b399190611762565b610b439190611762565b9050610b4f8885610d07565b610b7c88600660009054906101000a900473ffffffffffffffffffffffffffffffffffffffff1685610ed5565b610ba988600760009054906101000a900473ffffffffffffffffffffffffffffffffffffffff1684610ed5565b610bb4888883610ed5565b60019450505050509392505050565b610bcb6108f1565b73ffffffffffffffffffffffffffffffffffffffff16610be9610664565b73ffffffffffffffffffffffffffffffffffffffff1614610c3f576040517f08c379a0000000000000000000000000000000000000000000000000000000008152600401610c369061158f565b60405180910390fd5b565b6000600560009054906101000a900473ffffffffffffffffffffffffffffffffffffffff16905081600560006101000a81548173ffffffffffffffffffffffffffffffffffffffff021916908373ffffffffffffffffffffffffffffffffffffffff1602179055508173ffffffffffffffffffffffffffffffffffffffff168173ffffffffffffffffffffffffffffffffffffffff167f8be0079c531659141344cd1fd0a4f28419497f9722a3daafe3b4186f6b6457e060405160405180910390a35050565b600073ffffffffffffffffffffffffffffffffffffffff168273ffffffffffffffffffffffffffffffffffffffff161415610d77576040517f08c379a0000000000000000000000000000000000000000000000000000000008152600401610d6e906115af565b60405180910390fd5b610d838260008361114d565b60008060008473ffffffffffffffffffffffffffffffffffffffff1673ffffffffffffffffffffffffffffffffffffffff16815260200190815260200160002054905081811015610e09576040517f08c379a0000000000000000000000000000000000000000000000000000000008152600401610e00906114ef565b60405180910390fd5b8181036000808573ffffffffffffffffffffffffffffffffffffffff1673ffffffffffffffffffffffffffffffffffffffff1681526020019081526020016000208190555081600260008282540392505081905550600073ffffffffffffffffffffffffffffffffffffffff168373ffffffffffffffffffffffffffffffffffffffff167fddf252ad1be2c89b69c2b068fc378daa952ba7f163c4a11628f55a4df523b3ef84604051610ebc919061162f565b60405180910390a3610ed083600084611152565b505050565b600073ffffffffffffffffffffffffffffffffffffffff168373ffffffffffffffffffffffffffffffffffffffff161415610f45576040517f08c379a0000000000000000000000000000000000000000000000000000000008152600401610f3c906115cf565b60405180910390fd5b600073ffffffffffffffffffffffffffffffffffffffff168273ffffffffffffffffffffffffffffffffffffffff161415610fb5576040517f08c379a0000000000000000000000000000000000000000000000000000000008152600401610fac906114cf565b60405180910390fd5b610fc083838361114d565b60008060008573ffffffffffffffffffffffffffffffffffffffff1673ffffffffffffffffffffffffffffffffffffffff16815260200190815260200160002054905081811015611046576040517f08c379a000000000000000000000000000000000000000000000000000000000815260040161103d9061154f565b60405180910390fd5b8181036000808673ffffffffffffffffffffffffffffffffffffffff1673ffffffffffffffffffffffffffffffffffffffff16815260200190815260200160002081905550816000808573ffffffffffffffffffffffffffffffffffffffff1673ffffffffffffffffffffffffffffffffffffffff168152602001908152602001600020600082825401925050819055508273ffffffffffffffffffffffffffffffffffffffff168473ffffffffffffffffffffffffffffffffffffffff167fddf252ad1be2c89b69c2b068fc378daa952ba7f163c4a11628f55a4df523b3ef84604051611134919061162f565b60405180910390a3611147848484611152565b50505050565b505050565b505050565b60008135905061116681611c32565b92915050565b60008135905061117b81611c49565b92915050565b600060208284031215611197576111966118dd565b5b60006111a584828501611157565b91505092915050565b600080604083850312156111c5576111c46118dd565b5b60006111d385828601611157565b92505060206111e485828601611157565b9150509250929050565b600080600060608486031215611207576112066118dd565b5b600061121586828701611157565b935050602061122686828701611157565b92505060406112378682870161116c565b9150509250925092565b60008060408385031215611258576112576118dd565b5b600061126685828601611157565b92505060206112778582860161116c565b9150509250929050565b61128a81611796565b82525050565b611299816117a8565b82525050565b60006112aa82611665565b6112b48185611670565b93506112c48185602086016117eb565b6112cd816118e2565b840191505092915050565b60006112e5602383611670565b91506112f0826118f3565b604082019050919050565b6000611308602283611670565b915061131382611942565b604082019050919050565b600061132b602683611670565b915061133682611991565b604082019050919050565b600061134e602283611670565b9150611359826119e0565b604082019050919050565b6000611371602683611670565b915061137c82611a2f565b604082019050919050565b6000611394602883611670565b915061139f82611a7e565b604082019050919050565b60006113b7602083611670565b91506113c282611acd565b602082019050919050565b60006113da602183611670565b91506113e582611af6565b604082019050919050565b60006113fd602583611670565b915061140882611b45565b604082019050919050565b6000611420602483611670565b915061142b82611b94565b604082019050919050565b6000611443602583611670565b915061144e82611be3565b604082019050919050565b611462816117d4565b82525050565b611471816117de565b82525050565b600060208201905061148c6000830184611281565b92915050565b60006020820190506114a76000830184611290565b92915050565b600060208201905081810360008301526114c7818461129f565b905092915050565b600060208201905081810360008301526114e8816112d8565b9050919050565b60006020820190508181036000830152611508816112fb565b9050919050565b600060208201905081810360008301526115288161131e565b9050919050565b6000602082019050818103600083015261154881611341565b9050919050565b6000602082019050818103600083015261156881611364565b9050919050565b6000602082019050818103600083015261158881611387565b9050919050565b600060208201905081810360008301526115a8816113aa565b9050919050565b600060208201905081810360008301526115c8816113cd565b9050919050565b600060208201905081810360008301526115e8816113f0565b9050919050565b6000602082019050818103600083015261160881611413565b9050919050565b6000602082019050818103600083015261162881611436565b9050919050565b60006020820190506116446000830184611459565b92915050565b600060208201905061165f6000830184611468565b92915050565b600081519050919050565b600082825260208201905092915050565b600061168c826117d4565b9150611697836117d4565b9250827fffffffffffffffffffffffffffffffffffffffffffffffffffffffffffffffff038211156116cc576116cb611850565b5b828201905092915050565b60006116e2826117d4565b91506116ed836117d4565b9250826116fd576116fc61187f565b5b828204905092915050565b6000611713826117d4565b915061171e836117d4565b9250817fffffffffffffffffffffffffffffffffffffffffffffffffffffffffffffffff048311821515161561175757611756611850565b5b828202905092915050565b600061176d826117d4565b9150611778836117d4565b92508282101561178b5761178a611850565b5b828203905092915050565b60006117a1826117b4565b9050919050565b60008115159050919050565b600073ffffffffffffffffffffffffffffffffffffffff82169050919050565b6000819050919050565b600060ff82169050919050565b60005b838110156118095780820151818401526020810190506117ee565b83811115611818576000848401525b50505050565b6000600282049050600182168061183657607f821691505b6020821081141561184a576118496118ae565b5b50919050565b7f4e487b7100000000000000000000000000000000000000000000000000000000600052601160045260246000fd5b7f4e487b7100000000000000000000000000000000000000000000000000000000600052601260045260246000fd5b7f4e487b7100000000000000000000000000000000000000000000000000000000600052602260045260246000fd5b600080fd5b6000601f19601f8301169050919050565b7f45524332303a207472616e7366657220746f20746865207a65726f206164647260008201527f6573730000000000000000000000000000000000000000000000000000000000602082015250565b7f45524332303a206275726e20616d6f756e7420657863656564732062616c616e60008201527f6365000000000000000000000000000000000000000000000000000000000000602082015250565b7f4f776e61626c653a206e6577206f776e657220697320746865207a65726f206160008201527f6464726573730000000000000000000000000000000000000000000000000000602082015250565b7f45524332303a20617070726f766520746f20746865207a65726f20616464726560008201527f7373000000000000000000000000000000000000000000000000000000000000602082015250565b7f45524332303a207472616e7366657220616d6f756e742065786365656473206260008201527f616c616e63650000000000000000000000000000000000000000000000000000602082015250565b7f45524332303a207472616e7366657220616d6f756e742065786365656473206160008201527f6c6c6f77616e6365000000000000000000000000000000000000000000000000602082015250565b7f4f776e61626c653a2063616c6c6572206973206e6f7420746865206f776e6572600082015250565b7f45524332303a206275726e2066726f6d20746865207a65726f2061646472657360008201527f7300000000000000000000000000000000000000000000000000000000000000602082015250565b7f45524332303a207472616e736665722066726f6d20746865207a65726f20616460008201527f6472657373000000000000000000000000000000000000000000000000000000602082015250565b7f45524332303a20617070726f76652066726f6d20746865207a65726f2061646460008201527f7265737300000000000000000000000000000000000000000000000000000000602082015250565b7f45524332303a2064656372656173656420616c6c6f77616e63652062656c6f7760008201527f207a65726f000000000000000000000000000000000000000000000000000000602082015250565b611c3b81611796565b8114611c4657600080fd5b50565b611c52816117d4565b8114611c5d57600080fd5b5056fea264697066735822122002026ba78d6c34ab8ef0f9a3f8e7d1c99b6ed736ac2466f0b52d996b48ed915e64736f6c63430008060033",
					"opcodes": "PUSH1 0x80 PUSH1 0x40 MSTORE CALLVALUE DUP1 ISZERO PUSH3 0x11 JUMPI PUSH1 0x0 DUP1 REVERT JUMPDEST POP PUSH1 0x40 MLOAD PUSH3 0x23B9 CODESIZE SUB DUP1 PUSH3 0x23B9 DUP4 CODECOPY DUP2 DUP2 ADD PUSH1 0x40 MSTORE DUP2 ADD SWAP1 PUSH3 0x37 SWAP2 SWAP1 PUSH3 0x4CD JUMP JUMPDEST PUSH1 0x40 MLOAD DUP1 PUSH1 0x40 ADD PUSH1 0x40 MSTORE DUP1 PUSH1 0x1E DUP2 MSTORE PUSH1 0x20 ADD PUSH32 0x5B544553545D204465666C6174696F6E617279204D656D6520546F6B656E0000 DUP2 MSTORE POP PUSH1 0x40 MLOAD DUP1 PUSH1 0x40 ADD PUSH1 0x40 MSTORE DUP1 PUSH1 0x5 DUP2 MSTORE PUSH1 0x20 ADD PUSH32 0x444D543039000000000000000000000000000000000000000000000000000000 DUP2 MSTORE POP DUP2 PUSH1 0x3 SWAP1 DUP1 MLOAD SWAP1 PUSH1 0x20 ADD SWAP1 PUSH3 0xBB SWAP3 SWAP2 SWAP1 PUSH3 0x406 JUMP JUMPDEST POP DUP1 PUSH1 0x4 SWAP1 DUP1 MLOAD SWAP1 PUSH1 0x20 ADD SWAP1 PUSH3 0xD4 SWAP3 SWAP2 SWAP1 PUSH3 0x406 JUMP JUMPDEST POP POP POP PUSH3 0xF7 PUSH3 0xEB PUSH3 0x1C0 PUSH1 0x20 SHL PUSH1 0x20 SHR JUMP JUMPDEST PUSH3 0x1C8 PUSH1 0x20 SHL PUSH1 0x20 SHR JUMP JUMPDEST DUP2 PUSH1 0x7 PUSH1 0x0 PUSH2 0x100 EXP DUP2 SLOAD DUP2 PUSH20 0xFFFFFFFFFFFFFFFFFFFFFFFFFFFFFFFFFFFFFFFF MUL NOT AND SWAP1 DUP4 PUSH20 0xFFFFFFFFFFFFFFFFFFFFFFFFFFFFFFFFFFFFFFFF AND MUL OR SWAP1 SSTORE POP DUP1 PUSH1 0x6 PUSH1 0x0 PUSH2 0x100 EXP DUP2 SLOAD DUP2 PUSH20 0xFFFFFFFFFFFFFFFFFFFFFFFFFFFFFFFFFFFFFFFF MUL NOT AND SWAP1 DUP4 PUSH20 0xFFFFFFFFFFFFFFFFFFFFFFFFFFFFFFFFFFFFFFFF AND MUL OR SWAP1 SSTORE POP PUSH3 0x1B8 PUSH1 0x7 PUSH1 0x0 SWAP1 SLOAD SWAP1 PUSH2 0x100 EXP SWAP1 DIV PUSH20 0xFFFFFFFFFFFFFFFFFFFFFFFFFFFFFFFFFFFFFFFF AND PUSH11 0x52B7D2DCC80CD2E4000000 PUSH3 0x28E PUSH1 0x20 SHL PUSH1 0x20 SHR JUMP JUMPDEST POP POP PUSH3 0x713 JUMP JUMPDEST PUSH1 0x0 CALLER SWAP1 POP SWAP1 JUMP JUMPDEST PUSH1 0x0 PUSH1 0x5 PUSH1 0x0 SWAP1 SLOAD SWAP1 PUSH2 0x100 EXP SWAP1 DIV PUSH20 0xFFFFFFFFFFFFFFFFFFFFFFFFFFFFFFFFFFFFFFFF AND SWAP1 POP DUP2 PUSH1 0x5 PUSH1 0x0 PUSH2 0x100 EXP DUP2 SLOAD DUP2 PUSH20 0xFFFFFFFFFFFFFFFFFFFFFFFFFFFFFFFFFFFFFFFF MUL NOT AND SWAP1 DUP4 PUSH20 0xFFFFFFFFFFFFFFFFFFFFFFFFFFFFFFFFFFFFFFFF AND MUL OR SWAP1 SSTORE POP DUP2 PUSH20 0xFFFFFFFFFFFFFFFFFFFFFFFFFFFFFFFFFFFFFFFF AND DUP2 PUSH20 0xFFFFFFFFFFFFFFFFFFFFFFFFFFFFFFFFFFFFFFFF AND PUSH32 0x8BE0079C531659141344CD1FD0A4F28419497F9722A3DAAFE3B4186F6B6457E0 PUSH1 0x40 MLOAD PUSH1 0x40 MLOAD DUP1 SWAP2 SUB SWAP1 LOG3 POP POP JUMP JUMPDEST PUSH1 0x0 PUSH20 0xFFFFFFFFFFFFFFFFFFFFFFFFFFFFFFFFFFFFFFFF AND DUP3 PUSH20 0xFFFFFFFFFFFFFFFFFFFFFFFFFFFFFFFFFFFFFFFF AND EQ ISZERO PUSH3 0x301 JUMPI PUSH1 0x40 MLOAD PUSH32 0x8C379A000000000000000000000000000000000000000000000000000000000 DUP2 MSTORE PUSH1 0x4 ADD PUSH3 0x2F8 SWAP1 PUSH3 0x54C JUMP JUMPDEST PUSH1 0x40 MLOAD DUP1 SWAP2 SUB SWAP1 REVERT JUMPDEST PUSH3 0x315 PUSH1 0x0 DUP4 DUP4 PUSH3 0x3FC PUSH1 0x20 SHL PUSH1 0x20 SHR JUMP JUMPDEST DUP1 PUSH1 0x2 PUSH1 0x0 DUP3 DUP3 SLOAD PUSH3 0x329 SWAP2 SWAP1 PUSH3 0x59C JUMP JUMPDEST SWAP3 POP POP DUP2 SWAP1 SSTORE POP DUP1 PUSH1 0x0 DUP1 DUP5 PUSH20 0xFFFFFFFFFFFFFFFFFFFFFFFFFFFFFFFFFFFFFFFF AND PUSH20 0xFFFFFFFFFFFFFFFFFFFFFFFFFFFFFFFFFFFFFFFF AND DUP2 MSTORE PUSH1 0x20 ADD SWAP1 DUP2 MSTORE PUSH1 0x20 ADD PUSH1 0x0 KECCAK256 PUSH1 0x0 DUP3 DUP3 SLOAD ADD SWAP3 POP POP DUP2 SWAP1 SSTORE POP DUP2 PUSH20 0xFFFFFFFFFFFFFFFFFFFFFFFFFFFFFFFFFFFFFFFF AND PUSH1 0x0 PUSH20 0xFFFFFFFFFFFFFFFFFFFFFFFFFFFFFFFFFFFFFFFF AND PUSH32 0xDDF252AD1BE2C89B69C2B068FC378DAA952BA7F163C4A11628F55A4DF523B3EF DUP4 PUSH1 0x40 MLOAD PUSH3 0x3DC SWAP2 SWAP1 PUSH3 0x56E JUMP JUMPDEST PUSH1 0x40 MLOAD DUP1 SWAP2 SUB SWAP1 LOG3 PUSH3 0x3F8 PUSH1 0x0 DUP4 DUP4 PUSH3 0x401 PUSH1 0x20 SHL PUSH1 0x20 SHR JUMP JUMPDEST POP POP JUMP JUMPDEST POP POP POP JUMP JUMPDEST POP POP POP JUMP JUMPDEST DUP3 DUP1 SLOAD PUSH3 0x414 SWAP1 PUSH3 0x637 JUMP JUMPDEST SWAP1 PUSH1 0x0 MSTORE PUSH1 0x20 PUSH1 0x0 KECCAK256 SWAP1 PUSH1 0x1F ADD PUSH1 0x20 SWAP1 DIV DUP2 ADD SWAP3 DUP3 PUSH3 0x438 JUMPI PUSH1 0x0 DUP6 SSTORE PUSH3 0x484 JUMP JUMPDEST DUP3 PUSH1 0x1F LT PUSH3 0x453 JUMPI DUP1 MLOAD PUSH1 0xFF NOT AND DUP4 DUP1 ADD OR DUP6 SSTORE PUSH3 0x484 JUMP JUMPDEST DUP3 DUP1 ADD PUSH1 0x1 ADD DUP6 SSTORE DUP3 ISZERO PUSH3 0x484 JUMPI SWAP2 DUP3 ADD JUMPDEST DUP3 DUP2 GT ISZERO PUSH3 0x483 JUMPI DUP3 MLOAD DUP3 SSTORE SWAP2 PUSH1 0x20 ADD SWAP2 SWAP1 PUSH1 0x1 ADD SWAP1 PUSH3 0x466 JUMP JUMPDEST JUMPDEST POP SWAP1 POP PUSH3 0x493 SWAP2 SWAP1 PUSH3 0x497 JUMP JUMPDEST POP SWAP1 JUMP JUMPDEST JUMPDEST DUP1 DUP3 GT ISZERO PUSH3 0x4B2 JUMPI PUSH1 0x0 DUP2 PUSH1 0x0 SWAP1 SSTORE POP PUSH1 0x1 ADD PUSH3 0x498 JUMP JUMPDEST POP SWAP1 JUMP JUMPDEST PUSH1 0x0 DUP2 MLOAD SWAP1 POP PUSH3 0x4C7 DUP2 PUSH3 0x6F9 JUMP JUMPDEST SWAP3 SWAP2 POP POP JUMP JUMPDEST PUSH1 0x0 DUP1 PUSH1 0x40 DUP4 DUP6 SUB SLT ISZERO PUSH3 0x4E7 JUMPI PUSH3 0x4E6 PUSH3 0x6CB JUMP JUMPDEST JUMPDEST PUSH1 0x0 PUSH3 0x4F7 DUP6 DUP3 DUP7 ADD PUSH3 0x4B6 JUMP JUMPDEST SWAP3 POP POP PUSH1 0x20 PUSH3 0x50A DUP6 DUP3 DUP7 ADD PUSH3 0x4B6 JUMP JUMPDEST SWAP2 POP POP SWAP3 POP SWAP3 SWAP1 POP JUMP JUMPDEST PUSH1 0x0 PUSH3 0x523 PUSH1 0x1F DUP4 PUSH3 0x58B JUMP JUMPDEST SWAP2 POP PUSH3 0x530 DUP3 PUSH3 0x6D0 JUMP JUMPDEST PUSH1 0x20 DUP3 ADD SWAP1 POP SWAP2 SWAP1 POP JUMP JUMPDEST PUSH3 0x546 DUP2 PUSH3 0x62D JUMP JUMPDEST DUP3 MSTORE POP POP JUMP JUMPDEST PUSH1 0x0 PUSH1 0x20 DUP3 ADD SWAP1 POP DUP2 DUP2 SUB PUSH1 0x0 DUP4 ADD MSTORE PUSH3 0x567 DUP2 PUSH3 0x514 JUMP JUMPDEST SWAP1 POP SWAP2 SWAP1 POP JUMP JUMPDEST PUSH1 0x0 PUSH1 0x20 DUP3 ADD SWAP1 POP PUSH3 0x585 PUSH1 0x0 DUP4 ADD DUP5 PUSH3 0x53B JUMP JUMPDEST SWAP3 SWAP2 POP POP JUMP JUMPDEST PUSH1 0x0 DUP3 DUP3 MSTORE PUSH1 0x20 DUP3 ADD SWAP1 POP SWAP3 SWAP2 POP POP JUMP JUMPDEST PUSH1 0x0 PUSH3 0x5A9 DUP3 PUSH3 0x62D JUMP JUMPDEST SWAP2 POP PUSH3 0x5B6 DUP4 PUSH3 0x62D JUMP JUMPDEST SWAP3 POP DUP3 PUSH32 0xFFFFFFFFFFFFFFFFFFFFFFFFFFFFFFFFFFFFFFFFFFFFFFFFFFFFFFFFFFFFFFFF SUB DUP3 GT ISZERO PUSH3 0x5EE JUMPI PUSH3 0x5ED PUSH3 0x66D JUMP JUMPDEST JUMPDEST DUP3 DUP3 ADD SWAP1 POP SWAP3 SWAP2 POP POP JUMP JUMPDEST PUSH1 0x0 PUSH3 0x606 DUP3 PUSH3 0x60D JUMP JUMPDEST SWAP1 POP SWAP2 SWAP1 POP JUMP JUMPDEST PUSH1 0x0 PUSH20 0xFFFFFFFFFFFFFFFFFFFFFFFFFFFFFFFFFFFFFFFF DUP3 AND SWAP1 POP SWAP2 SWAP1 POP JUMP JUMPDEST PUSH1 0x0 DUP2 SWAP1 POP SWAP2 SWAP1 POP JUMP JUMPDEST PUSH1 0x0 PUSH1 0x2 DUP3 DIV SWAP1 POP PUSH1 0x1 DUP3 AND DUP1 PUSH3 0x650 JUMPI PUSH1 0x7F DUP3 AND SWAP2 POP JUMPDEST PUSH1 0x20 DUP3 LT DUP2 EQ ISZERO PUSH3 0x667 JUMPI PUSH3 0x666 PUSH3 0x69C JUMP JUMPDEST JUMPDEST POP SWAP2 SWAP1 POP JUMP JUMPDEST PUSH32 0x4E487B7100000000000000000000000000000000000000000000000000000000 PUSH1 0x0 MSTORE PUSH1 0x11 PUSH1 0x4 MSTORE PUSH1 0x24 PUSH1 0x0 REVERT JUMPDEST PUSH32 0x4E487B7100000000000000000000000000000000000000000000000000000000 PUSH1 0x0 MSTORE PUSH1 0x22 PUSH1 0x4 MSTORE PUSH1 0x24 PUSH1 0x0 REVERT JUMPDEST PUSH1 0x0 DUP1 REVERT JUMPDEST PUSH32 0x45524332303A206D696E7420746F20746865207A65726F206164647265737300 PUSH1 0x0 DUP3 ADD MSTORE POP JUMP JUMPDEST PUSH3 0x704 DUP2 PUSH3 0x5F9 JUMP JUMPDEST DUP2 EQ PUSH3 0x710 JUMPI PUSH1 0x0 DUP1 REVERT JUMPDEST POP JUMP JUMPDEST PUSH2 0x1C96 DUP1 PUSH3 0x723 PUSH1 0x0 CODECOPY PUSH1 0x0 RETURN INVALID PUSH1 0x80 PUSH1 0x40 MSTORE CALLVALUE DUP1 ISZERO PUSH2 0x10 JUMPI PUSH1 0x0 DUP1 REVERT JUMPDEST POP PUSH1 0x4 CALLDATASIZE LT PUSH2 0x142 JUMPI PUSH1 0x0 CALLDATALOAD PUSH1 0xE0 SHR DUP1 PUSH4 0x715018A6 GT PUSH2 0xB8 JUMPI DUP1 PUSH4 0xA457C2D7 GT PUSH2 0x7C JUMPI DUP1 PUSH4 0xA457C2D7 EQ PUSH2 0x35B JUMPI DUP1 PUSH4 0xA9059CBB EQ PUSH2 0x38B JUMPI DUP1 PUSH4 0xD4698016 EQ PUSH2 0x3BB JUMPI DUP1 PUSH4 0xDD62ED3E EQ PUSH2 0x3D9 JUMPI DUP1 PUSH4 0xF2FDE38B EQ PUSH2 0x409 JUMPI DUP1 PUSH4 0xF846A885 EQ PUSH2 0x425 JUMPI PUSH2 0x142 JUMP JUMPDEST DUP1 PUSH4 0x715018A6 EQ PUSH2 0x2D9 JUMPI DUP1 PUSH4 0x8CE1A483 EQ PUSH2 0x2E3 JUMPI DUP1 PUSH4 0x8DA5CB5B EQ PUSH2 0x301 JUMPI DUP1 PUSH4 0x902D55A5 EQ PUSH2 0x31F JUMPI DUP1 PUSH4 0x95D89B41 EQ PUSH2 0x33D JUMPI PUSH2 0x142 JUMP JUMPDEST DUP1 PUSH4 0x313CE567 GT PUSH2 0x10A JUMPI DUP1 PUSH4 0x313CE567 EQ PUSH2 0x201 JUMPI DUP1 PUSH4 0x39509351 EQ PUSH2 0x21F JUMPI DUP1 PUSH4 0x4626402B EQ PUSH2 0x24F JUMPI DUP1 PUSH4 0x53AB431B EQ PUSH2 0x26D JUMPI DUP1 PUSH4 0x58FA63CA EQ PUSH2 0x28B JUMPI DUP1 PUSH4 0x70A08231 EQ PUSH2 0x2A9 JUMPI PUSH2 0x142 JUMP JUMPDEST DUP1 PUSH4 0x3FD2A45 EQ PUSH2 0x147 JUMPI DUP1 PUSH4 0x6FDDE03 EQ PUSH2 0x165 JUMPI DUP1 PUSH4 0x95EA7B3 EQ PUSH2 0x183 JUMPI DUP1 PUSH4 0x18160DDD EQ PUSH2 0x1B3 JUMPI DUP1 PUSH4 0x23B872DD EQ PUSH2 0x1D1 JUMPI JUMPDEST PUSH1 0x0 DUP1 REVERT JUMPDEST PUSH2 0x14F PUSH2 0x443 JUMP JUMPDEST PUSH1 0x40 MLOAD PUSH2 0x15C SWAP2 SWAP1 PUSH2 0x1477 JUMP JUMPDEST PUSH1 0x40 MLOAD DUP1 SWAP2 SUB SWAP1 RETURN JUMPDEST PUSH2 0x16D PUSH2 0x449 JUMP JUMPDEST PUSH1 0x40 MLOAD PUSH2 0x17A SWAP2 SWAP1 PUSH2 0x14AD JUMP JUMPDEST PUSH1 0x40 MLOAD DUP1 SWAP2 SUB SWAP1 RETURN JUMPDEST PUSH2 0x19D PUSH1 0x4 DUP1 CALLDATASIZE SUB DUP2 ADD SWAP1 PUSH2 0x198 SWAP2 SWAP1 PUSH2 0x1241 JUMP JUMPDEST PUSH2 0x4DB JUMP JUMPDEST PUSH1 0x40 MLOAD PUSH2 0x1AA SWAP2 SWAP1 PUSH2 0x1492 JUMP JUMPDEST PUSH1 0x40 MLOAD DUP1 SWAP2 SUB SWAP1 RETURN JUMPDEST PUSH2 0x1BB PUSH2 0x4FE JUMP JUMPDEST PUSH1 0x40 MLOAD PUSH2 0x1C8 SWAP2 SWAP1 PUSH2 0x162F JUMP JUMPDEST PUSH1 0x40 MLOAD DUP1 SWAP2 SUB SWAP1 RETURN JUMPDEST PUSH2 0x1EB PUSH1 0x4 DUP1 CALLDATASIZE SUB DUP2 ADD SWAP1 PUSH2 0x1E6 SWAP2 SWAP1 PUSH2 0x11EE JUMP JUMPDEST PUSH2 0x508 JUMP JUMPDEST PUSH1 0x40 MLOAD PUSH2 0x1F8 SWAP2 SWAP1 PUSH2 0x1492 JUMP JUMPDEST PUSH1 0x40 MLOAD DUP1 SWAP2 SUB SWAP1 RETURN JUMPDEST PUSH2 0x209 PUSH2 0x593 JUMP JUMPDEST PUSH1 0x40 MLOAD PUSH2 0x216 SWAP2 SWAP1 PUSH2 0x164A JUMP JUMPDEST PUSH1 0x40 MLOAD DUP1 SWAP2 SUB SWAP1 RETURN JUMPDEST PUSH2 0x239 PUSH1 0x4 DUP1 CALLDATASIZE SUB DUP2 ADD SWAP1 PUSH2 0x234 SWAP2 SWAP1 PUSH2 0x1241 JUMP JUMPDEST PUSH2 0x59C JUMP JUMPDEST PUSH1 0x40 MLOAD PUSH2 0x246 SWAP2 SWAP1 PUSH2 0x1492 JUMP JUMPDEST PUSH1 0x40 MLOAD DUP1 SWAP2 SUB SWAP1 RETURN JUMPDEST PUSH2 0x257 PUSH2 0x5D3 JUMP JUMPDEST PUSH1 0x40 MLOAD PUSH2 0x264 SWAP2 SWAP1 PUSH2 0x1477 JUMP JUMPDEST PUSH1 0x40 MLOAD DUP1 SWAP2 SUB SWAP1 RETURN JUMPDEST PUSH2 0x275 PUSH2 0x5F9 JUMP JUMPDEST PUSH1 0x40 MLOAD PUSH2 0x282 SWAP2 SWAP1 PUSH2 0x162F JUMP JUMPDEST PUSH1 0x40 MLOAD DUP1 SWAP2 SUB SWAP1 RETURN JUMPDEST PUSH2 0x293 PUSH2 0x5FE JUMP JUMPDEST PUSH1 0x40 MLOAD PUSH2 0x2A0 SWAP2 SWAP1 PUSH2 0x1477 JUMP JUMPDEST PUSH1 0x40 MLOAD DUP1 SWAP2 SUB SWAP1 RETURN JUMPDEST PUSH2 0x2C3 PUSH1 0x4 DUP1 CALLDATASIZE SUB DUP2 ADD SWAP1 PUSH2 0x2BE SWAP2 SWAP1 PUSH2 0x1181 JUMP JUMPDEST PUSH2 0x603 JUMP JUMPDEST PUSH1 0x40 MLOAD PUSH2 0x2D0 SWAP2 SWAP1 PUSH2 0x162F JUMP JUMPDEST PUSH1 0x40 MLOAD DUP1 SWAP2 SUB SWAP1 RETURN JUMPDEST PUSH2 0x2E1 PUSH2 0x64B JUMP JUMPDEST STOP JUMPDEST PUSH2 0x2EB PUSH2 0x65F JUMP JUMPDEST PUSH1 0x40 MLOAD PUSH2 0x2F8 SWAP2 SWAP1 PUSH2 0x162F JUMP JUMPDEST PUSH1 0x40 MLOAD DUP1 SWAP2 SUB SWAP1 RETURN JUMPDEST PUSH2 0x309 PUSH2 0x664 JUMP JUMPDEST PUSH1 0x40 MLOAD PUSH2 0x316 SWAP2 SWAP1 PUSH2 0x1477 JUMP JUMPDEST PUSH1 0x40 MLOAD DUP1 SWAP2 SUB SWAP1 RETURN JUMPDEST PUSH2 0x327 PUSH2 0x68E JUMP JUMPDEST PUSH1 0x40 MLOAD PUSH2 0x334 SWAP2 SWAP1 PUSH2 0x162F JUMP JUMPDEST PUSH1 0x40 MLOAD DUP1 SWAP2 SUB SWAP1 RETURN JUMPDEST PUSH2 0x345 PUSH2 0x69D JUMP JUMPDEST PUSH1 0x40 MLOAD PUSH2 0x352 SWAP2 SWAP1 PUSH2 0x14AD JUMP JUMPDEST PUSH1 0x40 MLOAD DUP1 SWAP2 SUB SWAP1 RETURN JUMPDEST PUSH2 0x375 PUSH1 0x4 DUP1 CALLDATASIZE SUB DUP2 ADD SWAP1 PUSH2 0x370 SWAP2 SWAP1 PUSH2 0x1241 JUMP JUMPDEST PUSH2 0x72F JUMP JUMPDEST PUSH1 0x40 MLOAD PUSH2 0x382 SWAP2 SWAP1 PUSH2 0x1492 JUMP JUMPDEST PUSH1 0x40 MLOAD DUP1 SWAP2 SUB SWAP1 RETURN JUMPDEST PUSH2 0x3A5 PUSH1 0x4 DUP1 CALLDATASIZE SUB DUP2 ADD SWAP1 PUSH2 0x3A0 SWAP2 SWAP1 PUSH2 0x1241 JUMP JUMPDEST PUSH2 0x7A6 JUMP JUMPDEST PUSH1 0x40 MLOAD PUSH2 0x3B2 SWAP2 SWAP1 PUSH2 0x1492 JUMP JUMPDEST PUSH1 0x40 MLOAD DUP1 SWAP2 SUB SWAP1 RETURN JUMPDEST PUSH2 0x3C3 PUSH2 0x7BB JUMP JUMPDEST PUSH1 0x40 MLOAD PUSH2 0x3D0 SWAP2 SWAP1 PUSH2 0x1477 JUMP JUMPDEST PUSH1 0x40 MLOAD DUP1 SWAP2 SUB SWAP1 RETURN JUMPDEST PUSH2 0x3F3 PUSH1 0x4 DUP1 CALLDATASIZE SUB DUP2 ADD SWAP1 PUSH2 0x3EE SWAP2 SWAP1 PUSH2 0x11AE JUMP JUMPDEST PUSH2 0x7E1 JUMP JUMPDEST PUSH1 0x40 MLOAD PUSH2 0x400 SWAP2 SWAP1 PUSH2 0x162F JUMP JUMPDEST PUSH1 0x40 MLOAD DUP1 SWAP2 SUB SWAP1 RETURN JUMPDEST PUSH2 0x423 PUSH1 0x4 DUP1 CALLDATASIZE SUB DUP2 ADD SWAP1 PUSH2 0x41E SWAP2 SWAP1 PUSH2 0x1181 JUMP JUMPDEST PUSH2 0x868 JUMP JUMPDEST STOP JUMPDEST PUSH2 0x42D PUSH2 0x8EC JUMP JUMPDEST PUSH1 0x40 MLOAD PUSH2 0x43A SWAP2 SWAP1 PUSH2 0x162F JUMP JUMPDEST PUSH1 0x40 MLOAD DUP1 SWAP2 SUB SWAP1 RETURN JUMPDEST PUSH2 0xDEAD DUP2 JUMP JUMPDEST PUSH1 0x60 PUSH1 0x3 DUP1 SLOAD PUSH2 0x458 SWAP1 PUSH2 0x181E JUMP JUMPDEST DUP1 PUSH1 0x1F ADD PUSH1 0x20 DUP1 SWAP2 DIV MUL PUSH1 0x20 ADD PUSH1 0x40 MLOAD SWAP1 DUP2 ADD PUSH1 0x40 MSTORE DUP1 SWAP3 SWAP2 SWAP1 DUP2 DUP2 MSTORE PUSH1 0x20 ADD DUP3 DUP1 SLOAD PUSH2 0x484 SWAP1 PUSH2 0x181E JUMP JUMPDEST DUP1 ISZERO PUSH2 0x4D1 JUMPI DUP1 PUSH1 0x1F LT PUSH2 0x4A6 JUMPI PUSH2 0x100 DUP1 DUP4 SLOAD DIV MUL DUP4 MSTORE SWAP2 PUSH1 0x20 ADD SWAP2 PUSH2 0x4D1 JUMP JUMPDEST DUP3 ADD SWAP2 SWAP1 PUSH1 0x0 MSTORE PUSH1 0x20 PUSH1 0x0 KECCAK256 SWAP1 JUMPDEST DUP2 SLOAD DUP2 MSTORE SWAP1 PUSH1 0x1 ADD SWAP1 PUSH1 0x20 ADD DUP1 DUP4 GT PUSH2 0x4B4 JUMPI DUP3 SWAP1 SUB PUSH1 0x1F AND DUP3 ADD SWAP2 JUMPDEST POP POP POP POP POP SWAP1 POP SWAP1 JUMP JUMPDEST PUSH1 0x0 DUP1 PUSH2 0x4E6 PUSH2 0x8F1 JUMP JUMPDEST SWAP1 POP PUSH2 0x4F3 DUP2 DUP6 DUP6 PUSH2 0x8F9 JUMP JUMPDEST PUSH1 0x1 SWAP2 POP POP SWAP3 SWAP2 POP POP JUMP JUMPDEST PUSH1 0x0 PUSH1 0x2 SLOAD SWAP1 POP SWAP1 JUMP JUMPDEST PUSH1 0x0 DUP1 PUSH2 0x51C DUP6 PUSH2 0x517 PUSH2 0x8F1 JUMP JUMPDEST PUSH2 0x7E1 JUMP JUMPDEST SWAP1 POP DUP3 DUP2 LT ISZERO PUSH2 0x561 JUMPI PUSH1 0x40 MLOAD PUSH32 0x8C379A000000000000000000000000000000000000000000000000000000000 DUP2 MSTORE PUSH1 0x4 ADD PUSH2 0x558 SWAP1 PUSH2 0x156F JUMP JUMPDEST PUSH1 0x40 MLOAD DUP1 SWAP2 SUB SWAP1 REVERT JUMPDEST PUSH2 0x57E DUP6 PUSH2 0x56D PUSH2 0x8F1 JUMP JUMPDEST DUP6 DUP5 PUSH2 0x579 SWAP2 SWAP1 PUSH2 0x1762 JUMP JUMPDEST PUSH2 0x8F9 JUMP JUMPDEST PUSH2 0x589 DUP6 DUP6 DUP6 PUSH2 0xAC4 JUMP JUMPDEST SWAP2 POP POP SWAP4 SWAP3 POP POP POP JUMP JUMPDEST PUSH1 0x0 PUSH1 0x12 SWAP1 POP SWAP1 JUMP JUMPDEST PUSH1 0x0 DUP1 PUSH2 0x5A7 PUSH2 0x8F1 JUMP JUMPDEST SWAP1 POP PUSH2 0x5C8 DUP2 DUP6 DUP6 PUSH2 0x5B9 DUP6 DUP10 PUSH2 0x7E1 JUMP JUMPDEST PUSH2 0x5C3 SWAP2 SWAP1 PUSH2 0x1681 JUMP JUMPDEST PUSH2 0x8F9 JUMP JUMPDEST PUSH1 0x1 SWAP2 POP POP SWAP3 SWAP2 POP POP JUMP JUMPDEST PUSH1 0x6 PUSH1 0x0 SWAP1 SLOAD SWAP1 PUSH2 0x100 EXP SWAP1 DIV PUSH20 0xFFFFFFFFFFFFFFFFFFFFFFFFFFFFFFFFFFFFFFFF AND DUP2 JUMP JUMPDEST PUSH1 0x19 DUP2 JUMP JUMPDEST PUSH1 0x0 DUP2 JUMP JUMPDEST PUSH1 0x0 DUP1 PUSH1 0x0 DUP4 PUSH20 0xFFFFFFFFFFFFFFFFFFFFFFFFFFFFFFFFFFFFFFFF AND PUSH20 0xFFFFFFFFFFFFFFFFFFFFFFFFFFFFFFFFFFFFFFFF AND DUP2 MSTORE PUSH1 0x20 ADD SWAP1 DUP2 MSTORE PUSH1 0x20 ADD PUSH1 0x0 KECCAK256 SLOAD SWAP1 POP SWAP2 SWAP1 POP JUMP JUMPDEST PUSH2 0x653 PUSH2 0xBC3 JUMP JUMPDEST PUSH2 0x65D PUSH1 0x0 PUSH2 0xC41 JUMP JUMPDEST JUMP JUMPDEST PUSH1 0x32 DUP2 JUMP JUMPDEST PUSH1 0x0 PUSH1 0x5 PUSH1 0x0 SWAP1 SLOAD SWAP1 PUSH2 0x100 EXP SWAP1 DIV PUSH20 0xFFFFFFFFFFFFFFFFFFFFFFFFFFFFFFFFFFFFFFFF AND SWAP1 POP SWAP1 JUMP JUMPDEST PUSH11 0x52B7D2DCC80CD2E4000000 DUP2 JUMP JUMPDEST PUSH1 0x60 PUSH1 0x4 DUP1 SLOAD PUSH2 0x6AC SWAP1 PUSH2 0x181E JUMP JUMPDEST DUP1 PUSH1 0x1F ADD PUSH1 0x20 DUP1 SWAP2 DIV MUL PUSH1 0x20 ADD PUSH1 0x40 MLOAD SWAP1 DUP2 ADD PUSH1 0x40 MSTORE DUP1 SWAP3 SWAP2 SWAP1 DUP2 DUP2 MSTORE PUSH1 0x20 ADD DUP3 DUP1 SLOAD PUSH2 0x6D8 SWAP1 PUSH2 0x181E JUMP JUMPDEST DUP1 ISZERO PUSH2 0x725 JUMPI DUP1 PUSH1 0x1F LT PUSH2 0x6FA JUMPI PUSH2 0x100 DUP1 DUP4 SLOAD DIV MUL DUP4 MSTORE SWAP2 PUSH1 0x20 ADD SWAP2 PUSH2 0x725 JUMP JUMPDEST DUP3 ADD SWAP2 SWAP1 PUSH1 0x0 MSTORE PUSH1 0x20 PUSH1 0x0 KECCAK256 SWAP1 JUMPDEST DUP2 SLOAD DUP2 MSTORE SWAP1 PUSH1 0x1 ADD SWAP1 PUSH1 0x20 ADD DUP1 DUP4 GT PUSH2 0x708 JUMPI DUP3 SWAP1 SUB PUSH1 0x1F AND DUP3 ADD SWAP2 JUMPDEST POP POP POP POP POP SWAP1 POP SWAP1 JUMP JUMPDEST PUSH1 0x0 DUP1 PUSH2 0x73A PUSH2 0x8F1 JUMP JUMPDEST SWAP1 POP PUSH1 0x0 PUSH2 0x748 DUP3 DUP7 PUSH2 0x7E1 JUMP JUMPDEST SWAP1 POP DUP4 DUP2 LT ISZERO PUSH2 0x78D JUMPI PUSH1 0x40 MLOAD PUSH32 0x8C379A000000000000000000000000000000000000000000000000000000000 DUP2 MSTORE PUSH1 0x4 ADD PUSH2 0x784 SWAP1 PUSH2 0x160F JUMP JUMPDEST PUSH1 0x40 MLOAD DUP1 SWAP2 SUB SWAP1 REVERT JUMPDEST PUSH2 0x79A DUP3 DUP7 DUP7 DUP5 SUB PUSH2 0x8F9 JUMP JUMPDEST PUSH1 0x1 SWAP3 POP POP POP SWAP3 SWAP2 POP POP JUMP JUMPDEST PUSH1 0x0 PUSH2 0x7B3 CALLER DUP5 DUP5 PUSH2 0xAC4 JUMP JUMPDEST SWAP1 POP SWAP3 SWAP2 POP POP JUMP JUMPDEST PUSH1 0x7 PUSH1 0x0 SWAP1 SLOAD SWAP1 PUSH2 0x100 EXP SWAP1 DIV PUSH20 0xFFFFFFFFFFFFFFFFFFFFFFFFFFFFFFFFFFFFFFFF AND DUP2 JUMP JUMPDEST PUSH1 0x0 PUSH1 0x1 PUSH1 0x0 DUP5 PUSH20 0xFFFFFFFFFFFFFFFFFFFFFFFFFFFFFFFFFFFFFFFF AND PUSH20 0xFFFFFFFFFFFFFFFFFFFFFFFFFFFFFFFFFFFFFFFF AND DUP2 MSTORE PUSH1 0x20 ADD SWAP1 DUP2 MSTORE PUSH1 0x20 ADD PUSH1 0x0 KECCAK256 PUSH1 0x0 DUP4 PUSH20 0xFFFFFFFFFFFFFFFFFFFFFFFFFFFFFFFFFFFFFFFF AND PUSH20 0xFFFFFFFFFFFFFFFFFFFFFFFFFFFFFFFFFFFFFFFF AND DUP2 MSTORE PUSH1 0x20 ADD SWAP1 DUP2 MSTORE PUSH1 0x20 ADD PUSH1 0x0 KECCAK256 SLOAD SWAP1 POP SWAP3 SWAP2 POP POP JUMP JUMPDEST PUSH2 0x870 PUSH2 0xBC3 JUMP JUMPDEST PUSH1 0x0 PUSH20 0xFFFFFFFFFFFFFFFFFFFFFFFFFFFFFFFFFFFFFFFF AND DUP2 PUSH20 0xFFFFFFFFFFFFFFFFFFFFFFFFFFFFFFFFFFFFFFFF AND EQ ISZERO PUSH2 0x8E0 JUMPI PUSH1 0x40 MLOAD PUSH32 0x8C379A000000000000000000000000000000000000000000000000000000000 DUP2 MSTORE PUSH1 0x4 ADD PUSH2 0x8D7 SWAP1 PUSH2 0x150F JUMP JUMPDEST PUSH1 0x40 MLOAD DUP1 SWAP2 SUB SWAP1 REVERT JUMPDEST PUSH2 0x8E9 DUP2 PUSH2 0xC41 JUMP JUMPDEST POP JUMP JUMPDEST PUSH1 0x23 DUP2 JUMP JUMPDEST PUSH1 0x0 CALLER SWAP1 POP SWAP1 JUMP JUMPDEST PUSH1 0x0 PUSH20 0xFFFFFFFFFFFFFFFFFFFFFFFFFFFFFFFFFFFFFFFF AND DUP4 PUSH20 0xFFFFFFFFFFFFFFFFFFFFFFFFFFFFFFFFFFFFFFFF AND EQ ISZERO PUSH2 0x969 JUMPI PUSH1 0x40 MLOAD PUSH32 0x8C379A000000000000000000000000000000000000000000000000000000000 DUP2 MSTORE PUSH1 0x4 ADD PUSH2 0x960 SWAP1 PUSH2 0x15EF JUMP JUMPDEST PUSH1 0x40 MLOAD DUP1 SWAP2 SUB SWAP1 REVERT JUMPDEST PUSH1 0x0 PUSH20 0xFFFFFFFFFFFFFFFFFFFFFFFFFFFFFFFFFFFFFFFF AND DUP3 PUSH20 0xFFFFFFFFFFFFFFFFFFFFFFFFFFFFFFFFFFFFFFFF AND EQ ISZERO PUSH2 0x9D9 JUMPI PUSH1 0x40 MLOAD PUSH32 0x8C379A000000000000000000000000000000000000000000000000000000000 DUP2 MSTORE PUSH1 0x4 ADD PUSH2 0x9D0 SWAP1 PUSH2 0x152F JUMP JUMPDEST PUSH1 0x40 MLOAD DUP1 SWAP2 SUB SWAP1 REVERT JUMPDEST DUP1 PUSH1 0x1 PUSH1 0x0 DUP6 PUSH20 0xFFFFFFFFFFFFFFFFFFFFFFFFFFFFFFFFFFFFFFFF AND PUSH20 0xFFFFFFFFFFFFFFFFFFFFFFFFFFFFFFFFFFFFFFFF AND DUP2 MSTORE PUSH1 0x20 ADD SWAP1 DUP2 MSTORE PUSH1 0x20 ADD PUSH1 0x0 KECCAK256 PUSH1 0x0 DUP5 PUSH20 0xFFFFFFFFFFFFFFFFFFFFFFFFFFFFFFFFFFFFFFFF AND PUSH20 0xFFFFFFFFFFFFFFFFFFFFFFFFFFFFFFFFFFFFFFFF AND DUP2 MSTORE PUSH1 0x20 ADD SWAP1 DUP2 MSTORE PUSH1 0x20 ADD PUSH1 0x0 KECCAK256 DUP2 SWAP1 SSTORE POP DUP2 PUSH20 0xFFFFFFFFFFFFFFFFFFFFFFFFFFFFFFFFFFFFFFFF AND DUP4 PUSH20 0xFFFFFFFFFFFFFFFFFFFFFFFFFFFFFFFFFFFFFFFF AND PUSH32 0x8C5BE1E5EBEC7D5BD14F71427D1E84F3DD0314C0F7B2291E5B200AC8C7C3B925 DUP4 PUSH1 0x40 MLOAD PUSH2 0xAB7 SWAP2 SWAP1 PUSH2 0x162F JUMP JUMPDEST PUSH1 0x40 MLOAD DUP1 SWAP2 SUB SWAP1 LOG3 POP POP POP JUMP JUMPDEST PUSH1 0x0 DUP1 PUSH2 0x2710 PUSH1 0x23 DUP5 PUSH2 0xAD7 SWAP2 SWAP1 PUSH2 0x1708 JUMP JUMPDEST PUSH2 0xAE1 SWAP2 SWAP1 PUSH2 0x16D7 JUMP JUMPDEST SWAP1 POP PUSH1 0x0 PUSH2 0x2710 PUSH1 0x32 DUP6 PUSH2 0xAF5 SWAP2 SWAP1 PUSH2 0x1708 JUMP JUMPDEST PUSH2 0xAFF SWAP2 SWAP1 PUSH2 0x16D7 JUMP JUMPDEST SWAP1 POP PUSH1 0x0 PUSH2 0x2710 PUSH1 0x19 DUP7 PUSH2 0xB13 SWAP2 SWAP1 PUSH2 0x1708 JUMP JUMPDEST PUSH2 0xB1D SWAP2 SWAP1 PUSH2 0x16D7 JUMP JUMPDEST SWAP1 POP PUSH1 0x0 DUP2 DUP4 DUP6 DUP9 PUSH2 0xB2F SWAP2 SWAP1 PUSH2 0x1762 JUMP JUMPDEST PUSH2 0xB39 SWAP2 SWAP1 PUSH2 0x1762 JUMP JUMPDEST PUSH2 0xB43 SWAP2 SWAP1 PUSH2 0x1762 JUMP JUMPDEST SWAP1 POP PUSH2 0xB4F DUP9 DUP6 PUSH2 0xD07 JUMP JUMPDEST PUSH2 0xB7C DUP9 PUSH1 0x6 PUSH1 0x0 SWAP1 SLOAD SWAP1 PUSH2 0x100 EXP SWAP1 DIV PUSH20 0xFFFFFFFFFFFFFFFFFFFFFFFFFFFFFFFFFFFFFFFF AND DUP6 PUSH2 0xED5 JUMP JUMPDEST PUSH2 0xBA9 DUP9 PUSH1 0x7 PUSH1 0x0 SWAP1 SLOAD SWAP1 PUSH2 0x100 EXP SWAP1 DIV PUSH20 0xFFFFFFFFFFFFFFFFFFFFFFFFFFFFFFFFFFFFFFFF AND DUP5 PUSH2 0xED5 JUMP JUMPDEST PUSH2 0xBB4 DUP9 DUP9 DUP4 PUSH2 0xED5 JUMP JUMPDEST PUSH1 0x1 SWAP5 POP POP POP POP POP SWAP4 SWAP3 POP POP POP JUMP JUMPDEST PUSH2 0xBCB PUSH2 0x8F1 JUMP JUMPDEST PUSH20 0xFFFFFFFFFFFFFFFFFFFFFFFFFFFFFFFFFFFFFFFF AND PUSH2 0xBE9 PUSH2 0x664 JUMP JUMPDEST PUSH20 0xFFFFFFFFFFFFFFFFFFFFFFFFFFFFFFFFFFFFFFFF AND EQ PUSH2 0xC3F JUMPI PUSH1 0x40 MLOAD PUSH32 0x8C379A000000000000000000000000000000000000000000000000000000000 DUP2 MSTORE PUSH1 0x4 ADD PUSH2 0xC36 SWAP1 PUSH2 0x158F JUMP JUMPDEST PUSH1 0x40 MLOAD DUP1 SWAP2 SUB SWAP1 REVERT JUMPDEST JUMP JUMPDEST PUSH1 0x0 PUSH1 0x5 PUSH1 0x0 SWAP1 SLOAD SWAP1 PUSH2 0x100 EXP SWAP1 DIV PUSH20 0xFFFFFFFFFFFFFFFFFFFFFFFFFFFFFFFFFFFFFFFF AND SWAP1 POP DUP2 PUSH1 0x5 PUSH1 0x0 PUSH2 0x100 EXP DUP2 SLOAD DUP2 PUSH20 0xFFFFFFFFFFFFFFFFFFFFFFFFFFFFFFFFFFFFFFFF MUL NOT AND SWAP1 DUP4 PUSH20 0xFFFFFFFFFFFFFFFFFFFFFFFFFFFFFFFFFFFFFFFF AND MUL OR SWAP1 SSTORE POP DUP2 PUSH20 0xFFFFFFFFFFFFFFFFFFFFFFFFFFFFFFFFFFFFFFFF AND DUP2 PUSH20 0xFFFFFFFFFFFFFFFFFFFFFFFFFFFFFFFFFFFFFFFF AND PUSH32 0x8BE0079C531659141344CD1FD0A4F28419497F9722A3DAAFE3B4186F6B6457E0 PUSH1 0x40 MLOAD PUSH1 0x40 MLOAD DUP1 SWAP2 SUB SWAP1 LOG3 POP POP JUMP JUMPDEST PUSH1 0x0 PUSH20 0xFFFFFFFFFFFFFFFFFFFFFFFFFFFFFFFFFFFFFFFF AND DUP3 PUSH20 0xFFFFFFFFFFFFFFFFFFFFFFFFFFFFFFFFFFFFFFFF AND EQ ISZERO PUSH2 0xD77 JUMPI PUSH1 0x40 MLOAD PUSH32 0x8C379A000000000000000000000000000000000000000000000000000000000 DUP2 MSTORE PUSH1 0x4 ADD PUSH2 0xD6E SWAP1 PUSH2 0x15AF JUMP JUMPDEST PUSH1 0x40 MLOAD DUP1 SWAP2 SUB SWAP1 REVERT JUMPDEST PUSH2 0xD83 DUP3 PUSH1 0x0 DUP4 PUSH2 0x114D JUMP JUMPDEST PUSH1 0x0 DUP1 PUSH1 0x0 DUP5 PUSH20 0xFFFFFFFFFFFFFFFFFFFFFFFFFFFFFFFFFFFFFFFF AND PUSH20 0xFFFFFFFFFFFFFFFFFFFFFFFFFFFFFFFFFFFFFFFF AND DUP2 MSTORE PUSH1 0x20 ADD SWAP1 DUP2 MSTORE PUSH1 0x20 ADD PUSH1 0x0 KECCAK256 SLOAD SWAP1 POP DUP2 DUP2 LT ISZERO PUSH2 0xE09 JUMPI PUSH1 0x40 MLOAD PUSH32 0x8C379A000000000000000000000000000000000000000000000000000000000 DUP2 MSTORE PUSH1 0x4 ADD PUSH2 0xE00 SWAP1 PUSH2 0x14EF JUMP JUMPDEST PUSH1 0x40 MLOAD DUP1 SWAP2 SUB SWAP1 REVERT JUMPDEST DUP2 DUP2 SUB PUSH1 0x0 DUP1 DUP6 PUSH20 0xFFFFFFFFFFFFFFFFFFFFFFFFFFFFFFFFFFFFFFFF AND PUSH20 0xFFFFFFFFFFFFFFFFFFFFFFFFFFFFFFFFFFFFFFFF AND DUP2 MSTORE PUSH1 0x20 ADD SWAP1 DUP2 MSTORE PUSH1 0x20 ADD PUSH1 0x0 KECCAK256 DUP2 SWAP1 SSTORE POP DUP2 PUSH1 0x2 PUSH1 0x0 DUP3 DUP3 SLOAD SUB SWAP3 POP POP DUP2 SWAP1 SSTORE POP PUSH1 0x0 PUSH20 0xFFFFFFFFFFFFFFFFFFFFFFFFFFFFFFFFFFFFFFFF AND DUP4 PUSH20 0xFFFFFFFFFFFFFFFFFFFFFFFFFFFFFFFFFFFFFFFF AND PUSH32 0xDDF252AD1BE2C89B69C2B068FC378DAA952BA7F163C4A11628F55A4DF523B3EF DUP5 PUSH1 0x40 MLOAD PUSH2 0xEBC SWAP2 SWAP1 PUSH2 0x162F JUMP JUMPDEST PUSH1 0x40 MLOAD DUP1 SWAP2 SUB SWAP1 LOG3 PUSH2 0xED0 DUP4 PUSH1 0x0 DUP5 PUSH2 0x1152 JUMP JUMPDEST POP POP POP JUMP JUMPDEST PUSH1 0x0 PUSH20 0xFFFFFFFFFFFFFFFFFFFFFFFFFFFFFFFFFFFFFFFF AND DUP4 PUSH20 0xFFFFFFFFFFFFFFFFFFFFFFFFFFFFFFFFFFFFFFFF AND EQ ISZERO PUSH2 0xF45 JUMPI PUSH1 0x40 MLOAD PUSH32 0x8C379A000000000000000000000000000000000000000000000000000000000 DUP2 MSTORE PUSH1 0x4 ADD PUSH2 0xF3C SWAP1 PUSH2 0x15CF JUMP JUMPDEST PUSH1 0x40 MLOAD DUP1 SWAP2 SUB SWAP1 REVERT JUMPDEST PUSH1 0x0 PUSH20 0xFFFFFFFFFFFFFFFFFFFFFFFFFFFFFFFFFFFFFFFF AND DUP3 PUSH20 0xFFFFFFFFFFFFFFFFFFFFFFFFFFFFFFFFFFFFFFFF AND EQ ISZERO PUSH2 0xFB5 JUMPI PUSH1 0x40 MLOAD PUSH32 0x8C379A000000000000000000000000000000000000000000000000000000000 DUP2 MSTORE PUSH1 0x4 ADD PUSH2 0xFAC SWAP1 PUSH2 0x14CF JUMP JUMPDEST PUSH1 0x40 MLOAD DUP1 SWAP2 SUB SWAP1 REVERT JUMPDEST PUSH2 0xFC0 DUP4 DUP4 DUP4 PUSH2 0x114D JUMP JUMPDEST PUSH1 0x0 DUP1 PUSH1 0x0 DUP6 PUSH20 0xFFFFFFFFFFFFFFFFFFFFFFFFFFFFFFFFFFFFFFFF AND PUSH20 0xFFFFFFFFFFFFFFFFFFFFFFFFFFFFFFFFFFFFFFFF AND DUP2 MSTORE PUSH1 0x20 ADD SWAP1 DUP2 MSTORE PUSH1 0x20 ADD PUSH1 0x0 KECCAK256 SLOAD SWAP1 POP DUP2 DUP2 LT ISZERO PUSH2 0x1046 JUMPI PUSH1 0x40 MLOAD PUSH32 0x8C379A000000000000000000000000000000000000000000000000000000000 DUP2 MSTORE PUSH1 0x4 ADD PUSH2 0x103D SWAP1 PUSH2 0x154F JUMP JUMPDEST PUSH1 0x40 MLOAD DUP1 SWAP2 SUB SWAP1 REVERT JUMPDEST DUP2 DUP2 SUB PUSH1 0x0 DUP1 DUP7 PUSH20 0xFFFFFFFFFFFFFFFFFFFFFFFFFFFFFFFFFFFFFFFF AND PUSH20 0xFFFFFFFFFFFFFFFFFFFFFFFFFFFFFFFFFFFFFFFF AND DUP2 MSTORE PUSH1 0x20 ADD SWAP1 DUP2 MSTORE PUSH1 0x20 ADD PUSH1 0x0 KECCAK256 DUP2 SWAP1 SSTORE POP DUP2 PUSH1 0x0 DUP1 DUP6 PUSH20 0xFFFFFFFFFFFFFFFFFFFFFFFFFFFFFFFFFFFFFFFF AND PUSH20 0xFFFFFFFFFFFFFFFFFFFFFFFFFFFFFFFFFFFFFFFF AND DUP2 MSTORE PUSH1 0x20 ADD SWAP1 DUP2 MSTORE PUSH1 0x20 ADD PUSH1 0x0 KECCAK256 PUSH1 0x0 DUP3 DUP3 SLOAD ADD SWAP3 POP POP DUP2 SWAP1 SSTORE POP DUP3 PUSH20 0xFFFFFFFFFFFFFFFFFFFFFFFFFFFFFFFFFFFFFFFF AND DUP5 PUSH20 0xFFFFFFFFFFFFFFFFFFFFFFFFFFFFFFFFFFFFFFFF AND PUSH32 0xDDF252AD1BE2C89B69C2B068FC378DAA952BA7F163C4A11628F55A4DF523B3EF DUP5 PUSH1 0x40 MLOAD PUSH2 0x1134 SWAP2 SWAP1 PUSH2 0x162F JUMP JUMPDEST PUSH1 0x40 MLOAD DUP1 SWAP2 SUB SWAP1 LOG3 PUSH2 0x1147 DUP5 DUP5 DUP5 PUSH2 0x1152 JUMP JUMPDEST POP POP POP POP JUMP JUMPDEST POP POP POP JUMP JUMPDEST POP POP POP JUMP JUMPDEST PUSH1 0x0 DUP2 CALLDATALOAD SWAP1 POP PUSH2 0x1166 DUP2 PUSH2 0x1C32 JUMP JUMPDEST SWAP3 SWAP2 POP POP JUMP JUMPDEST PUSH1 0x0 DUP2 CALLDATALOAD SWAP1 POP PUSH2 0x117B DUP2 PUSH2 0x1C49 JUMP JUMPDEST SWAP3 SWAP2 POP POP JUMP JUMPDEST PUSH1 0x0 PUSH1 0x20 DUP3 DUP5 SUB SLT ISZERO PUSH2 0x1197 JUMPI PUSH2 0x1196 PUSH2 0x18DD JUMP JUMPDEST JUMPDEST PUSH1 0x0 PUSH2 0x11A5 DUP5 DUP3 DUP6 ADD PUSH2 0x1157 JUMP JUMPDEST SWAP2 POP POP SWAP3 SWAP2 POP POP JUMP JUMPDEST PUSH1 0x0 DUP1 PUSH1 0x40 DUP4 DUP6 SUB SLT ISZERO PUSH2 0x11C5 JUMPI PUSH2 0x11C4 PUSH2 0x18DD JUMP JUMPDEST JUMPDEST PUSH1 0x0 PUSH2 0x11D3 DUP6 DUP3 DUP7 ADD PUSH2 0x1157 JUMP JUMPDEST SWAP3 POP POP PUSH1 0x20 PUSH2 0x11E4 DUP6 DUP3 DUP7 ADD PUSH2 0x1157 JUMP JUMPDEST SWAP2 POP POP SWAP3 POP SWAP3 SWAP1 POP JUMP JUMPDEST PUSH1 0x0 DUP1 PUSH1 0x0 PUSH1 0x60 DUP5 DUP7 SUB SLT ISZERO PUSH2 0x1207 JUMPI PUSH2 0x1206 PUSH2 0x18DD JUMP JUMPDEST JUMPDEST PUSH1 0x0 PUSH2 0x1215 DUP7 DUP3 DUP8 ADD PUSH2 0x1157 JUMP JUMPDEST SWAP4 POP POP PUSH1 0x20 PUSH2 0x1226 DUP7 DUP3 DUP8 ADD PUSH2 0x1157 JUMP JUMPDEST SWAP3 POP POP PUSH1 0x40 PUSH2 0x1237 DUP7 DUP3 DUP8 ADD PUSH2 0x116C JUMP JUMPDEST SWAP2 POP POP SWAP3 POP SWAP3 POP SWAP3 JUMP JUMPDEST PUSH1 0x0 DUP1 PUSH1 0x40 DUP4 DUP6 SUB SLT ISZERO PUSH2 0x1258 JUMPI PUSH2 0x1257 PUSH2 0x18DD JUMP JUMPDEST JUMPDEST PUSH1 0x0 PUSH2 0x1266 DUP6 DUP3 DUP7 ADD PUSH2 0x1157 JUMP JUMPDEST SWAP3 POP POP PUSH1 0x20 PUSH2 0x1277 DUP6 DUP3 DUP7 ADD PUSH2 0x116C JUMP JUMPDEST SWAP2 POP POP SWAP3 POP SWAP3 SWAP1 POP JUMP JUMPDEST PUSH2 0x128A DUP2 PUSH2 0x1796 JUMP JUMPDEST DUP3 MSTORE POP POP JUMP JUMPDEST PUSH2 0x1299 DUP2 PUSH2 0x17A8 JUMP JUMPDEST DUP3 MSTORE POP POP JUMP JUMPDEST PUSH1 0x0 PUSH2 0x12AA DUP3 PUSH2 0x1665 JUMP JUMPDEST PUSH2 0x12B4 DUP2 DUP6 PUSH2 0x1670 JUMP JUMPDEST SWAP4 POP PUSH2 0x12C4 DUP2 DUP6 PUSH1 0x20 DUP7 ADD PUSH2 0x17EB JUMP JUMPDEST PUSH2 0x12CD DUP2 PUSH2 0x18E2 JUMP JUMPDEST DUP5 ADD SWAP2 POP POP SWAP3 SWAP2 POP POP JUMP JUMPDEST PUSH1 0x0 PUSH2 0x12E5 PUSH1 0x23 DUP4 PUSH2 0x1670 JUMP JUMPDEST SWAP2 POP PUSH2 0x12F0 DUP3 PUSH2 0x18F3 JUMP JUMPDEST PUSH1 0x40 DUP3 ADD SWAP1 POP SWAP2 SWAP1 POP JUMP JUMPDEST PUSH1 0x0 PUSH2 0x1308 PUSH1 0x22 DUP4 PUSH2 0x1670 JUMP JUMPDEST SWAP2 POP PUSH2 0x1313 DUP3 PUSH2 0x1942 JUMP JUMPDEST PUSH1 0x40 DUP3 ADD SWAP1 POP SWAP2 SWAP1 POP JUMP JUMPDEST PUSH1 0x0 PUSH2 0x132B PUSH1 0x26 DUP4 PUSH2 0x1670 JUMP JUMPDEST SWAP2 POP PUSH2 0x1336 DUP3 PUSH2 0x1991 JUMP JUMPDEST PUSH1 0x40 DUP3 ADD SWAP1 POP SWAP2 SWAP1 POP JUMP JUMPDEST PUSH1 0x0 PUSH2 0x134E PUSH1 0x22 DUP4 PUSH2 0x1670 JUMP JUMPDEST SWAP2 POP PUSH2 0x1359 DUP3 PUSH2 0x19E0 JUMP JUMPDEST PUSH1 0x40 DUP3 ADD SWAP1 POP SWAP2 SWAP1 POP JUMP JUMPDEST PUSH1 0x0 PUSH2 0x1371 PUSH1 0x26 DUP4 PUSH2 0x1670 JUMP JUMPDEST SWAP2 POP PUSH2 0x137C DUP3 PUSH2 0x1A2F JUMP JUMPDEST PUSH1 0x40 DUP3 ADD SWAP1 POP SWAP2 SWAP1 POP JUMP JUMPDEST PUSH1 0x0 PUSH2 0x1394 PUSH1 0x28 DUP4 PUSH2 0x1670 JUMP JUMPDEST SWAP2 POP PUSH2 0x139F DUP3 PUSH2 0x1A7E JUMP JUMPDEST PUSH1 0x40 DUP3 ADD SWAP1 POP SWAP2 SWAP1 POP JUMP JUMPDEST PUSH1 0x0 PUSH2 0x13B7 PUSH1 0x20 DUP4 PUSH2 0x1670 JUMP JUMPDEST SWAP2 POP PUSH2 0x13C2 DUP3 PUSH2 0x1ACD JUMP JUMPDEST PUSH1 0x20 DUP3 ADD SWAP1 POP SWAP2 SWAP1 POP JUMP JUMPDEST PUSH1 0x0 PUSH2 0x13DA PUSH1 0x21 DUP4 PUSH2 0x1670 JUMP JUMPDEST SWAP2 POP PUSH2 0x13E5 DUP3 PUSH2 0x1AF6 JUMP JUMPDEST PUSH1 0x40 DUP3 ADD SWAP1 POP SWAP2 SWAP1 POP JUMP JUMPDEST PUSH1 0x0 PUSH2 0x13FD PUSH1 0x25 DUP4 PUSH2 0x1670 JUMP JUMPDEST SWAP2 POP PUSH2 0x1408 DUP3 PUSH2 0x1B45 JUMP JUMPDEST PUSH1 0x40 DUP3 ADD SWAP1 POP SWAP2 SWAP1 POP JUMP JUMPDEST PUSH1 0x0 PUSH2 0x1420 PUSH1 0x24 DUP4 PUSH2 0x1670 JUMP JUMPDEST SWAP2 POP PUSH2 0x142B DUP3 PUSH2 0x1B94 JUMP JUMPDEST PUSH1 0x40 DUP3 ADD SWAP1 POP SWAP2 SWAP1 POP JUMP JUMPDEST PUSH1 0x0 PUSH2 0x1443 PUSH1 0x25 DUP4 PUSH2 0x1670 JUMP JUMPDEST SWAP2 POP PUSH2 0x144E DUP3 PUSH2 0x1BE3 JUMP JUMPDEST PUSH1 0x40 DUP3 ADD SWAP1 POP SWAP2 SWAP1 POP JUMP JUMPDEST PUSH2 0x1462 DUP2 PUSH2 0x17D4 JUMP JUMPDEST DUP3 MSTORE POP POP JUMP JUMPDEST PUSH2 0x1471 DUP2 PUSH2 0x17DE JUMP JUMPDEST DUP3 MSTORE POP POP JUMP JUMPDEST PUSH1 0x0 PUSH1 0x20 DUP3 ADD SWAP1 POP PUSH2 0x148C PUSH1 0x0 DUP4 ADD DUP5 PUSH2 0x1281 JUMP JUMPDEST SWAP3 SWAP2 POP POP JUMP JUMPDEST PUSH1 0x0 PUSH1 0x20 DUP3 ADD SWAP1 POP PUSH2 0x14A7 PUSH1 0x0 DUP4 ADD DUP5 PUSH2 0x1290 JUMP JUMPDEST SWAP3 SWAP2 POP POP JUMP JUMPDEST PUSH1 0x0 PUSH1 0x20 DUP3 ADD SWAP1 POP DUP2 DUP2 SUB PUSH1 0x0 DUP4 ADD MSTORE PUSH2 0x14C7 DUP2 DUP5 PUSH2 0x129F JUMP JUMPDEST SWAP1 POP SWAP3 SWAP2 POP POP JUMP JUMPDEST PUSH1 0x0 PUSH1 0x20 DUP3 ADD SWAP1 POP DUP2 DUP2 SUB PUSH1 0x0 DUP4 ADD MSTORE PUSH2 0x14E8 DUP2 PUSH2 0x12D8 JUMP JUMPDEST SWAP1 POP SWAP2 SWAP1 POP JUMP JUMPDEST PUSH1 0x0 PUSH1 0x20 DUP3 ADD SWAP1 POP DUP2 DUP2 SUB PUSH1 0x0 DUP4 ADD MSTORE PUSH2 0x1508 DUP2 PUSH2 0x12FB JUMP JUMPDEST SWAP1 POP SWAP2 SWAP1 POP JUMP JUMPDEST PUSH1 0x0 PUSH1 0x20 DUP3 ADD SWAP1 POP DUP2 DUP2 SUB PUSH1 0x0 DUP4 ADD MSTORE PUSH2 0x1528 DUP2 PUSH2 0x131E JUMP JUMPDEST SWAP1 POP SWAP2 SWAP1 POP JUMP JUMPDEST PUSH1 0x0 PUSH1 0x20 DUP3 ADD SWAP1 POP DUP2 DUP2 SUB PUSH1 0x0 DUP4 ADD MSTORE PUSH2 0x1548 DUP2 PUSH2 0x1341 JUMP JUMPDEST SWAP1 POP SWAP2 SWAP1 POP JUMP JUMPDEST PUSH1 0x0 PUSH1 0x20 DUP3 ADD SWAP1 POP DUP2 DUP2 SUB PUSH1 0x0 DUP4 ADD MSTORE PUSH2 0x1568 DUP2 PUSH2 0x1364 JUMP JUMPDEST SWAP1 POP SWAP2 SWAP1 POP JUMP JUMPDEST PUSH1 0x0 PUSH1 0x20 DUP3 ADD SWAP1 POP DUP2 DUP2 SUB PUSH1 0x0 DUP4 ADD MSTORE PUSH2 0x1588 DUP2 PUSH2 0x1387 JUMP JUMPDEST SWAP1 POP SWAP2 SWAP1 POP JUMP JUMPDEST PUSH1 0x0 PUSH1 0x20 DUP3 ADD SWAP1 POP DUP2 DUP2 SUB PUSH1 0x0 DUP4 ADD MSTORE PUSH2 0x15A8 DUP2 PUSH2 0x13AA JUMP JUMPDEST SWAP1 POP SWAP2 SWAP1 POP JUMP JUMPDEST PUSH1 0x0 PUSH1 0x20 DUP3 ADD SWAP1 POP DUP2 DUP2 SUB PUSH1 0x0 DUP4 ADD MSTORE PUSH2 0x15C8 DUP2 PUSH2 0x13CD JUMP JUMPDEST SWAP1 POP SWAP2 SWAP1 POP JUMP JUMPDEST PUSH1 0x0 PUSH1 0x20 DUP3 ADD SWAP1 POP DUP2 DUP2 SUB PUSH1 0x0 DUP4 ADD MSTORE PUSH2 0x15E8 DUP2 PUSH2 0x13F0 JUMP JUMPDEST SWAP1 POP SWAP2 SWAP1 POP JUMP JUMPDEST PUSH1 0x0 PUSH1 0x20 DUP3 ADD SWAP1 POP DUP2 DUP2 SUB PUSH1 0x0 DUP4 ADD MSTORE PUSH2 0x1608 DUP2 PUSH2 0x1413 JUMP JUMPDEST SWAP1 POP SWAP2 SWAP1 POP JUMP JUMPDEST PUSH1 0x0 PUSH1 0x20 DUP3 ADD SWAP1 POP DUP2 DUP2 SUB PUSH1 0x0 DUP4 ADD MSTORE PUSH2 0x1628 DUP2 PUSH2 0x1436 JUMP JUMPDEST SWAP1 POP SWAP2 SWAP1 POP JUMP JUMPDEST PUSH1 0x0 PUSH1 0x20 DUP3 ADD SWAP1 POP PUSH2 0x1644 PUSH1 0x0 DUP4 ADD DUP5 PUSH2 0x1459 JUMP JUMPDEST SWAP3 SWAP2 POP POP JUMP JUMPDEST PUSH1 0x0 PUSH1 0x20 DUP3 ADD SWAP1 POP PUSH2 0x165F PUSH1 0x0 DUP4 ADD DUP5 PUSH2 0x1468 JUMP JUMPDEST SWAP3 SWAP2 POP POP JUMP JUMPDEST PUSH1 0x0 DUP2 MLOAD SWAP1 POP SWAP2 SWAP1 POP JUMP JUMPDEST PUSH1 0x0 DUP3 DUP3 MSTORE PUSH1 0x20 DUP3 ADD SWAP1 POP SWAP3 SWAP2 POP POP JUMP JUMPDEST PUSH1 0x0 PUSH2 0x168C DUP3 PUSH2 0x17D4 JUMP JUMPDEST SWAP2 POP PUSH2 0x1697 DUP4 PUSH2 0x17D4 JUMP JUMPDEST SWAP3 POP DUP3 PUSH32 0xFFFFFFFFFFFFFFFFFFFFFFFFFFFFFFFFFFFFFFFFFFFFFFFFFFFFFFFFFFFFFFFF SUB DUP3 GT ISZERO PUSH2 0x16CC JUMPI PUSH2 0x16CB PUSH2 0x1850 JUMP JUMPDEST JUMPDEST DUP3 DUP3 ADD SWAP1 POP SWAP3 SWAP2 POP POP JUMP JUMPDEST PUSH1 0x0 PUSH2 0x16E2 DUP3 PUSH2 0x17D4 JUMP JUMPDEST SWAP2 POP PUSH2 0x16ED DUP4 PUSH2 0x17D4 JUMP JUMPDEST SWAP3 POP DUP3 PUSH2 0x16FD JUMPI PUSH2 0x16FC PUSH2 0x187F JUMP JUMPDEST JUMPDEST DUP3 DUP3 DIV SWAP1 POP SWAP3 SWAP2 POP POP JUMP JUMPDEST PUSH1 0x0 PUSH2 0x1713 DUP3 PUSH2 0x17D4 JUMP JUMPDEST SWAP2 POP PUSH2 0x171E DUP4 PUSH2 0x17D4 JUMP JUMPDEST SWAP3 POP DUP2 PUSH32 0xFFFFFFFFFFFFFFFFFFFFFFFFFFFFFFFFFFFFFFFFFFFFFFFFFFFFFFFFFFFFFFFF DIV DUP4 GT DUP3 ISZERO ISZERO AND ISZERO PUSH2 0x1757 JUMPI PUSH2 0x1756 PUSH2 0x1850 JUMP JUMPDEST JUMPDEST DUP3 DUP3 MUL SWAP1 POP SWAP3 SWAP2 POP POP JUMP JUMPDEST PUSH1 0x0 PUSH2 0x176D DUP3 PUSH2 0x17D4 JUMP JUMPDEST SWAP2 POP PUSH2 0x1778 DUP4 PUSH2 0x17D4 JUMP JUMPDEST SWAP3 POP DUP3 DUP3 LT ISZERO PUSH2 0x178B JUMPI PUSH2 0x178A PUSH2 0x1850 JUMP JUMPDEST JUMPDEST DUP3 DUP3 SUB SWAP1 POP SWAP3 SWAP2 POP POP JUMP JUMPDEST PUSH1 0x0 PUSH2 0x17A1 DUP3 PUSH2 0x17B4 JUMP JUMPDEST SWAP1 POP SWAP2 SWAP1 POP JUMP JUMPDEST PUSH1 0x0 DUP2 ISZERO ISZERO SWAP1 POP SWAP2 SWAP1 POP JUMP JUMPDEST PUSH1 0x0 PUSH20 0xFFFFFFFFFFFFFFFFFFFFFFFFFFFFFFFFFFFFFFFF DUP3 AND SWAP1 POP SWAP2 SWAP1 POP JUMP JUMPDEST PUSH1 0x0 DUP2 SWAP1 POP SWAP2 SWAP1 POP JUMP JUMPDEST PUSH1 0x0 PUSH1 0xFF DUP3 AND SWAP1 POP SWAP2 SWAP1 POP JUMP JUMPDEST PUSH1 0x0 JUMPDEST DUP4 DUP2 LT ISZERO PUSH2 0x1809 JUMPI DUP1 DUP3 ADD MLOAD DUP2 DUP5 ADD MSTORE PUSH1 0x20 DUP2 ADD SWAP1 POP PUSH2 0x17EE JUMP JUMPDEST DUP4 DUP2 GT ISZERO PUSH2 0x1818 JUMPI PUSH1 0x0 DUP5 DUP5 ADD MSTORE JUMPDEST POP POP POP POP JUMP JUMPDEST PUSH1 0x0 PUSH1 0x2 DUP3 DIV SWAP1 POP PUSH1 0x1 DUP3 AND DUP1 PUSH2 0x1836 JUMPI PUSH1 0x7F DUP3 AND SWAP2 POP JUMPDEST PUSH1 0x20 DUP3 LT DUP2 EQ ISZERO PUSH2 0x184A JUMPI PUSH2 0x1849 PUSH2 0x18AE JUMP JUMPDEST JUMPDEST POP SWAP2 SWAP1 POP JUMP JUMPDEST PUSH32 0x4E487B7100000000000000000000000000000000000000000000000000000000 PUSH1 0x0 MSTORE PUSH1 0x11 PUSH1 0x4 MSTORE PUSH1 0x24 PUSH1 0x0 REVERT JUMPDEST PUSH32 0x4E487B7100000000000000000000000000000000000000000000000000000000 PUSH1 0x0 MSTORE PUSH1 0x12 PUSH1 0x4 MSTORE PUSH1 0x24 PUSH1 0x0 REVERT JUMPDEST PUSH32 0x4E487B7100000000000000000000000000000000000000000000000000000000 PUSH1 0x0 MSTORE PUSH1 0x22 PUSH1 0x4 MSTORE PUSH1 0x24 PUSH1 0x0 REVERT JUMPDEST PUSH1 0x0 DUP1 REVERT JUMPDEST PUSH1 0x0 PUSH1 0x1F NOT PUSH1 0x1F DUP4 ADD AND SWAP1 POP SWAP2 SWAP1 POP JUMP JUMPDEST PUSH32 0x45524332303A207472616E7366657220746F20746865207A65726F2061646472 PUSH1 0x0 DUP3 ADD MSTORE PUSH32 0x6573730000000000000000000000000000000000000000000000000000000000 PUSH1 0x20 DUP3 ADD MSTORE POP JUMP JUMPDEST PUSH32 0x45524332303A206275726E20616D6F756E7420657863656564732062616C616E PUSH1 0x0 DUP3 ADD MSTORE PUSH32 0x6365000000000000000000000000000000000000000000000000000000000000 PUSH1 0x20 DUP3 ADD MSTORE POP JUMP JUMPDEST PUSH32 0x4F776E61626C653A206E6577206F776E657220697320746865207A65726F2061 PUSH1 0x0 DUP3 ADD MSTORE PUSH32 0x6464726573730000000000000000000000000000000000000000000000000000 PUSH1 0x20 DUP3 ADD MSTORE POP JUMP JUMPDEST PUSH32 0x45524332303A20617070726F766520746F20746865207A65726F206164647265 PUSH1 0x0 DUP3 ADD MSTORE PUSH32 0x7373000000000000000000000000000000000000000000000000000000000000 PUSH1 0x20 DUP3 ADD MSTORE POP JUMP JUMPDEST PUSH32 0x45524332303A207472616E7366657220616D6F756E7420657863656564732062 PUSH1 0x0 DUP3 ADD MSTORE PUSH32 0x616C616E63650000000000000000000000000000000000000000000000000000 PUSH1 0x20 DUP3 ADD MSTORE POP JUMP JUMPDEST PUSH32 0x45524332303A207472616E7366657220616D6F756E7420657863656564732061 PUSH1 0x0 DUP3 ADD MSTORE PUSH32 0x6C6C6F77616E6365000000000000000000000000000000000000000000000000 PUSH1 0x20 DUP3 ADD MSTORE POP JUMP JUMPDEST PUSH32 0x4F776E61626C653A2063616C6C6572206973206E6F7420746865206F776E6572 PUSH1 0x0 DUP3 ADD MSTORE POP JUMP JUMPDEST PUSH32 0x45524332303A206275726E2066726F6D20746865207A65726F20616464726573 PUSH1 0x0 DUP3 ADD MSTORE PUSH32 0x7300000000000000000000000000000000000000000000000000000000000000 PUSH1 0x20 DUP3 ADD MSTORE POP JUMP JUMPDEST PUSH32 0x45524332303A207472616E736665722066726F6D20746865207A65726F206164 PUSH1 0x0 DUP3 ADD MSTORE PUSH32 0x6472657373000000000000000000000000000000000000000000000000000000 PUSH1 0x20 DUP3 ADD MSTORE POP JUMP JUMPDEST PUSH32 0x45524332303A20617070726F76652066726F6D20746865207A65726F20616464 PUSH1 0x0 DUP3 ADD MSTORE PUSH32 0x7265737300000000000000000000000000000000000000000000000000000000 PUSH1 0x20 DUP3 ADD MSTORE POP JUMP JUMPDEST PUSH32 0x45524332303A2064656372656173656420616C6C6F77616E63652062656C6F77 PUSH1 0x0 DUP3 ADD MSTORE PUSH32 0x207A65726F000000000000000000000000000000000000000000000000000000 PUSH1 0x20 DUP3 ADD MSTORE POP JUMP JUMPDEST PUSH2 0x1C3B DUP2 PUSH2 0x1796 JUMP JUMPDEST DUP2 EQ PUSH2 0x1C46 JUMPI PUSH1 0x0 DUP1 REVERT JUMPDEST POP JUMP JUMPDEST PUSH2 0x1C52 DUP2 PUSH2 0x17D4 JUMP JUMPDEST DUP2 EQ PUSH2 0x1C5D JUMPI PUSH1 0x0 DUP1 REVERT JUMPDEST POP JUMP INVALID LOG2 PUSH5 0x6970667358 0x22 SLT KECCAK256 MUL MUL PUSH12 0xA78D6C34AB8EF0F9A3F8E7D1 0xC9 SWAP12 PUSH15 0xD736AC2466F0B52D996B48ED915E64 PUSH20 0x6F6C634300080600330000000000000000000000 "
				},
				"gasEstimates": {
					"creation": {
						"codeDepositCost": "1463600",
						"executionCost": "infinite",
						"totalCost": "infinite"
					},
					"external": {
						"BURN_RATE()": "461",
						"DEAD()": "402",
						"LIQUIDITY_FEE()": "418",
						"TOTAL_SUPPLY()": "418",
						"TREASURY_FEE()": "374",
						"ZERO()": "489",
						"allowance(address,address)": "infinite",
						"approve(address,uint256)": "infinite",
						"balanceOf(address)": "2974",
						"decimals()": "366",
						"decreaseAllowance(address,uint256)": "infinite",
						"increaseAllowance(address,uint256)": "infinite",
						"liquidityWallet()": "2580",
						"name()": "infinite",
						"owner()": "2589",
						"renounceOwnership()": "30421",
						"symbol()": "infinite",
						"totalSupply()": "2527",
						"transfer(address,uint256)": "infinite",
						"transferFrom(address,address,uint256)": "infinite",
						"transferOwnership(address)": "30857",
						"treasuryWallet()": "2581"
					},
					"internal": {
						"_processTransaction(address,address,uint256)": "infinite"
					}
				},
				"methodIdentifiers": {
					"BURN_RATE()": "f846a885",
					"DEAD()": "03fd2a45",
					"LIQUIDITY_FEE()": "53ab431b",
					"TOTAL_SUPPLY()": "902d55a5",
					"TREASURY_FEE()": "8ce1a483",
					"ZERO()": "58fa63ca",
					"allowance(address,address)": "dd62ed3e",
					"approve(address,uint256)": "095ea7b3",
					"balanceOf(address)": "70a08231",
					"decimals()": "313ce567",
					"decreaseAllowance(address,uint256)": "a457c2d7",
					"increaseAllowance(address,uint256)": "39509351",
					"liquidityWallet()": "d4698016",
					"name()": "06fdde03",
					"owner()": "8da5cb5b",
					"renounceOwnership()": "715018a6",
					"symbol()": "95d89b41",
					"totalSupply()": "18160ddd",
					"transfer(address,uint256)": "a9059cbb",
					"transferFrom(address,address,uint256)": "23b872dd",
					"transferOwnership(address)": "f2fde38b",
					"treasuryWallet()": "4626402b"
				}
			},
			"storageLayout": {
				"storage": [
					{
						"astId": 128,
						"contract": "contracts/MemeTokenBase/memetoken.sol:DeflationaryMemeToken",
						"label": "_balances",
						"offset": 0,
						"slot": "0",
						"type": "t_mapping(t_address,t_uint256)"
					},
					{
						"astId": 134,
						"contract": "contracts/MemeTokenBase/memetoken.sol:DeflationaryMemeToken",
						"label": "_allowances",
						"offset": 0,
						"slot": "1",
						"type": "t_mapping(t_address,t_mapping(t_address,t_uint256))"
					},
					{
						"astId": 136,
						"contract": "contracts/MemeTokenBase/memetoken.sol:DeflationaryMemeToken",
						"label": "_totalSupply",
						"offset": 0,
						"slot": "2",
						"type": "t_uint256"
					},
					{
						"astId": 138,
						"contract": "contracts/MemeTokenBase/memetoken.sol:DeflationaryMemeToken",
						"label": "_name",
						"offset": 0,
						"slot": "3",
						"type": "t_string_storage"
					},
					{
						"astId": 140,
						"contract": "contracts/MemeTokenBase/memetoken.sol:DeflationaryMemeToken",
						"label": "_symbol",
						"offset": 0,
						"slot": "4",
						"type": "t_string_storage"
					},
					{
						"astId": 7,
						"contract": "contracts/MemeTokenBase/memetoken.sol:DeflationaryMemeToken",
						"label": "_owner",
						"offset": 0,
						"slot": "5",
						"type": "t_address"
					},
					{
						"astId": 840,
						"contract": "contracts/MemeTokenBase/memetoken.sol:DeflationaryMemeToken",
						"label": "treasuryWallet",
						"offset": 0,
						"slot": "6",
						"type": "t_address"
					},
					{
						"astId": 842,
						"contract": "contracts/MemeTokenBase/memetoken.sol:DeflationaryMemeToken",
						"label": "liquidityWallet",
						"offset": 0,
						"slot": "7",
						"type": "t_address"
					}
				],
				"types": {
					"t_address": {
						"encoding": "inplace",
						"label": "address",
						"numberOfBytes": "20"
					},
					"t_mapping(t_address,t_mapping(t_address,t_uint256))": {
						"encoding": "mapping",
						"key": "t_address",
						"label": "mapping(address => mapping(address => uint256))",
						"numberOfBytes": "32",
						"value": "t_mapping(t_address,t_uint256)"
					},
					"t_mapping(t_address,t_uint256)": {
						"encoding": "mapping",
						"key": "t_address",
						"label": "mapping(address => uint256)",
						"numberOfBytes": "32",
						"value": "t_uint256"
					},
					"t_string_storage": {
						"encoding": "bytes",
						"label": "string",
						"numberOfBytes": "32"
					},
					"t_uint256": {
						"encoding": "inplace",
						"label": "uint256",
						"numberOfBytes": "32"
					}
				}
			},
			"userdoc": {
				"kind": "user",
				"methods": {},
				"version": 1
			}
		}
	}
}