{
	"AndrewTate-testnet.sol.sol": {
		"AndrewTateToken": {
			"abi": [
				{
					"inputs": [],
					"stateMutability": "nonpayable",
					"type": "constructor"
				},
				{
					"anonymous": false,
					"inputs": [
						{
							"indexed": true,
							"internalType": "address",
							"name": "owner",
							"type": "address"
						},
						{
							"indexed": true,
							"internalType": "address",
							"name": "spender",
							"type": "address"
						},
						{
							"indexed": false,
							"internalType": "uint256",
							"name": "value",
							"type": "uint256"
						}
					],
					"name": "Approval",
					"type": "event"
				},
				{
					"anonymous": false,
					"inputs": [
						{
							"indexed": true,
							"internalType": "uint256",
							"name": "epoch",
							"type": "uint256"
						},
						{
							"indexed": false,
							"internalType": "uint256",
							"name": "totalSupply",
							"type": "uint256"
						}
					],
					"name": "LogRebase",
					"type": "event"
				},
				{
					"anonymous": false,
					"inputs": [
						{
							"indexed": true,
							"internalType": "address",
							"name": "account",
							"type": "address"
						}
					],
					"name": "MinterAdded",
					"type": "event"
				},
				{
					"anonymous": false,
					"inputs": [
						{
							"indexed": true,
							"internalType": "address",
							"name": "account",
							"type": "address"
						}
					],
					"name": "MinterRemoved",
					"type": "event"
				},
				{
					"anonymous": false,
					"inputs": [
						{
							"indexed": true,
							"internalType": "address",
							"name": "previousOwner",
							"type": "address"
						}
					],
					"name": "OwnershipRenounced",
					"type": "event"
				},
				{
					"anonymous": false,
					"inputs": [
						{
							"indexed": true,
							"internalType": "address",
							"name": "previousOwner",
							"type": "address"
						},
						{
							"indexed": true,
							"internalType": "address",
							"name": "newOwner",
							"type": "address"
						}
					],
					"name": "OwnershipTransferred",
					"type": "event"
				},
				{
					"anonymous": false,
					"inputs": [
						{
							"indexed": true,
							"internalType": "address",
							"name": "from",
							"type": "address"
						},
						{
							"indexed": true,
							"internalType": "address",
							"name": "to",
							"type": "address"
						},
						{
							"indexed": false,
							"internalType": "uint256",
							"name": "value",
							"type": "uint256"
						}
					],
					"name": "Transfer",
					"type": "event"
				},
				{
					"inputs": [],
					"name": "RiskFreeValue",
					"outputs": [
						{
							"internalType": "uint256",
							"name": "",
							"type": "uint256"
						}
					],
					"stateMutability": "view",
					"type": "function"
				},
				{
					"inputs": [],
					"name": "RiskFreeValueReceiver",
					"outputs": [
						{
							"internalType": "address",
							"name": "",
							"type": "address"
						}
					],
					"stateMutability": "view",
					"type": "function"
				},
				{
					"inputs": [],
					"name": "Treasury",
					"outputs": [
						{
							"internalType": "uint256",
							"name": "",
							"type": "uint256"
						}
					],
					"stateMutability": "view",
					"type": "function"
				},
				{
					"inputs": [],
					"name": "TreasuryReceiver",
					"outputs": [
						{
							"internalType": "address",
							"name": "",
							"type": "address"
						}
					],
					"stateMutability": "view",
					"type": "function"
				},
				{
					"inputs": [
						{
							"internalType": "address",
							"name": "account",
							"type": "address"
						}
					],
					"name": "addMinter",
					"outputs": [],
					"stateMutability": "nonpayable",
					"type": "function"
				},
				{
					"inputs": [
						{
							"internalType": "address",
							"name": "owner_",
							"type": "address"
						},
						{
							"internalType": "address",
							"name": "spender",
							"type": "address"
						}
					],
					"name": "allowance",
					"outputs": [
						{
							"internalType": "uint256",
							"name": "",
							"type": "uint256"
						}
					],
					"stateMutability": "view",
					"type": "function"
				},
				{
					"inputs": [
						{
							"internalType": "address",
							"name": "spender",
							"type": "address"
						},
						{
							"internalType": "uint256",
							"name": "value",
							"type": "uint256"
						}
					],
					"name": "approve",
					"outputs": [
						{
							"internalType": "bool",
							"name": "",
							"type": "bool"
						}
					],
					"stateMutability": "nonpayable",
					"type": "function"
				},
				{
					"inputs": [],
					"name": "autoLiquidityReceiver",
					"outputs": [
						{
							"internalType": "address",
							"name": "",
							"type": "address"
						}
					],
					"stateMutability": "view",
					"type": "function"
				},
				{
					"inputs": [
						{
							"internalType": "address",
							"name": "who",
							"type": "address"
						}
					],
					"name": "balanceOf",
					"outputs": [
						{
							"internalType": "uint256",
							"name": "",
							"type": "uint256"
						}
					],
					"stateMutability": "view",
					"type": "function"
				},
				{
					"inputs": [
						{
							"internalType": "address",
							"name": "",
							"type": "address"
						}
					],
					"name": "blacklist",
					"outputs": [
						{
							"internalType": "bool",
							"name": "",
							"type": "bool"
						}
					],
					"stateMutability": "view",
					"type": "function"
				},
				{
					"inputs": [
						{
							"internalType": "address",
							"name": "_addr",
							"type": "address"
						}
					],
					"name": "checkFeeExempt",
					"outputs": [
						{
							"internalType": "bool",
							"name": "",
							"type": "bool"
						}
					],
					"stateMutability": "view",
					"type": "function"
				},
				{
					"inputs": [],
					"name": "checkSwapThreshold",
					"outputs": [
						{
							"internalType": "uint256",
							"name": "",
							"type": "uint256"
						}
					],
					"stateMutability": "view",
					"type": "function"
				},
				{
					"inputs": [
						{
							"internalType": "uint256",
							"name": "amountPercentage",
							"type": "uint256"
						},
						{
							"internalType": "address",
							"name": "adr",
							"type": "address"
						}
					],
					"name": "clearStuckBalance",
					"outputs": [],
					"stateMutability": "nonpayable",
					"type": "function"
				},
				{
					"inputs": [],
					"name": "decimals",
					"outputs": [
						{
							"internalType": "uint8",
							"name": "",
							"type": "uint8"
						}
					],
					"stateMutability": "view",
					"type": "function"
				},
				{
					"inputs": [
						{
							"internalType": "address",
							"name": "spender",
							"type": "address"
						},
						{
							"internalType": "uint256",
							"name": "subtractedValue",
							"type": "uint256"
						}
					],
					"name": "decreaseAllowance",
					"outputs": [
						{
							"internalType": "bool",
							"name": "",
							"type": "bool"
						}
					],
					"stateMutability": "nonpayable",
					"type": "function"
				},
				{
					"inputs": [
						{
							"internalType": "address",
							"name": "_addr",
							"type": "address"
						}
					],
					"name": "enableTransfer",
					"outputs": [],
					"stateMutability": "nonpayable",
					"type": "function"
				},
				{
					"inputs": [],
					"name": "feeDenominator",
					"outputs": [
						{
							"internalType": "uint256",
							"name": "",
							"type": "uint256"
						}
					],
					"stateMutability": "view",
					"type": "function"
				},
				{
					"inputs": [],
					"name": "getCirculatingSupply",
					"outputs": [
						{
							"internalType": "uint256",
							"name": "",
							"type": "uint256"
						}
					],
					"stateMutability": "view",
					"type": "function"
				},
				{
					"inputs": [
						{
							"internalType": "uint256",
							"name": "accuracy",
							"type": "uint256"
						}
					],
					"name": "getLiquidityBacking",
					"outputs": [
						{
							"internalType": "uint256",
							"name": "",
							"type": "uint256"
						}
					],
					"stateMutability": "view",
					"type": "function"
				},
				{
					"inputs": [
						{
							"internalType": "address",
							"name": "spender",
							"type": "address"
						},
						{
							"internalType": "uint256",
							"name": "addedValue",
							"type": "uint256"
						}
					],
					"name": "increaseAllowance",
					"outputs": [
						{
							"internalType": "bool",
							"name": "",
							"type": "bool"
						}
					],
					"stateMutability": "nonpayable",
					"type": "function"
				},
				{
					"inputs": [],
					"name": "initialDistributionFinished",
					"outputs": [
						{
							"internalType": "bool",
							"name": "",
							"type": "bool"
						}
					],
					"stateMutability": "view",
					"type": "function"
				},
				{
					"inputs": [
						{
							"internalType": "address",
							"name": "account",
							"type": "address"
						}
					],
					"name": "isMinter",
					"outputs": [
						{
							"internalType": "bool",
							"name": "",
							"type": "bool"
						}
					],
					"stateMutability": "view",
					"type": "function"
				},
				{
					"inputs": [],
					"name": "isNotInSwap",
					"outputs": [
						{
							"internalType": "bool",
							"name": "",
							"type": "bool"
						}
					],
					"stateMutability": "view",
					"type": "function"
				},
				{
					"inputs": [
						{
							"internalType": "uint256",
							"name": "target",
							"type": "uint256"
						},
						{
							"internalType": "uint256",
							"name": "accuracy",
							"type": "uint256"
						}
					],
					"name": "isOverLiquified",
					"outputs": [
						{
							"internalType": "bool",
							"name": "",
							"type": "bool"
						}
					],
					"stateMutability": "view",
					"type": "function"
				},
				{
					"inputs": [],
					"name": "isOwner",
					"outputs": [
						{
							"internalType": "bool",
							"name": "",
							"type": "bool"
						}
					],
					"stateMutability": "view",
					"type": "function"
				},
				{
					"inputs": [],
					"name": "liquidityFee",
					"outputs": [
						{
							"internalType": "uint256",
							"name": "",
							"type": "uint256"
						}
					],
					"stateMutability": "view",
					"type": "function"
				},
				{
					"inputs": [],
					"name": "manualSync",
					"outputs": [],
					"stateMutability": "nonpayable",
					"type": "function"
				},
				{
					"inputs": [
						{
							"internalType": "address",
							"name": "recipient",
							"type": "address"
						},
						{
							"internalType": "uint256",
							"name": "amount",
							"type": "uint256"
						}
					],
					"name": "mint",
					"outputs": [],
					"stateMutability": "nonpayable",
					"type": "function"
				},
				{
					"inputs": [],
					"name": "name",
					"outputs": [
						{
							"internalType": "string",
							"name": "",
							"type": "string"
						}
					],
					"stateMutability": "view",
					"type": "function"
				},
				{
					"inputs": [],
					"name": "owner",
					"outputs": [
						{
							"internalType": "address",
							"name": "",
							"type": "address"
						}
					],
					"stateMutability": "view",
					"type": "function"
				},
				{
					"inputs": [],
					"name": "pair",
					"outputs": [
						{
							"internalType": "address",
							"name": "",
							"type": "address"
						}
					],
					"stateMutability": "view",
					"type": "function"
				},
				{
					"inputs": [],
					"name": "pairContract",
					"outputs": [
						{
							"internalType": "contract InterfaceLP",
							"name": "",
							"type": "address"
						}
					],
					"stateMutability": "view",
					"type": "function"
				},
				{
					"inputs": [
						{
							"internalType": "uint256",
							"name": "epoch",
							"type": "uint256"
						},
						{
							"internalType": "int256",
							"name": "supplyDelta",
							"type": "int256"
						}
					],
					"name": "rebase",
					"outputs": [
						{
							"internalType": "uint256",
							"name": "",
							"type": "uint256"
						}
					],
					"stateMutability": "nonpayable",
					"type": "function"
				},
				{
					"inputs": [
						{
							"internalType": "address",
							"name": "account",
							"type": "address"
						}
					],
					"name": "removeMinter",
					"outputs": [],
					"stateMutability": "nonpayable",
					"type": "function"
				},
				{
					"inputs": [],
					"name": "renounceMinter",
					"outputs": [],
					"stateMutability": "nonpayable",
					"type": "function"
				},
				{
					"inputs": [],
					"name": "renounceOwnership",
					"outputs": [],
					"stateMutability": "nonpayable",
					"type": "function"
				},
				{
					"inputs": [
						{
							"internalType": "address",
							"name": "tokenAddress",
							"type": "address"
						},
						{
							"internalType": "uint256",
							"name": "tokens",
							"type": "uint256"
						}
					],
					"name": "rescueToken",
					"outputs": [
						{
							"internalType": "bool",
							"name": "success",
							"type": "bool"
						}
					],
					"stateMutability": "nonpayable",
					"type": "function"
				},
				{
					"inputs": [],
					"name": "router",
					"outputs": [
						{
							"internalType": "contract IDEXRouter",
							"name": "",
							"type": "address"
						}
					],
					"stateMutability": "view",
					"type": "function"
				},
				{
					"inputs": [],
					"name": "sellFee",
					"outputs": [
						{
							"internalType": "uint256",
							"name": "",
							"type": "uint256"
						}
					],
					"stateMutability": "view",
					"type": "function"
				},
				{
					"inputs": [
						{
							"internalType": "address[]",
							"name": "recipients",
							"type": "address[]"
						},
						{
							"internalType": "uint256[]",
							"name": "values",
							"type": "uint256[]"
						}
					],
					"name": "sendPresale",
					"outputs": [],
					"stateMutability": "nonpayable",
					"type": "function"
				},
				{
					"inputs": [
						{
							"internalType": "address",
							"name": "_addr",
							"type": "address"
						}
					],
					"name": "setFeeExempt",
					"outputs": [],
					"stateMutability": "nonpayable",
					"type": "function"
				},
				{
					"inputs": [
						{
							"internalType": "address",
							"name": "_autoLiquidityReceiver",
							"type": "address"
						},
						{
							"internalType": "address",
							"name": "_TreasuryReceiver",
							"type": "address"
						},
						{
							"internalType": "address",
							"name": "_RiskFreeValueReceiver",
							"type": "address"
						}
					],
					"name": "setFeeReceivers",
					"outputs": [],
					"stateMutability": "nonpayable",
					"type": "function"
				},
				{
					"inputs": [
						{
							"internalType": "uint256",
							"name": "_liquidityFee",
							"type": "uint256"
						},
						{
							"internalType": "uint256",
							"name": "_RiskFreeValue",
							"type": "uint256"
						},
						{
							"internalType": "uint256",
							"name": "_Treasury",
							"type": "uint256"
						},
						{
							"internalType": "uint256",
							"name": "_sellFee",
							"type": "uint256"
						},
						{
							"internalType": "uint256",
							"name": "_feeDenominator",
							"type": "uint256"
						}
					],
					"name": "setFees",
					"outputs": [],
					"stateMutability": "nonpayable",
					"type": "function"
				},
				{
					"inputs": [],
					"name": "setInitialDistributionFinished",
					"outputs": [],
					"stateMutability": "nonpayable",
					"type": "function"
				},
				{
					"inputs": [
						{
							"internalType": "address",
							"name": "_address",
							"type": "address"
						}
					],
					"name": "setLP",
					"outputs": [],
					"stateMutability": "nonpayable",
					"type": "function"
				},
				{
					"inputs": [
						{
							"internalType": "bool",
							"name": "_enabled",
							"type": "bool"
						},
						{
							"internalType": "uint256",
							"name": "_num",
							"type": "uint256"
						},
						{
							"internalType": "uint256",
							"name": "_denom",
							"type": "uint256"
						}
					],
					"name": "setSwapBackSettings",
					"outputs": [],
					"stateMutability": "nonpayable",
					"type": "function"
				},
				{
					"inputs": [
						{
							"internalType": "uint256",
							"name": "target",
							"type": "uint256"
						},
						{
							"internalType": "uint256",
							"name": "accuracy",
							"type": "uint256"
						}
					],
					"name": "setTargetLiquidity",
					"outputs": [],
					"stateMutability": "nonpayable",
					"type": "function"
				},
				{
					"inputs": [],
					"name": "swapEnabled",
					"outputs": [
						{
							"internalType": "bool",
							"name": "",
							"type": "bool"
						}
					],
					"stateMutability": "view",
					"type": "function"
				},
				{
					"inputs": [],
					"name": "symbol",
					"outputs": [
						{
							"internalType": "string",
							"name": "",
							"type": "string"
						}
					],
					"stateMutability": "view",
					"type": "function"
				},
				{
					"inputs": [],
					"name": "totalFee",
					"outputs": [
						{
							"internalType": "uint256",
							"name": "",
							"type": "uint256"
						}
					],
					"stateMutability": "view",
					"type": "function"
				},
				{
					"inputs": [],
					"name": "totalSupply",
					"outputs": [
						{
							"internalType": "uint256",
							"name": "",
							"type": "uint256"
						}
					],
					"stateMutability": "view",
					"type": "function"
				},
				{
					"inputs": [
						{
							"internalType": "address",
							"name": "to",
							"type": "address"
						},
						{
							"internalType": "uint256",
							"name": "value",
							"type": "uint256"
						}
					],
					"name": "transfer",
					"outputs": [
						{
							"internalType": "bool",
							"name": "",
							"type": "bool"
						}
					],
					"stateMutability": "nonpayable",
					"type": "function"
				},
				{
					"inputs": [
						{
							"internalType": "address",
							"name": "from",
							"type": "address"
						},
						{
							"internalType": "address",
							"name": "to",
							"type": "address"
						},
						{
							"internalType": "uint256",
							"name": "value",
							"type": "uint256"
						}
					],
					"name": "transferFrom",
					"outputs": [
						{
							"internalType": "bool",
							"name": "",
							"type": "bool"
						}
					],
					"stateMutability": "nonpayable",
					"type": "function"
				},
				{
					"inputs": [
						{
							"internalType": "address",
							"name": "newOwner",
							"type": "address"
						}
					],
					"name": "transferOwnership",
					"outputs": [],
					"stateMutability": "nonpayable",
					"type": "function"
				},
				{
					"inputs": [
						{
							"internalType": "address",
							"name": "_user",
							"type": "address"
						},
						{
							"internalType": "bool",
							"name": "_flag",
							"type": "bool"
						}
					],
					"name": "updateBlacklist",
					"outputs": [],
					"stateMutability": "nonpayable",
					"type": "function"
				},
				{
					"stateMutability": "payable",
					"type": "receive"
				}
			],
			"devdoc": {
				"kind": "dev",
				"methods": {},
				"version": 1
			},
			"evm": {
				"assembly": "    /* \"AndrewTate-testnet.sol.sol\":8436:23993  contract AndrewTateToken is ERC20Detailed, Ownable, MinterRole {\r... */\n  mstore(0x40, 0x80)\n    /* \"AndrewTate-testnet.sol.sol\":9354:9355  5 */\n  0x05\n    /* \"AndrewTate-testnet.sol.sol\":9324:9355  uint256 public liquidityFee = 5 */\n  0x07\n  sstore\n    /* \"AndrewTate-testnet.sol.sol\":9388:9389  3 */\n  0x03\n    /* \"AndrewTate-testnet.sol.sol\":9362:9389  uint256 public Treasury = 3 */\n  0x08\n  sstore\n    /* \"AndrewTate-testnet.sol.sol\":9427:9428  5 */\n  0x05\n    /* \"AndrewTate-testnet.sol.sol\":9396:9428  uint256 public RiskFreeValue = 5 */\n  0x09\n  sstore\n    /* \"AndrewTate-testnet.sol.sol\":9460:9461  5 */\n  0x05\n    /* \"AndrewTate-testnet.sol.sol\":9435:9461  uint256 public sellFee = 5 */\n  0x0a\n  sstore\n    /* \"AndrewTate-testnet.sol.sol\":9503:9548  liquidityFee.add(Treasury).add(RiskFreeValue) */\n  tag_1\n    /* \"AndrewTate-testnet.sol.sol\":9534:9547  RiskFreeValue */\n  sload(0x09)\n    /* \"AndrewTate-testnet.sol.sol\":9503:9529  liquidityFee.add(Treasury) */\n  tag_2\n    /* \"AndrewTate-testnet.sol.sol\":9520:9528  Treasury */\n  sload(0x08)\n    /* \"AndrewTate-testnet.sol.sol\":9503:9515  liquidityFee */\n  sload(0x07)\n    /* \"AndrewTate-testnet.sol.sol\":9503:9519  liquidityFee.add */\n  or(tag_0_281, shl(0x20, tag_3))\n  swap1\n    /* \"AndrewTate-testnet.sol.sol\":9503:9529  liquidityFee.add(Treasury) */\n  swap2\n  swap1\n  0x20\n  shr\n  jump\t// in\ntag_2:\n    /* \"AndrewTate-testnet.sol.sol\":9503:9533  liquidityFee.add(Treasury).add */\n  or(tag_0_281, shl(0x20, tag_3))\n  swap1\n    /* \"AndrewTate-testnet.sol.sol\":9503:9548  liquidityFee.add(Treasury).add(RiskFreeValue) */\n  swap2\n  swap1\n  0x20\n  shr\n  jump\t// in\ntag_1:\n    /* \"AndrewTate-testnet.sol.sol\":9468:9548  uint256 public totalFee =\r... */\n  0x0b\n  sstore\n    /* \"AndrewTate-testnet.sol.sol\":9587:9590  100 */\n  0x64\n    /* \"AndrewTate-testnet.sol.sol\":9555:9590  uint256 public feeDenominator = 100 */\n  0x0c\n  dup2\n  swap1\n  sstore\n    /* \"AndrewTate-testnet.sol.sol\":9599:9656  address DEAD = 0x000000000000000000000000000000000000dEaD */\n  0x0d\n  dup1\n  sload\n  not(sub(shl(0xa0, 0x01), 0x01))\n  swap1\n  dup2\n  and\n    /* \"AndrewTate-testnet.sol.sol\":9614:9656  0x000000000000000000000000000000000000dEaD */\n  0xdead\n    /* \"AndrewTate-testnet.sol.sol\":9599:9656  address DEAD = 0x000000000000000000000000000000000000dEaD */\n  or\n  swap1\n  swap2\n  sstore\n    /* \"AndrewTate-testnet.sol.sol\":9663:9720  address ZERO = 0x0000000000000000000000000000000000000000 */\n  0x0e\n  dup1\n  sload\n  swap1\n  swap2\n  and\n  swap1\n  sstore\n    /* \"AndrewTate-testnet.sol.sol\":9881:9883  50 */\n  0x32\n    /* \"AndrewTate-testnet.sol.sol\":9855:9883  uint256 targetLiquidity = 50 */\n  0x12\n  sstore\n    /* \"AndrewTate-testnet.sol.sol\":9890:9930  uint256 targetLiquidityDenominator = 100 */\n  0x13\n  sstore\n    /* \"AndrewTate-testnet.sol.sol\":9998:10028  bool public swapEnabled = true */\n  0x15\n  dup1\n  sload\n  not(shl(0xa0, 0xff))\n  and\n  shl(0xa0, 0x01)\n  or\n  swap1\n  sstore\n    /* \"AndrewTate-testnet.sol.sol\":10090:10095  10000 */\n  0x2710\n  not(0x1239a002a3db32d57fffffff)\n    /* \"AndrewTate-testnet.sol.sol\":10070:10095  (TOTAL_GONS * 10) / 10000 */\n  div\n    /* \"AndrewTate-testnet.sol.sol\":10035:10095  uint256 private gonSwapThreshold = (TOTAL_GONS * 10) / 10000 */\n  0x16\n  sstore\n    /* \"AndrewTate-testnet.sol.sol\":10646:11806  constructor() ERC20Detailed(\"AndrewTate Token\", \"TOPG\", uint8(DECIMALS)) {\r... */\n  callvalue\n  dup1\n  iszero\n  tag_6\n  jumpi\n  0x00\n  dup1\n  revert\ntag_6:\n  pop\n    /* \"AndrewTate-testnet.sol.sol\":5208:5437  constructor(\r... */\n  0x40\n  dup1\n  mload\n  dup1\n  dup3\n  add\n  dup3\n  mstore\n  0x10\n  dup2\n  mstore\n  shl(0x81, 0x20b7323932bbaa30ba32902a37b5b2b7)\n  0x20\n  dup1\n  dup4\n  add\n  swap2\n  dup3\n  mstore\n  dup4\n  mload\n  dup1\n  dup6\n  add\n  swap1\n  swap5\n  mstore\n  0x04\n  dup5\n  mstore\n  shl(0xe0, 0x544f5047)\n  swap1\n  dup5\n  add\n  mstore\n    /* \"AndrewTate-testnet.sol.sol\":5341:5359  _name = _tokenName */\n  dup2\n  mload\n    /* \"AndrewTate-testnet.sol.sol\":5208:5437  constructor(\r... */\n  swap2\n  swap3\n  swap2\n    /* \"AndrewTate-testnet.sol.sol\":9171:9173  18 */\n  0x12\n  swap2\n    /* \"AndrewTate-testnet.sol.sol\":5341:5359  _name = _tokenName */\n  tag_12\n  swap2\n  0x00\n  swap2\n    /* \"AndrewTate-testnet.sol.sol\":5208:5437  constructor(\r... */\n  swap1\n    /* \"AndrewTate-testnet.sol.sol\":5341:5359  _name = _tokenName */\n  tag_13\n  jump\t// in\ntag_12:\n  pop\n    /* \"AndrewTate-testnet.sol.sol\":5370:5392  _symbol = _tokenSymbol */\n  dup2\n  mload\n  tag_14\n  swap1\n    /* \"AndrewTate-testnet.sol.sol\":5370:5377  _symbol */\n  0x01\n  swap1\n    /* \"AndrewTate-testnet.sol.sol\":5370:5392  _symbol = _tokenSymbol */\n  0x20\n  dup6\n  add\n  swap1\n  tag_13\n  jump\t// in\ntag_14:\n  pop\n    /* \"AndrewTate-testnet.sol.sol\":5403:5412  _decimals */\n  0x02\n    /* \"AndrewTate-testnet.sol.sol\":5403:5429  _decimals = _tokenDecimals */\n  dup1\n  sload\n    /* \"AndrewTate-testnet.sol.sol\":7700:7710  msg.sender */\n  caller\n    /* \"AndrewTate-testnet.sol.sol\":5403:5429  _decimals = _tokenDecimals */\n  0x0100\n    /* \"AndrewTate-testnet.sol.sol\":7691:7710  _owner = msg.sender */\n  dup2\n  mul\n  not(sub(shl(0xa8, 0x01), 0x0100))\n    /* \"AndrewTate-testnet.sol.sol\":5403:5429  _decimals = _tokenDecimals */\n  0xff\n  swap1\n  swap6\n  and\n  not(0xff)\n  swap1\n  swap4\n  and\n  swap3\n  swap1\n  swap3\n  or\n    /* \"AndrewTate-testnet.sol.sol\":7691:7710  _owner = msg.sender */\n  swap4\n  swap1\n  swap4\n  and\n  or\n  swap1\n  sstore\n    /* \"AndrewTate-testnet.sol.sol\":4422:4444  _addMinter(msg.sender) */\n  tag_17\n  swap3\n  pop\n    /* \"AndrewTate-testnet.sol.sol\":7700:7710  msg.sender */\n  swap1\n  pop\n    /* \"AndrewTate-testnet.sol.sol\":4422:4432  _addMinter */\n  tag_18\n    /* \"AndrewTate-testnet.sol.sol\":4422:4444  _addMinter(msg.sender) */\n  jump\t// in\ntag_17:\n    /* \"AndrewTate-testnet.sol.sol\":10730:10736  router */\n  0x14\n    /* \"AndrewTate-testnet.sol.sol\":10730:10793  router = IDEXRouter(0xcEEB22Faf32FF4EAd24565225503807e41E5FE87) */\n  dup1\n  sload\n  not(sub(shl(0xa0, 0x01), 0x01))\n  and\n    /* \"AndrewTate-testnet.sol.sol\":10750:10792  0xcEEB22Faf32FF4EAd24565225503807e41E5FE87 */\n  0xceeb22faf32ff4ead24565225503807e41e5fe87\n    /* \"AndrewTate-testnet.sol.sol\":10730:10793  router = IDEXRouter(0xcEEB22Faf32FF4EAd24565225503807e41E5FE87) */\n  or\n  swap1\n  dup2\n  swap1\n  sstore\n    /* \"AndrewTate-testnet.sol.sol\":10932:10948  router.factory() */\n  0x40\n  dup1\n  mload\n  shl(0xe0, 0xc45a0155)\n  dup2\n  mstore\n  swap1\n  mload\n  sub(shl(0xa0, 0x01), 0x01)\n    /* \"AndrewTate-testnet.sol.sol\":10932:10938  router */\n  swap3\n  swap1\n  swap3\n  and\n  swap2\n    /* \"AndrewTate-testnet.sol.sol\":10932:10946  router.factory */\n  0xc45a0155\n  swap2\n    /* \"AndrewTate-testnet.sol.sol\":10932:10948  router.factory() */\n  0x04\n  dup1\n  dup3\n  add\n  swap3\n  0x20\n  swap3\n  swap1\n  swap2\n  swap1\n  dup3\n  swap1\n  sub\n  add\n  dup2\n    /* \"AndrewTate-testnet.sol.sol\":10932:10938  router */\n  dup7\n    /* \"AndrewTate-testnet.sol.sol\":10932:10948  router.factory() */\n  dup1\n  extcodesize\n  iszero\n  dup1\n  iszero\n  tag_20\n  jumpi\n  0x00\n  dup1\n  revert\ntag_20:\n  pop\n  gas\n  staticcall\n  iszero\n  dup1\n  iszero\n  tag_22\n  jumpi\n  returndatasize\n  0x00\n  dup1\n  returndatacopy\n  revert(0x00, returndatasize)\ntag_22:\n  pop\n  pop\n  pop\n  pop\n  mload(0x40)\n  returndatasize\n  0x20\n  dup2\n  lt\n  iszero\n  tag_23\n  jumpi\n  0x00\n  dup1\n  revert\ntag_23:\n  pop\n  mload\n    /* \"AndrewTate-testnet.sol.sol\":10975:10981  router */\n  sload(0x14)\n    /* \"AndrewTate-testnet.sol.sol\":10975:10988  router.WETH() */\n  0x40\n  dup1\n  mload\n  shl(0xe3, 0x15ab88c9)\n  dup2\n  mstore\n  swap1\n  mload\n  sub(shl(0xa0, 0x01), 0x01)\n    /* \"AndrewTate-testnet.sol.sol\":10920:10960  IDEXFactory(router.factory()).createPair */\n  swap4\n  dup5\n  and\n  swap4\n  0xc9c65396\n  swap4\n    /* \"AndrewTate-testnet.sol.sol\":10975:10981  router */\n  and\n  swap2\n    /* \"AndrewTate-testnet.sol.sol\":10975:10986  router.WETH */\n  0xad5c4648\n  swap2\n    /* \"AndrewTate-testnet.sol.sol\":10975:10988  router.WETH() */\n  0x04\n  dup1\n  dup4\n  add\n  swap3\n    /* \"AndrewTate-testnet.sol.sol\":10932:10948  router.factory() */\n  0x20\n  swap3\n    /* \"AndrewTate-testnet.sol.sol\":10975:10988  router.WETH() */\n  swap2\n  swap1\n  dup3\n  swap1\n  sub\n  add\n  dup2\n    /* \"AndrewTate-testnet.sol.sol\":10975:10981  router */\n  dup7\n    /* \"AndrewTate-testnet.sol.sol\":10975:10988  router.WETH() */\n  dup1\n  extcodesize\n  iszero\n  dup1\n  iszero\n  tag_24\n  jumpi\n  0x00\n  dup1\n  revert\ntag_24:\n  pop\n  gas\n  staticcall\n  iszero\n  dup1\n  iszero\n  tag_26\n  jumpi\n  returndatasize\n  0x00\n  dup1\n  returndatacopy\n  revert(0x00, returndatasize)\ntag_26:\n  pop\n  pop\n  pop\n  pop\n  mload(0x40)\n  returndatasize\n  0x20\n  dup2\n  lt\n  iszero\n  tag_27\n  jumpi\n  0x00\n  dup1\n  revert\ntag_27:\n  pop\n  mload\n    /* \"AndrewTate-testnet.sol.sol\":10920:11027  IDEXFactory(router.factory()).createPair(\r... */\n  0x40\n  dup1\n  mload\n  not(sub(shl(0xe0, 0x01), 0x01))\n  0xe0\n  dup6\n  swap1\n  shl\n  and\n  dup2\n  mstore\n  sub(shl(0xa0, 0x01), 0x01)\n  swap1\n  swap3\n  and\n  0x04\n  dup4\n  add\n  mstore\n    /* \"AndrewTate-testnet.sol.sol\":11011:11015  this */\n  address\n    /* \"AndrewTate-testnet.sol.sol\":10920:11027  IDEXFactory(router.factory()).createPair(\r... */\n  0x24\n  dup4\n  add\n  mstore\n  mload\n  0x44\n  dup1\n  dup4\n  add\n  swap3\n    /* \"AndrewTate-testnet.sol.sol\":10975:10988  router.WETH() */\n  0x20\n  swap3\n    /* \"AndrewTate-testnet.sol.sol\":10920:11027  IDEXFactory(router.factory()).createPair(\r... */\n  swap2\n  swap1\n  dup3\n  swap1\n  sub\n  add\n  dup2\n  0x00\n  dup8\n  dup1\n  extcodesize\n  iszero\n  dup1\n  iszero\n  tag_28\n  jumpi\n  0x00\n  dup1\n  revert\ntag_28:\n  pop\n  gas\n  call\n  iszero\n  dup1\n  iszero\n  tag_30\n  jumpi\n  returndatasize\n  0x00\n  dup1\n  returndatacopy\n  revert(0x00, returndatasize)\ntag_30:\n  pop\n  pop\n  pop\n  pop\n  mload(0x40)\n  returndatasize\n  0x20\n  dup2\n  lt\n  iszero\n  tag_31\n  jumpi\n  0x00\n  dup1\n  revert\ntag_31:\n  pop\n  mload\n    /* \"AndrewTate-testnet.sol.sol\":10913:10917  pair */\n  0x15\n    /* \"AndrewTate-testnet.sol.sol\":10913:11027  pair = IDEXFactory(router.factory()).createPair(\r... */\n  dup1\n  sload\n  sub(shl(0xa0, 0x01), 0x01)\n  swap3\n  dup4\n  and\n  not(sub(shl(0xa0, 0x01), 0x01))\n  swap2\n  dup3\n  and\n  or\n  dup3\n  sstore\n    /* \"AndrewTate-testnet.sol.sol\":11040:11061  autoLiquidityReceiver */\n  0x0f\n    /* \"AndrewTate-testnet.sol.sol\":11040:11106  autoLiquidityReceiver = 0x2C604d9E15e6524F0bB2a2A22F63a7Ca041e84C3 */\n  dup1\n  sload\n  dup3\n  and\n    /* \"AndrewTate-testnet.sol.sol\":11064:11106  0x2C604d9E15e6524F0bB2a2A22F63a7Ca041e84C3 */\n  0x2c604d9e15e6524f0bb2a2a22f63a7ca041e84c3\n    /* \"AndrewTate-testnet.sol.sol\":11040:11106  autoLiquidityReceiver = 0x2C604d9E15e6524F0bB2a2A22F63a7Ca041e84C3 */\n  or\n  swap1\n  sstore\n    /* \"AndrewTate-testnet.sol.sol\":11117:11133  TreasuryReceiver */\n  0x10\n    /* \"AndrewTate-testnet.sol.sol\":11117:11178  TreasuryReceiver = 0xcC5e043C5142033a800A72286356317dAcb57A77 */\n  dup1\n  sload\n  dup3\n  and\n    /* \"AndrewTate-testnet.sol.sol\":11136:11178  0xcC5e043C5142033a800A72286356317dAcb57A77 */\n  0xcc5e043c5142033a800a72286356317dacb57a77\n    /* \"AndrewTate-testnet.sol.sol\":11117:11178  TreasuryReceiver = 0xcC5e043C5142033a800A72286356317dAcb57A77 */\n  or\n  dup2\n  sstore\n    /* \"AndrewTate-testnet.sol.sol\":11189:11210  RiskFreeValueReceiver */\n  0x11\n    /* \"AndrewTate-testnet.sol.sol\":11189:11255  RiskFreeValueReceiver = 0x833123d7AF220758a5484887aC582d4D39e9Ede0 */\n  dup1\n  sload\n  dup4\n  and\n    /* \"AndrewTate-testnet.sol.sol\":11213:11255  0x833123d7AF220758a5484887aC582d4D39e9Ede0 */\n  0x833123d7af220758a5484887ac582d4d39e9ede0\n    /* \"AndrewTate-testnet.sol.sol\":11189:11255  RiskFreeValueReceiver = 0x833123d7AF220758a5484887aC582d4D39e9Ede0 */\n  or\n  swap1\n  sstore\n    /* \"AndrewTate-testnet.sol.sol\":11294:11298  this */\n  address\n  0x00\n    /* \"AndrewTate-testnet.sol.sol\":11268:11300  _allowedFragments[address(this)] */\n  swap1\n  dup2\n  mstore\n    /* \"AndrewTate-testnet.sol.sol\":11268:11285  _allowedFragments */\n  0x1b\n    /* \"AndrewTate-testnet.sol.sol\":10920:11027  IDEXFactory(router.factory()).createPair(\r... */\n  0x20\n    /* \"AndrewTate-testnet.sol.sol\":11268:11300  _allowedFragments[address(this)] */\n  swap1\n  dup2\n  mstore\n  0x40\n  dup1\n  dup4\n  keccak256\n    /* \"AndrewTate-testnet.sol.sol\":11309:11315  router */\n  sload(0x14)\n  dup9\n  and\n    /* \"AndrewTate-testnet.sol.sol\":11268:11317  _allowedFragments[address(this)][address(router)] */\n  dup5\n  mstore\n  dup3\n  mstore\n  dup1\n  dup4\n  keccak256\n  not(0x00)\n    /* \"AndrewTate-testnet.sol.sol\":11268:11331  _allowedFragments[address(this)][address(router)] = uint256(-1) */\n  swap1\n  sstore\n    /* \"AndrewTate-testnet.sol.sol\":11369:11373  pair */\n  swap5\n  sload\n  0x04\n    /* \"AndrewTate-testnet.sol.sol\":11342:11374  pairContract = InterfaceLP(pair) */\n  dup1\n  sload\n  swap1\n  swap6\n  and\n    /* \"AndrewTate-testnet.sol.sol\":11369:11373  pair */\n  swap1\n  dup8\n  and\n    /* \"AndrewTate-testnet.sol.sol\":11342:11374  pairContract = InterfaceLP(pair) */\n  or\n  swap1\n  swap4\n  sstore\n    /* \"AndrewTate-testnet.sol.sol\":9291:9315  4 * 10**9 * 10**DECIMALS */\n  0x0cecb8f27f4200f3a0000000\n    /* \"AndrewTate-testnet.sol.sol\":11387:11399  _totalSupply */\n  0x18\n    /* \"AndrewTate-testnet.sol.sol\":11387:11426  _totalSupply = INITIAL_FRAGMENTS_SUPPLY */\n  swap1\n  dup2\n  sstore\n    /* \"AndrewTate-testnet.sol.sol\":11450:11466  TreasuryReceiver */\n  swap2\n  sload\n  swap1\n  swap5\n  and\n    /* \"AndrewTate-testnet.sol.sol\":11437:11467  _gonBalances[TreasuryReceiver] */\n  dup5\n  mstore\n    /* \"AndrewTate-testnet.sol.sol\":11437:11449  _gonBalances */\n  0x1a\n    /* \"AndrewTate-testnet.sol.sol\":11437:11467  _gonBalances[TreasuryReceiver] */\n  dup3\n  mstore\n  swap2\n  swap1\n  swap3\n  keccak256\n  not(0x01d290004395eb7bbfffffff)\n    /* \"AndrewTate-testnet.sol.sol\":11437:11480  _gonBalances[TreasuryReceiver] = TOTAL_GONS */\n  swap1\n  dup2\n  swap1\n  sstore\n    /* \"AndrewTate-testnet.sol.sol\":11525:11537  _totalSupply */\n  swap1\n  sload\n    /* \"AndrewTate-testnet.sol.sol\":11510:11538  TOTAL_GONS.div(_totalSupply) */\n  tag_33\n  swap3\n    /* \"AndrewTate-testnet.sol.sol\":11510:11524  TOTAL_GONS.div */\n  tag_35\n  dup2\n  shl\n  tag_0_282\n  or\n    /* \"AndrewTate-testnet.sol.sol\":11510:11538  TOTAL_GONS.div(_totalSupply) */\n  swap1\n  shr\n  jump\t// in\ntag_33:\n    /* \"AndrewTate-testnet.sol.sol\":11491:11507  _gonsPerFragment */\n  0x19\n    /* \"AndrewTate-testnet.sol.sol\":11491:11538  _gonsPerFragment = TOTAL_GONS.div(_totalSupply) */\n  sstore\n    /* \"AndrewTate-testnet.sol.sol\":11551:11578  initialDistributionFinished */\n  0x04\n    /* \"AndrewTate-testnet.sol.sol\":11551:11586  initialDistributionFinished = false */\n  dup1\n  sload\n  not(shl(0xa0, 0xff))\n  and\n  swap1\n  sstore\n    /* \"AndrewTate-testnet.sol.sol\":11610:11626  TreasuryReceiver */\n  0x10\n  dup1\n  sload\n  sub(shl(0xa0, 0x01), 0x01)\n  swap1\n  dup2\n  and\n    /* \"AndrewTate-testnet.sol.sol\":11581:11586  false */\n  0x00\n    /* \"AndrewTate-testnet.sol.sol\":11597:11627  _isFeeExempt[TreasuryReceiver] */\n  swap1\n  dup2\n  mstore\n    /* \"AndrewTate-testnet.sol.sol\":11597:11609  _isFeeExempt */\n  0x06\n    /* \"AndrewTate-testnet.sol.sol\":11597:11627  _isFeeExempt[TreasuryReceiver] */\n  0x20\n  mstore\n  0x40\n  dup1\n  dup3\n  keccak256\n    /* \"AndrewTate-testnet.sol.sol\":11597:11634  _isFeeExempt[TreasuryReceiver] = true */\n  dup1\n  sload\n  not(0xff)\n  swap1\n  dup2\n  and\n    /* \"AndrewTate-testnet.sol.sol\":11551:11586  initialDistributionFinished = false */\n  0x01\n    /* \"AndrewTate-testnet.sol.sol\":11597:11634  _isFeeExempt[TreasuryReceiver] = true */\n  swap1\n  dup2\n  or\n  swap1\n  swap3\n  sstore\n    /* \"AndrewTate-testnet.sol.sol\":11666:11670  this */\n  address\n    /* \"AndrewTate-testnet.sol.sol\":11645:11672  _isFeeExempt[address(this)] */\n  dup5\n  mstore\n  swap2\n  swap1\n  swap3\n  keccak256\n    /* \"AndrewTate-testnet.sol.sol\":11645:11679  _isFeeExempt[address(this)] = true */\n  dup1\n  sload\n  swap1\n  swap2\n  and\n  swap1\n  swap2\n  or\n  swap1\n  sstore\n    /* \"AndrewTate-testnet.sol.sol\":11711:11727  TreasuryReceiver */\n  swap1\n  sload\n    /* \"AndrewTate-testnet.sol.sol\":11692:11728  _transferOwnership(TreasuryReceiver) */\n  tag_36\n  swap2\n    /* \"AndrewTate-testnet.sol.sol\":11711:11727  TreasuryReceiver */\n  and\n    /* \"AndrewTate-testnet.sol.sol\":11692:11710  _transferOwnership */\n  tag_37\n    /* \"AndrewTate-testnet.sol.sol\":11692:11728  _transferOwnership(TreasuryReceiver) */\n  jump\t// in\ntag_36:\n    /* \"AndrewTate-testnet.sol.sol\":11767:11783  TreasuryReceiver */\n  sload(0x10)\n    /* \"AndrewTate-testnet.sol.sol\":11785:11797  _totalSupply */\n  sload(0x18)\n    /* \"AndrewTate-testnet.sol.sol\":11744:11798  Transfer(address(0x0), TreasuryReceiver, _totalSupply) */\n  0x40\n  dup1\n  mload\n  swap2\n  dup3\n  mstore\n  mload\n  sub(shl(0xa0, 0x01), 0x01)\n    /* \"AndrewTate-testnet.sol.sol\":11767:11783  TreasuryReceiver */\n  swap1\n  swap3\n  and\n  swap2\n  0x00\n  swap2\n    /* \"AndrewTate-testnet.sol.sol\":11744:11798  Transfer(address(0x0), TreasuryReceiver, _totalSupply) */\n  0xddf252ad1be2c89b69c2b068fc378daa952ba7f163c4a11628f55a4df523b3ef\n  swap2\n  swap1\n  dup2\n  swap1\n  sub\n  0x20\n  add\n  swap1\n  log3\n    /* \"AndrewTate-testnet.sol.sol\":8436:23993  contract AndrewTateToken is ERC20Detailed, Ownable, MinterRole {\r... */\n  jump(tag_38)\n    /* \"AndrewTate-testnet.sol.sol\":1900:2081  function add(uint256 a, uint256 b) internal pure returns (uint256) {\r... */\ntag_3:\n    /* \"AndrewTate-testnet.sol.sol\":1958:1965  uint256 */\n  0x00\n    /* \"AndrewTate-testnet.sol.sol\":1990:1995  a + b */\n  dup3\n  dup3\n  add\n    /* \"AndrewTate-testnet.sol.sol\":2014:2020  c >= a */\n  dup4\n  dup2\n  lt\n  iszero\n    /* \"AndrewTate-testnet.sol.sol\":2006:2052  require(c >= a, \"SafeMath: addition overflow\") */\n  tag_40\n  jumpi\n  0x40\n  dup1\n  mload\n  shl(0xe5, 0x461bcd)\n  dup2\n  mstore\n  0x20\n  0x04\n  dup3\n  add\n  mstore\n  0x1b\n  0x24\n  dup3\n  add\n  mstore\n  0x536166654d6174683a206164646974696f6e206f766572666c6f770000000000\n  0x44\n  dup3\n  add\n  mstore\n  swap1\n  mload\n  swap1\n  dup2\n  swap1\n  sub\n  0x64\n  add\n  swap1\n  revert\ntag_40:\n    /* \"AndrewTate-testnet.sol.sol\":2072:2073  c */\n  swap4\n    /* \"AndrewTate-testnet.sol.sol\":1900:2081  function add(uint256 a, uint256 b) internal pure returns (uint256) {\r... */\n  swap3\n  pop\n  pop\n  pop\n  jump\t// out\n    /* \"AndrewTate-testnet.sol.sol\":4804:4926  function _addMinter(address account) internal {\r... */\ntag_18:\n    /* \"AndrewTate-testnet.sol.sol\":4861:4882  _minters.add(account) */\n  tag_42\n    /* \"AndrewTate-testnet.sol.sol\":4874:4881  account */\n  dup2\n    /* \"AndrewTate-testnet.sol.sol\":4861:4869  _minters */\n  0x03\n    /* \"AndrewTate-testnet.sol.sol\":4861:4873  _minters.add */\n  or(tag_0_283, shl(0x20, tag_43))\n  swap1\n    /* \"AndrewTate-testnet.sol.sol\":4861:4882  _minters.add(account) */\n  swap2\n  swap1\n  0x20\n  shr\n  jump\t// in\ntag_42:\n    /* \"AndrewTate-testnet.sol.sol\":4898:4918  MinterAdded(account) */\n  mload(0x40)\n  sub(shl(0xa0, 0x01), 0x01)\n  dup3\n  and\n  swap1\n  0x6ae172837ea30b801fbfcdd4108aa1d5bf8ff775444fd70256b44e6bf3dfc3f6\n  swap1\n  0x00\n  swap1\n  log2\n    /* \"AndrewTate-testnet.sol.sol\":4804:4926  function _addMinter(address account) internal {\r... */\n  pop\n  jump\t// out\n    /* \"AndrewTate-testnet.sol.sol\":2725:2857  function div(uint256 a, uint256 b) internal pure returns (uint256) {\r... */\ntag_35:\n    /* \"AndrewTate-testnet.sol.sol\":2783:2790  uint256 */\n  0x00\n    /* \"AndrewTate-testnet.sol.sol\":2810:2849  div(a, b, \"SafeMath: division by zero\") */\n  tag_40\n    /* \"AndrewTate-testnet.sol.sol\":2814:2815  a */\n  dup4\n    /* \"AndrewTate-testnet.sol.sol\":2817:2818  b */\n  dup4\n    /* \"AndrewTate-testnet.sol.sol\":2810:2849  div(a, b, \"SafeMath: division by zero\") */\n  mload(0x40)\n  dup1\n  0x40\n  add\n  0x40\n  mstore\n  dup1\n  0x1a\n  dup2\n  mstore\n  0x20\n  add\n  0x536166654d6174683a206469766973696f6e206279207a65726f000000000000\n  dup2\n  mstore\n  pop\n    /* \"AndrewTate-testnet.sol.sol\":2810:2813  div */\n  shl(0x20, tag_46)\n    /* \"AndrewTate-testnet.sol.sol\":2810:2849  div(a, b, \"SafeMath: division by zero\") */\n  0x20\n  shr\n  jump\t// in\n    /* \"AndrewTate-testnet.sol.sol\":8242:8429  function _transferOwnership(address newOwner) internal {\r... */\ntag_37:\n  sub(shl(0xa0, 0x01), 0x01)\n    /* \"AndrewTate-testnet.sol.sol\":8316:8338  newOwner != address(0) */\n  dup2\n  and\n    /* \"AndrewTate-testnet.sol.sol\":8308:8339  require(newOwner != address(0)) */\n  tag_48\n  jumpi\n  0x00\n  dup1\n  revert\ntag_48:\n    /* \"AndrewTate-testnet.sol.sol\":8376:8382  _owner */\n  sload(0x02)\n    /* \"AndrewTate-testnet.sol.sol\":8355:8393  OwnershipTransferred(_owner, newOwner) */\n  mload(0x40)\n  sub(shl(0xa0, 0x01), 0x01)\n  dup1\n  dup5\n  and\n  swap3\n    /* \"AndrewTate-testnet.sol.sol\":8376:8382  _owner */\n  0x0100\n  swap1\n  div\n  and\n  swap1\n    /* \"AndrewTate-testnet.sol.sol\":8355:8393  OwnershipTransferred(_owner, newOwner) */\n  0x8be0079c531659141344cd1fd0a4f28419497f9722a3daafe3b4186f6b6457e0\n  swap1\n  0x00\n  swap1\n  log3\n    /* \"AndrewTate-testnet.sol.sol\":8404:8410  _owner */\n  0x02\n    /* \"AndrewTate-testnet.sol.sol\":8404:8421  _owner = newOwner */\n  dup1\n  sload\n  sub(shl(0xa0, 0x01), 0x01)\n  swap1\n  swap3\n  and\n  0x0100\n  mul\n  not(sub(shl(0xa8, 0x01), 0x0100))\n  swap1\n  swap3\n  and\n  swap2\n  swap1\n  swap2\n  or\n  swap1\n  sstore\n    /* \"AndrewTate-testnet.sol.sol\":8242:8429  function _transferOwnership(address newOwner) internal {\r... */\n  jump\t// out\n    /* \"AndrewTate-testnet.sol.sol\":3450:3628  function add(Role storage role, address account) internal {\r... */\ntag_43:\n    /* \"AndrewTate-testnet.sol.sol\":3528:3546  has(role, account) */\n  tag_50\n    /* \"AndrewTate-testnet.sol.sol\":3532:3536  role */\n  dup3\n    /* \"AndrewTate-testnet.sol.sol\":3538:3545  account */\n  dup3\n    /* \"AndrewTate-testnet.sol.sol\":3528:3531  has */\n  tag_51\n    /* \"AndrewTate-testnet.sol.sol\":3528:3546  has(role, account) */\n  jump\t// in\ntag_50:\n    /* \"AndrewTate-testnet.sol.sol\":3527:3546  !has(role, account) */\n  iszero\n    /* \"AndrewTate-testnet.sol.sol\":3519:3582  require(!has(role, account), \"Roles: account already has role\") */\n  tag_52\n  jumpi\n  0x40\n  dup1\n  mload\n  shl(0xe5, 0x461bcd)\n  dup2\n  mstore\n  0x20\n  0x04\n  dup3\n  add\n  mstore\n  0x1f\n  0x24\n  dup3\n  add\n  mstore\n  0x526f6c65733a206163636f756e7420616c72656164792068617320726f6c6500\n  0x44\n  dup3\n  add\n  mstore\n  swap1\n  mload\n  swap1\n  dup2\n  swap1\n  sub\n  0x64\n  add\n  swap1\n  revert\ntag_52:\n  sub(shl(0xa0, 0x01), 0x01)\n    /* \"AndrewTate-testnet.sol.sol\":3593:3613  role.bearer[account] */\n  and\n    /* \"AndrewTate-testnet.sol.sol\":3593:3604  role.bearer */\n  0x00\n    /* \"AndrewTate-testnet.sol.sol\":3593:3613  role.bearer[account] */\n  swap1\n  dup2\n  mstore\n  0x20\n  swap2\n  swap1\n  swap2\n  mstore\n  0x40\n  swap1\n  keccak256\n    /* \"AndrewTate-testnet.sol.sol\":3593:3620  role.bearer[account] = true */\n  dup1\n  sload\n  not(0xff)\n  and\n    /* \"AndrewTate-testnet.sol.sol\":3616:3620  true */\n  0x01\n    /* \"AndrewTate-testnet.sol.sol\":3593:3620  role.bearer[account] = true */\n  or\n  swap1\n  sstore\n    /* \"AndrewTate-testnet.sol.sol\":3450:3628  function add(Role storage role, address account) internal {\r... */\n  jump\t// out\n    /* \"AndrewTate-testnet.sol.sol\":2865:3090  function div(\r... */\ntag_46:\n    /* \"AndrewTate-testnet.sol.sol\":2985:2992  uint256 */\n  0x00\n    /* \"AndrewTate-testnet.sol.sol\":3020:3032  errorMessage */\n  dup2\n    /* \"AndrewTate-testnet.sol.sol\":3013:3018  b > 0 */\n  dup4\n    /* \"AndrewTate-testnet.sol.sol\":3005:3033  require(b > 0, errorMessage) */\n  tag_54\n  jumpi\n  mload(0x40)\n  shl(0xe5, 0x461bcd)\n  dup2\n  mstore\n  0x04\n  add\n  dup1\n  dup1\n  0x20\n  add\n  dup3\n  dup2\n  sub\n  dup3\n  mstore\n  dup4\n  dup2\n  dup2\n  mload\n  dup2\n  mstore\n  0x20\n  add\n  swap2\n  pop\n  dup1\n  mload\n  swap1\n  0x20\n  add\n  swap1\n  dup1\n  dup4\n  dup4\n  0x00\ntag_55:\n  dup4\n  dup2\n  lt\n  iszero\n  tag_57\n  jumpi\n  dup2\n  dup2\n  add\n  mload\n  dup4\n  dup3\n  add\n  mstore\n  0x20\n  add\n  jump(tag_55)\ntag_57:\n  pop\n  pop\n  pop\n  pop\n  swap1\n  pop\n  swap1\n  dup2\n  add\n  swap1\n  0x1f\n  and\n  dup1\n  iszero\n  tag_58\n  jumpi\n  dup1\n  dup3\n  sub\n  dup1\n  mload\n  0x01\n  dup4\n  0x20\n  sub\n  0x0100\n  exp\n  sub\n  not\n  and\n  dup2\n  mstore\n  0x20\n  add\n  swap2\n  pop\ntag_58:\n  pop\n  swap3\n  pop\n  pop\n  pop\n  mload(0x40)\n  dup1\n  swap2\n  sub\n  swap1\n  revert\ntag_54:\n  pop\n    /* \"AndrewTate-testnet.sol.sol\":3044:3053  uint256 c */\n  0x00\n    /* \"AndrewTate-testnet.sol.sol\":3060:3061  b */\n  dup4\n    /* \"AndrewTate-testnet.sol.sol\":3056:3057  a */\n  dup6\n    /* \"AndrewTate-testnet.sol.sol\":3056:3061  a / b */\n  dup2\n  tag_59\n  jumpi\n  invalid\ntag_59:\n  div\n  swap6\n    /* \"AndrewTate-testnet.sol.sol\":2865:3090  function div(\r... */\n  swap5\n  pop\n  pop\n  pop\n  pop\n  pop\n  jump\t// out\n    /* \"AndrewTate-testnet.sol.sol\":3986:4189  function has(Role storage role, address account) internal view returns (bool) {\r... */\ntag_51:\n    /* \"AndrewTate-testnet.sol.sol\":4058:4062  bool */\n  0x00\n  sub(shl(0xa0, 0x01), 0x01)\n    /* \"AndrewTate-testnet.sol.sol\":4083:4104  account != address(0) */\n  dup3\n  and\n    /* \"AndrewTate-testnet.sol.sol\":4075:4143  require(account != address(0), \"Roles: account is the zero address\") */\n  tag_61\n  jumpi\n  mload(0x40)\n  shl(0xe5, 0x461bcd)\n  dup2\n  mstore\n  0x04\n  add\n  dup1\n  dup1\n  0x20\n  add\n  dup3\n  dup2\n  sub\n  dup3\n  mstore\n  0x22\n  dup2\n  mstore\n  0x20\n  add\n  dup1\n  data_9d214fa89563f4e6456a3929327e54500ea1cde2c0ba9fb2035ec106190d682f\n  0x22\n  swap2\n  codecopy\n  0x40\n  add\n  swap2\n  pop\n  pop\n  mload(0x40)\n  dup1\n  swap2\n  sub\n  swap1\n  revert\ntag_61:\n  pop\n  sub(shl(0xa0, 0x01), 0x01)\n    /* \"AndrewTate-testnet.sol.sol\":4161:4181  role.bearer[account] */\n  and\n    /* \"AndrewTate-testnet.sol.sol\":4161:4172  role.bearer */\n  0x00\n    /* \"AndrewTate-testnet.sol.sol\":4161:4181  role.bearer[account] */\n  swap1\n  dup2\n  mstore\n  0x20\n  swap2\n  swap1\n  swap2\n  mstore\n  0x40\n  swap1\n  keccak256\n  sload\n  0xff\n  and\n  swap1\n    /* \"AndrewTate-testnet.sol.sol\":3986:4189  function has(Role storage role, address account) internal view returns (bool) {\r... */\n  jump\t// out\n    /* \"AndrewTate-testnet.sol.sol\":8436:23993  contract AndrewTateToken is ERC20Detailed, Ownable, MinterRole {\r... */\ntag_13:\n  dup3\n  dup1\n  sload\n  0x01\n  dup2\n  0x01\n  and\n  iszero\n  0x0100\n  mul\n  sub\n  and\n  0x02\n  swap1\n  div\n  swap1\n  0x00\n  mstore\n  keccak256(0x00, 0x20)\n  swap1\n  0x1f\n  add\n  0x20\n  swap1\n  div\n  dup2\n  add\n  swap3\n  dup3\n  tag_63\n  jumpi\n  0x00\n  dup6\n  sstore\n  jump(tag_66)\ntag_63:\n  dup3\n  0x1f\n  lt\n  tag_64\n  jumpi\n  dup1\n  mload\n  not(0xff)\n  and\n  dup4\n  dup1\n  add\n  or\n  dup6\n  sstore\n  jump(tag_66)\ntag_64:\n  dup3\n  dup1\n  add\n  0x01\n  add\n  dup6\n  sstore\n  dup3\n  iszero\n  tag_66\n  jumpi\n  swap2\n  dup3\n  add\ntag_65:\n  dup3\n  dup2\n  gt\n  iszero\n  tag_66\n  jumpi\n  dup3\n  mload\n  dup3\n  sstore\n  swap2\n  0x20\n  add\n  swap2\n  swap1\n  0x01\n  add\n  swap1\n  jump(tag_65)\ntag_66:\n  pop\n  tag_67\n  swap3\n  swap2\n  pop\n  tag_68\n  jump\t// in\ntag_67:\n  pop\n  swap1\n  jump\t// out\ntag_68:\ntag_69:\n  dup1\n  dup3\n  gt\n  iszero\n  tag_67\n  jumpi\n  0x00\n  dup2\n  sstore\n  0x01\n  add\n  jump(tag_69)\ntag_38:\n  dataSize(sub_0)\n  dup1\n  dataOffset(sub_0)\n  0x00\n  codecopy\n  0x00\n  return\nstop\ndata_9d214fa89563f4e6456a3929327e54500ea1cde2c0ba9fb2035ec106190d682f 526f6c65733a206163636f756e7420697320746865207a65726f2061646472657373\n\nsub_0: assembly {\n        /* \"AndrewTate-testnet.sol.sol\":8436:23993  contract AndrewTateToken is ERC20Detailed, Ownable, MinterRole {\r... */\n      mstore(0x40, 0x80)\n      jumpi(tag_1, lt(calldatasize, 0x04))\n      shr(0xe0, calldataload(0x00))\n      dup1\n      0x7a43e23f\n      gt\n      tag_58\n      jumpi\n      dup1\n      0xbda5c8bb\n      gt\n      tag_59\n      jumpi\n      dup1\n      0xd5938aac\n      gt\n      tag_60\n      jumpi\n      dup1\n      0xdd62ed3e\n      gt\n      tag_61\n      jumpi\n      dup1\n      0xdd62ed3e\n      eq\n      tag_54\n      jumpi\n      dup1\n      0xf2fde38b\n      eq\n      tag_55\n      jumpi\n      dup1\n      0xf887ea40\n      eq\n      tag_56\n      jumpi\n      dup1\n      0xf9f92be4\n      eq\n      tag_57\n      jumpi\n      jump(tag_2)\n    tag_61:\n      dup1\n      0xd5938aac\n      eq\n      tag_51\n      jumpi\n      dup1\n      0xd7ac6585\n      eq\n      tag_52\n      jumpi\n      dup1\n      0xd7c01032\n      eq\n      tag_53\n      jumpi\n      jump(tag_2)\n    tag_60:\n      dup1\n      0xd1fce264\n      gt\n      tag_62\n      jumpi\n      dup1\n      0xd1fce264\n      eq\n      tag_47\n      jumpi\n      dup1\n      0xd37e219d\n      eq\n      tag_48\n      jumpi\n      dup1\n      0xd4399790\n      eq\n      tag_49\n      jumpi\n      dup1\n      0xd51ed1c8\n      eq\n      tag_50\n      jumpi\n      jump(tag_2)\n    tag_62:\n      dup1\n      0xbda5c8bb\n      eq\n      tag_44\n      jumpi\n      dup1\n      0xca33e64c\n      eq\n      tag_45\n      jumpi\n      dup1\n      0xd0889358\n      eq\n      tag_46\n      jumpi\n      jump(tag_2)\n    tag_59:\n      dup1\n      0x98118cb4\n      gt\n      tag_63\n      jumpi\n      dup1\n      0xa457c2d7\n      gt\n      tag_64\n      jumpi\n      dup1\n      0xa457c2d7\n      eq\n      tag_40\n      jumpi\n      dup1\n      0xa8aa1b31\n      eq\n      tag_41\n      jumpi\n      dup1\n      0xa9059cbb\n      eq\n      tag_42\n      jumpi\n      dup1\n      0xaa271e1a\n      eq\n      tag_43\n      jumpi\n      jump(tag_2)\n    tag_64:\n      dup1\n      0x98118cb4\n      eq\n      tag_37\n      jumpi\n      dup1\n      0x983b2d56\n      eq\n      tag_38\n      jumpi\n      dup1\n      0x98650275\n      eq\n      tag_39\n      jumpi\n      jump(tag_2)\n    tag_63:\n      dup1\n      0x8da5cb5b\n      gt\n      tag_65\n      jumpi\n      dup1\n      0x8da5cb5b\n      eq\n      tag_33\n      jumpi\n      dup1\n      0x8f32d59b\n      eq\n      tag_34\n      jumpi\n      dup1\n      0x9155e083\n      eq\n      tag_35\n      jumpi\n      dup1\n      0x95d89b41\n      eq\n      tag_36\n      jumpi\n      jump(tag_2)\n    tag_65:\n      dup1\n      0x7a43e23f\n      eq\n      tag_30\n      jumpi\n      dup1\n      0x800cee51\n      eq\n      tag_31\n      jumpi\n      dup1\n      0x83b4ac68\n      eq\n      tag_32\n      jumpi\n      jump(tag_2)\n    tag_58:\n      dup1\n      0x3092afd5\n      gt\n      tag_66\n      jumpi\n      dup1\n      0x56a227f2\n      gt\n      tag_67\n      jumpi\n      dup1\n      0x70a08231\n      gt\n      tag_68\n      jumpi\n      dup1\n      0x70a08231\n      eq\n      tag_26\n      jumpi\n      dup1\n      0x715018a6\n      eq\n      tag_27\n      jumpi\n      dup1\n      0x749796a5\n      eq\n      tag_28\n      jumpi\n      dup1\n      0x753d02a1\n      eq\n      tag_29\n      jumpi\n      jump(tag_2)\n    tag_68:\n      dup1\n      0x56a227f2\n      eq\n      tag_23\n      jumpi\n      dup1\n      0x6d351d1a\n      eq\n      tag_24\n      jumpi\n      dup1\n      0x6ddd1713\n      eq\n      tag_25\n      jumpi\n      jump(tag_2)\n    tag_67:\n      dup1\n      0x39509351\n      gt\n      tag_69\n      jumpi\n      dup1\n      0x39509351\n      eq\n      tag_19\n      jumpi\n      dup1\n      0x40c10f19\n      eq\n      tag_20\n      jumpi\n      dup1\n      0x4d709adf\n      eq\n      tag_21\n      jumpi\n      dup1\n      0x563df32f\n      eq\n      tag_22\n      jumpi\n      jump(tag_2)\n    tag_69:\n      dup1\n      0x3092afd5\n      eq\n      tag_16\n      jumpi\n      dup1\n      0x313ce567\n      eq\n      tag_17\n      jumpi\n      dup1\n      0x33f3d628\n      eq\n      tag_18\n      jumpi\n      jump(tag_2)\n    tag_66:\n      dup1\n      0x1df4ccfc\n      gt\n      tag_70\n      jumpi\n      dup1\n      0x2b112e49\n      gt\n      tag_71\n      jumpi\n      dup1\n      0x2b112e49\n      eq\n      tag_12\n      jumpi\n      dup1\n      0x2b14ca56\n      eq\n      tag_13\n      jumpi\n      dup1\n      0x2be6937d\n      eq\n      tag_14\n      jumpi\n      dup1\n      0x2f34d282\n      eq\n      tag_15\n      jumpi\n      jump(tag_2)\n    tag_71:\n      dup1\n      0x1df4ccfc\n      eq\n      tag_9\n      jumpi\n      dup1\n      0x201e7991\n      eq\n      tag_10\n      jumpi\n      dup1\n      0x23b872dd\n      eq\n      tag_11\n      jumpi\n      jump(tag_2)\n    tag_70:\n      dup1\n      0x04a66b48\n      eq\n      tag_3\n      jumpi\n      dup1\n      0x06fdde03\n      eq\n      tag_4\n      jumpi\n      dup1\n      0x095ea7b3\n      eq\n      tag_5\n      jumpi\n      dup1\n      0x1161ae39\n      eq\n      tag_6\n      jumpi\n      dup1\n      0x180b0d7e\n      eq\n      tag_7\n      jumpi\n      dup1\n      0x18160ddd\n      eq\n      tag_8\n      jumpi\n      jump(tag_2)\n    tag_1:\n      jumpi(tag_2, calldatasize)\n      stop\n    tag_2:\n      0x00\n      dup1\n      revert\n        /* \"AndrewTate-testnet.sol.sol\":22340:22844  function setFees(\r... */\n    tag_3:\n      callvalue\n      dup1\n      iszero\n      tag_74\n      jumpi\n      0x00\n      dup1\n      revert\n    tag_74:\n      pop\n      tag_75\n      0x04\n      dup1\n      calldatasize\n      sub\n      0xa0\n      dup2\n      lt\n      iszero\n      tag_76\n      jumpi\n      0x00\n      dup1\n      revert\n    tag_76:\n      pop\n      dup1\n      calldataload\n      swap1\n      0x20\n      dup2\n      add\n      calldataload\n      swap1\n      0x40\n      dup2\n      add\n      calldataload\n      swap1\n      0x60\n      dup2\n      add\n      calldataload\n      swap1\n      0x80\n      add\n      calldataload\n      tag_77\n      jump\t// in\n    tag_75:\n      stop\n        /* \"AndrewTate-testnet.sol.sol\":5445:5528  function name() public view returns (string memory) {\r... */\n    tag_4:\n      callvalue\n      dup1\n      iszero\n      tag_78\n      jumpi\n      0x00\n      dup1\n      revert\n    tag_78:\n      pop\n      tag_79\n      tag_80\n      jump\t// in\n    tag_79:\n      0x40\n      dup1\n      mload\n      0x20\n      dup1\n      dup3\n      mstore\n      dup4\n      mload\n      dup2\n      dup4\n      add\n      mstore\n      dup4\n      mload\n      swap2\n      swap3\n      dup4\n      swap3\n      swap1\n      dup4\n      add\n      swap2\n      dup6\n      add\n      swap1\n      dup1\n      dup4\n      dup4\n      0x00\n    tag_81:\n      dup4\n      dup2\n      lt\n      iszero\n      tag_83\n      jumpi\n      dup2\n      dup2\n      add\n      mload\n      dup4\n      dup3\n      add\n      mstore\n      0x20\n      add\n      jump(tag_81)\n    tag_83:\n      pop\n      pop\n      pop\n      pop\n      swap1\n      pop\n      swap1\n      dup2\n      add\n      swap1\n      0x1f\n      and\n      dup1\n      iszero\n      tag_84\n      jumpi\n      dup1\n      dup3\n      sub\n      dup1\n      mload\n      0x01\n      dup4\n      0x20\n      sub\n      0x0100\n      exp\n      sub\n      not\n      and\n      dup2\n      mstore\n      0x20\n      add\n      swap2\n      pop\n    tag_84:\n      pop\n      swap3\n      pop\n      pop\n      pop\n      mload(0x40)\n      dup1\n      swap2\n      sub\n      swap1\n      return\n        /* \"AndrewTate-testnet.sol.sol\":19013:19299  function approve(address spender, uint256 value)\r... */\n    tag_5:\n      callvalue\n      dup1\n      iszero\n      tag_85\n      jumpi\n      0x00\n      dup1\n      revert\n    tag_85:\n      pop\n      tag_86\n      0x04\n      dup1\n      calldatasize\n      sub\n      0x40\n      dup2\n      lt\n      iszero\n      tag_87\n      jumpi\n      0x00\n      dup1\n      revert\n    tag_87:\n      pop\n      sub(shl(0xa0, 0x01), 0x01)\n      dup2\n      calldataload\n      and\n      swap1\n      0x20\n      add\n      calldataload\n      tag_88\n      jump\t// in\n    tag_86:\n      0x40\n      dup1\n      mload\n      swap2\n      iszero\n      iszero\n      dup3\n      mstore\n      mload\n      swap1\n      dup2\n      swap1\n      sub\n      0x20\n      add\n      swap1\n      return\n        /* \"AndrewTate-testnet.sol.sol\":23771:23953  function isOverLiquified(uint256 target, uint256 accuracy)\r... */\n    tag_6:\n      callvalue\n      dup1\n      iszero\n      tag_89\n      jumpi\n      0x00\n      dup1\n      revert\n    tag_89:\n      pop\n      tag_86\n      0x04\n      dup1\n      calldatasize\n      sub\n      0x40\n      dup2\n      lt\n      iszero\n      tag_91\n      jumpi\n      0x00\n      dup1\n      revert\n    tag_91:\n      pop\n      dup1\n      calldataload\n      swap1\n      0x20\n      add\n      calldataload\n      tag_92\n      jump\t// in\n        /* \"AndrewTate-testnet.sol.sol\":9555:9590  uint256 public feeDenominator = 100 */\n    tag_7:\n      callvalue\n      dup1\n      iszero\n      tag_93\n      jumpi\n      0x00\n      dup1\n      revert\n    tag_93:\n      pop\n      tag_94\n      tag_95\n      jump\t// in\n    tag_94:\n      0x40\n      dup1\n      mload\n      swap2\n      dup3\n      mstore\n      mload\n      swap1\n      dup2\n      swap1\n      sub\n      0x20\n      add\n      swap1\n      return\n        /* \"AndrewTate-testnet.sol.sol\":12700:12802  function totalSupply() external view override returns (uint256) {\r... */\n    tag_8:\n      callvalue\n      dup1\n      iszero\n      tag_96\n      jumpi\n      0x00\n      dup1\n      revert\n    tag_96:\n      pop\n      tag_94\n      tag_98\n      jump\t// in\n        /* \"AndrewTate-testnet.sol.sol\":9468:9548  uint256 public totalFee =\r... */\n    tag_9:\n      callvalue\n      dup1\n      iszero\n      tag_99\n      jumpi\n      0x00\n      dup1\n      revert\n    tag_99:\n      pop\n      tag_94\n      tag_101\n      jump\t// in\n        /* \"AndrewTate-testnet.sol.sol\":21036:21208  function setTargetLiquidity(uint256 target, uint256 accuracy) external onlyOwner {\r... */\n    tag_10:\n      callvalue\n      dup1\n      iszero\n      tag_102\n      jumpi\n      0x00\n      dup1\n      revert\n    tag_102:\n      pop\n      tag_75\n      0x04\n      dup1\n      calldatasize\n      sub\n      0x40\n      dup2\n      lt\n      iszero\n      tag_104\n      jumpi\n      0x00\n      dup1\n      revert\n    tag_104:\n      pop\n      dup1\n      calldataload\n      swap1\n      0x20\n      add\n      calldataload\n      tag_105\n      jump\t// in\n        /* \"AndrewTate-testnet.sol.sol\":14852:15309  function transferFrom(\r... */\n    tag_11:\n      callvalue\n      dup1\n      iszero\n      tag_106\n      jumpi\n      0x00\n      dup1\n      revert\n    tag_106:\n      pop\n      tag_86\n      0x04\n      dup1\n      calldatasize\n      sub\n      0x60\n      dup2\n      lt\n      iszero\n      tag_108\n      jumpi\n      0x00\n      dup1\n      revert\n    tag_108:\n      pop\n      sub(shl(0xa0, 0x01), 0x01)\n      dup2\n      calldataload\n      dup2\n      and\n      swap2\n      0x20\n      dup2\n      add\n      calldataload\n      swap1\n      swap2\n      and\n      swap1\n      0x40\n      add\n      calldataload\n      tag_109\n      jump\t// in\n        /* \"AndrewTate-testnet.sol.sol\":20813:21028  function getCirculatingSupply() public view returns (uint256) {\r... */\n    tag_12:\n      callvalue\n      dup1\n      iszero\n      tag_110\n      jumpi\n      0x00\n      dup1\n      revert\n    tag_110:\n      pop\n      tag_94\n      tag_112\n      jump\t// in\n        /* \"AndrewTate-testnet.sol.sol\":9435:9461  uint256 public sellFee = 5 */\n    tag_13:\n      callvalue\n      dup1\n      iszero\n      tag_113\n      jumpi\n      0x00\n      dup1\n      revert\n    tag_113:\n      pop\n      tag_94\n      tag_115\n      jump\t// in\n        /* \"AndrewTate-testnet.sol.sol\":19428:19542  function setInitialDistributionFinished() external onlyOwner {\r... */\n    tag_14:\n      callvalue\n      dup1\n      iszero\n      tag_116\n      jumpi\n      0x00\n      dup1\n      revert\n    tag_116:\n      pop\n      tag_75\n      tag_118\n      jump\t// in\n        /* \"AndrewTate-testnet.sol.sol\":13066:13206  function setLP(address _address) external onlyOwner {\r... */\n    tag_15:\n      callvalue\n      dup1\n      iszero\n      tag_119\n      jumpi\n      0x00\n      dup1\n      revert\n    tag_119:\n      pop\n      tag_75\n      0x04\n      dup1\n      calldatasize\n      sub\n      0x20\n      dup2\n      lt\n      iszero\n      tag_121\n      jumpi\n      0x00\n      dup1\n      revert\n    tag_121:\n      pop\n      calldataload\n      sub(shl(0xa0, 0x01), 0x01)\n      and\n      tag_122\n      jump\t// in\n        /* \"AndrewTate-testnet.sol.sol\":21315:21412  function removeMinter(address account) public onlyOwner {\r... */\n    tag_16:\n      callvalue\n      dup1\n      iszero\n      tag_123\n      jumpi\n      0x00\n      dup1\n      revert\n    tag_123:\n      pop\n      tag_75\n      0x04\n      dup1\n      calldatasize\n      sub\n      0x20\n      dup2\n      lt\n      iszero\n      tag_125\n      jumpi\n      0x00\n      dup1\n      revert\n    tag_125:\n      pop\n      calldataload\n      sub(shl(0xa0, 0x01), 0x01)\n      and\n      tag_126\n      jump\t// in\n        /* \"AndrewTate-testnet.sol.sol\":5631:5714  function decimals() public view returns (uint8) {\r... */\n    tag_17:\n      callvalue\n      dup1\n      iszero\n      tag_127\n      jumpi\n      0x00\n      dup1\n      revert\n    tag_127:\n      pop\n      tag_128\n      tag_129\n      jump\t// in\n    tag_128:\n      0x40\n      dup1\n      mload\n      0xff\n      swap1\n      swap3\n      and\n      dup3\n      mstore\n      mload\n      swap1\n      dup2\n      swap1\n      sub\n      0x20\n      add\n      swap1\n      return\n        /* \"AndrewTate-testnet.sol.sol\":23099:23312  function rescueToken(address tokenAddress, uint256 tokens)\r... */\n    tag_18:\n      callvalue\n      dup1\n      iszero\n      tag_130\n      jumpi\n      0x00\n      dup1\n      revert\n    tag_130:\n      pop\n      tag_86\n      0x04\n      dup1\n      calldatasize\n      sub\n      0x40\n      dup2\n      lt\n      iszero\n      tag_132\n      jumpi\n      0x00\n      dup1\n      revert\n    tag_132:\n      pop\n      sub(shl(0xa0, 0x01), 0x01)\n      dup2\n      calldataload\n      and\n      swap1\n      0x20\n      add\n      calldataload\n      tag_133\n      jump\t// in\n        /* \"AndrewTate-testnet.sol.sol\":18566:19005  function increaseAllowance(address spender, uint256 addedValue)\r... */\n    tag_19:\n      callvalue\n      dup1\n      iszero\n      tag_134\n      jumpi\n      0x00\n      dup1\n      revert\n    tag_134:\n      pop\n      tag_86\n      0x04\n      dup1\n      calldatasize\n      sub\n      0x40\n      dup2\n      lt\n      iszero\n      tag_136\n      jumpi\n      0x00\n      dup1\n      revert\n    tag_136:\n      pop\n      sub(shl(0xa0, 0x01), 0x01)\n      dup2\n      calldataload\n      and\n      swap1\n      0x20\n      add\n      calldataload\n      tag_137\n      jump\t// in\n        /* \"AndrewTate-testnet.sol.sol\":19936:20331  function mint(address recipient, uint256 amount) external onlyMinter {\r... */\n    tag_20:\n      callvalue\n      dup1\n      iszero\n      tag_138\n      jumpi\n      0x00\n      dup1\n      revert\n    tag_138:\n      pop\n      tag_75\n      0x04\n      dup1\n      calldatasize\n      sub\n      0x40\n      dup2\n      lt\n      iszero\n      tag_140\n      jumpi\n      0x00\n      dup1\n      revert\n    tag_140:\n      pop\n      sub(shl(0xa0, 0x01), 0x01)\n      dup2\n      calldataload\n      and\n      swap1\n      0x20\n      add\n      calldataload\n      tag_141\n      jump\t// in\n        /* \"AndrewTate-testnet.sol.sol\":8644:8675  InterfaceLP public pairContract */\n    tag_21:\n      callvalue\n      dup1\n      iszero\n      tag_142\n      jumpi\n      0x00\n      dup1\n      revert\n    tag_142:\n      pop\n      tag_143\n      tag_144\n      jump\t// in\n    tag_143:\n      0x40\n      dup1\n      mload\n      sub(shl(0xa0, 0x01), 0x01)\n      swap1\n      swap3\n      and\n      dup3\n      mstore\n      mload\n      swap1\n      dup2\n      swap1\n      sub\n      0x20\n      add\n      swap1\n      return\n        /* \"AndrewTate-testnet.sol.sol\":9362:9389  uint256 public Treasury = 3 */\n    tag_22:\n      callvalue\n      dup1\n      iszero\n      tag_145\n      jumpi\n      0x00\n      dup1\n      revert\n    tag_145:\n      pop\n      tag_94\n      tag_147\n      jump\t// in\n        /* \"AndrewTate-testnet.sol.sol\":22852:23091  function clearStuckBalance(uint256 amountPercentage, address adr) external onlyOwner {\r... */\n    tag_23:\n      callvalue\n      dup1\n      iszero\n      tag_148\n      jumpi\n      0x00\n      dup1\n      revert\n    tag_148:\n      pop\n      tag_75\n      0x04\n      dup1\n      calldatasize\n      sub\n      0x40\n      dup2\n      lt\n      iszero\n      tag_150\n      jumpi\n      0x00\n      dup1\n      revert\n    tag_150:\n      pop\n      dup1\n      calldataload\n      swap1\n      0x20\n      add\n      calldataload\n      sub(shl(0xa0, 0x01), 0x01)\n      and\n      tag_151\n      jump\t// in\n        /* \"AndrewTate-testnet.sol.sol\":21778:21904  function checkSwapThreshold() external view returns (uint256) {\r... */\n    tag_24:\n      callvalue\n      dup1\n      iszero\n      tag_152\n      jumpi\n      0x00\n      dup1\n      revert\n    tag_152:\n      pop\n      tag_94\n      tag_154\n      jump\t// in\n        /* \"AndrewTate-testnet.sol.sol\":9998:10028  bool public swapEnabled = true */\n    tag_25:\n      callvalue\n      dup1\n      iszero\n      tag_155\n      jumpi\n      0x00\n      dup1\n      revert\n    tag_155:\n      pop\n      tag_86\n      tag_157\n      jump\t// in\n        /* \"AndrewTate-testnet.sol.sol\":13416:13554  function balanceOf(address who) external view override returns (uint256) {\r... */\n    tag_26:\n      callvalue\n      dup1\n      iszero\n      tag_158\n      jumpi\n      0x00\n      dup1\n      revert\n    tag_158:\n      pop\n      tag_94\n      0x04\n      dup1\n      calldatasize\n      sub\n      0x20\n      dup2\n      lt\n      iszero\n      tag_160\n      jumpi\n      0x00\n      dup1\n      revert\n    tag_160:\n      pop\n      calldataload\n      sub(shl(0xa0, 0x01), 0x01)\n      and\n      tag_161\n      jump\t// in\n        /* \"AndrewTate-testnet.sol.sol\":7991:8117  function renounceOwnership() public onlyOwner {\r... */\n    tag_27:\n      callvalue\n      dup1\n      iszero\n      tag_162\n      jumpi\n      0x00\n      dup1\n      revert\n    tag_162:\n      pop\n      tag_75\n      tag_164\n      jump\t// in\n        /* \"AndrewTate-testnet.sol.sol\":19662:19763  function setFeeExempt(address _addr) external onlyOwner {\r... */\n    tag_28:\n      callvalue\n      dup1\n      iszero\n      tag_165\n      jumpi\n      0x00\n      dup1\n      revert\n    tag_165:\n      pop\n      tag_75\n      0x04\n      dup1\n      calldatasize\n      sub\n      0x20\n      dup2\n      lt\n      iszero\n      tag_167\n      jumpi\n      0x00\n      dup1\n      revert\n    tag_167:\n      pop\n      calldataload\n      sub(shl(0xa0, 0x01), 0x01)\n      and\n      tag_168\n      jump\t// in\n        /* \"AndrewTate-testnet.sol.sol\":21912:21986  function manualSync() external {\r... */\n    tag_29:\n      callvalue\n      dup1\n      iszero\n      tag_169\n      jumpi\n      0x00\n      dup1\n      revert\n    tag_169:\n      pop\n      tag_75\n      tag_171\n      jump\t// in\n        /* \"AndrewTate-testnet.sol.sol\":11933:12692  function rebase(uint256 epoch, int256 supplyDelta)\r... */\n    tag_30:\n      callvalue\n      dup1\n      iszero\n      tag_172\n      jumpi\n      0x00\n      dup1\n      revert\n    tag_172:\n      pop\n      tag_94\n      0x04\n      dup1\n      calldatasize\n      sub\n      0x40\n      dup2\n      lt\n      iszero\n      tag_174\n      jumpi\n      0x00\n      dup1\n      revert\n    tag_174:\n      pop\n      dup1\n      calldataload\n      swap1\n      0x20\n      add\n      calldataload\n      tag_175\n      jump\t// in\n        /* \"AndrewTate-testnet.sol.sol\":9772:9803  address public TreasuryReceiver */\n    tag_31:\n      callvalue\n      dup1\n      iszero\n      tag_176\n      jumpi\n      0x00\n      dup1\n      revert\n    tag_176:\n      pop\n      tag_143\n      tag_178\n      jump\t// in\n        /* \"AndrewTate-testnet.sol.sol\":21420:21505  function isNotInSwap() external view returns (bool) {\r... */\n    tag_32:\n      callvalue\n      dup1\n      iszero\n      tag_179\n      jumpi\n      0x00\n      dup1\n      revert\n    tag_179:\n      pop\n      tag_86\n      tag_181\n      jump\t// in\n        /* \"AndrewTate-testnet.sol.sol\":7726:7805  function owner() public view returns (address) {\r... */\n    tag_33:\n      callvalue\n      dup1\n      iszero\n      tag_182\n      jumpi\n      0x00\n      dup1\n      revert\n    tag_182:\n      pop\n      tag_143\n      tag_184\n      jump\t// in\n        /* \"AndrewTate-testnet.sol.sol\":7891:7983  function isOwner() public view returns (bool) {\r... */\n    tag_34:\n      callvalue\n      dup1\n      iszero\n      tag_185\n      jumpi\n      0x00\n      dup1\n      revert\n    tag_185:\n      pop\n      tag_86\n      tag_187\n      jump\t// in\n        /* \"AndrewTate-testnet.sol.sol\":11814:11925  function updateBlacklist(address _user, bool _flag) public onlyOwner{\r... */\n    tag_35:\n      callvalue\n      dup1\n      iszero\n      tag_188\n      jumpi\n      0x00\n      dup1\n      revert\n    tag_188:\n      pop\n      tag_75\n      0x04\n      dup1\n      calldatasize\n      sub\n      0x40\n      dup2\n      lt\n      iszero\n      tag_190\n      jumpi\n      0x00\n      dup1\n      revert\n    tag_190:\n      pop\n      sub(shl(0xa0, 0x01), 0x01)\n      dup2\n      calldataload\n      and\n      swap1\n      0x20\n      add\n      calldataload\n      iszero\n      iszero\n      tag_191\n      jump\t// in\n        /* \"AndrewTate-testnet.sol.sol\":5536:5623  function symbol() public view returns (string memory) {\r... */\n    tag_36:\n      callvalue\n      dup1\n      iszero\n      tag_192\n      jumpi\n      0x00\n      dup1\n      revert\n    tag_192:\n      pop\n      tag_79\n      tag_194\n      jump\t// in\n        /* \"AndrewTate-testnet.sol.sol\":9324:9355  uint256 public liquidityFee = 5 */\n    tag_37:\n      callvalue\n      dup1\n      iszero\n      tag_199\n      jumpi\n      0x00\n      dup1\n      revert\n    tag_199:\n      pop\n      tag_94\n      tag_201\n      jump\t// in\n        /* \"AndrewTate-testnet.sol.sol\":21216:21307  function addMinter(address account) public onlyOwner {\r... */\n    tag_38:\n      callvalue\n      dup1\n      iszero\n      tag_202\n      jumpi\n      0x00\n      dup1\n      revert\n    tag_202:\n      pop\n      tag_75\n      0x04\n      dup1\n      calldatasize\n      sub\n      0x20\n      dup2\n      lt\n      iszero\n      tag_204\n      jumpi\n      0x00\n      dup1\n      revert\n    tag_204:\n      pop\n      calldataload\n      sub(shl(0xa0, 0x01), 0x01)\n      and\n      tag_205\n      jump\t// in\n        /* \"AndrewTate-testnet.sol.sol\":4719:4796  function renounceMinter() public {\r... */\n    tag_39:\n      callvalue\n      dup1\n      iszero\n      tag_206\n      jumpi\n      0x00\n      dup1\n      revert\n    tag_206:\n      pop\n      tag_75\n      tag_208\n      jump\t// in\n        /* \"AndrewTate-testnet.sol.sol\":17929:18558  function decreaseAllowance(address spender, uint256 subtractedValue)\r... */\n    tag_40:\n      callvalue\n      dup1\n      iszero\n      tag_209\n      jumpi\n      0x00\n      dup1\n      revert\n    tag_209:\n      pop\n      tag_86\n      0x04\n      dup1\n      calldatasize\n      sub\n      0x40\n      dup2\n      lt\n      iszero\n      tag_211\n      jumpi\n      0x00\n      dup1\n      revert\n    tag_211:\n      pop\n      sub(shl(0xa0, 0x01), 0x01)\n      dup2\n      calldataload\n      and\n      swap1\n      0x20\n      add\n      calldataload\n      tag_212\n      jump\t// in\n        /* \"AndrewTate-testnet.sol.sol\":9970:9989  address public pair */\n    tag_41:\n      callvalue\n      dup1\n      iszero\n      tag_213\n      jumpi\n      0x00\n      dup1\n      revert\n    tag_213:\n      pop\n      tag_143\n      tag_215\n      jump\t// in\n        /* \"AndrewTate-testnet.sol.sol\":12810:13058  function transfer(address to, uint256 value)\r... */\n    tag_42:\n      callvalue\n      dup1\n      iszero\n      tag_216\n      jumpi\n      0x00\n      dup1\n      revert\n    tag_216:\n      pop\n      tag_86\n      0x04\n      dup1\n      calldatasize\n      sub\n      0x40\n      dup2\n      lt\n      iszero\n      tag_218\n      jumpi\n      0x00\n      dup1\n      revert\n    tag_218:\n      pop\n      sub(shl(0xa0, 0x01), 0x01)\n      dup2\n      calldataload\n      and\n      swap1\n      0x20\n      add\n      calldataload\n      tag_219\n      jump\t// in\n        /* \"AndrewTate-testnet.sol.sol\":4602:4711  function isMinter(address account) public view returns (bool) {\r... */\n    tag_43:\n      callvalue\n      dup1\n      iszero\n      tag_220\n      jumpi\n      0x00\n      dup1\n      revert\n    tag_220:\n      pop\n      tag_86\n      0x04\n      dup1\n      calldatasize\n      sub\n      0x20\n      dup2\n      lt\n      iszero\n      tag_222\n      jumpi\n      0x00\n      dup1\n      revert\n    tag_222:\n      pop\n      calldataload\n      sub(shl(0xa0, 0x01), 0x01)\n      and\n      tag_223\n      jump\t// in\n        /* \"AndrewTate-testnet.sol.sol\":9396:9428  uint256 public RiskFreeValue = 5 */\n    tag_44:\n      callvalue\n      dup1\n      iszero\n      tag_224\n      jumpi\n      0x00\n      dup1\n      revert\n    tag_224:\n      pop\n      tag_94\n      tag_226\n      jump\t// in\n        /* \"AndrewTate-testnet.sol.sol\":9729:9765  address public autoLiquidityReceiver */\n    tag_45:\n      callvalue\n      dup1\n      iszero\n      tag_227\n      jumpi\n      0x00\n      dup1\n      revert\n    tag_227:\n      pop\n      tag_143\n      tag_229\n      jump\t// in\n        /* \"AndrewTate-testnet.sol.sol\":20339:20569  function setSwapBackSettings(\r... */\n    tag_46:\n      callvalue\n      dup1\n      iszero\n      tag_230\n      jumpi\n      0x00\n      dup1\n      revert\n    tag_230:\n      pop\n      tag_75\n      0x04\n      dup1\n      calldatasize\n      sub\n      0x60\n      dup2\n      lt\n      iszero\n      tag_232\n      jumpi\n      0x00\n      dup1\n      revert\n    tag_232:\n      pop\n      dup1\n      calldataload\n      iszero\n      iszero\n      swap1\n      0x20\n      dup2\n      add\n      calldataload\n      swap1\n      0x40\n      add\n      calldataload\n      tag_233\n      jump\t// in\n        /* \"AndrewTate-testnet.sol.sol\":8684:8723  bool public initialDistributionFinished */\n    tag_47:\n      callvalue\n      dup1\n      iszero\n      tag_234\n      jumpi\n      0x00\n      dup1\n      revert\n    tag_234:\n      pop\n      tag_86\n      tag_236\n      jump\t// in\n        /* \"AndrewTate-testnet.sol.sol\":21513:21770  function sendPresale(address[] calldata recipients, uint256[] calldata values)\r... */\n    tag_48:\n      callvalue\n      dup1\n      iszero\n      tag_237\n      jumpi\n      0x00\n      dup1\n      revert\n    tag_237:\n      pop\n      tag_75\n      0x04\n      dup1\n      calldatasize\n      sub\n      0x40\n      dup2\n      lt\n      iszero\n      tag_239\n      jumpi\n      0x00\n      dup1\n      revert\n    tag_239:\n      dup2\n      add\n      swap1\n      0x20\n      dup2\n      add\n      dup2\n      calldataload\n      0x0100000000\n      dup2\n      gt\n      iszero\n      tag_240\n      jumpi\n      0x00\n      dup1\n      revert\n    tag_240:\n      dup3\n      add\n      dup4\n      0x20\n      dup3\n      add\n      gt\n      iszero\n      tag_241\n      jumpi\n      0x00\n      dup1\n      revert\n    tag_241:\n      dup1\n      calldataload\n      swap1\n      0x20\n      add\n      swap2\n      dup5\n      0x20\n      dup4\n      mul\n      dup5\n      add\n      gt\n      0x0100000000\n      dup4\n      gt\n      or\n      iszero\n      tag_242\n      jumpi\n      0x00\n      dup1\n      revert\n    tag_242:\n      swap2\n      swap4\n      swap1\n      swap3\n      swap1\n      swap2\n      0x20\n      dup2\n      add\n      swap1\n      calldataload\n      0x0100000000\n      dup2\n      gt\n      iszero\n      tag_243\n      jumpi\n      0x00\n      dup1\n      revert\n    tag_243:\n      dup3\n      add\n      dup4\n      0x20\n      dup3\n      add\n      gt\n      iszero\n      tag_244\n      jumpi\n      0x00\n      dup1\n      revert\n    tag_244:\n      dup1\n      calldataload\n      swap1\n      0x20\n      add\n      swap2\n      dup5\n      0x20\n      dup4\n      mul\n      dup5\n      add\n      gt\n      0x0100000000\n      dup4\n      gt\n      or\n      iszero\n      tag_245\n      jumpi\n      0x00\n      dup1\n      revert\n    tag_245:\n      pop\n      swap1\n      swap3\n      pop\n      swap1\n      pop\n      tag_246\n      jump\t// in\n        /* \"AndrewTate-testnet.sol.sol\":19307:19420  function checkFeeExempt(address _addr) external view returns (bool) {\r... */\n    tag_49:\n      callvalue\n      dup1\n      iszero\n      tag_247\n      jumpi\n      0x00\n      dup1\n      revert\n    tag_247:\n      pop\n      tag_86\n      0x04\n      dup1\n      calldatasize\n      sub\n      0x20\n      dup2\n      lt\n      iszero\n      tag_249\n      jumpi\n      0x00\n      dup1\n      revert\n    tag_249:\n      pop\n      calldataload\n      sub(shl(0xa0, 0x01), 0x01)\n      and\n      tag_250\n      jump\t// in\n        /* \"AndrewTate-testnet.sol.sol\":23468:23759  function getLiquidityBacking(uint256 accuracy)\r... */\n    tag_50:\n      callvalue\n      dup1\n      iszero\n      tag_251\n      jumpi\n      0x00\n      dup1\n      revert\n    tag_251:\n      pop\n      tag_94\n      0x04\n      dup1\n      calldatasize\n      sub\n      0x20\n      dup2\n      lt\n      iszero\n      tag_253\n      jumpi\n      0x00\n      dup1\n      revert\n    tag_253:\n      pop\n      calldataload\n      tag_254\n      jump\t// in\n        /* \"AndrewTate-testnet.sol.sol\":19550:19654  function enableTransfer(address _addr) external onlyOwner {\r... */\n    tag_51:\n      callvalue\n      dup1\n      iszero\n      tag_255\n      jumpi\n      0x00\n      dup1\n      revert\n    tag_255:\n      pop\n      tag_75\n      0x04\n      dup1\n      calldatasize\n      sub\n      0x20\n      dup2\n      lt\n      iszero\n      tag_257\n      jumpi\n      0x00\n      dup1\n      revert\n    tag_257:\n      pop\n      calldataload\n      sub(shl(0xa0, 0x01), 0x01)\n      and\n      tag_258\n      jump\t// in\n        /* \"AndrewTate-testnet.sol.sol\":9810:9846  address public RiskFreeValueReceiver */\n    tag_52:\n      callvalue\n      dup1\n      iszero\n      tag_259\n      jumpi\n      0x00\n      dup1\n      revert\n    tag_259:\n      pop\n      tag_143\n      tag_261\n      jump\t// in\n        /* \"AndrewTate-testnet.sol.sol\":21994:22332  function setFeeReceivers(\r... */\n    tag_53:\n      callvalue\n      dup1\n      iszero\n      tag_262\n      jumpi\n      0x00\n      dup1\n      revert\n    tag_262:\n      pop\n      tag_75\n      0x04\n      dup1\n      calldatasize\n      sub\n      0x60\n      dup2\n      lt\n      iszero\n      tag_264\n      jumpi\n      0x00\n      dup1\n      revert\n    tag_264:\n      pop\n      sub(shl(0xa0, 0x01), 0x01)\n      dup2\n      calldataload\n      dup2\n      and\n      swap2\n      0x20\n      dup2\n      add\n      calldataload\n      dup3\n      and\n      swap2\n      0x40\n      swap1\n      swap2\n      add\n      calldataload\n      and\n      tag_265\n      jump\t// in\n        /* \"AndrewTate-testnet.sol.sol\":13214:13408  function allowance(address owner_, address spender)\r... */\n    tag_54:\n      callvalue\n      dup1\n      iszero\n      tag_266\n      jumpi\n      0x00\n      dup1\n      revert\n    tag_266:\n      pop\n      tag_94\n      0x04\n      dup1\n      calldatasize\n      sub\n      0x40\n      dup2\n      lt\n      iszero\n      tag_268\n      jumpi\n      0x00\n      dup1\n      revert\n    tag_268:\n      pop\n      sub(shl(0xa0, 0x01), 0x01)\n      dup2\n      calldataload\n      dup2\n      and\n      swap2\n      0x20\n      add\n      calldataload\n      and\n      tag_269\n      jump\t// in\n        /* \"AndrewTate-testnet.sol.sol\":8125:8234  function transferOwnership(address newOwner) public onlyOwner {\r... */\n    tag_55:\n      callvalue\n      dup1\n      iszero\n      tag_270\n      jumpi\n      0x00\n      dup1\n      revert\n    tag_270:\n      pop\n      tag_75\n      0x04\n      dup1\n      calldatasize\n      sub\n      0x20\n      dup2\n      lt\n      iszero\n      tag_272\n      jumpi\n      0x00\n      dup1\n      revert\n    tag_272:\n      pop\n      calldataload\n      sub(shl(0xa0, 0x01), 0x01)\n      and\n      tag_273\n      jump\t// in\n        /* \"AndrewTate-testnet.sol.sol\":9939:9963  IDEXRouter public router */\n    tag_56:\n      callvalue\n      dup1\n      iszero\n      tag_274\n      jumpi\n      0x00\n      dup1\n      revert\n    tag_274:\n      pop\n      tag_143\n      tag_276\n      jump\t// in\n        /* \"AndrewTate-testnet.sol.sol\":10596:10637  mapping(address => bool) public blacklist */\n    tag_57:\n      callvalue\n      dup1\n      iszero\n      tag_277\n      jumpi\n      0x00\n      dup1\n      revert\n    tag_277:\n      pop\n      tag_86\n      0x04\n      dup1\n      calldatasize\n      sub\n      0x20\n      dup2\n      lt\n      iszero\n      tag_279\n      jumpi\n      0x00\n      dup1\n      revert\n    tag_279:\n      pop\n      calldataload\n      sub(shl(0xa0, 0x01), 0x01)\n      and\n      tag_280\n      jump\t// in\n        /* \"AndrewTate-testnet.sol.sol\":22340:22844  function setFees(\r... */\n    tag_77:\n        /* \"AndrewTate-testnet.sol.sol\":7853:7862  isOwner() */\n      tag_285\n        /* \"AndrewTate-testnet.sol.sol\":7853:7860  isOwner */\n      tag_187\n        /* \"AndrewTate-testnet.sol.sol\":7853:7862  isOwner() */\n      jump\t// in\n    tag_285:\n        /* \"AndrewTate-testnet.sol.sol\":7845:7863  require(isOwner()) */\n      tag_286\n      jumpi\n      0x00\n      dup1\n      revert\n    tag_286:\n        /* \"AndrewTate-testnet.sol.sol\":22548:22560  liquidityFee */\n      0x07\n        /* \"AndrewTate-testnet.sol.sol\":22548:22576  liquidityFee = _liquidityFee */\n      dup6\n      swap1\n      sstore\n        /* \"AndrewTate-testnet.sol.sol\":22587:22600  RiskFreeValue */\n      0x09\n        /* \"AndrewTate-testnet.sol.sol\":22587:22617  RiskFreeValue = _RiskFreeValue */\n      dup5\n      swap1\n      sstore\n        /* \"AndrewTate-testnet.sol.sol\":22628:22636  Treasury */\n      0x08\n        /* \"AndrewTate-testnet.sol.sol\":22628:22648  Treasury = _Treasury */\n      dup4\n      swap1\n      sstore\n        /* \"AndrewTate-testnet.sol.sol\":22659:22666  sellFee */\n      0x0a\n        /* \"AndrewTate-testnet.sol.sol\":22659:22677  sellFee = _sellFee */\n      dup3\n      swap1\n      sstore\n        /* \"AndrewTate-testnet.sol.sol\":22699:22744  liquidityFee.add(Treasury).add(RiskFreeValue) */\n      tag_288\n        /* \"AndrewTate-testnet.sol.sol\":22603:22617  _RiskFreeValue */\n      dup5\n        /* \"AndrewTate-testnet.sol.sol\":22699:22725  liquidityFee.add(Treasury) */\n      tag_289\n        /* \"AndrewTate-testnet.sol.sol\":22563:22576  _liquidityFee */\n      dup8\n        /* \"AndrewTate-testnet.sol.sol\":22639:22648  _Treasury */\n      dup7\n        /* \"AndrewTate-testnet.sol.sol\":22699:22715  liquidityFee.add */\n      tag_281\n        /* \"AndrewTate-testnet.sol.sol\":22699:22725  liquidityFee.add(Treasury) */\n      jump\t// in\n    tag_289:\n        /* \"AndrewTate-testnet.sol.sol\":22699:22729  liquidityFee.add(Treasury).add */\n      swap1\n      tag_281\n        /* \"AndrewTate-testnet.sol.sol\":22699:22744  liquidityFee.add(Treasury).add(RiskFreeValue) */\n      jump\t// in\n    tag_288:\n        /* \"AndrewTate-testnet.sol.sol\":22688:22696  totalFee */\n      0x0b\n        /* \"AndrewTate-testnet.sol.sol\":22688:22744  totalFee = liquidityFee.add(Treasury).add(RiskFreeValue) */\n      sstore\n        /* \"AndrewTate-testnet.sol.sol\":22755:22769  feeDenominator */\n      0x0c\n        /* \"AndrewTate-testnet.sol.sol\":22755:22787  feeDenominator = _feeDenominator */\n      dup2\n      swap1\n      sstore\n        /* \"AndrewTate-testnet.sol.sol\":22834:22835  4 */\n      0x04\n        /* \"AndrewTate-testnet.sol.sol\":22772:22787  _feeDenominator */\n      dup2\n        /* \"AndrewTate-testnet.sol.sol\":22817:22835  feeDenominator / 4 */\n      div\n        /* \"AndrewTate-testnet.sol.sol\":22806:22814  totalFee */\n      sload(0x0b)\n        /* \"AndrewTate-testnet.sol.sol\":22806:22835  totalFee < feeDenominator / 4 */\n      lt\n        /* \"AndrewTate-testnet.sol.sol\":22798:22836  require(totalFee < feeDenominator / 4) */\n      tag_291\n      jumpi\n      0x00\n      dup1\n      revert\n    tag_291:\n        /* \"AndrewTate-testnet.sol.sol\":22340:22844  function setFees(\r... */\n      pop\n      pop\n      pop\n      pop\n      pop\n      jump\t// out\n        /* \"AndrewTate-testnet.sol.sol\":5445:5528  function name() public view returns (string memory) {\r... */\n    tag_80:\n        /* \"AndrewTate-testnet.sol.sol\":5515:5520  _name */\n      0x00\n        /* \"AndrewTate-testnet.sol.sol\":5508:5520  return _name */\n      dup1\n      sload\n      0x40\n      dup1\n      mload\n      0x20\n      0x1f\n      0x02\n      not(0x00)\n      0x0100\n      0x01\n      dup9\n      and\n      iszero\n      mul\n      add\n      swap1\n      swap6\n      and\n      swap5\n      swap1\n      swap5\n      div\n      swap4\n      dup5\n      add\n      dup2\n      swap1\n      div\n      dup2\n      mul\n      dup3\n      add\n      dup2\n      add\n      swap1\n      swap3\n      mstore\n      dup3\n      dup2\n      mstore\n        /* \"AndrewTate-testnet.sol.sol\":5482:5495  string memory */\n      0x60\n      swap4\n        /* \"AndrewTate-testnet.sol.sol\":5508:5520  return _name */\n      swap1\n      swap3\n        /* \"AndrewTate-testnet.sol.sol\":5515:5520  _name */\n      swap1\n      swap2\n        /* \"AndrewTate-testnet.sol.sol\":5508:5520  return _name */\n      dup4\n      add\n        /* \"AndrewTate-testnet.sol.sol\":5515:5520  _name */\n      dup3\n        /* \"AndrewTate-testnet.sol.sol\":5508:5520  return _name */\n      dup3\n      dup1\n      iszero\n      tag_293\n      jumpi\n      dup1\n      0x1f\n      lt\n      tag_294\n      jumpi\n      0x0100\n      dup1\n      dup4\n      sload\n      div\n      mul\n      dup4\n      mstore\n      swap2\n      0x20\n      add\n      swap2\n      jump(tag_293)\n    tag_294:\n      dup3\n      add\n      swap2\n      swap1\n      0x00\n      mstore\n      keccak256(0x00, 0x20)\n      swap1\n    tag_295:\n      dup2\n      sload\n      dup2\n      mstore\n      swap1\n      0x01\n      add\n      swap1\n      0x20\n      add\n      dup1\n      dup4\n      gt\n      tag_295\n      jumpi\n      dup3\n      swap1\n      sub\n      0x1f\n      and\n      dup3\n      add\n      swap2\n    tag_293:\n      pop\n      pop\n      pop\n      pop\n      pop\n      swap1\n      pop\n        /* \"AndrewTate-testnet.sol.sol\":5445:5528  function name() public view returns (string memory) {\r... */\n      swap1\n      jump\t// out\n        /* \"AndrewTate-testnet.sol.sol\":19013:19299  function approve(address spender, uint256 value)\r... */\n    tag_88:\n        /* \"AndrewTate-testnet.sol.sol\":8891:8918  initialDistributionFinished */\n      sload(0x04)\n        /* \"AndrewTate-testnet.sol.sol\":19149:19153  bool */\n      0x00\n      swap1\n      shl(0xa0, 0x01)\n        /* \"AndrewTate-testnet.sol.sol\":8891:8918  initialDistributionFinished */\n      swap1\n      div\n      0xff\n      and\n      dup1\n        /* \"AndrewTate-testnet.sol.sol\":8891:8948  initialDistributionFinished ||\r... */\n      tag_298\n      jumpi\n      pop\n        /* \"AndrewTate-testnet.sol.sol\":8939:8948  isOwner() */\n      tag_298\n        /* \"AndrewTate-testnet.sol.sol\":8939:8946  isOwner */\n      tag_187\n        /* \"AndrewTate-testnet.sol.sol\":8939:8948  isOwner() */\n      jump\t// in\n    tag_298:\n        /* \"AndrewTate-testnet.sol.sol\":8891:8994  initialDistributionFinished ||\r... */\n      dup1\n      tag_299\n      jumpi\n      pop\n        /* \"AndrewTate-testnet.sol.sol\":8983:8993  msg.sender */\n      caller\n        /* \"AndrewTate-testnet.sol.sol\":8969:8994  allowTransfer[msg.sender] */\n      0x00\n      swap1\n      dup2\n      mstore\n        /* \"AndrewTate-testnet.sol.sol\":8969:8982  allowTransfer */\n      0x05\n        /* \"AndrewTate-testnet.sol.sol\":8969:8994  allowTransfer[msg.sender] */\n      0x20\n      mstore\n      0x40\n      swap1\n      keccak256\n      sload\n      0xff\n      and\n        /* \"AndrewTate-testnet.sol.sol\":8891:8994  initialDistributionFinished ||\r... */\n    tag_299:\n        /* \"AndrewTate-testnet.sol.sol\":8869:9005  require(\r... */\n      tag_300\n      jumpi\n      0x00\n      dup1\n      revert\n    tag_300:\n        /* \"AndrewTate-testnet.sol.sol\":19189:19199  msg.sender */\n      caller\n        /* \"AndrewTate-testnet.sol.sol\":19171:19200  _allowedFragments[msg.sender] */\n      0x00\n      dup2\n      dup2\n      mstore\n        /* \"AndrewTate-testnet.sol.sol\":19171:19188  _allowedFragments */\n      0x1b\n        /* \"AndrewTate-testnet.sol.sol\":19171:19200  _allowedFragments[msg.sender] */\n      0x20\n      swap1\n      dup2\n      mstore\n      0x40\n      dup1\n      dup4\n      keccak256\n      sub(shl(0xa0, 0x01), 0x01)\n        /* \"AndrewTate-testnet.sol.sol\":19171:19209  _allowedFragments[msg.sender][spender] */\n      dup9\n      and\n      dup1\n      dup6\n      mstore\n      swap1\n      dup4\n      mstore\n      swap3\n      dup2\n      swap1\n      keccak256\n        /* \"AndrewTate-testnet.sol.sol\":19171:19217  _allowedFragments[msg.sender][spender] = value */\n      dup7\n      swap1\n      sstore\n        /* \"AndrewTate-testnet.sol.sol\":19233:19269  Approval(msg.sender, spender, value) */\n      dup1\n      mload\n      dup7\n      dup2\n      mstore\n      swap1\n      mload\n        /* \"AndrewTate-testnet.sol.sol\":19171:19209  _allowedFragments[msg.sender][spender] */\n      swap3\n      swap4\n        /* \"AndrewTate-testnet.sol.sol\":19189:19199  msg.sender */\n      swap3\n        /* \"AndrewTate-testnet.sol.sol\":19233:19269  Approval(msg.sender, spender, value) */\n      0x8c5be1e5ebec7d5bd14f71427d1e84f3dd0314c0f7b2291e5b200ac8c7c3b925\n      swap3\n      swap2\n      dup2\n      swap1\n      sub\n      swap1\n      swap2\n      add\n      swap1\n      log3\n      pop\n        /* \"AndrewTate-testnet.sol.sol\":19287:19291  true */\n      0x01\n        /* \"AndrewTate-testnet.sol.sol\":9016:9017  _ */\n    tag_301:\n        /* \"AndrewTate-testnet.sol.sol\":19013:19299  function approve(address spender, uint256 value)\r... */\n      swap3\n      swap2\n      pop\n      pop\n      jump\t// out\n        /* \"AndrewTate-testnet.sol.sol\":23771:23953  function isOverLiquified(uint256 target, uint256 accuracy)\r... */\n    tag_92:\n        /* \"AndrewTate-testnet.sol.sol\":23878:23882  bool */\n      0x00\n        /* \"AndrewTate-testnet.sol.sol\":23939:23945  target */\n      dup3\n        /* \"AndrewTate-testnet.sol.sol\":23907:23936  getLiquidityBacking(accuracy) */\n      tag_303\n        /* \"AndrewTate-testnet.sol.sol\":23927:23935  accuracy */\n      dup4\n        /* \"AndrewTate-testnet.sol.sol\":23907:23926  getLiquidityBacking */\n      tag_254\n        /* \"AndrewTate-testnet.sol.sol\":23907:23936  getLiquidityBacking(accuracy) */\n      jump\t// in\n    tag_303:\n        /* \"AndrewTate-testnet.sol.sol\":23907:23945  getLiquidityBacking(accuracy) > target */\n      gt\n      swap4\n        /* \"AndrewTate-testnet.sol.sol\":23771:23953  function isOverLiquified(uint256 target, uint256 accuracy)\r... */\n      swap3\n      pop\n      pop\n      pop\n      jump\t// out\n        /* \"AndrewTate-testnet.sol.sol\":9555:9590  uint256 public feeDenominator = 100 */\n    tag_95:\n      sload(0x0c)\n      dup2\n      jump\t// out\n        /* \"AndrewTate-testnet.sol.sol\":12700:12802  function totalSupply() external view override returns (uint256) {\r... */\n    tag_98:\n        /* \"AndrewTate-testnet.sol.sol\":12782:12794  _totalSupply */\n      sload(0x18)\n        /* \"AndrewTate-testnet.sol.sol\":12700:12802  function totalSupply() external view override returns (uint256) {\r... */\n      swap1\n      jump\t// out\n        /* \"AndrewTate-testnet.sol.sol\":9468:9548  uint256 public totalFee =\r... */\n    tag_101:\n      sload(0x0b)\n      dup2\n      jump\t// out\n        /* \"AndrewTate-testnet.sol.sol\":21036:21208  function setTargetLiquidity(uint256 target, uint256 accuracy) external onlyOwner {\r... */\n    tag_105:\n        /* \"AndrewTate-testnet.sol.sol\":7853:7862  isOwner() */\n      tag_306\n        /* \"AndrewTate-testnet.sol.sol\":7853:7860  isOwner */\n      tag_187\n        /* \"AndrewTate-testnet.sol.sol\":7853:7862  isOwner() */\n      jump\t// in\n    tag_306:\n        /* \"AndrewTate-testnet.sol.sol\":7845:7863  require(isOwner()) */\n      tag_307\n      jumpi\n      0x00\n      dup1\n      revert\n    tag_307:\n        /* \"AndrewTate-testnet.sol.sol\":21128:21143  targetLiquidity */\n      0x12\n        /* \"AndrewTate-testnet.sol.sol\":21128:21152  targetLiquidity = target */\n      swap2\n      swap1\n      swap2\n      sstore\n        /* \"AndrewTate-testnet.sol.sol\":21163:21189  targetLiquidityDenominator */\n      0x13\n        /* \"AndrewTate-testnet.sol.sol\":21163:21200  targetLiquidityDenominator = accuracy */\n      sstore\n        /* \"AndrewTate-testnet.sol.sol\":21036:21208  function setTargetLiquidity(uint256 target, uint256 accuracy) external onlyOwner {\r... */\n      jump\t// out\n        /* \"AndrewTate-testnet.sol.sol\":14852:15309  function transferFrom(\r... */\n    tag_109:\n        /* \"AndrewTate-testnet.sol.sol\":14995:14999  bool */\n      0x00\n        /* \"AndrewTate-testnet.sol.sol\":14982:14984  to */\n      dup3\n      sub(shl(0xa0, 0x01), 0x01)\n        /* \"AndrewTate-testnet.sol.sol\":9088:9106  to != address(0x0) */\n      dup2\n      and\n        /* \"AndrewTate-testnet.sol.sol\":9080:9107  require(to != address(0x0)) */\n      tag_310\n      jumpi\n      0x00\n      dup1\n      revert\n    tag_310:\n      sub(shl(0xa0, 0x01), 0x01)\n        /* \"AndrewTate-testnet.sol.sol\":15016:15039  _allowedFragments[from] */\n      dup6\n      and\n      0x00\n      swap1\n      dup2\n      mstore\n        /* \"AndrewTate-testnet.sol.sol\":15016:15033  _allowedFragments */\n      0x1b\n        /* \"AndrewTate-testnet.sol.sol\":15016:15039  _allowedFragments[from] */\n      0x20\n      swap1\n      dup2\n      mstore\n      0x40\n      dup1\n      dup4\n      keccak256\n        /* \"AndrewTate-testnet.sol.sol\":15040:15050  msg.sender */\n      caller\n        /* \"AndrewTate-testnet.sol.sol\":15016:15051  _allowedFragments[from][msg.sender] */\n      dup5\n      mstore\n      swap1\n      swap2\n      mstore\n      swap1\n      keccak256\n      sload\n      not(0x00)\n        /* \"AndrewTate-testnet.sol.sol\":15016:15066  _allowedFragments[from][msg.sender] != uint256(-1) */\n      eq\n        /* \"AndrewTate-testnet.sol.sol\":15012:15237  if (_allowedFragments[from][msg.sender] != uint256(-1)) {\r... */\n      tag_312\n      jumpi\n        /* \"AndrewTate-testnet.sol.sol\":15121:15225  _allowedFragments[from][\r... */\n      0x40\n      dup1\n      mload\n      dup1\n      dup3\n      add\n      dup3\n      mstore\n      0x16\n      dup2\n      mstore\n      shl(0x50, 0x496e73756666696369656e7420416c6c6f77616e6365)\n      0x20\n      dup1\n      dup4\n      add\n      swap2\n      swap1\n      swap2\n      mstore\n      sub(shl(0xa0, 0x01), 0x01)\n        /* \"AndrewTate-testnet.sol.sol\":15121:15144  _allowedFragments[from] */\n      dup9\n      and\n      0x00\n      swap1\n      dup2\n      mstore\n        /* \"AndrewTate-testnet.sol.sol\":15121:15138  _allowedFragments */\n      0x1b\n        /* \"AndrewTate-testnet.sol.sol\":15121:15144  _allowedFragments[from] */\n      dup3\n      mstore\n      dup4\n      dup2\n      keccak256\n        /* \"AndrewTate-testnet.sol.sol\":15163:15173  msg.sender */\n      caller\n        /* \"AndrewTate-testnet.sol.sol\":15121:15188  _allowedFragments[from][\r... */\n      dup3\n      mstore\n      swap1\n      swap2\n      mstore\n      swap2\n      swap1\n      swap2\n      keccak256\n      sload\n        /* \"AndrewTate-testnet.sol.sol\":15121:15225  _allowedFragments[from][\r... */\n      tag_313\n      swap2\n        /* \"AndrewTate-testnet.sol.sol\":15193:15198  value */\n      dup6\n      swap1\n        /* \"AndrewTate-testnet.sol.sol\":15121:15192  _allowedFragments[from][\r... */\n      tag_314\n        /* \"AndrewTate-testnet.sol.sol\":15121:15225  _allowedFragments[from][\r... */\n      jump\t// in\n    tag_313:\n      sub(shl(0xa0, 0x01), 0x01)\n        /* \"AndrewTate-testnet.sol.sol\":15083:15106  _allowedFragments[from] */\n      dup7\n      and\n      0x00\n      swap1\n      dup2\n      mstore\n        /* \"AndrewTate-testnet.sol.sol\":15083:15100  _allowedFragments */\n      0x1b\n        /* \"AndrewTate-testnet.sol.sol\":15083:15106  _allowedFragments[from] */\n      0x20\n      swap1\n      dup2\n      mstore\n      0x40\n      dup1\n      dup4\n      keccak256\n        /* \"AndrewTate-testnet.sol.sol\":15107:15117  msg.sender */\n      caller\n        /* \"AndrewTate-testnet.sol.sol\":15083:15118  _allowedFragments[from][msg.sender] */\n      dup5\n      mstore\n      swap1\n      swap2\n      mstore\n      swap1\n      keccak256\n        /* \"AndrewTate-testnet.sol.sol\":15083:15225  _allowedFragments[from][msg.sender] = _allowedFragments[from][\r... */\n      sstore\n        /* \"AndrewTate-testnet.sol.sol\":15012:15237  if (_allowedFragments[from][msg.sender] != uint256(-1)) {\r... */\n    tag_312:\n        /* \"AndrewTate-testnet.sol.sol\":15249:15279  _transferFrom(from, to, value) */\n      tag_315\n        /* \"AndrewTate-testnet.sol.sol\":15263:15267  from */\n      dup6\n        /* \"AndrewTate-testnet.sol.sol\":15269:15271  to */\n      dup6\n        /* \"AndrewTate-testnet.sol.sol\":15273:15278  value */\n      dup6\n        /* \"AndrewTate-testnet.sol.sol\":15249:15262  _transferFrom */\n      tag_316\n        /* \"AndrewTate-testnet.sol.sol\":15249:15279  _transferFrom(from, to, value) */\n      jump\t// in\n    tag_315:\n      pop\n        /* \"AndrewTate-testnet.sol.sol\":15297:15301  true */\n      0x01\n      swap6\n        /* \"AndrewTate-testnet.sol.sol\":14852:15309  function transferFrom(\r... */\n      swap5\n      pop\n      pop\n      pop\n      pop\n      pop\n      jump\t// out\n        /* \"AndrewTate-testnet.sol.sol\":20813:21028  function getCirculatingSupply() public view returns (uint256) {\r... */\n    tag_112:\n        /* \"AndrewTate-testnet.sol.sol\":20989:21005  _gonsPerFragment */\n      sload(0x19)\n        /* \"AndrewTate-testnet.sol.sol\":20959:20963  ZERO */\n      sload(0x0e)\n      sub(shl(0xa0, 0x01), 0x01)\n      swap1\n      dup2\n      and\n        /* \"AndrewTate-testnet.sol.sol\":20866:20873  uint256 */\n      0x00\n        /* \"AndrewTate-testnet.sol.sol\":20946:20964  _gonBalances[ZERO] */\n      swap1\n      dup2\n      mstore\n        /* \"AndrewTate-testnet.sol.sol\":20946:20958  _gonBalances */\n      0x1a\n        /* \"AndrewTate-testnet.sol.sol\":20946:20964  _gonBalances[ZERO] */\n      0x20\n      mstore\n      0x40\n      dup1\n      dup3\n      keccak256\n      sload\n        /* \"AndrewTate-testnet.sol.sol\":20935:20939  DEAD */\n      sload(0x0d)\n      swap1\n      swap4\n      and\n        /* \"AndrewTate-testnet.sol.sol\":20922:20940  _gonBalances[DEAD] */\n      dup3\n      mstore\n      dup2\n      keccak256\n      sload\n        /* \"AndrewTate-testnet.sol.sol\":20866:20873  uint256 */\n      swap1\n      swap3\n        /* \"AndrewTate-testnet.sol.sol\":20906:21020  (TOTAL_GONS.sub(_gonBalances[DEAD]).sub(_gonBalances[ZERO])).div(\r... */\n      tag_318\n      swap3\n        /* \"AndrewTate-testnet.sol.sol\":20989:21005  _gonsPerFragment */\n      swap1\n      swap2\n        /* \"AndrewTate-testnet.sol.sol\":20907:20965  TOTAL_GONS.sub(_gonBalances[DEAD]).sub(_gonBalances[ZERO]) */\n      tag_319\n      swap2\n        /* \"AndrewTate-testnet.sol.sol\":20946:20964  _gonBalances[ZERO] */\n      swap1\n        /* \"AndrewTate-testnet.sol.sol\":20907:20941  TOTAL_GONS.sub(_gonBalances[DEAD]) */\n      tag_320\n      swap1\n      not(0x01d290004395eb7bbfffffff)\n        /* \"AndrewTate-testnet.sol.sol\":10264:10318  MAX_UINT256 - (MAX_UINT256 % INITIAL_FRAGMENTS_SUPPLY) */\n      swap1\n        /* \"AndrewTate-testnet.sol.sol\":20907:20921  TOTAL_GONS.sub */\n      tag_322\n        /* \"AndrewTate-testnet.sol.sol\":20907:20941  TOTAL_GONS.sub(_gonBalances[DEAD]) */\n      jump\t// in\n    tag_320:\n        /* \"AndrewTate-testnet.sol.sol\":20907:20945  TOTAL_GONS.sub(_gonBalances[DEAD]).sub */\n      swap1\n      tag_322\n        /* \"AndrewTate-testnet.sol.sol\":20907:20965  TOTAL_GONS.sub(_gonBalances[DEAD]).sub(_gonBalances[ZERO]) */\n      jump\t// in\n    tag_319:\n        /* \"AndrewTate-testnet.sol.sol\":20906:20970  (TOTAL_GONS.sub(_gonBalances[DEAD]).sub(_gonBalances[ZERO])).div */\n      swap1\n      tag_282\n        /* \"AndrewTate-testnet.sol.sol\":20906:21020  (TOTAL_GONS.sub(_gonBalances[DEAD]).sub(_gonBalances[ZERO])).div(\r... */\n      jump\t// in\n    tag_318:\n        /* \"AndrewTate-testnet.sol.sol\":20886:21020  return\r... */\n      swap1\n      pop\n        /* \"AndrewTate-testnet.sol.sol\":20813:21028  function getCirculatingSupply() public view returns (uint256) {\r... */\n      swap1\n      jump\t// out\n        /* \"AndrewTate-testnet.sol.sol\":9435:9461  uint256 public sellFee = 5 */\n    tag_115:\n      sload(0x0a)\n      dup2\n      jump\t// out\n        /* \"AndrewTate-testnet.sol.sol\":19428:19542  function setInitialDistributionFinished() external onlyOwner {\r... */\n    tag_118:\n        /* \"AndrewTate-testnet.sol.sol\":7853:7862  isOwner() */\n      tag_324\n        /* \"AndrewTate-testnet.sol.sol\":7853:7860  isOwner */\n      tag_187\n        /* \"AndrewTate-testnet.sol.sol\":7853:7862  isOwner() */\n      jump\t// in\n    tag_324:\n        /* \"AndrewTate-testnet.sol.sol\":7845:7863  require(isOwner()) */\n      tag_325\n      jumpi\n      0x00\n      dup1\n      revert\n    tag_325:\n        /* \"AndrewTate-testnet.sol.sol\":19500:19527  initialDistributionFinished */\n      0x04\n        /* \"AndrewTate-testnet.sol.sol\":19500:19534  initialDistributionFinished = true */\n      dup1\n      sload\n      not(shl(0xa0, 0xff))\n      and\n      shl(0xa0, 0x01)\n      or\n      swap1\n      sstore\n        /* \"AndrewTate-testnet.sol.sol\":19428:19542  function setInitialDistributionFinished() external onlyOwner {\r... */\n      jump\t// out\n        /* \"AndrewTate-testnet.sol.sol\":13066:13206  function setLP(address _address) external onlyOwner {\r... */\n    tag_122:\n        /* \"AndrewTate-testnet.sol.sol\":7853:7862  isOwner() */\n      tag_328\n        /* \"AndrewTate-testnet.sol.sol\":7853:7860  isOwner */\n      tag_187\n        /* \"AndrewTate-testnet.sol.sol\":7853:7862  isOwner() */\n      jump\t// in\n    tag_328:\n        /* \"AndrewTate-testnet.sol.sol\":7845:7863  require(isOwner()) */\n      tag_329\n      jumpi\n      0x00\n      dup1\n      revert\n    tag_329:\n        /* \"AndrewTate-testnet.sol.sol\":13129:13141  pairContract */\n      0x04\n        /* \"AndrewTate-testnet.sol.sol\":13129:13165  pairContract = InterfaceLP(_address) */\n      dup1\n      sload\n      sub(shl(0xa0, 0x01), 0x01)\n      swap1\n      swap3\n      and\n      not(sub(shl(0xa0, 0x01), 0x01))\n      swap1\n      swap3\n      and\n      dup3\n      or\n      swap1\n      sstore\n        /* \"AndrewTate-testnet.sol.sol\":13129:13141  pairContract */\n      0x00\n        /* \"AndrewTate-testnet.sol.sol\":13176:13198  _isFeeExempt[_address] */\n      mstore\n        /* \"AndrewTate-testnet.sol.sol\":13176:13188  _isFeeExempt */\n      0x06\n        /* \"AndrewTate-testnet.sol.sol\":13176:13198  _isFeeExempt[_address] */\n      0x20\n      mstore\n        /* \"AndrewTate-testnet.sol.sol\":13066:13206  function setLP(address _address) external onlyOwner {\r... */\n      jump\t// out\n        /* \"AndrewTate-testnet.sol.sol\":21315:21412  function removeMinter(address account) public onlyOwner {\r... */\n    tag_126:\n        /* \"AndrewTate-testnet.sol.sol\":7853:7862  isOwner() */\n      tag_332\n        /* \"AndrewTate-testnet.sol.sol\":7853:7860  isOwner */\n      tag_187\n        /* \"AndrewTate-testnet.sol.sol\":7853:7862  isOwner() */\n      jump\t// in\n    tag_332:\n        /* \"AndrewTate-testnet.sol.sol\":7845:7863  require(isOwner()) */\n      tag_333\n      jumpi\n      0x00\n      dup1\n      revert\n    tag_333:\n        /* \"AndrewTate-testnet.sol.sol\":21382:21404  _removeMinter(account) */\n      tag_335\n        /* \"AndrewTate-testnet.sol.sol\":21396:21403  account */\n      dup2\n        /* \"AndrewTate-testnet.sol.sol\":21382:21395  _removeMinter */\n      tag_336\n        /* \"AndrewTate-testnet.sol.sol\":21382:21404  _removeMinter(account) */\n      jump\t// in\n    tag_335:\n        /* \"AndrewTate-testnet.sol.sol\":21315:21412  function removeMinter(address account) public onlyOwner {\r... */\n      pop\n      jump\t// out\n        /* \"AndrewTate-testnet.sol.sol\":5631:5714  function decimals() public view returns (uint8) {\r... */\n    tag_129:\n        /* \"AndrewTate-testnet.sol.sol\":5697:5706  _decimals */\n      and(0xff, sload(0x02))\n        /* \"AndrewTate-testnet.sol.sol\":5631:5714  function decimals() public view returns (uint8) {\r... */\n      swap1\n      jump\t// out\n        /* \"AndrewTate-testnet.sol.sol\":23099:23312  function rescueToken(address tokenAddress, uint256 tokens)\r... */\n    tag_133:\n        /* \"AndrewTate-testnet.sol.sol\":23211:23223  bool success */\n      0x00\n        /* \"AndrewTate-testnet.sol.sol\":7853:7862  isOwner() */\n      tag_339\n        /* \"AndrewTate-testnet.sol.sol\":7853:7860  isOwner */\n      tag_187\n        /* \"AndrewTate-testnet.sol.sol\":7853:7862  isOwner() */\n      jump\t// in\n    tag_339:\n        /* \"AndrewTate-testnet.sol.sol\":7845:7863  require(isOwner()) */\n      tag_340\n      jumpi\n      0x00\n      dup1\n      revert\n    tag_340:\n        /* \"AndrewTate-testnet.sol.sol\":23248:23304  ERC20Detailed(tokenAddress).transfer(msg.sender, tokens) */\n      0x40\n      dup1\n      mload\n      shl(0xe0, 0xa9059cbb)\n      dup2\n      mstore\n        /* \"AndrewTate-testnet.sol.sol\":23285:23295  msg.sender */\n      caller\n        /* \"AndrewTate-testnet.sol.sol\":23248:23304  ERC20Detailed(tokenAddress).transfer(msg.sender, tokens) */\n      0x04\n      dup3\n      add\n      mstore\n      0x24\n      dup2\n      add\n      dup5\n      swap1\n      mstore\n      swap1\n      mload\n      sub(shl(0xa0, 0x01), 0x01)\n        /* \"AndrewTate-testnet.sol.sol\":23248:23284  ERC20Detailed(tokenAddress).transfer */\n      dup6\n      and\n      swap2\n      0xa9059cbb\n      swap2\n        /* \"AndrewTate-testnet.sol.sol\":23248:23304  ERC20Detailed(tokenAddress).transfer(msg.sender, tokens) */\n      0x44\n      dup1\n      dup4\n      add\n      swap3\n      0x20\n      swap3\n      swap2\n      swap1\n      dup3\n      swap1\n      sub\n      add\n      dup2\n      0x00\n        /* \"AndrewTate-testnet.sol.sol\":23248:23284  ERC20Detailed(tokenAddress).transfer */\n      dup8\n        /* \"AndrewTate-testnet.sol.sol\":23248:23304  ERC20Detailed(tokenAddress).transfer(msg.sender, tokens) */\n      dup1\n      extcodesize\n      iszero\n      dup1\n      iszero\n      tag_342\n      jumpi\n      0x00\n      dup1\n      revert\n    tag_342:\n      pop\n      gas\n      call\n      iszero\n      dup1\n      iszero\n      tag_344\n      jumpi\n      returndatasize\n      0x00\n      dup1\n      returndatacopy\n      revert(0x00, returndatasize)\n    tag_344:\n      pop\n      pop\n      pop\n      pop\n      mload(0x40)\n      returndatasize\n      0x20\n      dup2\n      lt\n      iszero\n      tag_345\n      jumpi\n      0x00\n      dup1\n      revert\n    tag_345:\n      pop\n      mload\n      swap4\n        /* \"AndrewTate-testnet.sol.sol\":23099:23312  function rescueToken(address tokenAddress, uint256 tokens)\r... */\n      swap3\n      pop\n      pop\n      pop\n      jump\t// out\n        /* \"AndrewTate-testnet.sol.sol\":18566:19005  function increaseAllowance(address spender, uint256 addedValue)\r... */\n    tag_137:\n        /* \"AndrewTate-testnet.sol.sol\":8891:8918  initialDistributionFinished */\n      sload(0x04)\n        /* \"AndrewTate-testnet.sol.sol\":18699:18703  bool */\n      0x00\n      swap1\n      shl(0xa0, 0x01)\n        /* \"AndrewTate-testnet.sol.sol\":8891:8918  initialDistributionFinished */\n      swap1\n      div\n      0xff\n      and\n      dup1\n        /* \"AndrewTate-testnet.sol.sol\":8891:8948  initialDistributionFinished ||\r... */\n      tag_348\n      jumpi\n      pop\n        /* \"AndrewTate-testnet.sol.sol\":8939:8948  isOwner() */\n      tag_348\n        /* \"AndrewTate-testnet.sol.sol\":8939:8946  isOwner */\n      tag_187\n        /* \"AndrewTate-testnet.sol.sol\":8939:8948  isOwner() */\n      jump\t// in\n    tag_348:\n        /* \"AndrewTate-testnet.sol.sol\":8891:8994  initialDistributionFinished ||\r... */\n      dup1\n      tag_349\n      jumpi\n      pop\n        /* \"AndrewTate-testnet.sol.sol\":8983:8993  msg.sender */\n      caller\n        /* \"AndrewTate-testnet.sol.sol\":8969:8994  allowTransfer[msg.sender] */\n      0x00\n      swap1\n      dup2\n      mstore\n        /* \"AndrewTate-testnet.sol.sol\":8969:8982  allowTransfer */\n      0x05\n        /* \"AndrewTate-testnet.sol.sol\":8969:8994  allowTransfer[msg.sender] */\n      0x20\n      mstore\n      0x40\n      swap1\n      keccak256\n      sload\n      0xff\n      and\n        /* \"AndrewTate-testnet.sol.sol\":8891:8994  initialDistributionFinished ||\r... */\n    tag_349:\n        /* \"AndrewTate-testnet.sol.sol\":8869:9005  require(\r... */\n      tag_350\n      jumpi\n      0x00\n      dup1\n      revert\n    tag_350:\n        /* \"AndrewTate-testnet.sol.sol\":18780:18790  msg.sender */\n      caller\n        /* \"AndrewTate-testnet.sol.sol\":18762:18791  _allowedFragments[msg.sender] */\n      0x00\n      swap1\n      dup2\n      mstore\n        /* \"AndrewTate-testnet.sol.sol\":18762:18779  _allowedFragments */\n      0x1b\n        /* \"AndrewTate-testnet.sol.sol\":18762:18791  _allowedFragments[msg.sender] */\n      0x20\n      swap1\n      dup2\n      mstore\n      0x40\n      dup1\n      dup4\n      keccak256\n      sub(shl(0xa0, 0x01), 0x01)\n        /* \"AndrewTate-testnet.sol.sol\":18762:18824  _allowedFragments[msg.sender][\r... */\n      dup8\n      and\n      dup5\n      mstore\n      swap1\n      swap2\n      mstore\n      swap1\n      keccak256\n      sload\n        /* \"AndrewTate-testnet.sol.sol\":18762:18840  _allowedFragments[msg.sender][\r... */\n      tag_352\n      swap1\n        /* \"AndrewTate-testnet.sol.sol\":18829:18839  addedValue */\n      dup4\n        /* \"AndrewTate-testnet.sol.sol\":18762:18828  _allowedFragments[msg.sender][\r... */\n      tag_281\n        /* \"AndrewTate-testnet.sol.sol\":18762:18840  _allowedFragments[msg.sender][\r... */\n      jump\t// in\n    tag_352:\n        /* \"AndrewTate-testnet.sol.sol\":18739:18749  msg.sender */\n      caller\n        /* \"AndrewTate-testnet.sol.sol\":18721:18750  _allowedFragments[msg.sender] */\n      0x00\n      dup2\n      dup2\n      mstore\n        /* \"AndrewTate-testnet.sol.sol\":18721:18738  _allowedFragments */\n      0x1b\n        /* \"AndrewTate-testnet.sol.sol\":18721:18750  _allowedFragments[msg.sender] */\n      0x20\n      swap1\n      dup2\n      mstore\n      0x40\n      dup1\n      dup4\n      keccak256\n      sub(shl(0xa0, 0x01), 0x01)\n        /* \"AndrewTate-testnet.sol.sol\":18721:18759  _allowedFragments[msg.sender][spender] */\n      dup10\n      and\n      dup1\n      dup6\n      mstore\n      swap1\n      dup4\n      mstore\n      swap3\n      dup2\n      swap1\n      keccak256\n        /* \"AndrewTate-testnet.sol.sol\":18721:18840  _allowedFragments[msg.sender][spender] = _allowedFragments[msg.sender][\r... */\n      dup6\n      swap1\n      sstore\n        /* \"AndrewTate-testnet.sol.sol\":18856:18975  Approval(\r... */\n      dup1\n      mload\n      swap5\n      dup6\n      mstore\n      mload\n        /* \"AndrewTate-testnet.sol.sol\":18721:18759  _allowedFragments[msg.sender][spender] */\n      swap2\n      swap4\n        /* \"AndrewTate-testnet.sol.sol\":18856:18975  Approval(\r... */\n      0x8c5be1e5ebec7d5bd14f71427d1e84f3dd0314c0f7b2291e5b200ac8c7c3b925\n      swap3\n      swap1\n      dup2\n      swap1\n      sub\n      swap1\n      swap2\n      add\n      swap1\n      log3\n      pop\n        /* \"AndrewTate-testnet.sol.sol\":18993:18997  true */\n      0x01\n        /* \"AndrewTate-testnet.sol.sol\":18566:19005  function increaseAllowance(address spender, uint256 addedValue)\r... */\n      swap3\n      swap2\n      pop\n      pop\n      jump\t// out\n        /* \"AndrewTate-testnet.sol.sol\":19936:20331  function mint(address recipient, uint256 amount) external onlyMinter {\r... */\n    tag_141:\n        /* \"AndrewTate-testnet.sol.sol\":4501:4521  isMinter(msg.sender) */\n      tag_354\n        /* \"AndrewTate-testnet.sol.sol\":4510:4520  msg.sender */\n      caller\n        /* \"AndrewTate-testnet.sol.sol\":4501:4509  isMinter */\n      tag_223\n        /* \"AndrewTate-testnet.sol.sol\":4501:4521  isMinter(msg.sender) */\n      jump\t// in\n    tag_354:\n        /* \"AndrewTate-testnet.sol.sol\":4493:4574  require(isMinter(msg.sender), \"MinterRole: caller does not have the Minter role\") */\n      tag_355\n      jumpi\n      mload(0x40)\n      shl(0xe5, 0x461bcd)\n      dup2\n      mstore\n      0x04\n      add\n      dup1\n      dup1\n      0x20\n      add\n      dup3\n      dup2\n      sub\n      dup3\n      mstore\n      0x30\n      dup2\n      mstore\n      0x20\n      add\n      dup1\n      data_79ecb50133735b20228dea9d08fe36a462bbc1350f591a146908848db91104cd\n      0x30\n      swap2\n      codecopy\n      0x40\n      add\n      swap2\n      pop\n      pop\n      mload(0x40)\n      dup1\n      swap2\n      sub\n      swap1\n      revert\n    tag_355:\n        /* \"AndrewTate-testnet.sol.sol\":20031:20043  _totalSupply */\n      sload(0x18)\n        /* \"AndrewTate-testnet.sol.sol\":20031:20064  _totalSupply.add(uint256(amount)) */\n      tag_357\n      swap1\n        /* \"AndrewTate-testnet.sol.sol\":20056:20062  amount */\n      dup3\n        /* \"AndrewTate-testnet.sol.sol\":20031:20047  _totalSupply.add */\n      tag_281\n        /* \"AndrewTate-testnet.sol.sol\":20031:20064  _totalSupply.add(uint256(amount)) */\n      jump\t// in\n    tag_357:\n        /* \"AndrewTate-testnet.sol.sol\":20016:20028  _totalSupply */\n      0x18\n        /* \"AndrewTate-testnet.sol.sol\":20016:20064  _totalSupply = _totalSupply.add(uint256(amount)) */\n      dup2\n      swap1\n      sstore\n      sub(shl(0x80, 0x01), 0x01)\n      lt\n        /* \"AndrewTate-testnet.sol.sol\":20077:20160  if (_totalSupply > MAX_SUPPLY) {\r... */\n      iszero\n      tag_358\n      jumpi\n      sub(shl(0x80, 0x01), 0x01)\n        /* \"AndrewTate-testnet.sol.sol\":20123:20135  _totalSupply */\n      0x18\n        /* \"AndrewTate-testnet.sol.sol\":20123:20148  _totalSupply = MAX_SUPPLY */\n      sstore\n        /* \"AndrewTate-testnet.sol.sol\":20077:20160  if (_totalSupply > MAX_SUPPLY) {\r... */\n    tag_358:\n        /* \"AndrewTate-testnet.sol.sol\":20206:20218  _totalSupply */\n      sload(0x18)\n        /* \"AndrewTate-testnet.sol.sol\":20191:20219  TOTAL_GONS.div(_totalSupply) */\n      tag_359\n      swap1\n        /* \"AndrewTate-testnet.sol.sol\":9291:9315  4 * 10**9 * 10**DECIMALS */\n      0x0cecb8f27f4200f3a0000000\n      not(0x00)\n        /* \"AndrewTate-testnet.sol.sol\":10279:10317  MAX_UINT256 % INITIAL_FRAGMENTS_SUPPLY */\n    tag_360:\n      mod\n        /* \"AndrewTate-testnet.sol.sol\":10264:10318  MAX_UINT256 - (MAX_UINT256 % INITIAL_FRAGMENTS_SUPPLY) */\n      not\n      swap1\n        /* \"AndrewTate-testnet.sol.sol\":20191:20205  TOTAL_GONS.div */\n      tag_282\n        /* \"AndrewTate-testnet.sol.sol\":20191:20219  TOTAL_GONS.div(_totalSupply) */\n      jump\t// in\n    tag_359:\n        /* \"AndrewTate-testnet.sol.sol\":20172:20188  _gonsPerFragment */\n      0x19\n        /* \"AndrewTate-testnet.sol.sol\":20172:20219  _gonsPerFragment = TOTAL_GONS.div(_totalSupply) */\n      sstore\n        /* \"AndrewTate-testnet.sol.sol\":20230:20242  pairContract */\n      0x04\n      dup1\n      sload\n        /* \"AndrewTate-testnet.sol.sol\":20230:20249  pairContract.sync() */\n      0x40\n      dup1\n      mload\n      not(sub(shl(0xe0, 0x093517), 0x01))\n      dup2\n      mstore\n      swap1\n      mload\n      sub(shl(0xa0, 0x01), 0x01)\n        /* \"AndrewTate-testnet.sol.sol\":20230:20242  pairContract */\n      swap1\n      swap3\n      and\n      swap3\n        /* \"AndrewTate-testnet.sol.sol\":20230:20247  pairContract.sync */\n      0xfff6cae9\n      swap3\n        /* \"AndrewTate-testnet.sol.sol\":20230:20249  pairContract.sync() */\n      dup3\n      dup3\n      add\n      swap3\n        /* \"AndrewTate-testnet.sol.sol\":20230:20242  pairContract */\n      0x00\n      swap3\n        /* \"AndrewTate-testnet.sol.sol\":20230:20249  pairContract.sync() */\n      swap1\n      dup3\n      swap1\n      sub\n      add\n      dup2\n        /* \"AndrewTate-testnet.sol.sol\":20230:20242  pairContract */\n      dup4\n      dup8\n        /* \"AndrewTate-testnet.sol.sol\":20230:20249  pairContract.sync() */\n      dup1\n      extcodesize\n      iszero\n      dup1\n      iszero\n      tag_361\n      jumpi\n      0x00\n      dup1\n      revert\n    tag_361:\n      pop\n      gas\n      call\n      iszero\n      dup1\n      iszero\n      tag_363\n      jumpi\n      returndatasize\n      0x00\n      dup1\n      returndatacopy\n      revert(0x00, returndatasize)\n    tag_363:\n      pop\n      pop\n      pop\n      sub(shl(0xa0, 0x01), 0x01)\n        /* \"AndrewTate-testnet.sol.sol\":20288:20311  _gonBalances[recipient] */\n      dup4\n      and\n      0x00\n      swap1\n      dup2\n      mstore\n        /* \"AndrewTate-testnet.sol.sol\":20288:20300  _gonBalances */\n      0x1a\n        /* \"AndrewTate-testnet.sol.sol\":20288:20311  _gonBalances[recipient] */\n      0x20\n      mstore\n      0x40\n      swap1\n      keccak256\n      sload\n        /* \"AndrewTate-testnet.sol.sol\":20288:20323  _gonBalances[recipient].add(amount) */\n      tag_364\n      swap2\n      pop\n        /* \"AndrewTate-testnet.sol.sol\":20316:20322  amount */\n      dup3\n        /* \"AndrewTate-testnet.sol.sol\":20288:20315  _gonBalances[recipient].add */\n      tag_281\n        /* \"AndrewTate-testnet.sol.sol\":20288:20323  _gonBalances[recipient].add(amount) */\n      jump\t// in\n    tag_364:\n      sub(shl(0xa0, 0x01), 0x01)\n        /* \"AndrewTate-testnet.sol.sol\":20262:20285  _gonBalances[recipient] */\n      swap1\n      swap3\n      and\n      0x00\n      swap1\n      dup2\n      mstore\n        /* \"AndrewTate-testnet.sol.sol\":20262:20274  _gonBalances */\n      0x1a\n        /* \"AndrewTate-testnet.sol.sol\":20262:20285  _gonBalances[recipient] */\n      0x20\n      mstore\n      0x40\n      swap1\n      keccak256\n        /* \"AndrewTate-testnet.sol.sol\":20262:20323  _gonBalances[recipient] = _gonBalances[recipient].add(amount) */\n      swap2\n      swap1\n      swap2\n      sstore\n      pop\n        /* \"AndrewTate-testnet.sol.sol\":19936:20331  function mint(address recipient, uint256 amount) external onlyMinter {\r... */\n      jump\t// out\n        /* \"AndrewTate-testnet.sol.sol\":8644:8675  InterfaceLP public pairContract */\n    tag_144:\n      and(sub(shl(0xa0, 0x01), 0x01), sload(0x04))\n      dup2\n      jump\t// out\n        /* \"AndrewTate-testnet.sol.sol\":9362:9389  uint256 public Treasury = 3 */\n    tag_147:\n      sload(0x08)\n      dup2\n      jump\t// out\n        /* \"AndrewTate-testnet.sol.sol\":22852:23091  function clearStuckBalance(uint256 amountPercentage, address adr) external onlyOwner {\r... */\n    tag_151:\n        /* \"AndrewTate-testnet.sol.sol\":7853:7862  isOwner() */\n      tag_366\n        /* \"AndrewTate-testnet.sol.sol\":7853:7860  isOwner */\n      tag_187\n        /* \"AndrewTate-testnet.sol.sol\":7853:7862  isOwner() */\n      jump\t// in\n    tag_366:\n        /* \"AndrewTate-testnet.sol.sol\":7845:7863  require(isOwner()) */\n      tag_367\n      jumpi\n      0x00\n      dup1\n      revert\n    tag_367:\n        /* \"AndrewTate-testnet.sol.sol\":23000:23083  payable(adr).transfer(\r... */\n      mload(0x40)\n        /* \"AndrewTate-testnet.sol.sol\":22968:22989  address(this).balance */\n      selfbalance\n      swap1\n      sub(shl(0xa0, 0x01), 0x01)\n        /* \"AndrewTate-testnet.sol.sol\":23000:23021  payable(adr).transfer */\n      dup4\n      and\n      swap1\n        /* \"AndrewTate-testnet.sol.sol\":23069:23072  100 */\n      0x64\n        /* \"AndrewTate-testnet.sol.sol\":23037:23065  amountETH * amountPercentage */\n      dup6\n      dup5\n      mul\n        /* \"AndrewTate-testnet.sol.sol\":23036:23072  (amountETH * amountPercentage) / 100 */\n      div\n        /* \"AndrewTate-testnet.sol.sol\":23000:23083  payable(adr).transfer(\r... */\n      dup1\n      iszero\n      0x08fc\n      mul\n      swap2\n      0x00\n      dup2\n      dup2\n      dup2\n        /* \"AndrewTate-testnet.sol.sol\":23036:23072  (amountETH * amountPercentage) / 100 */\n      dup6\n        /* \"AndrewTate-testnet.sol.sol\":23000:23021  payable(adr).transfer */\n      dup9\n        /* \"AndrewTate-testnet.sol.sol\":23000:23083  payable(adr).transfer(\r... */\n      dup9\n      call\n      swap4\n      pop\n      pop\n      pop\n      pop\n      iszero\n      dup1\n      iszero\n      tag_371\n      jumpi\n      returndatasize\n      0x00\n      dup1\n      returndatacopy\n      revert(0x00, returndatasize)\n    tag_371:\n      pop\n        /* \"AndrewTate-testnet.sol.sol\":7874:7875  _ */\n      pop\n        /* \"AndrewTate-testnet.sol.sol\":22852:23091  function clearStuckBalance(uint256 amountPercentage, address adr) external onlyOwner {\r... */\n      pop\n      pop\n      jump\t// out\n        /* \"AndrewTate-testnet.sol.sol\":21778:21904  function checkSwapThreshold() external view returns (uint256) {\r... */\n    tag_154:\n        /* \"AndrewTate-testnet.sol.sol\":21831:21838  uint256 */\n      0x00\n        /* \"AndrewTate-testnet.sol.sol\":21858:21896  gonSwapThreshold.div(_gonsPerFragment) */\n      tag_318\n        /* \"AndrewTate-testnet.sol.sol\":21879:21895  _gonsPerFragment */\n      sload(0x19)\n        /* \"AndrewTate-testnet.sol.sol\":21858:21874  gonSwapThreshold */\n      sload(0x16)\n        /* \"AndrewTate-testnet.sol.sol\":21858:21878  gonSwapThreshold.div */\n      tag_282\n      swap1\n        /* \"AndrewTate-testnet.sol.sol\":21858:21896  gonSwapThreshold.div(_gonsPerFragment) */\n      swap2\n      swap1\n      0xffffffff\n      and\n      jump\t// in\n        /* \"AndrewTate-testnet.sol.sol\":9998:10028  bool public swapEnabled = true */\n    tag_157:\n      sload(0x15)\n      shl(0xa0, 0x01)\n      swap1\n      div\n      0xff\n      and\n      dup2\n      jump\t// out\n        /* \"AndrewTate-testnet.sol.sol\":13416:13554  function balanceOf(address who) external view override returns (uint256) {\r... */\n    tag_161:\n        /* \"AndrewTate-testnet.sol.sol\":13529:13545  _gonsPerFragment */\n      sload(0x19)\n      sub(shl(0xa0, 0x01), 0x01)\n        /* \"AndrewTate-testnet.sol.sol\":13507:13524  _gonBalances[who] */\n      dup3\n      and\n        /* \"AndrewTate-testnet.sol.sol\":13480:13487  uint256 */\n      0x00\n        /* \"AndrewTate-testnet.sol.sol\":13507:13524  _gonBalances[who] */\n      swap1\n      dup2\n      mstore\n        /* \"AndrewTate-testnet.sol.sol\":13507:13519  _gonBalances */\n      0x1a\n        /* \"AndrewTate-testnet.sol.sol\":13507:13524  _gonBalances[who] */\n      0x20\n      mstore\n      0x40\n      dup2\n      keccak256\n      sload\n        /* \"AndrewTate-testnet.sol.sol\":13480:13487  uint256 */\n      swap1\n      swap2\n        /* \"AndrewTate-testnet.sol.sol\":13507:13546  _gonBalances[who].div(_gonsPerFragment) */\n      tag_301\n      swap2\n        /* \"AndrewTate-testnet.sol.sol\":13507:13524  _gonBalances[who] */\n      swap1\n        /* \"AndrewTate-testnet.sol.sol\":13507:13528  _gonBalances[who].div */\n      tag_282\n        /* \"AndrewTate-testnet.sol.sol\":13507:13546  _gonBalances[who].div(_gonsPerFragment) */\n      jump\t// in\n        /* \"AndrewTate-testnet.sol.sol\":7991:8117  function renounceOwnership() public onlyOwner {\r... */\n    tag_164:\n        /* \"AndrewTate-testnet.sol.sol\":7853:7862  isOwner() */\n      tag_377\n        /* \"AndrewTate-testnet.sol.sol\":7853:7860  isOwner */\n      tag_187\n        /* \"AndrewTate-testnet.sol.sol\":7853:7862  isOwner() */\n      jump\t// in\n    tag_377:\n        /* \"AndrewTate-testnet.sol.sol\":7845:7863  require(isOwner()) */\n      tag_378\n      jumpi\n      0x00\n      dup1\n      revert\n    tag_378:\n        /* \"AndrewTate-testnet.sol.sol\":8072:8078  _owner */\n      sload(0x02)\n        /* \"AndrewTate-testnet.sol.sol\":8053:8079  OwnershipRenounced(_owner) */\n      mload(0x40)\n        /* \"AndrewTate-testnet.sol.sol\":8072:8078  _owner */\n      0x0100\n      swap1\n      swap2\n      div\n      sub(shl(0xa0, 0x01), 0x01)\n      and\n      swap1\n        /* \"AndrewTate-testnet.sol.sol\":8053:8079  OwnershipRenounced(_owner) */\n      0xf8df31144d9c2f0f6b59d69b8b98abd5459d07f2742c4df920b25aae33c64820\n      swap1\n      0x00\n      swap1\n      log2\n        /* \"AndrewTate-testnet.sol.sol\":8090:8096  _owner */\n      0x02\n        /* \"AndrewTate-testnet.sol.sol\":8090:8109  _owner = address(0) */\n      dup1\n      sload\n      not(sub(shl(0xa8, 0x01), 0x0100))\n      and\n      swap1\n      sstore\n        /* \"AndrewTate-testnet.sol.sol\":7991:8117  function renounceOwnership() public onlyOwner {\r... */\n      jump\t// out\n        /* \"AndrewTate-testnet.sol.sol\":19662:19763  function setFeeExempt(address _addr) external onlyOwner {\r... */\n    tag_168:\n        /* \"AndrewTate-testnet.sol.sol\":7853:7862  isOwner() */\n      tag_381\n        /* \"AndrewTate-testnet.sol.sol\":7853:7860  isOwner */\n      tag_187\n        /* \"AndrewTate-testnet.sol.sol\":7853:7862  isOwner() */\n      jump\t// in\n    tag_381:\n        /* \"AndrewTate-testnet.sol.sol\":7845:7863  require(isOwner()) */\n      tag_382\n      jumpi\n      0x00\n      dup1\n      revert\n    tag_382:\n      sub(shl(0xa0, 0x01), 0x01)\n        /* \"AndrewTate-testnet.sol.sol\":19729:19748  _isFeeExempt[_addr] */\n      and\n      0x00\n      swap1\n      dup2\n      mstore\n        /* \"AndrewTate-testnet.sol.sol\":19729:19741  _isFeeExempt */\n      0x06\n        /* \"AndrewTate-testnet.sol.sol\":19729:19748  _isFeeExempt[_addr] */\n      0x20\n      mstore\n      0x40\n      swap1\n      keccak256\n        /* \"AndrewTate-testnet.sol.sol\":19729:19755  _isFeeExempt[_addr] = true */\n      dup1\n      sload\n      not(0xff)\n      and\n        /* \"AndrewTate-testnet.sol.sol\":19751:19755  true */\n      0x01\n        /* \"AndrewTate-testnet.sol.sol\":19729:19755  _isFeeExempt[_addr] = true */\n      or\n      swap1\n      sstore\n        /* \"AndrewTate-testnet.sol.sol\":19662:19763  function setFeeExempt(address _addr) external onlyOwner {\r... */\n      jump\t// out\n        /* \"AndrewTate-testnet.sol.sol\":21912:21986  function manualSync() external {\r... */\n    tag_171:\n        /* \"AndrewTate-testnet.sol.sol\":21966:21970  pair */\n      0x15\n      0x00\n      swap1\n      sload\n      swap1\n      0x0100\n      exp\n      swap1\n      div\n      sub(shl(0xa0, 0x01), 0x01)\n      and\n      sub(shl(0xa0, 0x01), 0x01)\n        /* \"AndrewTate-testnet.sol.sol\":21954:21976  InterfaceLP(pair).sync */\n      and\n      0xfff6cae9\n        /* \"AndrewTate-testnet.sol.sol\":21954:21978  InterfaceLP(pair).sync() */\n      mload(0x40)\n      dup2\n      0xffffffff\n      and\n      0xe0\n      shl\n      dup2\n      mstore\n      0x04\n      add\n      0x00\n      mload(0x40)\n      dup1\n      dup4\n      sub\n      dup2\n      0x00\n      dup8\n      dup1\n      extcodesize\n      iszero\n      dup1\n      iszero\n      tag_385\n      jumpi\n      0x00\n      dup1\n      revert\n    tag_385:\n      pop\n      gas\n      call\n      iszero\n      dup1\n      iszero\n      tag_371\n      jumpi\n      returndatasize\n      0x00\n      dup1\n      returndatacopy\n      revert(0x00, returndatasize)\n        /* \"AndrewTate-testnet.sol.sol\":11933:12692  function rebase(uint256 epoch, int256 supplyDelta)\r... */\n    tag_175:\n        /* \"AndrewTate-testnet.sol.sol\":12039:12046  uint256 */\n      0x00\n        /* \"AndrewTate-testnet.sol.sol\":7853:7862  isOwner() */\n      tag_389\n        /* \"AndrewTate-testnet.sol.sol\":7853:7860  isOwner */\n      tag_187\n        /* \"AndrewTate-testnet.sol.sol\":7853:7862  isOwner() */\n      jump\t// in\n    tag_389:\n        /* \"AndrewTate-testnet.sol.sol\":7845:7863  require(isOwner()) */\n      tag_390\n      jumpi\n      0x00\n      dup1\n      revert\n    tag_390:\n        /* \"AndrewTate-testnet.sol.sol\":12073:12079  inSwap */\n      and(0xff, sload(0x17))\n        /* \"AndrewTate-testnet.sol.sol\":12072:12079  !inSwap */\n      iszero\n        /* \"AndrewTate-testnet.sol.sol\":12064:12093  require(!inSwap, \"Try again\") */\n      tag_392\n      jumpi\n      0x40\n      dup1\n      mload\n      shl(0xe5, 0x461bcd)\n      dup2\n      mstore\n      0x20\n      0x04\n      dup3\n      add\n      mstore\n      0x09\n      0x24\n      dup3\n      add\n      mstore\n      shl(0xb9, 0x2a393c9030b3b0b4b7)\n      0x44\n      dup3\n      add\n      mstore\n      swap1\n      mload\n      swap1\n      dup2\n      swap1\n      sub\n      0x64\n      add\n      swap1\n      revert\n    tag_392:\n        /* \"AndrewTate-testnet.sol.sol\":12108:12124  supplyDelta == 0 */\n      dup2\n        /* \"AndrewTate-testnet.sol.sol\":12104:12222  if (supplyDelta == 0) {\r... */\n      tag_393\n      jumpi\n        /* \"AndrewTate-testnet.sol.sol\":12163:12175  _totalSupply */\n      sload(0x18)\n        /* \"AndrewTate-testnet.sol.sol\":12146:12176  LogRebase(epoch, _totalSupply) */\n      0x40\n      dup1\n      mload\n      swap2\n      dup3\n      mstore\n      mload\n        /* \"AndrewTate-testnet.sol.sol\":12156:12161  epoch */\n      dup5\n      swap2\n        /* \"AndrewTate-testnet.sol.sol\":12146:12176  LogRebase(epoch, _totalSupply) */\n      0x72725a3b1e5bd622d6bcd1339bb31279c351abe8f541ac7fd320f24e1b1641f2\n      swap2\n      swap1\n      dup2\n      swap1\n      sub\n      0x20\n      add\n      swap1\n      log2\n      pop\n        /* \"AndrewTate-testnet.sol.sol\":12198:12210  _totalSupply */\n      sload(0x18)\n        /* \"AndrewTate-testnet.sol.sol\":12191:12210  return _totalSupply */\n      jump(tag_301)\n        /* \"AndrewTate-testnet.sol.sol\":12104:12222  if (supplyDelta == 0) {\r... */\n    tag_393:\n        /* \"AndrewTate-testnet.sol.sol\":12252:12253  0 */\n      0x00\n        /* \"AndrewTate-testnet.sol.sol\":12238:12249  supplyDelta */\n      dup3\n        /* \"AndrewTate-testnet.sol.sol\":12238:12253  supplyDelta < 0 */\n      slt\n        /* \"AndrewTate-testnet.sol.sol\":12234:12422  if (supplyDelta < 0) {\r... */\n      iszero\n      tag_394\n      jumpi\n        /* \"AndrewTate-testnet.sol.sol\":12285:12297  _totalSupply */\n      sload(0x18)\n        /* \"AndrewTate-testnet.sol.sol\":12285:12324  _totalSupply.sub(uint256(-supplyDelta)) */\n      tag_395\n      swap1\n        /* \"AndrewTate-testnet.sol.sol\":12310:12322  -supplyDelta */\n      0x00\n      dup5\n      swap1\n      sub\n        /* \"AndrewTate-testnet.sol.sol\":12285:12301  _totalSupply.sub */\n      tag_322\n        /* \"AndrewTate-testnet.sol.sol\":12285:12324  _totalSupply.sub(uint256(-supplyDelta)) */\n      jump\t// in\n    tag_395:\n        /* \"AndrewTate-testnet.sol.sol\":12270:12282  _totalSupply */\n      0x18\n        /* \"AndrewTate-testnet.sol.sol\":12270:12324  _totalSupply = _totalSupply.sub(uint256(-supplyDelta)) */\n      sstore\n        /* \"AndrewTate-testnet.sol.sol\":12234:12422  if (supplyDelta < 0) {\r... */\n      jump(tag_396)\n    tag_394:\n        /* \"AndrewTate-testnet.sol.sol\":12372:12384  _totalSupply */\n      sload(0x18)\n        /* \"AndrewTate-testnet.sol.sol\":12372:12410  _totalSupply.add(uint256(supplyDelta)) */\n      tag_397\n      swap1\n        /* \"AndrewTate-testnet.sol.sol\":12397:12408  supplyDelta */\n      dup4\n        /* \"AndrewTate-testnet.sol.sol\":12372:12388  _totalSupply.add */\n      tag_281\n        /* \"AndrewTate-testnet.sol.sol\":12372:12410  _totalSupply.add(uint256(supplyDelta)) */\n      jump\t// in\n    tag_397:\n        /* \"AndrewTate-testnet.sol.sol\":12357:12369  _totalSupply */\n      0x18\n        /* \"AndrewTate-testnet.sol.sol\":12357:12410  _totalSupply = _totalSupply.add(uint256(supplyDelta)) */\n      sstore\n        /* \"AndrewTate-testnet.sol.sol\":12234:12422  if (supplyDelta < 0) {\r... */\n    tag_396:\n        /* \"AndrewTate-testnet.sol.sol\":12438:12450  _totalSupply */\n      lt(sub(shl(0x80, 0x01), 0x01), sload(0x18))\n        /* \"AndrewTate-testnet.sol.sol\":12434:12517  if (_totalSupply > MAX_SUPPLY) {\r... */\n      iszero\n      tag_398\n      jumpi\n      sub(shl(0x80, 0x01), 0x01)\n        /* \"AndrewTate-testnet.sol.sol\":12480:12492  _totalSupply */\n      0x18\n        /* \"AndrewTate-testnet.sol.sol\":12480:12505  _totalSupply = MAX_SUPPLY */\n      sstore\n        /* \"AndrewTate-testnet.sol.sol\":12434:12517  if (_totalSupply > MAX_SUPPLY) {\r... */\n    tag_398:\n        /* \"AndrewTate-testnet.sol.sol\":12563:12575  _totalSupply */\n      sload(0x18)\n        /* \"AndrewTate-testnet.sol.sol\":12548:12576  TOTAL_GONS.div(_totalSupply) */\n      tag_399\n      swap1\n        /* \"AndrewTate-testnet.sol.sol\":9291:9315  4 * 10**9 * 10**DECIMALS */\n      0x0cecb8f27f4200f3a0000000\n      not(0x00)\n        /* \"AndrewTate-testnet.sol.sol\":10279:10317  MAX_UINT256 % INITIAL_FRAGMENTS_SUPPLY */\n      jump(tag_360)\n        /* \"AndrewTate-testnet.sol.sol\":12548:12576  TOTAL_GONS.div(_totalSupply) */\n    tag_399:\n        /* \"AndrewTate-testnet.sol.sol\":12529:12545  _gonsPerFragment */\n      0x19\n        /* \"AndrewTate-testnet.sol.sol\":12529:12576  _gonsPerFragment = TOTAL_GONS.div(_totalSupply) */\n      sstore\n        /* \"AndrewTate-testnet.sol.sol\":12587:12599  pairContract */\n      0x04\n      dup1\n      sload\n        /* \"AndrewTate-testnet.sol.sol\":12587:12606  pairContract.sync() */\n      0x40\n      dup1\n      mload\n      not(sub(shl(0xe0, 0x093517), 0x01))\n      dup2\n      mstore\n      swap1\n      mload\n      sub(shl(0xa0, 0x01), 0x01)\n        /* \"AndrewTate-testnet.sol.sol\":12587:12599  pairContract */\n      swap1\n      swap3\n      and\n      swap3\n        /* \"AndrewTate-testnet.sol.sol\":12587:12604  pairContract.sync */\n      0xfff6cae9\n      swap3\n        /* \"AndrewTate-testnet.sol.sol\":12587:12606  pairContract.sync() */\n      dup3\n      dup3\n      add\n      swap3\n        /* \"AndrewTate-testnet.sol.sol\":12587:12599  pairContract */\n      0x00\n      swap3\n        /* \"AndrewTate-testnet.sol.sol\":12587:12606  pairContract.sync() */\n      swap1\n      dup3\n      swap1\n      sub\n      add\n      dup2\n        /* \"AndrewTate-testnet.sol.sol\":12587:12599  pairContract */\n      dup4\n      dup8\n        /* \"AndrewTate-testnet.sol.sol\":12587:12606  pairContract.sync() */\n      dup1\n      extcodesize\n      iszero\n      dup1\n      iszero\n      tag_401\n      jumpi\n      0x00\n      dup1\n      revert\n    tag_401:\n      pop\n      gas\n      call\n      iszero\n      dup1\n      iszero\n      tag_403\n      jumpi\n      returndatasize\n      0x00\n      dup1\n      returndatacopy\n      revert(0x00, returndatasize)\n    tag_403:\n      pop\n      pop\n        /* \"AndrewTate-testnet.sol.sol\":12641:12653  _totalSupply */\n      sload(0x18)\n        /* \"AndrewTate-testnet.sol.sol\":12624:12654  LogRebase(epoch, _totalSupply) */\n      0x40\n      dup1\n      mload\n      swap2\n      dup3\n      mstore\n      mload\n        /* \"AndrewTate-testnet.sol.sol\":12634:12639  epoch */\n      dup7\n      swap4\n      pop\n        /* \"AndrewTate-testnet.sol.sol\":12624:12654  LogRebase(epoch, _totalSupply) */\n      0x72725a3b1e5bd622d6bcd1339bb31279c351abe8f541ac7fd320f24e1b1641f2\n      swap3\n      pop\n      swap1\n      dup2\n      swap1\n      sub\n      0x20\n      add\n      swap1\n      log2\n      pop\n        /* \"AndrewTate-testnet.sol.sol\":12672:12684  _totalSupply */\n      sload(0x18)\n        /* \"AndrewTate-testnet.sol.sol\":11933:12692  function rebase(uint256 epoch, int256 supplyDelta)\r... */\n      swap3\n      swap2\n      pop\n      pop\n      jump\t// out\n        /* \"AndrewTate-testnet.sol.sol\":9772:9803  address public TreasuryReceiver */\n    tag_178:\n      and(sub(shl(0xa0, 0x01), 0x01), sload(0x10))\n      dup2\n      jump\t// out\n        /* \"AndrewTate-testnet.sol.sol\":21420:21505  function isNotInSwap() external view returns (bool) {\r... */\n    tag_181:\n        /* \"AndrewTate-testnet.sol.sol\":21491:21497  inSwap */\n      and(0xff, sload(0x17))\n        /* \"AndrewTate-testnet.sol.sol\":21490:21497  !inSwap */\n      iszero\n        /* \"AndrewTate-testnet.sol.sol\":21420:21505  function isNotInSwap() external view returns (bool) {\r... */\n      swap1\n      jump\t// out\n        /* \"AndrewTate-testnet.sol.sol\":7726:7805  function owner() public view returns (address) {\r... */\n    tag_184:\n        /* \"AndrewTate-testnet.sol.sol\":7791:7797  _owner */\n      sload(0x02)\n      0x0100\n      swap1\n      div\n      sub(shl(0xa0, 0x01), 0x01)\n      and\n      swap1\n        /* \"AndrewTate-testnet.sol.sol\":7726:7805  function owner() public view returns (address) {\r... */\n      jump\t// out\n        /* \"AndrewTate-testnet.sol.sol\":7891:7983  function isOwner() public view returns (bool) {\r... */\n    tag_187:\n        /* \"AndrewTate-testnet.sol.sol\":7969:7975  _owner */\n      sload(0x02)\n      0x0100\n      swap1\n      div\n      sub(shl(0xa0, 0x01), 0x01)\n      and\n        /* \"AndrewTate-testnet.sol.sol\":7955:7965  msg.sender */\n      caller\n        /* \"AndrewTate-testnet.sol.sol\":7955:7975  msg.sender == _owner */\n      eq\n      swap1\n        /* \"AndrewTate-testnet.sol.sol\":7891:7983  function isOwner() public view returns (bool) {\r... */\n      jump\t// out\n        /* \"AndrewTate-testnet.sol.sol\":11814:11925  function updateBlacklist(address _user, bool _flag) public onlyOwner{\r... */\n    tag_191:\n        /* \"AndrewTate-testnet.sol.sol\":7853:7862  isOwner() */\n      tag_408\n        /* \"AndrewTate-testnet.sol.sol\":7853:7860  isOwner */\n      tag_187\n        /* \"AndrewTate-testnet.sol.sol\":7853:7862  isOwner() */\n      jump\t// in\n    tag_408:\n        /* \"AndrewTate-testnet.sol.sol\":7845:7863  require(isOwner()) */\n      tag_409\n      jumpi\n      0x00\n      dup1\n      revert\n    tag_409:\n      sub(shl(0xa0, 0x01), 0x01)\n        /* \"AndrewTate-testnet.sol.sol\":11893:11909  blacklist[_user] */\n      swap2\n      swap1\n      swap2\n      and\n      0x00\n      swap1\n      dup2\n      mstore\n        /* \"AndrewTate-testnet.sol.sol\":11893:11902  blacklist */\n      0x1c\n        /* \"AndrewTate-testnet.sol.sol\":11893:11909  blacklist[_user] */\n      0x20\n      mstore\n      0x40\n      swap1\n      keccak256\n        /* \"AndrewTate-testnet.sol.sol\":11893:11917  blacklist[_user] = _flag */\n      dup1\n      sload\n      not(0xff)\n      and\n      swap2\n      iszero\n      iszero\n      swap2\n      swap1\n      swap2\n      or\n      swap1\n      sstore\n        /* \"AndrewTate-testnet.sol.sol\":11814:11925  function updateBlacklist(address _user, bool _flag) public onlyOwner{\r... */\n      jump\t// out\n        /* \"AndrewTate-testnet.sol.sol\":5536:5623  function symbol() public view returns (string memory) {\r... */\n    tag_194:\n        /* \"AndrewTate-testnet.sol.sol\":5608:5615  _symbol */\n      0x01\n        /* \"AndrewTate-testnet.sol.sol\":5601:5615  return _symbol */\n      dup1\n      sload\n      0x40\n      dup1\n      mload\n      0x20\n      0x1f\n      0x02\n      not(0x00)\n      0x0100\n      dup8\n      dup10\n      and\n      iszero\n      mul\n      add\n      swap1\n      swap6\n      and\n      swap5\n      swap1\n      swap5\n      div\n      swap4\n      dup5\n      add\n      dup2\n      swap1\n      div\n      dup2\n      mul\n      dup3\n      add\n      dup2\n      add\n      swap1\n      swap3\n      mstore\n      dup3\n      dup2\n      mstore\n        /* \"AndrewTate-testnet.sol.sol\":5575:5588  string memory */\n      0x60\n      swap4\n        /* \"AndrewTate-testnet.sol.sol\":5601:5615  return _symbol */\n      swap1\n      swap3\n        /* \"AndrewTate-testnet.sol.sol\":5608:5615  _symbol */\n      swap1\n      swap2\n        /* \"AndrewTate-testnet.sol.sol\":5601:5615  return _symbol */\n      dup4\n      add\n        /* \"AndrewTate-testnet.sol.sol\":5608:5615  _symbol */\n      dup3\n        /* \"AndrewTate-testnet.sol.sol\":5601:5615  return _symbol */\n      dup3\n      dup1\n      iszero\n      tag_293\n      jumpi\n      dup1\n      0x1f\n      lt\n      tag_294\n      jumpi\n      0x0100\n      dup1\n      dup4\n      sload\n      div\n      mul\n      dup4\n      mstore\n      swap2\n      0x20\n      add\n      swap2\n      jump(tag_293)\n        /* \"AndrewTate-testnet.sol.sol\":9324:9355  uint256 public liquidityFee = 5 */\n    tag_201:\n      sload(0x07)\n      dup2\n      jump\t// out\n        /* \"AndrewTate-testnet.sol.sol\":21216:21307  function addMinter(address account) public onlyOwner {\r... */\n    tag_205:\n        /* \"AndrewTate-testnet.sol.sol\":7853:7862  isOwner() */\n      tag_416\n        /* \"AndrewTate-testnet.sol.sol\":7853:7860  isOwner */\n      tag_187\n        /* \"AndrewTate-testnet.sol.sol\":7853:7862  isOwner() */\n      jump\t// in\n    tag_416:\n        /* \"AndrewTate-testnet.sol.sol\":7845:7863  require(isOwner()) */\n      tag_417\n      jumpi\n      0x00\n      dup1\n      revert\n    tag_417:\n        /* \"AndrewTate-testnet.sol.sol\":21280:21299  _addMinter(account) */\n      tag_335\n        /* \"AndrewTate-testnet.sol.sol\":21291:21298  account */\n      dup2\n        /* \"AndrewTate-testnet.sol.sol\":21280:21290  _addMinter */\n      tag_420\n        /* \"AndrewTate-testnet.sol.sol\":21280:21299  _addMinter(account) */\n      jump\t// in\n        /* \"AndrewTate-testnet.sol.sol\":4719:4796  function renounceMinter() public {\r... */\n    tag_208:\n        /* \"AndrewTate-testnet.sol.sol\":4763:4788  _removeMinter(msg.sender) */\n      tag_422\n        /* \"AndrewTate-testnet.sol.sol\":4777:4787  msg.sender */\n      caller\n        /* \"AndrewTate-testnet.sol.sol\":4763:4776  _removeMinter */\n      tag_336\n        /* \"AndrewTate-testnet.sol.sol\":4763:4788  _removeMinter(msg.sender) */\n      jump\t// in\n    tag_422:\n        /* \"AndrewTate-testnet.sol.sol\":4719:4796  function renounceMinter() public {\r... */\n      jump\t// out\n        /* \"AndrewTate-testnet.sol.sol\":17929:18558  function decreaseAllowance(address spender, uint256 subtractedValue)\r... */\n    tag_212:\n        /* \"AndrewTate-testnet.sol.sol\":8891:8918  initialDistributionFinished */\n      sload(0x04)\n        /* \"AndrewTate-testnet.sol.sol\":18067:18071  bool */\n      0x00\n      swap1\n      shl(0xa0, 0x01)\n        /* \"AndrewTate-testnet.sol.sol\":8891:8918  initialDistributionFinished */\n      swap1\n      div\n      0xff\n      and\n      dup1\n        /* \"AndrewTate-testnet.sol.sol\":8891:8948  initialDistributionFinished ||\r... */\n      tag_425\n      jumpi\n      pop\n        /* \"AndrewTate-testnet.sol.sol\":8939:8948  isOwner() */\n      tag_425\n        /* \"AndrewTate-testnet.sol.sol\":8939:8946  isOwner */\n      tag_187\n        /* \"AndrewTate-testnet.sol.sol\":8939:8948  isOwner() */\n      jump\t// in\n    tag_425:\n        /* \"AndrewTate-testnet.sol.sol\":8891:8994  initialDistributionFinished ||\r... */\n      dup1\n      tag_426\n      jumpi\n      pop\n        /* \"AndrewTate-testnet.sol.sol\":8983:8993  msg.sender */\n      caller\n        /* \"AndrewTate-testnet.sol.sol\":8969:8994  allowTransfer[msg.sender] */\n      0x00\n      swap1\n      dup2\n      mstore\n        /* \"AndrewTate-testnet.sol.sol\":8969:8982  allowTransfer */\n      0x05\n        /* \"AndrewTate-testnet.sol.sol\":8969:8994  allowTransfer[msg.sender] */\n      0x20\n      mstore\n      0x40\n      swap1\n      keccak256\n      sload\n      0xff\n      and\n        /* \"AndrewTate-testnet.sol.sol\":8891:8994  initialDistributionFinished ||\r... */\n    tag_426:\n        /* \"AndrewTate-testnet.sol.sol\":8869:9005  require(\r... */\n      tag_427\n      jumpi\n      0x00\n      dup1\n      revert\n    tag_427:\n        /* \"AndrewTate-testnet.sol.sol\":18126:18136  msg.sender */\n      caller\n        /* \"AndrewTate-testnet.sol.sol\":18089:18105  uint256 oldValue */\n      0x00\n        /* \"AndrewTate-testnet.sol.sol\":18108:18137  _allowedFragments[msg.sender] */\n      swap1\n      dup2\n      mstore\n        /* \"AndrewTate-testnet.sol.sol\":18108:18125  _allowedFragments */\n      0x1b\n        /* \"AndrewTate-testnet.sol.sol\":18108:18137  _allowedFragments[msg.sender] */\n      0x20\n      swap1\n      dup2\n      mstore\n      0x40\n      dup1\n      dup4\n      keccak256\n      sub(shl(0xa0, 0x01), 0x01)\n        /* \"AndrewTate-testnet.sol.sol\":18108:18146  _allowedFragments[msg.sender][spender] */\n      dup8\n      and\n      dup5\n      mstore\n      swap1\n      swap2\n      mstore\n      swap1\n      keccak256\n      sload\n        /* \"AndrewTate-testnet.sol.sol\":18161:18188  subtractedValue >= oldValue */\n      dup1\n      dup4\n      lt\n        /* \"AndrewTate-testnet.sol.sol\":18157:18394  if (subtractedValue >= oldValue) {\r... */\n      tag_429\n      jumpi\n        /* \"AndrewTate-testnet.sol.sol\":18223:18233  msg.sender */\n      caller\n        /* \"AndrewTate-testnet.sol.sol\":18246:18247  0 */\n      0x00\n        /* \"AndrewTate-testnet.sol.sol\":18205:18234  _allowedFragments[msg.sender] */\n      swap1\n      dup2\n      mstore\n        /* \"AndrewTate-testnet.sol.sol\":18205:18222  _allowedFragments */\n      0x1b\n        /* \"AndrewTate-testnet.sol.sol\":18205:18234  _allowedFragments[msg.sender] */\n      0x20\n      swap1\n      dup2\n      mstore\n      0x40\n      dup1\n      dup4\n      keccak256\n      sub(shl(0xa0, 0x01), 0x01)\n        /* \"AndrewTate-testnet.sol.sol\":18205:18243  _allowedFragments[msg.sender][spender] */\n      dup9\n      and\n      dup5\n      mstore\n      swap1\n      swap2\n      mstore\n      dup2\n      keccak256\n        /* \"AndrewTate-testnet.sol.sol\":18205:18247  _allowedFragments[msg.sender][spender] = 0 */\n      sstore\n        /* \"AndrewTate-testnet.sol.sol\":18157:18394  if (subtractedValue >= oldValue) {\r... */\n      jump(tag_430)\n    tag_429:\n        /* \"AndrewTate-testnet.sol.sol\":18321:18382  oldValue.sub(\r... */\n      tag_431\n        /* \"AndrewTate-testnet.sol.sol\":18321:18329  oldValue */\n      dup2\n        /* \"AndrewTate-testnet.sol.sol\":18352:18367  subtractedValue */\n      dup5\n        /* \"AndrewTate-testnet.sol.sol\":18321:18333  oldValue.sub */\n      tag_322\n        /* \"AndrewTate-testnet.sol.sol\":18321:18382  oldValue.sub(\r... */\n      jump\t// in\n    tag_431:\n        /* \"AndrewTate-testnet.sol.sol\":18298:18308  msg.sender */\n      caller\n        /* \"AndrewTate-testnet.sol.sol\":18280:18309  _allowedFragments[msg.sender] */\n      0x00\n      swap1\n      dup2\n      mstore\n        /* \"AndrewTate-testnet.sol.sol\":18280:18297  _allowedFragments */\n      0x1b\n        /* \"AndrewTate-testnet.sol.sol\":18280:18309  _allowedFragments[msg.sender] */\n      0x20\n      swap1\n      dup2\n      mstore\n      0x40\n      dup1\n      dup4\n      keccak256\n      sub(shl(0xa0, 0x01), 0x01)\n        /* \"AndrewTate-testnet.sol.sol\":18280:18318  _allowedFragments[msg.sender][spender] */\n      dup10\n      and\n      dup5\n      mstore\n      swap1\n      swap2\n      mstore\n      swap1\n      keccak256\n        /* \"AndrewTate-testnet.sol.sol\":18280:18382  _allowedFragments[msg.sender][spender] = oldValue.sub(\r... */\n      sstore\n        /* \"AndrewTate-testnet.sol.sol\":18157:18394  if (subtractedValue >= oldValue) {\r... */\n    tag_430:\n        /* \"AndrewTate-testnet.sol.sol\":18432:18442  msg.sender */\n      caller\n        /* \"AndrewTate-testnet.sol.sol\":18479:18508  _allowedFragments[msg.sender] */\n      0x00\n      dup2\n      dup2\n      mstore\n        /* \"AndrewTate-testnet.sol.sol\":18479:18496  _allowedFragments */\n      0x1b\n        /* \"AndrewTate-testnet.sol.sol\":18479:18508  _allowedFragments[msg.sender] */\n      0x20\n      swap1\n      dup2\n      mstore\n      0x40\n      dup1\n      dup4\n      keccak256\n      sub(shl(0xa0, 0x01), 0x01)\n        /* \"AndrewTate-testnet.sol.sol\":18409:18528  Approval(\r... */\n      dup10\n      and\n        /* \"AndrewTate-testnet.sol.sol\":18479:18517  _allowedFragments[msg.sender][spender] */\n      dup1\n      dup6\n      mstore\n      swap1\n      dup4\n      mstore\n      swap3\n      dup2\n      swap1\n      keccak256\n      sload\n        /* \"AndrewTate-testnet.sol.sol\":18409:18528  Approval(\r... */\n      dup2\n      mload\n      swap1\n      dup2\n      mstore\n      swap1\n      mload\n      swap3\n      swap4\n        /* \"AndrewTate-testnet.sol.sol\":18432:18442  msg.sender */\n      swap3\n        /* \"AndrewTate-testnet.sol.sol\":18409:18528  Approval(\r... */\n      0x8c5be1e5ebec7d5bd14f71427d1e84f3dd0314c0f7b2291e5b200ac8c7c3b925\n      swap3\n      swap2\n      dup2\n      swap1\n      sub\n      swap1\n      swap2\n      add\n      swap1\n      log3\n      pop\n        /* \"AndrewTate-testnet.sol.sol\":18546:18550  true */\n      0x01\n      swap4\n        /* \"AndrewTate-testnet.sol.sol\":17929:18558  function decreaseAllowance(address spender, uint256 subtractedValue)\r... */\n      swap3\n      pop\n      pop\n      pop\n      jump\t// out\n        /* \"AndrewTate-testnet.sol.sol\":9970:9989  address public pair */\n    tag_215:\n      and(sub(shl(0xa0, 0x01), 0x01), sload(0x15))\n      dup2\n      jump\t// out\n        /* \"AndrewTate-testnet.sol.sol\":12810:13058  function transfer(address to, uint256 value)\r... */\n    tag_219:\n        /* \"AndrewTate-testnet.sol.sol\":12970:12974  bool */\n      0x00\n        /* \"AndrewTate-testnet.sol.sol\":12915:12917  to */\n      dup3\n      sub(shl(0xa0, 0x01), 0x01)\n        /* \"AndrewTate-testnet.sol.sol\":9088:9106  to != address(0x0) */\n      dup2\n      and\n        /* \"AndrewTate-testnet.sol.sol\":9080:9107  require(to != address(0x0)) */\n      tag_433\n      jumpi\n      0x00\n      dup1\n      revert\n    tag_433:\n        /* \"AndrewTate-testnet.sol.sol\":8891:8918  initialDistributionFinished */\n      sload(0x04)\n      shl(0xa0, 0x01)\n      swap1\n      div\n      0xff\n      and\n      dup1\n        /* \"AndrewTate-testnet.sol.sol\":8891:8948  initialDistributionFinished ||\r... */\n      tag_436\n      jumpi\n      pop\n        /* \"AndrewTate-testnet.sol.sol\":8939:8948  isOwner() */\n      tag_436\n        /* \"AndrewTate-testnet.sol.sol\":8939:8946  isOwner */\n      tag_187\n        /* \"AndrewTate-testnet.sol.sol\":8939:8948  isOwner() */\n      jump\t// in\n    tag_436:\n        /* \"AndrewTate-testnet.sol.sol\":8891:8994  initialDistributionFinished ||\r... */\n      dup1\n      tag_437\n      jumpi\n      pop\n        /* \"AndrewTate-testnet.sol.sol\":8983:8993  msg.sender */\n      caller\n        /* \"AndrewTate-testnet.sol.sol\":8969:8994  allowTransfer[msg.sender] */\n      0x00\n      swap1\n      dup2\n      mstore\n        /* \"AndrewTate-testnet.sol.sol\":8969:8982  allowTransfer */\n      0x05\n        /* \"AndrewTate-testnet.sol.sol\":8969:8994  allowTransfer[msg.sender] */\n      0x20\n      mstore\n      0x40\n      swap1\n      keccak256\n      sload\n      0xff\n      and\n        /* \"AndrewTate-testnet.sol.sol\":8891:8994  initialDistributionFinished ||\r... */\n    tag_437:\n        /* \"AndrewTate-testnet.sol.sol\":8869:9005  require(\r... */\n      tag_438\n      jumpi\n      0x00\n      dup1\n      revert\n    tag_438:\n        /* \"AndrewTate-testnet.sol.sol\":12992:13028  _transferFrom(msg.sender, to, value) */\n      tag_440\n        /* \"AndrewTate-testnet.sol.sol\":13006:13016  msg.sender */\n      caller\n        /* \"AndrewTate-testnet.sol.sol\":13018:13020  to */\n      dup6\n        /* \"AndrewTate-testnet.sol.sol\":13022:13027  value */\n      dup6\n        /* \"AndrewTate-testnet.sol.sol\":12992:13005  _transferFrom */\n      tag_316\n        /* \"AndrewTate-testnet.sol.sol\":12992:13028  _transferFrom(msg.sender, to, value) */\n      jump\t// in\n    tag_440:\n      pop\n        /* \"AndrewTate-testnet.sol.sol\":13046:13050  true */\n      0x01\n      swap5\n        /* \"AndrewTate-testnet.sol.sol\":12810:13058  function transfer(address to, uint256 value)\r... */\n      swap4\n      pop\n      pop\n      pop\n      pop\n      jump\t// out\n        /* \"AndrewTate-testnet.sol.sol\":4602:4711  function isMinter(address account) public view returns (bool) {\r... */\n    tag_223:\n        /* \"AndrewTate-testnet.sol.sol\":4658:4662  bool */\n      0x00\n        /* \"AndrewTate-testnet.sol.sol\":4682:4703  _minters.has(account) */\n      tag_301\n        /* \"AndrewTate-testnet.sol.sol\":4682:4690  _minters */\n      0x03\n        /* \"AndrewTate-testnet.sol.sol\":4695:4702  account */\n      dup4\n        /* \"AndrewTate-testnet.sol.sol\":4682:4694  _minters.has */\n      tag_443\n        /* \"AndrewTate-testnet.sol.sol\":4682:4703  _minters.has(account) */\n      jump\t// in\n        /* \"AndrewTate-testnet.sol.sol\":9396:9428  uint256 public RiskFreeValue = 5 */\n    tag_226:\n      sload(0x09)\n      dup2\n      jump\t// out\n        /* \"AndrewTate-testnet.sol.sol\":9729:9765  address public autoLiquidityReceiver */\n    tag_229:\n      and(sub(shl(0xa0, 0x01), 0x01), sload(0x0f))\n      dup2\n      jump\t// out\n        /* \"AndrewTate-testnet.sol.sol\":20339:20569  function setSwapBackSettings(\r... */\n    tag_233:\n        /* \"AndrewTate-testnet.sol.sol\":7853:7862  isOwner() */\n      tag_445\n        /* \"AndrewTate-testnet.sol.sol\":7853:7860  isOwner */\n      tag_187\n        /* \"AndrewTate-testnet.sol.sol\":7853:7862  isOwner() */\n      jump\t// in\n    tag_445:\n        /* \"AndrewTate-testnet.sol.sol\":7845:7863  require(isOwner()) */\n      tag_446\n      jumpi\n      0x00\n      dup1\n      revert\n    tag_446:\n        /* \"AndrewTate-testnet.sol.sol\":20477:20488  swapEnabled */\n      0x15\n        /* \"AndrewTate-testnet.sol.sol\":20477:20499  swapEnabled = _enabled */\n      dup1\n      sload\n      not(shl(0xa0, 0xff))\n      and\n      shl(0xa0, 0x01)\n      dup6\n      iszero\n      iszero\n      mul\n      or\n      swap1\n      sstore\n        /* \"AndrewTate-testnet.sol.sol\":20529:20561  TOTAL_GONS.div(_denom).mul(_num) */\n      tag_448\n        /* \"AndrewTate-testnet.sol.sol\":20556:20560  _num */\n      dup3\n        /* \"AndrewTate-testnet.sol.sol\":20529:20551  TOTAL_GONS.div(_denom) */\n      tag_449\n        /* \"AndrewTate-testnet.sol.sol\":20544:20550  _denom */\n      dup4\n        /* \"AndrewTate-testnet.sol.sol\":9291:9315  4 * 10**9 * 10**DECIMALS */\n      0x0cecb8f27f4200f3a0000000\n      not(0x00)\n        /* \"AndrewTate-testnet.sol.sol\":10279:10317  MAX_UINT256 % INITIAL_FRAGMENTS_SUPPLY */\n      jump(tag_360)\n        /* \"AndrewTate-testnet.sol.sol\":20529:20551  TOTAL_GONS.div(_denom) */\n    tag_449:\n        /* \"AndrewTate-testnet.sol.sol\":20529:20555  TOTAL_GONS.div(_denom).mul */\n      swap1\n      tag_451\n        /* \"AndrewTate-testnet.sol.sol\":20529:20561  TOTAL_GONS.div(_denom).mul(_num) */\n      jump\t// in\n    tag_448:\n        /* \"AndrewTate-testnet.sol.sol\":20510:20526  gonSwapThreshold */\n      0x16\n        /* \"AndrewTate-testnet.sol.sol\":20510:20561  gonSwapThreshold = TOTAL_GONS.div(_denom).mul(_num) */\n      sstore\n      pop\n      pop\n      pop\n        /* \"AndrewTate-testnet.sol.sol\":20339:20569  function setSwapBackSettings(\r... */\n      jump\t// out\n        /* \"AndrewTate-testnet.sol.sol\":8684:8723  bool public initialDistributionFinished */\n    tag_236:\n      sload(0x04)\n      shl(0xa0, 0x01)\n      swap1\n      div\n      0xff\n      and\n      dup2\n      jump\t// out\n        /* \"AndrewTate-testnet.sol.sol\":21513:21770  function sendPresale(address[] calldata recipients, uint256[] calldata values)\r... */\n    tag_246:\n        /* \"AndrewTate-testnet.sol.sol\":7853:7862  isOwner() */\n      tag_453\n        /* \"AndrewTate-testnet.sol.sol\":7853:7860  isOwner */\n      tag_187\n        /* \"AndrewTate-testnet.sol.sol\":7853:7862  isOwner() */\n      jump\t// in\n    tag_453:\n        /* \"AndrewTate-testnet.sol.sol\":7845:7863  require(isOwner()) */\n      tag_454\n      jumpi\n      0x00\n      dup1\n      revert\n    tag_454:\n        /* \"AndrewTate-testnet.sol.sol\":21648:21657  uint256 i */\n      0x00\n        /* \"AndrewTate-testnet.sol.sol\":21643:21763  for (uint256 i = 0; i < recipients.length; i++) {\r... */\n    tag_456:\n        /* \"AndrewTate-testnet.sol.sol\":21663:21684  i < recipients.length */\n      dup4\n      dup2\n      lt\n        /* \"AndrewTate-testnet.sol.sol\":21643:21763  for (uint256 i = 0; i < recipients.length; i++) {\r... */\n      iszero\n      tag_291\n      jumpi\n        /* \"AndrewTate-testnet.sol.sol\":21702:21753  _transferFrom(msg.sender, recipients[i], values[i]) */\n      tag_459\n        /* \"AndrewTate-testnet.sol.sol\":21716:21726  msg.sender */\n      caller\n        /* \"AndrewTate-testnet.sol.sol\":21728:21738  recipients */\n      dup7\n      dup7\n        /* \"AndrewTate-testnet.sol.sol\":21739:21740  i */\n      dup5\n        /* \"AndrewTate-testnet.sol.sol\":21728:21741  recipients[i] */\n      dup2\n      dup2\n      lt\n      tag_460\n      jumpi\n      invalid\n    tag_460:\n      swap1\n      pop\n      0x20\n      mul\n      add\n      calldataload\n      sub(shl(0xa0, 0x01), 0x01)\n      and\n        /* \"AndrewTate-testnet.sol.sol\":21743:21749  values */\n      dup6\n      dup6\n        /* \"AndrewTate-testnet.sol.sol\":21750:21751  i */\n      dup6\n        /* \"AndrewTate-testnet.sol.sol\":21743:21752  values[i] */\n      dup2\n      dup2\n      lt\n      tag_461\n      jumpi\n      invalid\n    tag_461:\n      swap1\n      pop\n      0x20\n      mul\n      add\n      calldataload\n        /* \"AndrewTate-testnet.sol.sol\":21702:21715  _transferFrom */\n      tag_316\n        /* \"AndrewTate-testnet.sol.sol\":21702:21753  _transferFrom(msg.sender, recipients[i], values[i]) */\n      jump\t// in\n    tag_459:\n      pop\n        /* \"AndrewTate-testnet.sol.sol\":21686:21689  i++ */\n      0x01\n      add\n        /* \"AndrewTate-testnet.sol.sol\":21643:21763  for (uint256 i = 0; i < recipients.length; i++) {\r... */\n      jump(tag_456)\n        /* \"AndrewTate-testnet.sol.sol\":19307:19420  function checkFeeExempt(address _addr) external view returns (bool) {\r... */\n    tag_250:\n      sub(shl(0xa0, 0x01), 0x01)\n        /* \"AndrewTate-testnet.sol.sol\":19393:19412  _isFeeExempt[_addr] */\n      and\n        /* \"AndrewTate-testnet.sol.sol\":19369:19373  bool */\n      0x00\n        /* \"AndrewTate-testnet.sol.sol\":19393:19412  _isFeeExempt[_addr] */\n      swap1\n      dup2\n      mstore\n        /* \"AndrewTate-testnet.sol.sol\":19393:19405  _isFeeExempt */\n      0x06\n        /* \"AndrewTate-testnet.sol.sol\":19393:19412  _isFeeExempt[_addr] */\n      0x20\n      mstore\n      0x40\n      swap1\n      keccak256\n      sload\n      0xff\n      and\n      swap1\n        /* \"AndrewTate-testnet.sol.sol\":19307:19420  function checkFeeExempt(address _addr) external view returns (bool) {\r... */\n      jump\t// out\n        /* \"AndrewTate-testnet.sol.sol\":23468:23759  function getLiquidityBacking(uint256 accuracy)\r... */\n    tag_254:\n        /* \"AndrewTate-testnet.sol.sol\":23638:23654  _gonsPerFragment */\n      sload(0x19)\n        /* \"AndrewTate-testnet.sol.sol\":23628:23632  pair */\n      and(sub(shl(0xa0, 0x01), 0x01), sload(0x15))\n        /* \"AndrewTate-testnet.sol.sol\":23563:23570  uint256 */\n      0x00\n        /* \"AndrewTate-testnet.sol.sol\":23615:23633  _gonBalances[pair] */\n      swap1\n      dup2\n      mstore\n        /* \"AndrewTate-testnet.sol.sol\":23615:23627  _gonBalances */\n      0x1a\n        /* \"AndrewTate-testnet.sol.sol\":23615:23633  _gonBalances[pair] */\n      0x20\n      mstore\n      0x40\n      dup2\n      keccak256\n      sload\n        /* \"AndrewTate-testnet.sol.sol\":23563:23570  uint256 */\n      swap1\n      swap2\n      dup3\n      swap2\n        /* \"AndrewTate-testnet.sol.sol\":23615:23655  _gonBalances[pair].div(_gonsPerFragment) */\n      tag_464\n      swap2\n        /* \"AndrewTate-testnet.sol.sol\":23615:23637  _gonBalances[pair].div */\n      tag_282\n        /* \"AndrewTate-testnet.sol.sol\":23615:23655  _gonBalances[pair].div(_gonsPerFragment) */\n      jump\t// in\n    tag_464:\n        /* \"AndrewTate-testnet.sol.sol\":23588:23655  uint256 liquidityBalance = _gonBalances[pair].div(_gonsPerFragment) */\n      swap1\n      pop\n        /* \"AndrewTate-testnet.sol.sol\":23686:23751  accuracy.mul(liquidityBalance.mul(2)).div(getCirculatingSupply()) */\n      tag_465\n        /* \"AndrewTate-testnet.sol.sol\":23728:23750  getCirculatingSupply() */\n      tag_466\n        /* \"AndrewTate-testnet.sol.sol\":23728:23748  getCirculatingSupply */\n      tag_112\n        /* \"AndrewTate-testnet.sol.sol\":23728:23750  getCirculatingSupply() */\n      jump\t// in\n    tag_466:\n        /* \"AndrewTate-testnet.sol.sol\":23686:23723  accuracy.mul(liquidityBalance.mul(2)) */\n      tag_319\n        /* \"AndrewTate-testnet.sol.sol\":23699:23722  liquidityBalance.mul(2) */\n      tag_468\n        /* \"AndrewTate-testnet.sol.sol\":23699:23715  liquidityBalance */\n      dup5\n        /* \"AndrewTate-testnet.sol.sol\":23720:23721  2 */\n      0x02\n        /* \"AndrewTate-testnet.sol.sol\":23699:23719  liquidityBalance.mul */\n      tag_451\n        /* \"AndrewTate-testnet.sol.sol\":23699:23722  liquidityBalance.mul(2) */\n      jump\t// in\n    tag_468:\n        /* \"AndrewTate-testnet.sol.sol\":23686:23694  accuracy */\n      dup7\n      swap1\n        /* \"AndrewTate-testnet.sol.sol\":23686:23698  accuracy.mul */\n      tag_451\n        /* \"AndrewTate-testnet.sol.sol\":23686:23723  accuracy.mul(liquidityBalance.mul(2)) */\n      jump\t// in\n        /* \"AndrewTate-testnet.sol.sol\":23686:23751  accuracy.mul(liquidityBalance.mul(2)).div(getCirculatingSupply()) */\n    tag_465:\n        /* \"AndrewTate-testnet.sol.sol\":23666:23751  return\r... */\n      swap4\n        /* \"AndrewTate-testnet.sol.sol\":23468:23759  function getLiquidityBacking(uint256 accuracy)\r... */\n      swap3\n      pop\n      pop\n      pop\n      jump\t// out\n        /* \"AndrewTate-testnet.sol.sol\":19550:19654  function enableTransfer(address _addr) external onlyOwner {\r... */\n    tag_258:\n        /* \"AndrewTate-testnet.sol.sol\":7853:7862  isOwner() */\n      tag_470\n        /* \"AndrewTate-testnet.sol.sol\":7853:7860  isOwner */\n      tag_187\n        /* \"AndrewTate-testnet.sol.sol\":7853:7862  isOwner() */\n      jump\t// in\n    tag_470:\n        /* \"AndrewTate-testnet.sol.sol\":7845:7863  require(isOwner()) */\n      tag_471\n      jumpi\n      0x00\n      dup1\n      revert\n    tag_471:\n      sub(shl(0xa0, 0x01), 0x01)\n        /* \"AndrewTate-testnet.sol.sol\":19619:19639  allowTransfer[_addr] */\n      and\n      0x00\n      swap1\n      dup2\n      mstore\n        /* \"AndrewTate-testnet.sol.sol\":19619:19632  allowTransfer */\n      0x05\n        /* \"AndrewTate-testnet.sol.sol\":19619:19639  allowTransfer[_addr] */\n      0x20\n      mstore\n      0x40\n      swap1\n      keccak256\n        /* \"AndrewTate-testnet.sol.sol\":19619:19646  allowTransfer[_addr] = true */\n      dup1\n      sload\n      not(0xff)\n      and\n        /* \"AndrewTate-testnet.sol.sol\":19642:19646  true */\n      0x01\n        /* \"AndrewTate-testnet.sol.sol\":19619:19646  allowTransfer[_addr] = true */\n      or\n      swap1\n      sstore\n        /* \"AndrewTate-testnet.sol.sol\":19550:19654  function enableTransfer(address _addr) external onlyOwner {\r... */\n      jump\t// out\n        /* \"AndrewTate-testnet.sol.sol\":9810:9846  address public RiskFreeValueReceiver */\n    tag_261:\n      and(sub(shl(0xa0, 0x01), 0x01), sload(0x11))\n      dup2\n      jump\t// out\n        /* \"AndrewTate-testnet.sol.sol\":21994:22332  function setFeeReceivers(\r... */\n    tag_265:\n        /* \"AndrewTate-testnet.sol.sol\":7853:7862  isOwner() */\n      tag_474\n        /* \"AndrewTate-testnet.sol.sol\":7853:7860  isOwner */\n      tag_187\n        /* \"AndrewTate-testnet.sol.sol\":7853:7862  isOwner() */\n      jump\t// in\n    tag_474:\n        /* \"AndrewTate-testnet.sol.sol\":7845:7863  require(isOwner()) */\n      tag_475\n      jumpi\n      0x00\n      dup1\n      revert\n    tag_475:\n        /* \"AndrewTate-testnet.sol.sol\":22174:22195  autoLiquidityReceiver */\n      0x0f\n        /* \"AndrewTate-testnet.sol.sol\":22174:22220  autoLiquidityReceiver = _autoLiquidityReceiver */\n      dup1\n      sload\n      sub(shl(0xa0, 0x01), 0x01)\n      swap5\n      dup6\n      and\n      not(sub(shl(0xa0, 0x01), 0x01))\n      swap2\n      dup3\n      and\n      or\n      swap1\n      swap2\n      sstore\n        /* \"AndrewTate-testnet.sol.sol\":22231:22247  TreasuryReceiver */\n      0x10\n        /* \"AndrewTate-testnet.sol.sol\":22231:22267  TreasuryReceiver = _TreasuryReceiver */\n      dup1\n      sload\n      swap4\n      dup6\n      and\n      swap4\n      dup3\n      and\n      swap4\n      swap1\n      swap4\n      or\n      swap1\n      swap3\n      sstore\n        /* \"AndrewTate-testnet.sol.sol\":22278:22299  RiskFreeValueReceiver */\n      0x11\n        /* \"AndrewTate-testnet.sol.sol\":22278:22324  RiskFreeValueReceiver = _RiskFreeValueReceiver */\n      dup1\n      sload\n      swap2\n      swap1\n      swap4\n      and\n      swap2\n      and\n      or\n      swap1\n      sstore\n        /* \"AndrewTate-testnet.sol.sol\":21994:22332  function setFeeReceivers(\r... */\n      jump\t// out\n        /* \"AndrewTate-testnet.sol.sol\":13214:13408  function allowance(address owner_, address spender)\r... */\n    tag_269:\n      sub(shl(0xa0, 0x01), 0x01)\n        /* \"AndrewTate-testnet.sol.sol\":13366:13391  _allowedFragments[owner_] */\n      swap2\n      dup3\n      and\n        /* \"AndrewTate-testnet.sol.sol\":13334:13341  uint256 */\n      0x00\n        /* \"AndrewTate-testnet.sol.sol\":13366:13391  _allowedFragments[owner_] */\n      swap1\n      dup2\n      mstore\n        /* \"AndrewTate-testnet.sol.sol\":13366:13383  _allowedFragments */\n      0x1b\n        /* \"AndrewTate-testnet.sol.sol\":13366:13391  _allowedFragments[owner_] */\n      0x20\n      swap1\n      dup2\n      mstore\n      0x40\n      dup1\n      dup4\n      keccak256\n        /* \"AndrewTate-testnet.sol.sol\":13366:13400  _allowedFragments[owner_][spender] */\n      swap4\n      swap1\n      swap5\n      and\n      dup3\n      mstore\n      swap2\n      swap1\n      swap2\n      mstore\n      keccak256\n      sload\n      swap1\n        /* \"AndrewTate-testnet.sol.sol\":13214:13408  function allowance(address owner_, address spender)\r... */\n      jump\t// out\n        /* \"AndrewTate-testnet.sol.sol\":8125:8234  function transferOwnership(address newOwner) public onlyOwner {\r... */\n    tag_273:\n        /* \"AndrewTate-testnet.sol.sol\":7853:7862  isOwner() */\n      tag_479\n        /* \"AndrewTate-testnet.sol.sol\":7853:7860  isOwner */\n      tag_187\n        /* \"AndrewTate-testnet.sol.sol\":7853:7862  isOwner() */\n      jump\t// in\n    tag_479:\n        /* \"AndrewTate-testnet.sol.sol\":7845:7863  require(isOwner()) */\n      tag_480\n      jumpi\n      0x00\n      dup1\n      revert\n    tag_480:\n        /* \"AndrewTate-testnet.sol.sol\":8198:8226  _transferOwnership(newOwner) */\n      tag_335\n        /* \"AndrewTate-testnet.sol.sol\":8217:8225  newOwner */\n      dup2\n        /* \"AndrewTate-testnet.sol.sol\":8198:8216  _transferOwnership */\n      tag_483\n        /* \"AndrewTate-testnet.sol.sol\":8198:8226  _transferOwnership(newOwner) */\n      jump\t// in\n        /* \"AndrewTate-testnet.sol.sol\":9939:9963  IDEXRouter public router */\n    tag_276:\n      and(sub(shl(0xa0, 0x01), 0x01), sload(0x14))\n      dup2\n      jump\t// out\n        /* \"AndrewTate-testnet.sol.sol\":10596:10637  mapping(address => bool) public blacklist */\n    tag_280:\n      mstore(0x20, 0x1c)\n      0x00\n      swap1\n      dup2\n      mstore\n      0x40\n      swap1\n      keccak256\n      sload\n      0xff\n      and\n      dup2\n      jump\t// out\n        /* \"AndrewTate-testnet.sol.sol\":1900:2081  function add(uint256 a, uint256 b) internal pure returns (uint256) {\r... */\n    tag_281:\n        /* \"AndrewTate-testnet.sol.sol\":1958:1965  uint256 */\n      0x00\n        /* \"AndrewTate-testnet.sol.sol\":1990:1995  a + b */\n      dup3\n      dup3\n      add\n        /* \"AndrewTate-testnet.sol.sol\":2014:2020  c >= a */\n      dup4\n      dup2\n      lt\n      iszero\n        /* \"AndrewTate-testnet.sol.sol\":2006:2052  require(c >= a, \"SafeMath: addition overflow\") */\n      tag_465\n      jumpi\n      0x40\n      dup1\n      mload\n      shl(0xe5, 0x461bcd)\n      dup2\n      mstore\n      0x20\n      0x04\n      dup3\n      add\n      mstore\n      0x1b\n      0x24\n      dup3\n      add\n      mstore\n      0x536166654d6174683a206164646974696f6e206f766572666c6f770000000000\n      0x44\n      dup3\n      add\n      mstore\n      swap1\n      mload\n      swap1\n      dup2\n      swap1\n      sub\n      0x64\n      add\n      swap1\n      revert\n        /* \"AndrewTate-testnet.sol.sol\":2725:2857  function div(uint256 a, uint256 b) internal pure returns (uint256) {\r... */\n    tag_282:\n        /* \"AndrewTate-testnet.sol.sol\":2783:2790  uint256 */\n      0x00\n        /* \"AndrewTate-testnet.sol.sol\":2810:2849  div(a, b, \"SafeMath: division by zero\") */\n      tag_465\n        /* \"AndrewTate-testnet.sol.sol\":2814:2815  a */\n      dup4\n        /* \"AndrewTate-testnet.sol.sol\":2817:2818  b */\n      dup4\n        /* \"AndrewTate-testnet.sol.sol\":2810:2849  div(a, b, \"SafeMath: division by zero\") */\n      mload(0x40)\n      dup1\n      0x40\n      add\n      0x40\n      mstore\n      dup1\n      0x1a\n      dup2\n      mstore\n      0x20\n      add\n      0x536166654d6174683a206469766973696f6e206279207a65726f000000000000\n      dup2\n      mstore\n      pop\n        /* \"AndrewTate-testnet.sol.sol\":2810:2813  div */\n      tag_488\n        /* \"AndrewTate-testnet.sol.sol\":2810:2849  div(a, b, \"SafeMath: division by zero\") */\n      jump\t// in\n        /* \"AndrewTate-testnet.sol.sol\":3450:3628  function add(Role storage role, address account) internal {\r... */\n    tag_283:\n        /* \"AndrewTate-testnet.sol.sol\":3528:3546  has(role, account) */\n      tag_490\n        /* \"AndrewTate-testnet.sol.sol\":3532:3536  role */\n      dup3\n        /* \"AndrewTate-testnet.sol.sol\":3538:3545  account */\n      dup3\n        /* \"AndrewTate-testnet.sol.sol\":3528:3531  has */\n      tag_443\n        /* \"AndrewTate-testnet.sol.sol\":3528:3546  has(role, account) */\n      jump\t// in\n    tag_490:\n        /* \"AndrewTate-testnet.sol.sol\":3527:3546  !has(role, account) */\n      iszero\n        /* \"AndrewTate-testnet.sol.sol\":3519:3582  require(!has(role, account), \"Roles: account already has role\") */\n      tag_491\n      jumpi\n      0x40\n      dup1\n      mload\n      shl(0xe5, 0x461bcd)\n      dup2\n      mstore\n      0x20\n      0x04\n      dup3\n      add\n      mstore\n      0x1f\n      0x24\n      dup3\n      add\n      mstore\n      0x526f6c65733a206163636f756e7420616c72656164792068617320726f6c6500\n      0x44\n      dup3\n      add\n      mstore\n      swap1\n      mload\n      swap1\n      dup2\n      swap1\n      sub\n      0x64\n      add\n      swap1\n      revert\n    tag_491:\n      sub(shl(0xa0, 0x01), 0x01)\n        /* \"AndrewTate-testnet.sol.sol\":3593:3613  role.bearer[account] */\n      and\n        /* \"AndrewTate-testnet.sol.sol\":3593:3604  role.bearer */\n      0x00\n        /* \"AndrewTate-testnet.sol.sol\":3593:3613  role.bearer[account] */\n      swap1\n      dup2\n      mstore\n      0x20\n      swap2\n      swap1\n      swap2\n      mstore\n      0x40\n      swap1\n      keccak256\n        /* \"AndrewTate-testnet.sol.sol\":3593:3620  role.bearer[account] = true */\n      dup1\n      sload\n      not(0xff)\n      and\n        /* \"AndrewTate-testnet.sol.sol\":3616:3620  true */\n      0x01\n        /* \"AndrewTate-testnet.sol.sol\":3593:3620  role.bearer[account] = true */\n      or\n      swap1\n      sstore\n        /* \"AndrewTate-testnet.sol.sol\":3450:3628  function add(Role storage role, address account) internal {\r... */\n      jump\t// out\n        /* \"AndrewTate-testnet.sol.sol\":2233:2459  function sub(\r... */\n    tag_314:\n        /* \"AndrewTate-testnet.sol.sol\":2353:2360  uint256 */\n      0x00\n        /* \"AndrewTate-testnet.sol.sol\":2389:2401  errorMessage */\n      dup2\n        /* \"AndrewTate-testnet.sol.sol\":2381:2387  b <= a */\n      dup5\n      dup5\n      gt\n      iszero\n        /* \"AndrewTate-testnet.sol.sol\":2373:2402  require(b <= a, errorMessage) */\n      tag_493\n      jumpi\n      mload(0x40)\n      shl(0xe5, 0x461bcd)\n      dup2\n      mstore\n      0x04\n      add\n      dup1\n      dup1\n      0x20\n      add\n      dup3\n      dup2\n      sub\n      dup3\n      mstore\n      dup4\n      dup2\n      dup2\n      mload\n      dup2\n      mstore\n      0x20\n      add\n      swap2\n      pop\n      dup1\n      mload\n      swap1\n      0x20\n      add\n      swap1\n      dup1\n      dup4\n      dup4\n      0x00\n    tag_494:\n      dup4\n      dup2\n      lt\n      iszero\n      tag_496\n      jumpi\n      dup2\n      dup2\n      add\n      mload\n      dup4\n      dup3\n      add\n      mstore\n      0x20\n      add\n      jump(tag_494)\n    tag_496:\n      pop\n      pop\n      pop\n      pop\n      swap1\n      pop\n      swap1\n      dup2\n      add\n      swap1\n      0x1f\n      and\n      dup1\n      iszero\n      tag_497\n      jumpi\n      dup1\n      dup3\n      sub\n      dup1\n      mload\n      0x01\n      dup4\n      0x20\n      sub\n      0x0100\n      exp\n      sub\n      not\n      and\n      dup2\n      mstore\n      0x20\n      add\n      swap2\n      pop\n    tag_497:\n      pop\n      swap3\n      pop\n      pop\n      pop\n      mload(0x40)\n      dup1\n      swap2\n      sub\n      swap1\n      revert\n    tag_493:\n      pop\n      pop\n      pop\n        /* \"AndrewTate-testnet.sol.sol\":2425:2430  a - b */\n      swap1\n      sub\n      swap1\n        /* \"AndrewTate-testnet.sol.sol\":2233:2459  function sub(\r... */\n      jump\t// out\n        /* \"AndrewTate-testnet.sol.sol\":13909:14844  function _transferFrom(\r... */\n    tag_316:\n      sub(shl(0xa0, 0x01), 0x01)\n        /* \"AndrewTate-testnet.sol.sol\":14061:14078  blacklist[sender] */\n      dup4\n      and\n        /* \"AndrewTate-testnet.sol.sol\":14035:14039  bool */\n      0x00\n        /* \"AndrewTate-testnet.sol.sol\":14061:14078  blacklist[sender] */\n      swap1\n      dup2\n      mstore\n        /* \"AndrewTate-testnet.sol.sol\":14061:14070  blacklist */\n      0x1c\n        /* \"AndrewTate-testnet.sol.sol\":14061:14078  blacklist[sender] */\n      0x20\n      mstore\n      0x40\n      dup2\n      keccak256\n      sload\n      0xff\n      and\n        /* \"AndrewTate-testnet.sol.sol\":14060:14078  !blacklist[sender] */\n      iszero\n        /* \"AndrewTate-testnet.sol.sol\":14060:14103  !blacklist[sender] && !blacklist[recipient] */\n      dup1\n      iszero\n      tag_499\n      jumpi\n      pop\n      sub(shl(0xa0, 0x01), 0x01)\n        /* \"AndrewTate-testnet.sol.sol\":14083:14103  blacklist[recipient] */\n      dup4\n      and\n      0x00\n      swap1\n      dup2\n      mstore\n        /* \"AndrewTate-testnet.sol.sol\":14083:14092  blacklist */\n      0x1c\n        /* \"AndrewTate-testnet.sol.sol\":14083:14103  blacklist[recipient] */\n      0x20\n      mstore\n      0x40\n      swap1\n      keccak256\n      sload\n      0xff\n      and\n        /* \"AndrewTate-testnet.sol.sol\":14082:14103  !blacklist[recipient] */\n      iszero\n        /* \"AndrewTate-testnet.sol.sol\":14060:14103  !blacklist[sender] && !blacklist[recipient] */\n    tag_499:\n        /* \"AndrewTate-testnet.sol.sol\":14052:14120  require(!blacklist[sender] && !blacklist[recipient], 'in_blacklist') */\n      tag_500\n      jumpi\n      0x40\n      dup1\n      mload\n      shl(0xe5, 0x461bcd)\n      dup2\n      mstore\n      0x20\n      0x04\n      dup3\n      add\n      mstore\n      0x0c\n      0x24\n      dup3\n      add\n      mstore\n      shl(0xa2, 0x1a5b97d89b1858dadb1a5cdd)\n      0x44\n      dup3\n      add\n      mstore\n      swap1\n      mload\n      swap1\n      dup2\n      swap1\n      sub\n      0x64\n      add\n      swap1\n      revert\n    tag_500:\n        /* \"AndrewTate-testnet.sol.sol\":14135:14141  inSwap */\n      and(0xff, sload(0x17))\n        /* \"AndrewTate-testnet.sol.sol\":14131:14218  if (inSwap) {\r... */\n      iszero\n      tag_501\n      jumpi\n        /* \"AndrewTate-testnet.sol.sol\":14165:14206  _basicTransfer(sender, recipient, amount) */\n      tag_502\n        /* \"AndrewTate-testnet.sol.sol\":14180:14186  sender */\n      dup5\n        /* \"AndrewTate-testnet.sol.sol\":14188:14197  recipient */\n      dup5\n        /* \"AndrewTate-testnet.sol.sol\":14199:14205  amount */\n      dup5\n        /* \"AndrewTate-testnet.sol.sol\":14165:14179  _basicTransfer */\n      tag_503\n        /* \"AndrewTate-testnet.sol.sol\":14165:14206  _basicTransfer(sender, recipient, amount) */\n      jump\t// in\n    tag_502:\n        /* \"AndrewTate-testnet.sol.sol\":14158:14206  return _basicTransfer(sender, recipient, amount) */\n      swap1\n      pop\n      jump(tag_465)\n        /* \"AndrewTate-testnet.sol.sol\":14131:14218  if (inSwap) {\r... */\n    tag_501:\n        /* \"AndrewTate-testnet.sol.sol\":14230:14247  uint256 gonAmount */\n      0x00\n        /* \"AndrewTate-testnet.sol.sol\":14250:14278  amount.mul(_gonsPerFragment) */\n      tag_504\n        /* \"AndrewTate-testnet.sol.sol\":14261:14277  _gonsPerFragment */\n      sload(0x19)\n        /* \"AndrewTate-testnet.sol.sol\":14250:14256  amount */\n      dup5\n        /* \"AndrewTate-testnet.sol.sol\":14250:14260  amount.mul */\n      tag_451\n      swap1\n        /* \"AndrewTate-testnet.sol.sol\":14250:14278  amount.mul(_gonsPerFragment) */\n      swap2\n      swap1\n      0xffffffff\n      and\n      jump\t// in\n    tag_504:\n        /* \"AndrewTate-testnet.sol.sol\":14230:14278  uint256 gonAmount = amount.mul(_gonsPerFragment) */\n      swap1\n      pop\n        /* \"AndrewTate-testnet.sol.sol\":14295:14311  shouldSwapBack() */\n      tag_505\n        /* \"AndrewTate-testnet.sol.sol\":14295:14309  shouldSwapBack */\n      tag_506\n        /* \"AndrewTate-testnet.sol.sol\":14295:14311  shouldSwapBack() */\n      jump\t// in\n    tag_505:\n        /* \"AndrewTate-testnet.sol.sol\":14291:14350  if (shouldSwapBack()) {\r... */\n      iszero\n      tag_508\n      jumpi\n        /* \"AndrewTate-testnet.sol.sol\":14328:14338  swapBack() */\n      tag_508\n        /* \"AndrewTate-testnet.sol.sol\":14328:14336  swapBack */\n      tag_509\n        /* \"AndrewTate-testnet.sol.sol\":14328:14338  swapBack() */\n      jump\t// in\n    tag_508:\n      sub(shl(0xa0, 0x01), 0x01)\n        /* \"AndrewTate-testnet.sol.sol\":14385:14405  _gonBalances[sender] */\n      dup6\n      and\n      0x00\n      swap1\n      dup2\n      mstore\n        /* \"AndrewTate-testnet.sol.sol\":14385:14397  _gonBalances */\n      0x1a\n        /* \"AndrewTate-testnet.sol.sol\":14385:14405  _gonBalances[sender] */\n      0x20\n      mstore\n      0x40\n      swap1\n      keccak256\n      sload\n        /* \"AndrewTate-testnet.sol.sol\":14385:14420  _gonBalances[sender].sub(gonAmount) */\n      tag_510\n      swap1\n        /* \"AndrewTate-testnet.sol.sol\":14410:14419  gonAmount */\n      dup3\n        /* \"AndrewTate-testnet.sol.sol\":14385:14409  _gonBalances[sender].sub */\n      tag_322\n        /* \"AndrewTate-testnet.sol.sol\":14385:14420  _gonBalances[sender].sub(gonAmount) */\n      jump\t// in\n    tag_510:\n      sub(shl(0xa0, 0x01), 0x01)\n        /* \"AndrewTate-testnet.sol.sol\":14362:14382  _gonBalances[sender] */\n      dup7\n      and\n      0x00\n      swap1\n      dup2\n      mstore\n        /* \"AndrewTate-testnet.sol.sol\":14362:14374  _gonBalances */\n      0x1a\n        /* \"AndrewTate-testnet.sol.sol\":14362:14382  _gonBalances[sender] */\n      0x20\n      mstore\n      0x40\n      dup2\n      keccak256\n        /* \"AndrewTate-testnet.sol.sol\":14362:14420  _gonBalances[sender] = _gonBalances[sender].sub(gonAmount) */\n      swap2\n      swap1\n      swap2\n      sstore\n        /* \"AndrewTate-testnet.sol.sol\":14461:14493  shouldTakeFee(sender, recipient) */\n      tag_511\n        /* \"AndrewTate-testnet.sol.sol\":14375:14381  sender */\n      dup7\n        /* \"AndrewTate-testnet.sol.sol\":14483:14492  recipient */\n      dup7\n        /* \"AndrewTate-testnet.sol.sol\":14461:14474  shouldTakeFee */\n      tag_512\n        /* \"AndrewTate-testnet.sol.sol\":14461:14493  shouldTakeFee(sender, recipient) */\n      jump\t// in\n    tag_511:\n        /* \"AndrewTate-testnet.sol.sol\":14461:14571  shouldTakeFee(sender, recipient)\r... */\n      tag_513\n      jumpi\n        /* \"AndrewTate-testnet.sol.sol\":14562:14571  gonAmount */\n      dup2\n        /* \"AndrewTate-testnet.sol.sol\":14461:14571  shouldTakeFee(sender, recipient)\r... */\n      jump(tag_515)\n    tag_513:\n        /* \"AndrewTate-testnet.sol.sol\":14509:14546  takeFee(sender, recipient, gonAmount) */\n      tag_515\n        /* \"AndrewTate-testnet.sol.sol\":14517:14523  sender */\n      dup7\n        /* \"AndrewTate-testnet.sol.sol\":14525:14534  recipient */\n      dup7\n        /* \"AndrewTate-testnet.sol.sol\":14536:14545  gonAmount */\n      dup5\n        /* \"AndrewTate-testnet.sol.sol\":14509:14516  takeFee */\n      tag_516\n        /* \"AndrewTate-testnet.sol.sol\":14509:14546  takeFee(sender, recipient, gonAmount) */\n      jump\t// in\n    tag_515:\n      sub(shl(0xa0, 0x01), 0x01)\n        /* \"AndrewTate-testnet.sol.sol\":14608:14631  _gonBalances[recipient] */\n      dup7\n      and\n      0x00\n      swap1\n      dup2\n      mstore\n        /* \"AndrewTate-testnet.sol.sol\":14608:14620  _gonBalances */\n      0x1a\n        /* \"AndrewTate-testnet.sol.sol\":14608:14631  _gonBalances[recipient] */\n      0x20\n      mstore\n      0x40\n      swap1\n      keccak256\n      sload\n        /* \"AndrewTate-testnet.sol.sol\":14433:14571  uint256 gonAmountReceived = shouldTakeFee(sender, recipient)\r... */\n      swap1\n      swap2\n      pop\n        /* \"AndrewTate-testnet.sol.sol\":14608:14678  _gonBalances[recipient].add(\r... */\n      tag_517\n      swap1\n        /* \"AndrewTate-testnet.sol.sol\":14433:14571  uint256 gonAmountReceived = shouldTakeFee(sender, recipient)\r... */\n      dup3\n        /* \"AndrewTate-testnet.sol.sol\":14608:14635  _gonBalances[recipient].add */\n      tag_281\n        /* \"AndrewTate-testnet.sol.sol\":14608:14678  _gonBalances[recipient].add(\r... */\n      jump\t// in\n    tag_517:\n      sub(shl(0xa0, 0x01), 0x01)\n        /* \"AndrewTate-testnet.sol.sol\":14582:14605  _gonBalances[recipient] */\n      dup1\n      dup8\n      and\n      0x00\n      dup2\n      dup2\n      mstore\n        /* \"AndrewTate-testnet.sol.sol\":14582:14594  _gonBalances */\n      0x1a\n        /* \"AndrewTate-testnet.sol.sol\":14582:14605  _gonBalances[recipient] */\n      0x20\n      mstore\n      0x40\n      swap1\n      keccak256\n        /* \"AndrewTate-testnet.sol.sol\":14582:14678  _gonBalances[recipient] = _gonBalances[recipient].add(\r... */\n      swap3\n      swap1\n      swap3\n      sstore\n        /* \"AndrewTate-testnet.sol.sol\":14786:14802  _gonsPerFragment */\n      sload(0x19)\n        /* \"AndrewTate-testnet.sol.sol\":14696:14814  Transfer(\r... */\n      swap1\n      dup9\n      and\n      swap1\n      0xddf252ad1be2c89b69c2b068fc378daa952ba7f163c4a11628f55a4df523b3ef\n      swap1\n        /* \"AndrewTate-testnet.sol.sol\":14764:14803  gonAmountReceived.div(_gonsPerFragment) */\n      tag_518\n      swap1\n        /* \"AndrewTate-testnet.sol.sol\":14764:14781  gonAmountReceived */\n      dup6\n      swap1\n        /* \"AndrewTate-testnet.sol.sol\":14764:14785  gonAmountReceived.div */\n      tag_282\n        /* \"AndrewTate-testnet.sol.sol\":14764:14803  gonAmountReceived.div(_gonsPerFragment) */\n      jump\t// in\n    tag_518:\n        /* \"AndrewTate-testnet.sol.sol\":14696:14814  Transfer(\r... */\n      0x40\n      dup1\n      mload\n      swap2\n      dup3\n      mstore\n      mload\n      swap1\n      dup2\n      swap1\n      sub\n      0x20\n      add\n      swap1\n      log3\n      pop\n        /* \"AndrewTate-testnet.sol.sol\":14832:14836  true */\n      0x01\n      swap6\n        /* \"AndrewTate-testnet.sol.sol\":13909:14844  function _transferFrom(\r... */\n      swap5\n      pop\n      pop\n      pop\n      pop\n      pop\n      jump\t// out\n        /* \"AndrewTate-testnet.sol.sol\":2089:2225  function sub(uint256 a, uint256 b) internal pure returns (uint256) {\r... */\n    tag_322:\n        /* \"AndrewTate-testnet.sol.sol\":2147:2154  uint256 */\n      0x00\n        /* \"AndrewTate-testnet.sol.sol\":2174:2217  sub(a, b, \"SafeMath: subtraction overflow\") */\n      tag_465\n        /* \"AndrewTate-testnet.sol.sol\":2178:2179  a */\n      dup4\n        /* \"AndrewTate-testnet.sol.sol\":2181:2182  b */\n      dup4\n        /* \"AndrewTate-testnet.sol.sol\":2174:2217  sub(a, b, \"SafeMath: subtraction overflow\") */\n      mload(0x40)\n      dup1\n      0x40\n      add\n      0x40\n      mstore\n      dup1\n      0x1e\n      dup2\n      mstore\n      0x20\n      add\n      0x536166654d6174683a207375627472616374696f6e206f766572666c6f770000\n      dup2\n      mstore\n      pop\n        /* \"AndrewTate-testnet.sol.sol\":2174:2177  sub */\n      tag_314\n        /* \"AndrewTate-testnet.sol.sol\":2174:2217  sub(a, b, \"SafeMath: subtraction overflow\") */\n      jump\t// in\n        /* \"AndrewTate-testnet.sol.sol\":4934:5064  function _removeMinter(address account) internal {\r... */\n    tag_336:\n        /* \"AndrewTate-testnet.sol.sol\":4994:5018  _minters.remove(account) */\n      tag_522\n        /* \"AndrewTate-testnet.sol.sol\":4994:5002  _minters */\n      0x03\n        /* \"AndrewTate-testnet.sol.sol\":5010:5017  account */\n      dup3\n        /* \"AndrewTate-testnet.sol.sol\":4994:5009  _minters.remove */\n      tag_523\n        /* \"AndrewTate-testnet.sol.sol\":4994:5018  _minters.remove(account) */\n      jump\t// in\n    tag_522:\n        /* \"AndrewTate-testnet.sol.sol\":5034:5056  MinterRemoved(account) */\n      mload(0x40)\n      sub(shl(0xa0, 0x01), 0x01)\n      dup3\n      and\n      swap1\n      0xe94479a9f7e1952cc78f2d6baab678adc1b772d936c6583def489e524cb66692\n      swap1\n      0x00\n      swap1\n      log2\n        /* \"AndrewTate-testnet.sol.sol\":4934:5064  function _removeMinter(address account) internal {\r... */\n      pop\n      jump\t// out\n        /* \"AndrewTate-testnet.sol.sol\":4804:4926  function _addMinter(address account) internal {\r... */\n    tag_420:\n        /* \"AndrewTate-testnet.sol.sol\":4861:4882  _minters.add(account) */\n      tag_525\n        /* \"AndrewTate-testnet.sol.sol\":4861:4869  _minters */\n      0x03\n        /* \"AndrewTate-testnet.sol.sol\":4874:4881  account */\n      dup3\n        /* \"AndrewTate-testnet.sol.sol\":4861:4873  _minters.add */\n      tag_283\n        /* \"AndrewTate-testnet.sol.sol\":4861:4882  _minters.add(account) */\n      jump\t// in\n    tag_525:\n        /* \"AndrewTate-testnet.sol.sol\":4898:4918  MinterAdded(account) */\n      mload(0x40)\n      sub(shl(0xa0, 0x01), 0x01)\n      dup3\n      and\n      swap1\n      0x6ae172837ea30b801fbfcdd4108aa1d5bf8ff775444fd70256b44e6bf3dfc3f6\n      swap1\n      0x00\n      swap1\n      log2\n        /* \"AndrewTate-testnet.sol.sol\":4804:4926  function _addMinter(address account) internal {\r... */\n      pop\n      jump\t// out\n        /* \"AndrewTate-testnet.sol.sol\":3986:4189  function has(Role storage role, address account) internal view returns (bool) {\r... */\n    tag_443:\n        /* \"AndrewTate-testnet.sol.sol\":4058:4062  bool */\n      0x00\n      sub(shl(0xa0, 0x01), 0x01)\n        /* \"AndrewTate-testnet.sol.sol\":4083:4104  account != address(0) */\n      dup3\n      and\n        /* \"AndrewTate-testnet.sol.sol\":4075:4143  require(account != address(0), \"Roles: account is the zero address\") */\n      tag_527\n      jumpi\n      mload(0x40)\n      shl(0xe5, 0x461bcd)\n      dup2\n      mstore\n      0x04\n      add\n      dup1\n      dup1\n      0x20\n      add\n      dup3\n      dup2\n      sub\n      dup3\n      mstore\n      0x22\n      dup2\n      mstore\n      0x20\n      add\n      dup1\n      data_9d214fa89563f4e6456a3929327e54500ea1cde2c0ba9fb2035ec106190d682f\n      0x22\n      swap2\n      codecopy\n      0x40\n      add\n      swap2\n      pop\n      pop\n      mload(0x40)\n      dup1\n      swap2\n      sub\n      swap1\n      revert\n    tag_527:\n      pop\n      sub(shl(0xa0, 0x01), 0x01)\n        /* \"AndrewTate-testnet.sol.sol\":4161:4181  role.bearer[account] */\n      and\n        /* \"AndrewTate-testnet.sol.sol\":4161:4172  role.bearer */\n      0x00\n        /* \"AndrewTate-testnet.sol.sol\":4161:4181  role.bearer[account] */\n      swap1\n      dup2\n      mstore\n      0x20\n      swap2\n      swap1\n      swap2\n      mstore\n      0x40\n      swap1\n      keccak256\n      sload\n      0xff\n      and\n      swap1\n        /* \"AndrewTate-testnet.sol.sol\":3986:4189  function has(Role storage role, address account) internal view returns (bool) {\r... */\n      jump\t// out\n        /* \"AndrewTate-testnet.sol.sol\":2467:2717  function mul(uint256 a, uint256 b) internal pure returns (uint256) {\r... */\n    tag_451:\n        /* \"AndrewTate-testnet.sol.sol\":2525:2532  uint256 */\n      0x00\n        /* \"AndrewTate-testnet.sol.sol\":2549:2555  a == 0 */\n      dup3\n        /* \"AndrewTate-testnet.sol.sol\":2545:2592  if (a == 0) {\r... */\n      tag_529\n      jumpi\n      pop\n        /* \"AndrewTate-testnet.sol.sol\":2579:2580  0 */\n      0x00\n        /* \"AndrewTate-testnet.sol.sol\":2572:2580  return 0 */\n      jump(tag_301)\n        /* \"AndrewTate-testnet.sol.sol\":2545:2592  if (a == 0) {\r... */\n    tag_529:\n        /* \"AndrewTate-testnet.sol.sol\":2616:2621  a * b */\n      dup3\n      dup3\n      mul\n        /* \"AndrewTate-testnet.sol.sol\":2620:2621  b */\n      dup3\n        /* \"AndrewTate-testnet.sol.sol\":2616:2617  a */\n      dup5\n        /* \"AndrewTate-testnet.sol.sol\":2616:2621  a * b */\n      dup3\n        /* \"AndrewTate-testnet.sol.sol\":2616:2617  a */\n      dup2\n        /* \"AndrewTate-testnet.sol.sol\":2640:2645  c / a */\n      tag_530\n      jumpi\n      invalid\n    tag_530:\n      div\n        /* \"AndrewTate-testnet.sol.sol\":2640:2650  c / a == b */\n      eq\n        /* \"AndrewTate-testnet.sol.sol\":2632:2688  require(c / a == b, \"SafeMath: multiplication overflow\") */\n      tag_465\n      jumpi\n      mload(0x40)\n      shl(0xe5, 0x461bcd)\n      dup2\n      mstore\n      0x04\n      add\n      dup1\n      dup1\n      0x20\n      add\n      dup3\n      dup2\n      sub\n      dup3\n      mstore\n      0x21\n      dup2\n      mstore\n      0x20\n      add\n      dup1\n      data_9113bb53c2876a3805b2c9242029423fc540a728243ce887ab24c82cf119fba3\n      0x21\n      swap2\n      codecopy\n      0x40\n      add\n      swap2\n      pop\n      pop\n      mload(0x40)\n      dup1\n      swap2\n      sub\n      swap1\n      revert\n        /* \"AndrewTate-testnet.sol.sol\":8242:8429  function _transferOwnership(address newOwner) internal {\r... */\n    tag_483:\n      sub(shl(0xa0, 0x01), 0x01)\n        /* \"AndrewTate-testnet.sol.sol\":8316:8338  newOwner != address(0) */\n      dup2\n      and\n        /* \"AndrewTate-testnet.sol.sol\":8308:8339  require(newOwner != address(0)) */\n      tag_533\n      jumpi\n      0x00\n      dup1\n      revert\n    tag_533:\n        /* \"AndrewTate-testnet.sol.sol\":8376:8382  _owner */\n      sload(0x02)\n        /* \"AndrewTate-testnet.sol.sol\":8355:8393  OwnershipTransferred(_owner, newOwner) */\n      mload(0x40)\n      sub(shl(0xa0, 0x01), 0x01)\n      dup1\n      dup5\n      and\n      swap3\n        /* \"AndrewTate-testnet.sol.sol\":8376:8382  _owner */\n      0x0100\n      swap1\n      div\n      and\n      swap1\n        /* \"AndrewTate-testnet.sol.sol\":8355:8393  OwnershipTransferred(_owner, newOwner) */\n      0x8be0079c531659141344cd1fd0a4f28419497f9722a3daafe3b4186f6b6457e0\n      swap1\n      0x00\n      swap1\n      log3\n        /* \"AndrewTate-testnet.sol.sol\":8404:8410  _owner */\n      0x02\n        /* \"AndrewTate-testnet.sol.sol\":8404:8421  _owner = newOwner */\n      dup1\n      sload\n      sub(shl(0xa0, 0x01), 0x01)\n      swap1\n      swap3\n      and\n      0x0100\n      mul\n      not(sub(shl(0xa8, 0x01), 0x0100))\n      swap1\n      swap3\n      and\n      swap2\n      swap1\n      swap2\n      or\n      swap1\n      sstore\n        /* \"AndrewTate-testnet.sol.sol\":8242:8429  function _transferOwnership(address newOwner) internal {\r... */\n      jump\t// out\n        /* \"AndrewTate-testnet.sol.sol\":2865:3090  function div(\r... */\n    tag_488:\n        /* \"AndrewTate-testnet.sol.sol\":2985:2992  uint256 */\n      0x00\n        /* \"AndrewTate-testnet.sol.sol\":3020:3032  errorMessage */\n      dup2\n        /* \"AndrewTate-testnet.sol.sol\":3013:3018  b > 0 */\n      dup4\n        /* \"AndrewTate-testnet.sol.sol\":3005:3033  require(b > 0, errorMessage) */\n      tag_535\n      jumpi\n      mload(0x40)\n      shl(0xe5, 0x461bcd)\n      dup2\n      mstore\n      0x20\n      0x04\n      dup3\n      add\n      dup2\n      dup2\n      mstore\n      dup4\n      mload\n      0x24\n      dup5\n      add\n      mstore\n      dup4\n      mload\n      swap1\n      swap3\n      dup4\n      swap3\n      0x44\n      swap1\n      swap2\n      add\n      swap2\n      swap1\n      dup6\n      add\n      swap1\n      dup1\n      dup4\n      dup4\n      0x00\n      dup4\n      iszero\n      tag_496\n      jumpi\n      dup2\n      dup2\n      add\n      mload\n      dup4\n      dup3\n      add\n      mstore\n      0x20\n      add\n      jump(tag_494)\n    tag_535:\n      pop\n        /* \"AndrewTate-testnet.sol.sol\":3044:3053  uint256 c */\n      0x00\n        /* \"AndrewTate-testnet.sol.sol\":3060:3061  b */\n      dup4\n        /* \"AndrewTate-testnet.sol.sol\":3056:3057  a */\n      dup6\n        /* \"AndrewTate-testnet.sol.sol\":3056:3061  a / b */\n      dup2\n      tag_540\n      jumpi\n      invalid\n    tag_540:\n      div\n      swap6\n        /* \"AndrewTate-testnet.sol.sol\":2865:3090  function div(\r... */\n      swap5\n      pop\n      pop\n      pop\n      pop\n      pop\n      jump\t// out\n        /* \"AndrewTate-testnet.sol.sol\":13562:13901  function _basicTransfer(\r... */\n    tag_503:\n        /* \"AndrewTate-testnet.sol.sol\":13680:13684  bool */\n      0x00\n        /* \"AndrewTate-testnet.sol.sol\":13697:13714  uint256 gonAmount */\n      dup1\n        /* \"AndrewTate-testnet.sol.sol\":13717:13745  amount.mul(_gonsPerFragment) */\n      tag_542\n        /* \"AndrewTate-testnet.sol.sol\":13728:13744  _gonsPerFragment */\n      sload(0x19)\n        /* \"AndrewTate-testnet.sol.sol\":13717:13723  amount */\n      dup5\n        /* \"AndrewTate-testnet.sol.sol\":13717:13727  amount.mul */\n      tag_451\n      swap1\n        /* \"AndrewTate-testnet.sol.sol\":13717:13745  amount.mul(_gonsPerFragment) */\n      swap2\n      swap1\n      0xffffffff\n      and\n      jump\t// in\n    tag_542:\n      sub(shl(0xa0, 0x01), 0x01)\n        /* \"AndrewTate-testnet.sol.sol\":13777:13795  _gonBalances[from] */\n      dup7\n      and\n      0x00\n      swap1\n      dup2\n      mstore\n        /* \"AndrewTate-testnet.sol.sol\":13777:13789  _gonBalances */\n      0x1a\n        /* \"AndrewTate-testnet.sol.sol\":13777:13795  _gonBalances[from] */\n      0x20\n      mstore\n      0x40\n      swap1\n      keccak256\n      sload\n        /* \"AndrewTate-testnet.sol.sol\":13697:13745  uint256 gonAmount = amount.mul(_gonsPerFragment) */\n      swap1\n      swap2\n      pop\n        /* \"AndrewTate-testnet.sol.sol\":13777:13810  _gonBalances[from].sub(gonAmount) */\n      tag_543\n      swap1\n        /* \"AndrewTate-testnet.sol.sol\":13697:13745  uint256 gonAmount = amount.mul(_gonsPerFragment) */\n      dup3\n        /* \"AndrewTate-testnet.sol.sol\":13777:13799  _gonBalances[from].sub */\n      tag_322\n        /* \"AndrewTate-testnet.sol.sol\":13777:13810  _gonBalances[from].sub(gonAmount) */\n      jump\t// in\n    tag_543:\n      sub(shl(0xa0, 0x01), 0x01)\n        /* \"AndrewTate-testnet.sol.sol\":13756:13774  _gonBalances[from] */\n      dup1\n      dup8\n      and\n      0x00\n      swap1\n      dup2\n      mstore\n        /* \"AndrewTate-testnet.sol.sol\":13756:13768  _gonBalances */\n      0x1a\n        /* \"AndrewTate-testnet.sol.sol\":13756:13774  _gonBalances[from] */\n      0x20\n      mstore\n      0x40\n      dup1\n      dup3\n      keccak256\n        /* \"AndrewTate-testnet.sol.sol\":13756:13810  _gonBalances[from] = _gonBalances[from].sub(gonAmount) */\n      swap4\n      swap1\n      swap4\n      sstore\n        /* \"AndrewTate-testnet.sol.sol\":13840:13856  _gonBalances[to] */\n      swap1\n      dup7\n      and\n      dup2\n      mstore\n      keccak256\n      sload\n        /* \"AndrewTate-testnet.sol.sol\":13840:13871  _gonBalances[to].add(gonAmount) */\n      tag_544\n      swap1\n        /* \"AndrewTate-testnet.sol.sol\":13861:13870  gonAmount */\n      dup3\n        /* \"AndrewTate-testnet.sol.sol\":13840:13860  _gonBalances[to].add */\n      tag_281\n        /* \"AndrewTate-testnet.sol.sol\":13840:13871  _gonBalances[to].add(gonAmount) */\n      jump\t// in\n    tag_544:\n      sub(shl(0xa0, 0x01), 0x01)\n        /* \"AndrewTate-testnet.sol.sol\":13821:13837  _gonBalances[to] */\n      dup6\n      and\n      0x00\n      swap1\n      dup2\n      mstore\n        /* \"AndrewTate-testnet.sol.sol\":13821:13833  _gonBalances */\n      0x1a\n        /* \"AndrewTate-testnet.sol.sol\":13821:13837  _gonBalances[to] */\n      0x20\n      mstore\n      0x40\n      swap1\n      keccak256\n        /* \"AndrewTate-testnet.sol.sol\":13821:13871  _gonBalances[to] = _gonBalances[to].add(gonAmount) */\n      sstore\n      pop\n        /* \"AndrewTate-testnet.sol.sol\":13889:13893  true */\n      0x01\n      swap1\n      pop\n        /* \"AndrewTate-testnet.sol.sol\":13562:13901  function _basicTransfer(\r... */\n      swap4\n      swap3\n      pop\n      pop\n      pop\n      jump\t// out\n        /* \"AndrewTate-testnet.sol.sol\":20577:20805  function shouldSwapBack() internal view returns (bool) {\r... */\n    tag_506:\n        /* \"AndrewTate-testnet.sol.sol\":20677:20681  pair */\n      sload(0x15)\n        /* \"AndrewTate-testnet.sol.sol\":20626:20630  bool */\n      0x00\n      swap1\n      sub(shl(0xa0, 0x01), 0x01)\n        /* \"AndrewTate-testnet.sol.sol\":20677:20681  pair */\n      and\n        /* \"AndrewTate-testnet.sol.sol\":20663:20673  msg.sender */\n      caller\n        /* \"AndrewTate-testnet.sol.sol\":20663:20681  msg.sender != pair */\n      eq\n      dup1\n      iszero\n      swap1\n        /* \"AndrewTate-testnet.sol.sol\":20663:20705  msg.sender != pair &&\r... */\n      tag_546\n      jumpi\n      pop\n        /* \"AndrewTate-testnet.sol.sol\":20699:20705  inSwap */\n      and(0xff, sload(0x17))\n        /* \"AndrewTate-testnet.sol.sol\":20698:20705  !inSwap */\n      iszero\n        /* \"AndrewTate-testnet.sol.sol\":20663:20705  msg.sender != pair &&\r... */\n    tag_546:\n        /* \"AndrewTate-testnet.sol.sol\":20663:20733  msg.sender != pair &&\r... */\n      dup1\n      iszero\n      tag_547\n      jumpi\n      pop\n        /* \"AndrewTate-testnet.sol.sol\":20722:20733  swapEnabled */\n      sload(0x15)\n      shl(0xa0, 0x01)\n      swap1\n      div\n      0xff\n      and\n        /* \"AndrewTate-testnet.sol.sol\":20663:20733  msg.sender != pair &&\r... */\n    tag_547:\n        /* \"AndrewTate-testnet.sol.sol\":20663:20797  msg.sender != pair &&\r... */\n      dup1\n      iszero\n      tag_318\n      jumpi\n      pop\n      pop\n        /* \"AndrewTate-testnet.sol.sol\":20781:20797  gonSwapThreshold */\n      sload(0x16)\n        /* \"AndrewTate-testnet.sol.sol\":20771:20775  this */\n      address\n        /* \"AndrewTate-testnet.sol.sol\":20750:20777  _gonBalances[address(this)] */\n      0x00\n      swap1\n      dup2\n      mstore\n        /* \"AndrewTate-testnet.sol.sol\":20750:20762  _gonBalances */\n      0x1a\n        /* \"AndrewTate-testnet.sol.sol\":20750:20777  _gonBalances[address(this)] */\n      0x20\n      mstore\n      0x40\n      swap1\n      keccak256\n      sload\n        /* \"AndrewTate-testnet.sol.sol\":20750:20797  _gonBalances[address(this)] >= gonSwapThreshold */\n      lt\n      iszero\n      swap1\n        /* \"AndrewTate-testnet.sol.sol\":20577:20805  function shouldSwapBack() internal view returns (bool) {\r... */\n      jump\t// out\n        /* \"AndrewTate-testnet.sol.sol\":15317:17364  function swapBack() internal swapping {\r... */\n    tag_509:\n        /* \"AndrewTate-testnet.sol.sol\":10151:10157  inSwap */\n      0x17\n        /* \"AndrewTate-testnet.sol.sol\":10151:10164  inSwap = true */\n      dup1\n      sload\n      not(0xff)\n      and\n        /* \"AndrewTate-testnet.sol.sol\":10160:10164  true */\n      0x01\n        /* \"AndrewTate-testnet.sol.sol\":10151:10164  inSwap = true */\n      or\n      swap1\n      sstore\n        /* \"AndrewTate-testnet.sol.sol\":15426:15441  targetLiquidity */\n      sload(0x12)\n        /* \"AndrewTate-testnet.sol.sol\":15456:15482  targetLiquidityDenominator */\n      sload(0x13)\n        /* \"AndrewTate-testnet.sol.sol\":10151:10157  inSwap */\n      0x00\n      swap2\n        /* \"AndrewTate-testnet.sol.sol\":15396:15493  isOverLiquified(\r... */\n      tag_551\n      swap2\n        /* \"AndrewTate-testnet.sol.sol\":15396:15411  isOverLiquified */\n      tag_92\n        /* \"AndrewTate-testnet.sol.sol\":15396:15493  isOverLiquified(\r... */\n      jump\t// in\n    tag_551:\n        /* \"AndrewTate-testnet.sol.sol\":15396:15538  isOverLiquified(\r... */\n      tag_552\n      jumpi\n        /* \"AndrewTate-testnet.sol.sol\":15526:15538  liquidityFee */\n      sload(0x07)\n        /* \"AndrewTate-testnet.sol.sol\":15396:15538  isOverLiquified(\r... */\n      jump(tag_553)\n    tag_552:\n        /* \"AndrewTate-testnet.sol.sol\":15509:15510  0 */\n      0x00\n        /* \"AndrewTate-testnet.sol.sol\":15396:15538  isOverLiquified(\r... */\n    tag_553:\n        /* \"AndrewTate-testnet.sol.sol\":15626:15642  _gonsPerFragment */\n      sload(0x19)\n        /* \"AndrewTate-testnet.sol.sol\":15601:15605  this */\n      address\n        /* \"AndrewTate-testnet.sol.sol\":15549:15577  uint256 contractTokenBalance */\n      0x00\n        /* \"AndrewTate-testnet.sol.sol\":15580:15607  _gonBalances[address(this)] */\n      swap1\n      dup2\n      mstore\n        /* \"AndrewTate-testnet.sol.sol\":15580:15592  _gonBalances */\n      0x1a\n        /* \"AndrewTate-testnet.sol.sol\":15580:15607  _gonBalances[address(this)] */\n      0x20\n      mstore\n      0x40\n      dup2\n      keccak256\n      sload\n        /* \"AndrewTate-testnet.sol.sol\":15366:15538  uint256 dynamicLiquidityFee = isOverLiquified(\r... */\n      swap3\n      swap4\n      pop\n        /* \"AndrewTate-testnet.sol.sol\":15549:15577  uint256 contractTokenBalance */\n      swap2\n        /* \"AndrewTate-testnet.sol.sol\":15580:15653  _gonBalances[address(this)].div(\r... */\n      tag_554\n      swap2\n        /* \"AndrewTate-testnet.sol.sol\":15580:15611  _gonBalances[address(this)].div */\n      tag_282\n        /* \"AndrewTate-testnet.sol.sol\":15580:15653  _gonBalances[address(this)].div(\r... */\n      jump\t// in\n    tag_554:\n        /* \"AndrewTate-testnet.sol.sol\":15549:15653  uint256 contractTokenBalance = _gonBalances[address(this)].div(\r... */\n      swap1\n      pop\n        /* \"AndrewTate-testnet.sol.sol\":15664:15687  uint256 amountToLiquify */\n      0x00\n        /* \"AndrewTate-testnet.sol.sol\":15690:15798  contractTokenBalance\r... */\n      tag_555\n        /* \"AndrewTate-testnet.sol.sol\":15796:15797  2 */\n      0x02\n        /* \"AndrewTate-testnet.sol.sol\":15690:15777  contractTokenBalance\r... */\n      tag_319\n        /* \"AndrewTate-testnet.sol.sol\":15768:15776  totalFee */\n      sload(0x0b)\n        /* \"AndrewTate-testnet.sol.sol\":15690:15749  contractTokenBalance\r... */\n      tag_319\n        /* \"AndrewTate-testnet.sol.sol\":15729:15748  dynamicLiquidityFee */\n      dup8\n        /* \"AndrewTate-testnet.sol.sol\":15690:15710  contractTokenBalance */\n      dup8\n        /* \"AndrewTate-testnet.sol.sol\":15690:15728  contractTokenBalance\r... */\n      tag_451\n      swap1\n        /* \"AndrewTate-testnet.sol.sol\":15690:15749  contractTokenBalance\r... */\n      swap2\n      swap1\n      0xffffffff\n      and\n      jump\t// in\n        /* \"AndrewTate-testnet.sol.sol\":15690:15798  contractTokenBalance\r... */\n    tag_555:\n        /* \"AndrewTate-testnet.sol.sol\":15664:15798  uint256 amountToLiquify = contractTokenBalance\r... */\n      swap1\n      pop\n        /* \"AndrewTate-testnet.sol.sol\":15809:15829  uint256 amountToSwap */\n      0x00\n        /* \"AndrewTate-testnet.sol.sol\":15832:15873  contractTokenBalance.sub(amountToLiquify) */\n      tag_558\n        /* \"AndrewTate-testnet.sol.sol\":15832:15852  contractTokenBalance */\n      dup4\n        /* \"AndrewTate-testnet.sol.sol\":15664:15798  uint256 amountToLiquify = contractTokenBalance\r... */\n      dup4\n        /* \"AndrewTate-testnet.sol.sol\":15832:15856  contractTokenBalance.sub */\n      tag_322\n        /* \"AndrewTate-testnet.sol.sol\":15832:15873  contractTokenBalance.sub(amountToLiquify) */\n      jump\t// in\n    tag_558:\n        /* \"AndrewTate-testnet.sol.sol\":15910:15926  new address[](2) */\n      0x40\n      dup1\n      mload\n        /* \"AndrewTate-testnet.sol.sol\":15924:15925  2 */\n      0x02\n        /* \"AndrewTate-testnet.sol.sol\":15910:15926  new address[](2) */\n      dup1\n      dup3\n      mstore\n        /* \"AndrewTate-testnet.sol.sol\":15886:15907  address[] memory path */\n      0x60\n        /* \"AndrewTate-testnet.sol.sol\":15910:15926  new address[](2) */\n      dup1\n      dup4\n      add\n      dup5\n      mstore\n        /* \"AndrewTate-testnet.sol.sol\":15809:15873  uint256 amountToSwap = contractTokenBalance.sub(amountToLiquify) */\n      swap4\n      swap5\n      pop\n        /* \"AndrewTate-testnet.sol.sol\":15910:15926  new address[](2) */\n      swap1\n      swap2\n      0x20\n      dup4\n      add\n      swap1\n      dup1\n      calldatasize\n      dup4\n      calldatacopy\n      add\n      swap1\n      pop\n      pop\n        /* \"AndrewTate-testnet.sol.sol\":15886:15926  address[] memory path = new address[](2) */\n      swap1\n      pop\n        /* \"AndrewTate-testnet.sol.sol\":15955:15959  this */\n      address\n        /* \"AndrewTate-testnet.sol.sol\":15937:15941  path */\n      dup2\n        /* \"AndrewTate-testnet.sol.sol\":15942:15943  0 */\n      0x00\n        /* \"AndrewTate-testnet.sol.sol\":15937:15944  path[0] */\n      dup2\n      mload\n      dup2\n      lt\n      tag_561\n      jumpi\n      invalid\n    tag_561:\n      sub(shl(0xa0, 0x01), 0x01)\n        /* \"AndrewTate-testnet.sol.sol\":15937:15960  path[0] = address(this) */\n      swap3\n      dup4\n      and\n        /* \"AndrewTate-testnet.sol.sol\":15937:15944  path[0] */\n      0x20\n      swap2\n      dup3\n      mul\n      swap3\n      swap1\n      swap3\n      add\n      dup2\n      add\n        /* \"AndrewTate-testnet.sol.sol\":15937:15960  path[0] = address(this) */\n      swap2\n      swap1\n      swap2\n      mstore\n        /* \"AndrewTate-testnet.sol.sol\":15981:15987  router */\n      sload(0x14)\n        /* \"AndrewTate-testnet.sol.sol\":15981:15994  router.WETH() */\n      0x40\n      dup1\n      mload\n      shl(0xe3, 0x15ab88c9)\n      dup2\n      mstore\n      swap1\n      mload\n        /* \"AndrewTate-testnet.sol.sol\":15981:15987  router */\n      swap2\n      swap1\n      swap4\n      and\n      swap3\n        /* \"AndrewTate-testnet.sol.sol\":15981:15992  router.WETH */\n      0xad5c4648\n      swap3\n        /* \"AndrewTate-testnet.sol.sol\":15981:15994  router.WETH() */\n      0x04\n      dup1\n      dup4\n      add\n      swap4\n        /* \"AndrewTate-testnet.sol.sol\":15937:15944  path[0] */\n      swap2\n      swap3\n        /* \"AndrewTate-testnet.sol.sol\":15981:15994  router.WETH() */\n      dup3\n      swap1\n      sub\n      add\n      dup2\n        /* \"AndrewTate-testnet.sol.sol\":15981:15987  router */\n      dup7\n        /* \"AndrewTate-testnet.sol.sol\":15981:15994  router.WETH() */\n      dup1\n      extcodesize\n      iszero\n      dup1\n      iszero\n      tag_562\n      jumpi\n      0x00\n      dup1\n      revert\n    tag_562:\n      pop\n      gas\n      staticcall\n      iszero\n      dup1\n      iszero\n      tag_564\n      jumpi\n      returndatasize\n      0x00\n      dup1\n      returndatacopy\n      revert(0x00, returndatasize)\n    tag_564:\n      pop\n      pop\n      pop\n      pop\n      mload(0x40)\n      returndatasize\n      0x20\n      dup2\n      lt\n      iszero\n      tag_565\n      jumpi\n      0x00\n      dup1\n      revert\n    tag_565:\n      pop\n      mload\n        /* \"AndrewTate-testnet.sol.sol\":15971:15978  path[1] */\n      dup2\n      mload\n        /* \"AndrewTate-testnet.sol.sol\":15971:15975  path */\n      dup3\n      swap1\n        /* \"AndrewTate-testnet.sol.sol\":15976:15977  1 */\n      0x01\n      swap1\n        /* \"AndrewTate-testnet.sol.sol\":15971:15978  path[1] */\n      dup2\n      lt\n      tag_566\n      jumpi\n      invalid\n    tag_566:\n      sub(shl(0xa0, 0x01), 0x01)\n        /* \"AndrewTate-testnet.sol.sol\":15971:15994  path[1] = router.WETH() */\n      swap3\n      dup4\n      and\n        /* \"AndrewTate-testnet.sol.sol\":15971:15978  path[1] */\n      0x20\n      swap2\n      dup3\n      mul\n      swap3\n      swap1\n      swap3\n      add\n      dup2\n      add\n        /* \"AndrewTate-testnet.sol.sol\":15971:15994  path[1] = router.WETH() */\n      swap2\n      swap1\n      swap2\n      mstore\n        /* \"AndrewTate-testnet.sol.sol\":16065:16071  router */\n      sload(0x14)\n        /* \"AndrewTate-testnet.sol.sol\":16065:16253  router.swapExactTokensForETHSupportingFeeOnTransferTokens(\r... */\n      mload(0x40)\n      shl(0xe0, 0x791ac947)\n      dup2\n      mstore\n      0x04\n      dup2\n      add\n      dup7\n      dup2\n      mstore\n        /* \"AndrewTate-testnet.sol.sol\":16007:16028  uint256 balanceBefore */\n      0x00\n        /* \"AndrewTate-testnet.sol.sol\":16065:16253  router.swapExactTokensForETHSupportingFeeOnTransferTokens(\r... */\n      0x24\n      dup4\n      add\n      dup2\n      swap1\n      mstore\n        /* \"AndrewTate-testnet.sol.sol\":16207:16211  this */\n      address\n        /* \"AndrewTate-testnet.sol.sol\":16065:16253  router.swapExactTokensForETHSupportingFeeOnTransferTokens(\r... */\n      0x64\n      dup5\n      add\n      dup2\n      swap1\n      mstore\n        /* \"AndrewTate-testnet.sol.sol\":16227:16242  block.timestamp */\n      timestamp\n        /* \"AndrewTate-testnet.sol.sol\":16065:16253  router.swapExactTokensForETHSupportingFeeOnTransferTokens(\r... */\n      0x84\n      dup6\n      add\n      dup2\n      swap1\n      mstore\n      0xa0\n      0x44\n      dup7\n      add\n      swap1\n      dup2\n      mstore\n      dup10\n      mload\n      0xa4\n      dup8\n      add\n      mstore\n      dup10\n      mload\n        /* \"AndrewTate-testnet.sol.sol\":16031:16052  address(this).balance */\n      selfbalance\n      swap10\n        /* \"AndrewTate-testnet.sol.sol\":16065:16071  router */\n      swap8\n      swap1\n      swap8\n      and\n      swap8\n        /* \"AndrewTate-testnet.sol.sol\":16065:16122  router.swapExactTokensForETHSupportingFeeOnTransferTokens */\n      0x791ac947\n      swap8\n        /* \"AndrewTate-testnet.sol.sol\":16137:16149  amountToSwap */\n      dup13\n      swap8\n        /* \"AndrewTate-testnet.sol.sol\":16007:16028  uint256 balanceBefore */\n      swap6\n      swap7\n        /* \"AndrewTate-testnet.sol.sol\":16180:16184  path */\n      dup13\n      swap7\n        /* \"AndrewTate-testnet.sol.sol\":16065:16253  router.swapExactTokensForETHSupportingFeeOnTransferTokens(\r... */\n      swap1\n      swap4\n      swap3\n      0xc4\n      swap1\n      swap2\n      add\n      swap2\n      dup8\n      dup3\n      add\n      swap2\n      mul\n      dup1\n      dup4\n      dup4\n        /* \"AndrewTate-testnet.sol.sol\":16007:16028  uint256 balanceBefore */\n      dup12\n        /* \"AndrewTate-testnet.sol.sol\":16065:16253  router.swapExactTokensForETHSupportingFeeOnTransferTokens(\r... */\n    tag_567:\n      dup4\n      dup2\n      lt\n      iszero\n      tag_569\n      jumpi\n      dup2\n      dup2\n      add\n      mload\n      dup4\n      dup3\n      add\n      mstore\n      0x20\n      add\n      jump(tag_567)\n    tag_569:\n      pop\n      pop\n      pop\n      pop\n      swap1\n      pop\n      add\n      swap7\n      pop\n      pop\n      pop\n      pop\n      pop\n      pop\n      pop\n      0x00\n      mload(0x40)\n      dup1\n      dup4\n      sub\n      dup2\n      0x00\n      dup8\n      dup1\n      extcodesize\n      iszero\n      dup1\n      iszero\n      tag_570\n      jumpi\n      0x00\n      dup1\n      revert\n    tag_570:\n      pop\n      gas\n      call\n      iszero\n      dup1\n      iszero\n      tag_572\n      jumpi\n      returndatasize\n      0x00\n      dup1\n      returndatacopy\n      revert(0x00, returndatasize)\n    tag_572:\n      pop\n      pop\n      pop\n      pop\n        /* \"AndrewTate-testnet.sol.sol\":16266:16283  uint256 amountETH */\n      0x00\n        /* \"AndrewTate-testnet.sol.sol\":16286:16326  address(this).balance.sub(balanceBefore) */\n      tag_573\n        /* \"AndrewTate-testnet.sol.sol\":16312:16325  balanceBefore */\n      dup3\n        /* \"AndrewTate-testnet.sol.sol\":16286:16307  address(this).balance */\n      selfbalance\n        /* \"AndrewTate-testnet.sol.sol\":16286:16311  address(this).balance.sub */\n      tag_322\n      swap1\n        /* \"AndrewTate-testnet.sol.sol\":16286:16326  address(this).balance.sub(balanceBefore) */\n      swap2\n      swap1\n      0xffffffff\n      and\n      jump\t// in\n    tag_573:\n        /* \"AndrewTate-testnet.sol.sol\":16266:16326  uint256 amountETH = address(this).balance.sub(balanceBefore) */\n      swap1\n      pop\n        /* \"AndrewTate-testnet.sol.sol\":16339:16358  uint256 totalETHFee */\n      0x00\n        /* \"AndrewTate-testnet.sol.sol\":16361:16401  totalFee.sub(dynamicLiquidityFee.div(2)) */\n      tag_574\n        /* \"AndrewTate-testnet.sol.sol\":16374:16400  dynamicLiquidityFee.div(2) */\n      tag_575\n        /* \"AndrewTate-testnet.sol.sol\":16374:16393  dynamicLiquidityFee */\n      dup10\n        /* \"AndrewTate-testnet.sol.sol\":16398:16399  2 */\n      0x02\n        /* \"AndrewTate-testnet.sol.sol\":16374:16397  dynamicLiquidityFee.div */\n      tag_282\n        /* \"AndrewTate-testnet.sol.sol\":16374:16400  dynamicLiquidityFee.div(2) */\n      jump\t// in\n    tag_575:\n        /* \"AndrewTate-testnet.sol.sol\":16361:16369  totalFee */\n      sload(0x0b)\n      swap1\n        /* \"AndrewTate-testnet.sol.sol\":16361:16373  totalFee.sub */\n      tag_322\n        /* \"AndrewTate-testnet.sol.sol\":16361:16401  totalFee.sub(dynamicLiquidityFee.div(2)) */\n      jump\t// in\n    tag_574:\n        /* \"AndrewTate-testnet.sol.sol\":16339:16401  uint256 totalETHFee = totalFee.sub(dynamicLiquidityFee.div(2)) */\n      swap1\n      pop\n        /* \"AndrewTate-testnet.sol.sol\":16414:16440  uint256 amountETHLiquidity */\n      0x00\n        /* \"AndrewTate-testnet.sol.sol\":16443:16543  amountETH\r... */\n      tag_576\n        /* \"AndrewTate-testnet.sol.sol\":16541:16542  2 */\n      0x02\n        /* \"AndrewTate-testnet.sol.sol\":16443:16522  amountETH\r... */\n      tag_319\n        /* \"AndrewTate-testnet.sol.sol\":16339:16401  uint256 totalETHFee = totalFee.sub(dynamicLiquidityFee.div(2)) */\n      dup5\n        /* \"AndrewTate-testnet.sol.sol\":16443:16522  amountETH\r... */\n      dup2\n        /* \"AndrewTate-testnet.sol.sol\":16443:16452  amountETH */\n      dup8\n        /* \"AndrewTate-testnet.sol.sol\":16471:16490  dynamicLiquidityFee */\n      dup15\n        /* \"AndrewTate-testnet.sol.sol\":16443:16470  amountETH\r... */\n      tag_451\n        /* \"AndrewTate-testnet.sol.sol\":16443:16491  amountETH\r... */\n      jump\t// in\n        /* \"AndrewTate-testnet.sol.sol\":16443:16543  amountETH\r... */\n    tag_576:\n        /* \"AndrewTate-testnet.sol.sol\":16414:16543  uint256 amountETHLiquidity = amountETH\r... */\n      swap1\n      pop\n        /* \"AndrewTate-testnet.sol.sol\":16554:16584  uint256 amountETHRiskFreeValue */\n      0x00\n        /* \"AndrewTate-testnet.sol.sol\":16587:16632  amountETH.mul(RiskFreeValue).div(totalETHFee) */\n      tag_579\n        /* \"AndrewTate-testnet.sol.sol\":16620:16631  totalETHFee */\n      dup4\n        /* \"AndrewTate-testnet.sol.sol\":16587:16615  amountETH.mul(RiskFreeValue) */\n      tag_319\n        /* \"AndrewTate-testnet.sol.sol\":16601:16614  RiskFreeValue */\n      sload(0x09)\n        /* \"AndrewTate-testnet.sol.sol\":16587:16596  amountETH */\n      dup8\n        /* \"AndrewTate-testnet.sol.sol\":16587:16600  amountETH.mul */\n      tag_451\n      swap1\n        /* \"AndrewTate-testnet.sol.sol\":16587:16615  amountETH.mul(RiskFreeValue) */\n      swap2\n      swap1\n      0xffffffff\n      and\n      jump\t// in\n        /* \"AndrewTate-testnet.sol.sol\":16587:16632  amountETH.mul(RiskFreeValue).div(totalETHFee) */\n    tag_579:\n        /* \"AndrewTate-testnet.sol.sol\":16554:16632  uint256 amountETHRiskFreeValue = amountETH.mul(RiskFreeValue).div(totalETHFee) */\n      swap1\n      pop\n        /* \"AndrewTate-testnet.sol.sol\":16643:16668  uint256 amountETHTreasury */\n      0x00\n        /* \"AndrewTate-testnet.sol.sol\":16671:16735  amountETH.mul(Treasury).div(\r... */\n      tag_581\n        /* \"AndrewTate-testnet.sol.sol\":16713:16724  totalETHFee */\n      dup5\n        /* \"AndrewTate-testnet.sol.sol\":16671:16694  amountETH.mul(Treasury) */\n      tag_319\n        /* \"AndrewTate-testnet.sol.sol\":16685:16693  Treasury */\n      sload(0x08)\n        /* \"AndrewTate-testnet.sol.sol\":16671:16680  amountETH */\n      dup9\n        /* \"AndrewTate-testnet.sol.sol\":16671:16684  amountETH.mul */\n      tag_451\n      swap1\n        /* \"AndrewTate-testnet.sol.sol\":16671:16694  amountETH.mul(Treasury) */\n      swap2\n      swap1\n      0xffffffff\n      and\n      jump\t// in\n        /* \"AndrewTate-testnet.sol.sol\":16671:16735  amountETH.mul(Treasury).div(\r... */\n    tag_581:\n        /* \"AndrewTate-testnet.sol.sol\":16775:16791  TreasuryReceiver */\n      sload(0x10)\n        /* \"AndrewTate-testnet.sol.sol\":16767:16876  payable(TreasuryReceiver).call{\r... */\n      mload(0x40)\n        /* \"AndrewTate-testnet.sol.sol\":16643:16735  uint256 amountETHTreasury = amountETH.mul(Treasury).div(\r... */\n      swap2\n      swap3\n      pop\n        /* \"AndrewTate-testnet.sol.sol\":16749:16761  bool success */\n      0x00\n      swap2\n      sub(shl(0xa0, 0x01), 0x01)\n        /* \"AndrewTate-testnet.sol.sol\":16775:16791  TreasuryReceiver */\n      swap1\n      swap2\n      and\n      swap1\n        /* \"AndrewTate-testnet.sol.sol\":16856:16861  30000 */\n      0x7530\n      swap1\n        /* \"AndrewTate-testnet.sol.sol\":16643:16735  uint256 amountETHTreasury = amountETH.mul(Treasury).div(\r... */\n      dup5\n      swap1\n        /* \"AndrewTate-testnet.sol.sol\":16749:16761  bool success */\n      dup5\n        /* \"AndrewTate-testnet.sol.sol\":16767:16876  payable(TreasuryReceiver).call{\r... */\n      dup2\n        /* \"AndrewTate-testnet.sol.sol\":16749:16761  bool success */\n      dup2\n        /* \"AndrewTate-testnet.sol.sol\":16767:16876  payable(TreasuryReceiver).call{\r... */\n      dup2\n        /* \"AndrewTate-testnet.sol.sol\":16643:16735  uint256 amountETHTreasury = amountETH.mul(Treasury).div(\r... */\n      dup6\n        /* \"AndrewTate-testnet.sol.sol\":16775:16791  TreasuryReceiver */\n      dup9\n        /* \"AndrewTate-testnet.sol.sol\":16856:16861  30000 */\n      dup9\n        /* \"AndrewTate-testnet.sol.sol\":16767:16876  payable(TreasuryReceiver).call{\r... */\n      call\n      swap4\n      pop\n      pop\n      pop\n      pop\n      returndatasize\n      dup1\n      0x00\n      dup2\n      eq\n      tag_585\n      jumpi\n      mload(0x40)\n      swap2\n      pop\n      and(add(returndatasize, 0x3f), not(0x1f))\n      dup3\n      add\n      0x40\n      mstore\n      returndatasize\n      dup3\n      mstore\n      returndatasize\n      0x00\n      0x20\n      dup5\n      add\n      returndatacopy\n      jump(tag_584)\n    tag_585:\n      0x60\n      swap2\n      pop\n    tag_584:\n      pop\n      pop\n        /* \"AndrewTate-testnet.sol.sol\":16909:16930  RiskFreeValueReceiver */\n      sload(0x11)\n        /* \"AndrewTate-testnet.sol.sol\":16901:17020  payable(RiskFreeValueReceiver).call{\r... */\n      mload(0x40)\n        /* \"AndrewTate-testnet.sol.sol\":16748:16876  (bool success, ) = payable(TreasuryReceiver).call{\r... */\n      swap2\n      swap3\n      pop\n      sub(shl(0xa0, 0x01), 0x01)\n        /* \"AndrewTate-testnet.sol.sol\":16909:16930  RiskFreeValueReceiver */\n      and\n      swap1\n        /* \"AndrewTate-testnet.sol.sol\":17000:17005  30000 */\n      0x7530\n      swap1\n        /* \"AndrewTate-testnet.sol.sol\":16958:16980  amountETHRiskFreeValue */\n      dup6\n      swap1\n        /* \"AndrewTate-testnet.sol.sol\":16909:16930  RiskFreeValueReceiver */\n      0x00\n        /* \"AndrewTate-testnet.sol.sol\":16901:17020  payable(RiskFreeValueReceiver).call{\r... */\n      dup2\n        /* \"AndrewTate-testnet.sol.sol\":16909:16930  RiskFreeValueReceiver */\n      dup2\n        /* \"AndrewTate-testnet.sol.sol\":16901:17020  payable(RiskFreeValueReceiver).call{\r... */\n      dup2\n        /* \"AndrewTate-testnet.sol.sol\":16958:16980  amountETHRiskFreeValue */\n      dup6\n        /* \"AndrewTate-testnet.sol.sol\":16909:16930  RiskFreeValueReceiver */\n      dup9\n        /* \"AndrewTate-testnet.sol.sol\":17000:17005  30000 */\n      dup9\n        /* \"AndrewTate-testnet.sol.sol\":16901:17020  payable(RiskFreeValueReceiver).call{\r... */\n      call\n      swap4\n      pop\n      pop\n      pop\n      pop\n      returndatasize\n      dup1\n      0x00\n      dup2\n      eq\n      tag_588\n      jumpi\n      mload(0x40)\n      swap2\n      pop\n      and(add(returndatasize, 0x3f), not(0x1f))\n      dup3\n      add\n      0x40\n      mstore\n      returndatasize\n      dup3\n      mstore\n      returndatasize\n      0x00\n      0x20\n      dup5\n      add\n      returndatacopy\n      jump(tag_587)\n    tag_588:\n      0x60\n      swap2\n      pop\n    tag_587:\n      pop\n        /* \"AndrewTate-testnet.sol.sol\":17043:17048  false */\n      0x00\n      swap3\n      pop\n      pop\n        /* \"AndrewTate-testnet.sol.sol\":17065:17084  amountToLiquify > 0 */\n      dup11\n      iszero\n      swap1\n      pop\n        /* \"AndrewTate-testnet.sol.sol\":17061:17357  if (amountToLiquify > 0) {\r... */\n      tag_589\n      jumpi\n        /* \"AndrewTate-testnet.sol.sol\":17101:17107  router */\n      sload(0x14)\n        /* \"AndrewTate-testnet.sol.sol\":17275:17296  autoLiquidityReceiver */\n      sload(0x0f)\n        /* \"AndrewTate-testnet.sol.sol\":17101:17345  router.addLiquidityETH{value: amountETHLiquidity}(\r... */\n      0x40\n      dup1\n      mload\n      shl(0xe0, 0xf305d719)\n      dup2\n      mstore\n        /* \"AndrewTate-testnet.sol.sol\":17177:17181  this */\n      address\n        /* \"AndrewTate-testnet.sol.sol\":17101:17345  router.addLiquidityETH{value: amountETHLiquidity}(\r... */\n      0x04\n      dup3\n      add\n      mstore\n      0x24\n      dup2\n      add\n      dup15\n      swap1\n      mstore\n        /* \"AndrewTate-testnet.sol.sol\":17101:17107  router */\n      0x00\n        /* \"AndrewTate-testnet.sol.sol\":17101:17345  router.addLiquidityETH{value: amountETHLiquidity}(\r... */\n      0x44\n      dup3\n      add\n      dup2\n      swap1\n      mstore\n      0x64\n      dup3\n      add\n      mstore\n      sub(shl(0xa0, 0x01), 0x01)\n        /* \"AndrewTate-testnet.sol.sol\":17275:17296  autoLiquidityReceiver */\n      swap3\n      dup4\n      and\n        /* \"AndrewTate-testnet.sol.sol\":17101:17345  router.addLiquidityETH{value: amountETHLiquidity}(\r... */\n      0x84\n      dup3\n      add\n      mstore\n        /* \"AndrewTate-testnet.sol.sol\":17315:17330  block.timestamp */\n      timestamp\n        /* \"AndrewTate-testnet.sol.sol\":17101:17345  router.addLiquidityETH{value: amountETHLiquidity}(\r... */\n      0xa4\n      dup3\n      add\n      mstore\n      swap1\n      mload\n        /* \"AndrewTate-testnet.sol.sol\":17101:17107  router */\n      swap2\n      swap1\n      swap3\n      and\n      swap2\n        /* \"AndrewTate-testnet.sol.sol\":17101:17123  router.addLiquidityETH */\n      0xf305d719\n      swap2\n        /* \"AndrewTate-testnet.sol.sol\":17131:17149  amountETHLiquidity */\n      dup8\n      swap2\n        /* \"AndrewTate-testnet.sol.sol\":17101:17345  router.addLiquidityETH{value: amountETHLiquidity}(\r... */\n      0xc4\n      dup1\n      dup3\n      add\n      swap3\n      0x60\n      swap3\n      swap1\n      swap2\n      swap1\n      dup3\n      swap1\n      sub\n      add\n      dup2\n        /* \"AndrewTate-testnet.sol.sol\":17131:17149  amountETHLiquidity */\n      dup6\n        /* \"AndrewTate-testnet.sol.sol\":17101:17107  router */\n      dup9\n        /* \"AndrewTate-testnet.sol.sol\":17101:17345  router.addLiquidityETH{value: amountETHLiquidity}(\r... */\n      dup1\n      extcodesize\n      iszero\n      dup1\n      iszero\n      tag_590\n      jumpi\n      0x00\n      dup1\n      revert\n    tag_590:\n      pop\n      gas\n      call\n      iszero\n      dup1\n      iszero\n      tag_592\n      jumpi\n      returndatasize\n      0x00\n      dup1\n      returndatacopy\n      revert(0x00, returndatasize)\n    tag_592:\n      pop\n      pop\n      pop\n      pop\n      pop\n      mload(0x40)\n      returndatasize\n      0x60\n      dup2\n      lt\n      iszero\n      tag_593\n      jumpi\n      0x00\n      dup1\n      revert\n    tag_593:\n      pop\n      pop\n        /* \"AndrewTate-testnet.sol.sol\":17061:17357  if (amountToLiquify > 0) {\r... */\n    tag_589:\n      pop\n      pop\n        /* \"AndrewTate-testnet.sol.sol\":10187:10193  inSwap */\n      0x17\n        /* \"AndrewTate-testnet.sol.sol\":10187:10201  inSwap = false */\n      dup1\n      sload\n      not(0xff)\n      and\n      swap1\n      sstore\n      pop\n      pop\n      pop\n      pop\n      pop\n      pop\n      pop\n      pop\n      pop\n      pop\n        /* \"AndrewTate-testnet.sol.sol\":15317:17364  function swapBack() internal swapping {\r... */\n      jump\t// out\n        /* \"AndrewTate-testnet.sol.sol\":19771:19928  function shouldTakeFee(address from, address to) internal view returns (bool) {\r... */\n    tag_512:\n        /* \"AndrewTate-testnet.sol.sol\":19868:19872  pair */\n      sload(0x15)\n        /* \"AndrewTate-testnet.sol.sol\":19843:19847  bool */\n      0x00\n      swap1\n      sub(shl(0xa0, 0x01), 0x01)\n        /* \"AndrewTate-testnet.sol.sol\":19868:19880  pair == from */\n      dup5\n      dup2\n      and\n        /* \"AndrewTate-testnet.sol.sol\":19868:19872  pair */\n      swap2\n      and\n        /* \"AndrewTate-testnet.sol.sol\":19868:19880  pair == from */\n      eq\n      dup1\n        /* \"AndrewTate-testnet.sol.sol\":19868:19894  pair == from || pair == to */\n      tag_595\n      jumpi\n      pop\n        /* \"AndrewTate-testnet.sol.sol\":19884:19888  pair */\n      sload(0x15)\n      sub(shl(0xa0, 0x01), 0x01)\n        /* \"AndrewTate-testnet.sol.sol\":19884:19894  pair == to */\n      dup4\n      dup2\n      and\n        /* \"AndrewTate-testnet.sol.sol\":19884:19888  pair */\n      swap2\n      and\n        /* \"AndrewTate-testnet.sol.sol\":19884:19894  pair == to */\n      eq\n        /* \"AndrewTate-testnet.sol.sol\":19868:19894  pair == from || pair == to */\n    tag_595:\n        /* \"AndrewTate-testnet.sol.sol\":19867:19920  (pair == from || pair == to) && (!_isFeeExempt[from]) */\n      dup1\n      iszero\n      tag_465\n      jumpi\n      pop\n      pop\n      pop\n      sub(shl(0xa0, 0x01), 0x01)\n        /* \"AndrewTate-testnet.sol.sol\":19901:19919  _isFeeExempt[from] */\n      and\n      0x00\n      swap1\n      dup2\n      mstore\n        /* \"AndrewTate-testnet.sol.sol\":19901:19913  _isFeeExempt */\n      0x06\n        /* \"AndrewTate-testnet.sol.sol\":19901:19919  _isFeeExempt[from] */\n      0x20\n      mstore\n      0x40\n      swap1\n      keccak256\n      sload\n      0xff\n      and\n        /* \"AndrewTate-testnet.sol.sol\":19900:19919  !_isFeeExempt[from] */\n      iszero\n      swap1\n        /* \"AndrewTate-testnet.sol.sol\":19771:19928  function shouldTakeFee(address from, address to) internal view returns (bool) {\r... */\n      jump\t// out\n        /* \"AndrewTate-testnet.sol.sol\":17372:17917  function takeFee(address sender, address recipient, uint256 gonAmount)\r... */\n    tag_516:\n        /* \"AndrewTate-testnet.sol.sol\":17524:17532  totalFee */\n      sload(0x0b)\n        /* \"AndrewTate-testnet.sol.sol\":17559:17563  pair */\n      sload(0x15)\n        /* \"AndrewTate-testnet.sol.sol\":17479:17486  uint256 */\n      0x00\n      swap2\n        /* \"AndrewTate-testnet.sol.sol\":17524:17532  totalFee */\n      swap1\n      sub(shl(0xa0, 0x01), 0x01)\n        /* \"AndrewTate-testnet.sol.sol\":17546:17563  recipient == pair */\n      dup6\n      dup2\n      and\n        /* \"AndrewTate-testnet.sol.sol\":17559:17563  pair */\n      swap2\n      and\n        /* \"AndrewTate-testnet.sol.sol\":17546:17563  recipient == pair */\n      eq\n        /* \"AndrewTate-testnet.sol.sol\":17543:17599  if(recipient == pair) _totalFee = _totalFee.add(sellFee) */\n      iszero\n      tag_598\n      jumpi\n        /* \"AndrewTate-testnet.sol.sol\":17591:17598  sellFee */\n      sload(0x0a)\n        /* \"AndrewTate-testnet.sol.sol\":17577:17599  _totalFee.add(sellFee) */\n      tag_599\n      swap1\n        /* \"AndrewTate-testnet.sol.sol\":17577:17586  _totalFee */\n      dup3\n      swap1\n        /* \"AndrewTate-testnet.sol.sol\":17577:17590  _totalFee.add */\n      tag_281\n        /* \"AndrewTate-testnet.sol.sol\":17577:17599  _totalFee.add(sellFee) */\n      jump\t// in\n    tag_599:\n        /* \"AndrewTate-testnet.sol.sol\":17565:17599  _totalFee = _totalFee.add(sellFee) */\n      swap1\n      pop\n        /* \"AndrewTate-testnet.sol.sol\":17543:17599  if(recipient == pair) _totalFee = _totalFee.add(sellFee) */\n    tag_598:\n        /* \"AndrewTate-testnet.sol.sol\":17661:17675  feeDenominator */\n      sload(0x0c)\n        /* \"AndrewTate-testnet.sol.sol\":17612:17629  uint256 feeAmount */\n      0x00\n      swap1\n        /* \"AndrewTate-testnet.sol.sol\":17632:17676  gonAmount.mul(_totalFee).div(feeDenominator) */\n      tag_600\n      swap1\n        /* \"AndrewTate-testnet.sol.sol\":17632:17656  gonAmount.mul(_totalFee) */\n      tag_319\n        /* \"AndrewTate-testnet.sol.sol\":17632:17641  gonAmount */\n      dup7\n        /* \"AndrewTate-testnet.sol.sol\":17646:17655  _totalFee */\n      dup6\n        /* \"AndrewTate-testnet.sol.sol\":17632:17645  gonAmount.mul */\n      tag_451\n        /* \"AndrewTate-testnet.sol.sol\":17632:17656  gonAmount.mul(_totalFee) */\n      jump\t// in\n        /* \"AndrewTate-testnet.sol.sol\":17632:17676  gonAmount.mul(_totalFee).div(feeDenominator) */\n    tag_600:\n        /* \"AndrewTate-testnet.sol.sol\":17740:17744  this */\n      address\n        /* \"AndrewTate-testnet.sol.sol\":17719:17746  _gonBalances[address(this)] */\n      0x00\n      swap1\n      dup2\n      mstore\n        /* \"AndrewTate-testnet.sol.sol\":17719:17731  _gonBalances */\n      0x1a\n        /* \"AndrewTate-testnet.sol.sol\":17719:17746  _gonBalances[address(this)] */\n      0x20\n      mstore\n      0x40\n      swap1\n      keccak256\n      sload\n        /* \"AndrewTate-testnet.sol.sol\":17612:17676  uint256 feeAmount = gonAmount.mul(_totalFee).div(feeDenominator) */\n      swap1\n      swap2\n      pop\n        /* \"AndrewTate-testnet.sol.sol\":17719:17785  _gonBalances[address(this)].add(\r... */\n      tag_602\n      swap1\n        /* \"AndrewTate-testnet.sol.sol\":17612:17676  uint256 feeAmount = gonAmount.mul(_totalFee).div(feeDenominator) */\n      dup3\n        /* \"AndrewTate-testnet.sol.sol\":17719:17750  _gonBalances[address(this)].add */\n      tag_281\n        /* \"AndrewTate-testnet.sol.sol\":17719:17785  _gonBalances[address(this)].add(\r... */\n      jump\t// in\n    tag_602:\n        /* \"AndrewTate-testnet.sol.sol\":17710:17714  this */\n      address\n        /* \"AndrewTate-testnet.sol.sol\":17689:17716  _gonBalances[address(this)] */\n      0x00\n      dup2\n      dup2\n      mstore\n        /* \"AndrewTate-testnet.sol.sol\":17689:17701  _gonBalances */\n      0x1a\n        /* \"AndrewTate-testnet.sol.sol\":17689:17716  _gonBalances[address(this)] */\n      0x20\n      mstore\n      0x40\n      swap1\n      keccak256\n        /* \"AndrewTate-testnet.sol.sol\":17689:17785  _gonBalances[address(this)] = _gonBalances[address(this)].add(\r... */\n      swap2\n      swap1\n      swap2\n      sstore\n        /* \"AndrewTate-testnet.sol.sol\":17847:17863  _gonsPerFragment */\n      sload(0x19)\n      sub(shl(0xa0, 0x01), 0x01)\n        /* \"AndrewTate-testnet.sol.sol\":17801:17865  Transfer(sender, address(this), feeAmount.div(_gonsPerFragment)) */\n      dup9\n      and\n      swap1\n      0xddf252ad1be2c89b69c2b068fc378daa952ba7f163c4a11628f55a4df523b3ef\n      swap1\n        /* \"AndrewTate-testnet.sol.sol\":17833:17864  feeAmount.div(_gonsPerFragment) */\n      tag_603\n      swap1\n        /* \"AndrewTate-testnet.sol.sol\":17833:17842  feeAmount */\n      dup6\n      swap1\n        /* \"AndrewTate-testnet.sol.sol\":17833:17846  feeAmount.div */\n      tag_282\n        /* \"AndrewTate-testnet.sol.sol\":17833:17864  feeAmount.div(_gonsPerFragment) */\n      jump\t// in\n    tag_603:\n        /* \"AndrewTate-testnet.sol.sol\":17801:17865  Transfer(sender, address(this), feeAmount.div(_gonsPerFragment)) */\n      0x40\n      dup1\n      mload\n      swap2\n      dup3\n      mstore\n      mload\n      swap1\n      dup2\n      swap1\n      sub\n      0x20\n      add\n      swap1\n      log3\n        /* \"AndrewTate-testnet.sol.sol\":17885:17909  gonAmount.sub(feeAmount) */\n      tag_604\n        /* \"AndrewTate-testnet.sol.sol\":17885:17894  gonAmount */\n      dup5\n        /* \"AndrewTate-testnet.sol.sol\":17899:17908  feeAmount */\n      dup3\n        /* \"AndrewTate-testnet.sol.sol\":17885:17898  gonAmount.sub */\n      tag_322\n        /* \"AndrewTate-testnet.sol.sol\":17885:17909  gonAmount.sub(feeAmount) */\n      jump\t// in\n    tag_604:\n        /* \"AndrewTate-testnet.sol.sol\":17878:17909  return gonAmount.sub(feeAmount) */\n      swap7\n        /* \"AndrewTate-testnet.sol.sol\":17372:17917  function takeFee(address sender, address recipient, uint256 gonAmount)\r... */\n      swap6\n      pop\n      pop\n      pop\n      pop\n      pop\n      pop\n      jump\t// out\n        /* \"AndrewTate-testnet.sol.sol\":3708:3891  function remove(Role storage role, address account) internal {\r... */\n    tag_523:\n        /* \"AndrewTate-testnet.sol.sol\":3788:3806  has(role, account) */\n      tag_606\n        /* \"AndrewTate-testnet.sol.sol\":3792:3796  role */\n      dup3\n        /* \"AndrewTate-testnet.sol.sol\":3798:3805  account */\n      dup3\n        /* \"AndrewTate-testnet.sol.sol\":3788:3791  has */\n      tag_443\n        /* \"AndrewTate-testnet.sol.sol\":3788:3806  has(role, account) */\n      jump\t// in\n    tag_606:\n        /* \"AndrewTate-testnet.sol.sol\":3780:3844  require(has(role, account), \"Roles: account does not have role\") */\n      tag_607\n      jumpi\n      mload(0x40)\n      shl(0xe5, 0x461bcd)\n      dup2\n      mstore\n      0x04\n      add\n      dup1\n      dup1\n      0x20\n      add\n      dup3\n      dup2\n      sub\n      dup3\n      mstore\n      0x21\n      dup2\n      mstore\n      0x20\n      add\n      dup1\n      data_7bd893145ac435f339bb7c288622d270324b7033b011f693aca172f5cbc3c257\n      0x21\n      swap2\n      codecopy\n      0x40\n      add\n      swap2\n      pop\n      pop\n      mload(0x40)\n      dup1\n      swap2\n      sub\n      swap1\n      revert\n    tag_607:\n      sub(shl(0xa0, 0x01), 0x01)\n        /* \"AndrewTate-testnet.sol.sol\":3855:3875  role.bearer[account] */\n      and\n        /* \"AndrewTate-testnet.sol.sol\":3878:3883  false */\n      0x00\n        /* \"AndrewTate-testnet.sol.sol\":3855:3875  role.bearer[account] */\n      swap1\n      dup2\n      mstore\n      0x20\n      swap2\n      swap1\n      swap2\n      mstore\n      0x40\n      swap1\n      keccak256\n        /* \"AndrewTate-testnet.sol.sol\":3855:3883  role.bearer[account] = false */\n      dup1\n      sload\n      not(0xff)\n      and\n      swap1\n      sstore\n        /* \"AndrewTate-testnet.sol.sol\":3708:3891  function remove(Role storage role, address account) internal {\r... */\n      jump\t// out\n    stop\n    data_79ecb50133735b20228dea9d08fe36a462bbc1350f591a146908848db91104cd 4d696e746572526f6c653a2063616c6c657220646f6573206e6f74206861766520746865204d696e74657220726f6c65\n    data_7bd893145ac435f339bb7c288622d270324b7033b011f693aca172f5cbc3c257 526f6c65733a206163636f756e7420646f6573206e6f74206861766520726f6c65\n    data_9113bb53c2876a3805b2c9242029423fc540a728243ce887ab24c82cf119fba3 536166654d6174683a206d756c7469706c69636174696f6e206f766572666c6f77\n    data_9d214fa89563f4e6456a3929327e54500ea1cde2c0ba9fb2035ec106190d682f 526f6c65733a206163636f756e7420697320746865207a65726f2061646472657373\n\n    auxdata: 0xa2646970667358221220baa1c6c1681b846fe2fa110a4564947a67973ddf4695e023bfa53eb30ae007e664736f6c63430007040033\n}\n",
				"bytecode": {
					"linkReferences": {},
					"object": "60806040526005600755600360085560056009556005600a55620000516009546200003d6008546007546200049060201b62001b8f1790919060201c565b6200049060201b62001b8f1790919060201c565b600b556064600c819055600d80546001600160a01b031990811661dead17909155600e8054909116905560326012556013556015805460ff60a01b1916600160a01b1790556127106b1239a002a3db32d57fffffff1904601655348015620000b857600080fd5b50604080518082018252601081526f20b7323932bbaa30ba32902a37b5b2b760811b602080830191825283518085019094526004845263544f504760e01b9084015281519192916012916200011191600091906200079d565b508151620001279060019060208501906200079d565b5060028054336101008102610100600160a81b031960ff90951660ff1990931692909217939093161790556200016092509050620004f2565b601480546001600160a01b03191673ceeb22faf32ff4ead24565225503807e41e5fe8717908190556040805163c45a015560e01b815290516001600160a01b03929092169163c45a015591600480820192602092909190829003018186803b158015620001cc57600080fd5b505afa158015620001e1573d6000803e3d6000fd5b505050506040513d6020811015620001f857600080fd5b5051601454604080516315ab88c960e31b815290516001600160a01b039384169363c9c6539693169163ad5c4648916004808301926020929190829003018186803b1580156200024757600080fd5b505afa1580156200025c573d6000803e3d6000fd5b505050506040513d60208110156200027357600080fd5b5051604080516001600160e01b031960e085901b1681526001600160a01b0390921660048301523060248301525160448083019260209291908290030181600087803b158015620002c357600080fd5b505af1158015620002d8573d6000803e3d6000fd5b505050506040513d6020811015620002ef57600080fd5b5051601580546001600160a01b039283166001600160a01b0319918216178255600f80548216732c604d9e15e6524f0bb2a2a22f63a7ca041e84c317905560108054821673cc5e043c5142033a800a72286356317dacb57a7717815560118054831673833123d7af220758a5484887ac582d4d39e9ede0179055306000908152601b602090815260408083206014548816845282528083206000199055945460048054909516908716179093556b0cecb8f27f4200f3a0000000601890815591549094168452601a8252919092206b01d290004395eb7bbfffffff19908190559054620003e59262000544811b62001be917901c565b6019556004805460ff60a01b19169055601080546001600160a01b03908116600090815260066020526040808220805460ff199081166001908117909255308452919092208054909116909117905590546200044291166200058e565b60105460185460408051918252516001600160a01b03909216916000917fddf252ad1be2c89b69c2b068fc378daa952ba7f163c4a11628f55a4df523b3ef919081900360200190a362000849565b600082820183811015620004eb576040805162461bcd60e51b815260206004820152601b60248201527f536166654d6174683a206164646974696f6e206f766572666c6f770000000000604482015290519081900360640190fd5b9392505050565b6200050d8160036200060960201b62001c2b1790919060201c565b6040516001600160a01b038216907f6ae172837ea30b801fbfcdd4108aa1d5bf8ff775444fd70256b44e6bf3dfc3f690600090a250565b6000620004eb83836040518060400160405280601a81526020017f536166654d6174683a206469766973696f6e206279207a65726f0000000000008152506200068d60201b60201c565b6001600160a01b038116620005a257600080fd5b6002546040516001600160a01b0380841692610100900416907f8be0079c531659141344cd1fd0a4f28419497f9722a3daafe3b4186f6b6457e090600090a3600280546001600160a01b0390921661010002610100600160a81b0319909216919091179055565b62000615828262000734565b1562000668576040805162461bcd60e51b815260206004820152601f60248201527f526f6c65733a206163636f756e7420616c72656164792068617320726f6c6500604482015290519081900360640190fd5b6001600160a01b0316600090815260209190915260409020805460ff19166001179055565b600081836200071d5760405162461bcd60e51b81526004018080602001828103825283818151815260200191508051906020019080838360005b83811015620006e1578181015183820152602001620006c7565b50505050905090810190601f1680156200070f5780820380516001836020036101000a031916815260200191505b509250505060405180910390fd5b5060008385816200072a57fe5b0495945050505050565b60006001600160a01b0382166200077d5760405162461bcd60e51b8152600401808060200182810382526022815260200180620031176022913960400191505060405180910390fd5b506001600160a01b03166000908152602091909152604090205460ff1690565b828054600181600116156101000203166002900490600052602060002090601f016020900481019282620007d5576000855562000820565b82601f10620007f057805160ff191683800117855562000820565b8280016001018555821562000820579182015b828111156200082057825182559160200191906001019062000803565b506200082e92915062000832565b5090565b5b808211156200082e576000815560010162000833565b6128be80620008596000396000f3fe6080604052600436106103545760003560e01c80637a43e23f116101c6578063bda5c8bb116100f7578063d5938aac11610095578063dd62ed3e1161006f578063dd62ed3e14610c3e578063f2fde38b14610c79578063f887ea4014610cac578063f9f92be414610cc15761035b565b8063d5938aac14610bb1578063d7ac658514610be4578063d7c0103214610bf95761035b565b8063d1fce264116100d1578063d1fce26414610a70578063d37e219d14610a85578063d439979014610b54578063d51ed1c814610b875761035b565b8063bda5c8bb14610a0e578063ca33e64c14610a23578063d088935814610a385761035b565b806398118cb411610164578063a457c2d71161013e578063a457c2d714610954578063a8aa1b311461098d578063a9059cbb146109a2578063aa271e1a146109db5761035b565b806398118cb4146108f7578063983b2d561461090c578063986502751461093f5761035b565b80638da5cb5b116101a05780638da5cb5b1461087d5780638f32d59b146108925780639155e083146108a757806395d89b41146108e25761035b565b80637a43e23f14610823578063800cee511461085357806383b4ac68146108685761035b565b80633092afd5116102a057806356a227f21161023e57806370a082311161021857806370a0823114610793578063715018a6146107c6578063749796a5146107db578063753d02a11461080e5761035b565b806356a227f2146107305780636d351d1a146107695780636ddd17131461077e5761035b565b8063395093511161027a578063395093511461067857806340c10f19146106b15780634d709adf146106ea578063563df32f1461071b5761035b565b80633092afd5146105e1578063313ce5671461061457806333f3d6281461063f5761035b565b80631df4ccfc1161030d5780632b112e49116102e75780632b112e491461056f5780632b14ca56146105845780632be6937d146105995780632f34d282146105ae5761035b565b80631df4ccfc146104e7578063201e7991146104fc57806323b872dd1461052c5761035b565b806304a66b481461036057806306fdde03146103a4578063095ea7b31461042e5780631161ae391461047b578063180b0d7e146104ab57806318160ddd146104d25761035b565b3661035b57005b600080fd5b34801561036c57600080fd5b506103a2600480360360a081101561038357600080fd5b5080359060208101359060408101359060608101359060800135610cf4565b005b3480156103b057600080fd5b506103b9610d4d565b6040805160208082528351818301528351919283929083019185019080838360005b838110156103f35781810151838201526020016103db565b50505050905090810190601f1680156104205780820380516001836020036101000a031916815260200191505b509250505060405180910390f35b34801561043a57600080fd5b506104676004803603604081101561045157600080fd5b506001600160a01b038135169060200135610de3565b604080519115158252519081900360200190f35b34801561048757600080fd5b506104676004803603604081101561049e57600080fd5b5080359060200135610e8c565b3480156104b757600080fd5b506104c0610ea0565b60408051918252519081900360200190f35b3480156104de57600080fd5b506104c0610ea6565b3480156104f357600080fd5b506104c0610eac565b34801561050857600080fd5b506103a26004803603604081101561051f57600080fd5b5080359060200135610eb2565b34801561053857600080fd5b506104676004803603606081101561054f57600080fd5b506001600160a01b03813581169160208101359091169060400135610ece565b34801561057b57600080fd5b506104c0610fa8565b34801561059057600080fd5b506104c061100a565b3480156105a557600080fd5b506103a2611010565b3480156105ba57600080fd5b506103a2600480360360208110156105d157600080fd5b50356001600160a01b0316611036565b3480156105ed57600080fd5b506103a26004803603602081101561060457600080fd5b50356001600160a01b0316611070565b34801561062057600080fd5b5061062961108d565b6040805160ff9092168252519081900360200190f35b34801561064b57600080fd5b506104676004803603604081101561066257600080fd5b506001600160a01b038135169060200135611096565b34801561068457600080fd5b506104676004803603604081101561069b57600080fd5b506001600160a01b03813516906020013561112b565b3480156106bd57600080fd5b506103a2600480360360408110156106d457600080fd5b506001600160a01b0381351690602001356111ff565b3480156106f657600080fd5b506106ff611333565b604080516001600160a01b039092168252519081900360200190f35b34801561072757600080fd5b506104c0611342565b34801561073c57600080fd5b506103a26004803603604081101561075357600080fd5b50803590602001356001600160a01b0316611348565b34801561077557600080fd5b506104c061139b565b34801561078a57600080fd5b506104676113b4565b34801561079f57600080fd5b506104c0600480360360208110156107b657600080fd5b50356001600160a01b03166113c4565b3480156107d257600080fd5b506103a26113ec565b3480156107e757600080fd5b506103a2600480360360208110156107fe57600080fd5b50356001600160a01b031661144c565b34801561081a57600080fd5b506103a2611481565b34801561082f57600080fd5b506104c06004803603604081101561084657600080fd5b50803590602001356114e5565b34801561085f57600080fd5b506106ff611691565b34801561087457600080fd5b506104676116a0565b34801561088957600080fd5b506106ff6116aa565b34801561089e57600080fd5b506104676116be565b3480156108b357600080fd5b506103a2600480360360408110156108ca57600080fd5b506001600160a01b03813516906020013515156116d4565b3480156108ee57600080fd5b506103b9611710565b34801561090357600080fd5b506104c0611770565b34801561091857600080fd5b506103a26004803603602081101561092f57600080fd5b50356001600160a01b0316611776565b34801561094b57600080fd5b506103a2611790565b34801561096057600080fd5b506104676004803603604081101561097757600080fd5b506001600160a01b03813516906020013561179b565b34801561099957600080fd5b506106ff6118c5565b3480156109ae57600080fd5b50610467600480360360408110156109c557600080fd5b506001600160a01b0381351690602001356118d4565b3480156109e757600080fd5b50610467600480360360208110156109fe57600080fd5b50356001600160a01b031661193e565b348015610a1a57600080fd5b506104c061194b565b348015610a2f57600080fd5b506106ff611951565b348015610a4457600080fd5b506103a260048036036060811015610a5b57600080fd5b50803515159060208101359060400135611960565b348015610a7c57600080fd5b506104676119b3565b348015610a9157600080fd5b506103a260048036036040811015610aa857600080fd5b810190602081018135640100000000811115610ac357600080fd5b820183602082011115610ad557600080fd5b80359060200191846020830284011164010000000083111715610af757600080fd5b919390929091602081019035640100000000811115610b1557600080fd5b820183602082011115610b2757600080fd5b80359060200191846020830284011164010000000083111715610b4957600080fd5b5090925090506119c3565b348015610b6057600080fd5b5061046760048036036020811015610b7757600080fd5b50356001600160a01b0316611a20565b348015610b9357600080fd5b506104c060048036036020811015610baa57600080fd5b5035611a3e565b348015610bbd57600080fd5b506103a260048036036020811015610bd457600080fd5b50356001600160a01b0316611a92565b348015610bf057600080fd5b506106ff611ac7565b348015610c0557600080fd5b506103a260048036036060811015610c1c57600080fd5b506001600160a01b038135811691602081013582169160409091013516611ad6565b348015610c4a57600080fd5b506104c060048036036040811015610c6157600080fd5b506001600160a01b0381358116916020013516611b26565b348015610c8557600080fd5b506103a260048036036020811015610c9c57600080fd5b50356001600160a01b0316611b51565b348015610cb857600080fd5b506106ff611b6b565b348015610ccd57600080fd5b5061046760048036036020811015610ce457600080fd5b50356001600160a01b0316611b7a565b610cfc6116be565b610d0557600080fd5b600785905560098490556008839055600a829055610d2d84610d278786611b8f565b90611b8f565b600b55600c81905560048104600b5410610d4657600080fd5b5050505050565b60008054604080516020601f6002600019610100600188161502019095169490940493840181900481028201810190925282815260609390929091830182828015610dd95780601f10610dae57610100808354040283529160200191610dd9565b820191906000526020600020905b815481529060010190602001808311610dbc57829003601f168201915b5050505050905090565b600454600090600160a01b900460ff1680610e015750610e016116be565b80610e1b57503360009081526005602052604090205460ff165b610e2457600080fd5b336000818152601b602090815260408083206001600160a01b03881680855290835292819020869055805186815290519293927f8c5be1e5ebec7d5bd14f71427d1e84f3dd0314c0f7b2291e5b200ac8c7c3b925929181900390910190a35060015b92915050565b600082610e9883611a3e565b119392505050565b600c5481565b60185490565b600b5481565b610eba6116be565b610ec357600080fd5b601291909155601355565b6000826001600160a01b038116610ee457600080fd5b6001600160a01b0385166000908152601b6020908152604080832033845290915290205460001914610f91576040805180820182526016815275496e73756666696369656e7420416c6c6f77616e636560501b6020808301919091526001600160a01b0388166000908152601b82528381203382529091529190912054610f6c918590611cac565b6001600160a01b0386166000908152601b602090815260408083203384529091529020555b610f9c858585611d43565b50600195945050505050565b601954600e546001600160a01b039081166000908152601a602052604080822054600d5490931682528120549092611005929091610fff9190610ff9906b01d290004395eb7bbfffffff1990611f02565b90611f02565b90611be9565b905090565b600a5481565b6110186116be565b61102157600080fd5b6004805460ff60a01b1916600160a01b179055565b61103e6116be565b61104757600080fd5b600480546001600160a01b039092166001600160a01b0319909216821790556000526006602052565b6110786116be565b61108157600080fd5b61108a81611f44565b50565b60025460ff1690565b60006110a06116be565b6110a957600080fd5b6040805163a9059cbb60e01b81523360048201526024810184905290516001600160a01b0385169163a9059cbb9160448083019260209291908290030181600087803b1580156110f857600080fd5b505af115801561110c573d6000803e3d6000fd5b505050506040513d602081101561112257600080fd5b50519392505050565b600454600090600160a01b900460ff168061114957506111496116be565b8061116357503360009081526005602052604090205460ff165b61116c57600080fd5b336000908152601b602090815260408083206001600160a01b038716845290915290205461119a9083611b8f565b336000818152601b602090815260408083206001600160a01b0389168085529083529281902085905580519485525191937f8c5be1e5ebec7d5bd14f71427d1e84f3dd0314c0f7b2291e5b200ac8c7c3b925929081900390910190a350600192915050565b6112083361193e565b6112435760405162461bcd60e51b81526004018080602001828103825260308152602001806127f56030913960400191505060405180910390fd5b6018546112509082611b8f565b60188190556001600160801b03101561126f576001600160801b036018555b60185461128f906b0cecb8f27f4200f3a00000006000195b061990611be9565b601955600480546040805160016209351760e01b0319815290516001600160a01b039092169263fff6cae992828201926000929082900301818387803b1580156112d857600080fd5b505af11580156112ec573d6000803e3d6000fd5b5050506001600160a01b0383166000908152601a6020526040902054611313915082611b8f565b6001600160a01b039092166000908152601a602052604090209190915550565b6004546001600160a01b031681565b60085481565b6113506116be565b61135957600080fd5b60405147906001600160a01b0383169060648584020480156108fc02916000818181858888f19350505050158015611395573d6000803e3d6000fd5b50505050565b6000611005601954601654611be990919063ffffffff16565b601554600160a01b900460ff1681565b6019546001600160a01b0382166000908152601a60205260408120549091610e869190611be9565b6113f46116be565b6113fd57600080fd5b6002546040516101009091046001600160a01b0316907ff8df31144d9c2f0f6b59d69b8b98abd5459d07f2742c4df920b25aae33c6482090600090a260028054610100600160a81b0319169055565b6114546116be565b61145d57600080fd5b6001600160a01b03166000908152600660205260409020805460ff19166001179055565b601560009054906101000a90046001600160a01b03166001600160a01b031663fff6cae96040518163ffffffff1660e01b8152600401600060405180830381600087803b1580156114d157600080fd5b505af1158015611395573d6000803e3d6000fd5b60006114ef6116be565b6114f857600080fd5b60175460ff161561153c576040805162461bcd60e51b81526020600482015260096024820152682a393c9030b3b0b4b760b91b604482015290519081900360640190fd5b8161158257601854604080519182525184917f72725a3b1e5bd622d6bcd1339bb31279c351abe8f541ac7fd320f24e1b1641f2919081900360200190a250601854610e86565b60008212156115a45760185461159c906000849003611f02565b6018556115b5565b6018546115b19083611b8f565b6018555b6018546001600160801b0310156115d2576001600160801b036018555b6018546115ee906b0cecb8f27f4200f3a0000000600019611287565b601955600480546040805160016209351760e01b0319815290516001600160a01b039092169263fff6cae992828201926000929082900301818387803b15801561163757600080fd5b505af115801561164b573d6000803e3d6000fd5b505060185460408051918252518693507f72725a3b1e5bd622d6bcd1339bb31279c351abe8f541ac7fd320f24e1b1641f292509081900360200190a25060185492915050565b6010546001600160a01b031681565b60175460ff161590565b60025461010090046001600160a01b031690565b60025461010090046001600160a01b0316331490565b6116dc6116be565b6116e557600080fd5b6001600160a01b03919091166000908152601c60205260409020805460ff1916911515919091179055565b60018054604080516020601f60026000196101008789161502019095169490940493840181900481028201810190925282815260609390929091830182828015610dd95780601f10610dae57610100808354040283529160200191610dd9565b60075481565b61177e6116be565b61178757600080fd5b61108a81611f86565b61179933611f44565b565b600454600090600160a01b900460ff16806117b957506117b96116be565b806117d357503360009081526005602052604090205460ff165b6117dc57600080fd5b336000908152601b602090815260408083206001600160a01b038716845290915290205480831061183057336000908152601b602090815260408083206001600160a01b038816845290915281205561185f565b61183a8184611f02565b336000908152601b602090815260408083206001600160a01b03891684529091529020555b336000818152601b602090815260408083206001600160a01b0389168085529083529281902054815190815290519293927f8c5be1e5ebec7d5bd14f71427d1e84f3dd0314c0f7b2291e5b200ac8c7c3b925929181900390910190a35060019392505050565b6015546001600160a01b031681565b6000826001600160a01b0381166118ea57600080fd5b600454600160a01b900460ff168061190557506119056116be565b8061191f57503360009081526005602052604090205460ff165b61192857600080fd5b611933338585611d43565b506001949350505050565b6000610e86600383611fc8565b60095481565b600f546001600160a01b031681565b6119686116be565b61197157600080fd5b6015805460ff60a01b1916600160a01b851515021790556119ab826119a5836b0cecb8f27f4200f3a0000000600019611287565b9061202f565b601655505050565b600454600160a01b900460ff1681565b6119cb6116be565b6119d457600080fd5b60005b83811015610d4657611a17338686848181106119ef57fe5b905060200201356001600160a01b0316858585818110611a0b57fe5b90506020020135611d43565b506001016119d7565b6001600160a01b031660009081526006602052604090205460ff1690565b6019546015546001600160a01b03166000908152601a602052604081205490918291611a6991611be9565b9050611a8b611a76610fa8565b610fff611a8484600261202f565b869061202f565b9392505050565b611a9a6116be565b611aa357600080fd5b6001600160a01b03166000908152600560205260409020805460ff19166001179055565b6011546001600160a01b031681565b611ade6116be565b611ae757600080fd5b600f80546001600160a01b039485166001600160a01b031991821617909155601080549385169382169390931790925560118054919093169116179055565b6001600160a01b039182166000908152601b6020908152604080832093909416825291909152205490565b611b596116be565b611b6257600080fd5b61108a81612088565b6014546001600160a01b031681565b601c6020526000908152604090205460ff1681565b600082820183811015611a8b576040805162461bcd60e51b815260206004820152601b60248201527f536166654d6174683a206164646974696f6e206f766572666c6f770000000000604482015290519081900360640190fd5b6000611a8b83836040518060400160405280601a81526020017f536166654d6174683a206469766973696f6e206279207a65726f000000000000815250612102565b611c358282611fc8565b15611c87576040805162461bcd60e51b815260206004820152601f60248201527f526f6c65733a206163636f756e7420616c72656164792068617320726f6c6500604482015290519081900360640190fd5b6001600160a01b0316600090815260209190915260409020805460ff19166001179055565b60008184841115611d3b5760405162461bcd60e51b81526004018080602001828103825283818151815260200191508051906020019080838360005b83811015611d00578181015183820152602001611ce8565b50505050905090810190601f168015611d2d5780820380516001836020036101000a031916815260200191505b509250505060405180910390fd5b505050900390565b6001600160a01b0383166000908152601c602052604081205460ff16158015611d8557506001600160a01b0383166000908152601c602052604090205460ff16155b611dc5576040805162461bcd60e51b815260206004820152600c60248201526b1a5b97d89b1858dadb1a5cdd60a21b604482015290519081900360640190fd5b60175460ff1615611de257611ddb848484612167565b9050611a8b565b6000611df96019548461202f90919063ffffffff16565b9050611e036121f9565b15611e1057611e1061224f565b6001600160a01b0385166000908152601a6020526040902054611e339082611f02565b6001600160a01b0386166000908152601a6020526040812091909155611e598686612667565b611e635781611e6e565b611e6e8686846126bb565b6001600160a01b0386166000908152601a6020526040902054909150611e949082611b8f565b6001600160a01b038087166000818152601a6020526040902092909255601954908816907fddf252ad1be2c89b69c2b068fc378daa952ba7f163c4a11628f55a4df523b3ef90611ee5908590611be9565b60408051918252519081900360200190a350600195945050505050565b6000611a8b83836040518060400160405280601e81526020017f536166654d6174683a207375627472616374696f6e206f766572666c6f770000815250611cac565b611f4f60038261278d565b6040516001600160a01b038216907fe94479a9f7e1952cc78f2d6baab678adc1b772d936c6583def489e524cb6669290600090a250565b611f91600382611c2b565b6040516001600160a01b038216907f6ae172837ea30b801fbfcdd4108aa1d5bf8ff775444fd70256b44e6bf3dfc3f690600090a250565b60006001600160a01b03821661200f5760405162461bcd60e51b81526004018080602001828103825260228152602001806128676022913960400191505060405180910390fd5b506001600160a01b03166000908152602091909152604090205460ff1690565b60008261203e57506000610e86565b8282028284828161204b57fe5b0414611a8b5760405162461bcd60e51b81526004018080602001828103825260218152602001806128466021913960400191505060405180910390fd5b6001600160a01b03811661209b57600080fd5b6002546040516001600160a01b0380841692610100900416907f8be0079c531659141344cd1fd0a4f28419497f9722a3daafe3b4186f6b6457e090600090a3600280546001600160a01b0390921661010002610100600160a81b0319909216919091179055565b600081836121515760405162461bcd60e51b8152602060048201818152835160248401528351909283926044909101919085019080838360008315611d00578181015183820152602001611ce8565b50600083858161215d57fe5b0495945050505050565b60008061217f6019548461202f90919063ffffffff16565b6001600160a01b0386166000908152601a60205260409020549091506121a59082611f02565b6001600160a01b038087166000908152601a602052604080822093909355908616815220546121d49082611b8f565b6001600160a01b0385166000908152601a602052604090205550600190509392505050565b6015546000906001600160a01b0316331480159061221a575060175460ff16155b801561222f5750601554600160a01b900460ff165b8015611005575050601654306000908152601a6020526040902054101590565b6017805460ff1916600117905560125460135460009161226e91610e8c565b61227a5760075461227d565b60005b601954306000908152601a60205260408120549293509161229d91611be9565b905060006122bf6002610fff600b54610fff878761202f90919063ffffffff16565b905060006122cd8383611f02565b60408051600280825260608083018452939450909160208301908036833701905050905030816000815181106122ff57fe5b6001600160a01b03928316602091820292909201810191909152601454604080516315ab88c960e31b81529051919093169263ad5c4648926004808301939192829003018186803b15801561235357600080fd5b505afa158015612367573d6000803e3d6000fd5b505050506040513d602081101561237d57600080fd5b505181518290600190811061238e57fe5b6001600160a01b0392831660209182029290920181019190915260145460405163791ac94760e01b8152600481018681526000602483018190523060648401819052426084850181905260a060448601908152895160a487015289514799979097169763791ac947978c9795968c9690939260c49091019187820191028083838b5b83811015612428578181015183820152602001612410565b505050509050019650505050505050600060405180830381600087803b15801561245157600080fd5b505af1158015612465573d6000803e3d6000fd5b50505050600061247e8247611f0290919063ffffffff16565b90506000612499612490896002611be9565b600b5490611f02565b905060006124ae6002610fff8481878e61202f565b905060006124cb83610fff6009548761202f90919063ffffffff16565b905060006124e884610fff6008548861202f90919063ffffffff16565b6010546040519192506000916001600160a01b039091169061753090849084818181858888f193505050503d806000811461253f576040519150601f19603f3d011682016040523d82523d6000602084013e612544565b606091505b50506011546040519192506001600160a01b0316906175309085906000818181858888f193505050503d8060008114612599576040519150601f19603f3d011682016040523d82523d6000602084013e61259e565b606091505b5060009250508a15905061264f57601454600f546040805163f305d71960e01b8152306004820152602481018e905260006044820181905260648201526001600160a01b0392831660848201524260a48201529051919092169163f305d71991879160c48082019260609290919082900301818588803b15801561262157600080fd5b505af1158015612635573d6000803e3d6000fd5b50505050506040513d606081101561264c57600080fd5b50505b50506017805460ff1916905550505050505050505050565b6015546000906001600160a01b038481169116148061269357506015546001600160a01b038381169116145b8015611a8b575050506001600160a01b031660009081526006602052604090205460ff161590565b600b54601554600091906001600160a01b03858116911614156126e957600a546126e6908290611b8f565b90505b600c546000906126fd90610fff868561202f565b306000908152601a602052604090205490915061271a9082611b8f565b306000818152601a60205260409020919091556019546001600160a01b038816907fddf252ad1be2c89b69c2b068fc378daa952ba7f163c4a11628f55a4df523b3ef90612768908590611be9565b60408051918252519081900360200190a36127838482611f02565b9695505050505050565b6127978282611fc8565b6127d25760405162461bcd60e51b81526004018080602001828103825260218152602001806128256021913960400191505060405180910390fd5b6001600160a01b0316600090815260209190915260409020805460ff1916905556fe4d696e746572526f6c653a2063616c6c657220646f6573206e6f74206861766520746865204d696e74657220726f6c65526f6c65733a206163636f756e7420646f6573206e6f74206861766520726f6c65536166654d6174683a206d756c7469706c69636174696f6e206f766572666c6f77526f6c65733a206163636f756e7420697320746865207a65726f2061646472657373a2646970667358221220baa1c6c1681b846fe2fa110a4564947a67973ddf4695e023bfa53eb30ae007e664736f6c63430007040033526f6c65733a206163636f756e7420697320746865207a65726f2061646472657373",
					"opcodes": "PUSH1 0x80 PUSH1 0x40 MSTORE PUSH1 0x5 PUSH1 0x7 SSTORE PUSH1 0x3 PUSH1 0x8 SSTORE PUSH1 0x5 PUSH1 0x9 SSTORE PUSH1 0x5 PUSH1 0xA SSTORE PUSH3 0x51 PUSH1 0x9 SLOAD PUSH3 0x3D PUSH1 0x8 SLOAD PUSH1 0x7 SLOAD PUSH3 0x490 PUSH1 0x20 SHL PUSH3 0x1B8F OR SWAP1 SWAP2 SWAP1 PUSH1 0x20 SHR JUMP JUMPDEST PUSH3 0x490 PUSH1 0x20 SHL PUSH3 0x1B8F OR SWAP1 SWAP2 SWAP1 PUSH1 0x20 SHR JUMP JUMPDEST PUSH1 0xB SSTORE PUSH1 0x64 PUSH1 0xC DUP2 SWAP1 SSTORE PUSH1 0xD DUP1 SLOAD PUSH1 0x1 PUSH1 0x1 PUSH1 0xA0 SHL SUB NOT SWAP1 DUP2 AND PUSH2 0xDEAD OR SWAP1 SWAP2 SSTORE PUSH1 0xE DUP1 SLOAD SWAP1 SWAP2 AND SWAP1 SSTORE PUSH1 0x32 PUSH1 0x12 SSTORE PUSH1 0x13 SSTORE PUSH1 0x15 DUP1 SLOAD PUSH1 0xFF PUSH1 0xA0 SHL NOT AND PUSH1 0x1 PUSH1 0xA0 SHL OR SWAP1 SSTORE PUSH2 0x2710 PUSH12 0x1239A002A3DB32D57FFFFFFF NOT DIV PUSH1 0x16 SSTORE CALLVALUE DUP1 ISZERO PUSH3 0xB8 JUMPI PUSH1 0x0 DUP1 REVERT JUMPDEST POP PUSH1 0x40 DUP1 MLOAD DUP1 DUP3 ADD DUP3 MSTORE PUSH1 0x10 DUP2 MSTORE PUSH16 0x20B7323932BBAA30BA32902A37B5B2B7 PUSH1 0x81 SHL PUSH1 0x20 DUP1 DUP4 ADD SWAP2 DUP3 MSTORE DUP4 MLOAD DUP1 DUP6 ADD SWAP1 SWAP5 MSTORE PUSH1 0x4 DUP5 MSTORE PUSH4 0x544F5047 PUSH1 0xE0 SHL SWAP1 DUP5 ADD MSTORE DUP2 MLOAD SWAP2 SWAP3 SWAP2 PUSH1 0x12 SWAP2 PUSH3 0x111 SWAP2 PUSH1 0x0 SWAP2 SWAP1 PUSH3 0x79D JUMP JUMPDEST POP DUP2 MLOAD PUSH3 0x127 SWAP1 PUSH1 0x1 SWAP1 PUSH1 0x20 DUP6 ADD SWAP1 PUSH3 0x79D JUMP JUMPDEST POP PUSH1 0x2 DUP1 SLOAD CALLER PUSH2 0x100 DUP2 MUL PUSH2 0x100 PUSH1 0x1 PUSH1 0xA8 SHL SUB NOT PUSH1 0xFF SWAP1 SWAP6 AND PUSH1 0xFF NOT SWAP1 SWAP4 AND SWAP3 SWAP1 SWAP3 OR SWAP4 SWAP1 SWAP4 AND OR SWAP1 SSTORE PUSH3 0x160 SWAP3 POP SWAP1 POP PUSH3 0x4F2 JUMP JUMPDEST PUSH1 0x14 DUP1 SLOAD PUSH1 0x1 PUSH1 0x1 PUSH1 0xA0 SHL SUB NOT AND PUSH20 0xCEEB22FAF32FF4EAD24565225503807E41E5FE87 OR SWAP1 DUP2 SWAP1 SSTORE PUSH1 0x40 DUP1 MLOAD PUSH4 0xC45A0155 PUSH1 0xE0 SHL DUP2 MSTORE SWAP1 MLOAD PUSH1 0x1 PUSH1 0x1 PUSH1 0xA0 SHL SUB SWAP3 SWAP1 SWAP3 AND SWAP2 PUSH4 0xC45A0155 SWAP2 PUSH1 0x4 DUP1 DUP3 ADD SWAP3 PUSH1 0x20 SWAP3 SWAP1 SWAP2 SWAP1 DUP3 SWAP1 SUB ADD DUP2 DUP7 DUP1 EXTCODESIZE ISZERO DUP1 ISZERO PUSH3 0x1CC JUMPI PUSH1 0x0 DUP1 REVERT JUMPDEST POP GAS STATICCALL ISZERO DUP1 ISZERO PUSH3 0x1E1 JUMPI RETURNDATASIZE PUSH1 0x0 DUP1 RETURNDATACOPY RETURNDATASIZE PUSH1 0x0 REVERT JUMPDEST POP POP POP POP PUSH1 0x40 MLOAD RETURNDATASIZE PUSH1 0x20 DUP2 LT ISZERO PUSH3 0x1F8 JUMPI PUSH1 0x0 DUP1 REVERT JUMPDEST POP MLOAD PUSH1 0x14 SLOAD PUSH1 0x40 DUP1 MLOAD PUSH4 0x15AB88C9 PUSH1 0xE3 SHL DUP2 MSTORE SWAP1 MLOAD PUSH1 0x1 PUSH1 0x1 PUSH1 0xA0 SHL SUB SWAP4 DUP5 AND SWAP4 PUSH4 0xC9C65396 SWAP4 AND SWAP2 PUSH4 0xAD5C4648 SWAP2 PUSH1 0x4 DUP1 DUP4 ADD SWAP3 PUSH1 0x20 SWAP3 SWAP2 SWAP1 DUP3 SWAP1 SUB ADD DUP2 DUP7 DUP1 EXTCODESIZE ISZERO DUP1 ISZERO PUSH3 0x247 JUMPI PUSH1 0x0 DUP1 REVERT JUMPDEST POP GAS STATICCALL ISZERO DUP1 ISZERO PUSH3 0x25C JUMPI RETURNDATASIZE PUSH1 0x0 DUP1 RETURNDATACOPY RETURNDATASIZE PUSH1 0x0 REVERT JUMPDEST POP POP POP POP PUSH1 0x40 MLOAD RETURNDATASIZE PUSH1 0x20 DUP2 LT ISZERO PUSH3 0x273 JUMPI PUSH1 0x0 DUP1 REVERT JUMPDEST POP MLOAD PUSH1 0x40 DUP1 MLOAD PUSH1 0x1 PUSH1 0x1 PUSH1 0xE0 SHL SUB NOT PUSH1 0xE0 DUP6 SWAP1 SHL AND DUP2 MSTORE PUSH1 0x1 PUSH1 0x1 PUSH1 0xA0 SHL SUB SWAP1 SWAP3 AND PUSH1 0x4 DUP4 ADD MSTORE ADDRESS PUSH1 0x24 DUP4 ADD MSTORE MLOAD PUSH1 0x44 DUP1 DUP4 ADD SWAP3 PUSH1 0x20 SWAP3 SWAP2 SWAP1 DUP3 SWAP1 SUB ADD DUP2 PUSH1 0x0 DUP8 DUP1 EXTCODESIZE ISZERO DUP1 ISZERO PUSH3 0x2C3 JUMPI PUSH1 0x0 DUP1 REVERT JUMPDEST POP GAS CALL ISZERO DUP1 ISZERO PUSH3 0x2D8 JUMPI RETURNDATASIZE PUSH1 0x0 DUP1 RETURNDATACOPY RETURNDATASIZE PUSH1 0x0 REVERT JUMPDEST POP POP POP POP PUSH1 0x40 MLOAD RETURNDATASIZE PUSH1 0x20 DUP2 LT ISZERO PUSH3 0x2EF JUMPI PUSH1 0x0 DUP1 REVERT JUMPDEST POP MLOAD PUSH1 0x15 DUP1 SLOAD PUSH1 0x1 PUSH1 0x1 PUSH1 0xA0 SHL SUB SWAP3 DUP4 AND PUSH1 0x1 PUSH1 0x1 PUSH1 0xA0 SHL SUB NOT SWAP2 DUP3 AND OR DUP3 SSTORE PUSH1 0xF DUP1 SLOAD DUP3 AND PUSH20 0x2C604D9E15E6524F0BB2A2A22F63A7CA041E84C3 OR SWAP1 SSTORE PUSH1 0x10 DUP1 SLOAD DUP3 AND PUSH20 0xCC5E043C5142033A800A72286356317DACB57A77 OR DUP2 SSTORE PUSH1 0x11 DUP1 SLOAD DUP4 AND PUSH20 0x833123D7AF220758A5484887AC582D4D39E9EDE0 OR SWAP1 SSTORE ADDRESS PUSH1 0x0 SWAP1 DUP2 MSTORE PUSH1 0x1B PUSH1 0x20 SWAP1 DUP2 MSTORE PUSH1 0x40 DUP1 DUP4 KECCAK256 PUSH1 0x14 SLOAD DUP9 AND DUP5 MSTORE DUP3 MSTORE DUP1 DUP4 KECCAK256 PUSH1 0x0 NOT SWAP1 SSTORE SWAP5 SLOAD PUSH1 0x4 DUP1 SLOAD SWAP1 SWAP6 AND SWAP1 DUP8 AND OR SWAP1 SWAP4 SSTORE PUSH12 0xCECB8F27F4200F3A0000000 PUSH1 0x18 SWAP1 DUP2 SSTORE SWAP2 SLOAD SWAP1 SWAP5 AND DUP5 MSTORE PUSH1 0x1A DUP3 MSTORE SWAP2 SWAP1 SWAP3 KECCAK256 PUSH12 0x1D290004395EB7BBFFFFFFF NOT SWAP1 DUP2 SWAP1 SSTORE SWAP1 SLOAD PUSH3 0x3E5 SWAP3 PUSH3 0x544 DUP2 SHL PUSH3 0x1BE9 OR SWAP1 SHR JUMP JUMPDEST PUSH1 0x19 SSTORE PUSH1 0x4 DUP1 SLOAD PUSH1 0xFF PUSH1 0xA0 SHL NOT AND SWAP1 SSTORE PUSH1 0x10 DUP1 SLOAD PUSH1 0x1 PUSH1 0x1 PUSH1 0xA0 SHL SUB SWAP1 DUP2 AND PUSH1 0x0 SWAP1 DUP2 MSTORE PUSH1 0x6 PUSH1 0x20 MSTORE PUSH1 0x40 DUP1 DUP3 KECCAK256 DUP1 SLOAD PUSH1 0xFF NOT SWAP1 DUP2 AND PUSH1 0x1 SWAP1 DUP2 OR SWAP1 SWAP3 SSTORE ADDRESS DUP5 MSTORE SWAP2 SWAP1 SWAP3 KECCAK256 DUP1 SLOAD SWAP1 SWAP2 AND SWAP1 SWAP2 OR SWAP1 SSTORE SWAP1 SLOAD PUSH3 0x442 SWAP2 AND PUSH3 0x58E JUMP JUMPDEST PUSH1 0x10 SLOAD PUSH1 0x18 SLOAD PUSH1 0x40 DUP1 MLOAD SWAP2 DUP3 MSTORE MLOAD PUSH1 0x1 PUSH1 0x1 PUSH1 0xA0 SHL SUB SWAP1 SWAP3 AND SWAP2 PUSH1 0x0 SWAP2 PUSH32 0xDDF252AD1BE2C89B69C2B068FC378DAA952BA7F163C4A11628F55A4DF523B3EF SWAP2 SWAP1 DUP2 SWAP1 SUB PUSH1 0x20 ADD SWAP1 LOG3 PUSH3 0x849 JUMP JUMPDEST PUSH1 0x0 DUP3 DUP3 ADD DUP4 DUP2 LT ISZERO PUSH3 0x4EB JUMPI PUSH1 0x40 DUP1 MLOAD PUSH3 0x461BCD PUSH1 0xE5 SHL DUP2 MSTORE PUSH1 0x20 PUSH1 0x4 DUP3 ADD MSTORE PUSH1 0x1B PUSH1 0x24 DUP3 ADD MSTORE PUSH32 0x536166654D6174683A206164646974696F6E206F766572666C6F770000000000 PUSH1 0x44 DUP3 ADD MSTORE SWAP1 MLOAD SWAP1 DUP2 SWAP1 SUB PUSH1 0x64 ADD SWAP1 REVERT JUMPDEST SWAP4 SWAP3 POP POP POP JUMP JUMPDEST PUSH3 0x50D DUP2 PUSH1 0x3 PUSH3 0x609 PUSH1 0x20 SHL PUSH3 0x1C2B OR SWAP1 SWAP2 SWAP1 PUSH1 0x20 SHR JUMP JUMPDEST PUSH1 0x40 MLOAD PUSH1 0x1 PUSH1 0x1 PUSH1 0xA0 SHL SUB DUP3 AND SWAP1 PUSH32 0x6AE172837EA30B801FBFCDD4108AA1D5BF8FF775444FD70256B44E6BF3DFC3F6 SWAP1 PUSH1 0x0 SWAP1 LOG2 POP JUMP JUMPDEST PUSH1 0x0 PUSH3 0x4EB DUP4 DUP4 PUSH1 0x40 MLOAD DUP1 PUSH1 0x40 ADD PUSH1 0x40 MSTORE DUP1 PUSH1 0x1A DUP2 MSTORE PUSH1 0x20 ADD PUSH32 0x536166654D6174683A206469766973696F6E206279207A65726F000000000000 DUP2 MSTORE POP PUSH3 0x68D PUSH1 0x20 SHL PUSH1 0x20 SHR JUMP JUMPDEST PUSH1 0x1 PUSH1 0x1 PUSH1 0xA0 SHL SUB DUP2 AND PUSH3 0x5A2 JUMPI PUSH1 0x0 DUP1 REVERT JUMPDEST PUSH1 0x2 SLOAD PUSH1 0x40 MLOAD PUSH1 0x1 PUSH1 0x1 PUSH1 0xA0 SHL SUB DUP1 DUP5 AND SWAP3 PUSH2 0x100 SWAP1 DIV AND SWAP1 PUSH32 0x8BE0079C531659141344CD1FD0A4F28419497F9722A3DAAFE3B4186F6B6457E0 SWAP1 PUSH1 0x0 SWAP1 LOG3 PUSH1 0x2 DUP1 SLOAD PUSH1 0x1 PUSH1 0x1 PUSH1 0xA0 SHL SUB SWAP1 SWAP3 AND PUSH2 0x100 MUL PUSH2 0x100 PUSH1 0x1 PUSH1 0xA8 SHL SUB NOT SWAP1 SWAP3 AND SWAP2 SWAP1 SWAP2 OR SWAP1 SSTORE JUMP JUMPDEST PUSH3 0x615 DUP3 DUP3 PUSH3 0x734 JUMP JUMPDEST ISZERO PUSH3 0x668 JUMPI PUSH1 0x40 DUP1 MLOAD PUSH3 0x461BCD PUSH1 0xE5 SHL DUP2 MSTORE PUSH1 0x20 PUSH1 0x4 DUP3 ADD MSTORE PUSH1 0x1F PUSH1 0x24 DUP3 ADD MSTORE PUSH32 0x526F6C65733A206163636F756E7420616C72656164792068617320726F6C6500 PUSH1 0x44 DUP3 ADD MSTORE SWAP1 MLOAD SWAP1 DUP2 SWAP1 SUB PUSH1 0x64 ADD SWAP1 REVERT JUMPDEST PUSH1 0x1 PUSH1 0x1 PUSH1 0xA0 SHL SUB AND PUSH1 0x0 SWAP1 DUP2 MSTORE PUSH1 0x20 SWAP2 SWAP1 SWAP2 MSTORE PUSH1 0x40 SWAP1 KECCAK256 DUP1 SLOAD PUSH1 0xFF NOT AND PUSH1 0x1 OR SWAP1 SSTORE JUMP JUMPDEST PUSH1 0x0 DUP2 DUP4 PUSH3 0x71D JUMPI PUSH1 0x40 MLOAD PUSH3 0x461BCD PUSH1 0xE5 SHL DUP2 MSTORE PUSH1 0x4 ADD DUP1 DUP1 PUSH1 0x20 ADD DUP3 DUP2 SUB DUP3 MSTORE DUP4 DUP2 DUP2 MLOAD DUP2 MSTORE PUSH1 0x20 ADD SWAP2 POP DUP1 MLOAD SWAP1 PUSH1 0x20 ADD SWAP1 DUP1 DUP4 DUP4 PUSH1 0x0 JUMPDEST DUP4 DUP2 LT ISZERO PUSH3 0x6E1 JUMPI DUP2 DUP2 ADD MLOAD DUP4 DUP3 ADD MSTORE PUSH1 0x20 ADD PUSH3 0x6C7 JUMP JUMPDEST POP POP POP POP SWAP1 POP SWAP1 DUP2 ADD SWAP1 PUSH1 0x1F AND DUP1 ISZERO PUSH3 0x70F JUMPI DUP1 DUP3 SUB DUP1 MLOAD PUSH1 0x1 DUP4 PUSH1 0x20 SUB PUSH2 0x100 EXP SUB NOT AND DUP2 MSTORE PUSH1 0x20 ADD SWAP2 POP JUMPDEST POP SWAP3 POP POP POP PUSH1 0x40 MLOAD DUP1 SWAP2 SUB SWAP1 REVERT JUMPDEST POP PUSH1 0x0 DUP4 DUP6 DUP2 PUSH3 0x72A JUMPI INVALID JUMPDEST DIV SWAP6 SWAP5 POP POP POP POP POP JUMP JUMPDEST PUSH1 0x0 PUSH1 0x1 PUSH1 0x1 PUSH1 0xA0 SHL SUB DUP3 AND PUSH3 0x77D JUMPI PUSH1 0x40 MLOAD PUSH3 0x461BCD PUSH1 0xE5 SHL DUP2 MSTORE PUSH1 0x4 ADD DUP1 DUP1 PUSH1 0x20 ADD DUP3 DUP2 SUB DUP3 MSTORE PUSH1 0x22 DUP2 MSTORE PUSH1 0x20 ADD DUP1 PUSH3 0x3117 PUSH1 0x22 SWAP2 CODECOPY PUSH1 0x40 ADD SWAP2 POP POP PUSH1 0x40 MLOAD DUP1 SWAP2 SUB SWAP1 REVERT JUMPDEST POP PUSH1 0x1 PUSH1 0x1 PUSH1 0xA0 SHL SUB AND PUSH1 0x0 SWAP1 DUP2 MSTORE PUSH1 0x20 SWAP2 SWAP1 SWAP2 MSTORE PUSH1 0x40 SWAP1 KECCAK256 SLOAD PUSH1 0xFF AND SWAP1 JUMP JUMPDEST DUP3 DUP1 SLOAD PUSH1 0x1 DUP2 PUSH1 0x1 AND ISZERO PUSH2 0x100 MUL SUB AND PUSH1 0x2 SWAP1 DIV SWAP1 PUSH1 0x0 MSTORE PUSH1 0x20 PUSH1 0x0 KECCAK256 SWAP1 PUSH1 0x1F ADD PUSH1 0x20 SWAP1 DIV DUP2 ADD SWAP3 DUP3 PUSH3 0x7D5 JUMPI PUSH1 0x0 DUP6 SSTORE PUSH3 0x820 JUMP JUMPDEST DUP3 PUSH1 0x1F LT PUSH3 0x7F0 JUMPI DUP1 MLOAD PUSH1 0xFF NOT AND DUP4 DUP1 ADD OR DUP6 SSTORE PUSH3 0x820 JUMP JUMPDEST DUP3 DUP1 ADD PUSH1 0x1 ADD DUP6 SSTORE DUP3 ISZERO PUSH3 0x820 JUMPI SWAP2 DUP3 ADD JUMPDEST DUP3 DUP2 GT ISZERO PUSH3 0x820 JUMPI DUP3 MLOAD DUP3 SSTORE SWAP2 PUSH1 0x20 ADD SWAP2 SWAP1 PUSH1 0x1 ADD SWAP1 PUSH3 0x803 JUMP JUMPDEST POP PUSH3 0x82E SWAP3 SWAP2 POP PUSH3 0x832 JUMP JUMPDEST POP SWAP1 JUMP JUMPDEST JUMPDEST DUP1 DUP3 GT ISZERO PUSH3 0x82E JUMPI PUSH1 0x0 DUP2 SSTORE PUSH1 0x1 ADD PUSH3 0x833 JUMP JUMPDEST PUSH2 0x28BE DUP1 PUSH3 0x859 PUSH1 0x0 CODECOPY PUSH1 0x0 RETURN INVALID PUSH1 0x80 PUSH1 0x40 MSTORE PUSH1 0x4 CALLDATASIZE LT PUSH2 0x354 JUMPI PUSH1 0x0 CALLDATALOAD PUSH1 0xE0 SHR DUP1 PUSH4 0x7A43E23F GT PUSH2 0x1C6 JUMPI DUP1 PUSH4 0xBDA5C8BB GT PUSH2 0xF7 JUMPI DUP1 PUSH4 0xD5938AAC GT PUSH2 0x95 JUMPI DUP1 PUSH4 0xDD62ED3E GT PUSH2 0x6F JUMPI DUP1 PUSH4 0xDD62ED3E EQ PUSH2 0xC3E JUMPI DUP1 PUSH4 0xF2FDE38B EQ PUSH2 0xC79 JUMPI DUP1 PUSH4 0xF887EA40 EQ PUSH2 0xCAC JUMPI DUP1 PUSH4 0xF9F92BE4 EQ PUSH2 0xCC1 JUMPI PUSH2 0x35B JUMP JUMPDEST DUP1 PUSH4 0xD5938AAC EQ PUSH2 0xBB1 JUMPI DUP1 PUSH4 0xD7AC6585 EQ PUSH2 0xBE4 JUMPI DUP1 PUSH4 0xD7C01032 EQ PUSH2 0xBF9 JUMPI PUSH2 0x35B JUMP JUMPDEST DUP1 PUSH4 0xD1FCE264 GT PUSH2 0xD1 JUMPI DUP1 PUSH4 0xD1FCE264 EQ PUSH2 0xA70 JUMPI DUP1 PUSH4 0xD37E219D EQ PUSH2 0xA85 JUMPI DUP1 PUSH4 0xD4399790 EQ PUSH2 0xB54 JUMPI DUP1 PUSH4 0xD51ED1C8 EQ PUSH2 0xB87 JUMPI PUSH2 0x35B JUMP JUMPDEST DUP1 PUSH4 0xBDA5C8BB EQ PUSH2 0xA0E JUMPI DUP1 PUSH4 0xCA33E64C EQ PUSH2 0xA23 JUMPI DUP1 PUSH4 0xD0889358 EQ PUSH2 0xA38 JUMPI PUSH2 0x35B JUMP JUMPDEST DUP1 PUSH4 0x98118CB4 GT PUSH2 0x164 JUMPI DUP1 PUSH4 0xA457C2D7 GT PUSH2 0x13E JUMPI DUP1 PUSH4 0xA457C2D7 EQ PUSH2 0x954 JUMPI DUP1 PUSH4 0xA8AA1B31 EQ PUSH2 0x98D JUMPI DUP1 PUSH4 0xA9059CBB EQ PUSH2 0x9A2 JUMPI DUP1 PUSH4 0xAA271E1A EQ PUSH2 0x9DB JUMPI PUSH2 0x35B JUMP JUMPDEST DUP1 PUSH4 0x98118CB4 EQ PUSH2 0x8F7 JUMPI DUP1 PUSH4 0x983B2D56 EQ PUSH2 0x90C JUMPI DUP1 PUSH4 0x98650275 EQ PUSH2 0x93F JUMPI PUSH2 0x35B JUMP JUMPDEST DUP1 PUSH4 0x8DA5CB5B GT PUSH2 0x1A0 JUMPI DUP1 PUSH4 0x8DA5CB5B EQ PUSH2 0x87D JUMPI DUP1 PUSH4 0x8F32D59B EQ PUSH2 0x892 JUMPI DUP1 PUSH4 0x9155E083 EQ PUSH2 0x8A7 JUMPI DUP1 PUSH4 0x95D89B41 EQ PUSH2 0x8E2 JUMPI PUSH2 0x35B JUMP JUMPDEST DUP1 PUSH4 0x7A43E23F EQ PUSH2 0x823 JUMPI DUP1 PUSH4 0x800CEE51 EQ PUSH2 0x853 JUMPI DUP1 PUSH4 0x83B4AC68 EQ PUSH2 0x868 JUMPI PUSH2 0x35B JUMP JUMPDEST DUP1 PUSH4 0x3092AFD5 GT PUSH2 0x2A0 JUMPI DUP1 PUSH4 0x56A227F2 GT PUSH2 0x23E JUMPI DUP1 PUSH4 0x70A08231 GT PUSH2 0x218 JUMPI DUP1 PUSH4 0x70A08231 EQ PUSH2 0x793 JUMPI DUP1 PUSH4 0x715018A6 EQ PUSH2 0x7C6 JUMPI DUP1 PUSH4 0x749796A5 EQ PUSH2 0x7DB JUMPI DUP1 PUSH4 0x753D02A1 EQ PUSH2 0x80E JUMPI PUSH2 0x35B JUMP JUMPDEST DUP1 PUSH4 0x56A227F2 EQ PUSH2 0x730 JUMPI DUP1 PUSH4 0x6D351D1A EQ PUSH2 0x769 JUMPI DUP1 PUSH4 0x6DDD1713 EQ PUSH2 0x77E JUMPI PUSH2 0x35B JUMP JUMPDEST DUP1 PUSH4 0x39509351 GT PUSH2 0x27A JUMPI DUP1 PUSH4 0x39509351 EQ PUSH2 0x678 JUMPI DUP1 PUSH4 0x40C10F19 EQ PUSH2 0x6B1 JUMPI DUP1 PUSH4 0x4D709ADF EQ PUSH2 0x6EA JUMPI DUP1 PUSH4 0x563DF32F EQ PUSH2 0x71B JUMPI PUSH2 0x35B JUMP JUMPDEST DUP1 PUSH4 0x3092AFD5 EQ PUSH2 0x5E1 JUMPI DUP1 PUSH4 0x313CE567 EQ PUSH2 0x614 JUMPI DUP1 PUSH4 0x33F3D628 EQ PUSH2 0x63F JUMPI PUSH2 0x35B JUMP JUMPDEST DUP1 PUSH4 0x1DF4CCFC GT PUSH2 0x30D JUMPI DUP1 PUSH4 0x2B112E49 GT PUSH2 0x2E7 JUMPI DUP1 PUSH4 0x2B112E49 EQ PUSH2 0x56F JUMPI DUP1 PUSH4 0x2B14CA56 EQ PUSH2 0x584 JUMPI DUP1 PUSH4 0x2BE6937D EQ PUSH2 0x599 JUMPI DUP1 PUSH4 0x2F34D282 EQ PUSH2 0x5AE JUMPI PUSH2 0x35B JUMP JUMPDEST DUP1 PUSH4 0x1DF4CCFC EQ PUSH2 0x4E7 JUMPI DUP1 PUSH4 0x201E7991 EQ PUSH2 0x4FC JUMPI DUP1 PUSH4 0x23B872DD EQ PUSH2 0x52C JUMPI PUSH2 0x35B JUMP JUMPDEST DUP1 PUSH4 0x4A66B48 EQ PUSH2 0x360 JUMPI DUP1 PUSH4 0x6FDDE03 EQ PUSH2 0x3A4 JUMPI DUP1 PUSH4 0x95EA7B3 EQ PUSH2 0x42E JUMPI DUP1 PUSH4 0x1161AE39 EQ PUSH2 0x47B JUMPI DUP1 PUSH4 0x180B0D7E EQ PUSH2 0x4AB JUMPI DUP1 PUSH4 0x18160DDD EQ PUSH2 0x4D2 JUMPI PUSH2 0x35B JUMP JUMPDEST CALLDATASIZE PUSH2 0x35B JUMPI STOP JUMPDEST PUSH1 0x0 DUP1 REVERT JUMPDEST CALLVALUE DUP1 ISZERO PUSH2 0x36C JUMPI PUSH1 0x0 DUP1 REVERT JUMPDEST POP PUSH2 0x3A2 PUSH1 0x4 DUP1 CALLDATASIZE SUB PUSH1 0xA0 DUP2 LT ISZERO PUSH2 0x383 JUMPI PUSH1 0x0 DUP1 REVERT JUMPDEST POP DUP1 CALLDATALOAD SWAP1 PUSH1 0x20 DUP2 ADD CALLDATALOAD SWAP1 PUSH1 0x40 DUP2 ADD CALLDATALOAD SWAP1 PUSH1 0x60 DUP2 ADD CALLDATALOAD SWAP1 PUSH1 0x80 ADD CALLDATALOAD PUSH2 0xCF4 JUMP JUMPDEST STOP JUMPDEST CALLVALUE DUP1 ISZERO PUSH2 0x3B0 JUMPI PUSH1 0x0 DUP1 REVERT JUMPDEST POP PUSH2 0x3B9 PUSH2 0xD4D JUMP JUMPDEST PUSH1 0x40 DUP1 MLOAD PUSH1 0x20 DUP1 DUP3 MSTORE DUP4 MLOAD DUP2 DUP4 ADD MSTORE DUP4 MLOAD SWAP2 SWAP3 DUP4 SWAP3 SWAP1 DUP4 ADD SWAP2 DUP6 ADD SWAP1 DUP1 DUP4 DUP4 PUSH1 0x0 JUMPDEST DUP4 DUP2 LT ISZERO PUSH2 0x3F3 JUMPI DUP2 DUP2 ADD MLOAD DUP4 DUP3 ADD MSTORE PUSH1 0x20 ADD PUSH2 0x3DB JUMP JUMPDEST POP POP POP POP SWAP1 POP SWAP1 DUP2 ADD SWAP1 PUSH1 0x1F AND DUP1 ISZERO PUSH2 0x420 JUMPI DUP1 DUP3 SUB DUP1 MLOAD PUSH1 0x1 DUP4 PUSH1 0x20 SUB PUSH2 0x100 EXP SUB NOT AND DUP2 MSTORE PUSH1 0x20 ADD SWAP2 POP JUMPDEST POP SWAP3 POP POP POP PUSH1 0x40 MLOAD DUP1 SWAP2 SUB SWAP1 RETURN JUMPDEST CALLVALUE DUP1 ISZERO PUSH2 0x43A JUMPI PUSH1 0x0 DUP1 REVERT JUMPDEST POP PUSH2 0x467 PUSH1 0x4 DUP1 CALLDATASIZE SUB PUSH1 0x40 DUP2 LT ISZERO PUSH2 0x451 JUMPI PUSH1 0x0 DUP1 REVERT JUMPDEST POP PUSH1 0x1 PUSH1 0x1 PUSH1 0xA0 SHL SUB DUP2 CALLDATALOAD AND SWAP1 PUSH1 0x20 ADD CALLDATALOAD PUSH2 0xDE3 JUMP JUMPDEST PUSH1 0x40 DUP1 MLOAD SWAP2 ISZERO ISZERO DUP3 MSTORE MLOAD SWAP1 DUP2 SWAP1 SUB PUSH1 0x20 ADD SWAP1 RETURN JUMPDEST CALLVALUE DUP1 ISZERO PUSH2 0x487 JUMPI PUSH1 0x0 DUP1 REVERT JUMPDEST POP PUSH2 0x467 PUSH1 0x4 DUP1 CALLDATASIZE SUB PUSH1 0x40 DUP2 LT ISZERO PUSH2 0x49E JUMPI PUSH1 0x0 DUP1 REVERT JUMPDEST POP DUP1 CALLDATALOAD SWAP1 PUSH1 0x20 ADD CALLDATALOAD PUSH2 0xE8C JUMP JUMPDEST CALLVALUE DUP1 ISZERO PUSH2 0x4B7 JUMPI PUSH1 0x0 DUP1 REVERT JUMPDEST POP PUSH2 0x4C0 PUSH2 0xEA0 JUMP JUMPDEST PUSH1 0x40 DUP1 MLOAD SWAP2 DUP3 MSTORE MLOAD SWAP1 DUP2 SWAP1 SUB PUSH1 0x20 ADD SWAP1 RETURN JUMPDEST CALLVALUE DUP1 ISZERO PUSH2 0x4DE JUMPI PUSH1 0x0 DUP1 REVERT JUMPDEST POP PUSH2 0x4C0 PUSH2 0xEA6 JUMP JUMPDEST CALLVALUE DUP1 ISZERO PUSH2 0x4F3 JUMPI PUSH1 0x0 DUP1 REVERT JUMPDEST POP PUSH2 0x4C0 PUSH2 0xEAC JUMP JUMPDEST CALLVALUE DUP1 ISZERO PUSH2 0x508 JUMPI PUSH1 0x0 DUP1 REVERT JUMPDEST POP PUSH2 0x3A2 PUSH1 0x4 DUP1 CALLDATASIZE SUB PUSH1 0x40 DUP2 LT ISZERO PUSH2 0x51F JUMPI PUSH1 0x0 DUP1 REVERT JUMPDEST POP DUP1 CALLDATALOAD SWAP1 PUSH1 0x20 ADD CALLDATALOAD PUSH2 0xEB2 JUMP JUMPDEST CALLVALUE DUP1 ISZERO PUSH2 0x538 JUMPI PUSH1 0x0 DUP1 REVERT JUMPDEST POP PUSH2 0x467 PUSH1 0x4 DUP1 CALLDATASIZE SUB PUSH1 0x60 DUP2 LT ISZERO PUSH2 0x54F JUMPI PUSH1 0x0 DUP1 REVERT JUMPDEST POP PUSH1 0x1 PUSH1 0x1 PUSH1 0xA0 SHL SUB DUP2 CALLDATALOAD DUP2 AND SWAP2 PUSH1 0x20 DUP2 ADD CALLDATALOAD SWAP1 SWAP2 AND SWAP1 PUSH1 0x40 ADD CALLDATALOAD PUSH2 0xECE JUMP JUMPDEST CALLVALUE DUP1 ISZERO PUSH2 0x57B JUMPI PUSH1 0x0 DUP1 REVERT JUMPDEST POP PUSH2 0x4C0 PUSH2 0xFA8 JUMP JUMPDEST CALLVALUE DUP1 ISZERO PUSH2 0x590 JUMPI PUSH1 0x0 DUP1 REVERT JUMPDEST POP PUSH2 0x4C0 PUSH2 0x100A JUMP JUMPDEST CALLVALUE DUP1 ISZERO PUSH2 0x5A5 JUMPI PUSH1 0x0 DUP1 REVERT JUMPDEST POP PUSH2 0x3A2 PUSH2 0x1010 JUMP JUMPDEST CALLVALUE DUP1 ISZERO PUSH2 0x5BA JUMPI PUSH1 0x0 DUP1 REVERT JUMPDEST POP PUSH2 0x3A2 PUSH1 0x4 DUP1 CALLDATASIZE SUB PUSH1 0x20 DUP2 LT ISZERO PUSH2 0x5D1 JUMPI PUSH1 0x0 DUP1 REVERT JUMPDEST POP CALLDATALOAD PUSH1 0x1 PUSH1 0x1 PUSH1 0xA0 SHL SUB AND PUSH2 0x1036 JUMP JUMPDEST CALLVALUE DUP1 ISZERO PUSH2 0x5ED JUMPI PUSH1 0x0 DUP1 REVERT JUMPDEST POP PUSH2 0x3A2 PUSH1 0x4 DUP1 CALLDATASIZE SUB PUSH1 0x20 DUP2 LT ISZERO PUSH2 0x604 JUMPI PUSH1 0x0 DUP1 REVERT JUMPDEST POP CALLDATALOAD PUSH1 0x1 PUSH1 0x1 PUSH1 0xA0 SHL SUB AND PUSH2 0x1070 JUMP JUMPDEST CALLVALUE DUP1 ISZERO PUSH2 0x620 JUMPI PUSH1 0x0 DUP1 REVERT JUMPDEST POP PUSH2 0x629 PUSH2 0x108D JUMP JUMPDEST PUSH1 0x40 DUP1 MLOAD PUSH1 0xFF SWAP1 SWAP3 AND DUP3 MSTORE MLOAD SWAP1 DUP2 SWAP1 SUB PUSH1 0x20 ADD SWAP1 RETURN JUMPDEST CALLVALUE DUP1 ISZERO PUSH2 0x64B JUMPI PUSH1 0x0 DUP1 REVERT JUMPDEST POP PUSH2 0x467 PUSH1 0x4 DUP1 CALLDATASIZE SUB PUSH1 0x40 DUP2 LT ISZERO PUSH2 0x662 JUMPI PUSH1 0x0 DUP1 REVERT JUMPDEST POP PUSH1 0x1 PUSH1 0x1 PUSH1 0xA0 SHL SUB DUP2 CALLDATALOAD AND SWAP1 PUSH1 0x20 ADD CALLDATALOAD PUSH2 0x1096 JUMP JUMPDEST CALLVALUE DUP1 ISZERO PUSH2 0x684 JUMPI PUSH1 0x0 DUP1 REVERT JUMPDEST POP PUSH2 0x467 PUSH1 0x4 DUP1 CALLDATASIZE SUB PUSH1 0x40 DUP2 LT ISZERO PUSH2 0x69B JUMPI PUSH1 0x0 DUP1 REVERT JUMPDEST POP PUSH1 0x1 PUSH1 0x1 PUSH1 0xA0 SHL SUB DUP2 CALLDATALOAD AND SWAP1 PUSH1 0x20 ADD CALLDATALOAD PUSH2 0x112B JUMP JUMPDEST CALLVALUE DUP1 ISZERO PUSH2 0x6BD JUMPI PUSH1 0x0 DUP1 REVERT JUMPDEST POP PUSH2 0x3A2 PUSH1 0x4 DUP1 CALLDATASIZE SUB PUSH1 0x40 DUP2 LT ISZERO PUSH2 0x6D4 JUMPI PUSH1 0x0 DUP1 REVERT JUMPDEST POP PUSH1 0x1 PUSH1 0x1 PUSH1 0xA0 SHL SUB DUP2 CALLDATALOAD AND SWAP1 PUSH1 0x20 ADD CALLDATALOAD PUSH2 0x11FF JUMP JUMPDEST CALLVALUE DUP1 ISZERO PUSH2 0x6F6 JUMPI PUSH1 0x0 DUP1 REVERT JUMPDEST POP PUSH2 0x6FF PUSH2 0x1333 JUMP JUMPDEST PUSH1 0x40 DUP1 MLOAD PUSH1 0x1 PUSH1 0x1 PUSH1 0xA0 SHL SUB SWAP1 SWAP3 AND DUP3 MSTORE MLOAD SWAP1 DUP2 SWAP1 SUB PUSH1 0x20 ADD SWAP1 RETURN JUMPDEST CALLVALUE DUP1 ISZERO PUSH2 0x727 JUMPI PUSH1 0x0 DUP1 REVERT JUMPDEST POP PUSH2 0x4C0 PUSH2 0x1342 JUMP JUMPDEST CALLVALUE DUP1 ISZERO PUSH2 0x73C JUMPI PUSH1 0x0 DUP1 REVERT JUMPDEST POP PUSH2 0x3A2 PUSH1 0x4 DUP1 CALLDATASIZE SUB PUSH1 0x40 DUP2 LT ISZERO PUSH2 0x753 JUMPI PUSH1 0x0 DUP1 REVERT JUMPDEST POP DUP1 CALLDATALOAD SWAP1 PUSH1 0x20 ADD CALLDATALOAD PUSH1 0x1 PUSH1 0x1 PUSH1 0xA0 SHL SUB AND PUSH2 0x1348 JUMP JUMPDEST CALLVALUE DUP1 ISZERO PUSH2 0x775 JUMPI PUSH1 0x0 DUP1 REVERT JUMPDEST POP PUSH2 0x4C0 PUSH2 0x139B JUMP JUMPDEST CALLVALUE DUP1 ISZERO PUSH2 0x78A JUMPI PUSH1 0x0 DUP1 REVERT JUMPDEST POP PUSH2 0x467 PUSH2 0x13B4 JUMP JUMPDEST CALLVALUE DUP1 ISZERO PUSH2 0x79F JUMPI PUSH1 0x0 DUP1 REVERT JUMPDEST POP PUSH2 0x4C0 PUSH1 0x4 DUP1 CALLDATASIZE SUB PUSH1 0x20 DUP2 LT ISZERO PUSH2 0x7B6 JUMPI PUSH1 0x0 DUP1 REVERT JUMPDEST POP CALLDATALOAD PUSH1 0x1 PUSH1 0x1 PUSH1 0xA0 SHL SUB AND PUSH2 0x13C4 JUMP JUMPDEST CALLVALUE DUP1 ISZERO PUSH2 0x7D2 JUMPI PUSH1 0x0 DUP1 REVERT JUMPDEST POP PUSH2 0x3A2 PUSH2 0x13EC JUMP JUMPDEST CALLVALUE DUP1 ISZERO PUSH2 0x7E7 JUMPI PUSH1 0x0 DUP1 REVERT JUMPDEST POP PUSH2 0x3A2 PUSH1 0x4 DUP1 CALLDATASIZE SUB PUSH1 0x20 DUP2 LT ISZERO PUSH2 0x7FE JUMPI PUSH1 0x0 DUP1 REVERT JUMPDEST POP CALLDATALOAD PUSH1 0x1 PUSH1 0x1 PUSH1 0xA0 SHL SUB AND PUSH2 0x144C JUMP JUMPDEST CALLVALUE DUP1 ISZERO PUSH2 0x81A JUMPI PUSH1 0x0 DUP1 REVERT JUMPDEST POP PUSH2 0x3A2 PUSH2 0x1481 JUMP JUMPDEST CALLVALUE DUP1 ISZERO PUSH2 0x82F JUMPI PUSH1 0x0 DUP1 REVERT JUMPDEST POP PUSH2 0x4C0 PUSH1 0x4 DUP1 CALLDATASIZE SUB PUSH1 0x40 DUP2 LT ISZERO PUSH2 0x846 JUMPI PUSH1 0x0 DUP1 REVERT JUMPDEST POP DUP1 CALLDATALOAD SWAP1 PUSH1 0x20 ADD CALLDATALOAD PUSH2 0x14E5 JUMP JUMPDEST CALLVALUE DUP1 ISZERO PUSH2 0x85F JUMPI PUSH1 0x0 DUP1 REVERT JUMPDEST POP PUSH2 0x6FF PUSH2 0x1691 JUMP JUMPDEST CALLVALUE DUP1 ISZERO PUSH2 0x874 JUMPI PUSH1 0x0 DUP1 REVERT JUMPDEST POP PUSH2 0x467 PUSH2 0x16A0 JUMP JUMPDEST CALLVALUE DUP1 ISZERO PUSH2 0x889 JUMPI PUSH1 0x0 DUP1 REVERT JUMPDEST POP PUSH2 0x6FF PUSH2 0x16AA JUMP JUMPDEST CALLVALUE DUP1 ISZERO PUSH2 0x89E JUMPI PUSH1 0x0 DUP1 REVERT JUMPDEST POP PUSH2 0x467 PUSH2 0x16BE JUMP JUMPDEST CALLVALUE DUP1 ISZERO PUSH2 0x8B3 JUMPI PUSH1 0x0 DUP1 REVERT JUMPDEST POP PUSH2 0x3A2 PUSH1 0x4 DUP1 CALLDATASIZE SUB PUSH1 0x40 DUP2 LT ISZERO PUSH2 0x8CA JUMPI PUSH1 0x0 DUP1 REVERT JUMPDEST POP PUSH1 0x1 PUSH1 0x1 PUSH1 0xA0 SHL SUB DUP2 CALLDATALOAD AND SWAP1 PUSH1 0x20 ADD CALLDATALOAD ISZERO ISZERO PUSH2 0x16D4 JUMP JUMPDEST CALLVALUE DUP1 ISZERO PUSH2 0x8EE JUMPI PUSH1 0x0 DUP1 REVERT JUMPDEST POP PUSH2 0x3B9 PUSH2 0x1710 JUMP JUMPDEST CALLVALUE DUP1 ISZERO PUSH2 0x903 JUMPI PUSH1 0x0 DUP1 REVERT JUMPDEST POP PUSH2 0x4C0 PUSH2 0x1770 JUMP JUMPDEST CALLVALUE DUP1 ISZERO PUSH2 0x918 JUMPI PUSH1 0x0 DUP1 REVERT JUMPDEST POP PUSH2 0x3A2 PUSH1 0x4 DUP1 CALLDATASIZE SUB PUSH1 0x20 DUP2 LT ISZERO PUSH2 0x92F JUMPI PUSH1 0x0 DUP1 REVERT JUMPDEST POP CALLDATALOAD PUSH1 0x1 PUSH1 0x1 PUSH1 0xA0 SHL SUB AND PUSH2 0x1776 JUMP JUMPDEST CALLVALUE DUP1 ISZERO PUSH2 0x94B JUMPI PUSH1 0x0 DUP1 REVERT JUMPDEST POP PUSH2 0x3A2 PUSH2 0x1790 JUMP JUMPDEST CALLVALUE DUP1 ISZERO PUSH2 0x960 JUMPI PUSH1 0x0 DUP1 REVERT JUMPDEST POP PUSH2 0x467 PUSH1 0x4 DUP1 CALLDATASIZE SUB PUSH1 0x40 DUP2 LT ISZERO PUSH2 0x977 JUMPI PUSH1 0x0 DUP1 REVERT JUMPDEST POP PUSH1 0x1 PUSH1 0x1 PUSH1 0xA0 SHL SUB DUP2 CALLDATALOAD AND SWAP1 PUSH1 0x20 ADD CALLDATALOAD PUSH2 0x179B JUMP JUMPDEST CALLVALUE DUP1 ISZERO PUSH2 0x999 JUMPI PUSH1 0x0 DUP1 REVERT JUMPDEST POP PUSH2 0x6FF PUSH2 0x18C5 JUMP JUMPDEST CALLVALUE DUP1 ISZERO PUSH2 0x9AE JUMPI PUSH1 0x0 DUP1 REVERT JUMPDEST POP PUSH2 0x467 PUSH1 0x4 DUP1 CALLDATASIZE SUB PUSH1 0x40 DUP2 LT ISZERO PUSH2 0x9C5 JUMPI PUSH1 0x0 DUP1 REVERT JUMPDEST POP PUSH1 0x1 PUSH1 0x1 PUSH1 0xA0 SHL SUB DUP2 CALLDATALOAD AND SWAP1 PUSH1 0x20 ADD CALLDATALOAD PUSH2 0x18D4 JUMP JUMPDEST CALLVALUE DUP1 ISZERO PUSH2 0x9E7 JUMPI PUSH1 0x0 DUP1 REVERT JUMPDEST POP PUSH2 0x467 PUSH1 0x4 DUP1 CALLDATASIZE SUB PUSH1 0x20 DUP2 LT ISZERO PUSH2 0x9FE JUMPI PUSH1 0x0 DUP1 REVERT JUMPDEST POP CALLDATALOAD PUSH1 0x1 PUSH1 0x1 PUSH1 0xA0 SHL SUB AND PUSH2 0x193E JUMP JUMPDEST CALLVALUE DUP1 ISZERO PUSH2 0xA1A JUMPI PUSH1 0x0 DUP1 REVERT JUMPDEST POP PUSH2 0x4C0 PUSH2 0x194B JUMP JUMPDEST CALLVALUE DUP1 ISZERO PUSH2 0xA2F JUMPI PUSH1 0x0 DUP1 REVERT JUMPDEST POP PUSH2 0x6FF PUSH2 0x1951 JUMP JUMPDEST CALLVALUE DUP1 ISZERO PUSH2 0xA44 JUMPI PUSH1 0x0 DUP1 REVERT JUMPDEST POP PUSH2 0x3A2 PUSH1 0x4 DUP1 CALLDATASIZE SUB PUSH1 0x60 DUP2 LT ISZERO PUSH2 0xA5B JUMPI PUSH1 0x0 DUP1 REVERT JUMPDEST POP DUP1 CALLDATALOAD ISZERO ISZERO SWAP1 PUSH1 0x20 DUP2 ADD CALLDATALOAD SWAP1 PUSH1 0x40 ADD CALLDATALOAD PUSH2 0x1960 JUMP JUMPDEST CALLVALUE DUP1 ISZERO PUSH2 0xA7C JUMPI PUSH1 0x0 DUP1 REVERT JUMPDEST POP PUSH2 0x467 PUSH2 0x19B3 JUMP JUMPDEST CALLVALUE DUP1 ISZERO PUSH2 0xA91 JUMPI PUSH1 0x0 DUP1 REVERT JUMPDEST POP PUSH2 0x3A2 PUSH1 0x4 DUP1 CALLDATASIZE SUB PUSH1 0x40 DUP2 LT ISZERO PUSH2 0xAA8 JUMPI PUSH1 0x0 DUP1 REVERT JUMPDEST DUP2 ADD SWAP1 PUSH1 0x20 DUP2 ADD DUP2 CALLDATALOAD PUSH5 0x100000000 DUP2 GT ISZERO PUSH2 0xAC3 JUMPI PUSH1 0x0 DUP1 REVERT JUMPDEST DUP3 ADD DUP4 PUSH1 0x20 DUP3 ADD GT ISZERO PUSH2 0xAD5 JUMPI PUSH1 0x0 DUP1 REVERT JUMPDEST DUP1 CALLDATALOAD SWAP1 PUSH1 0x20 ADD SWAP2 DUP5 PUSH1 0x20 DUP4 MUL DUP5 ADD GT PUSH5 0x100000000 DUP4 GT OR ISZERO PUSH2 0xAF7 JUMPI PUSH1 0x0 DUP1 REVERT JUMPDEST SWAP2 SWAP4 SWAP1 SWAP3 SWAP1 SWAP2 PUSH1 0x20 DUP2 ADD SWAP1 CALLDATALOAD PUSH5 0x100000000 DUP2 GT ISZERO PUSH2 0xB15 JUMPI PUSH1 0x0 DUP1 REVERT JUMPDEST DUP3 ADD DUP4 PUSH1 0x20 DUP3 ADD GT ISZERO PUSH2 0xB27 JUMPI PUSH1 0x0 DUP1 REVERT JUMPDEST DUP1 CALLDATALOAD SWAP1 PUSH1 0x20 ADD SWAP2 DUP5 PUSH1 0x20 DUP4 MUL DUP5 ADD GT PUSH5 0x100000000 DUP4 GT OR ISZERO PUSH2 0xB49 JUMPI PUSH1 0x0 DUP1 REVERT JUMPDEST POP SWAP1 SWAP3 POP SWAP1 POP PUSH2 0x19C3 JUMP JUMPDEST CALLVALUE DUP1 ISZERO PUSH2 0xB60 JUMPI PUSH1 0x0 DUP1 REVERT JUMPDEST POP PUSH2 0x467 PUSH1 0x4 DUP1 CALLDATASIZE SUB PUSH1 0x20 DUP2 LT ISZERO PUSH2 0xB77 JUMPI PUSH1 0x0 DUP1 REVERT JUMPDEST POP CALLDATALOAD PUSH1 0x1 PUSH1 0x1 PUSH1 0xA0 SHL SUB AND PUSH2 0x1A20 JUMP JUMPDEST CALLVALUE DUP1 ISZERO PUSH2 0xB93 JUMPI PUSH1 0x0 DUP1 REVERT JUMPDEST POP PUSH2 0x4C0 PUSH1 0x4 DUP1 CALLDATASIZE SUB PUSH1 0x20 DUP2 LT ISZERO PUSH2 0xBAA JUMPI PUSH1 0x0 DUP1 REVERT JUMPDEST POP CALLDATALOAD PUSH2 0x1A3E JUMP JUMPDEST CALLVALUE DUP1 ISZERO PUSH2 0xBBD JUMPI PUSH1 0x0 DUP1 REVERT JUMPDEST POP PUSH2 0x3A2 PUSH1 0x4 DUP1 CALLDATASIZE SUB PUSH1 0x20 DUP2 LT ISZERO PUSH2 0xBD4 JUMPI PUSH1 0x0 DUP1 REVERT JUMPDEST POP CALLDATALOAD PUSH1 0x1 PUSH1 0x1 PUSH1 0xA0 SHL SUB AND PUSH2 0x1A92 JUMP JUMPDEST CALLVALUE DUP1 ISZERO PUSH2 0xBF0 JUMPI PUSH1 0x0 DUP1 REVERT JUMPDEST POP PUSH2 0x6FF PUSH2 0x1AC7 JUMP JUMPDEST CALLVALUE DUP1 ISZERO PUSH2 0xC05 JUMPI PUSH1 0x0 DUP1 REVERT JUMPDEST POP PUSH2 0x3A2 PUSH1 0x4 DUP1 CALLDATASIZE SUB PUSH1 0x60 DUP2 LT ISZERO PUSH2 0xC1C JUMPI PUSH1 0x0 DUP1 REVERT JUMPDEST POP PUSH1 0x1 PUSH1 0x1 PUSH1 0xA0 SHL SUB DUP2 CALLDATALOAD DUP2 AND SWAP2 PUSH1 0x20 DUP2 ADD CALLDATALOAD DUP3 AND SWAP2 PUSH1 0x40 SWAP1 SWAP2 ADD CALLDATALOAD AND PUSH2 0x1AD6 JUMP JUMPDEST CALLVALUE DUP1 ISZERO PUSH2 0xC4A JUMPI PUSH1 0x0 DUP1 REVERT JUMPDEST POP PUSH2 0x4C0 PUSH1 0x4 DUP1 CALLDATASIZE SUB PUSH1 0x40 DUP2 LT ISZERO PUSH2 0xC61 JUMPI PUSH1 0x0 DUP1 REVERT JUMPDEST POP PUSH1 0x1 PUSH1 0x1 PUSH1 0xA0 SHL SUB DUP2 CALLDATALOAD DUP2 AND SWAP2 PUSH1 0x20 ADD CALLDATALOAD AND PUSH2 0x1B26 JUMP JUMPDEST CALLVALUE DUP1 ISZERO PUSH2 0xC85 JUMPI PUSH1 0x0 DUP1 REVERT JUMPDEST POP PUSH2 0x3A2 PUSH1 0x4 DUP1 CALLDATASIZE SUB PUSH1 0x20 DUP2 LT ISZERO PUSH2 0xC9C JUMPI PUSH1 0x0 DUP1 REVERT JUMPDEST POP CALLDATALOAD PUSH1 0x1 PUSH1 0x1 PUSH1 0xA0 SHL SUB AND PUSH2 0x1B51 JUMP JUMPDEST CALLVALUE DUP1 ISZERO PUSH2 0xCB8 JUMPI PUSH1 0x0 DUP1 REVERT JUMPDEST POP PUSH2 0x6FF PUSH2 0x1B6B JUMP JUMPDEST CALLVALUE DUP1 ISZERO PUSH2 0xCCD JUMPI PUSH1 0x0 DUP1 REVERT JUMPDEST POP PUSH2 0x467 PUSH1 0x4 DUP1 CALLDATASIZE SUB PUSH1 0x20 DUP2 LT ISZERO PUSH2 0xCE4 JUMPI PUSH1 0x0 DUP1 REVERT JUMPDEST POP CALLDATALOAD PUSH1 0x1 PUSH1 0x1 PUSH1 0xA0 SHL SUB AND PUSH2 0x1B7A JUMP JUMPDEST PUSH2 0xCFC PUSH2 0x16BE JUMP JUMPDEST PUSH2 0xD05 JUMPI PUSH1 0x0 DUP1 REVERT JUMPDEST PUSH1 0x7 DUP6 SWAP1 SSTORE PUSH1 0x9 DUP5 SWAP1 SSTORE PUSH1 0x8 DUP4 SWAP1 SSTORE PUSH1 0xA DUP3 SWAP1 SSTORE PUSH2 0xD2D DUP5 PUSH2 0xD27 DUP8 DUP7 PUSH2 0x1B8F JUMP JUMPDEST SWAP1 PUSH2 0x1B8F JUMP JUMPDEST PUSH1 0xB SSTORE PUSH1 0xC DUP2 SWAP1 SSTORE PUSH1 0x4 DUP2 DIV PUSH1 0xB SLOAD LT PUSH2 0xD46 JUMPI PUSH1 0x0 DUP1 REVERT JUMPDEST POP POP POP POP POP JUMP JUMPDEST PUSH1 0x0 DUP1 SLOAD PUSH1 0x40 DUP1 MLOAD PUSH1 0x20 PUSH1 0x1F PUSH1 0x2 PUSH1 0x0 NOT PUSH2 0x100 PUSH1 0x1 DUP9 AND ISZERO MUL ADD SWAP1 SWAP6 AND SWAP5 SWAP1 SWAP5 DIV SWAP4 DUP5 ADD DUP2 SWAP1 DIV DUP2 MUL DUP3 ADD DUP2 ADD SWAP1 SWAP3 MSTORE DUP3 DUP2 MSTORE PUSH1 0x60 SWAP4 SWAP1 SWAP3 SWAP1 SWAP2 DUP4 ADD DUP3 DUP3 DUP1 ISZERO PUSH2 0xDD9 JUMPI DUP1 PUSH1 0x1F LT PUSH2 0xDAE JUMPI PUSH2 0x100 DUP1 DUP4 SLOAD DIV MUL DUP4 MSTORE SWAP2 PUSH1 0x20 ADD SWAP2 PUSH2 0xDD9 JUMP JUMPDEST DUP3 ADD SWAP2 SWAP1 PUSH1 0x0 MSTORE PUSH1 0x20 PUSH1 0x0 KECCAK256 SWAP1 JUMPDEST DUP2 SLOAD DUP2 MSTORE SWAP1 PUSH1 0x1 ADD SWAP1 PUSH1 0x20 ADD DUP1 DUP4 GT PUSH2 0xDBC JUMPI DUP3 SWAP1 SUB PUSH1 0x1F AND DUP3 ADD SWAP2 JUMPDEST POP POP POP POP POP SWAP1 POP SWAP1 JUMP JUMPDEST PUSH1 0x4 SLOAD PUSH1 0x0 SWAP1 PUSH1 0x1 PUSH1 0xA0 SHL SWAP1 DIV PUSH1 0xFF AND DUP1 PUSH2 0xE01 JUMPI POP PUSH2 0xE01 PUSH2 0x16BE JUMP JUMPDEST DUP1 PUSH2 0xE1B JUMPI POP CALLER PUSH1 0x0 SWAP1 DUP2 MSTORE PUSH1 0x5 PUSH1 0x20 MSTORE PUSH1 0x40 SWAP1 KECCAK256 SLOAD PUSH1 0xFF AND JUMPDEST PUSH2 0xE24 JUMPI PUSH1 0x0 DUP1 REVERT JUMPDEST CALLER PUSH1 0x0 DUP2 DUP2 MSTORE PUSH1 0x1B PUSH1 0x20 SWAP1 DUP2 MSTORE PUSH1 0x40 DUP1 DUP4 KECCAK256 PUSH1 0x1 PUSH1 0x1 PUSH1 0xA0 SHL SUB DUP9 AND DUP1 DUP6 MSTORE SWAP1 DUP4 MSTORE SWAP3 DUP2 SWAP1 KECCAK256 DUP7 SWAP1 SSTORE DUP1 MLOAD DUP7 DUP2 MSTORE SWAP1 MLOAD SWAP3 SWAP4 SWAP3 PUSH32 0x8C5BE1E5EBEC7D5BD14F71427D1E84F3DD0314C0F7B2291E5B200AC8C7C3B925 SWAP3 SWAP2 DUP2 SWAP1 SUB SWAP1 SWAP2 ADD SWAP1 LOG3 POP PUSH1 0x1 JUMPDEST SWAP3 SWAP2 POP POP JUMP JUMPDEST PUSH1 0x0 DUP3 PUSH2 0xE98 DUP4 PUSH2 0x1A3E JUMP JUMPDEST GT SWAP4 SWAP3 POP POP POP JUMP JUMPDEST PUSH1 0xC SLOAD DUP2 JUMP JUMPDEST PUSH1 0x18 SLOAD SWAP1 JUMP JUMPDEST PUSH1 0xB SLOAD DUP2 JUMP JUMPDEST PUSH2 0xEBA PUSH2 0x16BE JUMP JUMPDEST PUSH2 0xEC3 JUMPI PUSH1 0x0 DUP1 REVERT JUMPDEST PUSH1 0x12 SWAP2 SWAP1 SWAP2 SSTORE PUSH1 0x13 SSTORE JUMP JUMPDEST PUSH1 0x0 DUP3 PUSH1 0x1 PUSH1 0x1 PUSH1 0xA0 SHL SUB DUP2 AND PUSH2 0xEE4 JUMPI PUSH1 0x0 DUP1 REVERT JUMPDEST PUSH1 0x1 PUSH1 0x1 PUSH1 0xA0 SHL SUB DUP6 AND PUSH1 0x0 SWAP1 DUP2 MSTORE PUSH1 0x1B PUSH1 0x20 SWAP1 DUP2 MSTORE PUSH1 0x40 DUP1 DUP4 KECCAK256 CALLER DUP5 MSTORE SWAP1 SWAP2 MSTORE SWAP1 KECCAK256 SLOAD PUSH1 0x0 NOT EQ PUSH2 0xF91 JUMPI PUSH1 0x40 DUP1 MLOAD DUP1 DUP3 ADD DUP3 MSTORE PUSH1 0x16 DUP2 MSTORE PUSH22 0x496E73756666696369656E7420416C6C6F77616E6365 PUSH1 0x50 SHL PUSH1 0x20 DUP1 DUP4 ADD SWAP2 SWAP1 SWAP2 MSTORE PUSH1 0x1 PUSH1 0x1 PUSH1 0xA0 SHL SUB DUP9 AND PUSH1 0x0 SWAP1 DUP2 MSTORE PUSH1 0x1B DUP3 MSTORE DUP4 DUP2 KECCAK256 CALLER DUP3 MSTORE SWAP1 SWAP2 MSTORE SWAP2 SWAP1 SWAP2 KECCAK256 SLOAD PUSH2 0xF6C SWAP2 DUP6 SWAP1 PUSH2 0x1CAC JUMP JUMPDEST PUSH1 0x1 PUSH1 0x1 PUSH1 0xA0 SHL SUB DUP7 AND PUSH1 0x0 SWAP1 DUP2 MSTORE PUSH1 0x1B PUSH1 0x20 SWAP1 DUP2 MSTORE PUSH1 0x40 DUP1 DUP4 KECCAK256 CALLER DUP5 MSTORE SWAP1 SWAP2 MSTORE SWAP1 KECCAK256 SSTORE JUMPDEST PUSH2 0xF9C DUP6 DUP6 DUP6 PUSH2 0x1D43 JUMP JUMPDEST POP PUSH1 0x1 SWAP6 SWAP5 POP POP POP POP POP JUMP JUMPDEST PUSH1 0x19 SLOAD PUSH1 0xE SLOAD PUSH1 0x1 PUSH1 0x1 PUSH1 0xA0 SHL SUB SWAP1 DUP2 AND PUSH1 0x0 SWAP1 DUP2 MSTORE PUSH1 0x1A PUSH1 0x20 MSTORE PUSH1 0x40 DUP1 DUP3 KECCAK256 SLOAD PUSH1 0xD SLOAD SWAP1 SWAP4 AND DUP3 MSTORE DUP2 KECCAK256 SLOAD SWAP1 SWAP3 PUSH2 0x1005 SWAP3 SWAP1 SWAP2 PUSH2 0xFFF SWAP2 SWAP1 PUSH2 0xFF9 SWAP1 PUSH12 0x1D290004395EB7BBFFFFFFF NOT SWAP1 PUSH2 0x1F02 JUMP JUMPDEST SWAP1 PUSH2 0x1F02 JUMP JUMPDEST SWAP1 PUSH2 0x1BE9 JUMP JUMPDEST SWAP1 POP SWAP1 JUMP JUMPDEST PUSH1 0xA SLOAD DUP2 JUMP JUMPDEST PUSH2 0x1018 PUSH2 0x16BE JUMP JUMPDEST PUSH2 0x1021 JUMPI PUSH1 0x0 DUP1 REVERT JUMPDEST PUSH1 0x4 DUP1 SLOAD PUSH1 0xFF PUSH1 0xA0 SHL NOT AND PUSH1 0x1 PUSH1 0xA0 SHL OR SWAP1 SSTORE JUMP JUMPDEST PUSH2 0x103E PUSH2 0x16BE JUMP JUMPDEST PUSH2 0x1047 JUMPI PUSH1 0x0 DUP1 REVERT JUMPDEST PUSH1 0x4 DUP1 SLOAD PUSH1 0x1 PUSH1 0x1 PUSH1 0xA0 SHL SUB SWAP1 SWAP3 AND PUSH1 0x1 PUSH1 0x1 PUSH1 0xA0 SHL SUB NOT SWAP1 SWAP3 AND DUP3 OR SWAP1 SSTORE PUSH1 0x0 MSTORE PUSH1 0x6 PUSH1 0x20 MSTORE JUMP JUMPDEST PUSH2 0x1078 PUSH2 0x16BE JUMP JUMPDEST PUSH2 0x1081 JUMPI PUSH1 0x0 DUP1 REVERT JUMPDEST PUSH2 0x108A DUP2 PUSH2 0x1F44 JUMP JUMPDEST POP JUMP JUMPDEST PUSH1 0x2 SLOAD PUSH1 0xFF AND SWAP1 JUMP JUMPDEST PUSH1 0x0 PUSH2 0x10A0 PUSH2 0x16BE JUMP JUMPDEST PUSH2 0x10A9 JUMPI PUSH1 0x0 DUP1 REVERT JUMPDEST PUSH1 0x40 DUP1 MLOAD PUSH4 0xA9059CBB PUSH1 0xE0 SHL DUP2 MSTORE CALLER PUSH1 0x4 DUP3 ADD MSTORE PUSH1 0x24 DUP2 ADD DUP5 SWAP1 MSTORE SWAP1 MLOAD PUSH1 0x1 PUSH1 0x1 PUSH1 0xA0 SHL SUB DUP6 AND SWAP2 PUSH4 0xA9059CBB SWAP2 PUSH1 0x44 DUP1 DUP4 ADD SWAP3 PUSH1 0x20 SWAP3 SWAP2 SWAP1 DUP3 SWAP1 SUB ADD DUP2 PUSH1 0x0 DUP8 DUP1 EXTCODESIZE ISZERO DUP1 ISZERO PUSH2 0x10F8 JUMPI PUSH1 0x0 DUP1 REVERT JUMPDEST POP GAS CALL ISZERO DUP1 ISZERO PUSH2 0x110C JUMPI RETURNDATASIZE PUSH1 0x0 DUP1 RETURNDATACOPY RETURNDATASIZE PUSH1 0x0 REVERT JUMPDEST POP POP POP POP PUSH1 0x40 MLOAD RETURNDATASIZE PUSH1 0x20 DUP2 LT ISZERO PUSH2 0x1122 JUMPI PUSH1 0x0 DUP1 REVERT JUMPDEST POP MLOAD SWAP4 SWAP3 POP POP POP JUMP JUMPDEST PUSH1 0x4 SLOAD PUSH1 0x0 SWAP1 PUSH1 0x1 PUSH1 0xA0 SHL SWAP1 DIV PUSH1 0xFF AND DUP1 PUSH2 0x1149 JUMPI POP PUSH2 0x1149 PUSH2 0x16BE JUMP JUMPDEST DUP1 PUSH2 0x1163 JUMPI POP CALLER PUSH1 0x0 SWAP1 DUP2 MSTORE PUSH1 0x5 PUSH1 0x20 MSTORE PUSH1 0x40 SWAP1 KECCAK256 SLOAD PUSH1 0xFF AND JUMPDEST PUSH2 0x116C JUMPI PUSH1 0x0 DUP1 REVERT JUMPDEST CALLER PUSH1 0x0 SWAP1 DUP2 MSTORE PUSH1 0x1B PUSH1 0x20 SWAP1 DUP2 MSTORE PUSH1 0x40 DUP1 DUP4 KECCAK256 PUSH1 0x1 PUSH1 0x1 PUSH1 0xA0 SHL SUB DUP8 AND DUP5 MSTORE SWAP1 SWAP2 MSTORE SWAP1 KECCAK256 SLOAD PUSH2 0x119A SWAP1 DUP4 PUSH2 0x1B8F JUMP JUMPDEST CALLER PUSH1 0x0 DUP2 DUP2 MSTORE PUSH1 0x1B PUSH1 0x20 SWAP1 DUP2 MSTORE PUSH1 0x40 DUP1 DUP4 KECCAK256 PUSH1 0x1 PUSH1 0x1 PUSH1 0xA0 SHL SUB DUP10 AND DUP1 DUP6 MSTORE SWAP1 DUP4 MSTORE SWAP3 DUP2 SWAP1 KECCAK256 DUP6 SWAP1 SSTORE DUP1 MLOAD SWAP5 DUP6 MSTORE MLOAD SWAP2 SWAP4 PUSH32 0x8C5BE1E5EBEC7D5BD14F71427D1E84F3DD0314C0F7B2291E5B200AC8C7C3B925 SWAP3 SWAP1 DUP2 SWAP1 SUB SWAP1 SWAP2 ADD SWAP1 LOG3 POP PUSH1 0x1 SWAP3 SWAP2 POP POP JUMP JUMPDEST PUSH2 0x1208 CALLER PUSH2 0x193E JUMP JUMPDEST PUSH2 0x1243 JUMPI PUSH1 0x40 MLOAD PUSH3 0x461BCD PUSH1 0xE5 SHL DUP2 MSTORE PUSH1 0x4 ADD DUP1 DUP1 PUSH1 0x20 ADD DUP3 DUP2 SUB DUP3 MSTORE PUSH1 0x30 DUP2 MSTORE PUSH1 0x20 ADD DUP1 PUSH2 0x27F5 PUSH1 0x30 SWAP2 CODECOPY PUSH1 0x40 ADD SWAP2 POP POP PUSH1 0x40 MLOAD DUP1 SWAP2 SUB SWAP1 REVERT JUMPDEST PUSH1 0x18 SLOAD PUSH2 0x1250 SWAP1 DUP3 PUSH2 0x1B8F JUMP JUMPDEST PUSH1 0x18 DUP2 SWAP1 SSTORE PUSH1 0x1 PUSH1 0x1 PUSH1 0x80 SHL SUB LT ISZERO PUSH2 0x126F JUMPI PUSH1 0x1 PUSH1 0x1 PUSH1 0x80 SHL SUB PUSH1 0x18 SSTORE JUMPDEST PUSH1 0x18 SLOAD PUSH2 0x128F SWAP1 PUSH12 0xCECB8F27F4200F3A0000000 PUSH1 0x0 NOT JUMPDEST MOD NOT SWAP1 PUSH2 0x1BE9 JUMP JUMPDEST PUSH1 0x19 SSTORE PUSH1 0x4 DUP1 SLOAD PUSH1 0x40 DUP1 MLOAD PUSH1 0x1 PUSH3 0x93517 PUSH1 0xE0 SHL SUB NOT DUP2 MSTORE SWAP1 MLOAD PUSH1 0x1 PUSH1 0x1 PUSH1 0xA0 SHL SUB SWAP1 SWAP3 AND SWAP3 PUSH4 0xFFF6CAE9 SWAP3 DUP3 DUP3 ADD SWAP3 PUSH1 0x0 SWAP3 SWAP1 DUP3 SWAP1 SUB ADD DUP2 DUP4 DUP8 DUP1 EXTCODESIZE ISZERO DUP1 ISZERO PUSH2 0x12D8 JUMPI PUSH1 0x0 DUP1 REVERT JUMPDEST POP GAS CALL ISZERO DUP1 ISZERO PUSH2 0x12EC JUMPI RETURNDATASIZE PUSH1 0x0 DUP1 RETURNDATACOPY RETURNDATASIZE PUSH1 0x0 REVERT JUMPDEST POP POP POP PUSH1 0x1 PUSH1 0x1 PUSH1 0xA0 SHL SUB DUP4 AND PUSH1 0x0 SWAP1 DUP2 MSTORE PUSH1 0x1A PUSH1 0x20 MSTORE PUSH1 0x40 SWAP1 KECCAK256 SLOAD PUSH2 0x1313 SWAP2 POP DUP3 PUSH2 0x1B8F JUMP JUMPDEST PUSH1 0x1 PUSH1 0x1 PUSH1 0xA0 SHL SUB SWAP1 SWAP3 AND PUSH1 0x0 SWAP1 DUP2 MSTORE PUSH1 0x1A PUSH1 0x20 MSTORE PUSH1 0x40 SWAP1 KECCAK256 SWAP2 SWAP1 SWAP2 SSTORE POP JUMP JUMPDEST PUSH1 0x4 SLOAD PUSH1 0x1 PUSH1 0x1 PUSH1 0xA0 SHL SUB AND DUP2 JUMP JUMPDEST PUSH1 0x8 SLOAD DUP2 JUMP JUMPDEST PUSH2 0x1350 PUSH2 0x16BE JUMP JUMPDEST PUSH2 0x1359 JUMPI PUSH1 0x0 DUP1 REVERT JUMPDEST PUSH1 0x40 MLOAD SELFBALANCE SWAP1 PUSH1 0x1 PUSH1 0x1 PUSH1 0xA0 SHL SUB DUP4 AND SWAP1 PUSH1 0x64 DUP6 DUP5 MUL DIV DUP1 ISZERO PUSH2 0x8FC MUL SWAP2 PUSH1 0x0 DUP2 DUP2 DUP2 DUP6 DUP9 DUP9 CALL SWAP4 POP POP POP POP ISZERO DUP1 ISZERO PUSH2 0x1395 JUMPI RETURNDATASIZE PUSH1 0x0 DUP1 RETURNDATACOPY RETURNDATASIZE PUSH1 0x0 REVERT JUMPDEST POP POP POP POP JUMP JUMPDEST PUSH1 0x0 PUSH2 0x1005 PUSH1 0x19 SLOAD PUSH1 0x16 SLOAD PUSH2 0x1BE9 SWAP1 SWAP2 SWAP1 PUSH4 0xFFFFFFFF AND JUMP JUMPDEST PUSH1 0x15 SLOAD PUSH1 0x1 PUSH1 0xA0 SHL SWAP1 DIV PUSH1 0xFF AND DUP2 JUMP JUMPDEST PUSH1 0x19 SLOAD PUSH1 0x1 PUSH1 0x1 PUSH1 0xA0 SHL SUB DUP3 AND PUSH1 0x0 SWAP1 DUP2 MSTORE PUSH1 0x1A PUSH1 0x20 MSTORE PUSH1 0x40 DUP2 KECCAK256 SLOAD SWAP1 SWAP2 PUSH2 0xE86 SWAP2 SWAP1 PUSH2 0x1BE9 JUMP JUMPDEST PUSH2 0x13F4 PUSH2 0x16BE JUMP JUMPDEST PUSH2 0x13FD JUMPI PUSH1 0x0 DUP1 REVERT JUMPDEST PUSH1 0x2 SLOAD PUSH1 0x40 MLOAD PUSH2 0x100 SWAP1 SWAP2 DIV PUSH1 0x1 PUSH1 0x1 PUSH1 0xA0 SHL SUB AND SWAP1 PUSH32 0xF8DF31144D9C2F0F6B59D69B8B98ABD5459D07F2742C4DF920B25AAE33C64820 SWAP1 PUSH1 0x0 SWAP1 LOG2 PUSH1 0x2 DUP1 SLOAD PUSH2 0x100 PUSH1 0x1 PUSH1 0xA8 SHL SUB NOT AND SWAP1 SSTORE JUMP JUMPDEST PUSH2 0x1454 PUSH2 0x16BE JUMP JUMPDEST PUSH2 0x145D JUMPI PUSH1 0x0 DUP1 REVERT JUMPDEST PUSH1 0x1 PUSH1 0x1 PUSH1 0xA0 SHL SUB AND PUSH1 0x0 SWAP1 DUP2 MSTORE PUSH1 0x6 PUSH1 0x20 MSTORE PUSH1 0x40 SWAP1 KECCAK256 DUP1 SLOAD PUSH1 0xFF NOT AND PUSH1 0x1 OR SWAP1 SSTORE JUMP JUMPDEST PUSH1 0x15 PUSH1 0x0 SWAP1 SLOAD SWAP1 PUSH2 0x100 EXP SWAP1 DIV PUSH1 0x1 PUSH1 0x1 PUSH1 0xA0 SHL SUB AND PUSH1 0x1 PUSH1 0x1 PUSH1 0xA0 SHL SUB AND PUSH4 0xFFF6CAE9 PUSH1 0x40 MLOAD DUP2 PUSH4 0xFFFFFFFF AND PUSH1 0xE0 SHL DUP2 MSTORE PUSH1 0x4 ADD PUSH1 0x0 PUSH1 0x40 MLOAD DUP1 DUP4 SUB DUP2 PUSH1 0x0 DUP8 DUP1 EXTCODESIZE ISZERO DUP1 ISZERO PUSH2 0x14D1 JUMPI PUSH1 0x0 DUP1 REVERT JUMPDEST POP GAS CALL ISZERO DUP1 ISZERO PUSH2 0x1395 JUMPI RETURNDATASIZE PUSH1 0x0 DUP1 RETURNDATACOPY RETURNDATASIZE PUSH1 0x0 REVERT JUMPDEST PUSH1 0x0 PUSH2 0x14EF PUSH2 0x16BE JUMP JUMPDEST PUSH2 0x14F8 JUMPI PUSH1 0x0 DUP1 REVERT JUMPDEST PUSH1 0x17 SLOAD PUSH1 0xFF AND ISZERO PUSH2 0x153C JUMPI PUSH1 0x40 DUP1 MLOAD PUSH3 0x461BCD PUSH1 0xE5 SHL DUP2 MSTORE PUSH1 0x20 PUSH1 0x4 DUP3 ADD MSTORE PUSH1 0x9 PUSH1 0x24 DUP3 ADD MSTORE PUSH9 0x2A393C9030B3B0B4B7 PUSH1 0xB9 SHL PUSH1 0x44 DUP3 ADD MSTORE SWAP1 MLOAD SWAP1 DUP2 SWAP1 SUB PUSH1 0x64 ADD SWAP1 REVERT JUMPDEST DUP2 PUSH2 0x1582 JUMPI PUSH1 0x18 SLOAD PUSH1 0x40 DUP1 MLOAD SWAP2 DUP3 MSTORE MLOAD DUP5 SWAP2 PUSH32 0x72725A3B1E5BD622D6BCD1339BB31279C351ABE8F541AC7FD320F24E1B1641F2 SWAP2 SWAP1 DUP2 SWAP1 SUB PUSH1 0x20 ADD SWAP1 LOG2 POP PUSH1 0x18 SLOAD PUSH2 0xE86 JUMP JUMPDEST PUSH1 0x0 DUP3 SLT ISZERO PUSH2 0x15A4 JUMPI PUSH1 0x18 SLOAD PUSH2 0x159C SWAP1 PUSH1 0x0 DUP5 SWAP1 SUB PUSH2 0x1F02 JUMP JUMPDEST PUSH1 0x18 SSTORE PUSH2 0x15B5 JUMP JUMPDEST PUSH1 0x18 SLOAD PUSH2 0x15B1 SWAP1 DUP4 PUSH2 0x1B8F JUMP JUMPDEST PUSH1 0x18 SSTORE JUMPDEST PUSH1 0x18 SLOAD PUSH1 0x1 PUSH1 0x1 PUSH1 0x80 SHL SUB LT ISZERO PUSH2 0x15D2 JUMPI PUSH1 0x1 PUSH1 0x1 PUSH1 0x80 SHL SUB PUSH1 0x18 SSTORE JUMPDEST PUSH1 0x18 SLOAD PUSH2 0x15EE SWAP1 PUSH12 0xCECB8F27F4200F3A0000000 PUSH1 0x0 NOT PUSH2 0x1287 JUMP JUMPDEST PUSH1 0x19 SSTORE PUSH1 0x4 DUP1 SLOAD PUSH1 0x40 DUP1 MLOAD PUSH1 0x1 PUSH3 0x93517 PUSH1 0xE0 SHL SUB NOT DUP2 MSTORE SWAP1 MLOAD PUSH1 0x1 PUSH1 0x1 PUSH1 0xA0 SHL SUB SWAP1 SWAP3 AND SWAP3 PUSH4 0xFFF6CAE9 SWAP3 DUP3 DUP3 ADD SWAP3 PUSH1 0x0 SWAP3 SWAP1 DUP3 SWAP1 SUB ADD DUP2 DUP4 DUP8 DUP1 EXTCODESIZE ISZERO DUP1 ISZERO PUSH2 0x1637 JUMPI PUSH1 0x0 DUP1 REVERT JUMPDEST POP GAS CALL ISZERO DUP1 ISZERO PUSH2 0x164B JUMPI RETURNDATASIZE PUSH1 0x0 DUP1 RETURNDATACOPY RETURNDATASIZE PUSH1 0x0 REVERT JUMPDEST POP POP PUSH1 0x18 SLOAD PUSH1 0x40 DUP1 MLOAD SWAP2 DUP3 MSTORE MLOAD DUP7 SWAP4 POP PUSH32 0x72725A3B1E5BD622D6BCD1339BB31279C351ABE8F541AC7FD320F24E1B1641F2 SWAP3 POP SWAP1 DUP2 SWAP1 SUB PUSH1 0x20 ADD SWAP1 LOG2 POP PUSH1 0x18 SLOAD SWAP3 SWAP2 POP POP JUMP JUMPDEST PUSH1 0x10 SLOAD PUSH1 0x1 PUSH1 0x1 PUSH1 0xA0 SHL SUB AND DUP2 JUMP JUMPDEST PUSH1 0x17 SLOAD PUSH1 0xFF AND ISZERO SWAP1 JUMP JUMPDEST PUSH1 0x2 SLOAD PUSH2 0x100 SWAP1 DIV PUSH1 0x1 PUSH1 0x1 PUSH1 0xA0 SHL SUB AND SWAP1 JUMP JUMPDEST PUSH1 0x2 SLOAD PUSH2 0x100 SWAP1 DIV PUSH1 0x1 PUSH1 0x1 PUSH1 0xA0 SHL SUB AND CALLER EQ SWAP1 JUMP JUMPDEST PUSH2 0x16DC PUSH2 0x16BE JUMP JUMPDEST PUSH2 0x16E5 JUMPI PUSH1 0x0 DUP1 REVERT JUMPDEST PUSH1 0x1 PUSH1 0x1 PUSH1 0xA0 SHL SUB SWAP2 SWAP1 SWAP2 AND PUSH1 0x0 SWAP1 DUP2 MSTORE PUSH1 0x1C PUSH1 0x20 MSTORE PUSH1 0x40 SWAP1 KECCAK256 DUP1 SLOAD PUSH1 0xFF NOT AND SWAP2 ISZERO ISZERO SWAP2 SWAP1 SWAP2 OR SWAP1 SSTORE JUMP JUMPDEST PUSH1 0x1 DUP1 SLOAD PUSH1 0x40 DUP1 MLOAD PUSH1 0x20 PUSH1 0x1F PUSH1 0x2 PUSH1 0x0 NOT PUSH2 0x100 DUP8 DUP10 AND ISZERO MUL ADD SWAP1 SWAP6 AND SWAP5 SWAP1 SWAP5 DIV SWAP4 DUP5 ADD DUP2 SWAP1 DIV DUP2 MUL DUP3 ADD DUP2 ADD SWAP1 SWAP3 MSTORE DUP3 DUP2 MSTORE PUSH1 0x60 SWAP4 SWAP1 SWAP3 SWAP1 SWAP2 DUP4 ADD DUP3 DUP3 DUP1 ISZERO PUSH2 0xDD9 JUMPI DUP1 PUSH1 0x1F LT PUSH2 0xDAE JUMPI PUSH2 0x100 DUP1 DUP4 SLOAD DIV MUL DUP4 MSTORE SWAP2 PUSH1 0x20 ADD SWAP2 PUSH2 0xDD9 JUMP JUMPDEST PUSH1 0x7 SLOAD DUP2 JUMP JUMPDEST PUSH2 0x177E PUSH2 0x16BE JUMP JUMPDEST PUSH2 0x1787 JUMPI PUSH1 0x0 DUP1 REVERT JUMPDEST PUSH2 0x108A DUP2 PUSH2 0x1F86 JUMP JUMPDEST PUSH2 0x1799 CALLER PUSH2 0x1F44 JUMP JUMPDEST JUMP JUMPDEST PUSH1 0x4 SLOAD PUSH1 0x0 SWAP1 PUSH1 0x1 PUSH1 0xA0 SHL SWAP1 DIV PUSH1 0xFF AND DUP1 PUSH2 0x17B9 JUMPI POP PUSH2 0x17B9 PUSH2 0x16BE JUMP JUMPDEST DUP1 PUSH2 0x17D3 JUMPI POP CALLER PUSH1 0x0 SWAP1 DUP2 MSTORE PUSH1 0x5 PUSH1 0x20 MSTORE PUSH1 0x40 SWAP1 KECCAK256 SLOAD PUSH1 0xFF AND JUMPDEST PUSH2 0x17DC JUMPI PUSH1 0x0 DUP1 REVERT JUMPDEST CALLER PUSH1 0x0 SWAP1 DUP2 MSTORE PUSH1 0x1B PUSH1 0x20 SWAP1 DUP2 MSTORE PUSH1 0x40 DUP1 DUP4 KECCAK256 PUSH1 0x1 PUSH1 0x1 PUSH1 0xA0 SHL SUB DUP8 AND DUP5 MSTORE SWAP1 SWAP2 MSTORE SWAP1 KECCAK256 SLOAD DUP1 DUP4 LT PUSH2 0x1830 JUMPI CALLER PUSH1 0x0 SWAP1 DUP2 MSTORE PUSH1 0x1B PUSH1 0x20 SWAP1 DUP2 MSTORE PUSH1 0x40 DUP1 DUP4 KECCAK256 PUSH1 0x1 PUSH1 0x1 PUSH1 0xA0 SHL SUB DUP9 AND DUP5 MSTORE SWAP1 SWAP2 MSTORE DUP2 KECCAK256 SSTORE PUSH2 0x185F JUMP JUMPDEST PUSH2 0x183A DUP2 DUP5 PUSH2 0x1F02 JUMP JUMPDEST CALLER PUSH1 0x0 SWAP1 DUP2 MSTORE PUSH1 0x1B PUSH1 0x20 SWAP1 DUP2 MSTORE PUSH1 0x40 DUP1 DUP4 KECCAK256 PUSH1 0x1 PUSH1 0x1 PUSH1 0xA0 SHL SUB DUP10 AND DUP5 MSTORE SWAP1 SWAP2 MSTORE SWAP1 KECCAK256 SSTORE JUMPDEST CALLER PUSH1 0x0 DUP2 DUP2 MSTORE PUSH1 0x1B PUSH1 0x20 SWAP1 DUP2 MSTORE PUSH1 0x40 DUP1 DUP4 KECCAK256 PUSH1 0x1 PUSH1 0x1 PUSH1 0xA0 SHL SUB DUP10 AND DUP1 DUP6 MSTORE SWAP1 DUP4 MSTORE SWAP3 DUP2 SWAP1 KECCAK256 SLOAD DUP2 MLOAD SWAP1 DUP2 MSTORE SWAP1 MLOAD SWAP3 SWAP4 SWAP3 PUSH32 0x8C5BE1E5EBEC7D5BD14F71427D1E84F3DD0314C0F7B2291E5B200AC8C7C3B925 SWAP3 SWAP2 DUP2 SWAP1 SUB SWAP1 SWAP2 ADD SWAP1 LOG3 POP PUSH1 0x1 SWAP4 SWAP3 POP POP POP JUMP JUMPDEST PUSH1 0x15 SLOAD PUSH1 0x1 PUSH1 0x1 PUSH1 0xA0 SHL SUB AND DUP2 JUMP JUMPDEST PUSH1 0x0 DUP3 PUSH1 0x1 PUSH1 0x1 PUSH1 0xA0 SHL SUB DUP2 AND PUSH2 0x18EA JUMPI PUSH1 0x0 DUP1 REVERT JUMPDEST PUSH1 0x4 SLOAD PUSH1 0x1 PUSH1 0xA0 SHL SWAP1 DIV PUSH1 0xFF AND DUP1 PUSH2 0x1905 JUMPI POP PUSH2 0x1905 PUSH2 0x16BE JUMP JUMPDEST DUP1 PUSH2 0x191F JUMPI POP CALLER PUSH1 0x0 SWAP1 DUP2 MSTORE PUSH1 0x5 PUSH1 0x20 MSTORE PUSH1 0x40 SWAP1 KECCAK256 SLOAD PUSH1 0xFF AND JUMPDEST PUSH2 0x1928 JUMPI PUSH1 0x0 DUP1 REVERT JUMPDEST PUSH2 0x1933 CALLER DUP6 DUP6 PUSH2 0x1D43 JUMP JUMPDEST POP PUSH1 0x1 SWAP5 SWAP4 POP POP POP POP JUMP JUMPDEST PUSH1 0x0 PUSH2 0xE86 PUSH1 0x3 DUP4 PUSH2 0x1FC8 JUMP JUMPDEST PUSH1 0x9 SLOAD DUP2 JUMP JUMPDEST PUSH1 0xF SLOAD PUSH1 0x1 PUSH1 0x1 PUSH1 0xA0 SHL SUB AND DUP2 JUMP JUMPDEST PUSH2 0x1968 PUSH2 0x16BE JUMP JUMPDEST PUSH2 0x1971 JUMPI PUSH1 0x0 DUP1 REVERT JUMPDEST PUSH1 0x15 DUP1 SLOAD PUSH1 0xFF PUSH1 0xA0 SHL NOT AND PUSH1 0x1 PUSH1 0xA0 SHL DUP6 ISZERO ISZERO MUL OR SWAP1 SSTORE PUSH2 0x19AB DUP3 PUSH2 0x19A5 DUP4 PUSH12 0xCECB8F27F4200F3A0000000 PUSH1 0x0 NOT PUSH2 0x1287 JUMP JUMPDEST SWAP1 PUSH2 0x202F JUMP JUMPDEST PUSH1 0x16 SSTORE POP POP POP JUMP JUMPDEST PUSH1 0x4 SLOAD PUSH1 0x1 PUSH1 0xA0 SHL SWAP1 DIV PUSH1 0xFF AND DUP2 JUMP JUMPDEST PUSH2 0x19CB PUSH2 0x16BE JUMP JUMPDEST PUSH2 0x19D4 JUMPI PUSH1 0x0 DUP1 REVERT JUMPDEST PUSH1 0x0 JUMPDEST DUP4 DUP2 LT ISZERO PUSH2 0xD46 JUMPI PUSH2 0x1A17 CALLER DUP7 DUP7 DUP5 DUP2 DUP2 LT PUSH2 0x19EF JUMPI INVALID JUMPDEST SWAP1 POP PUSH1 0x20 MUL ADD CALLDATALOAD PUSH1 0x1 PUSH1 0x1 PUSH1 0xA0 SHL SUB AND DUP6 DUP6 DUP6 DUP2 DUP2 LT PUSH2 0x1A0B JUMPI INVALID JUMPDEST SWAP1 POP PUSH1 0x20 MUL ADD CALLDATALOAD PUSH2 0x1D43 JUMP JUMPDEST POP PUSH1 0x1 ADD PUSH2 0x19D7 JUMP JUMPDEST PUSH1 0x1 PUSH1 0x1 PUSH1 0xA0 SHL SUB AND PUSH1 0x0 SWAP1 DUP2 MSTORE PUSH1 0x6 PUSH1 0x20 MSTORE PUSH1 0x40 SWAP1 KECCAK256 SLOAD PUSH1 0xFF AND SWAP1 JUMP JUMPDEST PUSH1 0x19 SLOAD PUSH1 0x15 SLOAD PUSH1 0x1 PUSH1 0x1 PUSH1 0xA0 SHL SUB AND PUSH1 0x0 SWAP1 DUP2 MSTORE PUSH1 0x1A PUSH1 0x20 MSTORE PUSH1 0x40 DUP2 KECCAK256 SLOAD SWAP1 SWAP2 DUP3 SWAP2 PUSH2 0x1A69 SWAP2 PUSH2 0x1BE9 JUMP JUMPDEST SWAP1 POP PUSH2 0x1A8B PUSH2 0x1A76 PUSH2 0xFA8 JUMP JUMPDEST PUSH2 0xFFF PUSH2 0x1A84 DUP5 PUSH1 0x2 PUSH2 0x202F JUMP JUMPDEST DUP7 SWAP1 PUSH2 0x202F JUMP JUMPDEST SWAP4 SWAP3 POP POP POP JUMP JUMPDEST PUSH2 0x1A9A PUSH2 0x16BE JUMP JUMPDEST PUSH2 0x1AA3 JUMPI PUSH1 0x0 DUP1 REVERT JUMPDEST PUSH1 0x1 PUSH1 0x1 PUSH1 0xA0 SHL SUB AND PUSH1 0x0 SWAP1 DUP2 MSTORE PUSH1 0x5 PUSH1 0x20 MSTORE PUSH1 0x40 SWAP1 KECCAK256 DUP1 SLOAD PUSH1 0xFF NOT AND PUSH1 0x1 OR SWAP1 SSTORE JUMP JUMPDEST PUSH1 0x11 SLOAD PUSH1 0x1 PUSH1 0x1 PUSH1 0xA0 SHL SUB AND DUP2 JUMP JUMPDEST PUSH2 0x1ADE PUSH2 0x16BE JUMP JUMPDEST PUSH2 0x1AE7 JUMPI PUSH1 0x0 DUP1 REVERT JUMPDEST PUSH1 0xF DUP1 SLOAD PUSH1 0x1 PUSH1 0x1 PUSH1 0xA0 SHL SUB SWAP5 DUP6 AND PUSH1 0x1 PUSH1 0x1 PUSH1 0xA0 SHL SUB NOT SWAP2 DUP3 AND OR SWAP1 SWAP2 SSTORE PUSH1 0x10 DUP1 SLOAD SWAP4 DUP6 AND SWAP4 DUP3 AND SWAP4 SWAP1 SWAP4 OR SWAP1 SWAP3 SSTORE PUSH1 0x11 DUP1 SLOAD SWAP2 SWAP1 SWAP4 AND SWAP2 AND OR SWAP1 SSTORE JUMP JUMPDEST PUSH1 0x1 PUSH1 0x1 PUSH1 0xA0 SHL SUB SWAP2 DUP3 AND PUSH1 0x0 SWAP1 DUP2 MSTORE PUSH1 0x1B PUSH1 0x20 SWAP1 DUP2 MSTORE PUSH1 0x40 DUP1 DUP4 KECCAK256 SWAP4 SWAP1 SWAP5 AND DUP3 MSTORE SWAP2 SWAP1 SWAP2 MSTORE KECCAK256 SLOAD SWAP1 JUMP JUMPDEST PUSH2 0x1B59 PUSH2 0x16BE JUMP JUMPDEST PUSH2 0x1B62 JUMPI PUSH1 0x0 DUP1 REVERT JUMPDEST PUSH2 0x108A DUP2 PUSH2 0x2088 JUMP JUMPDEST PUSH1 0x14 SLOAD PUSH1 0x1 PUSH1 0x1 PUSH1 0xA0 SHL SUB AND DUP2 JUMP JUMPDEST PUSH1 0x1C PUSH1 0x20 MSTORE PUSH1 0x0 SWAP1 DUP2 MSTORE PUSH1 0x40 SWAP1 KECCAK256 SLOAD PUSH1 0xFF AND DUP2 JUMP JUMPDEST PUSH1 0x0 DUP3 DUP3 ADD DUP4 DUP2 LT ISZERO PUSH2 0x1A8B JUMPI PUSH1 0x40 DUP1 MLOAD PUSH3 0x461BCD PUSH1 0xE5 SHL DUP2 MSTORE PUSH1 0x20 PUSH1 0x4 DUP3 ADD MSTORE PUSH1 0x1B PUSH1 0x24 DUP3 ADD MSTORE PUSH32 0x536166654D6174683A206164646974696F6E206F766572666C6F770000000000 PUSH1 0x44 DUP3 ADD MSTORE SWAP1 MLOAD SWAP1 DUP2 SWAP1 SUB PUSH1 0x64 ADD SWAP1 REVERT JUMPDEST PUSH1 0x0 PUSH2 0x1A8B DUP4 DUP4 PUSH1 0x40 MLOAD DUP1 PUSH1 0x40 ADD PUSH1 0x40 MSTORE DUP1 PUSH1 0x1A DUP2 MSTORE PUSH1 0x20 ADD PUSH32 0x536166654D6174683A206469766973696F6E206279207A65726F000000000000 DUP2 MSTORE POP PUSH2 0x2102 JUMP JUMPDEST PUSH2 0x1C35 DUP3 DUP3 PUSH2 0x1FC8 JUMP JUMPDEST ISZERO PUSH2 0x1C87 JUMPI PUSH1 0x40 DUP1 MLOAD PUSH3 0x461BCD PUSH1 0xE5 SHL DUP2 MSTORE PUSH1 0x20 PUSH1 0x4 DUP3 ADD MSTORE PUSH1 0x1F PUSH1 0x24 DUP3 ADD MSTORE PUSH32 0x526F6C65733A206163636F756E7420616C72656164792068617320726F6C6500 PUSH1 0x44 DUP3 ADD MSTORE SWAP1 MLOAD SWAP1 DUP2 SWAP1 SUB PUSH1 0x64 ADD SWAP1 REVERT JUMPDEST PUSH1 0x1 PUSH1 0x1 PUSH1 0xA0 SHL SUB AND PUSH1 0x0 SWAP1 DUP2 MSTORE PUSH1 0x20 SWAP2 SWAP1 SWAP2 MSTORE PUSH1 0x40 SWAP1 KECCAK256 DUP1 SLOAD PUSH1 0xFF NOT AND PUSH1 0x1 OR SWAP1 SSTORE JUMP JUMPDEST PUSH1 0x0 DUP2 DUP5 DUP5 GT ISZERO PUSH2 0x1D3B JUMPI PUSH1 0x40 MLOAD PUSH3 0x461BCD PUSH1 0xE5 SHL DUP2 MSTORE PUSH1 0x4 ADD DUP1 DUP1 PUSH1 0x20 ADD DUP3 DUP2 SUB DUP3 MSTORE DUP4 DUP2 DUP2 MLOAD DUP2 MSTORE PUSH1 0x20 ADD SWAP2 POP DUP1 MLOAD SWAP1 PUSH1 0x20 ADD SWAP1 DUP1 DUP4 DUP4 PUSH1 0x0 JUMPDEST DUP4 DUP2 LT ISZERO PUSH2 0x1D00 JUMPI DUP2 DUP2 ADD MLOAD DUP4 DUP3 ADD MSTORE PUSH1 0x20 ADD PUSH2 0x1CE8 JUMP JUMPDEST POP POP POP POP SWAP1 POP SWAP1 DUP2 ADD SWAP1 PUSH1 0x1F AND DUP1 ISZERO PUSH2 0x1D2D JUMPI DUP1 DUP3 SUB DUP1 MLOAD PUSH1 0x1 DUP4 PUSH1 0x20 SUB PUSH2 0x100 EXP SUB NOT AND DUP2 MSTORE PUSH1 0x20 ADD SWAP2 POP JUMPDEST POP SWAP3 POP POP POP PUSH1 0x40 MLOAD DUP1 SWAP2 SUB SWAP1 REVERT JUMPDEST POP POP POP SWAP1 SUB SWAP1 JUMP JUMPDEST PUSH1 0x1 PUSH1 0x1 PUSH1 0xA0 SHL SUB DUP4 AND PUSH1 0x0 SWAP1 DUP2 MSTORE PUSH1 0x1C PUSH1 0x20 MSTORE PUSH1 0x40 DUP2 KECCAK256 SLOAD PUSH1 0xFF AND ISZERO DUP1 ISZERO PUSH2 0x1D85 JUMPI POP PUSH1 0x1 PUSH1 0x1 PUSH1 0xA0 SHL SUB DUP4 AND PUSH1 0x0 SWAP1 DUP2 MSTORE PUSH1 0x1C PUSH1 0x20 MSTORE PUSH1 0x40 SWAP1 KECCAK256 SLOAD PUSH1 0xFF AND ISZERO JUMPDEST PUSH2 0x1DC5 JUMPI PUSH1 0x40 DUP1 MLOAD PUSH3 0x461BCD PUSH1 0xE5 SHL DUP2 MSTORE PUSH1 0x20 PUSH1 0x4 DUP3 ADD MSTORE PUSH1 0xC PUSH1 0x24 DUP3 ADD MSTORE PUSH12 0x1A5B97D89B1858DADB1A5CDD PUSH1 0xA2 SHL PUSH1 0x44 DUP3 ADD MSTORE SWAP1 MLOAD SWAP1 DUP2 SWAP1 SUB PUSH1 0x64 ADD SWAP1 REVERT JUMPDEST PUSH1 0x17 SLOAD PUSH1 0xFF AND ISZERO PUSH2 0x1DE2 JUMPI PUSH2 0x1DDB DUP5 DUP5 DUP5 PUSH2 0x2167 JUMP JUMPDEST SWAP1 POP PUSH2 0x1A8B JUMP JUMPDEST PUSH1 0x0 PUSH2 0x1DF9 PUSH1 0x19 SLOAD DUP5 PUSH2 0x202F SWAP1 SWAP2 SWAP1 PUSH4 0xFFFFFFFF AND JUMP JUMPDEST SWAP1 POP PUSH2 0x1E03 PUSH2 0x21F9 JUMP JUMPDEST ISZERO PUSH2 0x1E10 JUMPI PUSH2 0x1E10 PUSH2 0x224F JUMP JUMPDEST PUSH1 0x1 PUSH1 0x1 PUSH1 0xA0 SHL SUB DUP6 AND PUSH1 0x0 SWAP1 DUP2 MSTORE PUSH1 0x1A PUSH1 0x20 MSTORE PUSH1 0x40 SWAP1 KECCAK256 SLOAD PUSH2 0x1E33 SWAP1 DUP3 PUSH2 0x1F02 JUMP JUMPDEST PUSH1 0x1 PUSH1 0x1 PUSH1 0xA0 SHL SUB DUP7 AND PUSH1 0x0 SWAP1 DUP2 MSTORE PUSH1 0x1A PUSH1 0x20 MSTORE PUSH1 0x40 DUP2 KECCAK256 SWAP2 SWAP1 SWAP2 SSTORE PUSH2 0x1E59 DUP7 DUP7 PUSH2 0x2667 JUMP JUMPDEST PUSH2 0x1E63 JUMPI DUP2 PUSH2 0x1E6E JUMP JUMPDEST PUSH2 0x1E6E DUP7 DUP7 DUP5 PUSH2 0x26BB JUMP JUMPDEST PUSH1 0x1 PUSH1 0x1 PUSH1 0xA0 SHL SUB DUP7 AND PUSH1 0x0 SWAP1 DUP2 MSTORE PUSH1 0x1A PUSH1 0x20 MSTORE PUSH1 0x40 SWAP1 KECCAK256 SLOAD SWAP1 SWAP2 POP PUSH2 0x1E94 SWAP1 DUP3 PUSH2 0x1B8F JUMP JUMPDEST PUSH1 0x1 PUSH1 0x1 PUSH1 0xA0 SHL SUB DUP1 DUP8 AND PUSH1 0x0 DUP2 DUP2 MSTORE PUSH1 0x1A PUSH1 0x20 MSTORE PUSH1 0x40 SWAP1 KECCAK256 SWAP3 SWAP1 SWAP3 SSTORE PUSH1 0x19 SLOAD SWAP1 DUP9 AND SWAP1 PUSH32 0xDDF252AD1BE2C89B69C2B068FC378DAA952BA7F163C4A11628F55A4DF523B3EF SWAP1 PUSH2 0x1EE5 SWAP1 DUP6 SWAP1 PUSH2 0x1BE9 JUMP JUMPDEST PUSH1 0x40 DUP1 MLOAD SWAP2 DUP3 MSTORE MLOAD SWAP1 DUP2 SWAP1 SUB PUSH1 0x20 ADD SWAP1 LOG3 POP PUSH1 0x1 SWAP6 SWAP5 POP POP POP POP POP JUMP JUMPDEST PUSH1 0x0 PUSH2 0x1A8B DUP4 DUP4 PUSH1 0x40 MLOAD DUP1 PUSH1 0x40 ADD PUSH1 0x40 MSTORE DUP1 PUSH1 0x1E DUP2 MSTORE PUSH1 0x20 ADD PUSH32 0x536166654D6174683A207375627472616374696F6E206F766572666C6F770000 DUP2 MSTORE POP PUSH2 0x1CAC JUMP JUMPDEST PUSH2 0x1F4F PUSH1 0x3 DUP3 PUSH2 0x278D JUMP JUMPDEST PUSH1 0x40 MLOAD PUSH1 0x1 PUSH1 0x1 PUSH1 0xA0 SHL SUB DUP3 AND SWAP1 PUSH32 0xE94479A9F7E1952CC78F2D6BAAB678ADC1B772D936C6583DEF489E524CB66692 SWAP1 PUSH1 0x0 SWAP1 LOG2 POP JUMP JUMPDEST PUSH2 0x1F91 PUSH1 0x3 DUP3 PUSH2 0x1C2B JUMP JUMPDEST PUSH1 0x40 MLOAD PUSH1 0x1 PUSH1 0x1 PUSH1 0xA0 SHL SUB DUP3 AND SWAP1 PUSH32 0x6AE172837EA30B801FBFCDD4108AA1D5BF8FF775444FD70256B44E6BF3DFC3F6 SWAP1 PUSH1 0x0 SWAP1 LOG2 POP JUMP JUMPDEST PUSH1 0x0 PUSH1 0x1 PUSH1 0x1 PUSH1 0xA0 SHL SUB DUP3 AND PUSH2 0x200F JUMPI PUSH1 0x40 MLOAD PUSH3 0x461BCD PUSH1 0xE5 SHL DUP2 MSTORE PUSH1 0x4 ADD DUP1 DUP1 PUSH1 0x20 ADD DUP3 DUP2 SUB DUP3 MSTORE PUSH1 0x22 DUP2 MSTORE PUSH1 0x20 ADD DUP1 PUSH2 0x2867 PUSH1 0x22 SWAP2 CODECOPY PUSH1 0x40 ADD SWAP2 POP POP PUSH1 0x40 MLOAD DUP1 SWAP2 SUB SWAP1 REVERT JUMPDEST POP PUSH1 0x1 PUSH1 0x1 PUSH1 0xA0 SHL SUB AND PUSH1 0x0 SWAP1 DUP2 MSTORE PUSH1 0x20 SWAP2 SWAP1 SWAP2 MSTORE PUSH1 0x40 SWAP1 KECCAK256 SLOAD PUSH1 0xFF AND SWAP1 JUMP JUMPDEST PUSH1 0x0 DUP3 PUSH2 0x203E JUMPI POP PUSH1 0x0 PUSH2 0xE86 JUMP JUMPDEST DUP3 DUP3 MUL DUP3 DUP5 DUP3 DUP2 PUSH2 0x204B JUMPI INVALID JUMPDEST DIV EQ PUSH2 0x1A8B JUMPI PUSH1 0x40 MLOAD PUSH3 0x461BCD PUSH1 0xE5 SHL DUP2 MSTORE PUSH1 0x4 ADD DUP1 DUP1 PUSH1 0x20 ADD DUP3 DUP2 SUB DUP3 MSTORE PUSH1 0x21 DUP2 MSTORE PUSH1 0x20 ADD DUP1 PUSH2 0x2846 PUSH1 0x21 SWAP2 CODECOPY PUSH1 0x40 ADD SWAP2 POP POP PUSH1 0x40 MLOAD DUP1 SWAP2 SUB SWAP1 REVERT JUMPDEST PUSH1 0x1 PUSH1 0x1 PUSH1 0xA0 SHL SUB DUP2 AND PUSH2 0x209B JUMPI PUSH1 0x0 DUP1 REVERT JUMPDEST PUSH1 0x2 SLOAD PUSH1 0x40 MLOAD PUSH1 0x1 PUSH1 0x1 PUSH1 0xA0 SHL SUB DUP1 DUP5 AND SWAP3 PUSH2 0x100 SWAP1 DIV AND SWAP1 PUSH32 0x8BE0079C531659141344CD1FD0A4F28419497F9722A3DAAFE3B4186F6B6457E0 SWAP1 PUSH1 0x0 SWAP1 LOG3 PUSH1 0x2 DUP1 SLOAD PUSH1 0x1 PUSH1 0x1 PUSH1 0xA0 SHL SUB SWAP1 SWAP3 AND PUSH2 0x100 MUL PUSH2 0x100 PUSH1 0x1 PUSH1 0xA8 SHL SUB NOT SWAP1 SWAP3 AND SWAP2 SWAP1 SWAP2 OR SWAP1 SSTORE JUMP JUMPDEST PUSH1 0x0 DUP2 DUP4 PUSH2 0x2151 JUMPI PUSH1 0x40 MLOAD PUSH3 0x461BCD PUSH1 0xE5 SHL DUP2 MSTORE PUSH1 0x20 PUSH1 0x4 DUP3 ADD DUP2 DUP2 MSTORE DUP4 MLOAD PUSH1 0x24 DUP5 ADD MSTORE DUP4 MLOAD SWAP1 SWAP3 DUP4 SWAP3 PUSH1 0x44 SWAP1 SWAP2 ADD SWAP2 SWAP1 DUP6 ADD SWAP1 DUP1 DUP4 DUP4 PUSH1 0x0 DUP4 ISZERO PUSH2 0x1D00 JUMPI DUP2 DUP2 ADD MLOAD DUP4 DUP3 ADD MSTORE PUSH1 0x20 ADD PUSH2 0x1CE8 JUMP JUMPDEST POP PUSH1 0x0 DUP4 DUP6 DUP2 PUSH2 0x215D JUMPI INVALID JUMPDEST DIV SWAP6 SWAP5 POP POP POP POP POP JUMP JUMPDEST PUSH1 0x0 DUP1 PUSH2 0x217F PUSH1 0x19 SLOAD DUP5 PUSH2 0x202F SWAP1 SWAP2 SWAP1 PUSH4 0xFFFFFFFF AND JUMP JUMPDEST PUSH1 0x1 PUSH1 0x1 PUSH1 0xA0 SHL SUB DUP7 AND PUSH1 0x0 SWAP1 DUP2 MSTORE PUSH1 0x1A PUSH1 0x20 MSTORE PUSH1 0x40 SWAP1 KECCAK256 SLOAD SWAP1 SWAP2 POP PUSH2 0x21A5 SWAP1 DUP3 PUSH2 0x1F02 JUMP JUMPDEST PUSH1 0x1 PUSH1 0x1 PUSH1 0xA0 SHL SUB DUP1 DUP8 AND PUSH1 0x0 SWAP1 DUP2 MSTORE PUSH1 0x1A PUSH1 0x20 MSTORE PUSH1 0x40 DUP1 DUP3 KECCAK256 SWAP4 SWAP1 SWAP4 SSTORE SWAP1 DUP7 AND DUP2 MSTORE KECCAK256 SLOAD PUSH2 0x21D4 SWAP1 DUP3 PUSH2 0x1B8F JUMP JUMPDEST PUSH1 0x1 PUSH1 0x1 PUSH1 0xA0 SHL SUB DUP6 AND PUSH1 0x0 SWAP1 DUP2 MSTORE PUSH1 0x1A PUSH1 0x20 MSTORE PUSH1 0x40 SWAP1 KECCAK256 SSTORE POP PUSH1 0x1 SWAP1 POP SWAP4 SWAP3 POP POP POP JUMP JUMPDEST PUSH1 0x15 SLOAD PUSH1 0x0 SWAP1 PUSH1 0x1 PUSH1 0x1 PUSH1 0xA0 SHL SUB AND CALLER EQ DUP1 ISZERO SWAP1 PUSH2 0x221A JUMPI POP PUSH1 0x17 SLOAD PUSH1 0xFF AND ISZERO JUMPDEST DUP1 ISZERO PUSH2 0x222F JUMPI POP PUSH1 0x15 SLOAD PUSH1 0x1 PUSH1 0xA0 SHL SWAP1 DIV PUSH1 0xFF AND JUMPDEST DUP1 ISZERO PUSH2 0x1005 JUMPI POP POP PUSH1 0x16 SLOAD ADDRESS PUSH1 0x0 SWAP1 DUP2 MSTORE PUSH1 0x1A PUSH1 0x20 MSTORE PUSH1 0x40 SWAP1 KECCAK256 SLOAD LT ISZERO SWAP1 JUMP JUMPDEST PUSH1 0x17 DUP1 SLOAD PUSH1 0xFF NOT AND PUSH1 0x1 OR SWAP1 SSTORE PUSH1 0x12 SLOAD PUSH1 0x13 SLOAD PUSH1 0x0 SWAP2 PUSH2 0x226E SWAP2 PUSH2 0xE8C JUMP JUMPDEST PUSH2 0x227A JUMPI PUSH1 0x7 SLOAD PUSH2 0x227D JUMP JUMPDEST PUSH1 0x0 JUMPDEST PUSH1 0x19 SLOAD ADDRESS PUSH1 0x0 SWAP1 DUP2 MSTORE PUSH1 0x1A PUSH1 0x20 MSTORE PUSH1 0x40 DUP2 KECCAK256 SLOAD SWAP3 SWAP4 POP SWAP2 PUSH2 0x229D SWAP2 PUSH2 0x1BE9 JUMP JUMPDEST SWAP1 POP PUSH1 0x0 PUSH2 0x22BF PUSH1 0x2 PUSH2 0xFFF PUSH1 0xB SLOAD PUSH2 0xFFF DUP8 DUP8 PUSH2 0x202F SWAP1 SWAP2 SWAP1 PUSH4 0xFFFFFFFF AND JUMP JUMPDEST SWAP1 POP PUSH1 0x0 PUSH2 0x22CD DUP4 DUP4 PUSH2 0x1F02 JUMP JUMPDEST PUSH1 0x40 DUP1 MLOAD PUSH1 0x2 DUP1 DUP3 MSTORE PUSH1 0x60 DUP1 DUP4 ADD DUP5 MSTORE SWAP4 SWAP5 POP SWAP1 SWAP2 PUSH1 0x20 DUP4 ADD SWAP1 DUP1 CALLDATASIZE DUP4 CALLDATACOPY ADD SWAP1 POP POP SWAP1 POP ADDRESS DUP2 PUSH1 0x0 DUP2 MLOAD DUP2 LT PUSH2 0x22FF JUMPI INVALID JUMPDEST PUSH1 0x1 PUSH1 0x1 PUSH1 0xA0 SHL SUB SWAP3 DUP4 AND PUSH1 0x20 SWAP2 DUP3 MUL SWAP3 SWAP1 SWAP3 ADD DUP2 ADD SWAP2 SWAP1 SWAP2 MSTORE PUSH1 0x14 SLOAD PUSH1 0x40 DUP1 MLOAD PUSH4 0x15AB88C9 PUSH1 0xE3 SHL DUP2 MSTORE SWAP1 MLOAD SWAP2 SWAP1 SWAP4 AND SWAP3 PUSH4 0xAD5C4648 SWAP3 PUSH1 0x4 DUP1 DUP4 ADD SWAP4 SWAP2 SWAP3 DUP3 SWAP1 SUB ADD DUP2 DUP7 DUP1 EXTCODESIZE ISZERO DUP1 ISZERO PUSH2 0x2353 JUMPI PUSH1 0x0 DUP1 REVERT JUMPDEST POP GAS STATICCALL ISZERO DUP1 ISZERO PUSH2 0x2367 JUMPI RETURNDATASIZE PUSH1 0x0 DUP1 RETURNDATACOPY RETURNDATASIZE PUSH1 0x0 REVERT JUMPDEST POP POP POP POP PUSH1 0x40 MLOAD RETURNDATASIZE PUSH1 0x20 DUP2 LT ISZERO PUSH2 0x237D JUMPI PUSH1 0x0 DUP1 REVERT JUMPDEST POP MLOAD DUP2 MLOAD DUP3 SWAP1 PUSH1 0x1 SWAP1 DUP2 LT PUSH2 0x238E JUMPI INVALID JUMPDEST PUSH1 0x1 PUSH1 0x1 PUSH1 0xA0 SHL SUB SWAP3 DUP4 AND PUSH1 0x20 SWAP2 DUP3 MUL SWAP3 SWAP1 SWAP3 ADD DUP2 ADD SWAP2 SWAP1 SWAP2 MSTORE PUSH1 0x14 SLOAD PUSH1 0x40 MLOAD PUSH4 0x791AC947 PUSH1 0xE0 SHL DUP2 MSTORE PUSH1 0x4 DUP2 ADD DUP7 DUP2 MSTORE PUSH1 0x0 PUSH1 0x24 DUP4 ADD DUP2 SWAP1 MSTORE ADDRESS PUSH1 0x64 DUP5 ADD DUP2 SWAP1 MSTORE TIMESTAMP PUSH1 0x84 DUP6 ADD DUP2 SWAP1 MSTORE PUSH1 0xA0 PUSH1 0x44 DUP7 ADD SWAP1 DUP2 MSTORE DUP10 MLOAD PUSH1 0xA4 DUP8 ADD MSTORE DUP10 MLOAD SELFBALANCE SWAP10 SWAP8 SWAP1 SWAP8 AND SWAP8 PUSH4 0x791AC947 SWAP8 DUP13 SWAP8 SWAP6 SWAP7 DUP13 SWAP7 SWAP1 SWAP4 SWAP3 PUSH1 0xC4 SWAP1 SWAP2 ADD SWAP2 DUP8 DUP3 ADD SWAP2 MUL DUP1 DUP4 DUP4 DUP12 JUMPDEST DUP4 DUP2 LT ISZERO PUSH2 0x2428 JUMPI DUP2 DUP2 ADD MLOAD DUP4 DUP3 ADD MSTORE PUSH1 0x20 ADD PUSH2 0x2410 JUMP JUMPDEST POP POP POP POP SWAP1 POP ADD SWAP7 POP POP POP POP POP POP POP PUSH1 0x0 PUSH1 0x40 MLOAD DUP1 DUP4 SUB DUP2 PUSH1 0x0 DUP8 DUP1 EXTCODESIZE ISZERO DUP1 ISZERO PUSH2 0x2451 JUMPI PUSH1 0x0 DUP1 REVERT JUMPDEST POP GAS CALL ISZERO DUP1 ISZERO PUSH2 0x2465 JUMPI RETURNDATASIZE PUSH1 0x0 DUP1 RETURNDATACOPY RETURNDATASIZE PUSH1 0x0 REVERT JUMPDEST POP POP POP POP PUSH1 0x0 PUSH2 0x247E DUP3 SELFBALANCE PUSH2 0x1F02 SWAP1 SWAP2 SWAP1 PUSH4 0xFFFFFFFF AND JUMP JUMPDEST SWAP1 POP PUSH1 0x0 PUSH2 0x2499 PUSH2 0x2490 DUP10 PUSH1 0x2 PUSH2 0x1BE9 JUMP JUMPDEST PUSH1 0xB SLOAD SWAP1 PUSH2 0x1F02 JUMP JUMPDEST SWAP1 POP PUSH1 0x0 PUSH2 0x24AE PUSH1 0x2 PUSH2 0xFFF DUP5 DUP2 DUP8 DUP15 PUSH2 0x202F JUMP JUMPDEST SWAP1 POP PUSH1 0x0 PUSH2 0x24CB DUP4 PUSH2 0xFFF PUSH1 0x9 SLOAD DUP8 PUSH2 0x202F SWAP1 SWAP2 SWAP1 PUSH4 0xFFFFFFFF AND JUMP JUMPDEST SWAP1 POP PUSH1 0x0 PUSH2 0x24E8 DUP5 PUSH2 0xFFF PUSH1 0x8 SLOAD DUP9 PUSH2 0x202F SWAP1 SWAP2 SWAP1 PUSH4 0xFFFFFFFF AND JUMP JUMPDEST PUSH1 0x10 SLOAD PUSH1 0x40 MLOAD SWAP2 SWAP3 POP PUSH1 0x0 SWAP2 PUSH1 0x1 PUSH1 0x1 PUSH1 0xA0 SHL SUB SWAP1 SWAP2 AND SWAP1 PUSH2 0x7530 SWAP1 DUP5 SWAP1 DUP5 DUP2 DUP2 DUP2 DUP6 DUP9 DUP9 CALL SWAP4 POP POP POP POP RETURNDATASIZE DUP1 PUSH1 0x0 DUP2 EQ PUSH2 0x253F JUMPI PUSH1 0x40 MLOAD SWAP2 POP PUSH1 0x1F NOT PUSH1 0x3F RETURNDATASIZE ADD AND DUP3 ADD PUSH1 0x40 MSTORE RETURNDATASIZE DUP3 MSTORE RETURNDATASIZE PUSH1 0x0 PUSH1 0x20 DUP5 ADD RETURNDATACOPY PUSH2 0x2544 JUMP JUMPDEST PUSH1 0x60 SWAP2 POP JUMPDEST POP POP PUSH1 0x11 SLOAD PUSH1 0x40 MLOAD SWAP2 SWAP3 POP PUSH1 0x1 PUSH1 0x1 PUSH1 0xA0 SHL SUB AND SWAP1 PUSH2 0x7530 SWAP1 DUP6 SWAP1 PUSH1 0x0 DUP2 DUP2 DUP2 DUP6 DUP9 DUP9 CALL SWAP4 POP POP POP POP RETURNDATASIZE DUP1 PUSH1 0x0 DUP2 EQ PUSH2 0x2599 JUMPI PUSH1 0x40 MLOAD SWAP2 POP PUSH1 0x1F NOT PUSH1 0x3F RETURNDATASIZE ADD AND DUP3 ADD PUSH1 0x40 MSTORE RETURNDATASIZE DUP3 MSTORE RETURNDATASIZE PUSH1 0x0 PUSH1 0x20 DUP5 ADD RETURNDATACOPY PUSH2 0x259E JUMP JUMPDEST PUSH1 0x60 SWAP2 POP JUMPDEST POP PUSH1 0x0 SWAP3 POP POP DUP11 ISZERO SWAP1 POP PUSH2 0x264F JUMPI PUSH1 0x14 SLOAD PUSH1 0xF SLOAD PUSH1 0x40 DUP1 MLOAD PUSH4 0xF305D719 PUSH1 0xE0 SHL DUP2 MSTORE ADDRESS PUSH1 0x4 DUP3 ADD MSTORE PUSH1 0x24 DUP2 ADD DUP15 SWAP1 MSTORE PUSH1 0x0 PUSH1 0x44 DUP3 ADD DUP2 SWAP1 MSTORE PUSH1 0x64 DUP3 ADD MSTORE PUSH1 0x1 PUSH1 0x1 PUSH1 0xA0 SHL SUB SWAP3 DUP4 AND PUSH1 0x84 DUP3 ADD MSTORE TIMESTAMP PUSH1 0xA4 DUP3 ADD MSTORE SWAP1 MLOAD SWAP2 SWAP1 SWAP3 AND SWAP2 PUSH4 0xF305D719 SWAP2 DUP8 SWAP2 PUSH1 0xC4 DUP1 DUP3 ADD SWAP3 PUSH1 0x60 SWAP3 SWAP1 SWAP2 SWAP1 DUP3 SWAP1 SUB ADD DUP2 DUP6 DUP9 DUP1 EXTCODESIZE ISZERO DUP1 ISZERO PUSH2 0x2621 JUMPI PUSH1 0x0 DUP1 REVERT JUMPDEST POP GAS CALL ISZERO DUP1 ISZERO PUSH2 0x2635 JUMPI RETURNDATASIZE PUSH1 0x0 DUP1 RETURNDATACOPY RETURNDATASIZE PUSH1 0x0 REVERT JUMPDEST POP POP POP POP POP PUSH1 0x40 MLOAD RETURNDATASIZE PUSH1 0x60 DUP2 LT ISZERO PUSH2 0x264C JUMPI PUSH1 0x0 DUP1 REVERT JUMPDEST POP POP JUMPDEST POP POP PUSH1 0x17 DUP1 SLOAD PUSH1 0xFF NOT AND SWAP1 SSTORE POP POP POP POP POP POP POP POP POP POP JUMP JUMPDEST PUSH1 0x15 SLOAD PUSH1 0x0 SWAP1 PUSH1 0x1 PUSH1 0x1 PUSH1 0xA0 SHL SUB DUP5 DUP2 AND SWAP2 AND EQ DUP1 PUSH2 0x2693 JUMPI POP PUSH1 0x15 SLOAD PUSH1 0x1 PUSH1 0x1 PUSH1 0xA0 SHL SUB DUP4 DUP2 AND SWAP2 AND EQ JUMPDEST DUP1 ISZERO PUSH2 0x1A8B JUMPI POP POP POP PUSH1 0x1 PUSH1 0x1 PUSH1 0xA0 SHL SUB AND PUSH1 0x0 SWAP1 DUP2 MSTORE PUSH1 0x6 PUSH1 0x20 MSTORE PUSH1 0x40 SWAP1 KECCAK256 SLOAD PUSH1 0xFF AND ISZERO SWAP1 JUMP JUMPDEST PUSH1 0xB SLOAD PUSH1 0x15 SLOAD PUSH1 0x0 SWAP2 SWAP1 PUSH1 0x1 PUSH1 0x1 PUSH1 0xA0 SHL SUB DUP6 DUP2 AND SWAP2 AND EQ ISZERO PUSH2 0x26E9 JUMPI PUSH1 0xA SLOAD PUSH2 0x26E6 SWAP1 DUP3 SWAP1 PUSH2 0x1B8F JUMP JUMPDEST SWAP1 POP JUMPDEST PUSH1 0xC SLOAD PUSH1 0x0 SWAP1 PUSH2 0x26FD SWAP1 PUSH2 0xFFF DUP7 DUP6 PUSH2 0x202F JUMP JUMPDEST ADDRESS PUSH1 0x0 SWAP1 DUP2 MSTORE PUSH1 0x1A PUSH1 0x20 MSTORE PUSH1 0x40 SWAP1 KECCAK256 SLOAD SWAP1 SWAP2 POP PUSH2 0x271A SWAP1 DUP3 PUSH2 0x1B8F JUMP JUMPDEST ADDRESS PUSH1 0x0 DUP2 DUP2 MSTORE PUSH1 0x1A PUSH1 0x20 MSTORE PUSH1 0x40 SWAP1 KECCAK256 SWAP2 SWAP1 SWAP2 SSTORE PUSH1 0x19 SLOAD PUSH1 0x1 PUSH1 0x1 PUSH1 0xA0 SHL SUB DUP9 AND SWAP1 PUSH32 0xDDF252AD1BE2C89B69C2B068FC378DAA952BA7F163C4A11628F55A4DF523B3EF SWAP1 PUSH2 0x2768 SWAP1 DUP6 SWAP1 PUSH2 0x1BE9 JUMP JUMPDEST PUSH1 0x40 DUP1 MLOAD SWAP2 DUP3 MSTORE MLOAD SWAP1 DUP2 SWAP1 SUB PUSH1 0x20 ADD SWAP1 LOG3 PUSH2 0x2783 DUP5 DUP3 PUSH2 0x1F02 JUMP JUMPDEST SWAP7 SWAP6 POP POP POP POP POP POP JUMP JUMPDEST PUSH2 0x2797 DUP3 DUP3 PUSH2 0x1FC8 JUMP JUMPDEST PUSH2 0x27D2 JUMPI PUSH1 0x40 MLOAD PUSH3 0x461BCD PUSH1 0xE5 SHL DUP2 MSTORE PUSH1 0x4 ADD DUP1 DUP1 PUSH1 0x20 ADD DUP3 DUP2 SUB DUP3 MSTORE PUSH1 0x21 DUP2 MSTORE PUSH1 0x20 ADD DUP1 PUSH2 0x2825 PUSH1 0x21 SWAP2 CODECOPY PUSH1 0x40 ADD SWAP2 POP POP PUSH1 0x40 MLOAD DUP1 SWAP2 SUB SWAP1 REVERT JUMPDEST PUSH1 0x1 PUSH1 0x1 PUSH1 0xA0 SHL SUB AND PUSH1 0x0 SWAP1 DUP2 MSTORE PUSH1 0x20 SWAP2 SWAP1 SWAP2 MSTORE PUSH1 0x40 SWAP1 KECCAK256 DUP1 SLOAD PUSH1 0xFF NOT AND SWAP1 SSTORE JUMP INVALID 0x4D PUSH10 0x6E746572526F6C653A20 PUSH4 0x616C6C65 PUSH19 0x20646F6573206E6F7420686176652074686520 0x4D PUSH10 0x6E74657220726F6C6552 PUSH16 0x6C65733A206163636F756E7420646F65 PUSH20 0x206E6F74206861766520726F6C65536166654D61 PUSH21 0x683A206D756C7469706C69636174696F6E206F7665 PUSH19 0x666C6F77526F6C65733A206163636F756E7420 PUSH10 0x7320746865207A65726F KECCAK256 PUSH2 0x6464 PUSH19 0x657373A2646970667358221220BAA1C6C1681B DUP5 PUSH16 0xE2FA110A4564947A67973DDF4695E023 0xBF 0xA5 RETURNDATACOPY 0xB3 EXP 0xE0 SMOD 0xE6 PUSH5 0x736F6C6343 STOP SMOD DIV STOP CALLER MSTORE PUSH16 0x6C65733A206163636F756E7420697320 PUSH21 0x6865207A65726F2061646472657373000000000000 "
				},
				"gasEstimates": {
					"creation": {
						"codeDepositCost": "2086000",
						"executionCost": "infinite",
						"totalCost": "infinite"
					},
					"external": {
						"RiskFreeValue()": "1066",
						"RiskFreeValueReceiver()": "1126",
						"Treasury()": "1132",
						"TreasuryReceiver()": "1128",
						"addMinter(address)": "infinite",
						"allowance(address,address)": "1316",
						"approve(address,uint256)": "24996",
						"autoLiquidityReceiver()": "1127",
						"balanceOf(address)": "2499",
						"blacklist(address)": "1268",
						"checkFeeExempt(address)": "1265",
						"checkSwapThreshold()": "infinite",
						"clearStuckBalance(uint256,address)": "infinite",
						"decimals()": "1104",
						"decreaseAllowance(address,uint256)": "infinite",
						"enableTransfer(address)": "22057",
						"feeDenominator()": "1133",
						"getCirculatingSupply()": "infinite",
						"getLiquidityBacking(uint256)": "infinite",
						"increaseAllowance(address,uint256)": "26007",
						"initialDistributionFinished()": "1094",
						"isMinter(address)": "infinite",
						"isNotInSwap()": "1126",
						"isOverLiquified(uint256,uint256)": "infinite",
						"isOwner()": "1128",
						"liquidityFee()": "1066",
						"manualSync()": "infinite",
						"mint(address,uint256)": "infinite",
						"name()": "infinite",
						"owner()": "1116",
						"pair()": "1126",
						"pairContract()": "1149",
						"rebase(uint256,int256)": "infinite",
						"removeMinter(address)": "infinite",
						"renounceMinter()": "infinite",
						"renounceOwnership()": "23922",
						"rescueToken(address,uint256)": "infinite",
						"router()": "1147",
						"sellFee()": "1088",
						"sendPresale(address[],uint256[])": "infinite",
						"setFeeExempt(address)": "22101",
						"setFeeReceivers(address,address,address)": "63779",
						"setFees(uint256,uint256,uint256,uint256,uint256)": "infinite",
						"setInitialDistributionFinished()": "21970",
						"setLP(address)": "22097",
						"setSwapBackSettings(bool,uint256,uint256)": "infinite",
						"setTargetLiquidity(uint256,uint256)": "41185",
						"swapEnabled()": "1139",
						"symbol()": "infinite",
						"totalFee()": "1067",
						"totalSupply()": "1155",
						"transfer(address,uint256)": "infinite",
						"transferFrom(address,address,uint256)": "infinite",
						"transferOwnership(address)": "24479",
						"updateBlacklist(address,bool)": "22147"
					},
					"internal": {
						"_basicTransfer(address,address,uint256)": "infinite",
						"_transferFrom(address,address,uint256)": "infinite",
						"shouldSwapBack()": "4238",
						"shouldTakeFee(address,address)": "2636",
						"swapBack()": "infinite",
						"takeFee(address,address,uint256)": "infinite",
						"transferToAddressETH(address payable,uint256)": "infinite"
					}
				},
				"methodIdentifiers": {
					"RiskFreeValue()": "bda5c8bb",
					"RiskFreeValueReceiver()": "d7ac6585",
					"Treasury()": "563df32f",
					"TreasuryReceiver()": "800cee51",
					"addMinter(address)": "983b2d56",
					"allowance(address,address)": "dd62ed3e",
					"approve(address,uint256)": "095ea7b3",
					"autoLiquidityReceiver()": "ca33e64c",
					"balanceOf(address)": "70a08231",
					"blacklist(address)": "f9f92be4",
					"checkFeeExempt(address)": "d4399790",
					"checkSwapThreshold()": "6d351d1a",
					"clearStuckBalance(uint256,address)": "56a227f2",
					"decimals()": "313ce567",
					"decreaseAllowance(address,uint256)": "a457c2d7",
					"enableTransfer(address)": "d5938aac",
					"feeDenominator()": "180b0d7e",
					"getCirculatingSupply()": "2b112e49",
					"getLiquidityBacking(uint256)": "d51ed1c8",
					"increaseAllowance(address,uint256)": "39509351",
					"initialDistributionFinished()": "d1fce264",
					"isMinter(address)": "aa271e1a",
					"isNotInSwap()": "83b4ac68",
					"isOverLiquified(uint256,uint256)": "1161ae39",
					"isOwner()": "8f32d59b",
					"liquidityFee()": "98118cb4",
					"manualSync()": "753d02a1",
					"mint(address,uint256)": "40c10f19",
					"name()": "06fdde03",
					"owner()": "8da5cb5b",
					"pair()": "a8aa1b31",
					"pairContract()": "4d709adf",
					"rebase(uint256,int256)": "7a43e23f",
					"removeMinter(address)": "3092afd5",
					"renounceMinter()": "98650275",
					"renounceOwnership()": "715018a6",
					"rescueToken(address,uint256)": "33f3d628",
					"router()": "f887ea40",
					"sellFee()": "2b14ca56",
					"sendPresale(address[],uint256[])": "d37e219d",
					"setFeeExempt(address)": "749796a5",
					"setFeeReceivers(address,address,address)": "d7c01032",
					"setFees(uint256,uint256,uint256,uint256,uint256)": "04a66b48",
					"setInitialDistributionFinished()": "2be6937d",
					"setLP(address)": "2f34d282",
					"setSwapBackSettings(bool,uint256,uint256)": "d0889358",
					"setTargetLiquidity(uint256,uint256)": "201e7991",
					"swapEnabled()": "6ddd1713",
					"symbol()": "95d89b41",
					"totalFee()": "1df4ccfc",
					"totalSupply()": "18160ddd",
					"transfer(address,uint256)": "a9059cbb",
					"transferFrom(address,address,uint256)": "23b872dd",
					"transferOwnership(address)": "f2fde38b",
					"updateBlacklist(address,bool)": "9155e083"
				}
			},
			"storageLayout": {
				"storage": [
					{
						"astId": 604,
						"contract": "AndrewTate-testnet.sol.sol:AndrewTateToken",
						"label": "_name",
						"offset": 0,
						"slot": "0",
						"type": "t_string_storage"
					},
					{
						"astId": 606,
						"contract": "AndrewTate-testnet.sol.sol:AndrewTateToken",
						"label": "_symbol",
						"offset": 0,
						"slot": "1",
						"type": "t_string_storage"
					},
					{
						"astId": 608,
						"contract": "AndrewTate-testnet.sol.sol:AndrewTateToken",
						"label": "_decimals",
						"offset": 0,
						"slot": "2",
						"type": "t_uint8"
					},
					{
						"astId": 764,
						"contract": "AndrewTate-testnet.sol.sol:AndrewTateToken",
						"label": "_owner",
						"offset": 1,
						"slot": "2",
						"type": "t_address"
					},
					{
						"astId": 524,
						"contract": "AndrewTate-testnet.sol.sol:AndrewTateToken",
						"label": "_minters",
						"offset": 0,
						"slot": "3",
						"type": "t_struct(Role)433_storage"
					},
					{
						"astId": 885,
						"contract": "AndrewTate-testnet.sol.sol:AndrewTateToken",
						"label": "pairContract",
						"offset": 0,
						"slot": "4",
						"type": "t_contract(InterfaceLP)428"
					},
					{
						"astId": 887,
						"contract": "AndrewTate-testnet.sol.sol:AndrewTateToken",
						"label": "initialDistributionFinished",
						"offset": 20,
						"slot": "4",
						"type": "t_bool"
					},
					{
						"astId": 891,
						"contract": "AndrewTate-testnet.sol.sol:AndrewTateToken",
						"label": "allowTransfer",
						"offset": 0,
						"slot": "5",
						"type": "t_mapping(t_address,t_bool)"
					},
					{
						"astId": 895,
						"contract": "AndrewTate-testnet.sol.sol:AndrewTateToken",
						"label": "_isFeeExempt",
						"offset": 0,
						"slot": "6",
						"type": "t_mapping(t_address,t_bool)"
					},
					{
						"astId": 950,
						"contract": "AndrewTate-testnet.sol.sol:AndrewTateToken",
						"label": "liquidityFee",
						"offset": 0,
						"slot": "7",
						"type": "t_uint256"
					},
					{
						"astId": 953,
						"contract": "AndrewTate-testnet.sol.sol:AndrewTateToken",
						"label": "Treasury",
						"offset": 0,
						"slot": "8",
						"type": "t_uint256"
					},
					{
						"astId": 956,
						"contract": "AndrewTate-testnet.sol.sol:AndrewTateToken",
						"label": "RiskFreeValue",
						"offset": 0,
						"slot": "9",
						"type": "t_uint256"
					},
					{
						"astId": 959,
						"contract": "AndrewTate-testnet.sol.sol:AndrewTateToken",
						"label": "sellFee",
						"offset": 0,
						"slot": "10",
						"type": "t_uint256"
					},
					{
						"astId": 968,
						"contract": "AndrewTate-testnet.sol.sol:AndrewTateToken",
						"label": "totalFee",
						"offset": 0,
						"slot": "11",
						"type": "t_uint256"
					},
					{
						"astId": 971,
						"contract": "AndrewTate-testnet.sol.sol:AndrewTateToken",
						"label": "feeDenominator",
						"offset": 0,
						"slot": "12",
						"type": "t_uint256"
					},
					{
						"astId": 974,
						"contract": "AndrewTate-testnet.sol.sol:AndrewTateToken",
						"label": "DEAD",
						"offset": 0,
						"slot": "13",
						"type": "t_address"
					},
					{
						"astId": 977,
						"contract": "AndrewTate-testnet.sol.sol:AndrewTateToken",
						"label": "ZERO",
						"offset": 0,
						"slot": "14",
						"type": "t_address"
					},
					{
						"astId": 979,
						"contract": "AndrewTate-testnet.sol.sol:AndrewTateToken",
						"label": "autoLiquidityReceiver",
						"offset": 0,
						"slot": "15",
						"type": "t_address"
					},
					{
						"astId": 981,
						"contract": "AndrewTate-testnet.sol.sol:AndrewTateToken",
						"label": "TreasuryReceiver",
						"offset": 0,
						"slot": "16",
						"type": "t_address"
					},
					{
						"astId": 983,
						"contract": "AndrewTate-testnet.sol.sol:AndrewTateToken",
						"label": "RiskFreeValueReceiver",
						"offset": 0,
						"slot": "17",
						"type": "t_address"
					},
					{
						"astId": 986,
						"contract": "AndrewTate-testnet.sol.sol:AndrewTateToken",
						"label": "targetLiquidity",
						"offset": 0,
						"slot": "18",
						"type": "t_uint256"
					},
					{
						"astId": 989,
						"contract": "AndrewTate-testnet.sol.sol:AndrewTateToken",
						"label": "targetLiquidityDenominator",
						"offset": 0,
						"slot": "19",
						"type": "t_uint256"
					},
					{
						"astId": 991,
						"contract": "AndrewTate-testnet.sol.sol:AndrewTateToken",
						"label": "router",
						"offset": 0,
						"slot": "20",
						"type": "t_contract(IDEXRouter)752"
					},
					{
						"astId": 993,
						"contract": "AndrewTate-testnet.sol.sol:AndrewTateToken",
						"label": "pair",
						"offset": 0,
						"slot": "21",
						"type": "t_address"
					},
					{
						"astId": 996,
						"contract": "AndrewTate-testnet.sol.sol:AndrewTateToken",
						"label": "swapEnabled",
						"offset": 20,
						"slot": "21",
						"type": "t_bool"
					},
					{
						"astId": 1004,
						"contract": "AndrewTate-testnet.sol.sol:AndrewTateToken",
						"label": "gonSwapThreshold",
						"offset": 0,
						"slot": "22",
						"type": "t_uint256"
					},
					{
						"astId": 1006,
						"contract": "AndrewTate-testnet.sol.sol:AndrewTateToken",
						"label": "inSwap",
						"offset": 0,
						"slot": "23",
						"type": "t_bool"
					},
					{
						"astId": 1035,
						"contract": "AndrewTate-testnet.sol.sol:AndrewTateToken",
						"label": "_totalSupply",
						"offset": 0,
						"slot": "24",
						"type": "t_uint256"
					},
					{
						"astId": 1037,
						"contract": "AndrewTate-testnet.sol.sol:AndrewTateToken",
						"label": "_gonsPerFragment",
						"offset": 0,
						"slot": "25",
						"type": "t_uint256"
					},
					{
						"astId": 1041,
						"contract": "AndrewTate-testnet.sol.sol:AndrewTateToken",
						"label": "_gonBalances",
						"offset": 0,
						"slot": "26",
						"type": "t_mapping(t_address,t_uint256)"
					},
					{
						"astId": 1047,
						"contract": "AndrewTate-testnet.sol.sol:AndrewTateToken",
						"label": "_allowedFragments",
						"offset": 0,
						"slot": "27",
						"type": "t_mapping(t_address,t_mapping(t_address,t_uint256))"
					},
					{
						"astId": 1051,
						"contract": "AndrewTate-testnet.sol.sol:AndrewTateToken",
						"label": "blacklist",
						"offset": 0,
						"slot": "28",
						"type": "t_mapping(t_address,t_bool)"
					}
				],
				"types": {
					"t_address": {
						"encoding": "inplace",
						"label": "address",
						"numberOfBytes": "20"
					},
					"t_bool": {
						"encoding": "inplace",
						"label": "bool",
						"numberOfBytes": "1"
					},
					"t_contract(IDEXRouter)752": {
						"encoding": "inplace",
						"label": "contract IDEXRouter",
						"numberOfBytes": "20"
					},
					"t_contract(InterfaceLP)428": {
						"encoding": "inplace",
						"label": "contract InterfaceLP",
						"numberOfBytes": "20"
					},
					"t_mapping(t_address,t_bool)": {
						"encoding": "mapping",
						"key": "t_address",
						"label": "mapping(address => bool)",
						"numberOfBytes": "32",
						"value": "t_bool"
					},
					"t_mapping(t_address,t_mapping(t_address,t_uint256))": {
						"encoding": "mapping",
						"key": "t_address",
						"label": "mapping(address => mapping(address => uint256))",
						"numberOfBytes": "32",
						"value": "t_mapping(t_address,t_uint256)"
					},
					"t_mapping(t_address,t_uint256)": {
						"encoding": "mapping",
						"key": "t_address",
						"label": "mapping(address => uint256)",
						"numberOfBytes": "32",
						"value": "t_uint256"
					},
					"t_string_storage": {
						"encoding": "bytes",
						"label": "string",
						"numberOfBytes": "32"
					},
					"t_struct(Role)433_storage": {
						"encoding": "inplace",
						"label": "struct Roles.Role",
						"members": [
							{
								"astId": 432,
								"contract": "AndrewTate-testnet.sol.sol:AndrewTateToken",
								"label": "bearer",
								"offset": 0,
								"slot": "0",
								"type": "t_mapping(t_address,t_bool)"
							}
						],
						"numberOfBytes": "32"
					},
					"t_uint256": {
						"encoding": "inplace",
						"label": "uint256",
						"numberOfBytes": "32"
					},
					"t_uint8": {
						"encoding": "inplace",
						"label": "uint8",
						"numberOfBytes": "1"
					}
				}
			},
			"userdoc": {
				"kind": "user",
				"methods": {},
				"version": 1
			}
		}
	}
}