{
	"AndrewTate-testnet.sol.sol": {
		"MinterRole": {
			"abi": [
				{
					"inputs": [],
					"stateMutability": "nonpayable",
					"type": "constructor"
				},
				{
					"anonymous": false,
					"inputs": [
						{
							"indexed": true,
							"internalType": "address",
							"name": "account",
							"type": "address"
						}
					],
					"name": "MinterAdded",
					"type": "event"
				},
				{
					"anonymous": false,
					"inputs": [
						{
							"indexed": true,
							"internalType": "address",
							"name": "account",
							"type": "address"
						}
					],
					"name": "MinterRemoved",
					"type": "event"
				},
				{
					"inputs": [
						{
							"internalType": "address",
							"name": "account",
							"type": "address"
						}
					],
					"name": "isMinter",
					"outputs": [
						{
							"internalType": "bool",
							"name": "",
							"type": "bool"
						}
					],
					"stateMutability": "view",
					"type": "function"
				},
				{
					"inputs": [],
					"name": "renounceMinter",
					"outputs": [],
					"stateMutability": "nonpayable",
					"type": "function"
				}
			],
			"devdoc": {
				"kind": "dev",
				"methods": {},
				"version": 1
			},
			"evm": {
				"assembly": "    /* \"AndrewTate-testnet.sol.sol\":4196:5067  contract MinterRole {\r... */\n  mstore(0x40, 0x80)\n    /* \"AndrewTate-testnet.sol.sol\":4396:4452  constructor () {\r... */\n  callvalue\n  dup1\n  iszero\n  tag_1\n  jumpi\n  0x00\n  dup1\n  revert\ntag_1:\n  pop\n    /* \"AndrewTate-testnet.sol.sol\":4422:4444  _addMinter(msg.sender) */\n  tag_4\n    /* \"AndrewTate-testnet.sol.sol\":4433:4443  msg.sender */\n  caller\n    /* \"AndrewTate-testnet.sol.sol\":4422:4432  _addMinter */\n  tag_5\n    /* \"AndrewTate-testnet.sol.sol\":4422:4444  _addMinter(msg.sender) */\n  jump\t// in\ntag_4:\n    /* \"AndrewTate-testnet.sol.sol\":4196:5067  contract MinterRole {\r... */\n  jump(tag_6)\n    /* \"AndrewTate-testnet.sol.sol\":4804:4926  function _addMinter(address account) internal {\r... */\ntag_5:\n    /* \"AndrewTate-testnet.sol.sol\":4861:4882  _minters.add(account) */\n  tag_8\n    /* \"AndrewTate-testnet.sol.sol\":4874:4881  account */\n  dup2\n    /* \"AndrewTate-testnet.sol.sol\":4861:4869  _minters */\n  0x00\n    /* \"AndrewTate-testnet.sol.sol\":4861:4873  _minters.add */\n  or(tag_0_10, shl(0x20, tag_9))\n  swap1\n    /* \"AndrewTate-testnet.sol.sol\":4861:4882  _minters.add(account) */\n  swap2\n  swap1\n  0x20\n  shr\n  jump\t// in\ntag_8:\n    /* \"AndrewTate-testnet.sol.sol\":4898:4918  MinterAdded(account) */\n  mload(0x40)\n  sub(shl(0xa0, 0x01), 0x01)\n  dup3\n  and\n  swap1\n  0x6ae172837ea30b801fbfcdd4108aa1d5bf8ff775444fd70256b44e6bf3dfc3f6\n  swap1\n  0x00\n  swap1\n  log2\n    /* \"AndrewTate-testnet.sol.sol\":4804:4926  function _addMinter(address account) internal {\r... */\n  pop\n  jump\t// out\n    /* \"AndrewTate-testnet.sol.sol\":3450:3628  function add(Role storage role, address account) internal {\r... */\ntag_9:\n    /* \"AndrewTate-testnet.sol.sol\":3528:3546  has(role, account) */\n  tag_11\n    /* \"AndrewTate-testnet.sol.sol\":3532:3536  role */\n  dup3\n    /* \"AndrewTate-testnet.sol.sol\":3538:3545  account */\n  dup3\n    /* \"AndrewTate-testnet.sol.sol\":3528:3531  has */\n  tag_12\n    /* \"AndrewTate-testnet.sol.sol\":3528:3546  has(role, account) */\n  jump\t// in\ntag_11:\n    /* \"AndrewTate-testnet.sol.sol\":3527:3546  !has(role, account) */\n  iszero\n    /* \"AndrewTate-testnet.sol.sol\":3519:3582  require(!has(role, account), \"Roles: account already has role\") */\n  tag_13\n  jumpi\n  0x40\n  dup1\n  mload\n  shl(0xe5, 0x461bcd)\n  dup2\n  mstore\n  0x20\n  0x04\n  dup3\n  add\n  mstore\n  0x1f\n  0x24\n  dup3\n  add\n  mstore\n  0x526f6c65733a206163636f756e7420616c72656164792068617320726f6c6500\n  0x44\n  dup3\n  add\n  mstore\n  swap1\n  mload\n  swap1\n  dup2\n  swap1\n  sub\n  0x64\n  add\n  swap1\n  revert\ntag_13:\n  sub(shl(0xa0, 0x01), 0x01)\n    /* \"AndrewTate-testnet.sol.sol\":3593:3613  role.bearer[account] */\n  and\n    /* \"AndrewTate-testnet.sol.sol\":3593:3604  role.bearer */\n  0x00\n    /* \"AndrewTate-testnet.sol.sol\":3593:3613  role.bearer[account] */\n  swap1\n  dup2\n  mstore\n  0x20\n  swap2\n  swap1\n  swap2\n  mstore\n  0x40\n  swap1\n  keccak256\n    /* \"AndrewTate-testnet.sol.sol\":3593:3620  role.bearer[account] = true */\n  dup1\n  sload\n  not(0xff)\n  and\n    /* \"AndrewTate-testnet.sol.sol\":3616:3620  true */\n  0x01\n    /* \"AndrewTate-testnet.sol.sol\":3593:3620  role.bearer[account] = true */\n  or\n  swap1\n  sstore\n    /* \"AndrewTate-testnet.sol.sol\":3450:3628  function add(Role storage role, address account) internal {\r... */\n  jump\t// out\n    /* \"AndrewTate-testnet.sol.sol\":3986:4189  function has(Role storage role, address account) internal view returns (bool) {\r... */\ntag_12:\n    /* \"AndrewTate-testnet.sol.sol\":4058:4062  bool */\n  0x00\n  sub(shl(0xa0, 0x01), 0x01)\n    /* \"AndrewTate-testnet.sol.sol\":4083:4104  account != address(0) */\n  dup3\n  and\n    /* \"AndrewTate-testnet.sol.sol\":4075:4143  require(account != address(0), \"Roles: account is the zero address\") */\n  tag_15\n  jumpi\n  mload(0x40)\n  shl(0xe5, 0x461bcd)\n  dup2\n  mstore\n  0x04\n  add\n  dup1\n  dup1\n  0x20\n  add\n  dup3\n  dup2\n  sub\n  dup3\n  mstore\n  0x22\n  dup2\n  mstore\n  0x20\n  add\n  dup1\n  data_9d214fa89563f4e6456a3929327e54500ea1cde2c0ba9fb2035ec106190d682f\n  0x22\n  swap2\n  codecopy\n  0x40\n  add\n  swap2\n  pop\n  pop\n  mload(0x40)\n  dup1\n  swap2\n  sub\n  swap1\n  revert\ntag_15:\n  pop\n  sub(shl(0xa0, 0x01), 0x01)\n    /* \"AndrewTate-testnet.sol.sol\":4161:4181  role.bearer[account] */\n  and\n    /* \"AndrewTate-testnet.sol.sol\":4161:4172  role.bearer */\n  0x00\n    /* \"AndrewTate-testnet.sol.sol\":4161:4181  role.bearer[account] */\n  swap1\n  dup2\n  mstore\n  0x20\n  swap2\n  swap1\n  swap2\n  mstore\n  0x40\n  swap1\n  keccak256\n  sload\n  0xff\n  and\n  swap1\n    /* \"AndrewTate-testnet.sol.sol\":3986:4189  function has(Role storage role, address account) internal view returns (bool) {\r... */\n  jump\t// out\n    /* \"AndrewTate-testnet.sol.sol\":4196:5067  contract MinterRole {\r... */\ntag_6:\n  dataSize(sub_0)\n  dup1\n  dataOffset(sub_0)\n  0x00\n  codecopy\n  0x00\n  return\nstop\ndata_9d214fa89563f4e6456a3929327e54500ea1cde2c0ba9fb2035ec106190d682f 526f6c65733a206163636f756e7420697320746865207a65726f2061646472657373\n\nsub_0: assembly {\n        /* \"AndrewTate-testnet.sol.sol\":4196:5067  contract MinterRole {\r... */\n      mstore(0x40, 0x80)\n      callvalue\n      dup1\n      iszero\n      tag_1\n      jumpi\n      0x00\n      dup1\n      revert\n    tag_1:\n      pop\n      jumpi(tag_2, lt(calldatasize, 0x04))\n      shr(0xe0, calldataload(0x00))\n      dup1\n      0x98650275\n      eq\n      tag_3\n      jumpi\n      dup1\n      0xaa271e1a\n      eq\n      tag_4\n      jumpi\n    tag_2:\n      0x00\n      dup1\n      revert\n        /* \"AndrewTate-testnet.sol.sol\":4719:4796  function renounceMinter() public {\r... */\n    tag_3:\n      tag_5\n      tag_6\n      jump\t// in\n    tag_5:\n      stop\n        /* \"AndrewTate-testnet.sol.sol\":4602:4711  function isMinter(address account) public view returns (bool) {\r... */\n    tag_4:\n      tag_7\n      0x04\n      dup1\n      calldatasize\n      sub\n      0x20\n      dup2\n      lt\n      iszero\n      tag_8\n      jumpi\n      0x00\n      dup1\n      revert\n    tag_8:\n      pop\n      calldataload\n      sub(shl(0xa0, 0x01), 0x01)\n      and\n      tag_9\n      jump\t// in\n    tag_7:\n      0x40\n      dup1\n      mload\n      swap2\n      iszero\n      iszero\n      dup3\n      mstore\n      mload\n      swap1\n      dup2\n      swap1\n      sub\n      0x20\n      add\n      swap1\n      return\n        /* \"AndrewTate-testnet.sol.sol\":4719:4796  function renounceMinter() public {\r... */\n    tag_6:\n        /* \"AndrewTate-testnet.sol.sol\":4763:4788  _removeMinter(msg.sender) */\n      tag_12\n        /* \"AndrewTate-testnet.sol.sol\":4777:4787  msg.sender */\n      caller\n        /* \"AndrewTate-testnet.sol.sol\":4763:4776  _removeMinter */\n      tag_13\n        /* \"AndrewTate-testnet.sol.sol\":4763:4788  _removeMinter(msg.sender) */\n      jump\t// in\n    tag_12:\n        /* \"AndrewTate-testnet.sol.sol\":4719:4796  function renounceMinter() public {\r... */\n      jump\t// out\n        /* \"AndrewTate-testnet.sol.sol\":4602:4711  function isMinter(address account) public view returns (bool) {\r... */\n    tag_9:\n        /* \"AndrewTate-testnet.sol.sol\":4658:4662  bool */\n      0x00\n        /* \"AndrewTate-testnet.sol.sol\":4682:4703  _minters.has(account) */\n      tag_15\n        /* \"AndrewTate-testnet.sol.sol\":4658:4662  bool */\n      dup2\n        /* \"AndrewTate-testnet.sol.sol\":4695:4702  account */\n      dup4\n        /* \"AndrewTate-testnet.sol.sol\":4682:4694  _minters.has */\n      tag_16\n        /* \"AndrewTate-testnet.sol.sol\":4682:4703  _minters.has(account) */\n      jump\t// in\n    tag_15:\n        /* \"AndrewTate-testnet.sol.sol\":4675:4703  return _minters.has(account) */\n      swap3\n        /* \"AndrewTate-testnet.sol.sol\":4602:4711  function isMinter(address account) public view returns (bool) {\r... */\n      swap2\n      pop\n      pop\n      jump\t// out\n        /* \"AndrewTate-testnet.sol.sol\":3450:3628  function add(Role storage role, address account) internal {\r... */\n    tag_10:\n        /* \"AndrewTate-testnet.sol.sol\":3528:3546  has(role, account) */\n      tag_18\n        /* \"AndrewTate-testnet.sol.sol\":3532:3536  role */\n      dup3\n        /* \"AndrewTate-testnet.sol.sol\":3538:3545  account */\n      dup3\n        /* \"AndrewTate-testnet.sol.sol\":3528:3531  has */\n      tag_16\n        /* \"AndrewTate-testnet.sol.sol\":3528:3546  has(role, account) */\n      jump\t// in\n    tag_18:\n        /* \"AndrewTate-testnet.sol.sol\":3527:3546  !has(role, account) */\n      iszero\n        /* \"AndrewTate-testnet.sol.sol\":3519:3582  require(!has(role, account), \"Roles: account already has role\") */\n      tag_19\n      jumpi\n      0x40\n      dup1\n      mload\n      shl(0xe5, 0x461bcd)\n      dup2\n      mstore\n      0x20\n      0x04\n      dup3\n      add\n      mstore\n      0x1f\n      0x24\n      dup3\n      add\n      mstore\n      0x526f6c65733a206163636f756e7420616c72656164792068617320726f6c6500\n      0x44\n      dup3\n      add\n      mstore\n      swap1\n      mload\n      swap1\n      dup2\n      swap1\n      sub\n      0x64\n      add\n      swap1\n      revert\n    tag_19:\n      sub(shl(0xa0, 0x01), 0x01)\n        /* \"AndrewTate-testnet.sol.sol\":3593:3613  role.bearer[account] */\n      and\n        /* \"AndrewTate-testnet.sol.sol\":3593:3604  role.bearer */\n      0x00\n        /* \"AndrewTate-testnet.sol.sol\":3593:3613  role.bearer[account] */\n      swap1\n      dup2\n      mstore\n      0x20\n      swap2\n      swap1\n      swap2\n      mstore\n      0x40\n      swap1\n      keccak256\n        /* \"AndrewTate-testnet.sol.sol\":3593:3620  role.bearer[account] = true */\n      dup1\n      sload\n      not(0xff)\n      and\n        /* \"AndrewTate-testnet.sol.sol\":3616:3620  true */\n      0x01\n        /* \"AndrewTate-testnet.sol.sol\":3593:3620  role.bearer[account] = true */\n      or\n      swap1\n      sstore\n        /* \"AndrewTate-testnet.sol.sol\":3450:3628  function add(Role storage role, address account) internal {\r... */\n      jump\t// out\n        /* \"AndrewTate-testnet.sol.sol\":4934:5064  function _removeMinter(address account) internal {\r... */\n    tag_13:\n        /* \"AndrewTate-testnet.sol.sol\":4994:5018  _minters.remove(account) */\n      tag_21\n        /* \"AndrewTate-testnet.sol.sol\":4994:5002  _minters */\n      0x00\n        /* \"AndrewTate-testnet.sol.sol\":5010:5017  account */\n      dup3\n        /* \"AndrewTate-testnet.sol.sol\":4994:5009  _minters.remove */\n      tag_22\n        /* \"AndrewTate-testnet.sol.sol\":4994:5018  _minters.remove(account) */\n      jump\t// in\n    tag_21:\n        /* \"AndrewTate-testnet.sol.sol\":5034:5056  MinterRemoved(account) */\n      mload(0x40)\n      sub(shl(0xa0, 0x01), 0x01)\n      dup3\n      and\n      swap1\n      0xe94479a9f7e1952cc78f2d6baab678adc1b772d936c6583def489e524cb66692\n      swap1\n      0x00\n      swap1\n      log2\n        /* \"AndrewTate-testnet.sol.sol\":4934:5064  function _removeMinter(address account) internal {\r... */\n      pop\n      jump\t// out\n        /* \"AndrewTate-testnet.sol.sol\":3986:4189  function has(Role storage role, address account) internal view returns (bool) {\r... */\n    tag_16:\n        /* \"AndrewTate-testnet.sol.sol\":4058:4062  bool */\n      0x00\n      sub(shl(0xa0, 0x01), 0x01)\n        /* \"AndrewTate-testnet.sol.sol\":4083:4104  account != address(0) */\n      dup3\n      and\n        /* \"AndrewTate-testnet.sol.sol\":4075:4143  require(account != address(0), \"Roles: account is the zero address\") */\n      tag_24\n      jumpi\n      mload(0x40)\n      shl(0xe5, 0x461bcd)\n      dup2\n      mstore\n      0x04\n      add\n      dup1\n      dup1\n      0x20\n      add\n      dup3\n      dup2\n      sub\n      dup3\n      mstore\n      0x22\n      dup2\n      mstore\n      0x20\n      add\n      dup1\n      data_9d214fa89563f4e6456a3929327e54500ea1cde2c0ba9fb2035ec106190d682f\n      0x22\n      swap2\n      codecopy\n      0x40\n      add\n      swap2\n      pop\n      pop\n      mload(0x40)\n      dup1\n      swap2\n      sub\n      swap1\n      revert\n    tag_24:\n      pop\n      sub(shl(0xa0, 0x01), 0x01)\n        /* \"AndrewTate-testnet.sol.sol\":4161:4181  role.bearer[account] */\n      and\n        /* \"AndrewTate-testnet.sol.sol\":4161:4172  role.bearer */\n      0x00\n        /* \"AndrewTate-testnet.sol.sol\":4161:4181  role.bearer[account] */\n      swap1\n      dup2\n      mstore\n      0x20\n      swap2\n      swap1\n      swap2\n      mstore\n      0x40\n      swap1\n      keccak256\n      sload\n      0xff\n      and\n      swap1\n        /* \"AndrewTate-testnet.sol.sol\":3986:4189  function has(Role storage role, address account) internal view returns (bool) {\r... */\n      jump\t// out\n        /* \"AndrewTate-testnet.sol.sol\":3708:3891  function remove(Role storage role, address account) internal {\r... */\n    tag_22:\n        /* \"AndrewTate-testnet.sol.sol\":3788:3806  has(role, account) */\n      tag_26\n        /* \"AndrewTate-testnet.sol.sol\":3792:3796  role */\n      dup3\n        /* \"AndrewTate-testnet.sol.sol\":3798:3805  account */\n      dup3\n        /* \"AndrewTate-testnet.sol.sol\":3788:3791  has */\n      tag_16\n        /* \"AndrewTate-testnet.sol.sol\":3788:3806  has(role, account) */\n      jump\t// in\n    tag_26:\n        /* \"AndrewTate-testnet.sol.sol\":3780:3844  require(has(role, account), \"Roles: account does not have role\") */\n      tag_27\n      jumpi\n      mload(0x40)\n      shl(0xe5, 0x461bcd)\n      dup2\n      mstore\n      0x04\n      add\n      dup1\n      dup1\n      0x20\n      add\n      dup3\n      dup2\n      sub\n      dup3\n      mstore\n      0x21\n      dup2\n      mstore\n      0x20\n      add\n      dup1\n      data_7bd893145ac435f339bb7c288622d270324b7033b011f693aca172f5cbc3c257\n      0x21\n      swap2\n      codecopy\n      0x40\n      add\n      swap2\n      pop\n      pop\n      mload(0x40)\n      dup1\n      swap2\n      sub\n      swap1\n      revert\n    tag_27:\n      sub(shl(0xa0, 0x01), 0x01)\n        /* \"AndrewTate-testnet.sol.sol\":3855:3875  role.bearer[account] */\n      and\n        /* \"AndrewTate-testnet.sol.sol\":3878:3883  false */\n      0x00\n        /* \"AndrewTate-testnet.sol.sol\":3855:3875  role.bearer[account] */\n      swap1\n      dup2\n      mstore\n      0x20\n      swap2\n      swap1\n      swap2\n      mstore\n      0x40\n      swap1\n      keccak256\n        /* \"AndrewTate-testnet.sol.sol\":3855:3883  role.bearer[account] = false */\n      dup1\n      sload\n      not(0xff)\n      and\n      swap1\n      sstore\n        /* \"AndrewTate-testnet.sol.sol\":3708:3891  function remove(Role storage role, address account) internal {\r... */\n      jump\t// out\n    stop\n    data_7bd893145ac435f339bb7c288622d270324b7033b011f693aca172f5cbc3c257 526f6c65733a206163636f756e7420646f6573206e6f74206861766520726f6c65\n    data_9d214fa89563f4e6456a3929327e54500ea1cde2c0ba9fb2035ec106190d682f 526f6c65733a206163636f756e7420697320746865207a65726f2061646472657373\n\n    auxdata: 0xa2646970667358221220f850f69ee172f4eafeb08e962bc7410b670600390c5c2a2b28834f473d9a075e64736f6c63430007040033\n}\n",
				"bytecode": {
					"linkReferences": {},
					"object": "608060405234801561001057600080fd5b5061001a3361001f565b610156565b61003781600061006e60201b61009c1790919060201c565b6040516001600160a01b038216907f6ae172837ea30b801fbfcdd4108aa1d5bf8ff775444fd70256b44e6bf3dfc3f690600090a250565b61007882826100ef565b156100ca576040805162461bcd60e51b815260206004820152601f60248201527f526f6c65733a206163636f756e7420616c72656164792068617320726f6c6500604482015290519081900360640190fd5b6001600160a01b0316600090815260209190915260409020805460ff19166001179055565b60006001600160a01b0382166101365760405162461bcd60e51b815260040180806020018281038252602281526020018061040b6022913960400191505060405180910390fd5b506001600160a01b03166000908152602091909152604090205460ff1690565b6102a6806101656000396000f3fe608060405234801561001057600080fd5b50600436106100365760003560e01c8063986502751461003b578063aa271e1a14610045575b600080fd5b61004361007f565b005b61006b6004803603602081101561005b57600080fd5b50356001600160a01b031661008a565b604080519115158252519081900360200190f35b6100883361011d565b565b6000610096818361015f565b92915050565b6100a6828261015f565b156100f8576040805162461bcd60e51b815260206004820152601f60248201527f526f6c65733a206163636f756e7420616c72656164792068617320726f6c6500604482015290519081900360640190fd5b6001600160a01b0316600090815260209190915260409020805460ff19166001179055565b6101286000826101c6565b6040516001600160a01b038216907fe94479a9f7e1952cc78f2d6baab678adc1b772d936c6583def489e524cb6669290600090a250565b60006001600160a01b0382166101a65760405162461bcd60e51b815260040180806020018281038252602281526020018061024f6022913960400191505060405180910390fd5b506001600160a01b03166000908152602091909152604090205460ff1690565b6101d0828261015f565b61020b5760405162461bcd60e51b815260040180806020018281038252602181526020018061022e6021913960400191505060405180910390fd5b6001600160a01b0316600090815260209190915260409020805460ff1916905556fe526f6c65733a206163636f756e7420646f6573206e6f74206861766520726f6c65526f6c65733a206163636f756e7420697320746865207a65726f2061646472657373a2646970667358221220f850f69ee172f4eafeb08e962bc7410b670600390c5c2a2b28834f473d9a075e64736f6c63430007040033526f6c65733a206163636f756e7420697320746865207a65726f2061646472657373",
					"opcodes": "PUSH1 0x80 PUSH1 0x40 MSTORE CALLVALUE DUP1 ISZERO PUSH2 0x10 JUMPI PUSH1 0x0 DUP1 REVERT JUMPDEST POP PUSH2 0x1A CALLER PUSH2 0x1F JUMP JUMPDEST PUSH2 0x156 JUMP JUMPDEST PUSH2 0x37 DUP2 PUSH1 0x0 PUSH2 0x6E PUSH1 0x20 SHL PUSH2 0x9C OR SWAP1 SWAP2 SWAP1 PUSH1 0x20 SHR JUMP JUMPDEST PUSH1 0x40 MLOAD PUSH1 0x1 PUSH1 0x1 PUSH1 0xA0 SHL SUB DUP3 AND SWAP1 PUSH32 0x6AE172837EA30B801FBFCDD4108AA1D5BF8FF775444FD70256B44E6BF3DFC3F6 SWAP1 PUSH1 0x0 SWAP1 LOG2 POP JUMP JUMPDEST PUSH2 0x78 DUP3 DUP3 PUSH2 0xEF JUMP JUMPDEST ISZERO PUSH2 0xCA JUMPI PUSH1 0x40 DUP1 MLOAD PUSH3 0x461BCD PUSH1 0xE5 SHL DUP2 MSTORE PUSH1 0x20 PUSH1 0x4 DUP3 ADD MSTORE PUSH1 0x1F PUSH1 0x24 DUP3 ADD MSTORE PUSH32 0x526F6C65733A206163636F756E7420616C72656164792068617320726F6C6500 PUSH1 0x44 DUP3 ADD MSTORE SWAP1 MLOAD SWAP1 DUP2 SWAP1 SUB PUSH1 0x64 ADD SWAP1 REVERT JUMPDEST PUSH1 0x1 PUSH1 0x1 PUSH1 0xA0 SHL SUB AND PUSH1 0x0 SWAP1 DUP2 MSTORE PUSH1 0x20 SWAP2 SWAP1 SWAP2 MSTORE PUSH1 0x40 SWAP1 KECCAK256 DUP1 SLOAD PUSH1 0xFF NOT AND PUSH1 0x1 OR SWAP1 SSTORE JUMP JUMPDEST PUSH1 0x0 PUSH1 0x1 PUSH1 0x1 PUSH1 0xA0 SHL SUB DUP3 AND PUSH2 0x136 JUMPI PUSH1 0x40 MLOAD PUSH3 0x461BCD PUSH1 0xE5 SHL DUP2 MSTORE PUSH1 0x4 ADD DUP1 DUP1 PUSH1 0x20 ADD DUP3 DUP2 SUB DUP3 MSTORE PUSH1 0x22 DUP2 MSTORE PUSH1 0x20 ADD DUP1 PUSH2 0x40B PUSH1 0x22 SWAP2 CODECOPY PUSH1 0x40 ADD SWAP2 POP POP PUSH1 0x40 MLOAD DUP1 SWAP2 SUB SWAP1 REVERT JUMPDEST POP PUSH1 0x1 PUSH1 0x1 PUSH1 0xA0 SHL SUB AND PUSH1 0x0 SWAP1 DUP2 MSTORE PUSH1 0x20 SWAP2 SWAP1 SWAP2 MSTORE PUSH1 0x40 SWAP1 KECCAK256 SLOAD PUSH1 0xFF AND SWAP1 JUMP JUMPDEST PUSH2 0x2A6 DUP1 PUSH2 0x165 PUSH1 0x0 CODECOPY PUSH1 0x0 RETURN INVALID PUSH1 0x80 PUSH1 0x40 MSTORE CALLVALUE DUP1 ISZERO PUSH2 0x10 JUMPI PUSH1 0x0 DUP1 REVERT JUMPDEST POP PUSH1 0x4 CALLDATASIZE LT PUSH2 0x36 JUMPI PUSH1 0x0 CALLDATALOAD PUSH1 0xE0 SHR DUP1 PUSH4 0x98650275 EQ PUSH2 0x3B JUMPI DUP1 PUSH4 0xAA271E1A EQ PUSH2 0x45 JUMPI JUMPDEST PUSH1 0x0 DUP1 REVERT JUMPDEST PUSH2 0x43 PUSH2 0x7F JUMP JUMPDEST STOP JUMPDEST PUSH2 0x6B PUSH1 0x4 DUP1 CALLDATASIZE SUB PUSH1 0x20 DUP2 LT ISZERO PUSH2 0x5B JUMPI PUSH1 0x0 DUP1 REVERT JUMPDEST POP CALLDATALOAD PUSH1 0x1 PUSH1 0x1 PUSH1 0xA0 SHL SUB AND PUSH2 0x8A JUMP JUMPDEST PUSH1 0x40 DUP1 MLOAD SWAP2 ISZERO ISZERO DUP3 MSTORE MLOAD SWAP1 DUP2 SWAP1 SUB PUSH1 0x20 ADD SWAP1 RETURN JUMPDEST PUSH2 0x88 CALLER PUSH2 0x11D JUMP JUMPDEST JUMP JUMPDEST PUSH1 0x0 PUSH2 0x96 DUP2 DUP4 PUSH2 0x15F JUMP JUMPDEST SWAP3 SWAP2 POP POP JUMP JUMPDEST PUSH2 0xA6 DUP3 DUP3 PUSH2 0x15F JUMP JUMPDEST ISZERO PUSH2 0xF8 JUMPI PUSH1 0x40 DUP1 MLOAD PUSH3 0x461BCD PUSH1 0xE5 SHL DUP2 MSTORE PUSH1 0x20 PUSH1 0x4 DUP3 ADD MSTORE PUSH1 0x1F PUSH1 0x24 DUP3 ADD MSTORE PUSH32 0x526F6C65733A206163636F756E7420616C72656164792068617320726F6C6500 PUSH1 0x44 DUP3 ADD MSTORE SWAP1 MLOAD SWAP1 DUP2 SWAP1 SUB PUSH1 0x64 ADD SWAP1 REVERT JUMPDEST PUSH1 0x1 PUSH1 0x1 PUSH1 0xA0 SHL SUB AND PUSH1 0x0 SWAP1 DUP2 MSTORE PUSH1 0x20 SWAP2 SWAP1 SWAP2 MSTORE PUSH1 0x40 SWAP1 KECCAK256 DUP1 SLOAD PUSH1 0xFF NOT AND PUSH1 0x1 OR SWAP1 SSTORE JUMP JUMPDEST PUSH2 0x128 PUSH1 0x0 DUP3 PUSH2 0x1C6 JUMP JUMPDEST PUSH1 0x40 MLOAD PUSH1 0x1 PUSH1 0x1 PUSH1 0xA0 SHL SUB DUP3 AND SWAP1 PUSH32 0xE94479A9F7E1952CC78F2D6BAAB678ADC1B772D936C6583DEF489E524CB66692 SWAP1 PUSH1 0x0 SWAP1 LOG2 POP JUMP JUMPDEST PUSH1 0x0 PUSH1 0x1 PUSH1 0x1 PUSH1 0xA0 SHL SUB DUP3 AND PUSH2 0x1A6 JUMPI PUSH1 0x40 MLOAD PUSH3 0x461BCD PUSH1 0xE5 SHL DUP2 MSTORE PUSH1 0x4 ADD DUP1 DUP1 PUSH1 0x20 ADD DUP3 DUP2 SUB DUP3 MSTORE PUSH1 0x22 DUP2 MSTORE PUSH1 0x20 ADD DUP1 PUSH2 0x24F PUSH1 0x22 SWAP2 CODECOPY PUSH1 0x40 ADD SWAP2 POP POP PUSH1 0x40 MLOAD DUP1 SWAP2 SUB SWAP1 REVERT JUMPDEST POP PUSH1 0x1 PUSH1 0x1 PUSH1 0xA0 SHL SUB AND PUSH1 0x0 SWAP1 DUP2 MSTORE PUSH1 0x20 SWAP2 SWAP1 SWAP2 MSTORE PUSH1 0x40 SWAP1 KECCAK256 SLOAD PUSH1 0xFF AND SWAP1 JUMP JUMPDEST PUSH2 0x1D0 DUP3 DUP3 PUSH2 0x15F JUMP JUMPDEST PUSH2 0x20B JUMPI PUSH1 0x40 MLOAD PUSH3 0x461BCD PUSH1 0xE5 SHL DUP2 MSTORE PUSH1 0x4 ADD DUP1 DUP1 PUSH1 0x20 ADD DUP3 DUP2 SUB DUP3 MSTORE PUSH1 0x21 DUP2 MSTORE PUSH1 0x20 ADD DUP1 PUSH2 0x22E PUSH1 0x21 SWAP2 CODECOPY PUSH1 0x40 ADD SWAP2 POP POP PUSH1 0x40 MLOAD DUP1 SWAP2 SUB SWAP1 REVERT JUMPDEST PUSH1 0x1 PUSH1 0x1 PUSH1 0xA0 SHL SUB AND PUSH1 0x0 SWAP1 DUP2 MSTORE PUSH1 0x20 SWAP2 SWAP1 SWAP2 MSTORE PUSH1 0x40 SWAP1 KECCAK256 DUP1 SLOAD PUSH1 0xFF NOT AND SWAP1 SSTORE JUMP INVALID MSTORE PUSH16 0x6C65733A206163636F756E7420646F65 PUSH20 0x206E6F74206861766520726F6C65526F6C65733A KECCAK256 PUSH2 0x6363 PUSH16 0x756E7420697320746865207A65726F20 PUSH2 0x6464 PUSH19 0x657373A2646970667358221220F850F69EE172 DELEGATECALL 0xEA INVALID 0xB0 DUP15 SWAP7 0x2B 0xC7 COINBASE SIGNEXTEND PUSH8 0x600390C5C2A2B28 DUP4 0x4F SELFBALANCE RETURNDATASIZE SWAP11 SMOD 0x5E PUSH5 0x736F6C6343 STOP SMOD DIV STOP CALLER MSTORE PUSH16 0x6C65733A206163636F756E7420697320 PUSH21 0x6865207A65726F2061646472657373000000000000 "
				},
				"gasEstimates": {
					"creation": {
						"codeDepositCost": "135600",
						"executionCost": "infinite",
						"totalCost": "infinite"
					},
					"external": {
						"isMinter(address)": "infinite",
						"renounceMinter()": "infinite"
					},
					"internal": {
						"_addMinter(address)": "infinite",
						"_removeMinter(address)": "infinite"
					}
				},
				"methodIdentifiers": {
					"isMinter(address)": "aa271e1a",
					"renounceMinter()": "98650275"
				}
			},
			"storageLayout": {
				"storage": [
					{
						"astId": 524,
						"contract": "AndrewTate-testnet.sol.sol:MinterRole",
						"label": "_minters",
						"offset": 0,
						"slot": "0",
						"type": "t_struct(Role)433_storage"
					}
				],
				"types": {
					"t_address": {
						"encoding": "inplace",
						"label": "address",
						"numberOfBytes": "20"
					},
					"t_bool": {
						"encoding": "inplace",
						"label": "bool",
						"numberOfBytes": "1"
					},
					"t_mapping(t_address,t_bool)": {
						"encoding": "mapping",
						"key": "t_address",
						"label": "mapping(address => bool)",
						"numberOfBytes": "32",
						"value": "t_bool"
					},
					"t_struct(Role)433_storage": {
						"encoding": "inplace",
						"label": "struct Roles.Role",
						"members": [
							{
								"astId": 432,
								"contract": "AndrewTate-testnet.sol.sol:MinterRole",
								"label": "bearer",
								"offset": 0,
								"slot": "0",
								"type": "t_mapping(t_address,t_bool)"
							}
						],
						"numberOfBytes": "32"
					}
				}
			},
			"userdoc": {
				"kind": "user",
				"methods": {},
				"version": 1
			}
		}
	}
}