{
	"contracts/MemeTokenBase/memetoken.sol": {
		"MemeTokenTest": {
			"abi": [
				{
					"inputs": [
						{
							"internalType": "address",
							"name": "_liquidityWallet",
							"type": "address"
						},
						{
							"internalType": "address",
							"name": "_treasuryWallet",
							"type": "address"
						}
					],
					"stateMutability": "nonpayable",
					"type": "constructor"
				},
				{
					"anonymous": false,
					"inputs": [
						{
							"indexed": true,
							"internalType": "address",
							"name": "owner",
							"type": "address"
						},
						{
							"indexed": true,
							"internalType": "address",
							"name": "spender",
							"type": "address"
						},
						{
							"indexed": false,
							"internalType": "uint256",
							"name": "value",
							"type": "uint256"
						}
					],
					"name": "Approval",
					"type": "event"
				},
				{
					"anonymous": false,
					"inputs": [
						{
							"indexed": true,
							"internalType": "address",
							"name": "previousOwner",
							"type": "address"
						},
						{
							"indexed": true,
							"internalType": "address",
							"name": "newOwner",
							"type": "address"
						}
					],
					"name": "OwnershipTransferred",
					"type": "event"
				},
				{
					"anonymous": false,
					"inputs": [
						{
							"indexed": true,
							"internalType": "address",
							"name": "from",
							"type": "address"
						},
						{
							"indexed": true,
							"internalType": "address",
							"name": "to",
							"type": "address"
						},
						{
							"indexed": false,
							"internalType": "uint256",
							"name": "value",
							"type": "uint256"
						}
					],
					"name": "Transfer",
					"type": "event"
				},
				{
					"inputs": [],
					"name": "DEAD",
					"outputs": [
						{
							"internalType": "address",
							"name": "",
							"type": "address"
						}
					],
					"stateMutability": "view",
					"type": "function"
				},
				{
					"inputs": [],
					"name": "INITIAL_SUPPLY",
					"outputs": [
						{
							"internalType": "uint256",
							"name": "",
							"type": "uint256"
						}
					],
					"stateMutability": "view",
					"type": "function"
				},
				{
					"inputs": [],
					"name": "ZERO",
					"outputs": [
						{
							"internalType": "address",
							"name": "",
							"type": "address"
						}
					],
					"stateMutability": "view",
					"type": "function"
				},
				{
					"inputs": [
						{
							"internalType": "address",
							"name": "owner",
							"type": "address"
						},
						{
							"internalType": "address",
							"name": "spender",
							"type": "address"
						}
					],
					"name": "allowance",
					"outputs": [
						{
							"internalType": "uint256",
							"name": "",
							"type": "uint256"
						}
					],
					"stateMutability": "view",
					"type": "function"
				},
				{
					"inputs": [
						{
							"internalType": "address",
							"name": "spender",
							"type": "address"
						},
						{
							"internalType": "uint256",
							"name": "amount",
							"type": "uint256"
						}
					],
					"name": "approve",
					"outputs": [
						{
							"internalType": "bool",
							"name": "",
							"type": "bool"
						}
					],
					"stateMutability": "nonpayable",
					"type": "function"
				},
				{
					"inputs": [
						{
							"internalType": "address",
							"name": "account",
							"type": "address"
						}
					],
					"name": "balanceOf",
					"outputs": [
						{
							"internalType": "uint256",
							"name": "",
							"type": "uint256"
						}
					],
					"stateMutability": "view",
					"type": "function"
				},
				{
					"inputs": [],
					"name": "burnRate",
					"outputs": [
						{
							"internalType": "uint256",
							"name": "",
							"type": "uint256"
						}
					],
					"stateMutability": "view",
					"type": "function"
				},
				{
					"inputs": [],
					"name": "decimals",
					"outputs": [
						{
							"internalType": "uint8",
							"name": "",
							"type": "uint8"
						}
					],
					"stateMutability": "view",
					"type": "function"
				},
				{
					"inputs": [
						{
							"internalType": "address",
							"name": "spender",
							"type": "address"
						},
						{
							"internalType": "uint256",
							"name": "subtractedValue",
							"type": "uint256"
						}
					],
					"name": "decreaseAllowance",
					"outputs": [
						{
							"internalType": "bool",
							"name": "",
							"type": "bool"
						}
					],
					"stateMutability": "nonpayable",
					"type": "function"
				},
				{
					"inputs": [
						{
							"internalType": "address",
							"name": "spender",
							"type": "address"
						},
						{
							"internalType": "uint256",
							"name": "addedValue",
							"type": "uint256"
						}
					],
					"name": "increaseAllowance",
					"outputs": [
						{
							"internalType": "bool",
							"name": "",
							"type": "bool"
						}
					],
					"stateMutability": "nonpayable",
					"type": "function"
				},
				{
					"inputs": [],
					"name": "liquidityFee",
					"outputs": [
						{
							"internalType": "uint256",
							"name": "",
							"type": "uint256"
						}
					],
					"stateMutability": "view",
					"type": "function"
				},
				{
					"inputs": [],
					"name": "liquidityWallet",
					"outputs": [
						{
							"internalType": "address",
							"name": "",
							"type": "address"
						}
					],
					"stateMutability": "view",
					"type": "function"
				},
				{
					"inputs": [],
					"name": "name",
					"outputs": [
						{
							"internalType": "string",
							"name": "",
							"type": "string"
						}
					],
					"stateMutability": "view",
					"type": "function"
				},
				{
					"inputs": [],
					"name": "owner",
					"outputs": [
						{
							"internalType": "address",
							"name": "",
							"type": "address"
						}
					],
					"stateMutability": "view",
					"type": "function"
				},
				{
					"inputs": [],
					"name": "renounceOwnership",
					"outputs": [],
					"stateMutability": "nonpayable",
					"type": "function"
				},
				{
					"inputs": [],
					"name": "sellFee",
					"outputs": [
						{
							"internalType": "uint256",
							"name": "",
							"type": "uint256"
						}
					],
					"stateMutability": "view",
					"type": "function"
				},
				{
					"inputs": [
						{
							"internalType": "uint256",
							"name": "_liquidityFee",
							"type": "uint256"
						},
						{
							"internalType": "uint256",
							"name": "_treasuryFee",
							"type": "uint256"
						},
						{
							"internalType": "uint256",
							"name": "_sellFee",
							"type": "uint256"
						},
						{
							"internalType": "uint256",
							"name": "_burnRate",
							"type": "uint256"
						}
					],
					"name": "setFees",
					"outputs": [],
					"stateMutability": "nonpayable",
					"type": "function"
				},
				{
					"inputs": [],
					"name": "symbol",
					"outputs": [
						{
							"internalType": "string",
							"name": "",
							"type": "string"
						}
					],
					"stateMutability": "view",
					"type": "function"
				},
				{
					"inputs": [],
					"name": "totalSupply",
					"outputs": [
						{
							"internalType": "uint256",
							"name": "",
							"type": "uint256"
						}
					],
					"stateMutability": "view",
					"type": "function"
				},
				{
					"inputs": [
						{
							"internalType": "address",
							"name": "recipient",
							"type": "address"
						},
						{
							"internalType": "uint256",
							"name": "amount",
							"type": "uint256"
						}
					],
					"name": "transfer",
					"outputs": [
						{
							"internalType": "bool",
							"name": "",
							"type": "bool"
						}
					],
					"stateMutability": "nonpayable",
					"type": "function"
				},
				{
					"inputs": [
						{
							"internalType": "address",
							"name": "sender",
							"type": "address"
						},
						{
							"internalType": "address",
							"name": "recipient",
							"type": "address"
						},
						{
							"internalType": "uint256",
							"name": "amount",
							"type": "uint256"
						}
					],
					"name": "transferFrom",
					"outputs": [
						{
							"internalType": "bool",
							"name": "",
							"type": "bool"
						}
					],
					"stateMutability": "nonpayable",
					"type": "function"
				},
				{
					"inputs": [
						{
							"internalType": "address",
							"name": "newOwner",
							"type": "address"
						}
					],
					"name": "transferOwnership",
					"outputs": [],
					"stateMutability": "nonpayable",
					"type": "function"
				},
				{
					"inputs": [],
					"name": "treasuryFee",
					"outputs": [
						{
							"internalType": "uint256",
							"name": "",
							"type": "uint256"
						}
					],
					"stateMutability": "view",
					"type": "function"
				},
				{
					"inputs": [],
					"name": "treasuryWallet",
					"outputs": [
						{
							"internalType": "address",
							"name": "",
							"type": "address"
						}
					],
					"stateMutability": "view",
					"type": "function"
				}
			],
			"devdoc": {
				"kind": "dev",
				"methods": {
					"allowance(address,address)": {
						"details": "See {IERC20-allowance}."
					},
					"approve(address,uint256)": {
						"details": "See {IERC20-approve}. NOTE: If `amount` is the maximum `uint256`, the allowance is not updated on `transferFrom`. This is semantically equivalent to an infinite approval. Requirements: - `spender` cannot be the zero address."
					},
					"balanceOf(address)": {
						"details": "See {IERC20-balanceOf}."
					},
					"decimals()": {
						"details": "Returns the number of decimals used to get its user representation. For example, if `decimals` equals `2`, a balance of `505` tokens should be displayed to a user as `5.05` (`505 / 10 ** 2`). Tokens usually opt for a value of 18, imitating the relationship between Ether and Wei. This is the default value returned by this function, unless it's overridden. NOTE: This information is only used for _display_ purposes: it in no way affects any of the arithmetic of the contract, including {IERC20-balanceOf} and {IERC20-transfer}."
					},
					"decreaseAllowance(address,uint256)": {
						"details": "Atomically decreases the allowance granted to `spender` by the caller. This is an alternative to {approve} that can be used as a mitigation for problems described in {IERC20-approve}. Emits an {Approval} event indicating the updated allowance. Requirements: - `spender` cannot be the zero address. - `spender` must have allowance for the caller of at least `subtractedValue`."
					},
					"increaseAllowance(address,uint256)": {
						"details": "Atomically increases the allowance granted to `spender` by the caller. This is an alternative to {approve} that can be used as a mitigation for problems described in {IERC20-approve}. Emits an {Approval} event indicating the updated allowance. Requirements: - `spender` cannot be the zero address."
					},
					"name()": {
						"details": "Returns the name of the token."
					},
					"owner()": {
						"details": "Returns the address of the current owner."
					},
					"renounceOwnership()": {
						"details": "Leaves the contract without owner. It will not be possible to call `onlyOwner` functions. Can only be called by the current owner. NOTE: Renouncing ownership will leave the contract without an owner, thereby disabling any functionality that is only available to the owner."
					},
					"symbol()": {
						"details": "Returns the symbol of the token, usually a shorter version of the name."
					},
					"totalSupply()": {
						"details": "See {IERC20-totalSupply}."
					},
					"transferOwnership(address)": {
						"details": "Transfers ownership of the contract to a new account (`newOwner`). Can only be called by the current owner."
					}
				},
				"version": 1
			},
			"evm": {
				"assembly": "    /* \"contracts/MemeTokenBase/memetoken.sol\":173:2758  contract MemeTokenTest is ERC20, Ownable {\r... */\n  mstore(0x40, 0x80)\n    /* \"contracts/MemeTokenBase/memetoken.sol\":604:606  25 */\n  0x19\n    /* \"contracts/MemeTokenBase/memetoken.sol\":574:606  uint256 public liquidityFee = 25 */\n  0x08\n  sstore\n    /* \"contracts/MemeTokenBase/memetoken.sol\":651:653  50 */\n  0x32\n    /* \"contracts/MemeTokenBase/memetoken.sol\":622:653  uint256 public treasuryFee = 50 */\n  0x09\n  sstore\n    /* \"contracts/MemeTokenBase/memetoken.sol\":693:694  5 */\n  0x05\n    /* \"contracts/MemeTokenBase/memetoken.sol\":668:694  uint256 public sellFee = 5 */\n  0x0a\n  sstore\n    /* \"contracts/MemeTokenBase/memetoken.sol\":736:738  20 */\n  0x14\n    /* \"contracts/MemeTokenBase/memetoken.sol\":710:738  uint256 public burnRate = 20 */\n  0x0b\n  sstore\n    /* \"contracts/MemeTokenBase/memetoken.sol\":756:1014  constructor(address _liquidityWallet, address _treasuryWallet) ERC20(\"[TEST] Deflationary Meme Token]\", \"DMT02\") {\r... */\n  callvalue\n  dup1\n  iszero\n  tag_1\n  jumpi\n  0x00\n  dup1\n  revert\ntag_1:\n  pop\n  mload(0x40)\n  sub(codesize, bytecodeSize)\n  dup1\n  bytecodeSize\n  dup4\n  codecopy\n  dup2\n  add\n  0x40\n  dup2\n  swap1\n  mstore\n  tag_2\n  swap2\n  tag_3\n  jump\t// in\ntag_2:\n    /* \"@openzeppelin/contracts/token/ERC20/ERC20.sol\":1980:2093  constructor(string memory name_, string memory symbol_) {... */\n  0x40\n  dup1\n  mload\n  dup1\n  dup3\n  add\n  dup3\n  mstore\n  0x1f\n  dup2\n  mstore\n  0x5b544553545d204465666c6174696f6e617279204d656d6520546f6b656e5d00\n  0x20\n  dup1\n  dup4\n  add\n  swap2\n  dup3\n  mstore\n  dup4\n  mload\n  dup1\n  dup6\n  add\n  swap1\n  swap5\n  mstore\n  0x05\n  dup5\n  mstore\n  shl(0xd9, 0x2226aa1819)\n  swap1\n  dup5\n  add\n  mstore\n    /* \"@openzeppelin/contracts/token/ERC20/ERC20.sol\":2046:2059  _name = name_ */\n  dup2\n  mload\n    /* \"@openzeppelin/contracts/token/ERC20/ERC20.sol\":1980:2093  constructor(string memory name_, string memory symbol_) {... */\n  swap2\n  swap3\n  swap2\n    /* \"@openzeppelin/contracts/token/ERC20/ERC20.sol\":2046:2059  _name = name_ */\n  tag_8\n  swap2\n    /* \"@openzeppelin/contracts/token/ERC20/ERC20.sol\":2046:2051  _name */\n  0x03\n  swap2\n    /* \"@openzeppelin/contracts/token/ERC20/ERC20.sol\":2046:2059  _name = name_ */\n  tag_9\n  jump\t// in\ntag_8:\n  pop\n    /* \"@openzeppelin/contracts/token/ERC20/ERC20.sol\":2069:2086  _symbol = symbol_ */\n  dup1\n  mload\n  tag_10\n  swap1\n    /* \"@openzeppelin/contracts/token/ERC20/ERC20.sol\":2069:2076  _symbol */\n  0x04\n  swap1\n    /* \"@openzeppelin/contracts/token/ERC20/ERC20.sol\":2069:2086  _symbol = symbol_ */\n  0x20\n  dup5\n  add\n  swap1\n  tag_9\n  jump\t// in\ntag_10:\n  pop\n    /* \"@openzeppelin/contracts/token/ERC20/ERC20.sol\":1980:2093  constructor(string memory name_, string memory symbol_) {... */\n  pop\n  pop\n    /* \"@openzeppelin/contracts/access/Ownable.sol\":936:968  _transferOwnership(_msgSender()) */\n  tag_12\n    /* \"@openzeppelin/contracts/access/Ownable.sol\":955:967  _msgSender() */\n  tag_13\n    /* \"@openzeppelin/contracts/access/Ownable.sol\":955:965  _msgSender */\n  shl(0x20, tag_14)\n    /* \"@openzeppelin/contracts/access/Ownable.sol\":955:967  _msgSender() */\n  0x20\n  shr\n  jump\t// in\ntag_13:\n    /* \"@openzeppelin/contracts/access/Ownable.sol\":936:954  _transferOwnership */\n  tag_15\n    /* \"@openzeppelin/contracts/access/Ownable.sol\":936:968  _transferOwnership(_msgSender()) */\n  jump\t// in\ntag_12:\n    /* \"contracts/MemeTokenBase/memetoken.sol\":880:895  liquidityWallet */\n  0x06\n    /* \"contracts/MemeTokenBase/memetoken.sol\":880:914  liquidityWallet = _liquidityWallet */\n  dup1\n  sload\n  sub(shl(0xa0, 0x01), 0x01)\n  dup1\n  dup6\n  and\n  not(sub(shl(0xa0, 0x01), 0x01))\n  swap3\n  dup4\n  and\n  or\n  swap3\n  dup4\n  swap1\n  sstore\n    /* \"contracts/MemeTokenBase/memetoken.sol\":925:939  treasuryWallet */\n  0x07\n    /* \"contracts/MemeTokenBase/memetoken.sol\":925:957  treasuryWallet = _treasuryWallet */\n  dup1\n  sload\n  dup6\n  dup4\n  and\n  swap4\n  and\n  swap3\n  swap1\n  swap3\n  or\n  swap1\n  swap2\n  sstore\n    /* \"contracts/MemeTokenBase/memetoken.sol\":968:1006  _mint(liquidityWallet, INITIAL_SUPPLY) */\n  tag_17\n  swap2\n    /* \"contracts/MemeTokenBase/memetoken.sol\":974:989  liquidityWallet */\n  and\n    /* \"contracts/MemeTokenBase/memetoken.sol\":503:526  1000000000 * (10 ** 18) */\n  0x033b2e3c9fd0803ce8000000\n    /* \"contracts/MemeTokenBase/memetoken.sol\":968:973  _mint */\n  tag_18\n    /* \"contracts/MemeTokenBase/memetoken.sol\":968:1006  _mint(liquidityWallet, INITIAL_SUPPLY) */\n  jump\t// in\ntag_17:\n    /* \"contracts/MemeTokenBase/memetoken.sol\":756:1014  constructor(address _liquidityWallet, address _treasuryWallet) ERC20(\"[TEST] Deflationary Meme Token]\", \"DMT02\") {\r... */\n  pop\n  pop\n    /* \"contracts/MemeTokenBase/memetoken.sol\":173:2758  contract MemeTokenTest is ERC20, Ownable {\r... */\n  jump(tag_47)\n    /* \"@openzeppelin/contracts/utils/Context.sol\":640:736  function _msgSender() internal view virtual returns (address) {... */\ntag_14:\n    /* \"@openzeppelin/contracts/utils/Context.sol\":719:729  msg.sender */\n  caller\n    /* \"@openzeppelin/contracts/utils/Context.sol\":640:736  function _msgSender() internal view virtual returns (address) {... */\n  swap1\n  jump\t// out\n    /* \"@openzeppelin/contracts/access/Ownable.sol\":2426:2613  function _transferOwnership(address newOwner) internal virtual {... */\ntag_15:\n    /* \"@openzeppelin/contracts/access/Ownable.sol\":2518:2524  _owner */\n  0x05\n  dup1\n  sload\n  sub(shl(0xa0, 0x01), 0x01)\n    /* \"@openzeppelin/contracts/access/Ownable.sol\":2534:2551  _owner = newOwner */\n  dup4\n  dup2\n  and\n  not(sub(shl(0xa0, 0x01), 0x01))\n  dup4\n  and\n  dup2\n  or\n  swap1\n  swap4\n  sstore\n    /* \"@openzeppelin/contracts/access/Ownable.sol\":2566:2606  OwnershipTransferred(oldOwner, newOwner) */\n  mload(0x40)\n    /* \"@openzeppelin/contracts/access/Ownable.sol\":2518:2524  _owner */\n  swap2\n  and\n  swap2\n    /* \"@openzeppelin/contracts/access/Ownable.sol\":2534:2551  _owner = newOwner */\n  swap1\n    /* \"@openzeppelin/contracts/access/Ownable.sol\":2518:2524  _owner */\n  dup3\n  swap1\n    /* \"@openzeppelin/contracts/access/Ownable.sol\":2566:2606  OwnershipTransferred(oldOwner, newOwner) */\n  0x8be0079c531659141344cd1fd0a4f28419497f9722a3daafe3b4186f6b6457e0\n  swap1\n    /* \"@openzeppelin/contracts/access/Ownable.sol\":2499:2515  address oldOwner */\n  0x00\n  swap1\n    /* \"@openzeppelin/contracts/access/Ownable.sol\":2566:2606  OwnershipTransferred(oldOwner, newOwner) */\n  log3\n    /* \"@openzeppelin/contracts/access/Ownable.sol\":2426:2613  function _transferOwnership(address newOwner) internal virtual {... */\n  pop\n  pop\n  jump\t// out\n    /* \"@openzeppelin/contracts/token/ERC20/ERC20.sol\":8520:9055  function _mint(address account, uint256 amount) internal virtual {... */\ntag_18:\n  sub(shl(0xa0, 0x01), 0x01)\n    /* \"@openzeppelin/contracts/token/ERC20/ERC20.sol\":8603:8624  account != address(0) */\n  dup3\n  and\n    /* \"@openzeppelin/contracts/token/ERC20/ERC20.sol\":8595:8660  require(account != address(0), \"ERC20: mint to the zero address\") */\n  tag_23\n  jumpi\n  mload(0x40)\n  shl(0xe5, 0x461bcd)\n  dup2\n  mstore\n    /* \"#utility.yul\":706:708   */\n  0x20\n    /* \"@openzeppelin/contracts/token/ERC20/ERC20.sol\":8595:8660  require(account != address(0), \"ERC20: mint to the zero address\") */\n  0x04\n  dup3\n  add\n    /* \"#utility.yul\":688:709   */\n  mstore\n    /* \"#utility.yul\":745:747   */\n  0x1f\n    /* \"#utility.yul\":725:743   */\n  0x24\n  dup3\n  add\n    /* \"#utility.yul\":718:748   */\n  mstore\n    /* \"#utility.yul\":784:817   */\n  0x45524332303a206d696e7420746f20746865207a65726f206164647265737300\n    /* \"#utility.yul\":764:782   */\n  0x44\n  dup3\n  add\n    /* \"#utility.yul\":757:818   */\n  mstore\n    /* \"#utility.yul\":835:853   */\n  0x64\n  add\n    /* \"@openzeppelin/contracts/token/ERC20/ERC20.sol\":8595:8660  require(account != address(0), \"ERC20: mint to the zero address\") */\n  mload(0x40)\n  dup1\n  swap2\n  sub\n  swap1\n  revert\ntag_23:\n    /* \"@openzeppelin/contracts/token/ERC20/ERC20.sol\":8747:8753  amount */\n  dup1\n    /* \"@openzeppelin/contracts/token/ERC20/ERC20.sol\":8731:8743  _totalSupply */\n  0x02\n  0x00\n    /* \"@openzeppelin/contracts/token/ERC20/ERC20.sol\":8731:8753  _totalSupply += amount */\n  dup3\n  dup3\n  sload\n  tag_28\n  swap2\n  swap1\n  tag_29\n  jump\t// in\ntag_28:\n  swap1\n  swap2\n  sstore\n  pop\n  pop\n  sub(shl(0xa0, 0x01), 0x01)\n    /* \"@openzeppelin/contracts/token/ERC20/ERC20.sol\":8899:8917  _balances[account] */\n  dup3\n  and\n    /* \"@openzeppelin/contracts/token/ERC20/ERC20.sol\":8899:8908  _balances */\n  0x00\n    /* \"@openzeppelin/contracts/token/ERC20/ERC20.sol\":8899:8917  _balances[account] */\n  dup2\n  dup2\n  mstore\n  0x20\n  dup2\n  dup2\n  mstore\n  0x40\n  dup1\n  dup4\n  keccak256\n    /* \"@openzeppelin/contracts/token/ERC20/ERC20.sol\":8899:8927  _balances[account] += amount */\n  dup1\n  sload\n  dup7\n  add\n  swap1\n  sstore\n    /* \"@openzeppelin/contracts/token/ERC20/ERC20.sol\":8952:8989  Transfer(address(0), account, amount) */\n  mload\n    /* \"#utility.yul\":1010:1035   */\n  dup5\n  dup2\n  mstore\n    /* \"@openzeppelin/contracts/token/ERC20/ERC20.sol\":8952:8989  Transfer(address(0), account, amount) */\n  0xddf252ad1be2c89b69c2b068fc378daa952ba7f163c4a11628f55a4df523b3ef\n  swap2\n    /* \"#utility.yul\":983:1001   */\n  add\n    /* \"@openzeppelin/contracts/token/ERC20/ERC20.sol\":8952:8989  Transfer(address(0), account, amount) */\n  mload(0x40)\n  dup1\n  swap2\n  sub\n  swap1\n  log3\n    /* \"@openzeppelin/contracts/token/ERC20/ERC20.sol\":8520:9055  function _mint(address account, uint256 amount) internal virtual {... */\n  pop\n  pop\n  jump\t// out\n    /* \"contracts/MemeTokenBase/memetoken.sol\":173:2758  contract MemeTokenTest is ERC20, Ownable {\r... */\ntag_9:\n  dup3\n  dup1\n  sload\n  tag_36\n  swap1\n  tag_37\n  jump\t// in\ntag_36:\n  swap1\n  0x00\n  mstore\n  keccak256(0x00, 0x20)\n  swap1\n  0x1f\n  add\n  0x20\n  swap1\n  div\n  dup2\n  add\n  swap3\n  dup3\n  tag_39\n  jumpi\n  0x00\n  dup6\n  sstore\n  jump(tag_42)\ntag_39:\n  dup3\n  0x1f\n  lt\n  tag_40\n  jumpi\n  dup1\n  mload\n  not(0xff)\n  and\n  dup4\n  dup1\n  add\n  or\n  dup6\n  sstore\n  jump(tag_42)\ntag_40:\n  dup3\n  dup1\n  add\n  0x01\n  add\n  dup6\n  sstore\n  dup3\n  iszero\n  tag_42\n  jumpi\n  swap2\n  dup3\n  add\ntag_41:\n  dup3\n  dup2\n  gt\n  iszero\n  tag_42\n  jumpi\n  dup3\n  mload\n  dup3\n  sstore\n  swap2\n  0x20\n  add\n  swap2\n  swap1\n  0x01\n  add\n  swap1\n  jump(tag_41)\ntag_42:\n  pop\n  tag_43\n  swap3\n  swap2\n  pop\n  tag_44\n  jump\t// in\ntag_43:\n  pop\n  swap1\n  jump\t// out\ntag_44:\ntag_45:\n  dup1\n  dup3\n  gt\n  iszero\n  tag_43\n  jumpi\n  0x00\n  dup2\n  sstore\n  0x01\n  add\n  jump(tag_45)\n    /* \"#utility.yul\":14:191   */\ntag_48:\n    /* \"#utility.yul\":93:106   */\n  dup1\n  mload\n  sub(shl(0xa0, 0x01), 0x01)\n    /* \"#utility.yul\":135:166   */\n  dup2\n  and\n    /* \"#utility.yul\":125:167   */\n  dup2\n  eq\n    /* \"#utility.yul\":115:117   */\n  tag_50\n  jumpi\n    /* \"#utility.yul\":181:182   */\n  0x00\n    /* \"#utility.yul\":178:179   */\n  dup1\n    /* \"#utility.yul\":171:183   */\n  revert\n    /* \"#utility.yul\":115:117   */\ntag_50:\n    /* \"#utility.yul\":74:191   */\n  swap2\n  swap1\n  pop\n  jump\t// out\n    /* \"#utility.yul\":196:499   */\ntag_3:\n  0x00\n  dup1\n    /* \"#utility.yul\":336:338   */\n  0x40\n    /* \"#utility.yul\":324:333   */\n  dup4\n    /* \"#utility.yul\":315:322   */\n  dup6\n    /* \"#utility.yul\":311:334   */\n  sub\n    /* \"#utility.yul\":307:339   */\n  slt\n    /* \"#utility.yul\":304:306   */\n  iszero\n  tag_52\n  jumpi\n    /* \"#utility.yul\":357:363   */\n  dup2\n    /* \"#utility.yul\":349:355   */\n  dup3\n    /* \"#utility.yul\":342:364   */\n  revert\n    /* \"#utility.yul\":304:306   */\ntag_52:\n    /* \"#utility.yul\":385:425   */\n  tag_53\n    /* \"#utility.yul\":415:424   */\n  dup4\n    /* \"#utility.yul\":385:425   */\n  tag_48\n  jump\t// in\ntag_53:\n    /* \"#utility.yul\":375:425   */\n  swap2\n  pop\n    /* \"#utility.yul\":444:493   */\n  tag_54\n    /* \"#utility.yul\":489:491   */\n  0x20\n    /* \"#utility.yul\":478:487   */\n  dup5\n    /* \"#utility.yul\":474:492   */\n  add\n    /* \"#utility.yul\":444:493   */\n  tag_48\n  jump\t// in\ntag_54:\n    /* \"#utility.yul\":434:493   */\n  swap1\n  pop\n    /* \"#utility.yul\":294:499   */\n  swap3\n  pop\n  swap3\n  swap1\n  pop\n  jump\t// out\n    /* \"#utility.yul\":1046:1275   */\ntag_29:\n  0x00\n    /* \"#utility.yul\":1117:1118   */\n  dup3\n    /* \"#utility.yul\":1113:1119   */\n  not\n    /* \"#utility.yul\":1110:1111   */\n  dup3\n    /* \"#utility.yul\":1107:1120   */\n  gt\n    /* \"#utility.yul\":1104:1106   */\n  iszero\n  tag_58\n  jumpi\n  shl(0xe0, 0x4e487b71)\n    /* \"#utility.yul\":1143:1176   */\n  dup2\n  mstore\n    /* \"#utility.yul\":1199:1203   */\n  0x11\n    /* \"#utility.yul\":1196:1197   */\n  0x04\n    /* \"#utility.yul\":1189:1204   */\n  mstore\n    /* \"#utility.yul\":1229:1233   */\n  0x24\n    /* \"#utility.yul\":1150:1153   */\n  dup2\n    /* \"#utility.yul\":1217:1234   */\n  revert\n    /* \"#utility.yul\":1104:1106   */\ntag_58:\n  pop\n    /* \"#utility.yul\":1260:1269   */\n  add\n  swap1\n    /* \"#utility.yul\":1094:1275   */\n  jump\t// out\n    /* \"#utility.yul\":1280:1660   */\ntag_37:\n    /* \"#utility.yul\":1365:1366   */\n  0x02\n    /* \"#utility.yul\":1355:1367   */\n  dup2\n  div\n    /* \"#utility.yul\":1412:1413   */\n  0x01\n    /* \"#utility.yul\":1402:1414   */\n  dup3\n  and\n  dup1\n    /* \"#utility.yul\":1423:1425   */\n  tag_60\n  jumpi\n    /* \"#utility.yul\":1477:1481   */\n  0x7f\n    /* \"#utility.yul\":1469:1475   */\n  dup3\n    /* \"#utility.yul\":1465:1482   */\n  and\n    /* \"#utility.yul\":1455:1482   */\n  swap2\n  pop\n    /* \"#utility.yul\":1423:1425   */\ntag_60:\n    /* \"#utility.yul\":1530:1532   */\n  0x20\n    /* \"#utility.yul\":1522:1528   */\n  dup3\n    /* \"#utility.yul\":1519:1533   */\n  lt\n    /* \"#utility.yul\":1499:1517   */\n  dup2\n    /* \"#utility.yul\":1496:1534   */\n  eq\n    /* \"#utility.yul\":1493:1495   */\n  iszero\n  tag_61\n  jumpi\n    /* \"#utility.yul\":1576:1586   */\n  0x4e487b71\n    /* \"#utility.yul\":1571:1574   */\n  0xe0\n    /* \"#utility.yul\":1567:1587   */\n  shl\n    /* \"#utility.yul\":1564:1565   */\n  0x00\n    /* \"#utility.yul\":1557:1588   */\n  mstore\n    /* \"#utility.yul\":1611:1615   */\n  0x22\n    /* \"#utility.yul\":1608:1609   */\n  0x04\n    /* \"#utility.yul\":1601:1616   */\n  mstore\n    /* \"#utility.yul\":1639:1643   */\n  0x24\n    /* \"#utility.yul\":1636:1637   */\n  0x00\n    /* \"#utility.yul\":1629:1644   */\n  revert\n    /* \"#utility.yul\":1493:1495   */\ntag_61:\n  pop\n    /* \"#utility.yul\":1335:1660   */\n  swap2\n  swap1\n  pop\n  jump\t// out\ntag_47:\n    /* \"contracts/MemeTokenBase/memetoken.sol\":173:2758  contract MemeTokenTest is ERC20, Ownable {\r... */\n  dataSize(sub_0)\n  dup1\n  dataOffset(sub_0)\n  0x00\n  codecopy\n  0x00\n  return\nstop\n\nsub_0: assembly {\n        /* \"contracts/MemeTokenBase/memetoken.sol\":173:2758  contract MemeTokenTest is ERC20, Ownable {\r... */\n      mstore(0x40, 0x80)\n      callvalue\n      dup1\n      iszero\n      tag_1\n      jumpi\n      0x00\n      dup1\n      revert\n    tag_1:\n      pop\n      jumpi(tag_2, lt(calldatasize, 0x04))\n      shr(0xe0, calldataload(0x00))\n      dup1\n      0x70a08231\n      gt\n      tag_27\n      jumpi\n      dup1\n      0xa9059cbb\n      gt\n      tag_28\n      jumpi\n      dup1\n      0xa9059cbb\n      eq\n      tag_21\n      jumpi\n      dup1\n      0xbed99850\n      eq\n      tag_22\n      jumpi\n      dup1\n      0xcc32d176\n      eq\n      tag_23\n      jumpi\n      dup1\n      0xd4698016\n      eq\n      tag_24\n      jumpi\n      dup1\n      0xdd62ed3e\n      eq\n      tag_25\n      jumpi\n      dup1\n      0xf2fde38b\n      eq\n      tag_26\n      jumpi\n      jump(tag_2)\n    tag_28:\n      dup1\n      0x70a08231\n      eq\n      tag_15\n      jumpi\n      dup1\n      0x715018a6\n      eq\n      tag_16\n      jumpi\n      dup1\n      0x8da5cb5b\n      eq\n      tag_17\n      jumpi\n      dup1\n      0x95d89b41\n      eq\n      tag_18\n      jumpi\n      dup1\n      0x98118cb4\n      eq\n      tag_19\n      jumpi\n      dup1\n      0xa457c2d7\n      eq\n      tag_20\n      jumpi\n      jump(tag_2)\n    tag_27:\n      dup1\n      0x2ff2e9dc\n      gt\n      tag_29\n      jumpi\n      dup1\n      0x2ff2e9dc\n      eq\n      tag_9\n      jumpi\n      dup1\n      0x313ce567\n      eq\n      tag_10\n      jumpi\n      dup1\n      0x39509351\n      eq\n      tag_11\n      jumpi\n      dup1\n      0x4626402b\n      eq\n      tag_12\n      jumpi\n      dup1\n      0x58fa63ca\n      eq\n      tag_13\n      jumpi\n      dup1\n      0x6fcba377\n      eq\n      tag_14\n      jumpi\n      jump(tag_2)\n    tag_29:\n      dup1\n      0x03fd2a45\n      eq\n      tag_3\n      jumpi\n      dup1\n      0x06fdde03\n      eq\n      tag_4\n      jumpi\n      dup1\n      0x095ea7b3\n      eq\n      tag_5\n      jumpi\n      dup1\n      0x18160ddd\n      eq\n      tag_6\n      jumpi\n      dup1\n      0x23b872dd\n      eq\n      tag_7\n      jumpi\n      dup1\n      0x2b14ca56\n      eq\n      tag_8\n      jumpi\n    tag_2:\n      0x00\n      dup1\n      revert\n        /* \"contracts/MemeTokenBase/memetoken.sol\":300:373  address public constant DEAD = 0x000000000000000000000000000000000000dEaD */\n    tag_3:\n      tag_30\n        /* \"contracts/MemeTokenBase/memetoken.sol\":331:373  0x000000000000000000000000000000000000dEaD */\n      0xdead\n        /* \"contracts/MemeTokenBase/memetoken.sol\":300:373  address public constant DEAD = 0x000000000000000000000000000000000000dEaD */\n      dup2\n      jump\n    tag_30:\n      mload(0x40)\n      sub(shl(0xa0, 0x01), 0x01)\n        /* \"#utility.yul\":1844:1876   */\n      swap1\n      swap2\n      and\n        /* \"#utility.yul\":1826:1877   */\n      dup2\n      mstore\n        /* \"#utility.yul\":1814:1816   */\n      0x20\n        /* \"#utility.yul\":1799:1817   */\n      add\n        /* \"contracts/MemeTokenBase/memetoken.sol\":300:373  address public constant DEAD = 0x000000000000000000000000000000000000dEaD */\n    tag_32:\n      mload(0x40)\n      dup1\n      swap2\n      sub\n      swap1\n      return\n        /* \"@openzeppelin/contracts/token/ERC20/ERC20.sol\":2158:2256  function name() public view virtual override returns (string memory) {... */\n    tag_4:\n      tag_34\n      tag_35\n      jump\t// in\n    tag_34:\n      mload(0x40)\n      tag_32\n      swap2\n      swap1\n      tag_37\n      jump\t// in\n        /* \"@openzeppelin/contracts/token/ERC20/ERC20.sol\":4444:4641  function approve(address spender, uint256 amount) public virtual override returns (bool) {... */\n    tag_5:\n      tag_38\n      tag_39\n      calldatasize\n      0x04\n      tag_40\n      jump\t// in\n    tag_39:\n      tag_41\n      jump\t// in\n    tag_38:\n      mload(0x40)\n        /* \"#utility.yul\":2053:2067   */\n      swap1\n      iszero\n        /* \"#utility.yul\":2046:2068   */\n      iszero\n        /* \"#utility.yul\":2028:2069   */\n      dup2\n      mstore\n        /* \"#utility.yul\":2016:2018   */\n      0x20\n        /* \"#utility.yul\":2001:2019   */\n      add\n        /* \"@openzeppelin/contracts/token/ERC20/ERC20.sol\":4444:4641  function approve(address spender, uint256 amount) public virtual override returns (bool) {... */\n      tag_32\n        /* \"#utility.yul\":1983:2075   */\n      jump\n        /* \"@openzeppelin/contracts/token/ERC20/ERC20.sol\":3255:3361  function totalSupply() public view virtual override returns (uint256) {... */\n    tag_6:\n        /* \"@openzeppelin/contracts/token/ERC20/ERC20.sol\":3342:3354  _totalSupply */\n      sload(0x02)\n        /* \"@openzeppelin/contracts/token/ERC20/ERC20.sol\":3255:3361  function totalSupply() public view virtual override returns (uint256) {... */\n    tag_44:\n      mload(0x40)\n        /* \"#utility.yul\":7196:7221   */\n      swap1\n      dup2\n      mstore\n        /* \"#utility.yul\":7184:7186   */\n      0x20\n        /* \"#utility.yul\":7169:7187   */\n      add\n        /* \"@openzeppelin/contracts/token/ERC20/ERC20.sol\":3255:3361  function totalSupply() public view virtual override returns (uint256) {... */\n      tag_32\n        /* \"#utility.yul\":7151:7227   */\n      jump\n        /* \"contracts/MemeTokenBase/memetoken.sol\":1207:1412  function transferFrom(address sender, address recipient, uint256 amount) public override returns (bool) {\r... */\n    tag_7:\n      tag_38\n      tag_49\n      calldatasize\n      0x04\n      tag_50\n      jump\t// in\n    tag_49:\n      tag_51\n      jump\t// in\n        /* \"contracts/MemeTokenBase/memetoken.sol\":668:694  uint256 public sellFee = 5 */\n    tag_8:\n      tag_44\n      sload(0x0a)\n      dup2\n      jump\n        /* \"contracts/MemeTokenBase/memetoken.sol\":462:526  uint256 public constant INITIAL_SUPPLY = 1000000000 * (10 ** 18) */\n    tag_9:\n      tag_44\n        /* \"contracts/MemeTokenBase/memetoken.sol\":503:526  1000000000 * (10 ** 18) */\n      0x033b2e3c9fd0803ce8000000\n        /* \"contracts/MemeTokenBase/memetoken.sol\":462:526  uint256 public constant INITIAL_SUPPLY = 1000000000 * (10 ** 18) */\n      dup2\n      jump\n        /* \"@openzeppelin/contracts/token/ERC20/ERC20.sol\":3104:3195  function decimals() public view virtual override returns (uint8) {... */\n    tag_10:\n      mload(0x40)\n        /* \"@openzeppelin/contracts/token/ERC20/ERC20.sol\":3186:3188  18 */\n      0x12\n        /* \"#utility.yul\":7374:7410   */\n      dup2\n      mstore\n        /* \"#utility.yul\":7362:7364   */\n      0x20\n        /* \"#utility.yul\":7347:7365   */\n      add\n        /* \"@openzeppelin/contracts/token/ERC20/ERC20.sol\":3104:3195  function decimals() public view virtual override returns (uint8) {... */\n      tag_32\n        /* \"#utility.yul\":7329:7416   */\n      jump\n        /* \"@openzeppelin/contracts/token/ERC20/ERC20.sol\":5854:6088  function increaseAllowance(address spender, uint256 addedValue) public virtual returns (bool) {... */\n    tag_11:\n      tag_38\n      tag_64\n      calldatasize\n      0x04\n      tag_40\n      jump\t// in\n    tag_64:\n      tag_65\n      jump\t// in\n        /* \"contracts/MemeTokenBase/memetoken.sol\":258:287  address public treasuryWallet */\n    tag_12:\n      sload(0x07)\n      tag_30\n      swap1\n      sub(shl(0xa0, 0x01), 0x01)\n      and\n      dup2\n      jump\n        /* \"contracts/MemeTokenBase/memetoken.sol\":380:453  address public constant ZERO = 0x0000000000000000000000000000000000000000 */\n    tag_13:\n      tag_30\n        /* \"contracts/MemeTokenBase/memetoken.sol\":411:453  0x0000000000000000000000000000000000000000 */\n      0x00\n        /* \"contracts/MemeTokenBase/memetoken.sol\":380:453  address public constant ZERO = 0x0000000000000000000000000000000000000000 */\n      dup2\n      jump\n        /* \"contracts/MemeTokenBase/memetoken.sol\":2493:2755  function setFees(uint256 _liquidityFee, uint256 _treasuryFee, uint256 _sellFee, uint256 _burnRate) external onlyOwner {\r... */\n    tag_14:\n      tag_73\n      tag_74\n      calldatasize\n      0x04\n      tag_75\n      jump\t// in\n    tag_74:\n      tag_76\n      jump\t// in\n    tag_73:\n      stop\n        /* \"@openzeppelin/contracts/token/ERC20/ERC20.sol\":3419:3544  function balanceOf(address account) public view virtual override returns (uint256) {... */\n    tag_15:\n      tag_44\n      tag_78\n      calldatasize\n      0x04\n      tag_79\n      jump\t// in\n    tag_78:\n      tag_80\n      jump\t// in\n        /* \"@openzeppelin/contracts/access/Ownable.sol\":1824:1925  function renounceOwnership() public virtual onlyOwner {... */\n    tag_16:\n      tag_73\n      tag_83\n      jump\t// in\n        /* \"@openzeppelin/contracts/access/Ownable.sol\":1201:1286  function owner() public view virtual returns (address) {... */\n    tag_17:\n        /* \"@openzeppelin/contracts/access/Ownable.sol\":1273:1279  _owner */\n      and(sub(shl(0xa0, 0x01), 0x01), sload(0x05))\n        /* \"@openzeppelin/contracts/access/Ownable.sol\":1201:1286  function owner() public view virtual returns (address) {... */\n      jump(tag_30)\n        /* \"@openzeppelin/contracts/token/ERC20/ERC20.sol\":2369:2471  function symbol() public view virtual override returns (string memory) {... */\n    tag_18:\n      tag_34\n      tag_88\n      jump\t// in\n        /* \"contracts/MemeTokenBase/memetoken.sol\":574:606  uint256 public liquidityFee = 25 */\n    tag_19:\n      tag_44\n      sload(0x08)\n      dup2\n      jump\n        /* \"@openzeppelin/contracts/token/ERC20/ERC20.sol\":6575:7002  function decreaseAllowance(address spender, uint256 subtractedValue) public virtual returns (bool) {... */\n    tag_20:\n      tag_38\n      tag_94\n      calldatasize\n      0x04\n      tag_40\n      jump\t// in\n    tag_94:\n      tag_95\n      jump\t// in\n        /* \"contracts/MemeTokenBase/memetoken.sol\":1022:1199  function transfer(address recipient, uint256 amount) public override returns (bool) {\r... */\n    tag_21:\n      tag_38\n      tag_98\n      calldatasize\n      0x04\n      tag_40\n      jump\t// in\n    tag_98:\n      tag_99\n      jump\t// in\n        /* \"contracts/MemeTokenBase/memetoken.sol\":710:738  uint256 public burnRate = 20 */\n    tag_22:\n      tag_44\n      sload(0x0b)\n      dup2\n      jump\n        /* \"contracts/MemeTokenBase/memetoken.sol\":622:653  uint256 public treasuryFee = 50 */\n    tag_23:\n      tag_44\n      sload(0x09)\n      dup2\n      jump\n        /* \"contracts/MemeTokenBase/memetoken.sol\":221:251  address public liquidityWallet */\n    tag_24:\n      sload(0x06)\n      tag_30\n      swap1\n      sub(shl(0xa0, 0x01), 0x01)\n      and\n      dup2\n      jump\n        /* \"@openzeppelin/contracts/token/ERC20/ERC20.sol\":3987:4136  function allowance(address owner, address spender) public view virtual override returns (uint256) {... */\n    tag_25:\n      tag_44\n      tag_111\n      calldatasize\n      0x04\n      tag_112\n      jump\t// in\n    tag_111:\n      tag_113\n      jump\t// in\n        /* \"@openzeppelin/contracts/access/Ownable.sol\":2074:2272  function transferOwnership(address newOwner) public virtual onlyOwner {... */\n    tag_26:\n      tag_73\n      tag_116\n      calldatasize\n      0x04\n      tag_79\n      jump\t// in\n    tag_116:\n      tag_117\n      jump\t// in\n        /* \"@openzeppelin/contracts/token/ERC20/ERC20.sol\":2158:2256  function name() public view virtual override returns (string memory) {... */\n    tag_35:\n        /* \"@openzeppelin/contracts/token/ERC20/ERC20.sol\":2212:2225  string memory */\n      0x60\n        /* \"@openzeppelin/contracts/token/ERC20/ERC20.sol\":2244:2249  _name */\n      0x03\n        /* \"@openzeppelin/contracts/token/ERC20/ERC20.sol\":2237:2249  return _name */\n      dup1\n      sload\n      tag_119\n      swap1\n      tag_120\n      jump\t// in\n    tag_119:\n      dup1\n      0x1f\n      add\n      0x20\n      dup1\n      swap2\n      div\n      mul\n      0x20\n      add\n      mload(0x40)\n      swap1\n      dup2\n      add\n      0x40\n      mstore\n      dup1\n      swap3\n      swap2\n      swap1\n      dup2\n      dup2\n      mstore\n      0x20\n      add\n      dup3\n      dup1\n      sload\n      tag_121\n      swap1\n      tag_120\n      jump\t// in\n    tag_121:\n      dup1\n      iszero\n      tag_122\n      jumpi\n      dup1\n      0x1f\n      lt\n      tag_123\n      jumpi\n      0x0100\n      dup1\n      dup4\n      sload\n      div\n      mul\n      dup4\n      mstore\n      swap2\n      0x20\n      add\n      swap2\n      jump(tag_122)\n    tag_123:\n      dup3\n      add\n      swap2\n      swap1\n      0x00\n      mstore\n      keccak256(0x00, 0x20)\n      swap1\n    tag_124:\n      dup2\n      sload\n      dup2\n      mstore\n      swap1\n      0x01\n      add\n      swap1\n      0x20\n      add\n      dup1\n      dup4\n      gt\n      tag_124\n      jumpi\n      dup3\n      swap1\n      sub\n      0x1f\n      and\n      dup3\n      add\n      swap2\n    tag_122:\n      pop\n      pop\n      pop\n      pop\n      pop\n      swap1\n      pop\n        /* \"@openzeppelin/contracts/token/ERC20/ERC20.sol\":2158:2256  function name() public view virtual override returns (string memory) {... */\n      swap1\n      jump\t// out\n        /* \"@openzeppelin/contracts/token/ERC20/ERC20.sol\":4444:4641  function approve(address spender, uint256 amount) public virtual override returns (bool) {... */\n    tag_41:\n        /* \"@openzeppelin/contracts/token/ERC20/ERC20.sol\":4527:4531  bool */\n      0x00\n        /* \"@openzeppelin/contracts/utils/Context.sol\":719:729  msg.sender */\n      caller\n        /* \"@openzeppelin/contracts/token/ERC20/ERC20.sol\":4581:4613  _approve(owner, spender, amount) */\n      tag_128\n        /* \"@openzeppelin/contracts/utils/Context.sol\":719:729  msg.sender */\n      dup2\n        /* \"@openzeppelin/contracts/token/ERC20/ERC20.sol\":4597:4604  spender */\n      dup6\n        /* \"@openzeppelin/contracts/token/ERC20/ERC20.sol\":4606:4612  amount */\n      dup6\n        /* \"@openzeppelin/contracts/token/ERC20/ERC20.sol\":4581:4589  _approve */\n      tag_129\n        /* \"@openzeppelin/contracts/token/ERC20/ERC20.sol\":4581:4613  _approve(owner, spender, amount) */\n      jump\t// in\n    tag_128:\n      pop\n        /* \"@openzeppelin/contracts/token/ERC20/ERC20.sol\":4630:4634  true */\n      0x01\n      swap4\n        /* \"@openzeppelin/contracts/token/ERC20/ERC20.sol\":4444:4641  function approve(address spender, uint256 amount) public virtual override returns (bool) {... */\n      swap3\n      pop\n      pop\n      pop\n      jump\t// out\n        /* \"contracts/MemeTokenBase/memetoken.sol\":1207:1412  function transferFrom(address sender, address recipient, uint256 amount) public override returns (bool) {\r... */\n    tag_51:\n        /* \"contracts/MemeTokenBase/memetoken.sol\":1305:1309  bool */\n      0x00\n        /* \"contracts/MemeTokenBase/memetoken.sol\":1329:1404  super.transferFrom(sender, recipient, applyFees(sender, recipient, amount)) */\n      tag_132\n        /* \"contracts/MemeTokenBase/memetoken.sol\":1348:1354  sender */\n      dup5\n        /* \"contracts/MemeTokenBase/memetoken.sol\":1356:1365  recipient */\n      dup5\n        /* \"contracts/MemeTokenBase/memetoken.sol\":1367:1403  applyFees(sender, recipient, amount) */\n      tag_133\n        /* \"contracts/MemeTokenBase/memetoken.sol\":1377:1383  sender */\n      dup8\n        /* \"contracts/MemeTokenBase/memetoken.sol\":1385:1394  recipient */\n      dup8\n        /* \"contracts/MemeTokenBase/memetoken.sol\":1396:1402  amount */\n      dup8\n        /* \"contracts/MemeTokenBase/memetoken.sol\":1367:1376  applyFees */\n      tag_134\n        /* \"contracts/MemeTokenBase/memetoken.sol\":1367:1403  applyFees(sender, recipient, amount) */\n      jump\t// in\n    tag_133:\n        /* \"contracts/MemeTokenBase/memetoken.sol\":1329:1347  super.transferFrom */\n      tag_135\n        /* \"contracts/MemeTokenBase/memetoken.sol\":1329:1404  super.transferFrom(sender, recipient, applyFees(sender, recipient, amount)) */\n      jump\t// in\n    tag_132:\n        /* \"contracts/MemeTokenBase/memetoken.sol\":1322:1404  return super.transferFrom(sender, recipient, applyFees(sender, recipient, amount)) */\n      swap1\n      pop\n        /* \"contracts/MemeTokenBase/memetoken.sol\":1207:1412  function transferFrom(address sender, address recipient, uint256 amount) public override returns (bool) {\r... */\n    tag_131:\n      swap4\n      swap3\n      pop\n      pop\n      pop\n      jump\t// out\n        /* \"@openzeppelin/contracts/token/ERC20/ERC20.sol\":5854:6088  function increaseAllowance(address spender, uint256 addedValue) public virtual returns (bool) {... */\n    tag_65:\n        /* \"@openzeppelin/contracts/token/ERC20/ERC20.sol\":5942:5946  bool */\n      0x00\n        /* \"@openzeppelin/contracts/utils/Context.sol\":719:729  msg.sender */\n      caller\n        /* \"@openzeppelin/contracts/token/ERC20/ERC20.sol\":5996:6060  _approve(owner, spender, allowance(owner, spender) + addedValue) */\n      tag_128\n        /* \"@openzeppelin/contracts/utils/Context.sol\":719:729  msg.sender */\n      dup2\n        /* \"@openzeppelin/contracts/token/ERC20/ERC20.sol\":6012:6019  spender */\n      dup6\n        /* \"@openzeppelin/contracts/token/ERC20/ERC20.sol\":6049:6059  addedValue */\n      dup6\n        /* \"@openzeppelin/contracts/token/ERC20/ERC20.sol\":6021:6046  allowance(owner, spender) */\n      tag_140\n        /* \"@openzeppelin/contracts/utils/Context.sol\":719:729  msg.sender */\n      dup4\n        /* \"@openzeppelin/contracts/token/ERC20/ERC20.sol\":6012:6019  spender */\n      dup4\n        /* \"@openzeppelin/contracts/token/ERC20/ERC20.sol\":6021:6030  allowance */\n      tag_113\n        /* \"@openzeppelin/contracts/token/ERC20/ERC20.sol\":6021:6046  allowance(owner, spender) */\n      jump\t// in\n    tag_140:\n        /* \"@openzeppelin/contracts/token/ERC20/ERC20.sol\":6021:6059  allowance(owner, spender) + addedValue */\n      tag_141\n      swap2\n      swap1\n      tag_142\n      jump\t// in\n    tag_141:\n        /* \"@openzeppelin/contracts/token/ERC20/ERC20.sol\":5996:6004  _approve */\n      tag_129\n        /* \"@openzeppelin/contracts/token/ERC20/ERC20.sol\":5996:6060  _approve(owner, spender, allowance(owner, spender) + addedValue) */\n      jump\t// in\n        /* \"contracts/MemeTokenBase/memetoken.sol\":2493:2755  function setFees(uint256 _liquidityFee, uint256 _treasuryFee, uint256 _sellFee, uint256 _burnRate) external onlyOwner {\r... */\n    tag_76:\n        /* \"@openzeppelin/contracts/access/Ownable.sol\":1094:1107  _checkOwner() */\n      tag_144\n        /* \"@openzeppelin/contracts/access/Ownable.sol\":1094:1105  _checkOwner */\n      tag_145\n        /* \"@openzeppelin/contracts/access/Ownable.sol\":1094:1107  _checkOwner() */\n      jump\t// in\n    tag_144:\n        /* \"contracts/MemeTokenBase/memetoken.sol\":2622:2634  liquidityFee */\n      0x08\n        /* \"contracts/MemeTokenBase/memetoken.sol\":2622:2650  liquidityFee = _liquidityFee */\n      swap4\n      swap1\n      swap4\n      sstore\n        /* \"contracts/MemeTokenBase/memetoken.sol\":2661:2672  treasuryFee */\n      0x09\n        /* \"contracts/MemeTokenBase/memetoken.sol\":2661:2687  treasuryFee = _treasuryFee */\n      swap2\n      swap1\n      swap2\n      sstore\n        /* \"contracts/MemeTokenBase/memetoken.sol\":2698:2705  sellFee */\n      0x0a\n        /* \"contracts/MemeTokenBase/memetoken.sol\":2698:2716  sellFee = _sellFee */\n      sstore\n        /* \"contracts/MemeTokenBase/memetoken.sol\":2727:2735  burnRate */\n      0x0b\n        /* \"contracts/MemeTokenBase/memetoken.sol\":2727:2747  burnRate = _burnRate */\n      sstore\n        /* \"contracts/MemeTokenBase/memetoken.sol\":2493:2755  function setFees(uint256 _liquidityFee, uint256 _treasuryFee, uint256 _sellFee, uint256 _burnRate) external onlyOwner {\r... */\n      jump\t// out\n        /* \"@openzeppelin/contracts/token/ERC20/ERC20.sol\":3419:3544  function balanceOf(address account) public view virtual override returns (uint256) {... */\n    tag_80:\n      sub(shl(0xa0, 0x01), 0x01)\n        /* \"@openzeppelin/contracts/token/ERC20/ERC20.sol\":3519:3537  _balances[account] */\n      dup2\n      and\n        /* \"@openzeppelin/contracts/token/ERC20/ERC20.sol\":3493:3500  uint256 */\n      0x00\n        /* \"@openzeppelin/contracts/token/ERC20/ERC20.sol\":3519:3537  _balances[account] */\n      swap1\n      dup2\n      mstore\n      0x20\n      dup2\n      swap1\n      mstore\n      0x40\n      swap1\n      keccak256\n      sload\n        /* \"@openzeppelin/contracts/token/ERC20/ERC20.sol\":3419:3544  function balanceOf(address account) public view virtual override returns (uint256) {... */\n    tag_147:\n      swap2\n      swap1\n      pop\n      jump\t// out\n        /* \"@openzeppelin/contracts/access/Ownable.sol\":1824:1925  function renounceOwnership() public virtual onlyOwner {... */\n    tag_83:\n        /* \"@openzeppelin/contracts/access/Ownable.sol\":1094:1107  _checkOwner() */\n      tag_149\n        /* \"@openzeppelin/contracts/access/Ownable.sol\":1094:1105  _checkOwner */\n      tag_145\n        /* \"@openzeppelin/contracts/access/Ownable.sol\":1094:1107  _checkOwner() */\n      jump\t// in\n    tag_149:\n        /* \"@openzeppelin/contracts/access/Ownable.sol\":1888:1918  _transferOwnership(address(0)) */\n      tag_151\n        /* \"@openzeppelin/contracts/access/Ownable.sol\":1915:1916  0 */\n      0x00\n        /* \"@openzeppelin/contracts/access/Ownable.sol\":1888:1906  _transferOwnership */\n      tag_152\n        /* \"@openzeppelin/contracts/access/Ownable.sol\":1888:1918  _transferOwnership(address(0)) */\n      jump\t// in\n    tag_151:\n        /* \"@openzeppelin/contracts/access/Ownable.sol\":1824:1925  function renounceOwnership() public virtual onlyOwner {... */\n      jump\t// out\n        /* \"@openzeppelin/contracts/token/ERC20/ERC20.sol\":2369:2471  function symbol() public view virtual override returns (string memory) {... */\n    tag_88:\n        /* \"@openzeppelin/contracts/token/ERC20/ERC20.sol\":2425:2438  string memory */\n      0x60\n        /* \"@openzeppelin/contracts/token/ERC20/ERC20.sol\":2457:2464  _symbol */\n      0x04\n        /* \"@openzeppelin/contracts/token/ERC20/ERC20.sol\":2450:2464  return _symbol */\n      dup1\n      sload\n      tag_119\n      swap1\n      tag_120\n      jump\t// in\n        /* \"@openzeppelin/contracts/token/ERC20/ERC20.sol\":6575:7002  function decreaseAllowance(address spender, uint256 subtractedValue) public virtual returns (bool) {... */\n    tag_95:\n        /* \"@openzeppelin/contracts/token/ERC20/ERC20.sol\":6668:6672  bool */\n      0x00\n        /* \"@openzeppelin/contracts/utils/Context.sol\":719:729  msg.sender */\n      caller\n        /* \"@openzeppelin/contracts/token/ERC20/ERC20.sol\":6668:6672  bool */\n      dup2\n        /* \"@openzeppelin/contracts/token/ERC20/ERC20.sol\":6749:6774  allowance(owner, spender) */\n      tag_162\n        /* \"@openzeppelin/contracts/utils/Context.sol\":719:729  msg.sender */\n      dup3\n        /* \"@openzeppelin/contracts/token/ERC20/ERC20.sol\":6766:6773  spender */\n      dup7\n        /* \"@openzeppelin/contracts/token/ERC20/ERC20.sol\":6749:6758  allowance */\n      tag_113\n        /* \"@openzeppelin/contracts/token/ERC20/ERC20.sol\":6749:6774  allowance(owner, spender) */\n      jump\t// in\n    tag_162:\n        /* \"@openzeppelin/contracts/token/ERC20/ERC20.sol\":6722:6774  uint256 currentAllowance = allowance(owner, spender) */\n      swap1\n      pop\n        /* \"@openzeppelin/contracts/token/ERC20/ERC20.sol\":6812:6827  subtractedValue */\n      dup4\n        /* \"@openzeppelin/contracts/token/ERC20/ERC20.sol\":6792:6808  currentAllowance */\n      dup2\n        /* \"@openzeppelin/contracts/token/ERC20/ERC20.sol\":6792:6827  currentAllowance >= subtractedValue */\n      lt\n      iszero\n        /* \"@openzeppelin/contracts/token/ERC20/ERC20.sol\":6784:6869  require(currentAllowance >= subtractedValue, \"ERC20: decreased allowance below zero\") */\n      tag_163\n      jumpi\n      mload(0x40)\n      shl(0xe5, 0x461bcd)\n      dup2\n      mstore\n        /* \"#utility.yul\":6846:6848   */\n      0x20\n        /* \"@openzeppelin/contracts/token/ERC20/ERC20.sol\":6784:6869  require(currentAllowance >= subtractedValue, \"ERC20: decreased allowance below zero\") */\n      0x04\n      dup3\n      add\n        /* \"#utility.yul\":6828:6849   */\n      mstore\n        /* \"#utility.yul\":6885:6887   */\n      0x25\n        /* \"#utility.yul\":6865:6883   */\n      0x24\n      dup3\n      add\n        /* \"#utility.yul\":6858:6888   */\n      mstore\n        /* \"#utility.yul\":6924:6958   */\n      0x45524332303a2064656372656173656420616c6c6f77616e63652062656c6f77\n        /* \"#utility.yul\":6904:6922   */\n      0x44\n      dup3\n      add\n        /* \"#utility.yul\":6897:6959   */\n      mstore\n      shl(0xd8, 0x207a65726f)\n        /* \"#utility.yul\":6975:6993   */\n      0x64\n      dup3\n      add\n        /* \"#utility.yul\":6968:7003   */\n      mstore\n        /* \"#utility.yul\":7020:7039   */\n      0x84\n      add\n        /* \"@openzeppelin/contracts/token/ERC20/ERC20.sol\":6784:6869  require(currentAllowance >= subtractedValue, \"ERC20: decreased allowance below zero\") */\n    tag_164:\n      mload(0x40)\n      dup1\n      swap2\n      sub\n      swap1\n      revert\n    tag_163:\n        /* \"@openzeppelin/contracts/token/ERC20/ERC20.sol\":6903:6963  _approve(owner, spender, currentAllowance - subtractedValue) */\n      tag_166\n        /* \"@openzeppelin/contracts/token/ERC20/ERC20.sol\":6912:6917  owner */\n      dup3\n        /* \"@openzeppelin/contracts/token/ERC20/ERC20.sol\":6919:6926  spender */\n      dup7\n        /* \"@openzeppelin/contracts/token/ERC20/ERC20.sol\":6947:6962  subtractedValue */\n      dup7\n        /* \"@openzeppelin/contracts/token/ERC20/ERC20.sol\":6928:6944  currentAllowance */\n      dup5\n        /* \"@openzeppelin/contracts/token/ERC20/ERC20.sol\":6928:6962  currentAllowance - subtractedValue */\n      sub\n        /* \"@openzeppelin/contracts/token/ERC20/ERC20.sol\":6903:6911  _approve */\n      tag_129\n        /* \"@openzeppelin/contracts/token/ERC20/ERC20.sol\":6903:6963  _approve(owner, spender, currentAllowance - subtractedValue) */\n      jump\t// in\n    tag_166:\n      pop\n        /* \"@openzeppelin/contracts/token/ERC20/ERC20.sol\":6991:6995  true */\n      0x01\n      swap5\n        /* \"@openzeppelin/contracts/token/ERC20/ERC20.sol\":6575:7002  function decreaseAllowance(address spender, uint256 subtractedValue) public virtual returns (bool) {... */\n      swap4\n      pop\n      pop\n      pop\n      pop\n      jump\t// out\n        /* \"contracts/MemeTokenBase/memetoken.sol\":1022:1199  function transfer(address recipient, uint256 amount) public override returns (bool) {\r... */\n    tag_99:\n        /* \"contracts/MemeTokenBase/memetoken.sol\":1100:1104  bool */\n      0x00\n        /* \"contracts/MemeTokenBase/memetoken.sol\":1124:1191  super.transfer(recipient, applyFees(msg.sender, recipient, amount)) */\n      tag_131\n        /* \"contracts/MemeTokenBase/memetoken.sol\":1139:1148  recipient */\n      dup4\n        /* \"contracts/MemeTokenBase/memetoken.sol\":1150:1190  applyFees(msg.sender, recipient, amount) */\n      tag_169\n        /* \"contracts/MemeTokenBase/memetoken.sol\":1160:1170  msg.sender */\n      caller\n        /* \"contracts/MemeTokenBase/memetoken.sol\":1172:1181  recipient */\n      dup7\n        /* \"contracts/MemeTokenBase/memetoken.sol\":1183:1189  amount */\n      dup7\n        /* \"contracts/MemeTokenBase/memetoken.sol\":1150:1159  applyFees */\n      tag_134\n        /* \"contracts/MemeTokenBase/memetoken.sol\":1150:1190  applyFees(msg.sender, recipient, amount) */\n      jump\t// in\n    tag_169:\n        /* \"contracts/MemeTokenBase/memetoken.sol\":1124:1138  super.transfer */\n      tag_170\n        /* \"contracts/MemeTokenBase/memetoken.sol\":1124:1191  super.transfer(recipient, applyFees(msg.sender, recipient, amount)) */\n      jump\t// in\n        /* \"@openzeppelin/contracts/token/ERC20/ERC20.sol\":3987:4136  function allowance(address owner, address spender) public view virtual override returns (uint256) {... */\n    tag_113:\n      sub(shl(0xa0, 0x01), 0x01)\n        /* \"@openzeppelin/contracts/token/ERC20/ERC20.sol\":4102:4120  _allowances[owner] */\n      swap2\n      dup3\n      and\n        /* \"@openzeppelin/contracts/token/ERC20/ERC20.sol\":4076:4083  uint256 */\n      0x00\n        /* \"@openzeppelin/contracts/token/ERC20/ERC20.sol\":4102:4120  _allowances[owner] */\n      swap1\n      dup2\n      mstore\n        /* \"@openzeppelin/contracts/token/ERC20/ERC20.sol\":4102:4113  _allowances */\n      0x01\n        /* \"@openzeppelin/contracts/token/ERC20/ERC20.sol\":4102:4120  _allowances[owner] */\n      0x20\n      swap1\n      dup2\n      mstore\n      0x40\n      dup1\n      dup4\n      keccak256\n        /* \"@openzeppelin/contracts/token/ERC20/ERC20.sol\":4102:4129  _allowances[owner][spender] */\n      swap4\n      swap1\n      swap5\n      and\n      dup3\n      mstore\n      swap2\n      swap1\n      swap2\n      mstore\n      keccak256\n      sload\n      swap1\n        /* \"@openzeppelin/contracts/token/ERC20/ERC20.sol\":3987:4136  function allowance(address owner, address spender) public view virtual override returns (uint256) {... */\n      jump\t// out\n        /* \"@openzeppelin/contracts/access/Ownable.sol\":2074:2272  function transferOwnership(address newOwner) public virtual onlyOwner {... */\n    tag_117:\n        /* \"@openzeppelin/contracts/access/Ownable.sol\":1094:1107  _checkOwner() */\n      tag_173\n        /* \"@openzeppelin/contracts/access/Ownable.sol\":1094:1105  _checkOwner */\n      tag_145\n        /* \"@openzeppelin/contracts/access/Ownable.sol\":1094:1107  _checkOwner() */\n      jump\t// in\n    tag_173:\n      sub(shl(0xa0, 0x01), 0x01)\n        /* \"@openzeppelin/contracts/access/Ownable.sol\":2162:2184  newOwner != address(0) */\n      dup2\n      and\n        /* \"@openzeppelin/contracts/access/Ownable.sol\":2154:2227  require(newOwner != address(0), \"Ownable: new owner is the zero address\") */\n      tag_175\n      jumpi\n      mload(0x40)\n      shl(0xe5, 0x461bcd)\n      dup2\n      mstore\n        /* \"#utility.yul\":3697:3699   */\n      0x20\n        /* \"@openzeppelin/contracts/access/Ownable.sol\":2154:2227  require(newOwner != address(0), \"Ownable: new owner is the zero address\") */\n      0x04\n      dup3\n      add\n        /* \"#utility.yul\":3679:3700   */\n      mstore\n        /* \"#utility.yul\":3736:3738   */\n      0x26\n        /* \"#utility.yul\":3716:3734   */\n      0x24\n      dup3\n      add\n        /* \"#utility.yul\":3709:3739   */\n      mstore\n        /* \"#utility.yul\":3775:3809   */\n      0x4f776e61626c653a206e6577206f776e657220697320746865207a65726f2061\n        /* \"#utility.yul\":3755:3773   */\n      0x44\n      dup3\n      add\n        /* \"#utility.yul\":3748:3810   */\n      mstore\n      shl(0xd0, 0x646472657373)\n        /* \"#utility.yul\":3826:3844   */\n      0x64\n      dup3\n      add\n        /* \"#utility.yul\":3819:3855   */\n      mstore\n        /* \"#utility.yul\":3872:3891   */\n      0x84\n      add\n        /* \"@openzeppelin/contracts/access/Ownable.sol\":2154:2227  require(newOwner != address(0), \"Ownable: new owner is the zero address\") */\n      tag_164\n        /* \"#utility.yul\":3669:3897   */\n      jump\n        /* \"@openzeppelin/contracts/access/Ownable.sol\":2154:2227  require(newOwner != address(0), \"Ownable: new owner is the zero address\") */\n    tag_175:\n        /* \"@openzeppelin/contracts/access/Ownable.sol\":2237:2265  _transferOwnership(newOwner) */\n      tag_178\n        /* \"@openzeppelin/contracts/access/Ownable.sol\":2256:2264  newOwner */\n      dup2\n        /* \"@openzeppelin/contracts/access/Ownable.sol\":2237:2255  _transferOwnership */\n      tag_152\n        /* \"@openzeppelin/contracts/access/Ownable.sol\":2237:2265  _transferOwnership(newOwner) */\n      jump\t// in\n    tag_178:\n        /* \"@openzeppelin/contracts/access/Ownable.sol\":2074:2272  function transferOwnership(address newOwner) public virtual onlyOwner {... */\n      pop\n      jump\t// out\n        /* \"@openzeppelin/contracts/token/ERC20/ERC20.sol\":10457:10797  function _approve(address owner, address spender, uint256 amount) internal virtual {... */\n    tag_129:\n      sub(shl(0xa0, 0x01), 0x01)\n        /* \"@openzeppelin/contracts/token/ERC20/ERC20.sol\":10558:10577  owner != address(0) */\n      dup4\n      and\n        /* \"@openzeppelin/contracts/token/ERC20/ERC20.sol\":10550:10618  require(owner != address(0), \"ERC20: approve from the zero address\") */\n      tag_181\n      jumpi\n      mload(0x40)\n      shl(0xe5, 0x461bcd)\n      dup2\n      mstore\n        /* \"#utility.yul\":6441:6443   */\n      0x20\n        /* \"@openzeppelin/contracts/token/ERC20/ERC20.sol\":10550:10618  require(owner != address(0), \"ERC20: approve from the zero address\") */\n      0x04\n      dup3\n      add\n        /* \"#utility.yul\":6423:6444   */\n      mstore\n        /* \"#utility.yul\":6480:6482   */\n      0x24\n        /* \"#utility.yul\":6460:6478   */\n      dup1\n      dup3\n      add\n        /* \"#utility.yul\":6453:6483   */\n      mstore\n        /* \"#utility.yul\":6519:6553   */\n      0x45524332303a20617070726f76652066726f6d20746865207a65726f20616464\n        /* \"#utility.yul\":6499:6517   */\n      0x44\n      dup3\n      add\n        /* \"#utility.yul\":6492:6554   */\n      mstore\n      shl(0xe0, 0x72657373)\n        /* \"#utility.yul\":6570:6588   */\n      0x64\n      dup3\n      add\n        /* \"#utility.yul\":6563:6597   */\n      mstore\n        /* \"#utility.yul\":6614:6633   */\n      0x84\n      add\n        /* \"@openzeppelin/contracts/token/ERC20/ERC20.sol\":10550:10618  require(owner != address(0), \"ERC20: approve from the zero address\") */\n      tag_164\n        /* \"#utility.yul\":6413:6639   */\n      jump\n        /* \"@openzeppelin/contracts/token/ERC20/ERC20.sol\":10550:10618  require(owner != address(0), \"ERC20: approve from the zero address\") */\n    tag_181:\n      sub(shl(0xa0, 0x01), 0x01)\n        /* \"@openzeppelin/contracts/token/ERC20/ERC20.sol\":10636:10657  spender != address(0) */\n      dup3\n      and\n        /* \"@openzeppelin/contracts/token/ERC20/ERC20.sol\":10628:10696  require(spender != address(0), \"ERC20: approve to the zero address\") */\n      tag_184\n      jumpi\n      mload(0x40)\n      shl(0xe5, 0x461bcd)\n      dup2\n      mstore\n        /* \"#utility.yul\":4104:4106   */\n      0x20\n        /* \"@openzeppelin/contracts/token/ERC20/ERC20.sol\":10628:10696  require(spender != address(0), \"ERC20: approve to the zero address\") */\n      0x04\n      dup3\n      add\n        /* \"#utility.yul\":4086:4107   */\n      mstore\n        /* \"#utility.yul\":4143:4145   */\n      0x22\n        /* \"#utility.yul\":4123:4141   */\n      0x24\n      dup3\n      add\n        /* \"#utility.yul\":4116:4146   */\n      mstore\n        /* \"#utility.yul\":4182:4216   */\n      0x45524332303a20617070726f766520746f20746865207a65726f206164647265\n        /* \"#utility.yul\":4162:4180   */\n      0x44\n      dup3\n      add\n        /* \"#utility.yul\":4155:4217   */\n      mstore\n      shl(0xf0, 0x7373)\n        /* \"#utility.yul\":4233:4251   */\n      0x64\n      dup3\n      add\n        /* \"#utility.yul\":4226:4258   */\n      mstore\n        /* \"#utility.yul\":4275:4294   */\n      0x84\n      add\n        /* \"@openzeppelin/contracts/token/ERC20/ERC20.sol\":10628:10696  require(spender != address(0), \"ERC20: approve to the zero address\") */\n      tag_164\n        /* \"#utility.yul\":4076:4300   */\n      jump\n        /* \"@openzeppelin/contracts/token/ERC20/ERC20.sol\":10628:10696  require(spender != address(0), \"ERC20: approve to the zero address\") */\n    tag_184:\n      sub(shl(0xa0, 0x01), 0x01)\n        /* \"@openzeppelin/contracts/token/ERC20/ERC20.sol\":10707:10725  _allowances[owner] */\n      dup4\n      dup2\n      and\n      0x00\n      dup2\n      dup2\n      mstore\n        /* \"@openzeppelin/contracts/token/ERC20/ERC20.sol\":10707:10718  _allowances */\n      0x01\n        /* \"@openzeppelin/contracts/token/ERC20/ERC20.sol\":10707:10725  _allowances[owner] */\n      0x20\n      swap1\n      dup2\n      mstore\n      0x40\n      dup1\n      dup4\n      keccak256\n        /* \"@openzeppelin/contracts/token/ERC20/ERC20.sol\":10707:10734  _allowances[owner][spender] */\n      swap5\n      dup8\n      and\n      dup1\n      dup5\n      mstore\n      swap5\n      dup3\n      mstore\n      swap2\n      dup3\n      swap1\n      keccak256\n        /* \"@openzeppelin/contracts/token/ERC20/ERC20.sol\":10707:10743  _allowances[owner][spender] = amount */\n      dup6\n      swap1\n      sstore\n        /* \"@openzeppelin/contracts/token/ERC20/ERC20.sol\":10758:10790  Approval(owner, spender, amount) */\n      swap1\n      mload\n        /* \"#utility.yul\":7196:7221   */\n      dup5\n      dup2\n      mstore\n        /* \"@openzeppelin/contracts/token/ERC20/ERC20.sol\":10758:10790  Approval(owner, spender, amount) */\n      0x8c5be1e5ebec7d5bd14f71427d1e84f3dd0314c0f7b2291e5b200ac8c7c3b925\n      swap2\n        /* \"#utility.yul\":7169:7187   */\n      add\n        /* \"@openzeppelin/contracts/token/ERC20/ERC20.sol\":10758:10790  Approval(owner, spender, amount) */\n    tag_187:\n      mload(0x40)\n      dup1\n      swap2\n      sub\n      swap1\n      log3\n        /* \"@openzeppelin/contracts/token/ERC20/ERC20.sol\":10457:10797  function _approve(address owner, address spender, uint256 amount) internal virtual {... */\n      pop\n      pop\n      pop\n      jump\t// out\n        /* \"contracts/MemeTokenBase/memetoken.sol\":1420:2485  function applyFees(address sender, address recipient, uint256 amount) internal returns (uint256) {\r... */\n    tag_134:\n        /* \"contracts/MemeTokenBase/memetoken.sol\":1508:1515  uint256 */\n      0x00\n      sub(shl(0xa0, 0x01), 0x01)\n        /* \"contracts/MemeTokenBase/memetoken.sol\":1532:1549  recipient == DEAD */\n      dup4\n      and\n        /* \"contracts/MemeTokenBase/memetoken.sol\":331:373  0x000000000000000000000000000000000000dEaD */\n      0xdead\n        /* \"contracts/MemeTokenBase/memetoken.sol\":1532:1549  recipient == DEAD */\n      eq\n      dup1\n        /* \"contracts/MemeTokenBase/memetoken.sol\":1532:1570  recipient == DEAD || recipient == ZERO */\n      tag_189\n      jumpi\n      pop\n      sub(shl(0xa0, 0x01), 0x01)\n        /* \"contracts/MemeTokenBase/memetoken.sol\":1553:1570  recipient == ZERO */\n      dup4\n      and\n      iszero\n        /* \"contracts/MemeTokenBase/memetoken.sol\":1532:1570  recipient == DEAD || recipient == ZERO */\n    tag_189:\n        /* \"contracts/MemeTokenBase/memetoken.sol\":1532:1599  recipient == DEAD || recipient == ZERO || sender == liquidityWallet */\n      dup1\n      tag_190\n      jumpi\n      pop\n        /* \"contracts/MemeTokenBase/memetoken.sol\":1584:1599  liquidityWallet */\n      sload(0x06)\n      sub(shl(0xa0, 0x01), 0x01)\n        /* \"contracts/MemeTokenBase/memetoken.sol\":1574:1599  sender == liquidityWallet */\n      dup6\n      dup2\n      and\n        /* \"contracts/MemeTokenBase/memetoken.sol\":1584:1599  liquidityWallet */\n      swap2\n      and\n        /* \"contracts/MemeTokenBase/memetoken.sol\":1574:1599  sender == liquidityWallet */\n      eq\n        /* \"contracts/MemeTokenBase/memetoken.sol\":1532:1599  recipient == DEAD || recipient == ZERO || sender == liquidityWallet */\n    tag_190:\n        /* \"contracts/MemeTokenBase/memetoken.sol\":1532:1627  recipient == DEAD || recipient == ZERO || sender == liquidityWallet || sender == treasuryWallet */\n      dup1\n      tag_191\n      jumpi\n      pop\n        /* \"contracts/MemeTokenBase/memetoken.sol\":1613:1627  treasuryWallet */\n      sload(0x07)\n      sub(shl(0xa0, 0x01), 0x01)\n        /* \"contracts/MemeTokenBase/memetoken.sol\":1603:1627  sender == treasuryWallet */\n      dup6\n      dup2\n      and\n        /* \"contracts/MemeTokenBase/memetoken.sol\":1613:1627  treasuryWallet */\n      swap2\n      and\n        /* \"contracts/MemeTokenBase/memetoken.sol\":1603:1627  sender == treasuryWallet */\n      eq\n        /* \"contracts/MemeTokenBase/memetoken.sol\":1532:1627  recipient == DEAD || recipient == ZERO || sender == liquidityWallet || sender == treasuryWallet */\n    tag_191:\n        /* \"contracts/MemeTokenBase/memetoken.sol\":1528:1669  if (recipient == DEAD || recipient == ZERO || sender == liquidityWallet || sender == treasuryWallet) {\r... */\n      iszero\n      tag_192\n      jumpi\n      pop\n        /* \"contracts/MemeTokenBase/memetoken.sol\":1651:1657  amount */\n      dup1\n        /* \"contracts/MemeTokenBase/memetoken.sol\":1644:1657  return amount */\n      jump(tag_131)\n        /* \"contracts/MemeTokenBase/memetoken.sol\":1528:1669  if (recipient == DEAD || recipient == ZERO || sender == liquidityWallet || sender == treasuryWallet) {\r... */\n    tag_192:\n        /* \"contracts/MemeTokenBase/memetoken.sol\":1681:1707  uint256 liquidityFeeAmount */\n      0x00\n        /* \"contracts/MemeTokenBase/memetoken.sol\":1734:1739  10000 */\n      0x2710\n        /* \"contracts/MemeTokenBase/memetoken.sol\":1719:1731  liquidityFee */\n      sload(0x08)\n        /* \"contracts/MemeTokenBase/memetoken.sol\":1710:1716  amount */\n      dup5\n        /* \"contracts/MemeTokenBase/memetoken.sol\":1710:1731  amount * liquidityFee */\n      tag_193\n      swap2\n      swap1\n      tag_194\n      jump\t// in\n    tag_193:\n        /* \"contracts/MemeTokenBase/memetoken.sol\":1710:1739  amount * liquidityFee / 10000 */\n      tag_195\n      swap2\n      swap1\n      tag_196\n      jump\t// in\n    tag_195:\n        /* \"contracts/MemeTokenBase/memetoken.sol\":1681:1739  uint256 liquidityFeeAmount = amount * liquidityFee / 10000 */\n      swap1\n      pop\n        /* \"contracts/MemeTokenBase/memetoken.sol\":1750:1775  uint256 treasuryFeeAmount */\n      0x00\n        /* \"contracts/MemeTokenBase/memetoken.sol\":1801:1806  10000 */\n      0x2710\n        /* \"contracts/MemeTokenBase/memetoken.sol\":1787:1798  treasuryFee */\n      sload(0x09)\n        /* \"contracts/MemeTokenBase/memetoken.sol\":1778:1784  amount */\n      dup6\n        /* \"contracts/MemeTokenBase/memetoken.sol\":1778:1798  amount * treasuryFee */\n      tag_197\n      swap2\n      swap1\n      tag_194\n      jump\t// in\n    tag_197:\n        /* \"contracts/MemeTokenBase/memetoken.sol\":1778:1806  amount * treasuryFee / 10000 */\n      tag_198\n      swap2\n      swap1\n      tag_196\n      jump\t// in\n    tag_198:\n        /* \"contracts/MemeTokenBase/memetoken.sol\":1750:1806  uint256 treasuryFeeAmount = amount * treasuryFee / 10000 */\n      swap1\n      pop\n        /* \"contracts/MemeTokenBase/memetoken.sol\":1817:1835  uint256 burnAmount */\n      0x00\n        /* \"contracts/MemeTokenBase/memetoken.sol\":1858:1863  10000 */\n      0x2710\n        /* \"contracts/MemeTokenBase/memetoken.sol\":1847:1855  burnRate */\n      sload(0x0b)\n        /* \"contracts/MemeTokenBase/memetoken.sol\":1838:1844  amount */\n      dup7\n        /* \"contracts/MemeTokenBase/memetoken.sol\":1838:1855  amount * burnRate */\n      tag_199\n      swap2\n      swap1\n      tag_194\n      jump\t// in\n    tag_199:\n        /* \"contracts/MemeTokenBase/memetoken.sol\":1838:1863  amount * burnRate / 10000 */\n      tag_200\n      swap2\n      swap1\n      tag_196\n      jump\t// in\n    tag_200:\n        /* \"contracts/MemeTokenBase/memetoken.sol\":1893:1908  liquidityWallet */\n      sload(0x06)\n        /* \"contracts/MemeTokenBase/memetoken.sol\":1817:1863  uint256 burnAmount = amount * burnRate / 10000 */\n      swap1\n      swap2\n      pop\n      sub(shl(0xa0, 0x01), 0x01)\n        /* \"contracts/MemeTokenBase/memetoken.sol\":1880:1908  recipient != liquidityWallet */\n      dup8\n      dup2\n      and\n        /* \"contracts/MemeTokenBase/memetoken.sol\":1893:1908  liquidityWallet */\n      swap2\n      and\n        /* \"contracts/MemeTokenBase/memetoken.sol\":1880:1908  recipient != liquidityWallet */\n      eq\n        /* \"contracts/MemeTokenBase/memetoken.sol\":1876:1988  if (recipient != liquidityWallet) {\r... */\n      tag_201\n      jumpi\n        /* \"contracts/MemeTokenBase/memetoken.sol\":1940:1955  liquidityWallet */\n      sload(0x06)\n        /* \"contracts/MemeTokenBase/memetoken.sol\":1925:1976  super.transfer(liquidityWallet, liquidityFeeAmount) */\n      tag_202\n      swap1\n      sub(shl(0xa0, 0x01), 0x01)\n        /* \"contracts/MemeTokenBase/memetoken.sol\":1940:1955  liquidityWallet */\n      and\n        /* \"contracts/MemeTokenBase/memetoken.sol\":1957:1975  liquidityFeeAmount */\n      dup5\n        /* \"contracts/MemeTokenBase/memetoken.sol\":1925:1939  super.transfer */\n      tag_170\n        /* \"contracts/MemeTokenBase/memetoken.sol\":1925:1976  super.transfer(liquidityWallet, liquidityFeeAmount) */\n      jump\t// in\n    tag_202:\n      pop\n        /* \"contracts/MemeTokenBase/memetoken.sol\":1876:1988  if (recipient != liquidityWallet) {\r... */\n    tag_201:\n        /* \"contracts/MemeTokenBase/memetoken.sol\":2017:2031  treasuryWallet */\n      sload(0x07)\n      sub(shl(0xa0, 0x01), 0x01)\n        /* \"contracts/MemeTokenBase/memetoken.sol\":2004:2031  recipient != treasuryWallet */\n      dup8\n      dup2\n      and\n        /* \"contracts/MemeTokenBase/memetoken.sol\":2017:2031  treasuryWallet */\n      swap2\n      and\n        /* \"contracts/MemeTokenBase/memetoken.sol\":2004:2031  recipient != treasuryWallet */\n      eq\n        /* \"contracts/MemeTokenBase/memetoken.sol\":2000:2109  if (recipient != treasuryWallet) {\r... */\n      tag_203\n      jumpi\n        /* \"contracts/MemeTokenBase/memetoken.sol\":2063:2077  treasuryWallet */\n      sload(0x07)\n        /* \"contracts/MemeTokenBase/memetoken.sol\":2048:2097  super.transfer(treasuryWallet, treasuryFeeAmount) */\n      tag_204\n      swap1\n      sub(shl(0xa0, 0x01), 0x01)\n        /* \"contracts/MemeTokenBase/memetoken.sol\":2063:2077  treasuryWallet */\n      and\n        /* \"contracts/MemeTokenBase/memetoken.sol\":2079:2096  treasuryFeeAmount */\n      dup4\n        /* \"contracts/MemeTokenBase/memetoken.sol\":2048:2062  super.transfer */\n      tag_170\n        /* \"contracts/MemeTokenBase/memetoken.sol\":2048:2097  super.transfer(treasuryWallet, treasuryFeeAmount) */\n      jump\t// in\n    tag_204:\n      pop\n        /* \"contracts/MemeTokenBase/memetoken.sol\":2000:2109  if (recipient != treasuryWallet) {\r... */\n    tag_203:\n        /* \"contracts/MemeTokenBase/memetoken.sol\":2121:2146  _burn(sender, burnAmount) */\n      tag_205\n        /* \"contracts/MemeTokenBase/memetoken.sol\":2127:2133  sender */\n      dup8\n        /* \"contracts/MemeTokenBase/memetoken.sol\":2135:2145  burnAmount */\n      dup3\n        /* \"contracts/MemeTokenBase/memetoken.sol\":2121:2126  _burn */\n      tag_206\n        /* \"contracts/MemeTokenBase/memetoken.sol\":2121:2146  _burn(sender, burnAmount) */\n      jump\t// in\n    tag_205:\n        /* \"contracts/MemeTokenBase/memetoken.sol\":2209:2224  liquidityWallet */\n      sload(0x06)\n        /* \"contracts/MemeTokenBase/memetoken.sol\":2159:2180  uint256 sellFeeAmount */\n      0x00\n      swap1\n      sub(shl(0xa0, 0x01), 0x01)\n        /* \"contracts/MemeTokenBase/memetoken.sol\":2199:2224  sender != liquidityWallet */\n      dup10\n      dup2\n      and\n        /* \"contracts/MemeTokenBase/memetoken.sol\":2209:2224  liquidityWallet */\n      swap2\n      and\n        /* \"contracts/MemeTokenBase/memetoken.sol\":2199:2224  sender != liquidityWallet */\n      eq\n      dup1\n      iszero\n      swap1\n        /* \"contracts/MemeTokenBase/memetoken.sol\":2199:2252  sender != liquidityWallet && sender != treasuryWallet */\n      tag_207\n      jumpi\n      pop\n        /* \"contracts/MemeTokenBase/memetoken.sol\":2238:2252  treasuryWallet */\n      sload(0x07)\n      sub(shl(0xa0, 0x01), 0x01)\n        /* \"contracts/MemeTokenBase/memetoken.sol\":2228:2252  sender != treasuryWallet */\n      dup10\n      dup2\n      and\n        /* \"contracts/MemeTokenBase/memetoken.sol\":2238:2252  treasuryWallet */\n      swap2\n      and\n        /* \"contracts/MemeTokenBase/memetoken.sol\":2228:2252  sender != treasuryWallet */\n      eq\n      iszero\n        /* \"contracts/MemeTokenBase/memetoken.sol\":2199:2252  sender != liquidityWallet && sender != treasuryWallet */\n    tag_207:\n        /* \"contracts/MemeTokenBase/memetoken.sol\":2195:2382  if (sender != liquidityWallet && sender != treasuryWallet) {\r... */\n      iszero\n      tag_208\n      jumpi\n        /* \"contracts/MemeTokenBase/memetoken.sol\":2304:2309  10000 */\n      0x2710\n        /* \"contracts/MemeTokenBase/memetoken.sol\":2294:2301  sellFee */\n      sload(0x0a)\n        /* \"contracts/MemeTokenBase/memetoken.sol\":2285:2291  amount */\n      dup8\n        /* \"contracts/MemeTokenBase/memetoken.sol\":2285:2301  amount * sellFee */\n      tag_209\n      swap2\n      swap1\n      tag_194\n      jump\t// in\n    tag_209:\n        /* \"contracts/MemeTokenBase/memetoken.sol\":2285:2309  amount * sellFee / 10000 */\n      tag_210\n      swap2\n      swap1\n      tag_196\n      jump\t// in\n    tag_210:\n        /* \"contracts/MemeTokenBase/memetoken.sol\":2339:2354  liquidityWallet */\n      sload(0x06)\n        /* \"contracts/MemeTokenBase/memetoken.sol\":2269:2309  sellFeeAmount = amount * sellFee / 10000 */\n      swap1\n      swap2\n      pop\n        /* \"contracts/MemeTokenBase/memetoken.sol\":2324:2370  super.transfer(liquidityWallet, sellFeeAmount) */\n      tag_211\n      swap1\n      sub(shl(0xa0, 0x01), 0x01)\n        /* \"contracts/MemeTokenBase/memetoken.sol\":2339:2354  liquidityWallet */\n      and\n        /* \"contracts/MemeTokenBase/memetoken.sol\":2269:2309  sellFeeAmount = amount * sellFee / 10000 */\n      dup3\n        /* \"contracts/MemeTokenBase/memetoken.sol\":2324:2338  super.transfer */\n      tag_170\n        /* \"contracts/MemeTokenBase/memetoken.sol\":2324:2370  super.transfer(liquidityWallet, sellFeeAmount) */\n      jump\t// in\n    tag_211:\n      pop\n        /* \"contracts/MemeTokenBase/memetoken.sol\":2195:2382  if (sender != liquidityWallet && sender != treasuryWallet) {\r... */\n    tag_208:\n        /* \"contracts/MemeTokenBase/memetoken.sol\":2464:2477  sellFeeAmount */\n      dup1\n        /* \"contracts/MemeTokenBase/memetoken.sol\":2451:2461  burnAmount */\n      dup3\n        /* \"contracts/MemeTokenBase/memetoken.sol\":2431:2448  treasuryFeeAmount */\n      dup5\n        /* \"contracts/MemeTokenBase/memetoken.sol\":2401:2428  amount - liquidityFeeAmount */\n      tag_212\n        /* \"contracts/MemeTokenBase/memetoken.sol\":2410:2428  liquidityFeeAmount */\n      dup8\n        /* \"contracts/MemeTokenBase/memetoken.sol\":2401:2407  amount */\n      dup11\n        /* \"contracts/MemeTokenBase/memetoken.sol\":2401:2428  amount - liquidityFeeAmount */\n      tag_213\n      jump\t// in\n    tag_212:\n        /* \"contracts/MemeTokenBase/memetoken.sol\":2401:2448  amount - liquidityFeeAmount - treasuryFeeAmount */\n      tag_214\n      swap2\n      swap1\n      tag_213\n      jump\t// in\n    tag_214:\n        /* \"contracts/MemeTokenBase/memetoken.sol\":2401:2461  amount - liquidityFeeAmount - treasuryFeeAmount - burnAmount */\n      tag_215\n      swap2\n      swap1\n      tag_213\n      jump\t// in\n    tag_215:\n        /* \"contracts/MemeTokenBase/memetoken.sol\":2401:2477  amount - liquidityFeeAmount - treasuryFeeAmount - burnAmount - sellFeeAmount */\n      tag_216\n      swap2\n      swap1\n      tag_213\n      jump\t// in\n    tag_216:\n        /* \"contracts/MemeTokenBase/memetoken.sol\":2394:2477  return amount - liquidityFeeAmount - treasuryFeeAmount - burnAmount - sellFeeAmount */\n      swap9\n        /* \"contracts/MemeTokenBase/memetoken.sol\":1420:2485  function applyFees(address sender, address recipient, uint256 amount) internal returns (uint256) {\r... */\n      swap8\n      pop\n      pop\n      pop\n      pop\n      pop\n      pop\n      pop\n      pop\n      jump\t// out\n        /* \"@openzeppelin/contracts/token/ERC20/ERC20.sol\":5203:5459  function transferFrom(address from, address to, uint256 amount) public virtual override returns (bool) {... */\n    tag_135:\n        /* \"@openzeppelin/contracts/token/ERC20/ERC20.sol\":5300:5304  bool */\n      0x00\n        /* \"@openzeppelin/contracts/utils/Context.sol\":719:729  msg.sender */\n      caller\n        /* \"@openzeppelin/contracts/token/ERC20/ERC20.sol\":5356:5394  _spendAllowance(from, spender, amount) */\n      tag_219\n        /* \"@openzeppelin/contracts/token/ERC20/ERC20.sol\":5372:5376  from */\n      dup6\n        /* \"@openzeppelin/contracts/utils/Context.sol\":719:729  msg.sender */\n      dup3\n        /* \"@openzeppelin/contracts/token/ERC20/ERC20.sol\":5387:5393  amount */\n      dup6\n        /* \"@openzeppelin/contracts/token/ERC20/ERC20.sol\":5356:5371  _spendAllowance */\n      tag_220\n        /* \"@openzeppelin/contracts/token/ERC20/ERC20.sol\":5356:5394  _spendAllowance(from, spender, amount) */\n      jump\t// in\n    tag_219:\n        /* \"@openzeppelin/contracts/token/ERC20/ERC20.sol\":5404:5431  _transfer(from, to, amount) */\n      tag_166\n        /* \"@openzeppelin/contracts/token/ERC20/ERC20.sol\":5414:5418  from */\n      dup6\n        /* \"@openzeppelin/contracts/token/ERC20/ERC20.sol\":5420:5422  to */\n      dup6\n        /* \"@openzeppelin/contracts/token/ERC20/ERC20.sol\":5424:5430  amount */\n      dup6\n        /* \"@openzeppelin/contracts/token/ERC20/ERC20.sol\":5404:5413  _transfer */\n      tag_222\n        /* \"@openzeppelin/contracts/token/ERC20/ERC20.sol\":5404:5431  _transfer(from, to, amount) */\n      jump\t// in\n        /* \"@openzeppelin/contracts/access/Ownable.sol\":1359:1489  function _checkOwner() internal view virtual {... */\n    tag_145:\n        /* \"@openzeppelin/contracts/access/Ownable.sol\":1273:1279  _owner */\n      and(sub(shl(0xa0, 0x01), 0x01), sload(0x05))\n        /* \"@openzeppelin/contracts/utils/Context.sol\":719:729  msg.sender */\n      caller\n        /* \"@openzeppelin/contracts/access/Ownable.sol\":1422:1445  owner() == _msgSender() */\n      eq\n        /* \"@openzeppelin/contracts/access/Ownable.sol\":1414:1482  require(owner() == _msgSender(), \"Ownable: caller is not the owner\") */\n      tag_151\n      jumpi\n      mload(0x40)\n      shl(0xe5, 0x461bcd)\n      dup2\n      mstore\n        /* \"#utility.yul\":5272:5274   */\n      0x20\n        /* \"@openzeppelin/contracts/access/Ownable.sol\":1414:1482  require(owner() == _msgSender(), \"Ownable: caller is not the owner\") */\n      0x04\n      dup3\n      add\n        /* \"#utility.yul\":5254:5275   */\n      dup2\n      swap1\n      mstore\n        /* \"#utility.yul\":5291:5309   */\n      0x24\n      dup3\n      add\n        /* \"#utility.yul\":5284:5314   */\n      mstore\n        /* \"#utility.yul\":5350:5384   */\n      0x4f776e61626c653a2063616c6c6572206973206e6f7420746865206f776e6572\n        /* \"#utility.yul\":5330:5348   */\n      0x44\n      dup3\n      add\n        /* \"#utility.yul\":5323:5385   */\n      mstore\n        /* \"#utility.yul\":5402:5420   */\n      0x64\n      add\n        /* \"@openzeppelin/contracts/access/Ownable.sol\":1414:1482  require(owner() == _msgSender(), \"Ownable: caller is not the owner\") */\n      tag_164\n        /* \"#utility.yul\":5244:5426   */\n      jump\n        /* \"@openzeppelin/contracts/access/Ownable.sol\":2426:2613  function _transferOwnership(address newOwner) internal virtual {... */\n    tag_152:\n        /* \"@openzeppelin/contracts/access/Ownable.sol\":2518:2524  _owner */\n      0x05\n      dup1\n      sload\n      sub(shl(0xa0, 0x01), 0x01)\n        /* \"@openzeppelin/contracts/access/Ownable.sol\":2534:2551  _owner = newOwner */\n      dup4\n      dup2\n      and\n      not(sub(shl(0xa0, 0x01), 0x01))\n      dup4\n      and\n      dup2\n      or\n      swap1\n      swap4\n      sstore\n        /* \"@openzeppelin/contracts/access/Ownable.sol\":2566:2606  OwnershipTransferred(oldOwner, newOwner) */\n      mload(0x40)\n        /* \"@openzeppelin/contracts/access/Ownable.sol\":2518:2524  _owner */\n      swap2\n      and\n      swap2\n        /* \"@openzeppelin/contracts/access/Ownable.sol\":2534:2551  _owner = newOwner */\n      swap1\n        /* \"@openzeppelin/contracts/access/Ownable.sol\":2518:2524  _owner */\n      dup3\n      swap1\n        /* \"@openzeppelin/contracts/access/Ownable.sol\":2566:2606  OwnershipTransferred(oldOwner, newOwner) */\n      0x8be0079c531659141344cd1fd0a4f28419497f9722a3daafe3b4186f6b6457e0\n      swap1\n        /* \"@openzeppelin/contracts/access/Ownable.sol\":2499:2515  address oldOwner */\n      0x00\n      swap1\n        /* \"@openzeppelin/contracts/access/Ownable.sol\":2566:2606  OwnershipTransferred(oldOwner, newOwner) */\n      log3\n        /* \"@openzeppelin/contracts/access/Ownable.sol\":2426:2613  function _transferOwnership(address newOwner) internal virtual {... */\n      pop\n      pop\n      jump\t// out\n        /* \"@openzeppelin/contracts/token/ERC20/ERC20.sol\":3740:3929  function transfer(address to, uint256 amount) public virtual override returns (bool) {... */\n    tag_170:\n        /* \"@openzeppelin/contracts/token/ERC20/ERC20.sol\":3819:3823  bool */\n      0x00\n        /* \"@openzeppelin/contracts/utils/Context.sol\":719:729  msg.sender */\n      caller\n        /* \"@openzeppelin/contracts/token/ERC20/ERC20.sol\":3873:3901  _transfer(owner, to, amount) */\n      tag_128\n        /* \"@openzeppelin/contracts/utils/Context.sol\":719:729  msg.sender */\n      dup2\n        /* \"@openzeppelin/contracts/token/ERC20/ERC20.sol\":3890:3892  to */\n      dup6\n        /* \"@openzeppelin/contracts/token/ERC20/ERC20.sol\":3894:3900  amount */\n      dup6\n        /* \"@openzeppelin/contracts/token/ERC20/ERC20.sol\":3873:3882  _transfer */\n      tag_222\n        /* \"@openzeppelin/contracts/token/ERC20/ERC20.sol\":3873:3901  _transfer(owner, to, amount) */\n      jump\t// in\n        /* \"@openzeppelin/contracts/token/ERC20/ERC20.sol\":9375:10034  function _burn(address account, uint256 amount) internal virtual {... */\n    tag_206:\n      sub(shl(0xa0, 0x01), 0x01)\n        /* \"@openzeppelin/contracts/token/ERC20/ERC20.sol\":9458:9479  account != address(0) */\n      dup3\n      and\n        /* \"@openzeppelin/contracts/token/ERC20/ERC20.sol\":9450:9517  require(account != address(0), \"ERC20: burn from the zero address\") */\n      tag_234\n      jumpi\n      mload(0x40)\n      shl(0xe5, 0x461bcd)\n      dup2\n      mstore\n        /* \"#utility.yul\":5633:5635   */\n      0x20\n        /* \"@openzeppelin/contracts/token/ERC20/ERC20.sol\":9450:9517  require(account != address(0), \"ERC20: burn from the zero address\") */\n      0x04\n      dup3\n      add\n        /* \"#utility.yul\":5615:5636   */\n      mstore\n        /* \"#utility.yul\":5672:5674   */\n      0x21\n        /* \"#utility.yul\":5652:5670   */\n      0x24\n      dup3\n      add\n        /* \"#utility.yul\":5645:5675   */\n      mstore\n        /* \"#utility.yul\":5711:5745   */\n      0x45524332303a206275726e2066726f6d20746865207a65726f20616464726573\n        /* \"#utility.yul\":5691:5709   */\n      0x44\n      dup3\n      add\n        /* \"#utility.yul\":5684:5746   */\n      mstore\n      shl(0xf8, 0x73)\n        /* \"#utility.yul\":5762:5780   */\n      0x64\n      dup3\n      add\n        /* \"#utility.yul\":5755:5786   */\n      mstore\n        /* \"#utility.yul\":5803:5822   */\n      0x84\n      add\n        /* \"@openzeppelin/contracts/token/ERC20/ERC20.sol\":9450:9517  require(account != address(0), \"ERC20: burn from the zero address\") */\n      tag_164\n        /* \"#utility.yul\":5605:5828   */\n      jump\n        /* \"@openzeppelin/contracts/token/ERC20/ERC20.sol\":9450:9517  require(account != address(0), \"ERC20: burn from the zero address\") */\n    tag_234:\n      sub(shl(0xa0, 0x01), 0x01)\n        /* \"@openzeppelin/contracts/token/ERC20/ERC20.sol\":9613:9631  _balances[account] */\n      dup3\n      and\n        /* \"@openzeppelin/contracts/token/ERC20/ERC20.sol\":9588:9610  uint256 accountBalance */\n      0x00\n        /* \"@openzeppelin/contracts/token/ERC20/ERC20.sol\":9613:9631  _balances[account] */\n      swap1\n      dup2\n      mstore\n      0x20\n      dup2\n      swap1\n      mstore\n      0x40\n      swap1\n      keccak256\n      sload\n        /* \"@openzeppelin/contracts/token/ERC20/ERC20.sol\":9649:9673  accountBalance >= amount */\n      dup2\n      dup2\n      lt\n      iszero\n        /* \"@openzeppelin/contracts/token/ERC20/ERC20.sol\":9641:9712  require(accountBalance >= amount, \"ERC20: burn amount exceeds balance\") */\n      tag_239\n      jumpi\n      mload(0x40)\n      shl(0xe5, 0x461bcd)\n      dup2\n      mstore\n        /* \"#utility.yul\":3294:3296   */\n      0x20\n        /* \"@openzeppelin/contracts/token/ERC20/ERC20.sol\":9641:9712  require(accountBalance >= amount, \"ERC20: burn amount exceeds balance\") */\n      0x04\n      dup3\n      add\n        /* \"#utility.yul\":3276:3297   */\n      mstore\n        /* \"#utility.yul\":3333:3335   */\n      0x22\n        /* \"#utility.yul\":3313:3331   */\n      0x24\n      dup3\n      add\n        /* \"#utility.yul\":3306:3336   */\n      mstore\n        /* \"#utility.yul\":3372:3406   */\n      0x45524332303a206275726e20616d6f756e7420657863656564732062616c616e\n        /* \"#utility.yul\":3352:3370   */\n      0x44\n      dup3\n      add\n        /* \"#utility.yul\":3345:3407   */\n      mstore\n      shl(0xf0, 0x6365)\n        /* \"#utility.yul\":3423:3441   */\n      0x64\n      dup3\n      add\n        /* \"#utility.yul\":3416:3448   */\n      mstore\n        /* \"#utility.yul\":3465:3484   */\n      0x84\n      add\n        /* \"@openzeppelin/contracts/token/ERC20/ERC20.sol\":9641:9712  require(accountBalance >= amount, \"ERC20: burn amount exceeds balance\") */\n      tag_164\n        /* \"#utility.yul\":3266:3490   */\n      jump\n        /* \"@openzeppelin/contracts/token/ERC20/ERC20.sol\":9641:9712  require(accountBalance >= amount, \"ERC20: burn amount exceeds balance\") */\n    tag_239:\n      sub(shl(0xa0, 0x01), 0x01)\n        /* \"@openzeppelin/contracts/token/ERC20/ERC20.sol\":9746:9764  _balances[account] */\n      dup4\n      and\n        /* \"@openzeppelin/contracts/token/ERC20/ERC20.sol\":9746:9755  _balances */\n      0x00\n        /* \"@openzeppelin/contracts/token/ERC20/ERC20.sol\":9746:9764  _balances[account] */\n      dup2\n      dup2\n      mstore\n      0x20\n      dup2\n      dup2\n      mstore\n      0x40\n      dup1\n      dup4\n      keccak256\n        /* \"@openzeppelin/contracts/token/ERC20/ERC20.sol\":9767:9790  accountBalance - amount */\n      dup7\n      dup7\n      sub\n        /* \"@openzeppelin/contracts/token/ERC20/ERC20.sol\":9746:9790  _balances[account] = accountBalance - amount */\n      swap1\n      sstore\n        /* \"@openzeppelin/contracts/token/ERC20/ERC20.sol\":9883:9895  _totalSupply */\n      0x02\n        /* \"@openzeppelin/contracts/token/ERC20/ERC20.sol\":9883:9905  _totalSupply -= amount */\n      dup1\n      sload\n      dup8\n      swap1\n      sub\n      swap1\n      sstore\n        /* \"@openzeppelin/contracts/token/ERC20/ERC20.sol\":9931:9968  Transfer(account, address(0), amount) */\n      mload\n        /* \"#utility.yul\":7196:7221   */\n      dup6\n      dup2\n      mstore\n        /* \"@openzeppelin/contracts/token/ERC20/ERC20.sol\":9746:9755  _balances */\n      swap2\n      swap3\n        /* \"@openzeppelin/contracts/token/ERC20/ERC20.sol\":9746:9764  _balances[account] */\n      swap2\n        /* \"@openzeppelin/contracts/token/ERC20/ERC20.sol\":9931:9968  Transfer(account, address(0), amount) */\n      0xddf252ad1be2c89b69c2b068fc378daa952ba7f163c4a11628f55a4df523b3ef\n      swap2\n        /* \"#utility.yul\":7169:7187   */\n      add\n        /* \"@openzeppelin/contracts/token/ERC20/ERC20.sol\":9931:9968  Transfer(account, address(0), amount) */\n      tag_187\n        /* \"#utility.yul\":7151:7227   */\n      jump\n        /* \"@openzeppelin/contracts/token/ERC20/ERC20.sol\":11078:11489  function _spendAllowance(address owner, address spender, uint256 amount) internal virtual {... */\n    tag_220:\n        /* \"@openzeppelin/contracts/token/ERC20/ERC20.sol\":11178:11202  uint256 currentAllowance */\n      0x00\n        /* \"@openzeppelin/contracts/token/ERC20/ERC20.sol\":11205:11230  allowance(owner, spender) */\n      tag_246\n        /* \"@openzeppelin/contracts/token/ERC20/ERC20.sol\":11215:11220  owner */\n      dup5\n        /* \"@openzeppelin/contracts/token/ERC20/ERC20.sol\":11222:11229  spender */\n      dup5\n        /* \"@openzeppelin/contracts/token/ERC20/ERC20.sol\":11205:11214  allowance */\n      tag_113\n        /* \"@openzeppelin/contracts/token/ERC20/ERC20.sol\":11205:11230  allowance(owner, spender) */\n      jump\t// in\n    tag_246:\n        /* \"@openzeppelin/contracts/token/ERC20/ERC20.sol\":11178:11230  uint256 currentAllowance = allowance(owner, spender) */\n      swap1\n      pop\n      not(0x00)\n        /* \"@openzeppelin/contracts/token/ERC20/ERC20.sol\":11244:11260  currentAllowance */\n      dup2\n        /* \"@openzeppelin/contracts/token/ERC20/ERC20.sol\":11244:11281  currentAllowance != type(uint256).max */\n      eq\n        /* \"@openzeppelin/contracts/token/ERC20/ERC20.sol\":11240:11483  if (currentAllowance != type(uint256).max) {... */\n      tag_251\n      jumpi\n        /* \"@openzeppelin/contracts/token/ERC20/ERC20.sol\":11325:11331  amount */\n      dup2\n        /* \"@openzeppelin/contracts/token/ERC20/ERC20.sol\":11305:11321  currentAllowance */\n      dup2\n        /* \"@openzeppelin/contracts/token/ERC20/ERC20.sol\":11305:11331  currentAllowance >= amount */\n      lt\n      iszero\n        /* \"@openzeppelin/contracts/token/ERC20/ERC20.sol\":11297:11365  require(currentAllowance >= amount, \"ERC20: insufficient allowance\") */\n      tag_248\n      jumpi\n      mload(0x40)\n      shl(0xe5, 0x461bcd)\n      dup2\n      mstore\n        /* \"#utility.yul\":4507:4509   */\n      0x20\n        /* \"@openzeppelin/contracts/token/ERC20/ERC20.sol\":11297:11365  require(currentAllowance >= amount, \"ERC20: insufficient allowance\") */\n      0x04\n      dup3\n      add\n        /* \"#utility.yul\":4489:4510   */\n      mstore\n        /* \"#utility.yul\":4546:4548   */\n      0x1d\n        /* \"#utility.yul\":4526:4544   */\n      0x24\n      dup3\n      add\n        /* \"#utility.yul\":4519:4549   */\n      mstore\n        /* \"#utility.yul\":4585:4616   */\n      0x45524332303a20696e73756666696369656e7420616c6c6f77616e6365000000\n        /* \"#utility.yul\":4565:4583   */\n      0x44\n      dup3\n      add\n        /* \"#utility.yul\":4558:4617   */\n      mstore\n        /* \"#utility.yul\":4634:4652   */\n      0x64\n      add\n        /* \"@openzeppelin/contracts/token/ERC20/ERC20.sol\":11297:11365  require(currentAllowance >= amount, \"ERC20: insufficient allowance\") */\n      tag_164\n        /* \"#utility.yul\":4479:4658   */\n      jump\n        /* \"@openzeppelin/contracts/token/ERC20/ERC20.sol\":11297:11365  require(currentAllowance >= amount, \"ERC20: insufficient allowance\") */\n    tag_248:\n        /* \"@openzeppelin/contracts/token/ERC20/ERC20.sol\":11407:11458  _approve(owner, spender, currentAllowance - amount) */\n      tag_251\n        /* \"@openzeppelin/contracts/token/ERC20/ERC20.sol\":11416:11421  owner */\n      dup5\n        /* \"@openzeppelin/contracts/token/ERC20/ERC20.sol\":11423:11430  spender */\n      dup5\n        /* \"@openzeppelin/contracts/token/ERC20/ERC20.sol\":11451:11457  amount */\n      dup5\n        /* \"@openzeppelin/contracts/token/ERC20/ERC20.sol\":11432:11448  currentAllowance */\n      dup5\n        /* \"@openzeppelin/contracts/token/ERC20/ERC20.sol\":11432:11457  currentAllowance - amount */\n      sub\n        /* \"@openzeppelin/contracts/token/ERC20/ERC20.sol\":11407:11415  _approve */\n      tag_129\n        /* \"@openzeppelin/contracts/token/ERC20/ERC20.sol\":11407:11458  _approve(owner, spender, currentAllowance - amount) */\n      jump\t// in\n    tag_251:\n        /* \"@openzeppelin/contracts/token/ERC20/ERC20.sol\":11078:11489  function _spendAllowance(address owner, address spender, uint256 amount) internal virtual {... */\n      pop\n      pop\n      pop\n      pop\n      jump\t// out\n        /* \"@openzeppelin/contracts/token/ERC20/ERC20.sol\":7456:8244  function _transfer(address from, address to, uint256 amount) internal virtual {... */\n    tag_222:\n      sub(shl(0xa0, 0x01), 0x01)\n        /* \"@openzeppelin/contracts/token/ERC20/ERC20.sol\":7552:7570  from != address(0) */\n      dup4\n      and\n        /* \"@openzeppelin/contracts/token/ERC20/ERC20.sol\":7544:7612  require(from != address(0), \"ERC20: transfer from the zero address\") */\n      tag_253\n      jumpi\n      mload(0x40)\n      shl(0xe5, 0x461bcd)\n      dup2\n      mstore\n        /* \"#utility.yul\":6035:6037   */\n      0x20\n        /* \"@openzeppelin/contracts/token/ERC20/ERC20.sol\":7544:7612  require(from != address(0), \"ERC20: transfer from the zero address\") */\n      0x04\n      dup3\n      add\n        /* \"#utility.yul\":6017:6038   */\n      mstore\n        /* \"#utility.yul\":6074:6076   */\n      0x25\n        /* \"#utility.yul\":6054:6072   */\n      0x24\n      dup3\n      add\n        /* \"#utility.yul\":6047:6077   */\n      mstore\n        /* \"#utility.yul\":6113:6147   */\n      0x45524332303a207472616e736665722066726f6d20746865207a65726f206164\n        /* \"#utility.yul\":6093:6111   */\n      0x44\n      dup3\n      add\n        /* \"#utility.yul\":6086:6148   */\n      mstore\n      shl(0xd8, 0x6472657373)\n        /* \"#utility.yul\":6164:6182   */\n      0x64\n      dup3\n      add\n        /* \"#utility.yul\":6157:6192   */\n      mstore\n        /* \"#utility.yul\":6209:6228   */\n      0x84\n      add\n        /* \"@openzeppelin/contracts/token/ERC20/ERC20.sol\":7544:7612  require(from != address(0), \"ERC20: transfer from the zero address\") */\n      tag_164\n        /* \"#utility.yul\":6007:6234   */\n      jump\n        /* \"@openzeppelin/contracts/token/ERC20/ERC20.sol\":7544:7612  require(from != address(0), \"ERC20: transfer from the zero address\") */\n    tag_253:\n      sub(shl(0xa0, 0x01), 0x01)\n        /* \"@openzeppelin/contracts/token/ERC20/ERC20.sol\":7630:7646  to != address(0) */\n      dup3\n      and\n        /* \"@openzeppelin/contracts/token/ERC20/ERC20.sol\":7622:7686  require(to != address(0), \"ERC20: transfer to the zero address\") */\n      tag_256\n      jumpi\n      mload(0x40)\n      shl(0xe5, 0x461bcd)\n      dup2\n      mstore\n        /* \"#utility.yul\":2890:2892   */\n      0x20\n        /* \"@openzeppelin/contracts/token/ERC20/ERC20.sol\":7622:7686  require(to != address(0), \"ERC20: transfer to the zero address\") */\n      0x04\n      dup3\n      add\n        /* \"#utility.yul\":2872:2893   */\n      mstore\n        /* \"#utility.yul\":2929:2931   */\n      0x23\n        /* \"#utility.yul\":2909:2927   */\n      0x24\n      dup3\n      add\n        /* \"#utility.yul\":2902:2932   */\n      mstore\n        /* \"#utility.yul\":2968:3002   */\n      0x45524332303a207472616e7366657220746f20746865207a65726f2061646472\n        /* \"#utility.yul\":2948:2966   */\n      0x44\n      dup3\n      add\n        /* \"#utility.yul\":2941:3003   */\n      mstore\n      shl(0xe8, 0x657373)\n        /* \"#utility.yul\":3019:3037   */\n      0x64\n      dup3\n      add\n        /* \"#utility.yul\":3012:3045   */\n      mstore\n        /* \"#utility.yul\":3062:3081   */\n      0x84\n      add\n        /* \"@openzeppelin/contracts/token/ERC20/ERC20.sol\":7622:7686  require(to != address(0), \"ERC20: transfer to the zero address\") */\n      tag_164\n        /* \"#utility.yul\":2862:3087   */\n      jump\n        /* \"@openzeppelin/contracts/token/ERC20/ERC20.sol\":7622:7686  require(to != address(0), \"ERC20: transfer to the zero address\") */\n    tag_256:\n      sub(shl(0xa0, 0x01), 0x01)\n        /* \"@openzeppelin/contracts/token/ERC20/ERC20.sol\":7768:7783  _balances[from] */\n      dup4\n      and\n        /* \"@openzeppelin/contracts/token/ERC20/ERC20.sol\":7746:7765  uint256 fromBalance */\n      0x00\n        /* \"@openzeppelin/contracts/token/ERC20/ERC20.sol\":7768:7783  _balances[from] */\n      swap1\n      dup2\n      mstore\n      0x20\n      dup2\n      swap1\n      mstore\n      0x40\n      swap1\n      keccak256\n      sload\n        /* \"@openzeppelin/contracts/token/ERC20/ERC20.sol\":7801:7822  fromBalance >= amount */\n      dup2\n      dup2\n      lt\n      iszero\n        /* \"@openzeppelin/contracts/token/ERC20/ERC20.sol\":7793:7865  require(fromBalance >= amount, \"ERC20: transfer amount exceeds balance\") */\n      tag_260\n      jumpi\n      mload(0x40)\n      shl(0xe5, 0x461bcd)\n      dup2\n      mstore\n        /* \"#utility.yul\":4865:4867   */\n      0x20\n        /* \"@openzeppelin/contracts/token/ERC20/ERC20.sol\":7793:7865  require(fromBalance >= amount, \"ERC20: transfer amount exceeds balance\") */\n      0x04\n      dup3\n      add\n        /* \"#utility.yul\":4847:4868   */\n      mstore\n        /* \"#utility.yul\":4904:4906   */\n      0x26\n        /* \"#utility.yul\":4884:4902   */\n      0x24\n      dup3\n      add\n        /* \"#utility.yul\":4877:4907   */\n      mstore\n        /* \"#utility.yul\":4943:4977   */\n      0x45524332303a207472616e7366657220616d6f756e7420657863656564732062\n        /* \"#utility.yul\":4923:4941   */\n      0x44\n      dup3\n      add\n        /* \"#utility.yul\":4916:4978   */\n      mstore\n      shl(0xd0, 0x616c616e6365)\n        /* \"#utility.yul\":4994:5012   */\n      0x64\n      dup3\n      add\n        /* \"#utility.yul\":4987:5023   */\n      mstore\n        /* \"#utility.yul\":5040:5059   */\n      0x84\n      add\n        /* \"@openzeppelin/contracts/token/ERC20/ERC20.sol\":7793:7865  require(fromBalance >= amount, \"ERC20: transfer amount exceeds balance\") */\n      tag_164\n        /* \"#utility.yul\":4837:5065   */\n      jump\n        /* \"@openzeppelin/contracts/token/ERC20/ERC20.sol\":7793:7865  require(fromBalance >= amount, \"ERC20: transfer amount exceeds balance\") */\n    tag_260:\n      sub(shl(0xa0, 0x01), 0x01)\n        /* \"@openzeppelin/contracts/token/ERC20/ERC20.sol\":7899:7914  _balances[from] */\n      dup5\n      dup2\n      and\n        /* \"@openzeppelin/contracts/token/ERC20/ERC20.sol\":7899:7908  _balances */\n      0x00\n        /* \"@openzeppelin/contracts/token/ERC20/ERC20.sol\":7899:7914  _balances[from] */\n      dup2\n      dup2\n      mstore\n      0x20\n      dup2\n      dup2\n      mstore\n      0x40\n      dup1\n      dup4\n      keccak256\n        /* \"@openzeppelin/contracts/token/ERC20/ERC20.sol\":7917:7937  fromBalance - amount */\n      dup8\n      dup8\n      sub\n        /* \"@openzeppelin/contracts/token/ERC20/ERC20.sol\":7899:7937  _balances[from] = fromBalance - amount */\n      swap1\n      sstore\n        /* \"@openzeppelin/contracts/token/ERC20/ERC20.sol\":8114:8127  _balances[to] */\n      swap4\n      dup8\n      and\n      dup1\n      dup4\n      mstore\n      swap2\n      dup5\n      swap1\n      keccak256\n        /* \"@openzeppelin/contracts/token/ERC20/ERC20.sol\":8114:8137  _balances[to] += amount */\n      dup1\n      sload\n      dup8\n      add\n      swap1\n      sstore\n        /* \"@openzeppelin/contracts/token/ERC20/ERC20.sol\":8163:8189  Transfer(from, to, amount) */\n      swap3\n      mload\n        /* \"#utility.yul\":7196:7221   */\n      dup6\n      dup2\n      mstore\n        /* \"@openzeppelin/contracts/token/ERC20/ERC20.sol\":8114:8127  _balances[to] */\n      swap1\n      swap3\n        /* \"@openzeppelin/contracts/token/ERC20/ERC20.sol\":8163:8189  Transfer(from, to, amount) */\n      0xddf252ad1be2c89b69c2b068fc378daa952ba7f163c4a11628f55a4df523b3ef\n      swap2\n        /* \"#utility.yul\":7169:7187   */\n      add\n        /* \"@openzeppelin/contracts/token/ERC20/ERC20.sol\":8163:8189  Transfer(from, to, amount) */\n      mload(0x40)\n      dup1\n      swap2\n      sub\n      swap1\n      log3\n        /* \"@openzeppelin/contracts/token/ERC20/ERC20.sol\":8200:8237  _afterTokenTransfer(from, to, amount) */\n      tag_251\n        /* \"@openzeppelin/contracts/token/ERC20/ERC20.sol\":9375:10034  function _burn(address account, uint256 amount) internal virtual {... */\n      jump\n        /* \"#utility.yul\":14:187   */\n    tag_268:\n        /* \"#utility.yul\":82:102   */\n      dup1\n      calldataload\n      sub(shl(0xa0, 0x01), 0x01)\n        /* \"#utility.yul\":131:162   */\n      dup2\n      and\n        /* \"#utility.yul\":121:163   */\n      dup2\n      eq\n        /* \"#utility.yul\":111:113   */\n      tag_147\n      jumpi\n        /* \"#utility.yul\":177:178   */\n      0x00\n        /* \"#utility.yul\":174:175   */\n      dup1\n        /* \"#utility.yul\":167:179   */\n      revert\n        /* \"#utility.yul\":192:388   */\n    tag_79:\n      0x00\n        /* \"#utility.yul\":304:306   */\n      0x20\n        /* \"#utility.yul\":292:301   */\n      dup3\n        /* \"#utility.yul\":283:290   */\n      dup5\n        /* \"#utility.yul\":279:302   */\n      sub\n        /* \"#utility.yul\":275:307   */\n      slt\n        /* \"#utility.yul\":272:274   */\n      iszero\n      tag_272\n      jumpi\n        /* \"#utility.yul\":325:331   */\n      dup1\n        /* \"#utility.yul\":317:323   */\n      dup2\n        /* \"#utility.yul\":310:332   */\n      revert\n        /* \"#utility.yul\":272:274   */\n    tag_272:\n        /* \"#utility.yul\":353:382   */\n      tag_131\n        /* \"#utility.yul\":372:381   */\n      dup3\n        /* \"#utility.yul\":353:382   */\n      tag_268\n      jump\t// in\n        /* \"#utility.yul\":393:663   */\n    tag_112:\n      0x00\n      dup1\n        /* \"#utility.yul\":522:524   */\n      0x40\n        /* \"#utility.yul\":510:519   */\n      dup4\n        /* \"#utility.yul\":501:508   */\n      dup6\n        /* \"#utility.yul\":497:520   */\n      sub\n        /* \"#utility.yul\":493:525   */\n      slt\n        /* \"#utility.yul\":490:492   */\n      iszero\n      tag_275\n      jumpi\n        /* \"#utility.yul\":543:549   */\n      dup1\n        /* \"#utility.yul\":535:541   */\n      dup2\n        /* \"#utility.yul\":528:550   */\n      revert\n        /* \"#utility.yul\":490:492   */\n    tag_275:\n        /* \"#utility.yul\":571:600   */\n      tag_276\n        /* \"#utility.yul\":590:599   */\n      dup4\n        /* \"#utility.yul\":571:600   */\n      tag_268\n      jump\t// in\n    tag_276:\n        /* \"#utility.yul\":561:600   */\n      swap2\n      pop\n        /* \"#utility.yul\":619:657   */\n      tag_277\n        /* \"#utility.yul\":653:655   */\n      0x20\n        /* \"#utility.yul\":642:651   */\n      dup5\n        /* \"#utility.yul\":638:656   */\n      add\n        /* \"#utility.yul\":619:657   */\n      tag_268\n      jump\t// in\n    tag_277:\n        /* \"#utility.yul\":609:657   */\n      swap1\n      pop\n        /* \"#utility.yul\":480:663   */\n      swap3\n      pop\n      swap3\n      swap1\n      pop\n      jump\t// out\n        /* \"#utility.yul\":668:1006   */\n    tag_50:\n      0x00\n      dup1\n      0x00\n        /* \"#utility.yul\":814:816   */\n      0x60\n        /* \"#utility.yul\":802:811   */\n      dup5\n        /* \"#utility.yul\":793:800   */\n      dup7\n        /* \"#utility.yul\":789:812   */\n      sub\n        /* \"#utility.yul\":785:817   */\n      slt\n        /* \"#utility.yul\":782:784   */\n      iszero\n      tag_279\n      jumpi\n        /* \"#utility.yul\":835:841   */\n      dup1\n        /* \"#utility.yul\":827:833   */\n      dup2\n        /* \"#utility.yul\":820:842   */\n      revert\n        /* \"#utility.yul\":782:784   */\n    tag_279:\n        /* \"#utility.yul\":863:892   */\n      tag_280\n        /* \"#utility.yul\":882:891   */\n      dup5\n        /* \"#utility.yul\":863:892   */\n      tag_268\n      jump\t// in\n    tag_280:\n        /* \"#utility.yul\":853:892   */\n      swap3\n      pop\n        /* \"#utility.yul\":911:949   */\n      tag_281\n        /* \"#utility.yul\":945:947   */\n      0x20\n        /* \"#utility.yul\":934:943   */\n      dup6\n        /* \"#utility.yul\":930:948   */\n      add\n        /* \"#utility.yul\":911:949   */\n      tag_268\n      jump\t// in\n    tag_281:\n        /* \"#utility.yul\":901:949   */\n      swap2\n      pop\n        /* \"#utility.yul\":996:998   */\n      0x40\n        /* \"#utility.yul\":985:994   */\n      dup5\n        /* \"#utility.yul\":981:999   */\n      add\n        /* \"#utility.yul\":968:1000   */\n      calldataload\n        /* \"#utility.yul\":958:1000   */\n      swap1\n      pop\n        /* \"#utility.yul\":772:1006   */\n      swap3\n      pop\n      swap3\n      pop\n      swap3\n      jump\t// out\n        /* \"#utility.yul\":1011:1275   */\n    tag_40:\n      0x00\n      dup1\n        /* \"#utility.yul\":1140:1142   */\n      0x40\n        /* \"#utility.yul\":1128:1137   */\n      dup4\n        /* \"#utility.yul\":1119:1126   */\n      dup6\n        /* \"#utility.yul\":1115:1138   */\n      sub\n        /* \"#utility.yul\":1111:1143   */\n      slt\n        /* \"#utility.yul\":1108:1110   */\n      iszero\n      tag_283\n      jumpi\n        /* \"#utility.yul\":1161:1167   */\n      dup2\n        /* \"#utility.yul\":1153:1159   */\n      dup3\n        /* \"#utility.yul\":1146:1168   */\n      revert\n        /* \"#utility.yul\":1108:1110   */\n    tag_283:\n        /* \"#utility.yul\":1189:1218   */\n      tag_284\n        /* \"#utility.yul\":1208:1217   */\n      dup4\n        /* \"#utility.yul\":1189:1218   */\n      tag_268\n      jump\t// in\n    tag_284:\n        /* \"#utility.yul\":1179:1218   */\n      swap5\n        /* \"#utility.yul\":1265:1267   */\n      0x20\n        /* \"#utility.yul\":1250:1268   */\n      swap4\n      swap1\n      swap4\n      add\n        /* \"#utility.yul\":1237:1269   */\n      calldataload\n      swap4\n      pop\n      pop\n      pop\n        /* \"#utility.yul\":1098:1275   */\n      jump\t// out\n        /* \"#utility.yul\":1280:1675   */\n    tag_75:\n      0x00\n      dup1\n      0x00\n      dup1\n        /* \"#utility.yul\":1443:1446   */\n      0x80\n        /* \"#utility.yul\":1431:1440   */\n      dup6\n        /* \"#utility.yul\":1422:1429   */\n      dup8\n        /* \"#utility.yul\":1418:1441   */\n      sub\n        /* \"#utility.yul\":1414:1447   */\n      slt\n        /* \"#utility.yul\":1411:1413   */\n      iszero\n      tag_286\n      jumpi\n        /* \"#utility.yul\":1465:1471   */\n      dup1\n        /* \"#utility.yul\":1457:1463   */\n      dup2\n        /* \"#utility.yul\":1450:1472   */\n      revert\n        /* \"#utility.yul\":1411:1413   */\n    tag_286:\n      pop\n      pop\n        /* \"#utility.yul\":1493:1516   */\n      dup3\n      calldataload\n      swap5\n        /* \"#utility.yul\":1563:1565   */\n      0x20\n        /* \"#utility.yul\":1548:1566   */\n      dup5\n      add\n        /* \"#utility.yul\":1535:1567   */\n      calldataload\n      swap5\n      pop\n        /* \"#utility.yul\":1614:1616   */\n      0x40\n        /* \"#utility.yul\":1599:1617   */\n      dup5\n      add\n        /* \"#utility.yul\":1586:1618   */\n      calldataload\n      swap4\n        /* \"#utility.yul\":1665:1667   */\n      0x60\n        /* \"#utility.yul\":1650:1668   */\n      add\n        /* \"#utility.yul\":1637:1669   */\n      calldataload\n      swap3\n      pop\n        /* \"#utility.yul\":1401:1675   */\n      swap1\n      pop\n      jump\t// out\n        /* \"#utility.yul\":2080:2683   */\n    tag_37:\n      0x00\n        /* \"#utility.yul\":2221:2223   */\n      0x20\n        /* \"#utility.yul\":2250:2252   */\n      dup1\n        /* \"#utility.yul\":2239:2248   */\n      dup4\n        /* \"#utility.yul\":2232:2253   */\n      mstore\n        /* \"#utility.yul\":2282:2288   */\n      dup4\n        /* \"#utility.yul\":2276:2289   */\n      mload\n        /* \"#utility.yul\":2325:2331   */\n      dup1\n        /* \"#utility.yul\":2320:2322   */\n      dup3\n        /* \"#utility.yul\":2309:2318   */\n      dup6\n        /* \"#utility.yul\":2305:2323   */\n      add\n        /* \"#utility.yul\":2298:2332   */\n      mstore\n        /* \"#utility.yul\":2350:2354   */\n      dup3\n        /* \"#utility.yul\":2363:2503   */\n    tag_290:\n        /* \"#utility.yul\":2377:2383   */\n      dup2\n        /* \"#utility.yul\":2374:2375   */\n      dup2\n        /* \"#utility.yul\":2371:2384   */\n      lt\n        /* \"#utility.yul\":2363:2503   */\n      iszero\n      tag_292\n      jumpi\n        /* \"#utility.yul\":2472:2486   */\n      dup6\n      dup2\n      add\n        /* \"#utility.yul\":2468:2491   */\n      dup4\n      add\n        /* \"#utility.yul\":2462:2492   */\n      mload\n        /* \"#utility.yul\":2438:2455   */\n      dup6\n      dup3\n      add\n        /* \"#utility.yul\":2457:2459   */\n      0x40\n        /* \"#utility.yul\":2434:2460   */\n      add\n        /* \"#utility.yul\":2427:2493   */\n      mstore\n        /* \"#utility.yul\":2392:2402   */\n      dup3\n      add\n        /* \"#utility.yul\":2363:2503   */\n      jump(tag_290)\n    tag_292:\n        /* \"#utility.yul\":2521:2527   */\n      dup2\n        /* \"#utility.yul\":2518:2519   */\n      dup2\n        /* \"#utility.yul\":2515:2528   */\n      gt\n        /* \"#utility.yul\":2512:2514   */\n      iszero\n      tag_293\n      jumpi\n        /* \"#utility.yul\":2591:2595   */\n      dup4\n        /* \"#utility.yul\":2586:2588   */\n      0x40\n        /* \"#utility.yul\":2577:2583   */\n      dup4\n        /* \"#utility.yul\":2566:2575   */\n      dup8\n        /* \"#utility.yul\":2562:2584   */\n      add\n        /* \"#utility.yul\":2558:2589   */\n      add\n        /* \"#utility.yul\":2551:2596   */\n      mstore\n        /* \"#utility.yul\":2512:2514   */\n    tag_293:\n      pop\n        /* \"#utility.yul\":2667:2669   */\n      0x1f\n        /* \"#utility.yul\":2646:2661   */\n      add\n      not(0x1f)\n        /* \"#utility.yul\":2642:2671   */\n      and\n        /* \"#utility.yul\":2627:2672   */\n      swap3\n      swap1\n      swap3\n      add\n        /* \"#utility.yul\":2674:2676   */\n      0x40\n        /* \"#utility.yul\":2623:2677   */\n      add\n      swap4\n        /* \"#utility.yul\":2201:2683   */\n      swap3\n      pop\n      pop\n      pop\n      jump\t// out\n        /* \"#utility.yul\":7421:7549   */\n    tag_142:\n      0x00\n        /* \"#utility.yul\":7492:7493   */\n      dup3\n        /* \"#utility.yul\":7488:7494   */\n      not\n        /* \"#utility.yul\":7485:7486   */\n      dup3\n        /* \"#utility.yul\":7482:7495   */\n      gt\n        /* \"#utility.yul\":7479:7481   */\n      iszero\n      tag_309\n      jumpi\n        /* \"#utility.yul\":7498:7516   */\n      tag_309\n      tag_310\n      jump\t// in\n    tag_309:\n      pop\n        /* \"#utility.yul\":7534:7543   */\n      add\n      swap1\n        /* \"#utility.yul\":7469:7549   */\n      jump\t// out\n        /* \"#utility.yul\":7554:7771   */\n    tag_196:\n      0x00\n        /* \"#utility.yul\":7620:7621   */\n      dup3\n        /* \"#utility.yul\":7610:7612   */\n      tag_312\n      jumpi\n      shl(0xe0, 0x4e487b71)\n        /* \"#utility.yul\":7645:7676   */\n      dup2\n      mstore\n        /* \"#utility.yul\":7699:7703   */\n      0x12\n        /* \"#utility.yul\":7696:7697   */\n      0x04\n        /* \"#utility.yul\":7689:7704   */\n      mstore\n        /* \"#utility.yul\":7727:7731   */\n      0x24\n        /* \"#utility.yul\":7652:7653   */\n      dup2\n        /* \"#utility.yul\":7717:7732   */\n      revert\n        /* \"#utility.yul\":7610:7612   */\n    tag_312:\n      pop\n        /* \"#utility.yul\":7756:7765   */\n      div\n      swap1\n        /* \"#utility.yul\":7600:7771   */\n      jump\t// out\n        /* \"#utility.yul\":7776:7944   */\n    tag_194:\n      0x00\n        /* \"#utility.yul\":7882:7883   */\n      dup2\n        /* \"#utility.yul\":7878:7879   */\n      0x00\n        /* \"#utility.yul\":7874:7880   */\n      not\n        /* \"#utility.yul\":7870:7884   */\n      div\n        /* \"#utility.yul\":7867:7868   */\n      dup4\n        /* \"#utility.yul\":7864:7885   */\n      gt\n        /* \"#utility.yul\":7859:7860   */\n      dup3\n        /* \"#utility.yul\":7852:7861   */\n      iszero\n        /* \"#utility.yul\":7845:7862   */\n      iszero\n        /* \"#utility.yul\":7841:7886   */\n      and\n        /* \"#utility.yul\":7838:7840   */\n      iszero\n      tag_315\n      jumpi\n        /* \"#utility.yul\":7889:7907   */\n      tag_315\n      tag_310\n      jump\t// in\n    tag_315:\n      pop\n        /* \"#utility.yul\":7929:7938   */\n      mul\n      swap1\n        /* \"#utility.yul\":7828:7944   */\n      jump\t// out\n        /* \"#utility.yul\":7949:8074   */\n    tag_213:\n      0x00\n        /* \"#utility.yul\":8017:8018   */\n      dup3\n        /* \"#utility.yul\":8014:8015   */\n      dup3\n        /* \"#utility.yul\":8011:8019   */\n      lt\n        /* \"#utility.yul\":8008:8010   */\n      iszero\n      tag_318\n      jumpi\n        /* \"#utility.yul\":8022:8040   */\n      tag_318\n      tag_310\n      jump\t// in\n    tag_318:\n      pop\n        /* \"#utility.yul\":8059:8068   */\n      sub\n      swap1\n        /* \"#utility.yul\":7998:8074   */\n      jump\t// out\n        /* \"#utility.yul\":8079:8459   */\n    tag_120:\n        /* \"#utility.yul\":8164:8165   */\n      0x02\n        /* \"#utility.yul\":8154:8166   */\n      dup2\n      div\n        /* \"#utility.yul\":8211:8212   */\n      0x01\n        /* \"#utility.yul\":8201:8213   */\n      dup3\n      and\n      dup1\n        /* \"#utility.yul\":8222:8224   */\n      tag_320\n      jumpi\n        /* \"#utility.yul\":8276:8280   */\n      0x7f\n        /* \"#utility.yul\":8268:8274   */\n      dup3\n        /* \"#utility.yul\":8264:8281   */\n      and\n        /* \"#utility.yul\":8254:8281   */\n      swap2\n      pop\n        /* \"#utility.yul\":8222:8224   */\n    tag_320:\n        /* \"#utility.yul\":8329:8331   */\n      0x20\n        /* \"#utility.yul\":8321:8327   */\n      dup3\n        /* \"#utility.yul\":8318:8332   */\n      lt\n        /* \"#utility.yul\":8298:8316   */\n      dup2\n        /* \"#utility.yul\":8295:8333   */\n      eq\n        /* \"#utility.yul\":8292:8294   */\n      iszero\n      tag_321\n      jumpi\n        /* \"#utility.yul\":8375:8385   */\n      0x4e487b71\n        /* \"#utility.yul\":8370:8373   */\n      0xe0\n        /* \"#utility.yul\":8366:8386   */\n      shl\n        /* \"#utility.yul\":8363:8364   */\n      0x00\n        /* \"#utility.yul\":8356:8387   */\n      mstore\n        /* \"#utility.yul\":8410:8414   */\n      0x22\n        /* \"#utility.yul\":8407:8408   */\n      0x04\n        /* \"#utility.yul\":8400:8415   */\n      mstore\n        /* \"#utility.yul\":8438:8442   */\n      0x24\n        /* \"#utility.yul\":8435:8436   */\n      0x00\n        /* \"#utility.yul\":8428:8443   */\n      revert\n        /* \"#utility.yul\":8292:8294   */\n    tag_321:\n      pop\n        /* \"#utility.yul\":8134:8459   */\n      swap2\n      swap1\n      pop\n      jump\t// out\n        /* \"#utility.yul\":8464:8591   */\n    tag_310:\n        /* \"#utility.yul\":8525:8535   */\n      0x4e487b71\n        /* \"#utility.yul\":8520:8523   */\n      0xe0\n        /* \"#utility.yul\":8516:8536   */\n      shl\n        /* \"#utility.yul\":8513:8514   */\n      0x00\n        /* \"#utility.yul\":8506:8537   */\n      mstore\n        /* \"#utility.yul\":8556:8560   */\n      0x11\n        /* \"#utility.yul\":8553:8554   */\n      0x04\n        /* \"#utility.yul\":8546:8561   */\n      mstore\n        /* \"#utility.yul\":8580:8584   */\n      0x24\n        /* \"#utility.yul\":8577:8578   */\n      0x00\n        /* \"#utility.yul\":8570:8585   */\n      revert\n\n    auxdata: 0xa2646970667358221220be0f5bc590489bac12bf62ba11b54632bb224570b8bb421f790bfb8cbb7497a464736f6c63430008020033\n}\n",
				"bytecode": {
					"linkReferences": {},
					"object": "6080604052601960085560326009556005600a556014600b553480156200002557600080fd5b50604051620012833803806200128383398101604081905262000048916200030d565b604080518082018252601f81527f5b544553545d204465666c6174696f6e617279204d656d6520546f6b656e5d006020808301918252835180850190945260058452642226aa181960d91b908401528151919291620000aa916003916200024a565b508051620000c09060049060208401906200024a565b505050620000dd620000d76200012e60201b60201c565b62000132565b600680546001600160a01b038085166001600160a01b03199283161792839055600780548583169316929092179091556200012691166b033b2e3c9fd0803ce800000062000184565b5050620003a6565b3390565b600580546001600160a01b038381166001600160a01b0319831681179093556040519116919082907f8be0079c531659141344cd1fd0a4f28419497f9722a3daafe3b4186f6b6457e090600090a35050565b6001600160a01b038216620001df5760405162461bcd60e51b815260206004820152601f60248201527f45524332303a206d696e7420746f20746865207a65726f206164647265737300604482015260640160405180910390fd5b8060026000828254620001f3919062000344565b90915550506001600160a01b038216600081815260208181526040808320805486019055518481527fddf252ad1be2c89b69c2b068fc378daa952ba7f163c4a11628f55a4df523b3ef910160405180910390a35050565b828054620002589062000369565b90600052602060002090601f0160209004810192826200027c5760008555620002c7565b82601f106200029757805160ff1916838001178555620002c7565b82800160010185558215620002c7579182015b82811115620002c7578251825591602001919060010190620002aa565b50620002d5929150620002d9565b5090565b5b80821115620002d55760008155600101620002da565b80516001600160a01b03811681146200030857600080fd5b919050565b6000806040838503121562000320578182fd5b6200032b83620002f0565b91506200033b60208401620002f0565b90509250929050565b600082198211156200036457634e487b7160e01b81526011600452602481fd5b500190565b6002810460018216806200037e57607f821691505b60208210811415620003a057634e487b7160e01b600052602260045260246000fd5b50919050565b610ecd80620003b66000396000f3fe608060405234801561001057600080fd5b50600436106101585760003560e01c806370a08231116100c3578063a9059cbb1161007c578063a9059cbb1461029e578063bed99850146102b1578063cc32d176146102ba578063d4698016146102c3578063dd62ed3e146102d6578063f2fde38b146102e957610158565b806370a082311461024e578063715018a6146102615780638da5cb5b1461026957806395d89b411461027a57806398118cb414610282578063a457c2d71461028b57610158565b80632ff2e9dc116101155780632ff2e9dc146101e9578063313ce567146101fc578063395093511461020b5780634626402b1461021e57806358fa63ca146102315780636fcba3771461023957610158565b806303fd2a451461015d57806306fdde0314610183578063095ea7b31461019857806318160ddd146101bb57806323b872dd146101cd5780632b14ca56146101e0575b600080fd5b61016661dead81565b6040516001600160a01b0390911681526020015b60405180910390f35b61018b6102fc565b60405161017a9190610d85565b6101ab6101a6366004610d2b565b61038e565b604051901515815260200161017a565b6002545b60405190815260200161017a565b6101ab6101db366004610cf0565b6103a6565b6101bf600a5481565b6101bf6b033b2e3c9fd0803ce800000081565b6040516012815260200161017a565b6101ab610219366004610d2b565b6103c7565b600754610166906001600160a01b031681565b610166600081565b61024c610247366004610d54565b6103e9565b005b6101bf61025c366004610ca4565b610405565b61024c610424565b6005546001600160a01b0316610166565b61018b610438565b6101bf60085481565b6101ab610299366004610d2b565b610447565b6101ab6102ac366004610d2b565b6104d2565b6101bf600b5481565b6101bf60095481565b600654610166906001600160a01b031681565b6101bf6102e4366004610cbe565b6104e8565b61024c6102f7366004610ca4565b610513565b60606003805461030b90610e46565b80601f016020809104026020016040519081016040528092919081815260200182805461033790610e46565b80156103845780601f1061035957610100808354040283529160200191610384565b820191906000526020600020905b81548152906001019060200180831161036757829003601f168201915b5050505050905090565b60003361039c81858561058c565b5060019392505050565b60006103bd84846103b88787876106b1565b610872565b90505b9392505050565b60003361039c8185856103da83836104e8565b6103e49190610dd8565b61058c565b6103f161088b565b600893909355600991909155600a55600b55565b6001600160a01b0381166000908152602081905260409020545b919050565b61042c61088b565b61043660006108e5565b565b60606004805461030b90610e46565b6000338161045582866104e8565b9050838110156104ba5760405162461bcd60e51b815260206004820152602560248201527f45524332303a2064656372656173656420616c6c6f77616e63652062656c6f77604482015264207a65726f60d81b60648201526084015b60405180910390fd5b6104c7828686840361058c565b506001949350505050565b60006103c0836104e33386866106b1565b610937565b6001600160a01b03918216600090815260016020908152604080832093909416825291909152205490565b61051b61088b565b6001600160a01b0381166105805760405162461bcd60e51b815260206004820152602660248201527f4f776e61626c653a206e6577206f776e657220697320746865207a65726f206160448201526564647265737360d01b60648201526084016104b1565b610589816108e5565b50565b6001600160a01b0383166105ee5760405162461bcd60e51b8152602060048201526024808201527f45524332303a20617070726f76652066726f6d20746865207a65726f206164646044820152637265737360e01b60648201526084016104b1565b6001600160a01b03821661064f5760405162461bcd60e51b815260206004820152602260248201527f45524332303a20617070726f766520746f20746865207a65726f206164647265604482015261737360f01b60648201526084016104b1565b6001600160a01b0383811660008181526001602090815260408083209487168084529482529182902085905590518481527f8c5be1e5ebec7d5bd14f71427d1e84f3dd0314c0f7b2291e5b200ac8c7c3b92591015b60405180910390a3505050565b60006001600160a01b03831661dead14806106d357506001600160a01b038316155b806106eb57506006546001600160a01b038581169116145b8061070357506007546001600160a01b038581169116145b1561070f5750806103c0565b6000612710600854846107229190610e10565b61072c9190610df0565b90506000612710600954856107419190610e10565b61074b9190610df0565b90506000612710600b54866107609190610e10565b61076a9190610df0565b6006549091506001600160a01b0387811691161461079a57600654610798906001600160a01b031684610937565b505b6007546001600160a01b038781169116146107c7576007546107c5906001600160a01b031683610937565b505b6107d18782610945565b6006546000906001600160a01b0389811691161480159061080057506007546001600160a01b03898116911614155b1561083b57612710600a54876108169190610e10565b6108209190610df0565b600654909150610839906001600160a01b031682610937565b505b808284610848878a610e2f565b6108529190610e2f565b61085c9190610e2f565b6108669190610e2f565b98975050505050505050565b600033610880858285610a6f565b6104c7858585610ae9565b6005546001600160a01b031633146104365760405162461bcd60e51b815260206004820181905260248201527f4f776e61626c653a2063616c6c6572206973206e6f7420746865206f776e657260448201526064016104b1565b600580546001600160a01b038381166001600160a01b0319831681179093556040519116919082907f8be0079c531659141344cd1fd0a4f28419497f9722a3daafe3b4186f6b6457e090600090a35050565b60003361039c818585610ae9565b6001600160a01b0382166109a55760405162461bcd60e51b815260206004820152602160248201527f45524332303a206275726e2066726f6d20746865207a65726f206164647265736044820152607360f81b60648201526084016104b1565b6001600160a01b03821660009081526020819052604090205481811015610a195760405162461bcd60e51b815260206004820152602260248201527f45524332303a206275726e20616d6f756e7420657863656564732062616c616e604482015261636560f01b60648201526084016104b1565b6001600160a01b0383166000818152602081815260408083208686039055600280548790039055518581529192917fddf252ad1be2c89b69c2b068fc378daa952ba7f163c4a11628f55a4df523b3ef91016106a4565b6000610a7b84846104e8565b90506000198114610ae35781811015610ad65760405162461bcd60e51b815260206004820152601d60248201527f45524332303a20696e73756666696369656e7420616c6c6f77616e636500000060448201526064016104b1565b610ae3848484840361058c565b50505050565b6001600160a01b038316610b4d5760405162461bcd60e51b815260206004820152602560248201527f45524332303a207472616e736665722066726f6d20746865207a65726f206164604482015264647265737360d81b60648201526084016104b1565b6001600160a01b038216610baf5760405162461bcd60e51b815260206004820152602360248201527f45524332303a207472616e7366657220746f20746865207a65726f206164647260448201526265737360e81b60648201526084016104b1565b6001600160a01b03831660009081526020819052604090205481811015610c275760405162461bcd60e51b815260206004820152602660248201527f45524332303a207472616e7366657220616d6f756e7420657863656564732062604482015265616c616e636560d01b60648201526084016104b1565b6001600160a01b03848116600081815260208181526040808320878703905593871680835291849020805487019055925185815290927fddf252ad1be2c89b69c2b068fc378daa952ba7f163c4a11628f55a4df523b3ef910160405180910390a3610ae3565b80356001600160a01b038116811461041f57600080fd5b600060208284031215610cb5578081fd5b6103c082610c8d565b60008060408385031215610cd0578081fd5b610cd983610c8d565b9150610ce760208401610c8d565b90509250929050565b600080600060608486031215610d04578081fd5b610d0d84610c8d565b9250610d1b60208501610c8d565b9150604084013590509250925092565b60008060408385031215610d3d578182fd5b610d4683610c8d565b946020939093013593505050565b60008060008060808587031215610d69578081fd5b5050823594602084013594506040840135936060013592509050565b6000602080835283518082850152825b81811015610db157858101830151858201604001528201610d95565b81811115610dc25783604083870101525b50601f01601f1916929092016040019392505050565b60008219821115610deb57610deb610e81565b500190565b600082610e0b57634e487b7160e01b81526012600452602481fd5b500490565b6000816000190483118215151615610e2a57610e2a610e81565b500290565b600082821015610e4157610e41610e81565b500390565b600281046001821680610e5a57607f821691505b60208210811415610e7b57634e487b7160e01b600052602260045260246000fd5b50919050565b634e487b7160e01b600052601160045260246000fdfea2646970667358221220be0f5bc590489bac12bf62ba11b54632bb224570b8bb421f790bfb8cbb7497a464736f6c63430008020033",
					"opcodes": "PUSH1 0x80 PUSH1 0x40 MSTORE PUSH1 0x19 PUSH1 0x8 SSTORE PUSH1 0x32 PUSH1 0x9 SSTORE PUSH1 0x5 PUSH1 0xA SSTORE PUSH1 0x14 PUSH1 0xB SSTORE CALLVALUE DUP1 ISZERO PUSH3 0x25 JUMPI PUSH1 0x0 DUP1 REVERT JUMPDEST POP PUSH1 0x40 MLOAD PUSH3 0x1283 CODESIZE SUB DUP1 PUSH3 0x1283 DUP4 CODECOPY DUP2 ADD PUSH1 0x40 DUP2 SWAP1 MSTORE PUSH3 0x48 SWAP2 PUSH3 0x30D JUMP JUMPDEST PUSH1 0x40 DUP1 MLOAD DUP1 DUP3 ADD DUP3 MSTORE PUSH1 0x1F DUP2 MSTORE PUSH32 0x5B544553545D204465666C6174696F6E617279204D656D6520546F6B656E5D00 PUSH1 0x20 DUP1 DUP4 ADD SWAP2 DUP3 MSTORE DUP4 MLOAD DUP1 DUP6 ADD SWAP1 SWAP5 MSTORE PUSH1 0x5 DUP5 MSTORE PUSH5 0x2226AA1819 PUSH1 0xD9 SHL SWAP1 DUP5 ADD MSTORE DUP2 MLOAD SWAP2 SWAP3 SWAP2 PUSH3 0xAA SWAP2 PUSH1 0x3 SWAP2 PUSH3 0x24A JUMP JUMPDEST POP DUP1 MLOAD PUSH3 0xC0 SWAP1 PUSH1 0x4 SWAP1 PUSH1 0x20 DUP5 ADD SWAP1 PUSH3 0x24A JUMP JUMPDEST POP POP POP PUSH3 0xDD PUSH3 0xD7 PUSH3 0x12E PUSH1 0x20 SHL PUSH1 0x20 SHR JUMP JUMPDEST PUSH3 0x132 JUMP JUMPDEST PUSH1 0x6 DUP1 SLOAD PUSH1 0x1 PUSH1 0x1 PUSH1 0xA0 SHL SUB DUP1 DUP6 AND PUSH1 0x1 PUSH1 0x1 PUSH1 0xA0 SHL SUB NOT SWAP3 DUP4 AND OR SWAP3 DUP4 SWAP1 SSTORE PUSH1 0x7 DUP1 SLOAD DUP6 DUP4 AND SWAP4 AND SWAP3 SWAP1 SWAP3 OR SWAP1 SWAP2 SSTORE PUSH3 0x126 SWAP2 AND PUSH12 0x33B2E3C9FD0803CE8000000 PUSH3 0x184 JUMP JUMPDEST POP POP PUSH3 0x3A6 JUMP JUMPDEST CALLER SWAP1 JUMP JUMPDEST PUSH1 0x5 DUP1 SLOAD PUSH1 0x1 PUSH1 0x1 PUSH1 0xA0 SHL SUB DUP4 DUP2 AND PUSH1 0x1 PUSH1 0x1 PUSH1 0xA0 SHL SUB NOT DUP4 AND DUP2 OR SWAP1 SWAP4 SSTORE PUSH1 0x40 MLOAD SWAP2 AND SWAP2 SWAP1 DUP3 SWAP1 PUSH32 0x8BE0079C531659141344CD1FD0A4F28419497F9722A3DAAFE3B4186F6B6457E0 SWAP1 PUSH1 0x0 SWAP1 LOG3 POP POP JUMP JUMPDEST PUSH1 0x1 PUSH1 0x1 PUSH1 0xA0 SHL SUB DUP3 AND PUSH3 0x1DF JUMPI PUSH1 0x40 MLOAD PUSH3 0x461BCD PUSH1 0xE5 SHL DUP2 MSTORE PUSH1 0x20 PUSH1 0x4 DUP3 ADD MSTORE PUSH1 0x1F PUSH1 0x24 DUP3 ADD MSTORE PUSH32 0x45524332303A206D696E7420746F20746865207A65726F206164647265737300 PUSH1 0x44 DUP3 ADD MSTORE PUSH1 0x64 ADD PUSH1 0x40 MLOAD DUP1 SWAP2 SUB SWAP1 REVERT JUMPDEST DUP1 PUSH1 0x2 PUSH1 0x0 DUP3 DUP3 SLOAD PUSH3 0x1F3 SWAP2 SWAP1 PUSH3 0x344 JUMP JUMPDEST SWAP1 SWAP2 SSTORE POP POP PUSH1 0x1 PUSH1 0x1 PUSH1 0xA0 SHL SUB DUP3 AND PUSH1 0x0 DUP2 DUP2 MSTORE PUSH1 0x20 DUP2 DUP2 MSTORE PUSH1 0x40 DUP1 DUP4 KECCAK256 DUP1 SLOAD DUP7 ADD SWAP1 SSTORE MLOAD DUP5 DUP2 MSTORE PUSH32 0xDDF252AD1BE2C89B69C2B068FC378DAA952BA7F163C4A11628F55A4DF523B3EF SWAP2 ADD PUSH1 0x40 MLOAD DUP1 SWAP2 SUB SWAP1 LOG3 POP POP JUMP JUMPDEST DUP3 DUP1 SLOAD PUSH3 0x258 SWAP1 PUSH3 0x369 JUMP JUMPDEST SWAP1 PUSH1 0x0 MSTORE PUSH1 0x20 PUSH1 0x0 KECCAK256 SWAP1 PUSH1 0x1F ADD PUSH1 0x20 SWAP1 DIV DUP2 ADD SWAP3 DUP3 PUSH3 0x27C JUMPI PUSH1 0x0 DUP6 SSTORE PUSH3 0x2C7 JUMP JUMPDEST DUP3 PUSH1 0x1F LT PUSH3 0x297 JUMPI DUP1 MLOAD PUSH1 0xFF NOT AND DUP4 DUP1 ADD OR DUP6 SSTORE PUSH3 0x2C7 JUMP JUMPDEST DUP3 DUP1 ADD PUSH1 0x1 ADD DUP6 SSTORE DUP3 ISZERO PUSH3 0x2C7 JUMPI SWAP2 DUP3 ADD JUMPDEST DUP3 DUP2 GT ISZERO PUSH3 0x2C7 JUMPI DUP3 MLOAD DUP3 SSTORE SWAP2 PUSH1 0x20 ADD SWAP2 SWAP1 PUSH1 0x1 ADD SWAP1 PUSH3 0x2AA JUMP JUMPDEST POP PUSH3 0x2D5 SWAP3 SWAP2 POP PUSH3 0x2D9 JUMP JUMPDEST POP SWAP1 JUMP JUMPDEST JUMPDEST DUP1 DUP3 GT ISZERO PUSH3 0x2D5 JUMPI PUSH1 0x0 DUP2 SSTORE PUSH1 0x1 ADD PUSH3 0x2DA JUMP JUMPDEST DUP1 MLOAD PUSH1 0x1 PUSH1 0x1 PUSH1 0xA0 SHL SUB DUP2 AND DUP2 EQ PUSH3 0x308 JUMPI PUSH1 0x0 DUP1 REVERT JUMPDEST SWAP2 SWAP1 POP JUMP JUMPDEST PUSH1 0x0 DUP1 PUSH1 0x40 DUP4 DUP6 SUB SLT ISZERO PUSH3 0x320 JUMPI DUP2 DUP3 REVERT JUMPDEST PUSH3 0x32B DUP4 PUSH3 0x2F0 JUMP JUMPDEST SWAP2 POP PUSH3 0x33B PUSH1 0x20 DUP5 ADD PUSH3 0x2F0 JUMP JUMPDEST SWAP1 POP SWAP3 POP SWAP3 SWAP1 POP JUMP JUMPDEST PUSH1 0x0 DUP3 NOT DUP3 GT ISZERO PUSH3 0x364 JUMPI PUSH4 0x4E487B71 PUSH1 0xE0 SHL DUP2 MSTORE PUSH1 0x11 PUSH1 0x4 MSTORE PUSH1 0x24 DUP2 REVERT JUMPDEST POP ADD SWAP1 JUMP JUMPDEST PUSH1 0x2 DUP2 DIV PUSH1 0x1 DUP3 AND DUP1 PUSH3 0x37E JUMPI PUSH1 0x7F DUP3 AND SWAP2 POP JUMPDEST PUSH1 0x20 DUP3 LT DUP2 EQ ISZERO PUSH3 0x3A0 JUMPI PUSH4 0x4E487B71 PUSH1 0xE0 SHL PUSH1 0x0 MSTORE PUSH1 0x22 PUSH1 0x4 MSTORE PUSH1 0x24 PUSH1 0x0 REVERT JUMPDEST POP SWAP2 SWAP1 POP JUMP JUMPDEST PUSH2 0xECD DUP1 PUSH3 0x3B6 PUSH1 0x0 CODECOPY PUSH1 0x0 RETURN INVALID PUSH1 0x80 PUSH1 0x40 MSTORE CALLVALUE DUP1 ISZERO PUSH2 0x10 JUMPI PUSH1 0x0 DUP1 REVERT JUMPDEST POP PUSH1 0x4 CALLDATASIZE LT PUSH2 0x158 JUMPI PUSH1 0x0 CALLDATALOAD PUSH1 0xE0 SHR DUP1 PUSH4 0x70A08231 GT PUSH2 0xC3 JUMPI DUP1 PUSH4 0xA9059CBB GT PUSH2 0x7C JUMPI DUP1 PUSH4 0xA9059CBB EQ PUSH2 0x29E JUMPI DUP1 PUSH4 0xBED99850 EQ PUSH2 0x2B1 JUMPI DUP1 PUSH4 0xCC32D176 EQ PUSH2 0x2BA JUMPI DUP1 PUSH4 0xD4698016 EQ PUSH2 0x2C3 JUMPI DUP1 PUSH4 0xDD62ED3E EQ PUSH2 0x2D6 JUMPI DUP1 PUSH4 0xF2FDE38B EQ PUSH2 0x2E9 JUMPI PUSH2 0x158 JUMP JUMPDEST DUP1 PUSH4 0x70A08231 EQ PUSH2 0x24E JUMPI DUP1 PUSH4 0x715018A6 EQ PUSH2 0x261 JUMPI DUP1 PUSH4 0x8DA5CB5B EQ PUSH2 0x269 JUMPI DUP1 PUSH4 0x95D89B41 EQ PUSH2 0x27A JUMPI DUP1 PUSH4 0x98118CB4 EQ PUSH2 0x282 JUMPI DUP1 PUSH4 0xA457C2D7 EQ PUSH2 0x28B JUMPI PUSH2 0x158 JUMP JUMPDEST DUP1 PUSH4 0x2FF2E9DC GT PUSH2 0x115 JUMPI DUP1 PUSH4 0x2FF2E9DC EQ PUSH2 0x1E9 JUMPI DUP1 PUSH4 0x313CE567 EQ PUSH2 0x1FC JUMPI DUP1 PUSH4 0x39509351 EQ PUSH2 0x20B JUMPI DUP1 PUSH4 0x4626402B EQ PUSH2 0x21E JUMPI DUP1 PUSH4 0x58FA63CA EQ PUSH2 0x231 JUMPI DUP1 PUSH4 0x6FCBA377 EQ PUSH2 0x239 JUMPI PUSH2 0x158 JUMP JUMPDEST DUP1 PUSH4 0x3FD2A45 EQ PUSH2 0x15D JUMPI DUP1 PUSH4 0x6FDDE03 EQ PUSH2 0x183 JUMPI DUP1 PUSH4 0x95EA7B3 EQ PUSH2 0x198 JUMPI DUP1 PUSH4 0x18160DDD EQ PUSH2 0x1BB JUMPI DUP1 PUSH4 0x23B872DD EQ PUSH2 0x1CD JUMPI DUP1 PUSH4 0x2B14CA56 EQ PUSH2 0x1E0 JUMPI JUMPDEST PUSH1 0x0 DUP1 REVERT JUMPDEST PUSH2 0x166 PUSH2 0xDEAD DUP2 JUMP JUMPDEST PUSH1 0x40 MLOAD PUSH1 0x1 PUSH1 0x1 PUSH1 0xA0 SHL SUB SWAP1 SWAP2 AND DUP2 MSTORE PUSH1 0x20 ADD JUMPDEST PUSH1 0x40 MLOAD DUP1 SWAP2 SUB SWAP1 RETURN JUMPDEST PUSH2 0x18B PUSH2 0x2FC JUMP JUMPDEST PUSH1 0x40 MLOAD PUSH2 0x17A SWAP2 SWAP1 PUSH2 0xD85 JUMP JUMPDEST PUSH2 0x1AB PUSH2 0x1A6 CALLDATASIZE PUSH1 0x4 PUSH2 0xD2B JUMP JUMPDEST PUSH2 0x38E JUMP JUMPDEST PUSH1 0x40 MLOAD SWAP1 ISZERO ISZERO DUP2 MSTORE PUSH1 0x20 ADD PUSH2 0x17A JUMP JUMPDEST PUSH1 0x2 SLOAD JUMPDEST PUSH1 0x40 MLOAD SWAP1 DUP2 MSTORE PUSH1 0x20 ADD PUSH2 0x17A JUMP JUMPDEST PUSH2 0x1AB PUSH2 0x1DB CALLDATASIZE PUSH1 0x4 PUSH2 0xCF0 JUMP JUMPDEST PUSH2 0x3A6 JUMP JUMPDEST PUSH2 0x1BF PUSH1 0xA SLOAD DUP2 JUMP JUMPDEST PUSH2 0x1BF PUSH12 0x33B2E3C9FD0803CE8000000 DUP2 JUMP JUMPDEST PUSH1 0x40 MLOAD PUSH1 0x12 DUP2 MSTORE PUSH1 0x20 ADD PUSH2 0x17A JUMP JUMPDEST PUSH2 0x1AB PUSH2 0x219 CALLDATASIZE PUSH1 0x4 PUSH2 0xD2B JUMP JUMPDEST PUSH2 0x3C7 JUMP JUMPDEST PUSH1 0x7 SLOAD PUSH2 0x166 SWAP1 PUSH1 0x1 PUSH1 0x1 PUSH1 0xA0 SHL SUB AND DUP2 JUMP JUMPDEST PUSH2 0x166 PUSH1 0x0 DUP2 JUMP JUMPDEST PUSH2 0x24C PUSH2 0x247 CALLDATASIZE PUSH1 0x4 PUSH2 0xD54 JUMP JUMPDEST PUSH2 0x3E9 JUMP JUMPDEST STOP JUMPDEST PUSH2 0x1BF PUSH2 0x25C CALLDATASIZE PUSH1 0x4 PUSH2 0xCA4 JUMP JUMPDEST PUSH2 0x405 JUMP JUMPDEST PUSH2 0x24C PUSH2 0x424 JUMP JUMPDEST PUSH1 0x5 SLOAD PUSH1 0x1 PUSH1 0x1 PUSH1 0xA0 SHL SUB AND PUSH2 0x166 JUMP JUMPDEST PUSH2 0x18B PUSH2 0x438 JUMP JUMPDEST PUSH2 0x1BF PUSH1 0x8 SLOAD DUP2 JUMP JUMPDEST PUSH2 0x1AB PUSH2 0x299 CALLDATASIZE PUSH1 0x4 PUSH2 0xD2B JUMP JUMPDEST PUSH2 0x447 JUMP JUMPDEST PUSH2 0x1AB PUSH2 0x2AC CALLDATASIZE PUSH1 0x4 PUSH2 0xD2B JUMP JUMPDEST PUSH2 0x4D2 JUMP JUMPDEST PUSH2 0x1BF PUSH1 0xB SLOAD DUP2 JUMP JUMPDEST PUSH2 0x1BF PUSH1 0x9 SLOAD DUP2 JUMP JUMPDEST PUSH1 0x6 SLOAD PUSH2 0x166 SWAP1 PUSH1 0x1 PUSH1 0x1 PUSH1 0xA0 SHL SUB AND DUP2 JUMP JUMPDEST PUSH2 0x1BF PUSH2 0x2E4 CALLDATASIZE PUSH1 0x4 PUSH2 0xCBE JUMP JUMPDEST PUSH2 0x4E8 JUMP JUMPDEST PUSH2 0x24C PUSH2 0x2F7 CALLDATASIZE PUSH1 0x4 PUSH2 0xCA4 JUMP JUMPDEST PUSH2 0x513 JUMP JUMPDEST PUSH1 0x60 PUSH1 0x3 DUP1 SLOAD PUSH2 0x30B SWAP1 PUSH2 0xE46 JUMP JUMPDEST DUP1 PUSH1 0x1F ADD PUSH1 0x20 DUP1 SWAP2 DIV MUL PUSH1 0x20 ADD PUSH1 0x40 MLOAD SWAP1 DUP2 ADD PUSH1 0x40 MSTORE DUP1 SWAP3 SWAP2 SWAP1 DUP2 DUP2 MSTORE PUSH1 0x20 ADD DUP3 DUP1 SLOAD PUSH2 0x337 SWAP1 PUSH2 0xE46 JUMP JUMPDEST DUP1 ISZERO PUSH2 0x384 JUMPI DUP1 PUSH1 0x1F LT PUSH2 0x359 JUMPI PUSH2 0x100 DUP1 DUP4 SLOAD DIV MUL DUP4 MSTORE SWAP2 PUSH1 0x20 ADD SWAP2 PUSH2 0x384 JUMP JUMPDEST DUP3 ADD SWAP2 SWAP1 PUSH1 0x0 MSTORE PUSH1 0x20 PUSH1 0x0 KECCAK256 SWAP1 JUMPDEST DUP2 SLOAD DUP2 MSTORE SWAP1 PUSH1 0x1 ADD SWAP1 PUSH1 0x20 ADD DUP1 DUP4 GT PUSH2 0x367 JUMPI DUP3 SWAP1 SUB PUSH1 0x1F AND DUP3 ADD SWAP2 JUMPDEST POP POP POP POP POP SWAP1 POP SWAP1 JUMP JUMPDEST PUSH1 0x0 CALLER PUSH2 0x39C DUP2 DUP6 DUP6 PUSH2 0x58C JUMP JUMPDEST POP PUSH1 0x1 SWAP4 SWAP3 POP POP POP JUMP JUMPDEST PUSH1 0x0 PUSH2 0x3BD DUP5 DUP5 PUSH2 0x3B8 DUP8 DUP8 DUP8 PUSH2 0x6B1 JUMP JUMPDEST PUSH2 0x872 JUMP JUMPDEST SWAP1 POP JUMPDEST SWAP4 SWAP3 POP POP POP JUMP JUMPDEST PUSH1 0x0 CALLER PUSH2 0x39C DUP2 DUP6 DUP6 PUSH2 0x3DA DUP4 DUP4 PUSH2 0x4E8 JUMP JUMPDEST PUSH2 0x3E4 SWAP2 SWAP1 PUSH2 0xDD8 JUMP JUMPDEST PUSH2 0x58C JUMP JUMPDEST PUSH2 0x3F1 PUSH2 0x88B JUMP JUMPDEST PUSH1 0x8 SWAP4 SWAP1 SWAP4 SSTORE PUSH1 0x9 SWAP2 SWAP1 SWAP2 SSTORE PUSH1 0xA SSTORE PUSH1 0xB SSTORE JUMP JUMPDEST PUSH1 0x1 PUSH1 0x1 PUSH1 0xA0 SHL SUB DUP2 AND PUSH1 0x0 SWAP1 DUP2 MSTORE PUSH1 0x20 DUP2 SWAP1 MSTORE PUSH1 0x40 SWAP1 KECCAK256 SLOAD JUMPDEST SWAP2 SWAP1 POP JUMP JUMPDEST PUSH2 0x42C PUSH2 0x88B JUMP JUMPDEST PUSH2 0x436 PUSH1 0x0 PUSH2 0x8E5 JUMP JUMPDEST JUMP JUMPDEST PUSH1 0x60 PUSH1 0x4 DUP1 SLOAD PUSH2 0x30B SWAP1 PUSH2 0xE46 JUMP JUMPDEST PUSH1 0x0 CALLER DUP2 PUSH2 0x455 DUP3 DUP7 PUSH2 0x4E8 JUMP JUMPDEST SWAP1 POP DUP4 DUP2 LT ISZERO PUSH2 0x4BA JUMPI PUSH1 0x40 MLOAD PUSH3 0x461BCD PUSH1 0xE5 SHL DUP2 MSTORE PUSH1 0x20 PUSH1 0x4 DUP3 ADD MSTORE PUSH1 0x25 PUSH1 0x24 DUP3 ADD MSTORE PUSH32 0x45524332303A2064656372656173656420616C6C6F77616E63652062656C6F77 PUSH1 0x44 DUP3 ADD MSTORE PUSH5 0x207A65726F PUSH1 0xD8 SHL PUSH1 0x64 DUP3 ADD MSTORE PUSH1 0x84 ADD JUMPDEST PUSH1 0x40 MLOAD DUP1 SWAP2 SUB SWAP1 REVERT JUMPDEST PUSH2 0x4C7 DUP3 DUP7 DUP7 DUP5 SUB PUSH2 0x58C JUMP JUMPDEST POP PUSH1 0x1 SWAP5 SWAP4 POP POP POP POP JUMP JUMPDEST PUSH1 0x0 PUSH2 0x3C0 DUP4 PUSH2 0x4E3 CALLER DUP7 DUP7 PUSH2 0x6B1 JUMP JUMPDEST PUSH2 0x937 JUMP JUMPDEST PUSH1 0x1 PUSH1 0x1 PUSH1 0xA0 SHL SUB SWAP2 DUP3 AND PUSH1 0x0 SWAP1 DUP2 MSTORE PUSH1 0x1 PUSH1 0x20 SWAP1 DUP2 MSTORE PUSH1 0x40 DUP1 DUP4 KECCAK256 SWAP4 SWAP1 SWAP5 AND DUP3 MSTORE SWAP2 SWAP1 SWAP2 MSTORE KECCAK256 SLOAD SWAP1 JUMP JUMPDEST PUSH2 0x51B PUSH2 0x88B JUMP JUMPDEST PUSH1 0x1 PUSH1 0x1 PUSH1 0xA0 SHL SUB DUP2 AND PUSH2 0x580 JUMPI PUSH1 0x40 MLOAD PUSH3 0x461BCD PUSH1 0xE5 SHL DUP2 MSTORE PUSH1 0x20 PUSH1 0x4 DUP3 ADD MSTORE PUSH1 0x26 PUSH1 0x24 DUP3 ADD MSTORE PUSH32 0x4F776E61626C653A206E6577206F776E657220697320746865207A65726F2061 PUSH1 0x44 DUP3 ADD MSTORE PUSH6 0x646472657373 PUSH1 0xD0 SHL PUSH1 0x64 DUP3 ADD MSTORE PUSH1 0x84 ADD PUSH2 0x4B1 JUMP JUMPDEST PUSH2 0x589 DUP2 PUSH2 0x8E5 JUMP JUMPDEST POP JUMP JUMPDEST PUSH1 0x1 PUSH1 0x1 PUSH1 0xA0 SHL SUB DUP4 AND PUSH2 0x5EE JUMPI PUSH1 0x40 MLOAD PUSH3 0x461BCD PUSH1 0xE5 SHL DUP2 MSTORE PUSH1 0x20 PUSH1 0x4 DUP3 ADD MSTORE PUSH1 0x24 DUP1 DUP3 ADD MSTORE PUSH32 0x45524332303A20617070726F76652066726F6D20746865207A65726F20616464 PUSH1 0x44 DUP3 ADD MSTORE PUSH4 0x72657373 PUSH1 0xE0 SHL PUSH1 0x64 DUP3 ADD MSTORE PUSH1 0x84 ADD PUSH2 0x4B1 JUMP JUMPDEST PUSH1 0x1 PUSH1 0x1 PUSH1 0xA0 SHL SUB DUP3 AND PUSH2 0x64F JUMPI PUSH1 0x40 MLOAD PUSH3 0x461BCD PUSH1 0xE5 SHL DUP2 MSTORE PUSH1 0x20 PUSH1 0x4 DUP3 ADD MSTORE PUSH1 0x22 PUSH1 0x24 DUP3 ADD MSTORE PUSH32 0x45524332303A20617070726F766520746F20746865207A65726F206164647265 PUSH1 0x44 DUP3 ADD MSTORE PUSH2 0x7373 PUSH1 0xF0 SHL PUSH1 0x64 DUP3 ADD MSTORE PUSH1 0x84 ADD PUSH2 0x4B1 JUMP JUMPDEST PUSH1 0x1 PUSH1 0x1 PUSH1 0xA0 SHL SUB DUP4 DUP2 AND PUSH1 0x0 DUP2 DUP2 MSTORE PUSH1 0x1 PUSH1 0x20 SWAP1 DUP2 MSTORE PUSH1 0x40 DUP1 DUP4 KECCAK256 SWAP5 DUP8 AND DUP1 DUP5 MSTORE SWAP5 DUP3 MSTORE SWAP2 DUP3 SWAP1 KECCAK256 DUP6 SWAP1 SSTORE SWAP1 MLOAD DUP5 DUP2 MSTORE PUSH32 0x8C5BE1E5EBEC7D5BD14F71427D1E84F3DD0314C0F7B2291E5B200AC8C7C3B925 SWAP2 ADD JUMPDEST PUSH1 0x40 MLOAD DUP1 SWAP2 SUB SWAP1 LOG3 POP POP POP JUMP JUMPDEST PUSH1 0x0 PUSH1 0x1 PUSH1 0x1 PUSH1 0xA0 SHL SUB DUP4 AND PUSH2 0xDEAD EQ DUP1 PUSH2 0x6D3 JUMPI POP PUSH1 0x1 PUSH1 0x1 PUSH1 0xA0 SHL SUB DUP4 AND ISZERO JUMPDEST DUP1 PUSH2 0x6EB JUMPI POP PUSH1 0x6 SLOAD PUSH1 0x1 PUSH1 0x1 PUSH1 0xA0 SHL SUB DUP6 DUP2 AND SWAP2 AND EQ JUMPDEST DUP1 PUSH2 0x703 JUMPI POP PUSH1 0x7 SLOAD PUSH1 0x1 PUSH1 0x1 PUSH1 0xA0 SHL SUB DUP6 DUP2 AND SWAP2 AND EQ JUMPDEST ISZERO PUSH2 0x70F JUMPI POP DUP1 PUSH2 0x3C0 JUMP JUMPDEST PUSH1 0x0 PUSH2 0x2710 PUSH1 0x8 SLOAD DUP5 PUSH2 0x722 SWAP2 SWAP1 PUSH2 0xE10 JUMP JUMPDEST PUSH2 0x72C SWAP2 SWAP1 PUSH2 0xDF0 JUMP JUMPDEST SWAP1 POP PUSH1 0x0 PUSH2 0x2710 PUSH1 0x9 SLOAD DUP6 PUSH2 0x741 SWAP2 SWAP1 PUSH2 0xE10 JUMP JUMPDEST PUSH2 0x74B SWAP2 SWAP1 PUSH2 0xDF0 JUMP JUMPDEST SWAP1 POP PUSH1 0x0 PUSH2 0x2710 PUSH1 0xB SLOAD DUP7 PUSH2 0x760 SWAP2 SWAP1 PUSH2 0xE10 JUMP JUMPDEST PUSH2 0x76A SWAP2 SWAP1 PUSH2 0xDF0 JUMP JUMPDEST PUSH1 0x6 SLOAD SWAP1 SWAP2 POP PUSH1 0x1 PUSH1 0x1 PUSH1 0xA0 SHL SUB DUP8 DUP2 AND SWAP2 AND EQ PUSH2 0x79A JUMPI PUSH1 0x6 SLOAD PUSH2 0x798 SWAP1 PUSH1 0x1 PUSH1 0x1 PUSH1 0xA0 SHL SUB AND DUP5 PUSH2 0x937 JUMP JUMPDEST POP JUMPDEST PUSH1 0x7 SLOAD PUSH1 0x1 PUSH1 0x1 PUSH1 0xA0 SHL SUB DUP8 DUP2 AND SWAP2 AND EQ PUSH2 0x7C7 JUMPI PUSH1 0x7 SLOAD PUSH2 0x7C5 SWAP1 PUSH1 0x1 PUSH1 0x1 PUSH1 0xA0 SHL SUB AND DUP4 PUSH2 0x937 JUMP JUMPDEST POP JUMPDEST PUSH2 0x7D1 DUP8 DUP3 PUSH2 0x945 JUMP JUMPDEST PUSH1 0x6 SLOAD PUSH1 0x0 SWAP1 PUSH1 0x1 PUSH1 0x1 PUSH1 0xA0 SHL SUB DUP10 DUP2 AND SWAP2 AND EQ DUP1 ISZERO SWAP1 PUSH2 0x800 JUMPI POP PUSH1 0x7 SLOAD PUSH1 0x1 PUSH1 0x1 PUSH1 0xA0 SHL SUB DUP10 DUP2 AND SWAP2 AND EQ ISZERO JUMPDEST ISZERO PUSH2 0x83B JUMPI PUSH2 0x2710 PUSH1 0xA SLOAD DUP8 PUSH2 0x816 SWAP2 SWAP1 PUSH2 0xE10 JUMP JUMPDEST PUSH2 0x820 SWAP2 SWAP1 PUSH2 0xDF0 JUMP JUMPDEST PUSH1 0x6 SLOAD SWAP1 SWAP2 POP PUSH2 0x839 SWAP1 PUSH1 0x1 PUSH1 0x1 PUSH1 0xA0 SHL SUB AND DUP3 PUSH2 0x937 JUMP JUMPDEST POP JUMPDEST DUP1 DUP3 DUP5 PUSH2 0x848 DUP8 DUP11 PUSH2 0xE2F JUMP JUMPDEST PUSH2 0x852 SWAP2 SWAP1 PUSH2 0xE2F JUMP JUMPDEST PUSH2 0x85C SWAP2 SWAP1 PUSH2 0xE2F JUMP JUMPDEST PUSH2 0x866 SWAP2 SWAP1 PUSH2 0xE2F JUMP JUMPDEST SWAP9 SWAP8 POP POP POP POP POP POP POP POP JUMP JUMPDEST PUSH1 0x0 CALLER PUSH2 0x880 DUP6 DUP3 DUP6 PUSH2 0xA6F JUMP JUMPDEST PUSH2 0x4C7 DUP6 DUP6 DUP6 PUSH2 0xAE9 JUMP JUMPDEST PUSH1 0x5 SLOAD PUSH1 0x1 PUSH1 0x1 PUSH1 0xA0 SHL SUB AND CALLER EQ PUSH2 0x436 JUMPI PUSH1 0x40 MLOAD PUSH3 0x461BCD PUSH1 0xE5 SHL DUP2 MSTORE PUSH1 0x20 PUSH1 0x4 DUP3 ADD DUP2 SWAP1 MSTORE PUSH1 0x24 DUP3 ADD MSTORE PUSH32 0x4F776E61626C653A2063616C6C6572206973206E6F7420746865206F776E6572 PUSH1 0x44 DUP3 ADD MSTORE PUSH1 0x64 ADD PUSH2 0x4B1 JUMP JUMPDEST PUSH1 0x5 DUP1 SLOAD PUSH1 0x1 PUSH1 0x1 PUSH1 0xA0 SHL SUB DUP4 DUP2 AND PUSH1 0x1 PUSH1 0x1 PUSH1 0xA0 SHL SUB NOT DUP4 AND DUP2 OR SWAP1 SWAP4 SSTORE PUSH1 0x40 MLOAD SWAP2 AND SWAP2 SWAP1 DUP3 SWAP1 PUSH32 0x8BE0079C531659141344CD1FD0A4F28419497F9722A3DAAFE3B4186F6B6457E0 SWAP1 PUSH1 0x0 SWAP1 LOG3 POP POP JUMP JUMPDEST PUSH1 0x0 CALLER PUSH2 0x39C DUP2 DUP6 DUP6 PUSH2 0xAE9 JUMP JUMPDEST PUSH1 0x1 PUSH1 0x1 PUSH1 0xA0 SHL SUB DUP3 AND PUSH2 0x9A5 JUMPI PUSH1 0x40 MLOAD PUSH3 0x461BCD PUSH1 0xE5 SHL DUP2 MSTORE PUSH1 0x20 PUSH1 0x4 DUP3 ADD MSTORE PUSH1 0x21 PUSH1 0x24 DUP3 ADD MSTORE PUSH32 0x45524332303A206275726E2066726F6D20746865207A65726F20616464726573 PUSH1 0x44 DUP3 ADD MSTORE PUSH1 0x73 PUSH1 0xF8 SHL PUSH1 0x64 DUP3 ADD MSTORE PUSH1 0x84 ADD PUSH2 0x4B1 JUMP JUMPDEST PUSH1 0x1 PUSH1 0x1 PUSH1 0xA0 SHL SUB DUP3 AND PUSH1 0x0 SWAP1 DUP2 MSTORE PUSH1 0x20 DUP2 SWAP1 MSTORE PUSH1 0x40 SWAP1 KECCAK256 SLOAD DUP2 DUP2 LT ISZERO PUSH2 0xA19 JUMPI PUSH1 0x40 MLOAD PUSH3 0x461BCD PUSH1 0xE5 SHL DUP2 MSTORE PUSH1 0x20 PUSH1 0x4 DUP3 ADD MSTORE PUSH1 0x22 PUSH1 0x24 DUP3 ADD MSTORE PUSH32 0x45524332303A206275726E20616D6F756E7420657863656564732062616C616E PUSH1 0x44 DUP3 ADD MSTORE PUSH2 0x6365 PUSH1 0xF0 SHL PUSH1 0x64 DUP3 ADD MSTORE PUSH1 0x84 ADD PUSH2 0x4B1 JUMP JUMPDEST PUSH1 0x1 PUSH1 0x1 PUSH1 0xA0 SHL SUB DUP4 AND PUSH1 0x0 DUP2 DUP2 MSTORE PUSH1 0x20 DUP2 DUP2 MSTORE PUSH1 0x40 DUP1 DUP4 KECCAK256 DUP7 DUP7 SUB SWAP1 SSTORE PUSH1 0x2 DUP1 SLOAD DUP8 SWAP1 SUB SWAP1 SSTORE MLOAD DUP6 DUP2 MSTORE SWAP2 SWAP3 SWAP2 PUSH32 0xDDF252AD1BE2C89B69C2B068FC378DAA952BA7F163C4A11628F55A4DF523B3EF SWAP2 ADD PUSH2 0x6A4 JUMP JUMPDEST PUSH1 0x0 PUSH2 0xA7B DUP5 DUP5 PUSH2 0x4E8 JUMP JUMPDEST SWAP1 POP PUSH1 0x0 NOT DUP2 EQ PUSH2 0xAE3 JUMPI DUP2 DUP2 LT ISZERO PUSH2 0xAD6 JUMPI PUSH1 0x40 MLOAD PUSH3 0x461BCD PUSH1 0xE5 SHL DUP2 MSTORE PUSH1 0x20 PUSH1 0x4 DUP3 ADD MSTORE PUSH1 0x1D PUSH1 0x24 DUP3 ADD MSTORE PUSH32 0x45524332303A20696E73756666696369656E7420616C6C6F77616E6365000000 PUSH1 0x44 DUP3 ADD MSTORE PUSH1 0x64 ADD PUSH2 0x4B1 JUMP JUMPDEST PUSH2 0xAE3 DUP5 DUP5 DUP5 DUP5 SUB PUSH2 0x58C JUMP JUMPDEST POP POP POP POP JUMP JUMPDEST PUSH1 0x1 PUSH1 0x1 PUSH1 0xA0 SHL SUB DUP4 AND PUSH2 0xB4D JUMPI PUSH1 0x40 MLOAD PUSH3 0x461BCD PUSH1 0xE5 SHL DUP2 MSTORE PUSH1 0x20 PUSH1 0x4 DUP3 ADD MSTORE PUSH1 0x25 PUSH1 0x24 DUP3 ADD MSTORE PUSH32 0x45524332303A207472616E736665722066726F6D20746865207A65726F206164 PUSH1 0x44 DUP3 ADD MSTORE PUSH5 0x6472657373 PUSH1 0xD8 SHL PUSH1 0x64 DUP3 ADD MSTORE PUSH1 0x84 ADD PUSH2 0x4B1 JUMP JUMPDEST PUSH1 0x1 PUSH1 0x1 PUSH1 0xA0 SHL SUB DUP3 AND PUSH2 0xBAF JUMPI PUSH1 0x40 MLOAD PUSH3 0x461BCD PUSH1 0xE5 SHL DUP2 MSTORE PUSH1 0x20 PUSH1 0x4 DUP3 ADD MSTORE PUSH1 0x23 PUSH1 0x24 DUP3 ADD MSTORE PUSH32 0x45524332303A207472616E7366657220746F20746865207A65726F2061646472 PUSH1 0x44 DUP3 ADD MSTORE PUSH3 0x657373 PUSH1 0xE8 SHL PUSH1 0x64 DUP3 ADD MSTORE PUSH1 0x84 ADD PUSH2 0x4B1 JUMP JUMPDEST PUSH1 0x1 PUSH1 0x1 PUSH1 0xA0 SHL SUB DUP4 AND PUSH1 0x0 SWAP1 DUP2 MSTORE PUSH1 0x20 DUP2 SWAP1 MSTORE PUSH1 0x40 SWAP1 KECCAK256 SLOAD DUP2 DUP2 LT ISZERO PUSH2 0xC27 JUMPI PUSH1 0x40 MLOAD PUSH3 0x461BCD PUSH1 0xE5 SHL DUP2 MSTORE PUSH1 0x20 PUSH1 0x4 DUP3 ADD MSTORE PUSH1 0x26 PUSH1 0x24 DUP3 ADD MSTORE PUSH32 0x45524332303A207472616E7366657220616D6F756E7420657863656564732062 PUSH1 0x44 DUP3 ADD MSTORE PUSH6 0x616C616E6365 PUSH1 0xD0 SHL PUSH1 0x64 DUP3 ADD MSTORE PUSH1 0x84 ADD PUSH2 0x4B1 JUMP JUMPDEST PUSH1 0x1 PUSH1 0x1 PUSH1 0xA0 SHL SUB DUP5 DUP2 AND PUSH1 0x0 DUP2 DUP2 MSTORE PUSH1 0x20 DUP2 DUP2 MSTORE PUSH1 0x40 DUP1 DUP4 KECCAK256 DUP8 DUP8 SUB SWAP1 SSTORE SWAP4 DUP8 AND DUP1 DUP4 MSTORE SWAP2 DUP5 SWAP1 KECCAK256 DUP1 SLOAD DUP8 ADD SWAP1 SSTORE SWAP3 MLOAD DUP6 DUP2 MSTORE SWAP1 SWAP3 PUSH32 0xDDF252AD1BE2C89B69C2B068FC378DAA952BA7F163C4A11628F55A4DF523B3EF SWAP2 ADD PUSH1 0x40 MLOAD DUP1 SWAP2 SUB SWAP1 LOG3 PUSH2 0xAE3 JUMP JUMPDEST DUP1 CALLDATALOAD PUSH1 0x1 PUSH1 0x1 PUSH1 0xA0 SHL SUB DUP2 AND DUP2 EQ PUSH2 0x41F JUMPI PUSH1 0x0 DUP1 REVERT JUMPDEST PUSH1 0x0 PUSH1 0x20 DUP3 DUP5 SUB SLT ISZERO PUSH2 0xCB5 JUMPI DUP1 DUP2 REVERT JUMPDEST PUSH2 0x3C0 DUP3 PUSH2 0xC8D JUMP JUMPDEST PUSH1 0x0 DUP1 PUSH1 0x40 DUP4 DUP6 SUB SLT ISZERO PUSH2 0xCD0 JUMPI DUP1 DUP2 REVERT JUMPDEST PUSH2 0xCD9 DUP4 PUSH2 0xC8D JUMP JUMPDEST SWAP2 POP PUSH2 0xCE7 PUSH1 0x20 DUP5 ADD PUSH2 0xC8D JUMP JUMPDEST SWAP1 POP SWAP3 POP SWAP3 SWAP1 POP JUMP JUMPDEST PUSH1 0x0 DUP1 PUSH1 0x0 PUSH1 0x60 DUP5 DUP7 SUB SLT ISZERO PUSH2 0xD04 JUMPI DUP1 DUP2 REVERT JUMPDEST PUSH2 0xD0D DUP5 PUSH2 0xC8D JUMP JUMPDEST SWAP3 POP PUSH2 0xD1B PUSH1 0x20 DUP6 ADD PUSH2 0xC8D JUMP JUMPDEST SWAP2 POP PUSH1 0x40 DUP5 ADD CALLDATALOAD SWAP1 POP SWAP3 POP SWAP3 POP SWAP3 JUMP JUMPDEST PUSH1 0x0 DUP1 PUSH1 0x40 DUP4 DUP6 SUB SLT ISZERO PUSH2 0xD3D JUMPI DUP2 DUP3 REVERT JUMPDEST PUSH2 0xD46 DUP4 PUSH2 0xC8D JUMP JUMPDEST SWAP5 PUSH1 0x20 SWAP4 SWAP1 SWAP4 ADD CALLDATALOAD SWAP4 POP POP POP JUMP JUMPDEST PUSH1 0x0 DUP1 PUSH1 0x0 DUP1 PUSH1 0x80 DUP6 DUP8 SUB SLT ISZERO PUSH2 0xD69 JUMPI DUP1 DUP2 REVERT JUMPDEST POP POP DUP3 CALLDATALOAD SWAP5 PUSH1 0x20 DUP5 ADD CALLDATALOAD SWAP5 POP PUSH1 0x40 DUP5 ADD CALLDATALOAD SWAP4 PUSH1 0x60 ADD CALLDATALOAD SWAP3 POP SWAP1 POP JUMP JUMPDEST PUSH1 0x0 PUSH1 0x20 DUP1 DUP4 MSTORE DUP4 MLOAD DUP1 DUP3 DUP6 ADD MSTORE DUP3 JUMPDEST DUP2 DUP2 LT ISZERO PUSH2 0xDB1 JUMPI DUP6 DUP2 ADD DUP4 ADD MLOAD DUP6 DUP3 ADD PUSH1 0x40 ADD MSTORE DUP3 ADD PUSH2 0xD95 JUMP JUMPDEST DUP2 DUP2 GT ISZERO PUSH2 0xDC2 JUMPI DUP4 PUSH1 0x40 DUP4 DUP8 ADD ADD MSTORE JUMPDEST POP PUSH1 0x1F ADD PUSH1 0x1F NOT AND SWAP3 SWAP1 SWAP3 ADD PUSH1 0x40 ADD SWAP4 SWAP3 POP POP POP JUMP JUMPDEST PUSH1 0x0 DUP3 NOT DUP3 GT ISZERO PUSH2 0xDEB JUMPI PUSH2 0xDEB PUSH2 0xE81 JUMP JUMPDEST POP ADD SWAP1 JUMP JUMPDEST PUSH1 0x0 DUP3 PUSH2 0xE0B JUMPI PUSH4 0x4E487B71 PUSH1 0xE0 SHL DUP2 MSTORE PUSH1 0x12 PUSH1 0x4 MSTORE PUSH1 0x24 DUP2 REVERT JUMPDEST POP DIV SWAP1 JUMP JUMPDEST PUSH1 0x0 DUP2 PUSH1 0x0 NOT DIV DUP4 GT DUP3 ISZERO ISZERO AND ISZERO PUSH2 0xE2A JUMPI PUSH2 0xE2A PUSH2 0xE81 JUMP JUMPDEST POP MUL SWAP1 JUMP JUMPDEST PUSH1 0x0 DUP3 DUP3 LT ISZERO PUSH2 0xE41 JUMPI PUSH2 0xE41 PUSH2 0xE81 JUMP JUMPDEST POP SUB SWAP1 JUMP JUMPDEST PUSH1 0x2 DUP2 DIV PUSH1 0x1 DUP3 AND DUP1 PUSH2 0xE5A JUMPI PUSH1 0x7F DUP3 AND SWAP2 POP JUMPDEST PUSH1 0x20 DUP3 LT DUP2 EQ ISZERO PUSH2 0xE7B JUMPI PUSH4 0x4E487B71 PUSH1 0xE0 SHL PUSH1 0x0 MSTORE PUSH1 0x22 PUSH1 0x4 MSTORE PUSH1 0x24 PUSH1 0x0 REVERT JUMPDEST POP SWAP2 SWAP1 POP JUMP JUMPDEST PUSH4 0x4E487B71 PUSH1 0xE0 SHL PUSH1 0x0 MSTORE PUSH1 0x11 PUSH1 0x4 MSTORE PUSH1 0x24 PUSH1 0x0 REVERT INVALID LOG2 PUSH5 0x6970667358 0x22 SLT KECCAK256 0xBE 0xF JUMPDEST 0xC5 SWAP1 0x48 SWAP12 0xAC SLT 0xBF PUSH3 0xBA11B5 CHAINID ORIGIN 0xBB 0x22 GASLIMIT PUSH17 0xB8BB421F790BFB8CBB7497A464736F6C63 NUMBER STOP ADDMOD MUL STOP CALLER "
				},
				"gasEstimates": {
					"creation": {
						"codeDepositCost": "757800",
						"executionCost": "infinite",
						"totalCost": "infinite"
					},
					"external": {
						"DEAD()": "229",
						"INITIAL_SUPPLY()": "218",
						"ZERO()": "316",
						"allowance(address,address)": "infinite",
						"approve(address,uint256)": "22570",
						"balanceOf(address)": "infinite",
						"burnRate()": "1039",
						"decimals()": "222",
						"decreaseAllowance(address,uint256)": "23684",
						"increaseAllowance(address,uint256)": "23646",
						"liquidityFee()": "1106",
						"liquidityWallet()": "1114",
						"name()": "infinite",
						"owner()": "1087",
						"renounceOwnership()": "infinite",
						"sellFee()": "1129",
						"setFees(uint256,uint256,uint256,uint256)": "81308",
						"symbol()": "infinite",
						"totalSupply()": "1071",
						"transfer(address,uint256)": "infinite",
						"transferFrom(address,address,uint256)": "infinite",
						"transferOwnership(address)": "23768",
						"treasuryFee()": "1061",
						"treasuryWallet()": "1115"
					},
					"internal": {
						"applyFees(address,address,uint256)": "infinite"
					}
				},
				"methodIdentifiers": {
					"DEAD()": "03fd2a45",
					"INITIAL_SUPPLY()": "2ff2e9dc",
					"ZERO()": "58fa63ca",
					"allowance(address,address)": "dd62ed3e",
					"approve(address,uint256)": "095ea7b3",
					"balanceOf(address)": "70a08231",
					"burnRate()": "bed99850",
					"decimals()": "313ce567",
					"decreaseAllowance(address,uint256)": "a457c2d7",
					"increaseAllowance(address,uint256)": "39509351",
					"liquidityFee()": "98118cb4",
					"liquidityWallet()": "d4698016",
					"name()": "06fdde03",
					"owner()": "8da5cb5b",
					"renounceOwnership()": "715018a6",
					"sellFee()": "2b14ca56",
					"setFees(uint256,uint256,uint256,uint256)": "6fcba377",
					"symbol()": "95d89b41",
					"totalSupply()": "18160ddd",
					"transfer(address,uint256)": "a9059cbb",
					"transferFrom(address,address,uint256)": "23b872dd",
					"transferOwnership(address)": "f2fde38b",
					"treasuryFee()": "cc32d176",
					"treasuryWallet()": "4626402b"
				}
			},
			"storageLayout": {
				"storage": [
					{
						"astId": 128,
						"contract": "contracts/MemeTokenBase/memetoken.sol:MemeTokenTest",
						"label": "_balances",
						"offset": 0,
						"slot": "0",
						"type": "t_mapping(t_address,t_uint256)"
					},
					{
						"astId": 134,
						"contract": "contracts/MemeTokenBase/memetoken.sol:MemeTokenTest",
						"label": "_allowances",
						"offset": 0,
						"slot": "1",
						"type": "t_mapping(t_address,t_mapping(t_address,t_uint256))"
					},
					{
						"astId": 136,
						"contract": "contracts/MemeTokenBase/memetoken.sol:MemeTokenTest",
						"label": "_totalSupply",
						"offset": 0,
						"slot": "2",
						"type": "t_uint256"
					},
					{
						"astId": 138,
						"contract": "contracts/MemeTokenBase/memetoken.sol:MemeTokenTest",
						"label": "_name",
						"offset": 0,
						"slot": "3",
						"type": "t_string_storage"
					},
					{
						"astId": 140,
						"contract": "contracts/MemeTokenBase/memetoken.sol:MemeTokenTest",
						"label": "_symbol",
						"offset": 0,
						"slot": "4",
						"type": "t_string_storage"
					},
					{
						"astId": 7,
						"contract": "contracts/MemeTokenBase/memetoken.sol:MemeTokenTest",
						"label": "_owner",
						"offset": 0,
						"slot": "5",
						"type": "t_address"
					},
					{
						"astId": 834,
						"contract": "contracts/MemeTokenBase/memetoken.sol:MemeTokenTest",
						"label": "liquidityWallet",
						"offset": 0,
						"slot": "6",
						"type": "t_address"
					},
					{
						"astId": 836,
						"contract": "contracts/MemeTokenBase/memetoken.sol:MemeTokenTest",
						"label": "treasuryWallet",
						"offset": 0,
						"slot": "7",
						"type": "t_address"
					},
					{
						"astId": 853,
						"contract": "contracts/MemeTokenBase/memetoken.sol:MemeTokenTest",
						"label": "liquidityFee",
						"offset": 0,
						"slot": "8",
						"type": "t_uint256"
					},
					{
						"astId": 856,
						"contract": "contracts/MemeTokenBase/memetoken.sol:MemeTokenTest",
						"label": "treasuryFee",
						"offset": 0,
						"slot": "9",
						"type": "t_uint256"
					},
					{
						"astId": 859,
						"contract": "contracts/MemeTokenBase/memetoken.sol:MemeTokenTest",
						"label": "sellFee",
						"offset": 0,
						"slot": "10",
						"type": "t_uint256"
					},
					{
						"astId": 862,
						"contract": "contracts/MemeTokenBase/memetoken.sol:MemeTokenTest",
						"label": "burnRate",
						"offset": 0,
						"slot": "11",
						"type": "t_uint256"
					}
				],
				"types": {
					"t_address": {
						"encoding": "inplace",
						"label": "address",
						"numberOfBytes": "20"
					},
					"t_mapping(t_address,t_mapping(t_address,t_uint256))": {
						"encoding": "mapping",
						"key": "t_address",
						"label": "mapping(address => mapping(address => uint256))",
						"numberOfBytes": "32",
						"value": "t_mapping(t_address,t_uint256)"
					},
					"t_mapping(t_address,t_uint256)": {
						"encoding": "mapping",
						"key": "t_address",
						"label": "mapping(address => uint256)",
						"numberOfBytes": "32",
						"value": "t_uint256"
					},
					"t_string_storage": {
						"encoding": "bytes",
						"label": "string",
						"numberOfBytes": "32"
					},
					"t_uint256": {
						"encoding": "inplace",
						"label": "uint256",
						"numberOfBytes": "32"
					}
				}
			},
			"userdoc": {
				"kind": "user",
				"methods": {},
				"version": 1
			}
		}
	}
}