{
	"contracts/memetoken.sol": {
		"DeflationaryToken": {
			"abi": [
				{
					"inputs": [],
					"stateMutability": "nonpayable",
					"type": "constructor"
				},
				{
					"anonymous": false,
					"inputs": [
						{
							"indexed": true,
							"internalType": "address",
							"name": "owner",
							"type": "address"
						},
						{
							"indexed": true,
							"internalType": "address",
							"name": "spender",
							"type": "address"
						},
						{
							"indexed": false,
							"internalType": "uint256",
							"name": "value",
							"type": "uint256"
						}
					],
					"name": "Approval",
					"type": "event"
				},
				{
					"anonymous": false,
					"inputs": [
						{
							"indexed": true,
							"internalType": "address",
							"name": "from",
							"type": "address"
						},
						{
							"indexed": true,
							"internalType": "address",
							"name": "to",
							"type": "address"
						},
						{
							"indexed": false,
							"internalType": "uint256",
							"name": "value",
							"type": "uint256"
						}
					],
					"name": "Transfer",
					"type": "event"
				},
				{
					"inputs": [
						{
							"internalType": "address",
							"name": "owner",
							"type": "address"
						},
						{
							"internalType": "address",
							"name": "spender",
							"type": "address"
						}
					],
					"name": "allowance",
					"outputs": [
						{
							"internalType": "uint256",
							"name": "",
							"type": "uint256"
						}
					],
					"stateMutability": "view",
					"type": "function"
				},
				{
					"inputs": [
						{
							"internalType": "address",
							"name": "spender",
							"type": "address"
						},
						{
							"internalType": "uint256",
							"name": "amount",
							"type": "uint256"
						}
					],
					"name": "approve",
					"outputs": [
						{
							"internalType": "bool",
							"name": "",
							"type": "bool"
						}
					],
					"stateMutability": "nonpayable",
					"type": "function"
				},
				{
					"inputs": [
						{
							"internalType": "address",
							"name": "account",
							"type": "address"
						}
					],
					"name": "balanceOf",
					"outputs": [
						{
							"internalType": "uint256",
							"name": "",
							"type": "uint256"
						}
					],
					"stateMutability": "view",
					"type": "function"
				},
				{
					"inputs": [],
					"name": "burnAddress1",
					"outputs": [
						{
							"internalType": "address",
							"name": "",
							"type": "address"
						}
					],
					"stateMutability": "view",
					"type": "function"
				},
				{
					"inputs": [],
					"name": "burnAddress2",
					"outputs": [
						{
							"internalType": "address",
							"name": "",
							"type": "address"
						}
					],
					"stateMutability": "view",
					"type": "function"
				},
				{
					"inputs": [],
					"name": "burnRate",
					"outputs": [
						{
							"internalType": "uint256",
							"name": "",
							"type": "uint256"
						}
					],
					"stateMutability": "view",
					"type": "function"
				},
				{
					"inputs": [],
					"name": "decimals",
					"outputs": [
						{
							"internalType": "uint8",
							"name": "",
							"type": "uint8"
						}
					],
					"stateMutability": "view",
					"type": "function"
				},
				{
					"inputs": [],
					"name": "liquidityFee",
					"outputs": [
						{
							"internalType": "uint256",
							"name": "",
							"type": "uint256"
						}
					],
					"stateMutability": "view",
					"type": "function"
				},
				{
					"inputs": [],
					"name": "liquidityWallet",
					"outputs": [
						{
							"internalType": "address",
							"name": "",
							"type": "address"
						}
					],
					"stateMutability": "view",
					"type": "function"
				},
				{
					"inputs": [],
					"name": "name",
					"outputs": [
						{
							"internalType": "string",
							"name": "",
							"type": "string"
						}
					],
					"stateMutability": "view",
					"type": "function"
				},
				{
					"inputs": [],
					"name": "sellFee",
					"outputs": [
						{
							"internalType": "uint256",
							"name": "",
							"type": "uint256"
						}
					],
					"stateMutability": "view",
					"type": "function"
				},
				{
					"inputs": [],
					"name": "symbol",
					"outputs": [
						{
							"internalType": "string",
							"name": "",
							"type": "string"
						}
					],
					"stateMutability": "view",
					"type": "function"
				},
				{
					"inputs": [],
					"name": "totalSupply",
					"outputs": [
						{
							"internalType": "uint256",
							"name": "",
							"type": "uint256"
						}
					],
					"stateMutability": "view",
					"type": "function"
				},
				{
					"inputs": [
						{
							"internalType": "address",
							"name": "recipient",
							"type": "address"
						},
						{
							"internalType": "uint256",
							"name": "amount",
							"type": "uint256"
						}
					],
					"name": "transfer",
					"outputs": [
						{
							"internalType": "bool",
							"name": "",
							"type": "bool"
						}
					],
					"stateMutability": "nonpayable",
					"type": "function"
				},
				{
					"inputs": [
						{
							"internalType": "address",
							"name": "sender",
							"type": "address"
						},
						{
							"internalType": "address",
							"name": "recipient",
							"type": "address"
						},
						{
							"internalType": "uint256",
							"name": "amount",
							"type": "uint256"
						}
					],
					"name": "transferFrom",
					"outputs": [
						{
							"internalType": "bool",
							"name": "",
							"type": "bool"
						}
					],
					"stateMutability": "nonpayable",
					"type": "function"
				},
				{
					"inputs": [],
					"name": "treasuryFee",
					"outputs": [
						{
							"internalType": "uint256",
							"name": "",
							"type": "uint256"
						}
					],
					"stateMutability": "view",
					"type": "function"
				},
				{
					"inputs": [],
					"name": "treasuryWallet",
					"outputs": [
						{
							"internalType": "address",
							"name": "",
							"type": "address"
						}
					],
					"stateMutability": "view",
					"type": "function"
				}
			],
			"devdoc": {
				"kind": "dev",
				"methods": {
					"allowance(address,address)": {
						"details": "Returns the remaining number of tokens that `spender` will be allowed to spend on behalf of `owner` through {transferFrom}. This is zero by default. This value changes when {approve} or {transferFrom} are called."
					},
					"approve(address,uint256)": {
						"details": "Sets `amount` as the allowance of `spender` over the caller's tokens. Returns a boolean value indicating whether the operation succeeded. IMPORTANT: Beware that changing an allowance with this method brings the risk that someone may use both the old and the new allowance by unfortunate transaction ordering. One possible solution to mitigate this race condition is to first reduce the spender's allowance to 0 and set the desired value afterwards: https://github.com/ethereum/EIPs/issues/20#issuecomment-263524729 Emits an {Approval} event."
					},
					"balanceOf(address)": {
						"details": "Returns the amount of tokens owned by `account`."
					},
					"totalSupply()": {
						"details": "Returns the amount of tokens in existence."
					}
				},
				"version": 1
			},
			"evm": {
				"assembly": "    /* \"contracts/memetoken.sol\":233:4593  contract DeflationaryToken is IERC20 {\r... */\n  mstore(0x40, 0x80)\n    /* \"contracts/memetoken.sol\":658:677  1000000000 * 10**18 */\n  0x033b2e3c9fd0803ce8000000\n    /* \"contracts/memetoken.sol\":627:677  uint256 private _totalSupply = 1000000000 * 10**18 */\n  0x02\n  sstore\n    /* \"contracts/memetoken.sol\":1229:1371  constructor () {\r... */\n  callvalue\n  dup1\n  iszero\n  tag_1\n  jumpi\n  0x00\n  dup1\n  revert\ntag_1:\n  pop\n    /* \"contracts/memetoken.sol\":1284:1296  _totalSupply */\n  sload(0x02)\n    /* \"contracts/memetoken.sol\":904:946  0x2C604d9E15e6524F0bB2a2A22F63a7Ca041e84C3 */\n  0x2c604d9e15e6524f0bb2a2a22f63a7ca041e84c3\n    /* \"contracts/memetoken.sol\":1255:1264  _balances */\n  0x00\n    /* \"contracts/memetoken.sol\":1255:1281  _balances[liquidityWallet] */\n  dup2\n  dup2\n  mstore\n  0x20\n  dup2\n  dup2\n  mstore\n  0xb7a07c5f0332c350d219d103c30b3f8d55a382aeeef7f1ba4f6d049e5d945968\n    /* \"contracts/memetoken.sol\":1255:1296  _balances[liquidityWallet] = _totalSupply */\n  dup5\n  swap1\n  sstore\n    /* \"contracts/memetoken.sol\":1255:1281  _balances[liquidityWallet] */\n  0x40\n    /* \"contracts/memetoken.sol\":1312:1363  Transfer(address(0), liquidityWallet, _totalSupply) */\n  mload\n    /* \"#utility.yul\":160:185   */\n  swap4\n  dup5\n  mstore\n    /* \"contracts/memetoken.sol\":904:946  0x2C604d9E15e6524F0bB2a2A22F63a7Ca041e84C3 */\n  swap2\n  swap3\n    /* \"contracts/memetoken.sol\":1255:1264  _balances */\n  swap1\n  swap2\n    /* \"contracts/memetoken.sol\":1312:1363  Transfer(address(0), liquidityWallet, _totalSupply) */\n  0xddf252ad1be2c89b69c2b068fc378daa952ba7f163c4a11628f55a4df523b3ef\n  swap2\n    /* \"#utility.yul\":133:151   */\n  add\n    /* \"contracts/memetoken.sol\":1312:1363  Transfer(address(0), liquidityWallet, _totalSupply) */\n  mload(0x40)\n  dup1\n  swap2\n  sub\n  swap1\n  log3\n    /* \"contracts/memetoken.sol\":233:4593  contract DeflationaryToken is IERC20 {\r... */\n  dataSize(sub_0)\n  dup1\n  dataOffset(sub_0)\n  0x00\n  codecopy\n  0x00\n  return\nstop\n\nsub_0: assembly {\n        /* \"contracts/memetoken.sol\":233:4593  contract DeflationaryToken is IERC20 {\r... */\n      mstore(0x40, 0x80)\n      callvalue\n      dup1\n      iszero\n      tag_1\n      jumpi\n      0x00\n      dup1\n      revert\n    tag_1:\n      pop\n      jumpi(tag_2, lt(calldatasize, 0x04))\n      shr(0xe0, calldataload(0x00))\n      dup1\n      0x472a0b2a\n      gt\n      tag_20\n      jumpi\n      dup1\n      0xa9059cbb\n      gt\n      tag_21\n      jumpi\n      dup1\n      0xa9059cbb\n      eq\n      tag_15\n      jumpi\n      dup1\n      0xbed99850\n      eq\n      tag_7\n      jumpi\n      dup1\n      0xcc32d176\n      eq\n      tag_17\n      jumpi\n      dup1\n      0xd4698016\n      eq\n      tag_18\n      jumpi\n      dup1\n      0xdd62ed3e\n      eq\n      tag_19\n      jumpi\n      jump(tag_2)\n    tag_21:\n      dup1\n      0x472a0b2a\n      eq\n      tag_11\n      jumpi\n      dup1\n      0x70a08231\n      eq\n      tag_12\n      jumpi\n      dup1\n      0x95d89b41\n      eq\n      tag_13\n      jumpi\n      dup1\n      0x98118cb4\n      eq\n      tag_14\n      jumpi\n      jump(tag_2)\n    tag_20:\n      dup1\n      0x2b14ca56\n      gt\n      tag_22\n      jumpi\n      dup1\n      0x2b14ca56\n      eq\n      tag_7\n      jumpi\n      dup1\n      0x311e6703\n      eq\n      tag_8\n      jumpi\n      dup1\n      0x313ce567\n      eq\n      tag_9\n      jumpi\n      dup1\n      0x4626402b\n      eq\n      tag_10\n      jumpi\n      jump(tag_2)\n    tag_22:\n      dup1\n      0x06fdde03\n      eq\n      tag_3\n      jumpi\n      dup1\n      0x095ea7b3\n      eq\n      tag_4\n      jumpi\n      dup1\n      0x18160ddd\n      eq\n      tag_5\n      jumpi\n      dup1\n      0x23b872dd\n      eq\n      tag_6\n      jumpi\n    tag_2:\n      0x00\n      dup1\n      revert\n        /* \"contracts/memetoken.sol\":344:401  string public constant name = \"[TEST] Deflationary Token\" */\n    tag_3:\n      tag_23\n      mload(0x40)\n      dup1\n      0x40\n      add\n      0x40\n      mstore\n      dup1\n      0x19\n      dup2\n      mstore\n      0x20\n      add\n      0x5b544553545d204465666c6174696f6e61727920546f6b656e00000000000000\n      dup2\n      mstore\n      pop\n      dup2\n      jump\n    tag_23:\n      mload(0x40)\n      tag_25\n      swap2\n      swap1\n      tag_26\n      jump\t// in\n    tag_25:\n      mload(0x40)\n      dup1\n      swap2\n      sub\n      swap1\n      return\n        /* \"contracts/memetoken.sol\":2014:2183  function approve(address spender, uint256 amount) public virtual override returns (bool) {\r... */\n    tag_4:\n      tag_27\n      tag_28\n      calldatasize\n      0x04\n      tag_29\n      jump\t// in\n    tag_28:\n      tag_30\n      jump\t// in\n    tag_27:\n      mload(0x40)\n        /* \"#utility.yul\":1653:1667   */\n      swap1\n      iszero\n        /* \"#utility.yul\":1646:1668   */\n      iszero\n        /* \"#utility.yul\":1628:1669   */\n      dup2\n      mstore\n        /* \"#utility.yul\":1616:1618   */\n      0x20\n        /* \"#utility.yul\":1601:1619   */\n      add\n        /* \"contracts/memetoken.sol\":2014:2183  function approve(address spender, uint256 amount) public virtual override returns (bool) {\r... */\n      tag_25\n        /* \"#utility.yul\":1583:1675   */\n      jump\n        /* \"contracts/memetoken.sol\":1379:1537  function totalSupply() public view override returns (uint256) {\r... */\n    tag_5:\n      tag_33\n      tag_34\n      jump\t// in\n    tag_33:\n      mload(0x40)\n        /* \"#utility.yul\":4053:4078   */\n      swap1\n      dup2\n      mstore\n        /* \"#utility.yul\":4041:4043   */\n      0x20\n        /* \"#utility.yul\":4026:4044   */\n      add\n        /* \"contracts/memetoken.sol\":1379:1537  function totalSupply() public view override returns (uint256) {\r... */\n      tag_25\n        /* \"#utility.yul\":4008:4084   */\n      jump\n        /* \"contracts/memetoken.sol\":2191:2468  function transferFrom(address sender, address recipient, uint256 amount) public virtual override returns (bool) {\r... */\n    tag_6:\n      tag_27\n      tag_38\n      calldatasize\n      0x04\n      tag_39\n      jump\t// in\n    tag_38:\n      tag_40\n      jump\t// in\n        /* \"contracts/memetoken.sol\":1140:1176  uint256 public constant sellFee = 30 */\n    tag_7:\n      tag_33\n        /* \"contracts/memetoken.sol\":1174:1176  30 */\n      0x1e\n        /* \"contracts/memetoken.sol\":1140:1176  uint256 public constant sellFee = 30 */\n      dup2\n      jump\n        /* \"contracts/memetoken.sol\":774:855  address public constant burnAddress2 = 0x0000000000000000000000000000000000000000 */\n    tag_8:\n      tag_45\n        /* \"contracts/memetoken.sol\":813:855  0x0000000000000000000000000000000000000000 */\n      0x00\n        /* \"contracts/memetoken.sol\":774:855  address public constant burnAddress2 = 0x0000000000000000000000000000000000000000 */\n      dup2\n      jump\n    tag_45:\n      mload(0x40)\n      sub(shl(0xa0, 0x01), 0x01)\n        /* \"#utility.yul\":1444:1476   */\n      swap1\n      swap2\n      and\n        /* \"#utility.yul\":1426:1477   */\n      dup2\n      mstore\n        /* \"#utility.yul\":1414:1416   */\n      0x20\n        /* \"#utility.yul\":1399:1417   */\n      add\n        /* \"contracts/memetoken.sol\":774:855  address public constant burnAddress2 = 0x0000000000000000000000000000000000000000 */\n      tag_25\n        /* \"#utility.yul\":1381:1483   */\n      jump\n        /* \"contracts/memetoken.sol\":454:489  uint8 public constant decimals = 18 */\n    tag_9:\n      tag_49\n        /* \"contracts/memetoken.sol\":487:489  18 */\n      0x12\n        /* \"contracts/memetoken.sol\":454:489  uint8 public constant decimals = 18 */\n      dup2\n      jump\n    tag_49:\n      mload(0x40)\n        /* \"#utility.yul\":4261:4265   */\n      0xff\n        /* \"#utility.yul\":4249:4266   */\n      swap1\n      swap2\n      and\n        /* \"#utility.yul\":4231:4267   */\n      dup2\n      mstore\n        /* \"#utility.yul\":4219:4221   */\n      0x20\n        /* \"#utility.yul\":4204:4222   */\n      add\n        /* \"contracts/memetoken.sol\":454:489  uint8 public constant decimals = 18 */\n      tag_25\n        /* \"#utility.yul\":4186:4273   */\n      jump\n        /* \"contracts/memetoken.sol\":953:1036  address public constant treasuryWallet = 0xcC5e043C5142033a800A72286356317dAcb57A77 */\n    tag_10:\n      tag_45\n        /* \"contracts/memetoken.sol\":994:1036  0xcC5e043C5142033a800A72286356317dAcb57A77 */\n      0xcc5e043c5142033a800a72286356317dacb57a77\n        /* \"contracts/memetoken.sol\":953:1036  address public constant treasuryWallet = 0xcC5e043C5142033a800A72286356317dAcb57A77 */\n      dup2\n      jump\n        /* \"contracts/memetoken.sol\":686:767  address public constant burnAddress1 = 0x000000000000000000000000000000000000dEaD */\n    tag_11:\n      tag_45\n        /* \"contracts/memetoken.sol\":725:767  0x000000000000000000000000000000000000dEaD */\n      0xdead\n        /* \"contracts/memetoken.sol\":686:767  address public constant burnAddress1 = 0x000000000000000000000000000000000000dEaD */\n      dup2\n      jump\n        /* \"contracts/memetoken.sol\":1545:1664  function balanceOf(address account) public view override returns (uint256) {\r... */\n    tag_12:\n      tag_33\n      tag_60\n      calldatasize\n      0x04\n      tag_61\n      jump\t// in\n    tag_60:\n      tag_62\n      jump\t// in\n        /* \"contracts/memetoken.sol\":408:447  string public constant symbol = \"DFT04\" */\n    tag_13:\n      tag_23\n      mload(0x40)\n      dup1\n      0x40\n      add\n      0x40\n      mstore\n      dup1\n      0x05\n      dup2\n      mstore\n      0x20\n      add\n      shl(0xda, 0x1111950c0d)\n      dup2\n      mstore\n      pop\n      dup2\n      jump\n        /* \"contracts/memetoken.sol\":1045:1086  uint256 public constant liquidityFee = 50 */\n    tag_14:\n      tag_33\n        /* \"contracts/memetoken.sol\":1084:1086  50 */\n      0x32\n        /* \"contracts/memetoken.sol\":1045:1086  uint256 public constant liquidityFee = 50 */\n      dup2\n      jump\n        /* \"contracts/memetoken.sol\":1672:1847  function transfer(address recipient, uint256 amount) public virtual override returns (bool) {\r... */\n    tag_15:\n      tag_27\n      tag_71\n      calldatasize\n      0x04\n      tag_29\n      jump\t// in\n    tag_71:\n      tag_72\n      jump\t// in\n        /* \"contracts/memetoken.sol\":1093:1133  uint256 public constant treasuryFee = 90 */\n    tag_17:\n      tag_33\n        /* \"contracts/memetoken.sol\":1131:1133  90 */\n      0x5a\n        /* \"contracts/memetoken.sol\":1093:1133  uint256 public constant treasuryFee = 90 */\n      dup2\n      jump\n        /* \"contracts/memetoken.sol\":862:946  address public constant liquidityWallet = 0x2C604d9E15e6524F0bB2a2A22F63a7Ca041e84C3 */\n    tag_18:\n      tag_45\n        /* \"contracts/memetoken.sol\":904:946  0x2C604d9E15e6524F0bB2a2A22F63a7Ca041e84C3 */\n      0x2c604d9e15e6524f0bb2a2a22f63a7ca041e84c3\n        /* \"contracts/memetoken.sol\":862:946  address public constant liquidityWallet = 0x2C604d9E15e6524F0bB2a2A22F63a7Ca041e84C3 */\n      dup2\n      jump\n        /* \"contracts/memetoken.sol\":1855:2006  function allowance(address owner, address spender) public view virtual override returns (uint256) {\r... */\n    tag_19:\n      tag_33\n      tag_84\n      calldatasize\n      0x04\n      tag_85\n      jump\t// in\n    tag_84:\n      sub(shl(0xa0, 0x01), 0x01)\n        /* \"contracts/memetoken.sol\":1971:1989  _allowances[owner] */\n      swap2\n      dup3\n      and\n        /* \"contracts/memetoken.sol\":1944:1951  uint256 */\n      0x00\n        /* \"contracts/memetoken.sol\":1971:1989  _allowances[owner] */\n      swap1\n      dup2\n      mstore\n        /* \"contracts/memetoken.sol\":1971:1982  _allowances */\n      0x01\n        /* \"contracts/memetoken.sol\":1971:1989  _allowances[owner] */\n      0x20\n      swap1\n      dup2\n      mstore\n      0x40\n      dup1\n      dup4\n      keccak256\n        /* \"contracts/memetoken.sol\":1971:1998  _allowances[owner][spender] */\n      swap4\n      swap1\n      swap5\n      and\n      dup3\n      mstore\n      swap2\n      swap1\n      swap2\n      mstore\n      keccak256\n      sload\n      swap1\n        /* \"contracts/memetoken.sol\":1855:2006  function allowance(address owner, address spender) public view virtual override returns (uint256) {\r... */\n      jump\n        /* \"contracts/memetoken.sol\":2014:2183  function approve(address spender, uint256 amount) public virtual override returns (bool) {\r... */\n    tag_30:\n        /* \"contracts/memetoken.sol\":2097:2101  bool */\n      0x00\n        /* \"contracts/memetoken.sol\":2114:2153  _approve(_msgSender(), spender, amount) */\n      tag_89\n        /* \"contracts/memetoken.sol\":4572:4582  msg.sender */\n      caller\n        /* \"contracts/memetoken.sol\":2137:2144  spender */\n      dup5\n        /* \"contracts/memetoken.sol\":2146:2152  amount */\n      dup5\n        /* \"contracts/memetoken.sol\":2114:2122  _approve */\n      tag_92\n        /* \"contracts/memetoken.sol\":2114:2153  _approve(_msgSender(), spender, amount) */\n      jump\t// in\n    tag_89:\n      pop\n        /* \"contracts/memetoken.sol\":2171:2175  true */\n      0x01\n        /* \"contracts/memetoken.sol\":2014:2183  function approve(address spender, uint256 amount) public virtual override returns (bool) {\r... */\n      swap3\n      swap2\n      pop\n      pop\n      jump\t// out\n        /* \"contracts/memetoken.sol\":1379:1537  function totalSupply() public view override returns (uint256) {\r... */\n    tag_34:\n        /* \"contracts/memetoken.sol\":1432:1439  uint256 */\n      0x00\n        /* \"contracts/memetoken.sol\":1505:1528  _balances[burnAddress2] */\n      0x20\n      dup2\n      swap1\n      mstore\n      sload(0xad3228b676f7d3cd4284a5443f17f1962b36e491b30a40b2405849e597ba5fb5)\n        /* \"contracts/memetoken.sol\":725:767  0x000000000000000000000000000000000000dEaD */\n      0xdead\n        /* \"contracts/memetoken.sol\":1476:1499  _balances[burnAddress1] */\n      dup3\n      mstore\n      sload(0x44ad89ba62b98ff34f51403ac22759b55759460c0bb5521eb4b6ee3cff49cf83)\n        /* \"contracts/memetoken.sol\":1459:1471  _totalSupply */\n      sload(0x02)\n        /* \"contracts/memetoken.sol\":1459:1529  _totalSupply.sub(_balances[burnAddress1]).sub(_balances[burnAddress2]) */\n      tag_94\n      swap3\n        /* \"contracts/memetoken.sol\":1505:1528  _balances[burnAddress2] */\n      swap2\n        /* \"contracts/memetoken.sol\":1459:1500  _totalSupply.sub(_balances[burnAddress1]) */\n      tag_95\n      swap2\n        /* \"contracts/memetoken.sol\":1459:1471  _totalSupply */\n      swap1\n        /* \"contracts/memetoken.sol\":1459:1475  _totalSupply.sub */\n      tag_96\n        /* \"contracts/memetoken.sol\":1459:1500  _totalSupply.sub(_balances[burnAddress1]) */\n      jump\t// in\n    tag_95:\n        /* \"contracts/memetoken.sol\":1459:1504  _totalSupply.sub(_balances[burnAddress1]).sub */\n      swap1\n      tag_96\n        /* \"contracts/memetoken.sol\":1459:1529  _totalSupply.sub(_balances[burnAddress1]).sub(_balances[burnAddress2]) */\n      jump\t// in\n    tag_94:\n        /* \"contracts/memetoken.sol\":1452:1529  return _totalSupply.sub(_balances[burnAddress1]).sub(_balances[burnAddress2]) */\n      swap1\n      pop\n        /* \"contracts/memetoken.sol\":1379:1537  function totalSupply() public view override returns (uint256) {\r... */\n      swap1\n      jump\t// out\n        /* \"contracts/memetoken.sol\":2191:2468  function transferFrom(address sender, address recipient, uint256 amount) public virtual override returns (bool) {\r... */\n    tag_40:\n        /* \"contracts/memetoken.sol\":2297:2301  bool */\n      0x00\n        /* \"contracts/memetoken.sol\":2314:2350  _transfer(sender, recipient, amount) */\n      tag_98\n        /* \"contracts/memetoken.sol\":2324:2330  sender */\n      dup5\n        /* \"contracts/memetoken.sol\":2332:2341  recipient */\n      dup5\n        /* \"contracts/memetoken.sol\":2343:2349  amount */\n      dup5\n        /* \"contracts/memetoken.sol\":2314:2323  _transfer */\n      tag_99\n        /* \"contracts/memetoken.sol\":2314:2350  _transfer(sender, recipient, amount) */\n      jump\t// in\n    tag_98:\n      sub(shl(0xa0, 0x01), 0x01)\n        /* \"contracts/memetoken.sol\":2392:2411  _allowances[sender] */\n      dup5\n      and\n      0x00\n      swap1\n      dup2\n      mstore\n        /* \"contracts/memetoken.sol\":2392:2403  _allowances */\n      0x01\n        /* \"contracts/memetoken.sol\":2392:2411  _allowances[sender] */\n      0x20\n      swap1\n      dup2\n      mstore\n      0x40\n      dup1\n      dup4\n      keccak256\n        /* \"contracts/memetoken.sol\":4572:4582  msg.sender */\n      caller\n        /* \"contracts/memetoken.sol\":2392:2425  _allowances[sender][_msgSender()] */\n      dup1\n      dup6\n      mstore\n      swap3\n      mstore\n      swap1\n      swap2\n      keccak256\n      sload\n        /* \"contracts/memetoken.sol\":2361:2438  _approve(sender, _msgSender(), _allowances[sender][_msgSender()].sub(amount)) */\n      tag_100\n      swap2\n        /* \"contracts/memetoken.sol\":2370:2376  sender */\n      dup7\n      swap2\n        /* \"contracts/memetoken.sol\":2392:2437  _allowances[sender][_msgSender()].sub(amount) */\n      tag_102\n      swap1\n        /* \"contracts/memetoken.sol\":2430:2436  amount */\n      dup7\n        /* \"contracts/memetoken.sol\":2392:2429  _allowances[sender][_msgSender()].sub */\n      tag_96\n        /* \"contracts/memetoken.sol\":2392:2437  _allowances[sender][_msgSender()].sub(amount) */\n      jump\t// in\n    tag_102:\n        /* \"contracts/memetoken.sol\":2361:2369  _approve */\n      tag_92\n        /* \"contracts/memetoken.sol\":2361:2438  _approve(sender, _msgSender(), _allowances[sender][_msgSender()].sub(amount)) */\n      jump\t// in\n    tag_100:\n      pop\n        /* \"contracts/memetoken.sol\":2456:2460  true */\n      0x01\n        /* \"contracts/memetoken.sol\":2191:2468  function transferFrom(address sender, address recipient, uint256 amount) public virtual override returns (bool) {\r... */\n      swap4\n      swap3\n      pop\n      pop\n      pop\n      jump\t// out\n        /* \"contracts/memetoken.sol\":1545:1664  function balanceOf(address account) public view override returns (uint256) {\r... */\n    tag_62:\n      sub(shl(0xa0, 0x01), 0x01)\n        /* \"contracts/memetoken.sol\":1638:1656  _balances[account] */\n      dup2\n      and\n        /* \"contracts/memetoken.sol\":1611:1618  uint256 */\n      0x00\n        /* \"contracts/memetoken.sol\":1638:1656  _balances[account] */\n      swap1\n      dup2\n      mstore\n      0x20\n      dup2\n      swap1\n      mstore\n      0x40\n      swap1\n      keccak256\n      sload\n        /* \"contracts/memetoken.sol\":1545:1664  function balanceOf(address account) public view override returns (uint256) {\r... */\n    tag_104:\n      swap2\n      swap1\n      pop\n      jump\t// out\n        /* \"contracts/memetoken.sol\":1672:1847  function transfer(address recipient, uint256 amount) public virtual override returns (bool) {\r... */\n    tag_72:\n        /* \"contracts/memetoken.sol\":1758:1762  bool */\n      0x00\n        /* \"contracts/memetoken.sol\":1775:1817  _transfer(_msgSender(), recipient, amount) */\n      tag_89\n        /* \"contracts/memetoken.sol\":4572:4582  msg.sender */\n      caller\n        /* \"contracts/memetoken.sol\":1799:1808  recipient */\n      dup5\n        /* \"contracts/memetoken.sol\":1810:1816  amount */\n      dup5\n        /* \"contracts/memetoken.sol\":1775:1784  _transfer */\n      tag_99\n        /* \"contracts/memetoken.sol\":1775:1817  _transfer(_msgSender(), recipient, amount) */\n      jump\t// in\n        /* \"contracts/memetoken.sol\":4138:4484  function _approve(address owner, address spender, uint256 amount) internal virtual {\r... */\n    tag_92:\n      sub(shl(0xa0, 0x01), 0x01)\n        /* \"contracts/memetoken.sol\":4240:4259  owner != address(0) */\n      dup4\n      and\n        /* \"contracts/memetoken.sol\":4232:4300  require(owner != address(0), \"ERC20: approve from the zero address\") */\n      tag_111\n      jumpi\n      mload(0x40)\n      shl(0xe5, 0x461bcd)\n      dup2\n      mstore\n        /* \"#utility.yul\":3704:3706   */\n      0x20\n        /* \"contracts/memetoken.sol\":4232:4300  require(owner != address(0), \"ERC20: approve from the zero address\") */\n      0x04\n      dup3\n      add\n        /* \"#utility.yul\":3686:3707   */\n      mstore\n        /* \"#utility.yul\":3743:3745   */\n      0x24\n        /* \"#utility.yul\":3723:3741   */\n      dup1\n      dup3\n      add\n        /* \"#utility.yul\":3716:3746   */\n      mstore\n        /* \"#utility.yul\":3782:3816   */\n      0x45524332303a20617070726f76652066726f6d20746865207a65726f20616464\n        /* \"#utility.yul\":3762:3780   */\n      0x44\n      dup3\n      add\n        /* \"#utility.yul\":3755:3817   */\n      mstore\n      shl(0xe0, 0x72657373)\n        /* \"#utility.yul\":3833:3851   */\n      0x64\n      dup3\n      add\n        /* \"#utility.yul\":3826:3860   */\n      mstore\n        /* \"#utility.yul\":3877:3896   */\n      0x84\n      add\n        /* \"contracts/memetoken.sol\":4232:4300  require(owner != address(0), \"ERC20: approve from the zero address\") */\n    tag_112:\n      mload(0x40)\n      dup1\n      swap2\n      sub\n      swap1\n      revert\n    tag_111:\n      sub(shl(0xa0, 0x01), 0x01)\n        /* \"contracts/memetoken.sol\":4319:4340  spender != address(0) */\n      dup3\n      and\n        /* \"contracts/memetoken.sol\":4311:4379  require(spender != address(0), \"ERC20: approve to the zero address\") */\n      tag_114\n      jumpi\n      mload(0x40)\n      shl(0xe5, 0x461bcd)\n      dup2\n      mstore\n        /* \"#utility.yul\":2894:2896   */\n      0x20\n        /* \"contracts/memetoken.sol\":4311:4379  require(spender != address(0), \"ERC20: approve to the zero address\") */\n      0x04\n      dup3\n      add\n        /* \"#utility.yul\":2876:2897   */\n      mstore\n        /* \"#utility.yul\":2933:2935   */\n      0x22\n        /* \"#utility.yul\":2913:2931   */\n      0x24\n      dup3\n      add\n        /* \"#utility.yul\":2906:2936   */\n      mstore\n        /* \"#utility.yul\":2972:3006   */\n      0x45524332303a20617070726f766520746f20746865207a65726f206164647265\n        /* \"#utility.yul\":2952:2970   */\n      0x44\n      dup3\n      add\n        /* \"#utility.yul\":2945:3007   */\n      mstore\n      shl(0xf0, 0x7373)\n        /* \"#utility.yul\":3023:3041   */\n      0x64\n      dup3\n      add\n        /* \"#utility.yul\":3016:3048   */\n      mstore\n        /* \"#utility.yul\":3065:3084   */\n      0x84\n      add\n        /* \"contracts/memetoken.sol\":4311:4379  require(spender != address(0), \"ERC20: approve to the zero address\") */\n      tag_112\n        /* \"#utility.yul\":2866:3090   */\n      jump\n        /* \"contracts/memetoken.sol\":4311:4379  require(spender != address(0), \"ERC20: approve to the zero address\") */\n    tag_114:\n      sub(shl(0xa0, 0x01), 0x01)\n        /* \"contracts/memetoken.sol\":4392:4410  _allowances[owner] */\n      dup4\n      dup2\n      and\n      0x00\n      dup2\n      dup2\n      mstore\n        /* \"contracts/memetoken.sol\":4392:4403  _allowances */\n      0x01\n        /* \"contracts/memetoken.sol\":4392:4410  _allowances[owner] */\n      0x20\n      swap1\n      dup2\n      mstore\n      0x40\n      dup1\n      dup4\n      keccak256\n        /* \"contracts/memetoken.sol\":4392:4419  _allowances[owner][spender] */\n      swap5\n      dup8\n      and\n      dup1\n      dup5\n      mstore\n      swap5\n      dup3\n      mstore\n      swap2\n      dup3\n      swap1\n      keccak256\n        /* \"contracts/memetoken.sol\":4392:4428  _allowances[owner][spender] = amount */\n      dup6\n      swap1\n      sstore\n        /* \"contracts/memetoken.sol\":4444:4476  Approval(owner, spender, amount) */\n      swap1\n      mload\n        /* \"#utility.yul\":4053:4078   */\n      dup5\n      dup2\n      mstore\n        /* \"contracts/memetoken.sol\":4444:4476  Approval(owner, spender, amount) */\n      0x8c5be1e5ebec7d5bd14f71427d1e84f3dd0314c0f7b2291e5b200ac8c7c3b925\n      swap2\n        /* \"#utility.yul\":4026:4044   */\n      add\n        /* \"contracts/memetoken.sol\":4444:4476  Approval(owner, spender, amount) */\n      mload(0x40)\n      dup1\n      swap2\n      sub\n      swap1\n      log3\n        /* \"contracts/memetoken.sol\":4138:4484  function _approve(address owner, address spender, uint256 amount) internal virtual {\r... */\n      pop\n      pop\n      pop\n      jump\t// out\n        /* \"@openzeppelin/contracts/utils/math/SafeMath.sol\":3122:3218  function sub(uint256 a, uint256 b) internal pure returns (uint256) {... */\n    tag_96:\n        /* \"@openzeppelin/contracts/utils/math/SafeMath.sol\":3180:3187  uint256 */\n      0x00\n        /* \"@openzeppelin/contracts/utils/math/SafeMath.sol\":3206:3211  a - b */\n      tag_119\n        /* \"@openzeppelin/contracts/utils/math/SafeMath.sol\":3210:3211  b */\n      dup3\n        /* \"@openzeppelin/contracts/utils/math/SafeMath.sol\":3206:3207  a */\n      dup5\n        /* \"@openzeppelin/contracts/utils/math/SafeMath.sol\":3206:3211  a - b */\n      tag_120\n      jump\t// in\n    tag_119:\n        /* \"@openzeppelin/contracts/utils/math/SafeMath.sol\":3199:3211  return a - b */\n      swap4\n        /* \"@openzeppelin/contracts/utils/math/SafeMath.sol\":3122:3218  function sub(uint256 a, uint256 b) internal pure returns (uint256) {... */\n      swap3\n      pop\n      pop\n      pop\n      jump\t// out\n        /* \"contracts/memetoken.sol\":2476:4130  function _transfer(address sender, address recipient, uint256 amount) internal virtual {\r... */\n    tag_99:\n      sub(shl(0xa0, 0x01), 0x01)\n        /* \"contracts/memetoken.sol\":2582:2605  recipient != address(0) */\n      dup3\n      and\n        /* \"contracts/memetoken.sol\":2574:2645  require(recipient != address(0), \"ERC20: transfer to the zero address\") */\n      tag_122\n      jumpi\n      mload(0x40)\n      shl(0xe5, 0x461bcd)\n      dup2\n      mstore\n        /* \"#utility.yul\":2490:2492   */\n      0x20\n        /* \"contracts/memetoken.sol\":2574:2645  require(recipient != address(0), \"ERC20: transfer to the zero address\") */\n      0x04\n      dup3\n      add\n        /* \"#utility.yul\":2472:2493   */\n      mstore\n        /* \"#utility.yul\":2529:2531   */\n      0x23\n        /* \"#utility.yul\":2509:2527   */\n      0x24\n      dup3\n      add\n        /* \"#utility.yul\":2502:2532   */\n      mstore\n        /* \"#utility.yul\":2568:2602   */\n      0x45524332303a207472616e7366657220746f20746865207a65726f2061646472\n        /* \"#utility.yul\":2548:2566   */\n      0x44\n      dup3\n      add\n        /* \"#utility.yul\":2541:2603   */\n      mstore\n      shl(0xe8, 0x657373)\n        /* \"#utility.yul\":2619:2637   */\n      0x64\n      dup3\n      add\n        /* \"#utility.yul\":2612:2645   */\n      mstore\n        /* \"#utility.yul\":2662:2681   */\n      0x84\n      add\n        /* \"contracts/memetoken.sol\":2574:2645  require(recipient != address(0), \"ERC20: transfer to the zero address\") */\n      tag_112\n        /* \"#utility.yul\":2462:2687   */\n      jump\n        /* \"contracts/memetoken.sol\":2574:2645  require(recipient != address(0), \"ERC20: transfer to the zero address\") */\n    tag_122:\n      sub(shl(0xa0, 0x01), 0x01)\n        /* \"contracts/memetoken.sol\":2682:2699  _balances[sender] */\n      dup4\n      and\n        /* \"contracts/memetoken.sol\":2658:2679  uint256 senderBalance */\n      0x00\n        /* \"contracts/memetoken.sol\":2682:2699  _balances[sender] */\n      swap1\n      dup2\n      mstore\n      0x20\n      dup2\n      swap1\n      mstore\n      0x40\n      swap1\n      keccak256\n      sload\n        /* \"contracts/memetoken.sol\":2718:2741  senderBalance >= amount */\n      dup2\n      dup2\n      lt\n      iszero\n        /* \"contracts/memetoken.sol\":2710:2784  require(senderBalance >= amount, \"ERC20: transfer amount exceeds balance\") */\n      tag_125\n      jumpi\n      mload(0x40)\n      shl(0xe5, 0x461bcd)\n      dup2\n      mstore\n        /* \"#utility.yul\":3297:3299   */\n      0x20\n        /* \"contracts/memetoken.sol\":2710:2784  require(senderBalance >= amount, \"ERC20: transfer amount exceeds balance\") */\n      0x04\n      dup3\n      add\n        /* \"#utility.yul\":3279:3300   */\n      mstore\n        /* \"#utility.yul\":3336:3338   */\n      0x26\n        /* \"#utility.yul\":3316:3334   */\n      0x24\n      dup3\n      add\n        /* \"#utility.yul\":3309:3339   */\n      mstore\n        /* \"#utility.yul\":3375:3409   */\n      0x45524332303a207472616e7366657220616d6f756e7420657863656564732062\n        /* \"#utility.yul\":3355:3373   */\n      0x44\n      dup3\n      add\n        /* \"#utility.yul\":3348:3410   */\n      mstore\n      shl(0xd0, 0x616c616e6365)\n        /* \"#utility.yul\":3426:3444   */\n      0x64\n      dup3\n      add\n        /* \"#utility.yul\":3419:3455   */\n      mstore\n        /* \"#utility.yul\":3472:3491   */\n      0x84\n      add\n        /* \"contracts/memetoken.sol\":2710:2784  require(senderBalance >= amount, \"ERC20: transfer amount exceeds balance\") */\n      tag_112\n        /* \"#utility.yul\":3269:3497   */\n      jump\n        /* \"contracts/memetoken.sol\":2710:2784  require(senderBalance >= amount, \"ERC20: transfer amount exceeds balance\") */\n    tag_125:\n        /* \"contracts/memetoken.sol\":2797:2820  uint256 liquidityAmount */\n      0x00\n        /* \"contracts/memetoken.sol\":2823:2856  amount.mul(liquidityFee).div(100) */\n      tag_128\n        /* \"contracts/memetoken.sol\":2852:2855  100 */\n      0x64\n        /* \"contracts/memetoken.sol\":2823:2847  amount.mul(liquidityFee) */\n      tag_129\n        /* \"contracts/memetoken.sol\":2823:2829  amount */\n      dup6\n        /* \"contracts/memetoken.sol\":1084:1086  50 */\n      0x32\n        /* \"contracts/memetoken.sol\":2823:2833  amount.mul */\n      tag_130\n        /* \"contracts/memetoken.sol\":2823:2847  amount.mul(liquidityFee) */\n      jump\t// in\n    tag_129:\n        /* \"contracts/memetoken.sol\":2823:2851  amount.mul(liquidityFee).div */\n      swap1\n      tag_131\n        /* \"contracts/memetoken.sol\":2823:2856  amount.mul(liquidityFee).div(100) */\n      jump\t// in\n    tag_128:\n        /* \"contracts/memetoken.sol\":2797:2856  uint256 liquidityAmount = amount.mul(liquidityFee).div(100) */\n      swap1\n      pop\n        /* \"contracts/memetoken.sol\":2867:2889  uint256 treasuryAmount */\n      0x00\n        /* \"contracts/memetoken.sol\":2892:2924  amount.mul(treasuryFee).div(100) */\n      tag_132\n        /* \"contracts/memetoken.sol\":2920:2923  100 */\n      0x64\n        /* \"contracts/memetoken.sol\":2892:2915  amount.mul(treasuryFee) */\n      tag_129\n        /* \"contracts/memetoken.sol\":2892:2898  amount */\n      dup7\n        /* \"contracts/memetoken.sol\":1131:1133  90 */\n      0x5a\n        /* \"contracts/memetoken.sol\":2892:2902  amount.mul */\n      tag_130\n        /* \"contracts/memetoken.sol\":2892:2915  amount.mul(treasuryFee) */\n      jump\t// in\n        /* \"contracts/memetoken.sol\":2892:2924  amount.mul(treasuryFee).div(100) */\n    tag_132:\n        /* \"contracts/memetoken.sol\":2867:2924  uint256 treasuryAmount = amount.mul(treasuryFee).div(100) */\n      swap1\n      pop\n        /* \"contracts/memetoken.sol\":2935:2953  uint256 sellAmount */\n      0x00\n      sub(shl(0xa0, 0x01), 0x01)\n        /* \"contracts/memetoken.sol\":2956:2981  recipient == burnAddress1 */\n      dup7\n      and\n        /* \"contracts/memetoken.sol\":725:767  0x000000000000000000000000000000000000dEaD */\n      0xdead\n        /* \"contracts/memetoken.sol\":2956:2981  recipient == burnAddress1 */\n      eq\n      dup1\n        /* \"contracts/memetoken.sol\":2956:3010  recipient == burnAddress1 || recipient == burnAddress2 */\n      tag_134\n      jumpi\n      pop\n      sub(shl(0xa0, 0x01), 0x01)\n        /* \"contracts/memetoken.sol\":2985:3010  recipient == burnAddress2 */\n      dup7\n      and\n      iszero\n        /* \"contracts/memetoken.sol\":2956:3010  recipient == burnAddress1 || recipient == burnAddress2 */\n    tag_134:\n        /* \"contracts/memetoken.sol\":2956:3045  recipient == burnAddress1 || recipient == burnAddress2 ? amount.mul(sellFee).div(100) : 0 */\n      tag_135\n      jumpi\n        /* \"contracts/memetoken.sol\":3044:3045  0 */\n      0x00\n        /* \"contracts/memetoken.sol\":2956:3045  recipient == burnAddress1 || recipient == burnAddress2 ? amount.mul(sellFee).div(100) : 0 */\n      jump(tag_137)\n    tag_135:\n        /* \"contracts/memetoken.sol\":3013:3041  amount.mul(sellFee).div(100) */\n      tag_137\n        /* \"contracts/memetoken.sol\":3037:3040  100 */\n      0x64\n        /* \"contracts/memetoken.sol\":3013:3032  amount.mul(sellFee) */\n      tag_129\n        /* \"contracts/memetoken.sol\":3013:3019  amount */\n      dup8\n        /* \"contracts/memetoken.sol\":1174:1176  30 */\n      0x1e\n        /* \"contracts/memetoken.sol\":3013:3023  amount.mul */\n      tag_130\n        /* \"contracts/memetoken.sol\":3013:3032  amount.mul(sellFee) */\n      jump\t// in\n        /* \"contracts/memetoken.sol\":3013:3041  amount.mul(sellFee).div(100) */\n    tag_137:\n        /* \"contracts/memetoken.sol\":2935:3045  uint256 sellAmount = recipient == burnAddress1 || recipient == burnAddress2 ? amount.mul(sellFee).div(100) : 0 */\n      swap1\n      pop\n        /* \"contracts/memetoken.sol\":3056:3074  uint256 burnAmount */\n      0x00\n        /* \"contracts/memetoken.sol\":3077:3106  amount.mul(burnRate).div(100) */\n      tag_139\n        /* \"contracts/memetoken.sol\":3102:3105  100 */\n      0x64\n        /* \"contracts/memetoken.sol\":3077:3097  amount.mul(burnRate) */\n      tag_129\n        /* \"contracts/memetoken.sol\":3077:3083  amount */\n      dup9\n        /* \"contracts/memetoken.sol\":1218:1220  30 */\n      0x1e\n        /* \"contracts/memetoken.sol\":3077:3087  amount.mul */\n      tag_130\n        /* \"contracts/memetoken.sol\":3077:3097  amount.mul(burnRate) */\n      jump\t// in\n        /* \"contracts/memetoken.sol\":3077:3106  amount.mul(burnRate).div(100) */\n    tag_139:\n        /* \"contracts/memetoken.sol\":3056:3106  uint256 burnAmount = amount.mul(burnRate).div(100) */\n      swap1\n      pop\n        /* \"contracts/memetoken.sol\":3119:3135  uint256 totalFee */\n      0x00\n        /* \"contracts/memetoken.sol\":3138:3189  liquidityAmount.add(treasuryAmount).add(sellAmount) */\n      tag_141\n        /* \"contracts/memetoken.sol\":3178:3188  sellAmount */\n      dup4\n        /* \"contracts/memetoken.sol\":3138:3173  liquidityAmount.add(treasuryAmount) */\n      tag_142\n        /* \"contracts/memetoken.sol\":3138:3153  liquidityAmount */\n      dup8\n        /* \"contracts/memetoken.sol\":3158:3172  treasuryAmount */\n      dup8\n        /* \"contracts/memetoken.sol\":3138:3157  liquidityAmount.add */\n      tag_143\n        /* \"contracts/memetoken.sol\":3138:3173  liquidityAmount.add(treasuryAmount) */\n      jump\t// in\n    tag_142:\n        /* \"contracts/memetoken.sol\":3138:3177  liquidityAmount.add(treasuryAmount).add */\n      swap1\n      tag_143\n        /* \"contracts/memetoken.sol\":3138:3189  liquidityAmount.add(treasuryAmount).add(sellAmount) */\n      jump\t// in\n    tag_141:\n        /* \"contracts/memetoken.sol\":3119:3189  uint256 totalFee = liquidityAmount.add(treasuryAmount).add(sellAmount) */\n      swap1\n      pop\n        /* \"contracts/memetoken.sol\":3200:3221  uint256 receiveAmount */\n      0x00\n        /* \"contracts/memetoken.sol\":3224:3260  amount.sub(totalFee).sub(burnAmount) */\n      tag_144\n        /* \"contracts/memetoken.sol\":3249:3259  burnAmount */\n      dup4\n        /* \"contracts/memetoken.sol\":3224:3244  amount.sub(totalFee) */\n      tag_95\n        /* \"contracts/memetoken.sol\":3224:3230  amount */\n      dup11\n        /* \"contracts/memetoken.sol\":3119:3189  uint256 totalFee = liquidityAmount.add(treasuryAmount).add(sellAmount) */\n      dup6\n        /* \"contracts/memetoken.sol\":3224:3234  amount.sub */\n      tag_96\n        /* \"contracts/memetoken.sol\":3224:3244  amount.sub(totalFee) */\n      jump\t// in\n        /* \"contracts/memetoken.sol\":3224:3260  amount.sub(totalFee).sub(burnAmount) */\n    tag_144:\n        /* \"contracts/memetoken.sol\":3200:3260  uint256 receiveAmount = amount.sub(totalFee).sub(burnAmount) */\n      swap1\n      pop\n        /* \"contracts/memetoken.sol\":3293:3318  senderBalance.sub(amount) */\n      tag_146\n        /* \"contracts/memetoken.sol\":3293:3306  senderBalance */\n      dup8\n        /* \"contracts/memetoken.sol\":3311:3317  amount */\n      dup10\n        /* \"contracts/memetoken.sol\":3293:3310  senderBalance.sub */\n      tag_96\n        /* \"contracts/memetoken.sol\":3293:3318  senderBalance.sub(amount) */\n      jump\t// in\n    tag_146:\n      sub(shl(0xa0, 0x01), 0x01)\n        /* \"contracts/memetoken.sol\":3273:3290  _balances[sender] */\n      dup1\n      dup13\n      and\n        /* \"contracts/memetoken.sol\":3273:3282  _balances */\n      0x00\n        /* \"contracts/memetoken.sol\":3273:3290  _balances[sender] */\n      swap1\n      dup2\n      mstore\n      0x20\n      dup2\n      swap1\n      mstore\n      0x40\n      dup1\n      dup3\n      keccak256\n        /* \"contracts/memetoken.sol\":3273:3318  _balances[sender] = senderBalance.sub(amount) */\n      swap4\n      swap1\n      swap4\n      sstore\n        /* \"contracts/memetoken.sol\":3352:3372  _balances[recipient] */\n      swap1\n      dup12\n      and\n      dup2\n      mstore\n      keccak256\n      sload\n        /* \"contracts/memetoken.sol\":3352:3391  _balances[recipient].add(receiveAmount) */\n      tag_147\n      swap1\n        /* \"contracts/memetoken.sol\":3377:3390  receiveAmount */\n      dup3\n        /* \"contracts/memetoken.sol\":3352:3376  _balances[recipient].add */\n      tag_143\n        /* \"contracts/memetoken.sol\":3352:3391  _balances[recipient].add(receiveAmount) */\n      jump\t// in\n    tag_147:\n      sub(shl(0xa0, 0x01), 0x01)\n        /* \"contracts/memetoken.sol\":3329:3349  _balances[recipient] */\n      dup11\n      and\n        /* \"contracts/memetoken.sol\":3329:3338  _balances */\n      0x00\n        /* \"contracts/memetoken.sol\":3329:3349  _balances[recipient] */\n      swap1\n      dup2\n      mstore\n      0x20\n      dup2\n      swap1\n      mstore\n      0x40\n      dup2\n      keccak256\n        /* \"contracts/memetoken.sol\":3329:3391  _balances[recipient] = _balances[recipient].add(receiveAmount) */\n      swap2\n      swap1\n      swap2\n      sstore\n        /* \"contracts/memetoken.sol\":904:946  0x2C604d9E15e6524F0bB2a2A22F63a7Ca041e84C3 */\n      0x2c604d9e15e6524f0bb2a2a22f63a7ca041e84c3\n        /* \"contracts/memetoken.sol\":3431:3457  _balances[liquidityWallet] */\n      swap1\n      mstore\n      sload(0xb7a07c5f0332c350d219d103c30b3f8d55a382aeeef7f1ba4f6d049e5d945968)\n        /* \"contracts/memetoken.sol\":3431:3478  _balances[liquidityWallet].add(liquidityAmount) */\n      tag_148\n      swap1\n        /* \"contracts/memetoken.sol\":3462:3477  liquidityAmount */\n      dup8\n        /* \"contracts/memetoken.sol\":3431:3461  _balances[liquidityWallet].add */\n      tag_143\n        /* \"contracts/memetoken.sol\":3431:3478  _balances[liquidityWallet].add(liquidityAmount) */\n      jump\t// in\n    tag_148:\n        /* \"contracts/memetoken.sol\":3402:3411  _balances */\n      0x00\n        /* \"contracts/memetoken.sol\":3402:3428  _balances[liquidityWallet] */\n      0x20\n      dup2\n      swap1\n      mstore\n      0xb7a07c5f0332c350d219d103c30b3f8d55a382aeeef7f1ba4f6d049e5d945968\n        /* \"contracts/memetoken.sol\":3402:3478  _balances[liquidityWallet] = _balances[liquidityWallet].add(liquidityAmount) */\n      swap2\n      swap1\n      swap2\n      sstore\n        /* \"contracts/memetoken.sol\":994:1036  0xcC5e043C5142033a800A72286356317dAcb57A77 */\n      0xcc5e043c5142033a800a72286356317dacb57a77\n        /* \"contracts/memetoken.sol\":3517:3542  _balances[treasuryWallet] */\n      swap1\n      mstore\n      sload(0xa4a619a332312f3b10535105aaba4faa19a71ab9d685b400ddc4b24e4c7fcb2e)\n        /* \"contracts/memetoken.sol\":3517:3562  _balances[treasuryWallet].add(treasuryAmount) */\n      tag_149\n      swap1\n        /* \"contracts/memetoken.sol\":3547:3561  treasuryAmount */\n      dup7\n        /* \"contracts/memetoken.sol\":3517:3546  _balances[treasuryWallet].add */\n      tag_143\n        /* \"contracts/memetoken.sol\":3517:3562  _balances[treasuryWallet].add(treasuryAmount) */\n      jump\t// in\n    tag_149:\n        /* \"contracts/memetoken.sol\":994:1036  0xcC5e043C5142033a800A72286356317dAcb57A77 */\n      0xcc5e043c5142033a800a72286356317dacb57a77\n        /* \"contracts/memetoken.sol\":3489:3498  _balances */\n      0x00\n        /* \"contracts/memetoken.sol\":3489:3514  _balances[treasuryWallet] */\n      swap1\n      dup2\n      mstore\n      0x20\n      mstore\n      0xa4a619a332312f3b10535105aaba4faa19a71ab9d685b400ddc4b24e4c7fcb2e\n        /* \"contracts/memetoken.sol\":3489:3562  _balances[treasuryWallet] = _balances[treasuryWallet].add(treasuryAmount) */\n      sstore\n        /* \"contracts/memetoken.sol\":3579:3593  sellAmount > 0 */\n      dup4\n      iszero\n        /* \"contracts/memetoken.sol\":3575:3781  if (sellAmount > 0) {\r... */\n      tag_150\n      jumpi\n        /* \"contracts/memetoken.sol\":3636:3682  _balances[burnAddress1].add(sellAmount.div(2)) */\n      tag_151\n        /* \"contracts/memetoken.sol\":3664:3681  sellAmount.div(2) */\n      tag_152\n        /* \"contracts/memetoken.sol\":3664:3674  sellAmount */\n      dup6\n        /* \"contracts/memetoken.sol\":3679:3680  2 */\n      0x02\n        /* \"contracts/memetoken.sol\":3664:3678  sellAmount.div */\n      tag_131\n        /* \"contracts/memetoken.sol\":3664:3681  sellAmount.div(2) */\n      jump\t// in\n    tag_152:\n        /* \"contracts/memetoken.sol\":725:767  0x000000000000000000000000000000000000dEaD */\n      0xdead\n        /* \"contracts/memetoken.sol\":3636:3645  _balances */\n      0x00\n        /* \"contracts/memetoken.sol\":3636:3659  _balances[burnAddress1] */\n      swap1\n      dup2\n      mstore\n      0x20\n      mstore\n      sload(0x44ad89ba62b98ff34f51403ac22759b55759460c0bb5521eb4b6ee3cff49cf83)\n      swap1\n        /* \"contracts/memetoken.sol\":3636:3663  _balances[burnAddress1].add */\n      tag_143\n        /* \"contracts/memetoken.sol\":3636:3682  _balances[burnAddress1].add(sellAmount.div(2)) */\n      jump\t// in\n    tag_151:\n        /* \"contracts/memetoken.sol\":725:767  0x000000000000000000000000000000000000dEaD */\n      0xdead\n        /* \"contracts/memetoken.sol\":3610:3619  _balances */\n      0x00\n        /* \"contracts/memetoken.sol\":3610:3633  _balances[burnAddress1] */\n      swap1\n      dup2\n      mstore\n      0x20\n      mstore\n      0x44ad89ba62b98ff34f51403ac22759b55759460c0bb5521eb4b6ee3cff49cf83\n        /* \"contracts/memetoken.sol\":3610:3682  _balances[burnAddress1] = _balances[burnAddress1].add(sellAmount.div(2)) */\n      sstore\n        /* \"contracts/memetoken.sol\":3723:3769  _balances[burnAddress2].add(sellAmount.div(2)) */\n      tag_153\n        /* \"contracts/memetoken.sol\":3751:3768  sellAmount.div(2) */\n      tag_154\n        /* \"contracts/memetoken.sol\":3751:3761  sellAmount */\n      dup6\n        /* \"contracts/memetoken.sol\":3766:3767  2 */\n      0x02\n        /* \"contracts/memetoken.sol\":3751:3765  sellAmount.div */\n      tag_131\n        /* \"contracts/memetoken.sol\":3751:3768  sellAmount.div(2) */\n      jump\t// in\n    tag_154:\n        /* \"contracts/memetoken.sol\":3723:3732  _balances */\n      0x00\n        /* \"contracts/memetoken.sol\":3723:3746  _balances[burnAddress2] */\n      dup1\n      dup1\n      mstore\n      0x20\n      mstore\n      sload(0xad3228b676f7d3cd4284a5443f17f1962b36e491b30a40b2405849e597ba5fb5)\n      swap1\n        /* \"contracts/memetoken.sol\":3723:3750  _balances[burnAddress2].add */\n      tag_143\n        /* \"contracts/memetoken.sol\":3723:3769  _balances[burnAddress2].add(sellAmount.div(2)) */\n      jump\t// in\n    tag_153:\n        /* \"contracts/memetoken.sol\":3697:3706  _balances */\n      0x00\n        /* \"contracts/memetoken.sol\":3697:3720  _balances[burnAddress2] */\n      dup1\n      dup1\n      mstore\n      0x20\n      mstore\n      0xad3228b676f7d3cd4284a5443f17f1962b36e491b30a40b2405849e597ba5fb5\n        /* \"contracts/memetoken.sol\":3697:3769  _balances[burnAddress2] = _balances[burnAddress2].add(sellAmount.div(2)) */\n      sstore\n        /* \"contracts/memetoken.sol\":3575:3781  if (sellAmount > 0) {\r... */\n    tag_150:\n        /* \"contracts/memetoken.sol\":3815:3824  recipient */\n      dup9\n      sub(shl(0xa0, 0x01), 0x01)\n        /* \"contracts/memetoken.sol\":3798:3840  Transfer(sender, recipient, receiveAmount) */\n      and\n        /* \"contracts/memetoken.sol\":3807:3813  sender */\n      dup11\n      sub(shl(0xa0, 0x01), 0x01)\n        /* \"contracts/memetoken.sol\":3798:3840  Transfer(sender, recipient, receiveAmount) */\n      and\n      0x00\n      dup1\n      mload\n      0x20\n      data_ada389e1fc24a8587c776340efb91b36e675792ab631816100d55df0b5cf3cbc\n      dup4\n      codecopy\n      dup2\n      mload\n      swap2\n      mstore\n        /* \"contracts/memetoken.sol\":3826:3839  receiveAmount */\n      dup4\n        /* \"contracts/memetoken.sol\":3798:3840  Transfer(sender, recipient, receiveAmount) */\n      mload(0x40)\n      tag_155\n      swap2\n        /* \"#utility.yul\":4053:4078   */\n      dup2\n      mstore\n        /* \"#utility.yul\":4041:4043   */\n      0x20\n        /* \"#utility.yul\":4026:4044   */\n      add\n      swap1\n        /* \"#utility.yul\":4008:4084   */\n      jump\n        /* \"contracts/memetoken.sol\":3798:3840  Transfer(sender, recipient, receiveAmount) */\n    tag_155:\n      mload(0x40)\n      dup1\n      swap2\n      sub\n      swap1\n      log3\n        /* \"contracts/memetoken.sol\":3855:3867  totalFee > 0 */\n      dup2\n      iszero\n        /* \"contracts/memetoken.sol\":3851:4019  if (totalFee > 0) {\r... */\n      tag_156\n      jumpi\n        /* \"contracts/memetoken.sol\":3889:3939  Transfer(sender, liquidityWallet, liquidityAmount) */\n      mload(0x40)\n        /* \"#utility.yul\":4053:4078   */\n      dup7\n      dup2\n      mstore\n        /* \"contracts/memetoken.sol\":904:946  0x2C604d9E15e6524F0bB2a2A22F63a7Ca041e84C3 */\n      0x2c604d9e15e6524f0bb2a2a22f63a7ca041e84c3\n      swap1\n      sub(shl(0xa0, 0x01), 0x01)\n        /* \"contracts/memetoken.sol\":3889:3939  Transfer(sender, liquidityWallet, liquidityAmount) */\n      dup13\n      and\n      swap1\n      0x00\n      dup1\n      mload\n      0x20\n      data_ada389e1fc24a8587c776340efb91b36e675792ab631816100d55df0b5cf3cbc\n      dup4\n      codecopy\n      dup2\n      mload\n      swap2\n      mstore\n      swap1\n        /* \"#utility.yul\":4041:4043   */\n      0x20\n        /* \"#utility.yul\":4026:4044   */\n      add\n        /* \"contracts/memetoken.sol\":3889:3939  Transfer(sender, liquidityWallet, liquidityAmount) */\n      mload(0x40)\n      dup1\n      swap2\n      sub\n      swap1\n      log3\n        /* \"contracts/memetoken.sol\":3959:4007  Transfer(sender, treasuryWallet, treasuryAmount) */\n      mload(0x40)\n        /* \"#utility.yul\":4053:4078   */\n      dup6\n      dup2\n      mstore\n        /* \"contracts/memetoken.sol\":994:1036  0xcC5e043C5142033a800A72286356317dAcb57A77 */\n      0xcc5e043c5142033a800a72286356317dacb57a77\n      swap1\n      sub(shl(0xa0, 0x01), 0x01)\n        /* \"contracts/memetoken.sol\":3959:4007  Transfer(sender, treasuryWallet, treasuryAmount) */\n      dup13\n      and\n      swap1\n      0x00\n      dup1\n      mload\n      0x20\n      data_ada389e1fc24a8587c776340efb91b36e675792ab631816100d55df0b5cf3cbc\n      dup4\n      codecopy\n      dup2\n      mload\n      swap2\n      mstore\n      swap1\n        /* \"#utility.yul\":4041:4043   */\n      0x20\n        /* \"#utility.yul\":4026:4044   */\n      add\n        /* \"contracts/memetoken.sol\":3959:4007  Transfer(sender, treasuryWallet, treasuryAmount) */\n      mload(0x40)\n      dup1\n      swap2\n      sub\n      swap1\n      log3\n        /* \"contracts/memetoken.sol\":3851:4019  if (totalFee > 0) {\r... */\n    tag_156:\n        /* \"contracts/memetoken.sol\":4033:4047  burnAmount > 0 */\n      dup3\n      iszero\n        /* \"contracts/memetoken.sol\":4029:4123  if (burnAmount > 0) {\r... */\n      tag_159\n      jumpi\n        /* \"contracts/memetoken.sol\":4069:4111  Transfer(sender, burnAddress1, burnAmount) */\n      mload(0x40)\n        /* \"#utility.yul\":4053:4078   */\n      dup4\n      dup2\n      mstore\n        /* \"contracts/memetoken.sol\":725:767  0x000000000000000000000000000000000000dEaD */\n      0xdead\n      swap1\n      sub(shl(0xa0, 0x01), 0x01)\n        /* \"contracts/memetoken.sol\":4069:4111  Transfer(sender, burnAddress1, burnAmount) */\n      dup13\n      and\n      swap1\n      0x00\n      dup1\n      mload\n      0x20\n      data_ada389e1fc24a8587c776340efb91b36e675792ab631816100d55df0b5cf3cbc\n      dup4\n      codecopy\n      dup2\n      mload\n      swap2\n      mstore\n      swap1\n        /* \"#utility.yul\":4041:4043   */\n      0x20\n        /* \"#utility.yul\":4026:4044   */\n      add\n        /* \"contracts/memetoken.sol\":4069:4111  Transfer(sender, burnAddress1, burnAmount) */\n      mload(0x40)\n      dup1\n      swap2\n      sub\n      swap1\n      log3\n        /* \"contracts/memetoken.sol\":4029:4123  if (burnAmount > 0) {\r... */\n    tag_159:\n        /* \"contracts/memetoken.sol\":2476:4130  function _transfer(address sender, address recipient, uint256 amount) internal virtual {\r... */\n      pop\n      pop\n      pop\n      pop\n      pop\n      pop\n      pop\n      pop\n      pop\n      pop\n      jump\t// out\n        /* \"@openzeppelin/contracts/utils/math/SafeMath.sol\":3465:3561  function mul(uint256 a, uint256 b) internal pure returns (uint256) {... */\n    tag_130:\n        /* \"@openzeppelin/contracts/utils/math/SafeMath.sol\":3523:3530  uint256 */\n      0x00\n        /* \"@openzeppelin/contracts/utils/math/SafeMath.sol\":3549:3554  a * b */\n      tag_119\n        /* \"@openzeppelin/contracts/utils/math/SafeMath.sol\":3553:3554  b */\n      dup3\n        /* \"@openzeppelin/contracts/utils/math/SafeMath.sol\":3549:3550  a */\n      dup5\n        /* \"@openzeppelin/contracts/utils/math/SafeMath.sol\":3549:3554  a * b */\n      tag_163\n      jump\t// in\n        /* \"@openzeppelin/contracts/utils/math/SafeMath.sol\":3850:3946  function div(uint256 a, uint256 b) internal pure returns (uint256) {... */\n    tag_131:\n        /* \"@openzeppelin/contracts/utils/math/SafeMath.sol\":3908:3915  uint256 */\n      0x00\n        /* \"@openzeppelin/contracts/utils/math/SafeMath.sol\":3934:3939  a / b */\n      tag_119\n        /* \"@openzeppelin/contracts/utils/math/SafeMath.sol\":3938:3939  b */\n      dup3\n        /* \"@openzeppelin/contracts/utils/math/SafeMath.sol\":3934:3935  a */\n      dup5\n        /* \"@openzeppelin/contracts/utils/math/SafeMath.sol\":3934:3939  a / b */\n      tag_166\n      jump\t// in\n        /* \"@openzeppelin/contracts/utils/math/SafeMath.sol\":2755:2851  function add(uint256 a, uint256 b) internal pure returns (uint256) {... */\n    tag_143:\n        /* \"@openzeppelin/contracts/utils/math/SafeMath.sol\":2813:2820  uint256 */\n      0x00\n        /* \"@openzeppelin/contracts/utils/math/SafeMath.sol\":2839:2844  a + b */\n      tag_119\n        /* \"@openzeppelin/contracts/utils/math/SafeMath.sol\":2843:2844  b */\n      dup3\n        /* \"@openzeppelin/contracts/utils/math/SafeMath.sol\":2839:2840  a */\n      dup5\n        /* \"@openzeppelin/contracts/utils/math/SafeMath.sol\":2839:2844  a + b */\n      tag_169\n      jump\t// in\n        /* \"#utility.yul\":14:187   */\n    tag_171:\n        /* \"#utility.yul\":82:102   */\n      dup1\n      calldataload\n      sub(shl(0xa0, 0x01), 0x01)\n        /* \"#utility.yul\":131:162   */\n      dup2\n      and\n        /* \"#utility.yul\":121:163   */\n      dup2\n      eq\n        /* \"#utility.yul\":111:113   */\n      tag_104\n      jumpi\n        /* \"#utility.yul\":177:178   */\n      0x00\n        /* \"#utility.yul\":174:175   */\n      dup1\n        /* \"#utility.yul\":167:179   */\n      revert\n        /* \"#utility.yul\":192:388   */\n    tag_61:\n      0x00\n        /* \"#utility.yul\":304:306   */\n      0x20\n        /* \"#utility.yul\":292:301   */\n      dup3\n        /* \"#utility.yul\":283:290   */\n      dup5\n        /* \"#utility.yul\":279:302   */\n      sub\n        /* \"#utility.yul\":275:307   */\n      slt\n        /* \"#utility.yul\":272:274   */\n      iszero\n      tag_175\n      jumpi\n        /* \"#utility.yul\":325:331   */\n      dup1\n        /* \"#utility.yul\":317:323   */\n      dup2\n        /* \"#utility.yul\":310:332   */\n      revert\n        /* \"#utility.yul\":272:274   */\n    tag_175:\n        /* \"#utility.yul\":353:382   */\n      tag_119\n        /* \"#utility.yul\":372:381   */\n      dup3\n        /* \"#utility.yul\":353:382   */\n      tag_171\n      jump\t// in\n        /* \"#utility.yul\":393:663   */\n    tag_85:\n      0x00\n      dup1\n        /* \"#utility.yul\":522:524   */\n      0x40\n        /* \"#utility.yul\":510:519   */\n      dup4\n        /* \"#utility.yul\":501:508   */\n      dup6\n        /* \"#utility.yul\":497:520   */\n      sub\n        /* \"#utility.yul\":493:525   */\n      slt\n        /* \"#utility.yul\":490:492   */\n      iszero\n      tag_178\n      jumpi\n        /* \"#utility.yul\":543:549   */\n      dup1\n        /* \"#utility.yul\":535:541   */\n      dup2\n        /* \"#utility.yul\":528:550   */\n      revert\n        /* \"#utility.yul\":490:492   */\n    tag_178:\n        /* \"#utility.yul\":571:600   */\n      tag_179\n        /* \"#utility.yul\":590:599   */\n      dup4\n        /* \"#utility.yul\":571:600   */\n      tag_171\n      jump\t// in\n    tag_179:\n        /* \"#utility.yul\":561:600   */\n      swap2\n      pop\n        /* \"#utility.yul\":619:657   */\n      tag_180\n        /* \"#utility.yul\":653:655   */\n      0x20\n        /* \"#utility.yul\":642:651   */\n      dup5\n        /* \"#utility.yul\":638:656   */\n      add\n        /* \"#utility.yul\":619:657   */\n      tag_171\n      jump\t// in\n    tag_180:\n        /* \"#utility.yul\":609:657   */\n      swap1\n      pop\n        /* \"#utility.yul\":480:663   */\n      swap3\n      pop\n      swap3\n      swap1\n      pop\n      jump\t// out\n        /* \"#utility.yul\":668:1006   */\n    tag_39:\n      0x00\n      dup1\n      0x00\n        /* \"#utility.yul\":814:816   */\n      0x60\n        /* \"#utility.yul\":802:811   */\n      dup5\n        /* \"#utility.yul\":793:800   */\n      dup7\n        /* \"#utility.yul\":789:812   */\n      sub\n        /* \"#utility.yul\":785:817   */\n      slt\n        /* \"#utility.yul\":782:784   */\n      iszero\n      tag_182\n      jumpi\n        /* \"#utility.yul\":835:841   */\n      dup1\n        /* \"#utility.yul\":827:833   */\n      dup2\n        /* \"#utility.yul\":820:842   */\n      revert\n        /* \"#utility.yul\":782:784   */\n    tag_182:\n        /* \"#utility.yul\":863:892   */\n      tag_183\n        /* \"#utility.yul\":882:891   */\n      dup5\n        /* \"#utility.yul\":863:892   */\n      tag_171\n      jump\t// in\n    tag_183:\n        /* \"#utility.yul\":853:892   */\n      swap3\n      pop\n        /* \"#utility.yul\":911:949   */\n      tag_184\n        /* \"#utility.yul\":945:947   */\n      0x20\n        /* \"#utility.yul\":934:943   */\n      dup6\n        /* \"#utility.yul\":930:948   */\n      add\n        /* \"#utility.yul\":911:949   */\n      tag_171\n      jump\t// in\n    tag_184:\n        /* \"#utility.yul\":901:949   */\n      swap2\n      pop\n        /* \"#utility.yul\":996:998   */\n      0x40\n        /* \"#utility.yul\":985:994   */\n      dup5\n        /* \"#utility.yul\":981:999   */\n      add\n        /* \"#utility.yul\":968:1000   */\n      calldataload\n        /* \"#utility.yul\":958:1000   */\n      swap1\n      pop\n        /* \"#utility.yul\":772:1006   */\n      swap3\n      pop\n      swap3\n      pop\n      swap3\n      jump\t// out\n        /* \"#utility.yul\":1011:1275   */\n    tag_29:\n      0x00\n      dup1\n        /* \"#utility.yul\":1140:1142   */\n      0x40\n        /* \"#utility.yul\":1128:1137   */\n      dup4\n        /* \"#utility.yul\":1119:1126   */\n      dup6\n        /* \"#utility.yul\":1115:1138   */\n      sub\n        /* \"#utility.yul\":1111:1143   */\n      slt\n        /* \"#utility.yul\":1108:1110   */\n      iszero\n      tag_186\n      jumpi\n        /* \"#utility.yul\":1161:1167   */\n      dup2\n        /* \"#utility.yul\":1153:1159   */\n      dup3\n        /* \"#utility.yul\":1146:1168   */\n      revert\n        /* \"#utility.yul\":1108:1110   */\n    tag_186:\n        /* \"#utility.yul\":1189:1218   */\n      tag_187\n        /* \"#utility.yul\":1208:1217   */\n      dup4\n        /* \"#utility.yul\":1189:1218   */\n      tag_171\n      jump\t// in\n    tag_187:\n        /* \"#utility.yul\":1179:1218   */\n      swap5\n        /* \"#utility.yul\":1265:1267   */\n      0x20\n        /* \"#utility.yul\":1250:1268   */\n      swap4\n      swap1\n      swap4\n      add\n        /* \"#utility.yul\":1237:1269   */\n      calldataload\n      swap4\n      pop\n      pop\n      pop\n        /* \"#utility.yul\":1098:1275   */\n      jump\t// out\n        /* \"#utility.yul\":1680:2283   */\n    tag_26:\n      0x00\n        /* \"#utility.yul\":1821:1823   */\n      0x20\n        /* \"#utility.yul\":1850:1852   */\n      dup1\n        /* \"#utility.yul\":1839:1848   */\n      dup4\n        /* \"#utility.yul\":1832:1853   */\n      mstore\n        /* \"#utility.yul\":1882:1888   */\n      dup4\n        /* \"#utility.yul\":1876:1889   */\n      mload\n        /* \"#utility.yul\":1925:1931   */\n      dup1\n        /* \"#utility.yul\":1920:1922   */\n      dup3\n        /* \"#utility.yul\":1909:1918   */\n      dup6\n        /* \"#utility.yul\":1905:1923   */\n      add\n        /* \"#utility.yul\":1898:1932   */\n      mstore\n        /* \"#utility.yul\":1950:1954   */\n      dup3\n        /* \"#utility.yul\":1963:2103   */\n    tag_191:\n        /* \"#utility.yul\":1977:1983   */\n      dup2\n        /* \"#utility.yul\":1974:1975   */\n      dup2\n        /* \"#utility.yul\":1971:1984   */\n      lt\n        /* \"#utility.yul\":1963:2103   */\n      iszero\n      tag_193\n      jumpi\n        /* \"#utility.yul\":2072:2086   */\n      dup6\n      dup2\n      add\n        /* \"#utility.yul\":2068:2091   */\n      dup4\n      add\n        /* \"#utility.yul\":2062:2092   */\n      mload\n        /* \"#utility.yul\":2038:2055   */\n      dup6\n      dup3\n      add\n        /* \"#utility.yul\":2057:2059   */\n      0x40\n        /* \"#utility.yul\":2034:2060   */\n      add\n        /* \"#utility.yul\":2027:2093   */\n      mstore\n        /* \"#utility.yul\":1992:2002   */\n      dup3\n      add\n        /* \"#utility.yul\":1963:2103   */\n      jump(tag_191)\n    tag_193:\n        /* \"#utility.yul\":2121:2127   */\n      dup2\n        /* \"#utility.yul\":2118:2119   */\n      dup2\n        /* \"#utility.yul\":2115:2128   */\n      gt\n        /* \"#utility.yul\":2112:2114   */\n      iszero\n      tag_194\n      jumpi\n        /* \"#utility.yul\":2191:2195   */\n      dup4\n        /* \"#utility.yul\":2186:2188   */\n      0x40\n        /* \"#utility.yul\":2177:2183   */\n      dup4\n        /* \"#utility.yul\":2166:2175   */\n      dup8\n        /* \"#utility.yul\":2162:2184   */\n      add\n        /* \"#utility.yul\":2158:2189   */\n      add\n        /* \"#utility.yul\":2151:2196   */\n      mstore\n        /* \"#utility.yul\":2112:2114   */\n    tag_194:\n      pop\n        /* \"#utility.yul\":2267:2269   */\n      0x1f\n        /* \"#utility.yul\":2246:2261   */\n      add\n      not(0x1f)\n        /* \"#utility.yul\":2242:2271   */\n      and\n        /* \"#utility.yul\":2227:2272   */\n      swap3\n      swap1\n      swap3\n      add\n        /* \"#utility.yul\":2274:2276   */\n      0x40\n        /* \"#utility.yul\":2223:2277   */\n      add\n      swap4\n        /* \"#utility.yul\":1801:2283   */\n      swap3\n      pop\n      pop\n      pop\n      jump\t// out\n        /* \"#utility.yul\":4278:4406   */\n    tag_169:\n      0x00\n        /* \"#utility.yul\":4349:4350   */\n      dup3\n        /* \"#utility.yul\":4345:4351   */\n      not\n        /* \"#utility.yul\":4342:4343   */\n      dup3\n        /* \"#utility.yul\":4339:4352   */\n      gt\n        /* \"#utility.yul\":4336:4338   */\n      iszero\n      tag_203\n      jumpi\n        /* \"#utility.yul\":4355:4373   */\n      tag_203\n      tag_204\n      jump\t// in\n    tag_203:\n      pop\n        /* \"#utility.yul\":4391:4400   */\n      add\n      swap1\n        /* \"#utility.yul\":4326:4406   */\n      jump\t// out\n        /* \"#utility.yul\":4411:4628   */\n    tag_166:\n      0x00\n        /* \"#utility.yul\":4477:4478   */\n      dup3\n        /* \"#utility.yul\":4467:4469   */\n      tag_206\n      jumpi\n      shl(0xe0, 0x4e487b71)\n        /* \"#utility.yul\":4502:4533   */\n      dup2\n      mstore\n        /* \"#utility.yul\":4556:4560   */\n      0x12\n        /* \"#utility.yul\":4553:4554   */\n      0x04\n        /* \"#utility.yul\":4546:4561   */\n      mstore\n        /* \"#utility.yul\":4584:4588   */\n      0x24\n        /* \"#utility.yul\":4509:4510   */\n      dup2\n        /* \"#utility.yul\":4574:4589   */\n      revert\n        /* \"#utility.yul\":4467:4469   */\n    tag_206:\n      pop\n        /* \"#utility.yul\":4613:4622   */\n      div\n      swap1\n        /* \"#utility.yul\":4457:4628   */\n      jump\t// out\n        /* \"#utility.yul\":4633:4801   */\n    tag_163:\n      0x00\n        /* \"#utility.yul\":4739:4740   */\n      dup2\n        /* \"#utility.yul\":4735:4736   */\n      0x00\n        /* \"#utility.yul\":4731:4737   */\n      not\n        /* \"#utility.yul\":4727:4741   */\n      div\n        /* \"#utility.yul\":4724:4725   */\n      dup4\n        /* \"#utility.yul\":4721:4742   */\n      gt\n        /* \"#utility.yul\":4716:4717   */\n      dup3\n        /* \"#utility.yul\":4709:4718   */\n      iszero\n        /* \"#utility.yul\":4702:4719   */\n      iszero\n        /* \"#utility.yul\":4698:4743   */\n      and\n        /* \"#utility.yul\":4695:4697   */\n      iszero\n      tag_209\n      jumpi\n        /* \"#utility.yul\":4746:4764   */\n      tag_209\n      tag_204\n      jump\t// in\n    tag_209:\n      pop\n        /* \"#utility.yul\":4786:4795   */\n      mul\n      swap1\n        /* \"#utility.yul\":4685:4801   */\n      jump\t// out\n        /* \"#utility.yul\":4806:4931   */\n    tag_120:\n      0x00\n        /* \"#utility.yul\":4874:4875   */\n      dup3\n        /* \"#utility.yul\":4871:4872   */\n      dup3\n        /* \"#utility.yul\":4868:4876   */\n      lt\n        /* \"#utility.yul\":4865:4867   */\n      iszero\n      tag_212\n      jumpi\n        /* \"#utility.yul\":4879:4897   */\n      tag_212\n      tag_204\n      jump\t// in\n    tag_212:\n      pop\n        /* \"#utility.yul\":4916:4925   */\n      sub\n      swap1\n        /* \"#utility.yul\":4855:4931   */\n      jump\t// out\n        /* \"#utility.yul\":4936:5063   */\n    tag_204:\n        /* \"#utility.yul\":4997:5007   */\n      0x4e487b71\n        /* \"#utility.yul\":4992:4995   */\n      0xe0\n        /* \"#utility.yul\":4988:5008   */\n      shl\n        /* \"#utility.yul\":4985:4986   */\n      0x00\n        /* \"#utility.yul\":4978:5009   */\n      mstore\n        /* \"#utility.yul\":5028:5032   */\n      0x11\n        /* \"#utility.yul\":5025:5026   */\n      0x04\n        /* \"#utility.yul\":5018:5033   */\n      mstore\n        /* \"#utility.yul\":5052:5056   */\n      0x24\n        /* \"#utility.yul\":5049:5050   */\n      0x00\n        /* \"#utility.yul\":5042:5057   */\n      revert\n    stop\n    data_ada389e1fc24a8587c776340efb91b36e675792ab631816100d55df0b5cf3cbc ddf252ad1be2c89b69c2b068fc378daa952ba7f163c4a11628f55a4df523b3ef\n\n    auxdata: 0xa2646970667358221220f682344e59441764ccb8a3ce59d6706caa54aa9d2bdd9ebf73908896afd7155964736f6c63430008020033\n}\n",
				"bytecode": {
					"linkReferences": {},
					"object": "60806040526b033b2e3c9fd0803ce800000060025534801561002057600080fd5b50600254732c604d9e15e6524f0bb2a2a22f63a7ca041e84c3600081815260208181527fb7a07c5f0332c350d219d103c30b3f8d55a382aeeef7f1ba4f6d049e5d945968849055604051938452919290917fddf252ad1be2c89b69c2b068fc378daa952ba7f163c4a11628f55a4df523b3ef910160405180910390a3610bc7806100ab6000396000f3fe608060405234801561001057600080fd5b506004361061010b5760003560e01c8063472a0b2a116100a2578063a9059cbb11610071578063a9059cbb14610253578063bed99850146101ae578063cc32d17614610266578063d46980161461026e578063dd62ed3e146102895761010b565b8063472a0b2a1461020b57806370a082311461021457806395d89b411461022757806398118cb41461024b5761010b565b80632b14ca56116100de5780632b14ca56146101ae578063311e6703146101b6578063313ce567146101d65780634626402b146101f05761010b565b806306fdde0314610110578063095ea7b31461016257806318160ddd1461018557806323b872dd1461019b575b600080fd5b61014c6040518060400160405280601981526020017f5b544553545d204465666c6174696f6e61727920546f6b656e0000000000000081525081565b6040516101599190610a9a565b60405180910390f35b610175610170366004610a71565b6102c2565b6040519015158152602001610159565b61018d6102d8565b604051908152602001610159565b6101756101a9366004610a36565b610345565b61018d601e81565b6101be600081565b6040516001600160a01b039091168152602001610159565b6101de601281565b60405160ff9091168152602001610159565b6101be73cc5e043c5142033a800a72286356317dacb57a7781565b6101be61dead81565b61018d6102223660046109ea565b610396565b61014c604051806040016040528060058152602001641111950c0d60da1b81525081565b61018d603281565b610175610261366004610a71565b6103b5565b61018d605a81565b6101be732c604d9e15e6524f0bb2a2a22f63a7ca041e84c381565b61018d610297366004610a04565b6001600160a01b03918216600090815260016020908152604080832093909416825291909152205490565b60006102cf3384846103c2565b50600192915050565b600060208190527fad3228b676f7d3cd4284a5443f17f1962b36e491b30a40b2405849e597ba5fb55461dead82527f44ad89ba62b98ff34f51403ac22759b55759460c0bb5521eb4b6ee3cff49cf8354600254610340929161033a91906104eb565b906104eb565b905090565b60006103528484846104fe565b6001600160a01b03841660009081526001602090815260408083203380855292529091205461038c91869161038790866104eb565b6103c2565b5060019392505050565b6001600160a01b0381166000908152602081905260409020545b919050565b60006102cf3384846104fe565b6001600160a01b0383166104295760405162461bcd60e51b8152602060048201526024808201527f45524332303a20617070726f76652066726f6d20746865207a65726f206164646044820152637265737360e01b60648201526084015b60405180910390fd5b6001600160a01b03821661048a5760405162461bcd60e51b815260206004820152602260248201527f45524332303a20617070726f766520746f20746865207a65726f206164647265604482015261737360f01b6064820152608401610420565b6001600160a01b0383811660008181526001602090815260408083209487168084529482529182902085905590518481527f8c5be1e5ebec7d5bd14f71427d1e84f3dd0314c0f7b2291e5b200ac8c7c3b925910160405180910390a3505050565b60006104f78284610b44565b9392505050565b6001600160a01b0382166105605760405162461bcd60e51b815260206004820152602360248201527f45524332303a207472616e7366657220746f20746865207a65726f206164647260448201526265737360e81b6064820152608401610420565b6001600160a01b038316600090815260208190526040902054818110156105d85760405162461bcd60e51b815260206004820152602660248201527f45524332303a207472616e7366657220616d6f756e7420657863656564732062604482015265616c616e636560d01b6064820152608401610420565b60006105f060646105ea8560326109af565b906109bb565b9050600061060460646105ea86605a6109af565b905060006001600160a01b03861661dead148061062857506001600160a01b038616155b610633576000610643565b61064360646105ea87601e6109af565b9050600061065760646105ea88601e6109af565b9050600061066f8361066987876109c7565b906109c7565b905060006106818361033a8a856104eb565b905061068d87896104eb565b6001600160a01b03808c1660009081526020819052604080822093909355908b16815220546106bc90826109c7565b6001600160a01b038a16600090815260208190526040812091909155732c604d9e15e6524f0bb2a2a22f63a7ca041e84c390527fb7a07c5f0332c350d219d103c30b3f8d55a382aeeef7f1ba4f6d049e5d9459685461071b90876109c7565b600060208190527fb7a07c5f0332c350d219d103c30b3f8d55a382aeeef7f1ba4f6d049e5d9459689190915573cc5e043c5142033a800a72286356317dacb57a7790527fa4a619a332312f3b10535105aaba4faa19a71ab9d685b400ddc4b24e4c7fcb2e5461078a90866109c7565b73cc5e043c5142033a800a72286356317dacb57a7760009081526020527fa4a619a332312f3b10535105aaba4faa19a71ab9d685b400ddc4b24e4c7fcb2e5583156108a6576108106107dd8560026109bb565b61dead60009081526020527f44ad89ba62b98ff34f51403ac22759b55759460c0bb5521eb4b6ee3cff49cf8354906109c7565b61dead60009081526020527f44ad89ba62b98ff34f51403ac22759b55759460c0bb5521eb4b6ee3cff49cf835561087b61084b8560026109bb565b60008080526020527fad3228b676f7d3cd4284a5443f17f1962b36e491b30a40b2405849e597ba5fb554906109c7565b60008080526020527fad3228b676f7d3cd4284a5443f17f1962b36e491b30a40b2405849e597ba5fb5555b886001600160a01b03168a6001600160a01b0316600080516020610b72833981519152836040516108d991815260200190565b60405180910390a3811561096c57604051868152732c604d9e15e6524f0bb2a2a22f63a7ca041e84c3906001600160a01b038c1690600080516020610b728339815191529060200160405180910390a360405185815273cc5e043c5142033a800a72286356317dacb57a77906001600160a01b038c1690600080516020610b728339815191529060200160405180910390a35b82156109a35760405183815261dead906001600160a01b038c1690600080516020610b728339815191529060200160405180910390a35b50505050505050505050565b60006104f78284610b25565b60006104f78284610b05565b60006104f78284610aed565b80356001600160a01b03811681146103b057600080fd5b6000602082840312156109fb578081fd5b6104f7826109d3565b60008060408385031215610a16578081fd5b610a1f836109d3565b9150610a2d602084016109d3565b90509250929050565b600080600060608486031215610a4a578081fd5b610a53846109d3565b9250610a61602085016109d3565b9150604084013590509250925092565b60008060408385031215610a83578182fd5b610a8c836109d3565b946020939093013593505050565b6000602080835283518082850152825b81811015610ac657858101830151858201604001528201610aaa565b81811115610ad75783604083870101525b50601f01601f1916929092016040019392505050565b60008219821115610b0057610b00610b5b565b500190565b600082610b2057634e487b7160e01b81526012600452602481fd5b500490565b6000816000190483118215151615610b3f57610b3f610b5b565b500290565b600082821015610b5657610b56610b5b565b500390565b634e487b7160e01b600052601160045260246000fdfeddf252ad1be2c89b69c2b068fc378daa952ba7f163c4a11628f55a4df523b3efa2646970667358221220f682344e59441764ccb8a3ce59d6706caa54aa9d2bdd9ebf73908896afd7155964736f6c63430008020033",
					"opcodes": "PUSH1 0x80 PUSH1 0x40 MSTORE PUSH12 0x33B2E3C9FD0803CE8000000 PUSH1 0x2 SSTORE CALLVALUE DUP1 ISZERO PUSH2 0x20 JUMPI PUSH1 0x0 DUP1 REVERT JUMPDEST POP PUSH1 0x2 SLOAD PUSH20 0x2C604D9E15E6524F0BB2A2A22F63A7CA041E84C3 PUSH1 0x0 DUP2 DUP2 MSTORE PUSH1 0x20 DUP2 DUP2 MSTORE PUSH32 0xB7A07C5F0332C350D219D103C30B3F8D55A382AEEEF7F1BA4F6D049E5D945968 DUP5 SWAP1 SSTORE PUSH1 0x40 MLOAD SWAP4 DUP5 MSTORE SWAP2 SWAP3 SWAP1 SWAP2 PUSH32 0xDDF252AD1BE2C89B69C2B068FC378DAA952BA7F163C4A11628F55A4DF523B3EF SWAP2 ADD PUSH1 0x40 MLOAD DUP1 SWAP2 SUB SWAP1 LOG3 PUSH2 0xBC7 DUP1 PUSH2 0xAB PUSH1 0x0 CODECOPY PUSH1 0x0 RETURN INVALID PUSH1 0x80 PUSH1 0x40 MSTORE CALLVALUE DUP1 ISZERO PUSH2 0x10 JUMPI PUSH1 0x0 DUP1 REVERT JUMPDEST POP PUSH1 0x4 CALLDATASIZE LT PUSH2 0x10B JUMPI PUSH1 0x0 CALLDATALOAD PUSH1 0xE0 SHR DUP1 PUSH4 0x472A0B2A GT PUSH2 0xA2 JUMPI DUP1 PUSH4 0xA9059CBB GT PUSH2 0x71 JUMPI DUP1 PUSH4 0xA9059CBB EQ PUSH2 0x253 JUMPI DUP1 PUSH4 0xBED99850 EQ PUSH2 0x1AE JUMPI DUP1 PUSH4 0xCC32D176 EQ PUSH2 0x266 JUMPI DUP1 PUSH4 0xD4698016 EQ PUSH2 0x26E JUMPI DUP1 PUSH4 0xDD62ED3E EQ PUSH2 0x289 JUMPI PUSH2 0x10B JUMP JUMPDEST DUP1 PUSH4 0x472A0B2A EQ PUSH2 0x20B JUMPI DUP1 PUSH4 0x70A08231 EQ PUSH2 0x214 JUMPI DUP1 PUSH4 0x95D89B41 EQ PUSH2 0x227 JUMPI DUP1 PUSH4 0x98118CB4 EQ PUSH2 0x24B JUMPI PUSH2 0x10B JUMP JUMPDEST DUP1 PUSH4 0x2B14CA56 GT PUSH2 0xDE JUMPI DUP1 PUSH4 0x2B14CA56 EQ PUSH2 0x1AE JUMPI DUP1 PUSH4 0x311E6703 EQ PUSH2 0x1B6 JUMPI DUP1 PUSH4 0x313CE567 EQ PUSH2 0x1D6 JUMPI DUP1 PUSH4 0x4626402B EQ PUSH2 0x1F0 JUMPI PUSH2 0x10B JUMP JUMPDEST DUP1 PUSH4 0x6FDDE03 EQ PUSH2 0x110 JUMPI DUP1 PUSH4 0x95EA7B3 EQ PUSH2 0x162 JUMPI DUP1 PUSH4 0x18160DDD EQ PUSH2 0x185 JUMPI DUP1 PUSH4 0x23B872DD EQ PUSH2 0x19B JUMPI JUMPDEST PUSH1 0x0 DUP1 REVERT JUMPDEST PUSH2 0x14C PUSH1 0x40 MLOAD DUP1 PUSH1 0x40 ADD PUSH1 0x40 MSTORE DUP1 PUSH1 0x19 DUP2 MSTORE PUSH1 0x20 ADD PUSH32 0x5B544553545D204465666C6174696F6E61727920546F6B656E00000000000000 DUP2 MSTORE POP DUP2 JUMP JUMPDEST PUSH1 0x40 MLOAD PUSH2 0x159 SWAP2 SWAP1 PUSH2 0xA9A JUMP JUMPDEST PUSH1 0x40 MLOAD DUP1 SWAP2 SUB SWAP1 RETURN JUMPDEST PUSH2 0x175 PUSH2 0x170 CALLDATASIZE PUSH1 0x4 PUSH2 0xA71 JUMP JUMPDEST PUSH2 0x2C2 JUMP JUMPDEST PUSH1 0x40 MLOAD SWAP1 ISZERO ISZERO DUP2 MSTORE PUSH1 0x20 ADD PUSH2 0x159 JUMP JUMPDEST PUSH2 0x18D PUSH2 0x2D8 JUMP JUMPDEST PUSH1 0x40 MLOAD SWAP1 DUP2 MSTORE PUSH1 0x20 ADD PUSH2 0x159 JUMP JUMPDEST PUSH2 0x175 PUSH2 0x1A9 CALLDATASIZE PUSH1 0x4 PUSH2 0xA36 JUMP JUMPDEST PUSH2 0x345 JUMP JUMPDEST PUSH2 0x18D PUSH1 0x1E DUP2 JUMP JUMPDEST PUSH2 0x1BE PUSH1 0x0 DUP2 JUMP JUMPDEST PUSH1 0x40 MLOAD PUSH1 0x1 PUSH1 0x1 PUSH1 0xA0 SHL SUB SWAP1 SWAP2 AND DUP2 MSTORE PUSH1 0x20 ADD PUSH2 0x159 JUMP JUMPDEST PUSH2 0x1DE PUSH1 0x12 DUP2 JUMP JUMPDEST PUSH1 0x40 MLOAD PUSH1 0xFF SWAP1 SWAP2 AND DUP2 MSTORE PUSH1 0x20 ADD PUSH2 0x159 JUMP JUMPDEST PUSH2 0x1BE PUSH20 0xCC5E043C5142033A800A72286356317DACB57A77 DUP2 JUMP JUMPDEST PUSH2 0x1BE PUSH2 0xDEAD DUP2 JUMP JUMPDEST PUSH2 0x18D PUSH2 0x222 CALLDATASIZE PUSH1 0x4 PUSH2 0x9EA JUMP JUMPDEST PUSH2 0x396 JUMP JUMPDEST PUSH2 0x14C PUSH1 0x40 MLOAD DUP1 PUSH1 0x40 ADD PUSH1 0x40 MSTORE DUP1 PUSH1 0x5 DUP2 MSTORE PUSH1 0x20 ADD PUSH5 0x1111950C0D PUSH1 0xDA SHL DUP2 MSTORE POP DUP2 JUMP JUMPDEST PUSH2 0x18D PUSH1 0x32 DUP2 JUMP JUMPDEST PUSH2 0x175 PUSH2 0x261 CALLDATASIZE PUSH1 0x4 PUSH2 0xA71 JUMP JUMPDEST PUSH2 0x3B5 JUMP JUMPDEST PUSH2 0x18D PUSH1 0x5A DUP2 JUMP JUMPDEST PUSH2 0x1BE PUSH20 0x2C604D9E15E6524F0BB2A2A22F63A7CA041E84C3 DUP2 JUMP JUMPDEST PUSH2 0x18D PUSH2 0x297 CALLDATASIZE PUSH1 0x4 PUSH2 0xA04 JUMP JUMPDEST PUSH1 0x1 PUSH1 0x1 PUSH1 0xA0 SHL SUB SWAP2 DUP3 AND PUSH1 0x0 SWAP1 DUP2 MSTORE PUSH1 0x1 PUSH1 0x20 SWAP1 DUP2 MSTORE PUSH1 0x40 DUP1 DUP4 KECCAK256 SWAP4 SWAP1 SWAP5 AND DUP3 MSTORE SWAP2 SWAP1 SWAP2 MSTORE KECCAK256 SLOAD SWAP1 JUMP JUMPDEST PUSH1 0x0 PUSH2 0x2CF CALLER DUP5 DUP5 PUSH2 0x3C2 JUMP JUMPDEST POP PUSH1 0x1 SWAP3 SWAP2 POP POP JUMP JUMPDEST PUSH1 0x0 PUSH1 0x20 DUP2 SWAP1 MSTORE PUSH32 0xAD3228B676F7D3CD4284A5443F17F1962B36E491B30A40B2405849E597BA5FB5 SLOAD PUSH2 0xDEAD DUP3 MSTORE PUSH32 0x44AD89BA62B98FF34F51403AC22759B55759460C0BB5521EB4B6EE3CFF49CF83 SLOAD PUSH1 0x2 SLOAD PUSH2 0x340 SWAP3 SWAP2 PUSH2 0x33A SWAP2 SWAP1 PUSH2 0x4EB JUMP JUMPDEST SWAP1 PUSH2 0x4EB JUMP JUMPDEST SWAP1 POP SWAP1 JUMP JUMPDEST PUSH1 0x0 PUSH2 0x352 DUP5 DUP5 DUP5 PUSH2 0x4FE JUMP JUMPDEST PUSH1 0x1 PUSH1 0x1 PUSH1 0xA0 SHL SUB DUP5 AND PUSH1 0x0 SWAP1 DUP2 MSTORE PUSH1 0x1 PUSH1 0x20 SWAP1 DUP2 MSTORE PUSH1 0x40 DUP1 DUP4 KECCAK256 CALLER DUP1 DUP6 MSTORE SWAP3 MSTORE SWAP1 SWAP2 KECCAK256 SLOAD PUSH2 0x38C SWAP2 DUP7 SWAP2 PUSH2 0x387 SWAP1 DUP7 PUSH2 0x4EB JUMP JUMPDEST PUSH2 0x3C2 JUMP JUMPDEST POP PUSH1 0x1 SWAP4 SWAP3 POP POP POP JUMP JUMPDEST PUSH1 0x1 PUSH1 0x1 PUSH1 0xA0 SHL SUB DUP2 AND PUSH1 0x0 SWAP1 DUP2 MSTORE PUSH1 0x20 DUP2 SWAP1 MSTORE PUSH1 0x40 SWAP1 KECCAK256 SLOAD JUMPDEST SWAP2 SWAP1 POP JUMP JUMPDEST PUSH1 0x0 PUSH2 0x2CF CALLER DUP5 DUP5 PUSH2 0x4FE JUMP JUMPDEST PUSH1 0x1 PUSH1 0x1 PUSH1 0xA0 SHL SUB DUP4 AND PUSH2 0x429 JUMPI PUSH1 0x40 MLOAD PUSH3 0x461BCD PUSH1 0xE5 SHL DUP2 MSTORE PUSH1 0x20 PUSH1 0x4 DUP3 ADD MSTORE PUSH1 0x24 DUP1 DUP3 ADD MSTORE PUSH32 0x45524332303A20617070726F76652066726F6D20746865207A65726F20616464 PUSH1 0x44 DUP3 ADD MSTORE PUSH4 0x72657373 PUSH1 0xE0 SHL PUSH1 0x64 DUP3 ADD MSTORE PUSH1 0x84 ADD JUMPDEST PUSH1 0x40 MLOAD DUP1 SWAP2 SUB SWAP1 REVERT JUMPDEST PUSH1 0x1 PUSH1 0x1 PUSH1 0xA0 SHL SUB DUP3 AND PUSH2 0x48A JUMPI PUSH1 0x40 MLOAD PUSH3 0x461BCD PUSH1 0xE5 SHL DUP2 MSTORE PUSH1 0x20 PUSH1 0x4 DUP3 ADD MSTORE PUSH1 0x22 PUSH1 0x24 DUP3 ADD MSTORE PUSH32 0x45524332303A20617070726F766520746F20746865207A65726F206164647265 PUSH1 0x44 DUP3 ADD MSTORE PUSH2 0x7373 PUSH1 0xF0 SHL PUSH1 0x64 DUP3 ADD MSTORE PUSH1 0x84 ADD PUSH2 0x420 JUMP JUMPDEST PUSH1 0x1 PUSH1 0x1 PUSH1 0xA0 SHL SUB DUP4 DUP2 AND PUSH1 0x0 DUP2 DUP2 MSTORE PUSH1 0x1 PUSH1 0x20 SWAP1 DUP2 MSTORE PUSH1 0x40 DUP1 DUP4 KECCAK256 SWAP5 DUP8 AND DUP1 DUP5 MSTORE SWAP5 DUP3 MSTORE SWAP2 DUP3 SWAP1 KECCAK256 DUP6 SWAP1 SSTORE SWAP1 MLOAD DUP5 DUP2 MSTORE PUSH32 0x8C5BE1E5EBEC7D5BD14F71427D1E84F3DD0314C0F7B2291E5B200AC8C7C3B925 SWAP2 ADD PUSH1 0x40 MLOAD DUP1 SWAP2 SUB SWAP1 LOG3 POP POP POP JUMP JUMPDEST PUSH1 0x0 PUSH2 0x4F7 DUP3 DUP5 PUSH2 0xB44 JUMP JUMPDEST SWAP4 SWAP3 POP POP POP JUMP JUMPDEST PUSH1 0x1 PUSH1 0x1 PUSH1 0xA0 SHL SUB DUP3 AND PUSH2 0x560 JUMPI PUSH1 0x40 MLOAD PUSH3 0x461BCD PUSH1 0xE5 SHL DUP2 MSTORE PUSH1 0x20 PUSH1 0x4 DUP3 ADD MSTORE PUSH1 0x23 PUSH1 0x24 DUP3 ADD MSTORE PUSH32 0x45524332303A207472616E7366657220746F20746865207A65726F2061646472 PUSH1 0x44 DUP3 ADD MSTORE PUSH3 0x657373 PUSH1 0xE8 SHL PUSH1 0x64 DUP3 ADD MSTORE PUSH1 0x84 ADD PUSH2 0x420 JUMP JUMPDEST PUSH1 0x1 PUSH1 0x1 PUSH1 0xA0 SHL SUB DUP4 AND PUSH1 0x0 SWAP1 DUP2 MSTORE PUSH1 0x20 DUP2 SWAP1 MSTORE PUSH1 0x40 SWAP1 KECCAK256 SLOAD DUP2 DUP2 LT ISZERO PUSH2 0x5D8 JUMPI PUSH1 0x40 MLOAD PUSH3 0x461BCD PUSH1 0xE5 SHL DUP2 MSTORE PUSH1 0x20 PUSH1 0x4 DUP3 ADD MSTORE PUSH1 0x26 PUSH1 0x24 DUP3 ADD MSTORE PUSH32 0x45524332303A207472616E7366657220616D6F756E7420657863656564732062 PUSH1 0x44 DUP3 ADD MSTORE PUSH6 0x616C616E6365 PUSH1 0xD0 SHL PUSH1 0x64 DUP3 ADD MSTORE PUSH1 0x84 ADD PUSH2 0x420 JUMP JUMPDEST PUSH1 0x0 PUSH2 0x5F0 PUSH1 0x64 PUSH2 0x5EA DUP6 PUSH1 0x32 PUSH2 0x9AF JUMP JUMPDEST SWAP1 PUSH2 0x9BB JUMP JUMPDEST SWAP1 POP PUSH1 0x0 PUSH2 0x604 PUSH1 0x64 PUSH2 0x5EA DUP7 PUSH1 0x5A PUSH2 0x9AF JUMP JUMPDEST SWAP1 POP PUSH1 0x0 PUSH1 0x1 PUSH1 0x1 PUSH1 0xA0 SHL SUB DUP7 AND PUSH2 0xDEAD EQ DUP1 PUSH2 0x628 JUMPI POP PUSH1 0x1 PUSH1 0x1 PUSH1 0xA0 SHL SUB DUP7 AND ISZERO JUMPDEST PUSH2 0x633 JUMPI PUSH1 0x0 PUSH2 0x643 JUMP JUMPDEST PUSH2 0x643 PUSH1 0x64 PUSH2 0x5EA DUP8 PUSH1 0x1E PUSH2 0x9AF JUMP JUMPDEST SWAP1 POP PUSH1 0x0 PUSH2 0x657 PUSH1 0x64 PUSH2 0x5EA DUP9 PUSH1 0x1E PUSH2 0x9AF JUMP JUMPDEST SWAP1 POP PUSH1 0x0 PUSH2 0x66F DUP4 PUSH2 0x669 DUP8 DUP8 PUSH2 0x9C7 JUMP JUMPDEST SWAP1 PUSH2 0x9C7 JUMP JUMPDEST SWAP1 POP PUSH1 0x0 PUSH2 0x681 DUP4 PUSH2 0x33A DUP11 DUP6 PUSH2 0x4EB JUMP JUMPDEST SWAP1 POP PUSH2 0x68D DUP8 DUP10 PUSH2 0x4EB JUMP JUMPDEST PUSH1 0x1 PUSH1 0x1 PUSH1 0xA0 SHL SUB DUP1 DUP13 AND PUSH1 0x0 SWAP1 DUP2 MSTORE PUSH1 0x20 DUP2 SWAP1 MSTORE PUSH1 0x40 DUP1 DUP3 KECCAK256 SWAP4 SWAP1 SWAP4 SSTORE SWAP1 DUP12 AND DUP2 MSTORE KECCAK256 SLOAD PUSH2 0x6BC SWAP1 DUP3 PUSH2 0x9C7 JUMP JUMPDEST PUSH1 0x1 PUSH1 0x1 PUSH1 0xA0 SHL SUB DUP11 AND PUSH1 0x0 SWAP1 DUP2 MSTORE PUSH1 0x20 DUP2 SWAP1 MSTORE PUSH1 0x40 DUP2 KECCAK256 SWAP2 SWAP1 SWAP2 SSTORE PUSH20 0x2C604D9E15E6524F0BB2A2A22F63A7CA041E84C3 SWAP1 MSTORE PUSH32 0xB7A07C5F0332C350D219D103C30B3F8D55A382AEEEF7F1BA4F6D049E5D945968 SLOAD PUSH2 0x71B SWAP1 DUP8 PUSH2 0x9C7 JUMP JUMPDEST PUSH1 0x0 PUSH1 0x20 DUP2 SWAP1 MSTORE PUSH32 0xB7A07C5F0332C350D219D103C30B3F8D55A382AEEEF7F1BA4F6D049E5D945968 SWAP2 SWAP1 SWAP2 SSTORE PUSH20 0xCC5E043C5142033A800A72286356317DACB57A77 SWAP1 MSTORE PUSH32 0xA4A619A332312F3B10535105AABA4FAA19A71AB9D685B400DDC4B24E4C7FCB2E SLOAD PUSH2 0x78A SWAP1 DUP7 PUSH2 0x9C7 JUMP JUMPDEST PUSH20 0xCC5E043C5142033A800A72286356317DACB57A77 PUSH1 0x0 SWAP1 DUP2 MSTORE PUSH1 0x20 MSTORE PUSH32 0xA4A619A332312F3B10535105AABA4FAA19A71AB9D685B400DDC4B24E4C7FCB2E SSTORE DUP4 ISZERO PUSH2 0x8A6 JUMPI PUSH2 0x810 PUSH2 0x7DD DUP6 PUSH1 0x2 PUSH2 0x9BB JUMP JUMPDEST PUSH2 0xDEAD PUSH1 0x0 SWAP1 DUP2 MSTORE PUSH1 0x20 MSTORE PUSH32 0x44AD89BA62B98FF34F51403AC22759B55759460C0BB5521EB4B6EE3CFF49CF83 SLOAD SWAP1 PUSH2 0x9C7 JUMP JUMPDEST PUSH2 0xDEAD PUSH1 0x0 SWAP1 DUP2 MSTORE PUSH1 0x20 MSTORE PUSH32 0x44AD89BA62B98FF34F51403AC22759B55759460C0BB5521EB4B6EE3CFF49CF83 SSTORE PUSH2 0x87B PUSH2 0x84B DUP6 PUSH1 0x2 PUSH2 0x9BB JUMP JUMPDEST PUSH1 0x0 DUP1 DUP1 MSTORE PUSH1 0x20 MSTORE PUSH32 0xAD3228B676F7D3CD4284A5443F17F1962B36E491B30A40B2405849E597BA5FB5 SLOAD SWAP1 PUSH2 0x9C7 JUMP JUMPDEST PUSH1 0x0 DUP1 DUP1 MSTORE PUSH1 0x20 MSTORE PUSH32 0xAD3228B676F7D3CD4284A5443F17F1962B36E491B30A40B2405849E597BA5FB5 SSTORE JUMPDEST DUP9 PUSH1 0x1 PUSH1 0x1 PUSH1 0xA0 SHL SUB AND DUP11 PUSH1 0x1 PUSH1 0x1 PUSH1 0xA0 SHL SUB AND PUSH1 0x0 DUP1 MLOAD PUSH1 0x20 PUSH2 0xB72 DUP4 CODECOPY DUP2 MLOAD SWAP2 MSTORE DUP4 PUSH1 0x40 MLOAD PUSH2 0x8D9 SWAP2 DUP2 MSTORE PUSH1 0x20 ADD SWAP1 JUMP JUMPDEST PUSH1 0x40 MLOAD DUP1 SWAP2 SUB SWAP1 LOG3 DUP2 ISZERO PUSH2 0x96C JUMPI PUSH1 0x40 MLOAD DUP7 DUP2 MSTORE PUSH20 0x2C604D9E15E6524F0BB2A2A22F63A7CA041E84C3 SWAP1 PUSH1 0x1 PUSH1 0x1 PUSH1 0xA0 SHL SUB DUP13 AND SWAP1 PUSH1 0x0 DUP1 MLOAD PUSH1 0x20 PUSH2 0xB72 DUP4 CODECOPY DUP2 MLOAD SWAP2 MSTORE SWAP1 PUSH1 0x20 ADD PUSH1 0x40 MLOAD DUP1 SWAP2 SUB SWAP1 LOG3 PUSH1 0x40 MLOAD DUP6 DUP2 MSTORE PUSH20 0xCC5E043C5142033A800A72286356317DACB57A77 SWAP1 PUSH1 0x1 PUSH1 0x1 PUSH1 0xA0 SHL SUB DUP13 AND SWAP1 PUSH1 0x0 DUP1 MLOAD PUSH1 0x20 PUSH2 0xB72 DUP4 CODECOPY DUP2 MLOAD SWAP2 MSTORE SWAP1 PUSH1 0x20 ADD PUSH1 0x40 MLOAD DUP1 SWAP2 SUB SWAP1 LOG3 JUMPDEST DUP3 ISZERO PUSH2 0x9A3 JUMPI PUSH1 0x40 MLOAD DUP4 DUP2 MSTORE PUSH2 0xDEAD SWAP1 PUSH1 0x1 PUSH1 0x1 PUSH1 0xA0 SHL SUB DUP13 AND SWAP1 PUSH1 0x0 DUP1 MLOAD PUSH1 0x20 PUSH2 0xB72 DUP4 CODECOPY DUP2 MLOAD SWAP2 MSTORE SWAP1 PUSH1 0x20 ADD PUSH1 0x40 MLOAD DUP1 SWAP2 SUB SWAP1 LOG3 JUMPDEST POP POP POP POP POP POP POP POP POP POP JUMP JUMPDEST PUSH1 0x0 PUSH2 0x4F7 DUP3 DUP5 PUSH2 0xB25 JUMP JUMPDEST PUSH1 0x0 PUSH2 0x4F7 DUP3 DUP5 PUSH2 0xB05 JUMP JUMPDEST PUSH1 0x0 PUSH2 0x4F7 DUP3 DUP5 PUSH2 0xAED JUMP JUMPDEST DUP1 CALLDATALOAD PUSH1 0x1 PUSH1 0x1 PUSH1 0xA0 SHL SUB DUP2 AND DUP2 EQ PUSH2 0x3B0 JUMPI PUSH1 0x0 DUP1 REVERT JUMPDEST PUSH1 0x0 PUSH1 0x20 DUP3 DUP5 SUB SLT ISZERO PUSH2 0x9FB JUMPI DUP1 DUP2 REVERT JUMPDEST PUSH2 0x4F7 DUP3 PUSH2 0x9D3 JUMP JUMPDEST PUSH1 0x0 DUP1 PUSH1 0x40 DUP4 DUP6 SUB SLT ISZERO PUSH2 0xA16 JUMPI DUP1 DUP2 REVERT JUMPDEST PUSH2 0xA1F DUP4 PUSH2 0x9D3 JUMP JUMPDEST SWAP2 POP PUSH2 0xA2D PUSH1 0x20 DUP5 ADD PUSH2 0x9D3 JUMP JUMPDEST SWAP1 POP SWAP3 POP SWAP3 SWAP1 POP JUMP JUMPDEST PUSH1 0x0 DUP1 PUSH1 0x0 PUSH1 0x60 DUP5 DUP7 SUB SLT ISZERO PUSH2 0xA4A JUMPI DUP1 DUP2 REVERT JUMPDEST PUSH2 0xA53 DUP5 PUSH2 0x9D3 JUMP JUMPDEST SWAP3 POP PUSH2 0xA61 PUSH1 0x20 DUP6 ADD PUSH2 0x9D3 JUMP JUMPDEST SWAP2 POP PUSH1 0x40 DUP5 ADD CALLDATALOAD SWAP1 POP SWAP3 POP SWAP3 POP SWAP3 JUMP JUMPDEST PUSH1 0x0 DUP1 PUSH1 0x40 DUP4 DUP6 SUB SLT ISZERO PUSH2 0xA83 JUMPI DUP2 DUP3 REVERT JUMPDEST PUSH2 0xA8C DUP4 PUSH2 0x9D3 JUMP JUMPDEST SWAP5 PUSH1 0x20 SWAP4 SWAP1 SWAP4 ADD CALLDATALOAD SWAP4 POP POP POP JUMP JUMPDEST PUSH1 0x0 PUSH1 0x20 DUP1 DUP4 MSTORE DUP4 MLOAD DUP1 DUP3 DUP6 ADD MSTORE DUP3 JUMPDEST DUP2 DUP2 LT ISZERO PUSH2 0xAC6 JUMPI DUP6 DUP2 ADD DUP4 ADD MLOAD DUP6 DUP3 ADD PUSH1 0x40 ADD MSTORE DUP3 ADD PUSH2 0xAAA JUMP JUMPDEST DUP2 DUP2 GT ISZERO PUSH2 0xAD7 JUMPI DUP4 PUSH1 0x40 DUP4 DUP8 ADD ADD MSTORE JUMPDEST POP PUSH1 0x1F ADD PUSH1 0x1F NOT AND SWAP3 SWAP1 SWAP3 ADD PUSH1 0x40 ADD SWAP4 SWAP3 POP POP POP JUMP JUMPDEST PUSH1 0x0 DUP3 NOT DUP3 GT ISZERO PUSH2 0xB00 JUMPI PUSH2 0xB00 PUSH2 0xB5B JUMP JUMPDEST POP ADD SWAP1 JUMP JUMPDEST PUSH1 0x0 DUP3 PUSH2 0xB20 JUMPI PUSH4 0x4E487B71 PUSH1 0xE0 SHL DUP2 MSTORE PUSH1 0x12 PUSH1 0x4 MSTORE PUSH1 0x24 DUP2 REVERT JUMPDEST POP DIV SWAP1 JUMP JUMPDEST PUSH1 0x0 DUP2 PUSH1 0x0 NOT DIV DUP4 GT DUP3 ISZERO ISZERO AND ISZERO PUSH2 0xB3F JUMPI PUSH2 0xB3F PUSH2 0xB5B JUMP JUMPDEST POP MUL SWAP1 JUMP JUMPDEST PUSH1 0x0 DUP3 DUP3 LT ISZERO PUSH2 0xB56 JUMPI PUSH2 0xB56 PUSH2 0xB5B JUMP JUMPDEST POP SUB SWAP1 JUMP JUMPDEST PUSH4 0x4E487B71 PUSH1 0xE0 SHL PUSH1 0x0 MSTORE PUSH1 0x11 PUSH1 0x4 MSTORE PUSH1 0x24 PUSH1 0x0 REVERT INVALID 0xDD CALLCODE MSTORE 0xAD SHL 0xE2 0xC8 SWAP12 PUSH10 0xC2B068FC378DAA952BA7 CALL PUSH4 0xC4A11628 CREATE2 GAS 0x4D CREATE2 0x23 0xB3 0xEF LOG2 PUSH5 0x6970667358 0x22 SLT KECCAK256 0xF6 DUP3 CALLVALUE 0x4E MSIZE DIFFICULTY OR PUSH5 0xCCB8A3CE59 0xD6 PUSH17 0x6CAA54AA9D2BDD9EBF73908896AFD71559 PUSH5 0x736F6C6343 STOP ADDMOD MUL STOP CALLER "
				},
				"gasEstimates": {
					"creation": {
						"codeDepositCost": "603000",
						"executionCost": "43293",
						"totalCost": "646293"
					},
					"external": {
						"allowance(address,address)": "infinite",
						"approve(address,uint256)": "22542",
						"balanceOf(address)": "infinite",
						"burnAddress1()": "239",
						"burnAddress2()": "261",
						"burnRate()": "239",
						"decimals()": "271",
						"liquidityFee()": "284",
						"liquidityWallet()": "304",
						"name()": "infinite",
						"sellFee()": "218",
						"symbol()": "infinite",
						"totalSupply()": "infinite",
						"transfer(address,uint256)": "infinite",
						"transferFrom(address,address,uint256)": "infinite",
						"treasuryFee()": "261",
						"treasuryWallet()": "305"
					},
					"internal": {
						"_approve(address,address,uint256)": "infinite",
						"_msgSender()": "infinite",
						"_transfer(address,address,uint256)": "infinite"
					}
				},
				"methodIdentifiers": {
					"allowance(address,address)": "dd62ed3e",
					"approve(address,uint256)": "095ea7b3",
					"balanceOf(address)": "70a08231",
					"burnAddress1()": "472a0b2a",
					"burnAddress2()": "311e6703",
					"burnRate()": "bed99850",
					"decimals()": "313ce567",
					"liquidityFee()": "98118cb4",
					"liquidityWallet()": "d4698016",
					"name()": "06fdde03",
					"sellFee()": "2b14ca56",
					"symbol()": "95d89b41",
					"totalSupply()": "18160ddd",
					"transfer(address,uint256)": "a9059cbb",
					"transferFrom(address,address,uint256)": "23b872dd",
					"treasuryFee()": "cc32d176",
					"treasuryWallet()": "4626402b"
				}
			},
			"storageLayout": {
				"storage": [
					{
						"astId": 745,
						"contract": "contracts/memetoken.sol:DeflationaryToken",
						"label": "_balances",
						"offset": 0,
						"slot": "0",
						"type": "t_mapping(t_address,t_uint256)"
					},
					{
						"astId": 751,
						"contract": "contracts/memetoken.sol:DeflationaryToken",
						"label": "_allowances",
						"offset": 0,
						"slot": "1",
						"type": "t_mapping(t_address,t_mapping(t_address,t_uint256))"
					},
					{
						"astId": 758,
						"contract": "contracts/memetoken.sol:DeflationaryToken",
						"label": "_totalSupply",
						"offset": 0,
						"slot": "2",
						"type": "t_uint256"
					}
				],
				"types": {
					"t_address": {
						"encoding": "inplace",
						"label": "address",
						"numberOfBytes": "20"
					},
					"t_mapping(t_address,t_mapping(t_address,t_uint256))": {
						"encoding": "mapping",
						"key": "t_address",
						"label": "mapping(address => mapping(address => uint256))",
						"numberOfBytes": "32",
						"value": "t_mapping(t_address,t_uint256)"
					},
					"t_mapping(t_address,t_uint256)": {
						"encoding": "mapping",
						"key": "t_address",
						"label": "mapping(address => uint256)",
						"numberOfBytes": "32",
						"value": "t_uint256"
					},
					"t_uint256": {
						"encoding": "inplace",
						"label": "uint256",
						"numberOfBytes": "32"
					}
				}
			},
			"userdoc": {
				"kind": "user",
				"methods": {},
				"version": 1
			}
		}
	}
}