{
	"data": {
		"bytecode": {
			"linkReferences": {},
			"object": "60806040526004805463ffffffff19166301000100179055623c656d6005556402540be4006006556107086007556200003d426301e1338062000d32565b600855600c80546001600160a01b031990811661dead17909155600d805482169055600e80548216732c604d9e15e6524f0bb2a2a22f63a7ca041e84c3179055600f8054821673cc5e043c5142033a800a72286356317dacb57a7717905560108054821673833123d7af220758a5484887ac582d4d39e9ede01790556011805490911673f2732e8048f1a411c63e2df51d08f4f52e5980051790556001601481905560158190556016819055601781905562000122906200010e818062001cff62000894602090811b91909117901c565b6200089460201b62001cff1790919060201c565b601855620001436017546018546200089460201b62001cff1790919060201c565b6019556064601a8190556032601b55601c556103e8620001666012600a62000dad565b6200017690638917370062000e69565b620001849060001962000f00565b620001929060001962000e8b565b6200019e919062000d4d565b602055348015620001ae57600080fd5b50604080518082018252601181527020b7323932bb902a30ba32902a37b5b2b760791b602080830191825283518085019094526004845263544f504760e01b90840152815191929160129162000208916000919062000c3a565b5081516200021e90600190602085019062000c3a565b506002805460ff191660ff9290921691909117905550620002489050620002423390565b620008ab565b6001600355601280546001600160a01b03191673ceeb22faf32ff4ead24565225503807e41e5fe879081179091556040805163c45a015560e01b8152905163c45a015591600480820192602092909190829003018186803b158015620002ad57600080fd5b505afa158015620002c2573d6000803e3d6000fd5b505050506040513d601f19601f82011682018060405250810190620002e8919062000ce0565b6001600160a01b031663c9c6539630601260009054906101000a90046001600160a01b03166001600160a01b031663ad5c46486040518163ffffffff1660e01b815260040160206040518083038186803b1580156200034657600080fd5b505afa1580156200035b573d6000803e3d6000fd5b505050506040513d601f19601f8201168201806040525081019062000381919062000ce0565b6040516001600160e01b031960e085901b1681526001600160a01b03928316600482015291166024820152604401602060405180830381600087803b158015620003ca57600080fd5b505af1158015620003df573d6000803e3d6000fd5b505050506040513d601f19601f8201168201806040525081019062000405919062000ce0565b601380546001600160a01b0319166001600160a01b039283161790556012546040805163c45a015560e01b81529051600093929092169163c45a015591600480820192602092909190829003018186803b1580156200046357600080fd5b505afa15801562000478573d6000803e3d6000fd5b505050506040513d601f19601f820116820180604052508101906200049e919062000ce0565b6011546040516364e329cb60e11b81523060048201526001600160a01b03918216602482015291169063c9c6539690604401602060405180830381600087803b158015620004eb57600080fd5b505af115801562000500573d6000803e3d6000fd5b505050506040513d601f19601f8201168201806040525081019062000526919062000ce0565b3060008181526022602090815260408083206012546001600160a01b039081168552925280832060001990819055601380548416855282852082905594845281842081905585831684529220919091559054919250620005899116600162000905565b6200059681600162000905565b620005a46012600a62000dad565b620005b490638917370062000e69565b601e55620005c56012600a62000dad565b620005d590638917370062000e69565b620005e39060001962000f00565b620005f19060001962000e8b565b33600090815260216020526040902055601e546200065790620006176012600a62000dad565b6200062790638917370062000e69565b620006359060001962000f00565b620006439060001962000e8b565b62000bc860201b62001d0b1790919060201c565b601f55600f546001600160a01b039081166000908152600960205260408082208054600160ff199182168117909255601054851684528284208054821683179055308452828420805482168317905533845292829020805490931617909155601154601254915163095ea7b360e01b8152918316600483015260001960248301529091169063095ea7b390604401602060405180830381600087803b1580156200070057600080fd5b505af115801562000715573d6000803e3d6000fd5b505050506040513d601f19601f820116820180604052508101906200073b919062000d10565b5060115460405163095ea7b360e01b81526001600160a01b03838116600483015260001960248301529091169063095ea7b390604401602060405180830381600087803b1580156200078c57600080fd5b505af1158015620007a1573d6000803e3d6000fd5b505050506040513d601f19601f82011682018060405250810190620007c7919062000d10565b5060115460405163095ea7b360e01b815230600482015260001960248201526001600160a01b039091169063095ea7b390604401602060405180830381600087803b1580156200081657600080fd5b505af11580156200082b573d6000803e3d6000fd5b505050506040513d601f19601f8201168201806040525081019062000851919062000d10565b50601e5460405190815233906000907fddf252ad1be2c89b69c2b068fc378daa952ba7f163c4a11628f55a4df523b3ef9060200160405180910390a35062000f43565b6000620008a2828462000d32565b90505b92915050565b600280546001600160a01b03838116610100818102610100600160a81b031985161790945560405193909204169182907f8be0079c531659141344cd1fd0a4f28419497f9722a3daafe3b4186f6b6457e090600090a35050565b6200090f62000bd6565b6001600160a01b0382166000908152600b602052604090205460ff1615158115151415620009785760405162461bcd60e51b815260206004820152601160248201527015985b1d5948185b1c9958591e481cd95d607a1b60448201526064015b60405180910390fd5b6001600160a01b0382166000908152600b60205260409020805460ff19168215801591909117909155620009f757600a80546001810182556000919091527fc65a7bb8d6351c1cf70c95a316cc6a92839c986682d98bc35f958f4883f9d2a80180546001600160a01b0319166001600160a01b03841617905562000b8c565b600a5460011062000a3d5760405162461bcd60e51b815260206004820152600f60248201526e2932b8bab4b932b21018903830b4b960891b60448201526064016200096f565b60005b600a5481101562000b8a57826001600160a01b0316600a828154811062000a7757634e487b7160e01b600052603260045260246000fd5b6000918252602090912001546001600160a01b0316141562000b7557600a805462000aa59060019062000e8b565b8154811062000ac457634e487b7160e01b600052603260045260246000fd5b600091825260209091200154600a80546001600160a01b03909216918390811062000aff57634e487b7160e01b600052603260045260246000fd5b9060005260206000200160006101000a8154816001600160a01b0302191690836001600160a01b03160217905550600a80548062000b4d57634e487b7160e01b600052603160045260246000fd5b600082815260209020810160001990810180546001600160a01b031916905501905562000b8a565b8062000b818162000ee2565b91505062000a40565b505b604051811515906001600160a01b038416907fffa9187bf1f18bf477bd0ea1bcbb64e93b6a98132473929edfce215cd9b16fab90600090a35050565b6000620008a2828462000d4d565b6002546001600160a01b0361010090910416331462000c385760405162461bcd60e51b815260206004820181905260248201527f4f776e61626c653a2063616c6c6572206973206e6f7420746865206f776e657260448201526064016200096f565b565b82805462000c489062000ea5565b90600052602060002090601f01602090048101928262000c6c576000855562000cb7565b82601f1062000c8757805160ff191683800117855562000cb7565b8280016001018555821562000cb7579182015b8281111562000cb757825182559160200191906001019062000c9a565b5062000cc592915062000cc9565b5090565b5b8082111562000cc5576000815560010162000cca565b60006020828403121562000cf2578081fd5b81516001600160a01b038116811462000d09578182fd5b9392505050565b60006020828403121562000d22578081fd5b8151801515811462000d09578182fd5b6000821982111562000d485762000d4862000f17565b500190565b60008262000d5f5762000d5f62000f2d565b500490565b600181815b8085111562000da557816000190482111562000d895762000d8962000f17565b8085161562000d9757918102915b93841c939080029062000d69565b509250929050565b6000620008a2838360008262000dc657506001620008a5565b8162000dd557506000620008a5565b816001811462000dee576002811462000df95762000e19565b6001915050620008a5565b60ff84111562000e0d5762000e0d62000f17565b50506001821b620008a5565b5060208310610133831016604e8410600b841016171562000e3e575081810a620008a5565b62000e4a838362000d64565b806000190482111562000e615762000e6162000f17565b029392505050565b600081600019048311821515161562000e865762000e8662000f17565b500290565b60008282101562000ea05762000ea062000f17565b500390565b600181811c9082168062000eba57607f821691505b6020821081141562000edc57634e487b7160e01b600052602260045260246000fd5b50919050565b600060001982141562000ef95762000ef962000f17565b5060010190565b60008262000f125762000f1262000f2d565b500690565b634e487b7160e01b600052601160045260246000fd5b634e487b7160e01b600052601260045260246000fd5b6132148062000f536000396000f3fe60806040526004361061039b5760003560e01c8063835439c7116101dc578063a98ad46c11610102578063d51ed1c8116100a0578063e15beb801161006f578063e15beb8014610a47578063e1d5584c14610a67578063f2fde38b14610a87578063f887ea4014610aa757600080fd5b8063d51ed1c8146109ab578063d7832b11146109cb578063d7c01032146109e1578063dd62ed3e14610a0157600080fd5b8063cc32d176116100dc578063cc32d17614610922578063d088935814610938578063d1fce26414610958578063d43997901461097257600080fd5b8063a98ad46c146108bc578063b62496f5146108dc578063bc7e68a31461090c57600080fd5b80639763eec41161017a5780639d9241ec116101495780639d9241ec14610846578063a457c2d71461085c578063a8aa1b311461087c578063a9059cbb1461089c57600080fd5b80639763eec4146107da57806398118cb4146107f05780639a7a23d6146108065780639ae7372d1461082657600080fd5b80638ebfc796116101b65780638ebfc796146107855780639079f932146107a557806392f6576e1461067657806395d89b41146107c557600080fd5b8063835439c71461072b57806389375abf1461074c5780638da5cb5b1461076257600080fd5b8063313ce567116102c15780636ddd17131161025f578063753d02a11161022e578063753d02a1146106c0578063764d72bf146106d55780637d4b5017146106f55780638102c5701461071557600080fd5b80636ddd1713146106575780636def69e11461067657806370a082311461068b578063715018a6146106ab57600080fd5b8063544727bc1161029b578063544727bc146105f757806359b107b91461061757806361a9d1b11461062d5780636d351d1a1461064257600080fd5b8063313ce5671461059557806339509351146105b75780634cd9ddf2146105d757600080fd5b80631161ae3911610339578063201e799111610308578063201e79911461052057806323b872dd14610540578063264d26dd146105605780632b112e491461058057600080fd5b80631161ae39146104b55780631276089b146104d5578063180b0d7e146104f557806318160ddd1461050b57600080fd5b806308b1fd8f1161037557806308b1fd8f14610414578063095ea7b31461044c5780630af083141461047c5780630e30b850146104a057600080fd5b806301b16827146103a757806304a66b48146103c957806306fdde03146103e957600080fd5b366103a257005b600080fd5b3480156103b357600080fd5b506103c76103c2366004612e81565b610ac7565b005b3480156103d557600080fd5b506103c76103e4366004612ecf565b610b17565b3480156103f557600080fd5b506103fe610d0c565b60405161040b9190612f09565b60405180910390f35b34801561042057600080fd5b50600f54610434906001600160a01b031681565b6040516001600160a01b03909116815260200161040b565b34801561045857600080fd5b5061046c610467366004612dda565b610d9e565b604051901515815260200161040b565b34801561048857600080fd5b5061049260055481565b60405190815260200161040b565b3480156104ac57600080fd5b50610492600381565b3480156104c157600080fd5b5061046c6104d0366004612e81565b610e0b565b3480156104e157600080fd5b506103c76104f0366004612e05565b610e1f565b34801561050157600080fd5b50610492601a5481565b34801561051757600080fd5b50601e54610492565b34801561052c57600080fd5b506103c761053b366004612e81565b610eb6565b34801561054c57600080fd5b5061046c61055b366004612d66565b610efe565b34801561056c57600080fd5b50600e54610434906001600160a01b031681565b34801561058c57600080fd5b50610492611022565b3480156105a157600080fd5b5060025460405160ff909116815260200161040b565b3480156105c357600080fd5b5061046c6105d2366004612dda565b6110a2565b3480156105e357600080fd5b506103c76105f2366004612e51565b611127565b34801561060357600080fd5b506103c7610612366004612e05565b6111a1565b34801561062357600080fd5b5061049260185481565b34801561063957600080fd5b506103c7611245565b34801561064e57600080fd5b5061049261133f565b34801561066357600080fd5b5060045461046c90610100900460ff1681565b34801561068257600080fd5b50610492600581565b34801561069757600080fd5b506104926106a6366004612cac565b611358565b3480156106b757600080fd5b506103c7611380565b3480156106cc57600080fd5b506103c7611392565b3480156106e157600080fd5b506103c76106f0366004612cac565b61144f565b34801561070157600080fd5b50601054610434906001600160a01b031681565b34801561072157600080fd5b5061049260175481565b34801561073757600080fd5b5060045461046c906301000000900460ff1681565b34801561075857600080fd5b5061049260075481565b34801561076e57600080fd5b5060025461010090046001600160a01b0316610434565b34801561079157600080fd5b506103c76107a0366004612da6565b6114c9565b3480156107b157600080fd5b5060045461046c9062010000900460ff1681565b3480156107d157600080fd5b506103fe61158a565b3480156107e657600080fd5b5061049260165481565b3480156107fc57600080fd5b5061049260145481565b34801561081257600080fd5b506103c7610821366004612da6565b611599565b34801561083257600080fd5b506103c7610841366004612e51565b61185e565b34801561085257600080fd5b5061049260195481565b34801561086857600080fd5b5061046c610877366004612dda565b61189b565b34801561088857600080fd5b50601354610434906001600160a01b031681565b3480156108a857600080fd5b5061046c6108b7366004612dda565b611982565b3480156108c857600080fd5b50601154610434906001600160a01b031681565b3480156108e857600080fd5b5061046c6108f7366004612cac565b600b6020526000908152604090205460ff1681565b34801561091857600080fd5b5061049260085481565b34801561092e57600080fd5b5061049260155481565b34801561094457600080fd5b506103c7610953366004612e1f565b6119f1565b34801561096457600080fd5b5060045461046c9060ff1681565b34801561097e57600080fd5b5061046c61098d366004612cac565b6001600160a01b031660009081526009602052604090205460ff1690565b3480156109b757600080fd5b506104926109c6366004612e51565b611a98565b3480156109d757600080fd5b5061049260065481565b3480156109ed57600080fd5b506103c76109fc366004612d1c565b611b3a565b348015610a0d57600080fd5b50610492610a1c366004612ce4565b6001600160a01b03918216600090815260226020908152604080832093909416825291909152205490565b348015610a5357600080fd5b506103c7610a62366004612e05565b611bbe565b348015610a7357600080fd5b50610434610a82366004612e51565b611c5f565b348015610a9357600080fd5b506103c7610aa2366004612cac565b611c89565b348015610ab357600080fd5b50601254610434906001600160a01b031681565b610acf611d17565b6005829055600681905560408051838152602081018390527f3f34134cbdd92374af629b5ba82900de3e5301e7206333e1463e306916507d5691015b60405180910390a15050565b610b1f611d17565b60058511158015610b31575060058411155b8015610b3e575060058311155b8015610b4b575060058211155b610b845760405162461bcd60e51b815260206004820152600560248201526477726f6e6760d81b60448201526064015b60405180910390fd5b6014859055601684905560158390556017829055610bac84610ba68786611cff565b90611cff565b6018819055601754610bbe9190611cff565b60195560185460031015610c145760405162461bcd60e51b815260206004820152601960248201527f546f74616c204255592066656520697320746f6f2068696768000000000000006044820152606401610b7b565b60056019541115610c675760405162461bcd60e51b815260206004820152601a60248201527f546f74616c2053454c4c2066656520697320746f6f20686967680000000000006044820152606401610b7b565b601a819055610c77600482612fe4565b60185410610cb55760405162461bcd60e51b815260206004820152600b60248201526a746f74616c42757946656560a81b6044820152606401610b7b565b604080518681526020810186905290810184905260608101839052608081018290527f881c278b86ef48391462a184ea0f2a579fec4c752524d2982eb0e2c9a956b7a39060a0015b60405180910390a15050505050565b606060008054610d1b90613119565b80601f0160208091040260200160405190810160405280929190818152602001828054610d4790613119565b8015610d945780601f10610d6957610100808354040283529160200191610d94565b820191906000526020600020905b815481529060010190602001808311610d7757829003601f168201915b5050505050905090565b3360008181526022602090815260408083206001600160a01b038716808552925280832085905551919290917f8c5be1e5ebec7d5bd14f71427d1e84f3dd0314c0f7b2291e5b200ac8c7c3b92590610df99086815260200190565b60405180910390a35060015b92915050565b600082610e1783611a98565b119392505050565b610e27611d17565b60045460ff1615158115151415610e6e5760405162461bcd60e51b815260206004820152600b60248201526a139bdd0818da185b99d95960aa1b6044820152606401610b7b565b6004805460ff19168215159081179091556040519081527f7ff743f3545e37dc045546239e43c5339aa2a94f682e0350554fb0fb044ed376906020015b60405180910390a150565b610ebe611d17565b601b829055601c81905560408051838152602081018390527f61b037fbf40888c3d344a3dfa6986a7d511feda40cac15b93162e3e21713aed69101610b0b565b6000826001600160a01b038116610f575760405162461bcd60e51b815260206004820152601660248201527f526563697069656e74207a65726f2061646472657373000000000000000000006044820152606401610b7b565b6001600160a01b03851660009081526022602090815260408083203384529091529020546000191461100b57604080518082018252601681527f496e73756666696369656e7420416c6c6f77616e6365000000000000000000006020808301919091526001600160a01b0388166000908152602282528381203382529091529190912054610fe6918590611d77565b6001600160a01b03861660009081526022602090815260408083203384529091529020555b611016858585611da3565b50600195945050505050565b601f54600d546001600160a01b0390811660009081526021602052604080822054600c549093168252812054909261109d92909161109791906110919061106b6012600a61303b565b6110799063891737006130e3565b6110859060001961316f565b61109190600019613102565b90611ff6565b90611d0b565b905090565b3360009081526022602090815260408083206001600160a01b03861684529091528120546110d09083611cff565b3360008181526022602090815260408083206001600160a01b038916808552908352928190208590555193845290927f8c5be1e5ebec7d5bd14f71427d1e84f3dd0314c0f7b2291e5b200ac8c7c3b9259101610df9565b61112f611d17565b61070881111561116c5760405162461bcd60e51b81526020600482015260086024820152670a8dede40d0d2ced60c31b6044820152606401610b7b565b60078190556040518181527f2b437b36906bbacfbc05b761a7c548a2789a8f89f67286f88e93b04560822bc790602001610eab565b6111a9611d17565b60045460ff630100000090910416151581151514156111f85760405162461bcd60e51b815260206004820152600b60248201526a139bdd0818da185b99d95960aa1b6044820152606401610b7b565b6004805482151563010000000263ff000000199091161790556040517f83e471af05d20b81366748ebaab0192fabe382e712b4f6eb181d018c41a799a790610eab90831515815260200190565b61124d612002565b601d5460ff161561128c5760405162461bcd60e51b81526020600482015260096024820152682a393c9030b3b0b4b760b91b6044820152606401610b7b565b4260085411156112cc5760405162461bcd60e51b815260206004820152600b60248201526a4e6f7420696e2074696d6560a81b6044820152606401610b7b565b60006112eb600654611097600554601e5461205c90919063ffffffff16565b90506112f681612068565b506112ff611392565b6040518181527f612668bb4420df7d3f2fcc122dfd5fd434dc0cb2e1dce1b8180712f9200677119060200160405180910390a15061133d6001600355565b565b600061109d601f54602054611d0b90919063ffffffff16565b601f546001600160a01b0382166000908152602160205260408120549091610e059190611d0b565b611388611d17565b61133d6000612177565b60005b600a5481101561144c57600a81815481106113c057634e487b7160e01b600052603260045260246000fd5b6000918252602082200154604080517ffff6cae900000000000000000000000000000000000000000000000000000000815290516001600160a01b039092169263fff6cae99260048084019382900301818387803b15801561142157600080fd5b505af1158015611435573d6000803e3d6000fd5b50505050808061144490613154565b915050611395565b50565b611457611d17565b60405147906001600160a01b0383169082156108fc029083906000818181858888f1935050505015801561148f573d6000803e3d6000fd5b506040516001600160a01b03831681527f2f0f983bc447da14da80ef6b41a88ab1ea636129df3a6af92b870934d6802a8590602001610b0b565b6114d1611d17565b6001600160a01b03821660009081526009602052604090205460ff161515811515141561152e5760405162461bcd60e51b815260206004820152600b60248201526a139bdd0818da185b99d95960aa1b6044820152606401610b7b565b6001600160a01b038216600081815260096020908152604091829020805460ff19168515159081179091558251938452908301527f6be51401060be42994125d8c96b787433e7a641a3555e3c3c4765e8a950fa37a9101610b0b565b606060018054610d1b90613119565b6115a1611d17565b6001600160a01b0382166000908152600b602052604090205460ff16151581151514156116105760405162461bcd60e51b815260206004820152601160248201527f56616c756520616c7265616479207365740000000000000000000000000000006044820152606401610b7b565b6001600160a01b0382166000908152600b60205260409020805460ff1916821580159190911790915561168d57600a80546001810182556000919091527fc65a7bb8d6351c1cf70c95a316cc6a92839c986682d98bc35f958f4883f9d2a80180546001600160a01b0319166001600160a01b038416179055611822565b600a546001106116df5760405162461bcd60e51b815260206004820152600f60248201527f52657175697265642031207061697200000000000000000000000000000000006044820152606401610b7b565b60005b600a5481101561182057826001600160a01b0316600a828154811061171757634e487b7160e01b600052603260045260246000fd5b6000918252602090912001546001600160a01b0316141561180e57600a805461174290600190613102565b8154811061176057634e487b7160e01b600052603260045260246000fd5b600091825260209091200154600a80546001600160a01b03909216918390811061179a57634e487b7160e01b600052603260045260246000fd5b9060005260206000200160006101000a8154816001600160a01b0302191690836001600160a01b03160217905550600a8054806117e757634e487b7160e01b600052603160045260246000fd5b600082815260209020810160001990810180546001600160a01b0319169055019055611820565b8061181881613154565b9150506116e2565b505b604051811515906001600160a01b038416907fffa9187bf1f18bf477bd0ea1bcbb64e93b6a98132473929edfce215cd9b16fab90600090a35050565b611866611d17565b60088190556040518181527fde97971104f1e2ea739b6fa6bd7a7eb834d3ed54ffa08425c5eb48ed9fbc27b690602001610eab565b3360009081526022602090815260408083206001600160a01b03861684529091528120548083106118ef573360009081526022602090815260408083206001600160a01b038816845290915281205561191e565b6118f98184611ff6565b3360009081526022602090815260408083206001600160a01b03891684529091529020555b3360008181526022602090815260408083206001600160a01b038916808552908352928190205490519081529192917f8c5be1e5ebec7d5bd14f71427d1e84f3dd0314c0f7b2291e5b200ac8c7c3b925910160405180910390a35060019392505050565b6000826001600160a01b0381166119db5760405162461bcd60e51b815260206004820152601660248201527f526563697069656e74207a65726f2061646472657373000000000000000000006044820152606401610b7b565b6119e6338585611da3565b506001949350505050565b6119f9611d17565b6004805461ff00191661010085151502179055611a4c82611a4683611a206012600a61303b565b611a2e9063891737006130e3565b611a3a9060001961316f565b61109790600019613102565b9061205c565b602090815560408051851515815291820184905281018290527f512cfe1aedabdc06d12a680ace7434d88a9532c8853515536842f5ff52cbe55a906060015b60405180910390a1505050565b600080805b600a54811015611b0a57611af7611af0633b9aca00611097600a8581548110611ad657634e487b7160e01b600052603260045260246000fd5b6000918252602090912001546001600160a01b0316611358565b8390611cff565b5080611b0281613154565b915050611a9d565b50611b33611b1e633b9aca00611097611022565b611097611b2c84600261205c565b869061205c565b9392505050565b611b42611d17565b600e80546001600160a01b038581166001600160a01b03199283168117909355600f8054868316908416811790915560108054928616929093168217909255604080519384526020840192909252908201527fb923dcdfa226a9163e9324bacc07634c44fc26e1268f8341bc0989d83f4794b890606001611a8b565b611bc6611d17565b60045460ff620100009091041615158115151415611c145760405162461bcd60e51b815260206004820152600b60248201526a139bdd0818da185b99d95960aa1b6044820152606401610b7b565b60048054821515620100000262ff0000199091161790556040517f76a3b4a2762dae8901450e92a099b166b4ec4b38d2509a67740a4d48fc64246090610eab90831515815260200190565b600a8181548110611c6f57600080fd5b6000918252602090912001546001600160a01b0316905081565b611c91611d17565b6001600160a01b038116611cf65760405162461bcd60e51b815260206004820152602660248201527f4f776e61626c653a206e6577206f776e657220697320746865207a65726f206160448201526564647265737360d01b6064820152608401610b7b565b61144c81612177565b6000611b338284612fcc565b6000611b338284612fe4565b6002546001600160a01b0361010090910416331461133d5760405162461bcd60e51b815260206004820181905260248201527f4f776e61626c653a2063616c6c6572206973206e6f7420746865206f776e65726044820152606401610b7b565b60008184841115611d9b5760405162461bcd60e51b8152600401610b7b9190612f09565b505050900390565b6001600160a01b038316600090815260096020526040812054819060ff1680611de457506001600160a01b03841660009081526009602052604090205460ff165b60045490915060ff1680611df55750805b611e415760405162461bcd60e51b815260206004820152601360248201527f54726164696e67206e6f742073746172746564000000000000000000000000006044820152606401610b7b565b601d5460ff1615611e5f57611e578585856121de565b915050611b33565b6000611e76601f548561205c90919063ffffffff16565b9050611e806122b2565b15611e8d57611e8d61232c565b6001600160a01b038616600090815260216020526040902054611eb09082611ff6565b6001600160a01b038716600090815260216020526040812091909155611ed687876124d5565b611ee05781611eeb565b611eeb878784612567565b6001600160a01b038716600090815260216020526040902054909150611f119082611cff565b6001600160a01b03808816600081815260216020526040902092909255601f54908916907fddf252ad1be2c89b69c2b068fc378daa952ba7f163c4a11628f55a4df523b3ef90611f62908590611d0b565b60405190815260200160405180910390a36008544210158015611f8d575060045462010000900460ff165b15611fe957611f9a612637565b6001600160a01b0387166000908152600b602052604090205460ff16158015611fdc57506001600160a01b0386166000908152600b602052604090205460ff16155b15611fe957611fe9611392565b5060019695505050505050565b6000611b338284613102565b600260035414156120555760405162461bcd60e51b815260206004820152601f60248201527f5265656e7472616e637947756172643a207265656e7472616e742063616c6c006044820152606401610b7b565b6002600355565b6000611b3382846130e3565b600042826120b657807f72725a3b1e5bd622d6bcd1339bb31279c351abe8f541ac7fd320f24e1b1641f2601e546040516120a491815260200190565b60405180910390a25050601e54919050565b60008312156120dc576120d46120cb84613183565b601e5490611ff6565b601e556120ed565b601e546120e99084611cff565b601e555b601e546fffffffffffffffffffffffffffffffff101561211c576fffffffffffffffffffffffffffffffff601e555b601e5461212f90611a206012600a61303b565b601f5560075461213f9082612fcc565b600855601e5460405190815281907f72725a3b1e5bd622d6bcd1339bb31279c351abe8f541ac7fd320f24e1b1641f2906020016120a4565b600280546001600160a01b0383811661010081810274ffffffffffffffffffffffffffffffffffffffff001985161790945560405193909204169182907f8be0079c531659141344cd1fd0a4f28419497f9722a3daafe3b4186f6b6457e090600090a35050565b6000806121f6601f548461205c90919063ffffffff16565b6001600160a01b03861660009081526021602052604090205490915061221c9082611ff6565b6001600160a01b03808716600090815260216020526040808220939093559086168152205461224b9082611cff565b6001600160a01b0380861660008181526021602052604090819020939093559151908716907fddf252ad1be2c89b69c2b068fc378daa952ba7f163c4a11628f55a4df523b3ef9061229f9087815260200190565b60405180910390a3506001949350505050565b336000908152600b602052604081205460ff161580156122d55750601d5460ff16155b80156122e85750600454610100900460ff165b801561230a57506000612308601954601854611cff90919063ffffffff16565b115b801561109d575050602080543060009081526021909252604090912054101590565b601d5460ff161561237f5760405162461bcd60e51b815260206004820152601f60248201527f5265656e7472616e637947756172643a207265656e7472616e742063616c6c006044820152606401610b7b565b601d805460ff1916600117905560195460185460009161239f9190611cff565b905060006123b1601b54601c54610e0b565b6123bd576014546123c0565b60005b601f5430600090815260216020526040812054929350916123e091611d0b565b905060006123fd846110976123f686600261205c565b859061205c565b9050600061241e85611097611b2c600260165461205c90919063ffffffff16565b90506000612430826110918686611ff6565b90508215612441576124418361266f565b811561245e5760105461245e9083906001600160a01b0316612854565b801561247b57600f5461247b9082906001600160a01b0316612854565b6040805185815260208101859052908101839052606081018290527fa4903880285538fa6ffa51cad044f25c39cc7f89aa6cbbda844135ff94827edf9060800160405180910390a15050601d805460ff1916905550505050565b6001600160a01b03821660009081526009602052604081205460ff168061251457506001600160a01b03821660009081526009602052604090205460ff165b1561252157506000610e05565b6001600160a01b0383166000908152600b602052604090205460ff168061256057506001600160a01b0382166000908152600b602052604090205460ff165b9050610e05565b6018546001600160a01b0383166000908152600b602052604081205490919060ff161561259357506019545b601a546000906125a790611097868561205c565b306000908152602160205260409020549091506125c49082611cff565b30600081815260216020526040902091909155601f546001600160a01b038816907fddf252ad1be2c89b69c2b068fc378daa952ba7f163c4a11628f55a4df523b3ef90612612908590611d0b565b60405190815260200160405180910390a361262d8482611ff6565b9695505050505050565b601d5460ff1661133d576000612660600654611097600554601e5461205c90919063ffffffff16565b905061266b81612068565b5050565b600061267c826002611d0b565b9050600061268a8383611ff6565b6004549091506301000000900460ff161561270057476126aa8330612854565b60006126b64783611ff6565b90506126c283826129c1565b60408051858152602081018390529081018490527f17bbfb9a6069321b6ded73bd96327c9e6b7212a5cd51ff219cd61370acafb56190606001610cfd565b6011546040516370a0823160e01b81523060048201526000916001600160a01b0316906370a082319060240160206040518083038186803b15801561274457600080fd5b505afa158015612758573d6000803e3d6000fd5b505050506040513d601f19601f8201168201806040525081019061277c9190612e69565b90506127888330612a6c565b6011546040516370a0823160e01b815230600482015260009161280a9184916001600160a01b0316906370a082319060240160206040518083038186803b1580156127d257600080fd5b505afa1580156127e6573d6000803e3d6000fd5b505050506040513d601f19601f820116820180604052508101906110919190612e69565b90506128168382612be3565b60408051858152602081018390529081018490527f558e8efb161691189a8c7d8e35d5831fd8efc87c53c587fddcd4f574d7c8c8cf90606001610cfd565b604080516002808252606082018352600092602083019080368337019050509050308160008151811061289757634e487b7160e01b600052603260045260246000fd5b6001600160a01b03928316602091820292909201810191909152601254604080516315ab88c960e31b81529051919093169263ad5c4648926004808301939192829003018186803b1580156128eb57600080fd5b505afa1580156128ff573d6000803e3d6000fd5b505050506040513d601f19601f820116820180604052508101906129239190612cc8565b8160018151811061294457634e487b7160e01b600052603260045260246000fd5b6001600160a01b03928316602091820292909201015260125460405163791ac94760e01b815291169063791ac9479061298a908690600090869088904290600401612f5c565b600060405180830381600087803b1580156129a457600080fd5b505af11580156129b8573d6000803e3d6000fd5b50505050505050565b601254600e5460405163f305d71960e01b81523060048201526024810185905260006044820181905260648201526001600160a01b0391821660848201524260a482015291169063f305d71990839060c4016060604051808303818588803b158015612a2c57600080fd5b505af1158015612a40573d6000803e3d6000fd5b50505050506040513d601f19601f82011682018060405250810190612a659190612ea2565b5050505050565b60408051600380825260808201909252600091602082016060803683370190505090503081600081518110612ab157634e487b7160e01b600052603260045260246000fd5b6001600160a01b03928316602091820292909201810191909152601254604080516315ab88c960e31b81529051919093169263ad5c4648926004808301939192829003018186803b158015612b0557600080fd5b505afa158015612b19573d6000803e3d6000fd5b505050506040513d601f19601f82011682018060405250810190612b3d9190612cc8565b81600181518110612b5e57634e487b7160e01b600052603260045260246000fd5b6001600160a01b039283166020918202929092010152601154825191169082906002908110612b9d57634e487b7160e01b600052603260045260246000fd5b6001600160a01b039283166020918202929092010152601254604051635c11d79560e01b8152911690635c11d7959061298a908690600090869088904290600401612f5c565b601254601154600e5460405162e8e33760e81b81523060048201526001600160a01b039283166024820152604481018690526064810185905260006084820181905260a482015290821660c48201524260e482015291169063e8e337009061010401606060405180830381600087803b158015612c5f57600080fd5b505af1158015612c73573d6000803e3d6000fd5b505050506040513d601f19601f82011682018060405250810190612a659190612ea2565b80358015158114612ca757600080fd5b919050565b600060208284031215612cbd578081fd5b8135611b33816131c9565b600060208284031215612cd9578081fd5b8151611b33816131c9565b60008060408385031215612cf6578081fd5b8235612d01816131c9565b91506020830135612d11816131c9565b809150509250929050565b600080600060608486031215612d30578081fd5b8335612d3b816131c9565b92506020840135612d4b816131c9565b91506040840135612d5b816131c9565b809150509250925092565b600080600060608486031215612d7a578283fd5b8335612d85816131c9565b92506020840135612d95816131c9565b929592945050506040919091013590565b60008060408385031215612db8578182fd5b8235612dc3816131c9565b9150612dd160208401612c97565b90509250929050565b60008060408385031215612dec578182fd5b8235612df7816131c9565b946020939093013593505050565b600060208284031215612e16578081fd5b611b3382612c97565b600080600060608486031215612e33578283fd5b612e3c84612c97565b95602085013595506040909401359392505050565b600060208284031215612e62578081fd5b5035919050565b600060208284031215612e7a578081fd5b5051919050565b60008060408385031215612e93578182fd5b50508035926020909101359150565b600080600060608486031215612eb6578283fd5b8351925060208401519150604084015190509250925092565b600080600080600060a08688031215612ee6578081fd5b505083359560208501359550604085013594606081013594506080013592509050565b6000602080835283518082850152825b81811015612f3557858101830151858201604001528201612f19565b81811115612f465783604083870101525b50601f01601f1916929092016040019392505050565b600060a082018783526020878185015260a0604085015281875180845260c0860191508289019350845b81811015612fab5784516001600160a01b031683529383019391830191600101612f86565b50506001600160a01b03969096166060850152505050608001529392505050565b60008219821115612fdf57612fdf61319d565b500190565b600082612ff357612ff36131b3565b500490565b600181815b808511156130335781600019048211156130195761301961319d565b8085161561302657918102915b93841c9390800290612ffd565b509250929050565b6000611b33838360008261305157506001610e05565b8161305e57506000610e05565b8160018114613074576002811461307e5761309a565b6001915050610e05565b60ff84111561308f5761308f61319d565b50506001821b610e05565b5060208310610133831016604e8410600b84101617156130bd575081810a610e05565b6130c78383612ff8565b80600019048211156130db576130db61319d565b029392505050565b60008160001904831182151516156130fd576130fd61319d565b500290565b6000828210156131145761311461319d565b500390565b600181811c9082168061312d57607f821691505b6020821081141561314e57634e487b7160e01b600052602260045260246000fd5b50919050565b60006000198214156131685761316861319d565b5060010190565b60008261317e5761317e6131b3565b500690565b6000600160ff1b8214156131995761319961319d565b0390565b634e487b7160e01b600052601160045260246000fd5b634e487b7160e01b600052601260045260246000fd5b6001600160a01b038116811461144c57600080fdfea26469706673582212208764f5eee7197347d13445da61dd27b1d583b3eb686237b53aaf0b154442909964736f6c63430008040033",
			"opcodes": "PUSH1 0x80 PUSH1 0x40 MSTORE PUSH1 0x4 DUP1 SLOAD PUSH4 0xFFFFFFFF NOT AND PUSH4 0x1000100 OR SWAP1 SSTORE PUSH3 0x3C656D PUSH1 0x5 SSTORE PUSH5 0x2540BE400 PUSH1 0x6 SSTORE PUSH2 0x708 PUSH1 0x7 SSTORE PUSH3 0x3D TIMESTAMP PUSH4 0x1E13380 PUSH3 0xD32 JUMP JUMPDEST PUSH1 0x8 SSTORE PUSH1 0xC DUP1 SLOAD PUSH1 0x1 PUSH1 0x1 PUSH1 0xA0 SHL SUB NOT SWAP1 DUP2 AND PUSH2 0xDEAD OR SWAP1 SWAP2 SSTORE PUSH1 0xD DUP1 SLOAD DUP3 AND SWAP1 SSTORE PUSH1 0xE DUP1 SLOAD DUP3 AND PUSH20 0x2C604D9E15E6524F0BB2A2A22F63A7CA041E84C3 OR SWAP1 SSTORE PUSH1 0xF DUP1 SLOAD DUP3 AND PUSH20 0xCC5E043C5142033A800A72286356317DACB57A77 OR SWAP1 SSTORE PUSH1 0x10 DUP1 SLOAD DUP3 AND PUSH20 0x833123D7AF220758A5484887AC582D4D39E9EDE0 OR SWAP1 SSTORE PUSH1 0x11 DUP1 SLOAD SWAP1 SWAP2 AND PUSH20 0xF2732E8048F1A411C63E2DF51D08F4F52E598005 OR SWAP1 SSTORE PUSH1 0x1 PUSH1 0x14 DUP2 SWAP1 SSTORE PUSH1 0x15 DUP2 SWAP1 SSTORE PUSH1 0x16 DUP2 SWAP1 SSTORE PUSH1 0x17 DUP2 SWAP1 SSTORE PUSH3 0x122 SWAP1 PUSH3 0x10E DUP2 DUP1 PUSH3 0x1CFF PUSH3 0x894 PUSH1 0x20 SWAP1 DUP2 SHL SWAP2 SWAP1 SWAP2 OR SWAP1 SHR JUMP JUMPDEST PUSH3 0x894 PUSH1 0x20 SHL PUSH3 0x1CFF OR SWAP1 SWAP2 SWAP1 PUSH1 0x20 SHR JUMP JUMPDEST PUSH1 0x18 SSTORE PUSH3 0x143 PUSH1 0x17 SLOAD PUSH1 0x18 SLOAD PUSH3 0x894 PUSH1 0x20 SHL PUSH3 0x1CFF OR SWAP1 SWAP2 SWAP1 PUSH1 0x20 SHR JUMP JUMPDEST PUSH1 0x19 SSTORE PUSH1 0x64 PUSH1 0x1A DUP2 SWAP1 SSTORE PUSH1 0x32 PUSH1 0x1B SSTORE PUSH1 0x1C SSTORE PUSH2 0x3E8 PUSH3 0x166 PUSH1 0x12 PUSH1 0xA PUSH3 0xDAD JUMP JUMPDEST PUSH3 0x176 SWAP1 PUSH4 0x89173700 PUSH3 0xE69 JUMP JUMPDEST PUSH3 0x184 SWAP1 PUSH1 0x0 NOT PUSH3 0xF00 JUMP JUMPDEST PUSH3 0x192 SWAP1 PUSH1 0x0 NOT PUSH3 0xE8B JUMP JUMPDEST PUSH3 0x19E SWAP2 SWAP1 PUSH3 0xD4D JUMP JUMPDEST PUSH1 0x20 SSTORE CALLVALUE DUP1 ISZERO PUSH3 0x1AE JUMPI PUSH1 0x0 DUP1 REVERT JUMPDEST POP PUSH1 0x40 DUP1 MLOAD DUP1 DUP3 ADD DUP3 MSTORE PUSH1 0x11 DUP2 MSTORE PUSH17 0x20B7323932BB902A30BA32902A37B5B2B7 PUSH1 0x79 SHL PUSH1 0x20 DUP1 DUP4 ADD SWAP2 DUP3 MSTORE DUP4 MLOAD DUP1 DUP6 ADD SWAP1 SWAP5 MSTORE PUSH1 0x4 DUP5 MSTORE PUSH4 0x544F5047 PUSH1 0xE0 SHL SWAP1 DUP5 ADD MSTORE DUP2 MLOAD SWAP2 SWAP3 SWAP2 PUSH1 0x12 SWAP2 PUSH3 0x208 SWAP2 PUSH1 0x0 SWAP2 SWAP1 PUSH3 0xC3A JUMP JUMPDEST POP DUP2 MLOAD PUSH3 0x21E SWAP1 PUSH1 0x1 SWAP1 PUSH1 0x20 DUP6 ADD SWAP1 PUSH3 0xC3A JUMP JUMPDEST POP PUSH1 0x2 DUP1 SLOAD PUSH1 0xFF NOT AND PUSH1 0xFF SWAP3 SWAP1 SWAP3 AND SWAP2 SWAP1 SWAP2 OR SWAP1 SSTORE POP PUSH3 0x248 SWAP1 POP PUSH3 0x242 CALLER SWAP1 JUMP JUMPDEST PUSH3 0x8AB JUMP JUMPDEST PUSH1 0x1 PUSH1 0x3 SSTORE PUSH1 0x12 DUP1 SLOAD PUSH1 0x1 PUSH1 0x1 PUSH1 0xA0 SHL SUB NOT AND PUSH20 0xCEEB22FAF32FF4EAD24565225503807E41E5FE87 SWAP1 DUP2 OR SWAP1 SWAP2 SSTORE PUSH1 0x40 DUP1 MLOAD PUSH4 0xC45A0155 PUSH1 0xE0 SHL DUP2 MSTORE SWAP1 MLOAD PUSH4 0xC45A0155 SWAP2 PUSH1 0x4 DUP1 DUP3 ADD SWAP3 PUSH1 0x20 SWAP3 SWAP1 SWAP2 SWAP1 DUP3 SWAP1 SUB ADD DUP2 DUP7 DUP1 EXTCODESIZE ISZERO DUP1 ISZERO PUSH3 0x2AD JUMPI PUSH1 0x0 DUP1 REVERT JUMPDEST POP GAS STATICCALL ISZERO DUP1 ISZERO PUSH3 0x2C2 JUMPI RETURNDATASIZE PUSH1 0x0 DUP1 RETURNDATACOPY RETURNDATASIZE PUSH1 0x0 REVERT JUMPDEST POP POP POP POP PUSH1 0x40 MLOAD RETURNDATASIZE PUSH1 0x1F NOT PUSH1 0x1F DUP3 ADD AND DUP3 ADD DUP1 PUSH1 0x40 MSTORE POP DUP2 ADD SWAP1 PUSH3 0x2E8 SWAP2 SWAP1 PUSH3 0xCE0 JUMP JUMPDEST PUSH1 0x1 PUSH1 0x1 PUSH1 0xA0 SHL SUB AND PUSH4 0xC9C65396 ADDRESS PUSH1 0x12 PUSH1 0x0 SWAP1 SLOAD SWAP1 PUSH2 0x100 EXP SWAP1 DIV PUSH1 0x1 PUSH1 0x1 PUSH1 0xA0 SHL SUB AND PUSH1 0x1 PUSH1 0x1 PUSH1 0xA0 SHL SUB AND PUSH4 0xAD5C4648 PUSH1 0x40 MLOAD DUP2 PUSH4 0xFFFFFFFF AND PUSH1 0xE0 SHL DUP2 MSTORE PUSH1 0x4 ADD PUSH1 0x20 PUSH1 0x40 MLOAD DUP1 DUP4 SUB DUP2 DUP7 DUP1 EXTCODESIZE ISZERO DUP1 ISZERO PUSH3 0x346 JUMPI PUSH1 0x0 DUP1 REVERT JUMPDEST POP GAS STATICCALL ISZERO DUP1 ISZERO PUSH3 0x35B JUMPI RETURNDATASIZE PUSH1 0x0 DUP1 RETURNDATACOPY RETURNDATASIZE PUSH1 0x0 REVERT JUMPDEST POP POP POP POP PUSH1 0x40 MLOAD RETURNDATASIZE PUSH1 0x1F NOT PUSH1 0x1F DUP3 ADD AND DUP3 ADD DUP1 PUSH1 0x40 MSTORE POP DUP2 ADD SWAP1 PUSH3 0x381 SWAP2 SWAP1 PUSH3 0xCE0 JUMP JUMPDEST PUSH1 0x40 MLOAD PUSH1 0x1 PUSH1 0x1 PUSH1 0xE0 SHL SUB NOT PUSH1 0xE0 DUP6 SWAP1 SHL AND DUP2 MSTORE PUSH1 0x1 PUSH1 0x1 PUSH1 0xA0 SHL SUB SWAP3 DUP4 AND PUSH1 0x4 DUP3 ADD MSTORE SWAP2 AND PUSH1 0x24 DUP3 ADD MSTORE PUSH1 0x44 ADD PUSH1 0x20 PUSH1 0x40 MLOAD DUP1 DUP4 SUB DUP2 PUSH1 0x0 DUP8 DUP1 EXTCODESIZE ISZERO DUP1 ISZERO PUSH3 0x3CA JUMPI PUSH1 0x0 DUP1 REVERT JUMPDEST POP GAS CALL ISZERO DUP1 ISZERO PUSH3 0x3DF JUMPI RETURNDATASIZE PUSH1 0x0 DUP1 RETURNDATACOPY RETURNDATASIZE PUSH1 0x0 REVERT JUMPDEST POP POP POP POP PUSH1 0x40 MLOAD RETURNDATASIZE PUSH1 0x1F NOT PUSH1 0x1F DUP3 ADD AND DUP3 ADD DUP1 PUSH1 0x40 MSTORE POP DUP2 ADD SWAP1 PUSH3 0x405 SWAP2 SWAP1 PUSH3 0xCE0 JUMP JUMPDEST PUSH1 0x13 DUP1 SLOAD PUSH1 0x1 PUSH1 0x1 PUSH1 0xA0 SHL SUB NOT AND PUSH1 0x1 PUSH1 0x1 PUSH1 0xA0 SHL SUB SWAP3 DUP4 AND OR SWAP1 SSTORE PUSH1 0x12 SLOAD PUSH1 0x40 DUP1 MLOAD PUSH4 0xC45A0155 PUSH1 0xE0 SHL DUP2 MSTORE SWAP1 MLOAD PUSH1 0x0 SWAP4 SWAP3 SWAP1 SWAP3 AND SWAP2 PUSH4 0xC45A0155 SWAP2 PUSH1 0x4 DUP1 DUP3 ADD SWAP3 PUSH1 0x20 SWAP3 SWAP1 SWAP2 SWAP1 DUP3 SWAP1 SUB ADD DUP2 DUP7 DUP1 EXTCODESIZE ISZERO DUP1 ISZERO PUSH3 0x463 JUMPI PUSH1 0x0 DUP1 REVERT JUMPDEST POP GAS STATICCALL ISZERO DUP1 ISZERO PUSH3 0x478 JUMPI RETURNDATASIZE PUSH1 0x0 DUP1 RETURNDATACOPY RETURNDATASIZE PUSH1 0x0 REVERT JUMPDEST POP POP POP POP PUSH1 0x40 MLOAD RETURNDATASIZE PUSH1 0x1F NOT PUSH1 0x1F DUP3 ADD AND DUP3 ADD DUP1 PUSH1 0x40 MSTORE POP DUP2 ADD SWAP1 PUSH3 0x49E SWAP2 SWAP1 PUSH3 0xCE0 JUMP JUMPDEST PUSH1 0x11 SLOAD PUSH1 0x40 MLOAD PUSH4 0x64E329CB PUSH1 0xE1 SHL DUP2 MSTORE ADDRESS PUSH1 0x4 DUP3 ADD MSTORE PUSH1 0x1 PUSH1 0x1 PUSH1 0xA0 SHL SUB SWAP2 DUP3 AND PUSH1 0x24 DUP3 ADD MSTORE SWAP2 AND SWAP1 PUSH4 0xC9C65396 SWAP1 PUSH1 0x44 ADD PUSH1 0x20 PUSH1 0x40 MLOAD DUP1 DUP4 SUB DUP2 PUSH1 0x0 DUP8 DUP1 EXTCODESIZE ISZERO DUP1 ISZERO PUSH3 0x4EB JUMPI PUSH1 0x0 DUP1 REVERT JUMPDEST POP GAS CALL ISZERO DUP1 ISZERO PUSH3 0x500 JUMPI RETURNDATASIZE PUSH1 0x0 DUP1 RETURNDATACOPY RETURNDATASIZE PUSH1 0x0 REVERT JUMPDEST POP POP POP POP PUSH1 0x40 MLOAD RETURNDATASIZE PUSH1 0x1F NOT PUSH1 0x1F DUP3 ADD AND DUP3 ADD DUP1 PUSH1 0x40 MSTORE POP DUP2 ADD SWAP1 PUSH3 0x526 SWAP2 SWAP1 PUSH3 0xCE0 JUMP JUMPDEST ADDRESS PUSH1 0x0 DUP2 DUP2 MSTORE PUSH1 0x22 PUSH1 0x20 SWAP1 DUP2 MSTORE PUSH1 0x40 DUP1 DUP4 KECCAK256 PUSH1 0x12 SLOAD PUSH1 0x1 PUSH1 0x1 PUSH1 0xA0 SHL SUB SWAP1 DUP2 AND DUP6 MSTORE SWAP3 MSTORE DUP1 DUP4 KECCAK256 PUSH1 0x0 NOT SWAP1 DUP2 SWAP1 SSTORE PUSH1 0x13 DUP1 SLOAD DUP5 AND DUP6 MSTORE DUP3 DUP6 KECCAK256 DUP3 SWAP1 SSTORE SWAP5 DUP5 MSTORE DUP2 DUP5 KECCAK256 DUP2 SWAP1 SSTORE DUP6 DUP4 AND DUP5 MSTORE SWAP3 KECCAK256 SWAP2 SWAP1 SWAP2 SSTORE SWAP1 SLOAD SWAP2 SWAP3 POP PUSH3 0x589 SWAP2 AND PUSH1 0x1 PUSH3 0x905 JUMP JUMPDEST PUSH3 0x596 DUP2 PUSH1 0x1 PUSH3 0x905 JUMP JUMPDEST PUSH3 0x5A4 PUSH1 0x12 PUSH1 0xA PUSH3 0xDAD JUMP JUMPDEST PUSH3 0x5B4 SWAP1 PUSH4 0x89173700 PUSH3 0xE69 JUMP JUMPDEST PUSH1 0x1E SSTORE PUSH3 0x5C5 PUSH1 0x12 PUSH1 0xA PUSH3 0xDAD JUMP JUMPDEST PUSH3 0x5D5 SWAP1 PUSH4 0x89173700 PUSH3 0xE69 JUMP JUMPDEST PUSH3 0x5E3 SWAP1 PUSH1 0x0 NOT PUSH3 0xF00 JUMP JUMPDEST PUSH3 0x5F1 SWAP1 PUSH1 0x0 NOT PUSH3 0xE8B JUMP JUMPDEST CALLER PUSH1 0x0 SWAP1 DUP2 MSTORE PUSH1 0x21 PUSH1 0x20 MSTORE PUSH1 0x40 SWAP1 KECCAK256 SSTORE PUSH1 0x1E SLOAD PUSH3 0x657 SWAP1 PUSH3 0x617 PUSH1 0x12 PUSH1 0xA PUSH3 0xDAD JUMP JUMPDEST PUSH3 0x627 SWAP1 PUSH4 0x89173700 PUSH3 0xE69 JUMP JUMPDEST PUSH3 0x635 SWAP1 PUSH1 0x0 NOT PUSH3 0xF00 JUMP JUMPDEST PUSH3 0x643 SWAP1 PUSH1 0x0 NOT PUSH3 0xE8B JUMP JUMPDEST PUSH3 0xBC8 PUSH1 0x20 SHL PUSH3 0x1D0B OR SWAP1 SWAP2 SWAP1 PUSH1 0x20 SHR JUMP JUMPDEST PUSH1 0x1F SSTORE PUSH1 0xF SLOAD PUSH1 0x1 PUSH1 0x1 PUSH1 0xA0 SHL SUB SWAP1 DUP2 AND PUSH1 0x0 SWAP1 DUP2 MSTORE PUSH1 0x9 PUSH1 0x20 MSTORE PUSH1 0x40 DUP1 DUP3 KECCAK256 DUP1 SLOAD PUSH1 0x1 PUSH1 0xFF NOT SWAP2 DUP3 AND DUP2 OR SWAP1 SWAP3 SSTORE PUSH1 0x10 SLOAD DUP6 AND DUP5 MSTORE DUP3 DUP5 KECCAK256 DUP1 SLOAD DUP3 AND DUP4 OR SWAP1 SSTORE ADDRESS DUP5 MSTORE DUP3 DUP5 KECCAK256 DUP1 SLOAD DUP3 AND DUP4 OR SWAP1 SSTORE CALLER DUP5 MSTORE SWAP3 DUP3 SWAP1 KECCAK256 DUP1 SLOAD SWAP1 SWAP4 AND OR SWAP1 SWAP2 SSTORE PUSH1 0x11 SLOAD PUSH1 0x12 SLOAD SWAP2 MLOAD PUSH4 0x95EA7B3 PUSH1 0xE0 SHL DUP2 MSTORE SWAP2 DUP4 AND PUSH1 0x4 DUP4 ADD MSTORE PUSH1 0x0 NOT PUSH1 0x24 DUP4 ADD MSTORE SWAP1 SWAP2 AND SWAP1 PUSH4 0x95EA7B3 SWAP1 PUSH1 0x44 ADD PUSH1 0x20 PUSH1 0x40 MLOAD DUP1 DUP4 SUB DUP2 PUSH1 0x0 DUP8 DUP1 EXTCODESIZE ISZERO DUP1 ISZERO PUSH3 0x700 JUMPI PUSH1 0x0 DUP1 REVERT JUMPDEST POP GAS CALL ISZERO DUP1 ISZERO PUSH3 0x715 JUMPI RETURNDATASIZE PUSH1 0x0 DUP1 RETURNDATACOPY RETURNDATASIZE PUSH1 0x0 REVERT JUMPDEST POP POP POP POP PUSH1 0x40 MLOAD RETURNDATASIZE PUSH1 0x1F NOT PUSH1 0x1F DUP3 ADD AND DUP3 ADD DUP1 PUSH1 0x40 MSTORE POP DUP2 ADD SWAP1 PUSH3 0x73B SWAP2 SWAP1 PUSH3 0xD10 JUMP JUMPDEST POP PUSH1 0x11 SLOAD PUSH1 0x40 MLOAD PUSH4 0x95EA7B3 PUSH1 0xE0 SHL DUP2 MSTORE PUSH1 0x1 PUSH1 0x1 PUSH1 0xA0 SHL SUB DUP4 DUP2 AND PUSH1 0x4 DUP4 ADD MSTORE PUSH1 0x0 NOT PUSH1 0x24 DUP4 ADD MSTORE SWAP1 SWAP2 AND SWAP1 PUSH4 0x95EA7B3 SWAP1 PUSH1 0x44 ADD PUSH1 0x20 PUSH1 0x40 MLOAD DUP1 DUP4 SUB DUP2 PUSH1 0x0 DUP8 DUP1 EXTCODESIZE ISZERO DUP1 ISZERO PUSH3 0x78C JUMPI PUSH1 0x0 DUP1 REVERT JUMPDEST POP GAS CALL ISZERO DUP1 ISZERO PUSH3 0x7A1 JUMPI RETURNDATASIZE PUSH1 0x0 DUP1 RETURNDATACOPY RETURNDATASIZE PUSH1 0x0 REVERT JUMPDEST POP POP POP POP PUSH1 0x40 MLOAD RETURNDATASIZE PUSH1 0x1F NOT PUSH1 0x1F DUP3 ADD AND DUP3 ADD DUP1 PUSH1 0x40 MSTORE POP DUP2 ADD SWAP1 PUSH3 0x7C7 SWAP2 SWAP1 PUSH3 0xD10 JUMP JUMPDEST POP PUSH1 0x11 SLOAD PUSH1 0x40 MLOAD PUSH4 0x95EA7B3 PUSH1 0xE0 SHL DUP2 MSTORE ADDRESS PUSH1 0x4 DUP3 ADD MSTORE PUSH1 0x0 NOT PUSH1 0x24 DUP3 ADD MSTORE PUSH1 0x1 PUSH1 0x1 PUSH1 0xA0 SHL SUB SWAP1 SWAP2 AND SWAP1 PUSH4 0x95EA7B3 SWAP1 PUSH1 0x44 ADD PUSH1 0x20 PUSH1 0x40 MLOAD DUP1 DUP4 SUB DUP2 PUSH1 0x0 DUP8 DUP1 EXTCODESIZE ISZERO DUP1 ISZERO PUSH3 0x816 JUMPI PUSH1 0x0 DUP1 REVERT JUMPDEST POP GAS CALL ISZERO DUP1 ISZERO PUSH3 0x82B JUMPI RETURNDATASIZE PUSH1 0x0 DUP1 RETURNDATACOPY RETURNDATASIZE PUSH1 0x0 REVERT JUMPDEST POP POP POP POP PUSH1 0x40 MLOAD RETURNDATASIZE PUSH1 0x1F NOT PUSH1 0x1F DUP3 ADD AND DUP3 ADD DUP1 PUSH1 0x40 MSTORE POP DUP2 ADD SWAP1 PUSH3 0x851 SWAP2 SWAP1 PUSH3 0xD10 JUMP JUMPDEST POP PUSH1 0x1E SLOAD PUSH1 0x40 MLOAD SWAP1 DUP2 MSTORE CALLER SWAP1 PUSH1 0x0 SWAP1 PUSH32 0xDDF252AD1BE2C89B69C2B068FC378DAA952BA7F163C4A11628F55A4DF523B3EF SWAP1 PUSH1 0x20 ADD PUSH1 0x40 MLOAD DUP1 SWAP2 SUB SWAP1 LOG3 POP PUSH3 0xF43 JUMP JUMPDEST PUSH1 0x0 PUSH3 0x8A2 DUP3 DUP5 PUSH3 0xD32 JUMP JUMPDEST SWAP1 POP JUMPDEST SWAP3 SWAP2 POP POP JUMP JUMPDEST PUSH1 0x2 DUP1 SLOAD PUSH1 0x1 PUSH1 0x1 PUSH1 0xA0 SHL SUB DUP4 DUP2 AND PUSH2 0x100 DUP2 DUP2 MUL PUSH2 0x100 PUSH1 0x1 PUSH1 0xA8 SHL SUB NOT DUP6 AND OR SWAP1 SWAP5 SSTORE PUSH1 0x40 MLOAD SWAP4 SWAP1 SWAP3 DIV AND SWAP2 DUP3 SWAP1 PUSH32 0x8BE0079C531659141344CD1FD0A4F28419497F9722A3DAAFE3B4186F6B6457E0 SWAP1 PUSH1 0x0 SWAP1 LOG3 POP POP JUMP JUMPDEST PUSH3 0x90F PUSH3 0xBD6 JUMP JUMPDEST PUSH1 0x1 PUSH1 0x1 PUSH1 0xA0 SHL SUB DUP3 AND PUSH1 0x0 SWAP1 DUP2 MSTORE PUSH1 0xB PUSH1 0x20 MSTORE PUSH1 0x40 SWAP1 KECCAK256 SLOAD PUSH1 0xFF AND ISZERO ISZERO DUP2 ISZERO ISZERO EQ ISZERO PUSH3 0x978 JUMPI PUSH1 0x40 MLOAD PUSH3 0x461BCD PUSH1 0xE5 SHL DUP2 MSTORE PUSH1 0x20 PUSH1 0x4 DUP3 ADD MSTORE PUSH1 0x11 PUSH1 0x24 DUP3 ADD MSTORE PUSH17 0x15985B1D5948185B1C9958591E481CD95D PUSH1 0x7A SHL PUSH1 0x44 DUP3 ADD MSTORE PUSH1 0x64 ADD JUMPDEST PUSH1 0x40 MLOAD DUP1 SWAP2 SUB SWAP1 REVERT JUMPDEST PUSH1 0x1 PUSH1 0x1 PUSH1 0xA0 SHL SUB DUP3 AND PUSH1 0x0 SWAP1 DUP2 MSTORE PUSH1 0xB PUSH1 0x20 MSTORE PUSH1 0x40 SWAP1 KECCAK256 DUP1 SLOAD PUSH1 0xFF NOT AND DUP3 ISZERO DUP1 ISZERO SWAP2 SWAP1 SWAP2 OR SWAP1 SWAP2 SSTORE PUSH3 0x9F7 JUMPI PUSH1 0xA DUP1 SLOAD PUSH1 0x1 DUP2 ADD DUP3 SSTORE PUSH1 0x0 SWAP2 SWAP1 SWAP2 MSTORE PUSH32 0xC65A7BB8D6351C1CF70C95A316CC6A92839C986682D98BC35F958F4883F9D2A8 ADD DUP1 SLOAD PUSH1 0x1 PUSH1 0x1 PUSH1 0xA0 SHL SUB NOT AND PUSH1 0x1 PUSH1 0x1 PUSH1 0xA0 SHL SUB DUP5 AND OR SWAP1 SSTORE PUSH3 0xB8C JUMP JUMPDEST PUSH1 0xA SLOAD PUSH1 0x1 LT PUSH3 0xA3D JUMPI PUSH1 0x40 MLOAD PUSH3 0x461BCD PUSH1 0xE5 SHL DUP2 MSTORE PUSH1 0x20 PUSH1 0x4 DUP3 ADD MSTORE PUSH1 0xF PUSH1 0x24 DUP3 ADD MSTORE PUSH15 0x2932B8BAB4B932B21018903830B4B9 PUSH1 0x89 SHL PUSH1 0x44 DUP3 ADD MSTORE PUSH1 0x64 ADD PUSH3 0x96F JUMP JUMPDEST PUSH1 0x0 JUMPDEST PUSH1 0xA SLOAD DUP2 LT ISZERO PUSH3 0xB8A JUMPI DUP3 PUSH1 0x1 PUSH1 0x1 PUSH1 0xA0 SHL SUB AND PUSH1 0xA DUP3 DUP2 SLOAD DUP2 LT PUSH3 0xA77 JUMPI PUSH4 0x4E487B71 PUSH1 0xE0 SHL PUSH1 0x0 MSTORE PUSH1 0x32 PUSH1 0x4 MSTORE PUSH1 0x24 PUSH1 0x0 REVERT JUMPDEST PUSH1 0x0 SWAP2 DUP3 MSTORE PUSH1 0x20 SWAP1 SWAP2 KECCAK256 ADD SLOAD PUSH1 0x1 PUSH1 0x1 PUSH1 0xA0 SHL SUB AND EQ ISZERO PUSH3 0xB75 JUMPI PUSH1 0xA DUP1 SLOAD PUSH3 0xAA5 SWAP1 PUSH1 0x1 SWAP1 PUSH3 0xE8B JUMP JUMPDEST DUP2 SLOAD DUP2 LT PUSH3 0xAC4 JUMPI PUSH4 0x4E487B71 PUSH1 0xE0 SHL PUSH1 0x0 MSTORE PUSH1 0x32 PUSH1 0x4 MSTORE PUSH1 0x24 PUSH1 0x0 REVERT JUMPDEST PUSH1 0x0 SWAP2 DUP3 MSTORE PUSH1 0x20 SWAP1 SWAP2 KECCAK256 ADD SLOAD PUSH1 0xA DUP1 SLOAD PUSH1 0x1 PUSH1 0x1 PUSH1 0xA0 SHL SUB SWAP1 SWAP3 AND SWAP2 DUP4 SWAP1 DUP2 LT PUSH3 0xAFF JUMPI PUSH4 0x4E487B71 PUSH1 0xE0 SHL PUSH1 0x0 MSTORE PUSH1 0x32 PUSH1 0x4 MSTORE PUSH1 0x24 PUSH1 0x0 REVERT JUMPDEST SWAP1 PUSH1 0x0 MSTORE PUSH1 0x20 PUSH1 0x0 KECCAK256 ADD PUSH1 0x0 PUSH2 0x100 EXP DUP2 SLOAD DUP2 PUSH1 0x1 PUSH1 0x1 PUSH1 0xA0 SHL SUB MUL NOT AND SWAP1 DUP4 PUSH1 0x1 PUSH1 0x1 PUSH1 0xA0 SHL SUB AND MUL OR SWAP1 SSTORE POP PUSH1 0xA DUP1 SLOAD DUP1 PUSH3 0xB4D JUMPI PUSH4 0x4E487B71 PUSH1 0xE0 SHL PUSH1 0x0 MSTORE PUSH1 0x31 PUSH1 0x4 MSTORE PUSH1 0x24 PUSH1 0x0 REVERT JUMPDEST PUSH1 0x0 DUP3 DUP2 MSTORE PUSH1 0x20 SWAP1 KECCAK256 DUP2 ADD PUSH1 0x0 NOT SWAP1 DUP2 ADD DUP1 SLOAD PUSH1 0x1 PUSH1 0x1 PUSH1 0xA0 SHL SUB NOT AND SWAP1 SSTORE ADD SWAP1 SSTORE PUSH3 0xB8A JUMP JUMPDEST DUP1 PUSH3 0xB81 DUP2 PUSH3 0xEE2 JUMP JUMPDEST SWAP2 POP POP PUSH3 0xA40 JUMP JUMPDEST POP JUMPDEST PUSH1 0x40 MLOAD DUP2 ISZERO ISZERO SWAP1 PUSH1 0x1 PUSH1 0x1 PUSH1 0xA0 SHL SUB DUP5 AND SWAP1 PUSH32 0xFFA9187BF1F18BF477BD0EA1BCBB64E93B6A98132473929EDFCE215CD9B16FAB SWAP1 PUSH1 0x0 SWAP1 LOG3 POP POP JUMP JUMPDEST PUSH1 0x0 PUSH3 0x8A2 DUP3 DUP5 PUSH3 0xD4D JUMP JUMPDEST PUSH1 0x2 SLOAD PUSH1 0x1 PUSH1 0x1 PUSH1 0xA0 SHL SUB PUSH2 0x100 SWAP1 SWAP2 DIV AND CALLER EQ PUSH3 0xC38 JUMPI PUSH1 0x40 MLOAD PUSH3 0x461BCD PUSH1 0xE5 SHL DUP2 MSTORE PUSH1 0x20 PUSH1 0x4 DUP3 ADD DUP2 SWAP1 MSTORE PUSH1 0x24 DUP3 ADD MSTORE PUSH32 0x4F776E61626C653A2063616C6C6572206973206E6F7420746865206F776E6572 PUSH1 0x44 DUP3 ADD MSTORE PUSH1 0x64 ADD PUSH3 0x96F JUMP JUMPDEST JUMP JUMPDEST DUP3 DUP1 SLOAD PUSH3 0xC48 SWAP1 PUSH3 0xEA5 JUMP JUMPDEST SWAP1 PUSH1 0x0 MSTORE PUSH1 0x20 PUSH1 0x0 KECCAK256 SWAP1 PUSH1 0x1F ADD PUSH1 0x20 SWAP1 DIV DUP2 ADD SWAP3 DUP3 PUSH3 0xC6C JUMPI PUSH1 0x0 DUP6 SSTORE PUSH3 0xCB7 JUMP JUMPDEST DUP3 PUSH1 0x1F LT PUSH3 0xC87 JUMPI DUP1 MLOAD PUSH1 0xFF NOT AND DUP4 DUP1 ADD OR DUP6 SSTORE PUSH3 0xCB7 JUMP JUMPDEST DUP3 DUP1 ADD PUSH1 0x1 ADD DUP6 SSTORE DUP3 ISZERO PUSH3 0xCB7 JUMPI SWAP2 DUP3 ADD JUMPDEST DUP3 DUP2 GT ISZERO PUSH3 0xCB7 JUMPI DUP3 MLOAD DUP3 SSTORE SWAP2 PUSH1 0x20 ADD SWAP2 SWAP1 PUSH1 0x1 ADD SWAP1 PUSH3 0xC9A JUMP JUMPDEST POP PUSH3 0xCC5 SWAP3 SWAP2 POP PUSH3 0xCC9 JUMP JUMPDEST POP SWAP1 JUMP JUMPDEST JUMPDEST DUP1 DUP3 GT ISZERO PUSH3 0xCC5 JUMPI PUSH1 0x0 DUP2 SSTORE PUSH1 0x1 ADD PUSH3 0xCCA JUMP JUMPDEST PUSH1 0x0 PUSH1 0x20 DUP3 DUP5 SUB SLT ISZERO PUSH3 0xCF2 JUMPI DUP1 DUP2 REVERT JUMPDEST DUP2 MLOAD PUSH1 0x1 PUSH1 0x1 PUSH1 0xA0 SHL SUB DUP2 AND DUP2 EQ PUSH3 0xD09 JUMPI DUP2 DUP3 REVERT JUMPDEST SWAP4 SWAP3 POP POP POP JUMP JUMPDEST PUSH1 0x0 PUSH1 0x20 DUP3 DUP5 SUB SLT ISZERO PUSH3 0xD22 JUMPI DUP1 DUP2 REVERT JUMPDEST DUP2 MLOAD DUP1 ISZERO ISZERO DUP2 EQ PUSH3 0xD09 JUMPI DUP2 DUP3 REVERT JUMPDEST PUSH1 0x0 DUP3 NOT DUP3 GT ISZERO PUSH3 0xD48 JUMPI PUSH3 0xD48 PUSH3 0xF17 JUMP JUMPDEST POP ADD SWAP1 JUMP JUMPDEST PUSH1 0x0 DUP3 PUSH3 0xD5F JUMPI PUSH3 0xD5F PUSH3 0xF2D JUMP JUMPDEST POP DIV SWAP1 JUMP JUMPDEST PUSH1 0x1 DUP2 DUP2 JUMPDEST DUP1 DUP6 GT ISZERO PUSH3 0xDA5 JUMPI DUP2 PUSH1 0x0 NOT DIV DUP3 GT ISZERO PUSH3 0xD89 JUMPI PUSH3 0xD89 PUSH3 0xF17 JUMP JUMPDEST DUP1 DUP6 AND ISZERO PUSH3 0xD97 JUMPI SWAP2 DUP2 MUL SWAP2 JUMPDEST SWAP4 DUP5 SHR SWAP4 SWAP1 DUP1 MUL SWAP1 PUSH3 0xD69 JUMP JUMPDEST POP SWAP3 POP SWAP3 SWAP1 POP JUMP JUMPDEST PUSH1 0x0 PUSH3 0x8A2 DUP4 DUP4 PUSH1 0x0 DUP3 PUSH3 0xDC6 JUMPI POP PUSH1 0x1 PUSH3 0x8A5 JUMP JUMPDEST DUP2 PUSH3 0xDD5 JUMPI POP PUSH1 0x0 PUSH3 0x8A5 JUMP JUMPDEST DUP2 PUSH1 0x1 DUP2 EQ PUSH3 0xDEE JUMPI PUSH1 0x2 DUP2 EQ PUSH3 0xDF9 JUMPI PUSH3 0xE19 JUMP JUMPDEST PUSH1 0x1 SWAP2 POP POP PUSH3 0x8A5 JUMP JUMPDEST PUSH1 0xFF DUP5 GT ISZERO PUSH3 0xE0D JUMPI PUSH3 0xE0D PUSH3 0xF17 JUMP JUMPDEST POP POP PUSH1 0x1 DUP3 SHL PUSH3 0x8A5 JUMP JUMPDEST POP PUSH1 0x20 DUP4 LT PUSH2 0x133 DUP4 LT AND PUSH1 0x4E DUP5 LT PUSH1 0xB DUP5 LT AND OR ISZERO PUSH3 0xE3E JUMPI POP DUP2 DUP2 EXP PUSH3 0x8A5 JUMP JUMPDEST PUSH3 0xE4A DUP4 DUP4 PUSH3 0xD64 JUMP JUMPDEST DUP1 PUSH1 0x0 NOT DIV DUP3 GT ISZERO PUSH3 0xE61 JUMPI PUSH3 0xE61 PUSH3 0xF17 JUMP JUMPDEST MUL SWAP4 SWAP3 POP POP POP JUMP JUMPDEST PUSH1 0x0 DUP2 PUSH1 0x0 NOT DIV DUP4 GT DUP3 ISZERO ISZERO AND ISZERO PUSH3 0xE86 JUMPI PUSH3 0xE86 PUSH3 0xF17 JUMP JUMPDEST POP MUL SWAP1 JUMP JUMPDEST PUSH1 0x0 DUP3 DUP3 LT ISZERO PUSH3 0xEA0 JUMPI PUSH3 0xEA0 PUSH3 0xF17 JUMP JUMPDEST POP SUB SWAP1 JUMP JUMPDEST PUSH1 0x1 DUP2 DUP2 SHR SWAP1 DUP3 AND DUP1 PUSH3 0xEBA JUMPI PUSH1 0x7F DUP3 AND SWAP2 POP JUMPDEST PUSH1 0x20 DUP3 LT DUP2 EQ ISZERO PUSH3 0xEDC JUMPI PUSH4 0x4E487B71 PUSH1 0xE0 SHL PUSH1 0x0 MSTORE PUSH1 0x22 PUSH1 0x4 MSTORE PUSH1 0x24 PUSH1 0x0 REVERT JUMPDEST POP SWAP2 SWAP1 POP JUMP JUMPDEST PUSH1 0x0 PUSH1 0x0 NOT DUP3 EQ ISZERO PUSH3 0xEF9 JUMPI PUSH3 0xEF9 PUSH3 0xF17 JUMP JUMPDEST POP PUSH1 0x1 ADD SWAP1 JUMP JUMPDEST PUSH1 0x0 DUP3 PUSH3 0xF12 JUMPI PUSH3 0xF12 PUSH3 0xF2D JUMP JUMPDEST POP MOD SWAP1 JUMP JUMPDEST PUSH4 0x4E487B71 PUSH1 0xE0 SHL PUSH1 0x0 MSTORE PUSH1 0x11 PUSH1 0x4 MSTORE PUSH1 0x24 PUSH1 0x0 REVERT JUMPDEST PUSH4 0x4E487B71 PUSH1 0xE0 SHL PUSH1 0x0 MSTORE PUSH1 0x12 PUSH1 0x4 MSTORE PUSH1 0x24 PUSH1 0x0 REVERT JUMPDEST PUSH2 0x3214 DUP1 PUSH3 0xF53 PUSH1 0x0 CODECOPY PUSH1 0x0 RETURN INVALID PUSH1 0x80 PUSH1 0x40 MSTORE PUSH1 0x4 CALLDATASIZE LT PUSH2 0x39B JUMPI PUSH1 0x0 CALLDATALOAD PUSH1 0xE0 SHR DUP1 PUSH4 0x835439C7 GT PUSH2 0x1DC JUMPI DUP1 PUSH4 0xA98AD46C GT PUSH2 0x102 JUMPI DUP1 PUSH4 0xD51ED1C8 GT PUSH2 0xA0 JUMPI DUP1 PUSH4 0xE15BEB80 GT PUSH2 0x6F JUMPI DUP1 PUSH4 0xE15BEB80 EQ PUSH2 0xA47 JUMPI DUP1 PUSH4 0xE1D5584C EQ PUSH2 0xA67 JUMPI DUP1 PUSH4 0xF2FDE38B EQ PUSH2 0xA87 JUMPI DUP1 PUSH4 0xF887EA40 EQ PUSH2 0xAA7 JUMPI PUSH1 0x0 DUP1 REVERT JUMPDEST DUP1 PUSH4 0xD51ED1C8 EQ PUSH2 0x9AB JUMPI DUP1 PUSH4 0xD7832B11 EQ PUSH2 0x9CB JUMPI DUP1 PUSH4 0xD7C01032 EQ PUSH2 0x9E1 JUMPI DUP1 PUSH4 0xDD62ED3E EQ PUSH2 0xA01 JUMPI PUSH1 0x0 DUP1 REVERT JUMPDEST DUP1 PUSH4 0xCC32D176 GT PUSH2 0xDC JUMPI DUP1 PUSH4 0xCC32D176 EQ PUSH2 0x922 JUMPI DUP1 PUSH4 0xD0889358 EQ PUSH2 0x938 JUMPI DUP1 PUSH4 0xD1FCE264 EQ PUSH2 0x958 JUMPI DUP1 PUSH4 0xD4399790 EQ PUSH2 0x972 JUMPI PUSH1 0x0 DUP1 REVERT JUMPDEST DUP1 PUSH4 0xA98AD46C EQ PUSH2 0x8BC JUMPI DUP1 PUSH4 0xB62496F5 EQ PUSH2 0x8DC JUMPI DUP1 PUSH4 0xBC7E68A3 EQ PUSH2 0x90C JUMPI PUSH1 0x0 DUP1 REVERT JUMPDEST DUP1 PUSH4 0x9763EEC4 GT PUSH2 0x17A JUMPI DUP1 PUSH4 0x9D9241EC GT PUSH2 0x149 JUMPI DUP1 PUSH4 0x9D9241EC EQ PUSH2 0x846 JUMPI DUP1 PUSH4 0xA457C2D7 EQ PUSH2 0x85C JUMPI DUP1 PUSH4 0xA8AA1B31 EQ PUSH2 0x87C JUMPI DUP1 PUSH4 0xA9059CBB EQ PUSH2 0x89C JUMPI PUSH1 0x0 DUP1 REVERT JUMPDEST DUP1 PUSH4 0x9763EEC4 EQ PUSH2 0x7DA JUMPI DUP1 PUSH4 0x98118CB4 EQ PUSH2 0x7F0 JUMPI DUP1 PUSH4 0x9A7A23D6 EQ PUSH2 0x806 JUMPI DUP1 PUSH4 0x9AE7372D EQ PUSH2 0x826 JUMPI PUSH1 0x0 DUP1 REVERT JUMPDEST DUP1 PUSH4 0x8EBFC796 GT PUSH2 0x1B6 JUMPI DUP1 PUSH4 0x8EBFC796 EQ PUSH2 0x785 JUMPI DUP1 PUSH4 0x9079F932 EQ PUSH2 0x7A5 JUMPI DUP1 PUSH4 0x92F6576E EQ PUSH2 0x676 JUMPI DUP1 PUSH4 0x95D89B41 EQ PUSH2 0x7C5 JUMPI PUSH1 0x0 DUP1 REVERT JUMPDEST DUP1 PUSH4 0x835439C7 EQ PUSH2 0x72B JUMPI DUP1 PUSH4 0x89375ABF EQ PUSH2 0x74C JUMPI DUP1 PUSH4 0x8DA5CB5B EQ PUSH2 0x762 JUMPI PUSH1 0x0 DUP1 REVERT JUMPDEST DUP1 PUSH4 0x313CE567 GT PUSH2 0x2C1 JUMPI DUP1 PUSH4 0x6DDD1713 GT PUSH2 0x25F JUMPI DUP1 PUSH4 0x753D02A1 GT PUSH2 0x22E JUMPI DUP1 PUSH4 0x753D02A1 EQ PUSH2 0x6C0 JUMPI DUP1 PUSH4 0x764D72BF EQ PUSH2 0x6D5 JUMPI DUP1 PUSH4 0x7D4B5017 EQ PUSH2 0x6F5 JUMPI DUP1 PUSH4 0x8102C570 EQ PUSH2 0x715 JUMPI PUSH1 0x0 DUP1 REVERT JUMPDEST DUP1 PUSH4 0x6DDD1713 EQ PUSH2 0x657 JUMPI DUP1 PUSH4 0x6DEF69E1 EQ PUSH2 0x676 JUMPI DUP1 PUSH4 0x70A08231 EQ PUSH2 0x68B JUMPI DUP1 PUSH4 0x715018A6 EQ PUSH2 0x6AB JUMPI PUSH1 0x0 DUP1 REVERT JUMPDEST DUP1 PUSH4 0x544727BC GT PUSH2 0x29B JUMPI DUP1 PUSH4 0x544727BC EQ PUSH2 0x5F7 JUMPI DUP1 PUSH4 0x59B107B9 EQ PUSH2 0x617 JUMPI DUP1 PUSH4 0x61A9D1B1 EQ PUSH2 0x62D JUMPI DUP1 PUSH4 0x6D351D1A EQ PUSH2 0x642 JUMPI PUSH1 0x0 DUP1 REVERT JUMPDEST DUP1 PUSH4 0x313CE567 EQ PUSH2 0x595 JUMPI DUP1 PUSH4 0x39509351 EQ PUSH2 0x5B7 JUMPI DUP1 PUSH4 0x4CD9DDF2 EQ PUSH2 0x5D7 JUMPI PUSH1 0x0 DUP1 REVERT JUMPDEST DUP1 PUSH4 0x1161AE39 GT PUSH2 0x339 JUMPI DUP1 PUSH4 0x201E7991 GT PUSH2 0x308 JUMPI DUP1 PUSH4 0x201E7991 EQ PUSH2 0x520 JUMPI DUP1 PUSH4 0x23B872DD EQ PUSH2 0x540 JUMPI DUP1 PUSH4 0x264D26DD EQ PUSH2 0x560 JUMPI DUP1 PUSH4 0x2B112E49 EQ PUSH2 0x580 JUMPI PUSH1 0x0 DUP1 REVERT JUMPDEST DUP1 PUSH4 0x1161AE39 EQ PUSH2 0x4B5 JUMPI DUP1 PUSH4 0x1276089B EQ PUSH2 0x4D5 JUMPI DUP1 PUSH4 0x180B0D7E EQ PUSH2 0x4F5 JUMPI DUP1 PUSH4 0x18160DDD EQ PUSH2 0x50B JUMPI PUSH1 0x0 DUP1 REVERT JUMPDEST DUP1 PUSH4 0x8B1FD8F GT PUSH2 0x375 JUMPI DUP1 PUSH4 0x8B1FD8F EQ PUSH2 0x414 JUMPI DUP1 PUSH4 0x95EA7B3 EQ PUSH2 0x44C JUMPI DUP1 PUSH4 0xAF08314 EQ PUSH2 0x47C JUMPI DUP1 PUSH4 0xE30B850 EQ PUSH2 0x4A0 JUMPI PUSH1 0x0 DUP1 REVERT JUMPDEST DUP1 PUSH4 0x1B16827 EQ PUSH2 0x3A7 JUMPI DUP1 PUSH4 0x4A66B48 EQ PUSH2 0x3C9 JUMPI DUP1 PUSH4 0x6FDDE03 EQ PUSH2 0x3E9 JUMPI PUSH1 0x0 DUP1 REVERT JUMPDEST CALLDATASIZE PUSH2 0x3A2 JUMPI STOP JUMPDEST PUSH1 0x0 DUP1 REVERT JUMPDEST CALLVALUE DUP1 ISZERO PUSH2 0x3B3 JUMPI PUSH1 0x0 DUP1 REVERT JUMPDEST POP PUSH2 0x3C7 PUSH2 0x3C2 CALLDATASIZE PUSH1 0x4 PUSH2 0x2E81 JUMP JUMPDEST PUSH2 0xAC7 JUMP JUMPDEST STOP JUMPDEST CALLVALUE DUP1 ISZERO PUSH2 0x3D5 JUMPI PUSH1 0x0 DUP1 REVERT JUMPDEST POP PUSH2 0x3C7 PUSH2 0x3E4 CALLDATASIZE PUSH1 0x4 PUSH2 0x2ECF JUMP JUMPDEST PUSH2 0xB17 JUMP JUMPDEST CALLVALUE DUP1 ISZERO PUSH2 0x3F5 JUMPI PUSH1 0x0 DUP1 REVERT JUMPDEST POP PUSH2 0x3FE PUSH2 0xD0C JUMP JUMPDEST PUSH1 0x40 MLOAD PUSH2 0x40B SWAP2 SWAP1 PUSH2 0x2F09 JUMP JUMPDEST PUSH1 0x40 MLOAD DUP1 SWAP2 SUB SWAP1 RETURN JUMPDEST CALLVALUE DUP1 ISZERO PUSH2 0x420 JUMPI PUSH1 0x0 DUP1 REVERT JUMPDEST POP PUSH1 0xF SLOAD PUSH2 0x434 SWAP1 PUSH1 0x1 PUSH1 0x1 PUSH1 0xA0 SHL SUB AND DUP2 JUMP JUMPDEST PUSH1 0x40 MLOAD PUSH1 0x1 PUSH1 0x1 PUSH1 0xA0 SHL SUB SWAP1 SWAP2 AND DUP2 MSTORE PUSH1 0x20 ADD PUSH2 0x40B JUMP JUMPDEST CALLVALUE DUP1 ISZERO PUSH2 0x458 JUMPI PUSH1 0x0 DUP1 REVERT JUMPDEST POP PUSH2 0x46C PUSH2 0x467 CALLDATASIZE PUSH1 0x4 PUSH2 0x2DDA JUMP JUMPDEST PUSH2 0xD9E JUMP JUMPDEST PUSH1 0x40 MLOAD SWAP1 ISZERO ISZERO DUP2 MSTORE PUSH1 0x20 ADD PUSH2 0x40B JUMP JUMPDEST CALLVALUE DUP1 ISZERO PUSH2 0x488 JUMPI PUSH1 0x0 DUP1 REVERT JUMPDEST POP PUSH2 0x492 PUSH1 0x5 SLOAD DUP2 JUMP JUMPDEST PUSH1 0x40 MLOAD SWAP1 DUP2 MSTORE PUSH1 0x20 ADD PUSH2 0x40B JUMP JUMPDEST CALLVALUE DUP1 ISZERO PUSH2 0x4AC JUMPI PUSH1 0x0 DUP1 REVERT JUMPDEST POP PUSH2 0x492 PUSH1 0x3 DUP2 JUMP JUMPDEST CALLVALUE DUP1 ISZERO PUSH2 0x4C1 JUMPI PUSH1 0x0 DUP1 REVERT JUMPDEST POP PUSH2 0x46C PUSH2 0x4D0 CALLDATASIZE PUSH1 0x4 PUSH2 0x2E81 JUMP JUMPDEST PUSH2 0xE0B JUMP JUMPDEST CALLVALUE DUP1 ISZERO PUSH2 0x4E1 JUMPI PUSH1 0x0 DUP1 REVERT JUMPDEST POP PUSH2 0x3C7 PUSH2 0x4F0 CALLDATASIZE PUSH1 0x4 PUSH2 0x2E05 JUMP JUMPDEST PUSH2 0xE1F JUMP JUMPDEST CALLVALUE DUP1 ISZERO PUSH2 0x501 JUMPI PUSH1 0x0 DUP1 REVERT JUMPDEST POP PUSH2 0x492 PUSH1 0x1A SLOAD DUP2 JUMP JUMPDEST CALLVALUE DUP1 ISZERO PUSH2 0x517 JUMPI PUSH1 0x0 DUP1 REVERT JUMPDEST POP PUSH1 0x1E SLOAD PUSH2 0x492 JUMP JUMPDEST CALLVALUE DUP1 ISZERO PUSH2 0x52C JUMPI PUSH1 0x0 DUP1 REVERT JUMPDEST POP PUSH2 0x3C7 PUSH2 0x53B CALLDATASIZE PUSH1 0x4 PUSH2 0x2E81 JUMP JUMPDEST PUSH2 0xEB6 JUMP JUMPDEST CALLVALUE DUP1 ISZERO PUSH2 0x54C JUMPI PUSH1 0x0 DUP1 REVERT JUMPDEST POP PUSH2 0x46C PUSH2 0x55B CALLDATASIZE PUSH1 0x4 PUSH2 0x2D66 JUMP JUMPDEST PUSH2 0xEFE JUMP JUMPDEST CALLVALUE DUP1 ISZERO PUSH2 0x56C JUMPI PUSH1 0x0 DUP1 REVERT JUMPDEST POP PUSH1 0xE SLOAD PUSH2 0x434 SWAP1 PUSH1 0x1 PUSH1 0x1 PUSH1 0xA0 SHL SUB AND DUP2 JUMP JUMPDEST CALLVALUE DUP1 ISZERO PUSH2 0x58C JUMPI PUSH1 0x0 DUP1 REVERT JUMPDEST POP PUSH2 0x492 PUSH2 0x1022 JUMP JUMPDEST CALLVALUE DUP1 ISZERO PUSH2 0x5A1 JUMPI PUSH1 0x0 DUP1 REVERT JUMPDEST POP PUSH1 0x2 SLOAD PUSH1 0x40 MLOAD PUSH1 0xFF SWAP1 SWAP2 AND DUP2 MSTORE PUSH1 0x20 ADD PUSH2 0x40B JUMP JUMPDEST CALLVALUE DUP1 ISZERO PUSH2 0x5C3 JUMPI PUSH1 0x0 DUP1 REVERT JUMPDEST POP PUSH2 0x46C PUSH2 0x5D2 CALLDATASIZE PUSH1 0x4 PUSH2 0x2DDA JUMP JUMPDEST PUSH2 0x10A2 JUMP JUMPDEST CALLVALUE DUP1 ISZERO PUSH2 0x5E3 JUMPI PUSH1 0x0 DUP1 REVERT JUMPDEST POP PUSH2 0x3C7 PUSH2 0x5F2 CALLDATASIZE PUSH1 0x4 PUSH2 0x2E51 JUMP JUMPDEST PUSH2 0x1127 JUMP JUMPDEST CALLVALUE DUP1 ISZERO PUSH2 0x603 JUMPI PUSH1 0x0 DUP1 REVERT JUMPDEST POP PUSH2 0x3C7 PUSH2 0x612 CALLDATASIZE PUSH1 0x4 PUSH2 0x2E05 JUMP JUMPDEST PUSH2 0x11A1 JUMP JUMPDEST CALLVALUE DUP1 ISZERO PUSH2 0x623 JUMPI PUSH1 0x0 DUP1 REVERT JUMPDEST POP PUSH2 0x492 PUSH1 0x18 SLOAD DUP2 JUMP JUMPDEST CALLVALUE DUP1 ISZERO PUSH2 0x639 JUMPI PUSH1 0x0 DUP1 REVERT JUMPDEST POP PUSH2 0x3C7 PUSH2 0x1245 JUMP JUMPDEST CALLVALUE DUP1 ISZERO PUSH2 0x64E JUMPI PUSH1 0x0 DUP1 REVERT JUMPDEST POP PUSH2 0x492 PUSH2 0x133F JUMP JUMPDEST CALLVALUE DUP1 ISZERO PUSH2 0x663 JUMPI PUSH1 0x0 DUP1 REVERT JUMPDEST POP PUSH1 0x4 SLOAD PUSH2 0x46C SWAP1 PUSH2 0x100 SWAP1 DIV PUSH1 0xFF AND DUP2 JUMP JUMPDEST CALLVALUE DUP1 ISZERO PUSH2 0x682 JUMPI PUSH1 0x0 DUP1 REVERT JUMPDEST POP PUSH2 0x492 PUSH1 0x5 DUP2 JUMP JUMPDEST CALLVALUE DUP1 ISZERO PUSH2 0x697 JUMPI PUSH1 0x0 DUP1 REVERT JUMPDEST POP PUSH2 0x492 PUSH2 0x6A6 CALLDATASIZE PUSH1 0x4 PUSH2 0x2CAC JUMP JUMPDEST PUSH2 0x1358 JUMP JUMPDEST CALLVALUE DUP1 ISZERO PUSH2 0x6B7 JUMPI PUSH1 0x0 DUP1 REVERT JUMPDEST POP PUSH2 0x3C7 PUSH2 0x1380 JUMP JUMPDEST CALLVALUE DUP1 ISZERO PUSH2 0x6CC JUMPI PUSH1 0x0 DUP1 REVERT JUMPDEST POP PUSH2 0x3C7 PUSH2 0x1392 JUMP JUMPDEST CALLVALUE DUP1 ISZERO PUSH2 0x6E1 JUMPI PUSH1 0x0 DUP1 REVERT JUMPDEST POP PUSH2 0x3C7 PUSH2 0x6F0 CALLDATASIZE PUSH1 0x4 PUSH2 0x2CAC JUMP JUMPDEST PUSH2 0x144F JUMP JUMPDEST CALLVALUE DUP1 ISZERO PUSH2 0x701 JUMPI PUSH1 0x0 DUP1 REVERT JUMPDEST POP PUSH1 0x10 SLOAD PUSH2 0x434 SWAP1 PUSH1 0x1 PUSH1 0x1 PUSH1 0xA0 SHL SUB AND DUP2 JUMP JUMPDEST CALLVALUE DUP1 ISZERO PUSH2 0x721 JUMPI PUSH1 0x0 DUP1 REVERT JUMPDEST POP PUSH2 0x492 PUSH1 0x17 SLOAD DUP2 JUMP JUMPDEST CALLVALUE DUP1 ISZERO PUSH2 0x737 JUMPI PUSH1 0x0 DUP1 REVERT JUMPDEST POP PUSH1 0x4 SLOAD PUSH2 0x46C SWAP1 PUSH4 0x1000000 SWAP1 DIV PUSH1 0xFF AND DUP2 JUMP JUMPDEST CALLVALUE DUP1 ISZERO PUSH2 0x758 JUMPI PUSH1 0x0 DUP1 REVERT JUMPDEST POP PUSH2 0x492 PUSH1 0x7 SLOAD DUP2 JUMP JUMPDEST CALLVALUE DUP1 ISZERO PUSH2 0x76E JUMPI PUSH1 0x0 DUP1 REVERT JUMPDEST POP PUSH1 0x2 SLOAD PUSH2 0x100 SWAP1 DIV PUSH1 0x1 PUSH1 0x1 PUSH1 0xA0 SHL SUB AND PUSH2 0x434 JUMP JUMPDEST CALLVALUE DUP1 ISZERO PUSH2 0x791 JUMPI PUSH1 0x0 DUP1 REVERT JUMPDEST POP PUSH2 0x3C7 PUSH2 0x7A0 CALLDATASIZE PUSH1 0x4 PUSH2 0x2DA6 JUMP JUMPDEST PUSH2 0x14C9 JUMP JUMPDEST CALLVALUE DUP1 ISZERO PUSH2 0x7B1 JUMPI PUSH1 0x0 DUP1 REVERT JUMPDEST POP PUSH1 0x4 SLOAD PUSH2 0x46C SWAP1 PUSH3 0x10000 SWAP1 DIV PUSH1 0xFF AND DUP2 JUMP JUMPDEST CALLVALUE DUP1 ISZERO PUSH2 0x7D1 JUMPI PUSH1 0x0 DUP1 REVERT JUMPDEST POP PUSH2 0x3FE PUSH2 0x158A JUMP JUMPDEST CALLVALUE DUP1 ISZERO PUSH2 0x7E6 JUMPI PUSH1 0x0 DUP1 REVERT JUMPDEST POP PUSH2 0x492 PUSH1 0x16 SLOAD DUP2 JUMP JUMPDEST CALLVALUE DUP1 ISZERO PUSH2 0x7FC JUMPI PUSH1 0x0 DUP1 REVERT JUMPDEST POP PUSH2 0x492 PUSH1 0x14 SLOAD DUP2 JUMP JUMPDEST CALLVALUE DUP1 ISZERO PUSH2 0x812 JUMPI PUSH1 0x0 DUP1 REVERT JUMPDEST POP PUSH2 0x3C7 PUSH2 0x821 CALLDATASIZE PUSH1 0x4 PUSH2 0x2DA6 JUMP JUMPDEST PUSH2 0x1599 JUMP JUMPDEST CALLVALUE DUP1 ISZERO PUSH2 0x832 JUMPI PUSH1 0x0 DUP1 REVERT JUMPDEST POP PUSH2 0x3C7 PUSH2 0x841 CALLDATASIZE PUSH1 0x4 PUSH2 0x2E51 JUMP JUMPDEST PUSH2 0x185E JUMP JUMPDEST CALLVALUE DUP1 ISZERO PUSH2 0x852 JUMPI PUSH1 0x0 DUP1 REVERT JUMPDEST POP PUSH2 0x492 PUSH1 0x19 SLOAD DUP2 JUMP JUMPDEST CALLVALUE DUP1 ISZERO PUSH2 0x868 JUMPI PUSH1 0x0 DUP1 REVERT JUMPDEST POP PUSH2 0x46C PUSH2 0x877 CALLDATASIZE PUSH1 0x4 PUSH2 0x2DDA JUMP JUMPDEST PUSH2 0x189B JUMP JUMPDEST CALLVALUE DUP1 ISZERO PUSH2 0x888 JUMPI PUSH1 0x0 DUP1 REVERT JUMPDEST POP PUSH1 0x13 SLOAD PUSH2 0x434 SWAP1 PUSH1 0x1 PUSH1 0x1 PUSH1 0xA0 SHL SUB AND DUP2 JUMP JUMPDEST CALLVALUE DUP1 ISZERO PUSH2 0x8A8 JUMPI PUSH1 0x0 DUP1 REVERT JUMPDEST POP PUSH2 0x46C PUSH2 0x8B7 CALLDATASIZE PUSH1 0x4 PUSH2 0x2DDA JUMP JUMPDEST PUSH2 0x1982 JUMP JUMPDEST CALLVALUE DUP1 ISZERO PUSH2 0x8C8 JUMPI PUSH1 0x0 DUP1 REVERT JUMPDEST POP PUSH1 0x11 SLOAD PUSH2 0x434 SWAP1 PUSH1 0x1 PUSH1 0x1 PUSH1 0xA0 SHL SUB AND DUP2 JUMP JUMPDEST CALLVALUE DUP1 ISZERO PUSH2 0x8E8 JUMPI PUSH1 0x0 DUP1 REVERT JUMPDEST POP PUSH2 0x46C PUSH2 0x8F7 CALLDATASIZE PUSH1 0x4 PUSH2 0x2CAC JUMP JUMPDEST PUSH1 0xB PUSH1 0x20 MSTORE PUSH1 0x0 SWAP1 DUP2 MSTORE PUSH1 0x40 SWAP1 KECCAK256 SLOAD PUSH1 0xFF AND DUP2 JUMP JUMPDEST CALLVALUE DUP1 ISZERO PUSH2 0x918 JUMPI PUSH1 0x0 DUP1 REVERT JUMPDEST POP PUSH2 0x492 PUSH1 0x8 SLOAD DUP2 JUMP JUMPDEST CALLVALUE DUP1 ISZERO PUSH2 0x92E JUMPI PUSH1 0x0 DUP1 REVERT JUMPDEST POP PUSH2 0x492 PUSH1 0x15 SLOAD DUP2 JUMP JUMPDEST CALLVALUE DUP1 ISZERO PUSH2 0x944 JUMPI PUSH1 0x0 DUP1 REVERT JUMPDEST POP PUSH2 0x3C7 PUSH2 0x953 CALLDATASIZE PUSH1 0x4 PUSH2 0x2E1F JUMP JUMPDEST PUSH2 0x19F1 JUMP JUMPDEST CALLVALUE DUP1 ISZERO PUSH2 0x964 JUMPI PUSH1 0x0 DUP1 REVERT JUMPDEST POP PUSH1 0x4 SLOAD PUSH2 0x46C SWAP1 PUSH1 0xFF AND DUP2 JUMP JUMPDEST CALLVALUE DUP1 ISZERO PUSH2 0x97E JUMPI PUSH1 0x0 DUP1 REVERT JUMPDEST POP PUSH2 0x46C PUSH2 0x98D CALLDATASIZE PUSH1 0x4 PUSH2 0x2CAC JUMP JUMPDEST PUSH1 0x1 PUSH1 0x1 PUSH1 0xA0 SHL SUB AND PUSH1 0x0 SWAP1 DUP2 MSTORE PUSH1 0x9 PUSH1 0x20 MSTORE PUSH1 0x40 SWAP1 KECCAK256 SLOAD PUSH1 0xFF AND SWAP1 JUMP JUMPDEST CALLVALUE DUP1 ISZERO PUSH2 0x9B7 JUMPI PUSH1 0x0 DUP1 REVERT JUMPDEST POP PUSH2 0x492 PUSH2 0x9C6 CALLDATASIZE PUSH1 0x4 PUSH2 0x2E51 JUMP JUMPDEST PUSH2 0x1A98 JUMP JUMPDEST CALLVALUE DUP1 ISZERO PUSH2 0x9D7 JUMPI PUSH1 0x0 DUP1 REVERT JUMPDEST POP PUSH2 0x492 PUSH1 0x6 SLOAD DUP2 JUMP JUMPDEST CALLVALUE DUP1 ISZERO PUSH2 0x9ED JUMPI PUSH1 0x0 DUP1 REVERT JUMPDEST POP PUSH2 0x3C7 PUSH2 0x9FC CALLDATASIZE PUSH1 0x4 PUSH2 0x2D1C JUMP JUMPDEST PUSH2 0x1B3A JUMP JUMPDEST CALLVALUE DUP1 ISZERO PUSH2 0xA0D JUMPI PUSH1 0x0 DUP1 REVERT JUMPDEST POP PUSH2 0x492 PUSH2 0xA1C CALLDATASIZE PUSH1 0x4 PUSH2 0x2CE4 JUMP JUMPDEST PUSH1 0x1 PUSH1 0x1 PUSH1 0xA0 SHL SUB SWAP2 DUP3 AND PUSH1 0x0 SWAP1 DUP2 MSTORE PUSH1 0x22 PUSH1 0x20 SWAP1 DUP2 MSTORE PUSH1 0x40 DUP1 DUP4 KECCAK256 SWAP4 SWAP1 SWAP5 AND DUP3 MSTORE SWAP2 SWAP1 SWAP2 MSTORE KECCAK256 SLOAD SWAP1 JUMP JUMPDEST CALLVALUE DUP1 ISZERO PUSH2 0xA53 JUMPI PUSH1 0x0 DUP1 REVERT JUMPDEST POP PUSH2 0x3C7 PUSH2 0xA62 CALLDATASIZE PUSH1 0x4 PUSH2 0x2E05 JUMP JUMPDEST PUSH2 0x1BBE JUMP JUMPDEST CALLVALUE DUP1 ISZERO PUSH2 0xA73 JUMPI PUSH1 0x0 DUP1 REVERT JUMPDEST POP PUSH2 0x434 PUSH2 0xA82 CALLDATASIZE PUSH1 0x4 PUSH2 0x2E51 JUMP JUMPDEST PUSH2 0x1C5F JUMP JUMPDEST CALLVALUE DUP1 ISZERO PUSH2 0xA93 JUMPI PUSH1 0x0 DUP1 REVERT JUMPDEST POP PUSH2 0x3C7 PUSH2 0xAA2 CALLDATASIZE PUSH1 0x4 PUSH2 0x2CAC JUMP JUMPDEST PUSH2 0x1C89 JUMP JUMPDEST CALLVALUE DUP1 ISZERO PUSH2 0xAB3 JUMPI PUSH1 0x0 DUP1 REVERT JUMPDEST POP PUSH1 0x12 SLOAD PUSH2 0x434 SWAP1 PUSH1 0x1 PUSH1 0x1 PUSH1 0xA0 SHL SUB AND DUP2 JUMP JUMPDEST PUSH2 0xACF PUSH2 0x1D17 JUMP JUMPDEST PUSH1 0x5 DUP3 SWAP1 SSTORE PUSH1 0x6 DUP2 SWAP1 SSTORE PUSH1 0x40 DUP1 MLOAD DUP4 DUP2 MSTORE PUSH1 0x20 DUP2 ADD DUP4 SWAP1 MSTORE PUSH32 0x3F34134CBDD92374AF629B5BA82900DE3E5301E7206333E1463E306916507D56 SWAP2 ADD JUMPDEST PUSH1 0x40 MLOAD DUP1 SWAP2 SUB SWAP1 LOG1 POP POP JUMP JUMPDEST PUSH2 0xB1F PUSH2 0x1D17 JUMP JUMPDEST PUSH1 0x5 DUP6 GT ISZERO DUP1 ISZERO PUSH2 0xB31 JUMPI POP PUSH1 0x5 DUP5 GT ISZERO JUMPDEST DUP1 ISZERO PUSH2 0xB3E JUMPI POP PUSH1 0x5 DUP4 GT ISZERO JUMPDEST DUP1 ISZERO PUSH2 0xB4B JUMPI POP PUSH1 0x5 DUP3 GT ISZERO JUMPDEST PUSH2 0xB84 JUMPI PUSH1 0x40 MLOAD PUSH3 0x461BCD PUSH1 0xE5 SHL DUP2 MSTORE PUSH1 0x20 PUSH1 0x4 DUP3 ADD MSTORE PUSH1 0x5 PUSH1 0x24 DUP3 ADD MSTORE PUSH5 0x77726F6E67 PUSH1 0xD8 SHL PUSH1 0x44 DUP3 ADD MSTORE PUSH1 0x64 ADD JUMPDEST PUSH1 0x40 MLOAD DUP1 SWAP2 SUB SWAP1 REVERT JUMPDEST PUSH1 0x14 DUP6 SWAP1 SSTORE PUSH1 0x16 DUP5 SWAP1 SSTORE PUSH1 0x15 DUP4 SWAP1 SSTORE PUSH1 0x17 DUP3 SWAP1 SSTORE PUSH2 0xBAC DUP5 PUSH2 0xBA6 DUP8 DUP7 PUSH2 0x1CFF JUMP JUMPDEST SWAP1 PUSH2 0x1CFF JUMP JUMPDEST PUSH1 0x18 DUP2 SWAP1 SSTORE PUSH1 0x17 SLOAD PUSH2 0xBBE SWAP2 SWAP1 PUSH2 0x1CFF JUMP JUMPDEST PUSH1 0x19 SSTORE PUSH1 0x18 SLOAD PUSH1 0x3 LT ISZERO PUSH2 0xC14 JUMPI PUSH1 0x40 MLOAD PUSH3 0x461BCD PUSH1 0xE5 SHL DUP2 MSTORE PUSH1 0x20 PUSH1 0x4 DUP3 ADD MSTORE PUSH1 0x19 PUSH1 0x24 DUP3 ADD MSTORE PUSH32 0x546F74616C204255592066656520697320746F6F206869676800000000000000 PUSH1 0x44 DUP3 ADD MSTORE PUSH1 0x64 ADD PUSH2 0xB7B JUMP JUMPDEST PUSH1 0x5 PUSH1 0x19 SLOAD GT ISZERO PUSH2 0xC67 JUMPI PUSH1 0x40 MLOAD PUSH3 0x461BCD PUSH1 0xE5 SHL DUP2 MSTORE PUSH1 0x20 PUSH1 0x4 DUP3 ADD MSTORE PUSH1 0x1A PUSH1 0x24 DUP3 ADD MSTORE PUSH32 0x546F74616C2053454C4C2066656520697320746F6F2068696768000000000000 PUSH1 0x44 DUP3 ADD MSTORE PUSH1 0x64 ADD PUSH2 0xB7B JUMP JUMPDEST PUSH1 0x1A DUP2 SWAP1 SSTORE PUSH2 0xC77 PUSH1 0x4 DUP3 PUSH2 0x2FE4 JUMP JUMPDEST PUSH1 0x18 SLOAD LT PUSH2 0xCB5 JUMPI PUSH1 0x40 MLOAD PUSH3 0x461BCD PUSH1 0xE5 SHL DUP2 MSTORE PUSH1 0x20 PUSH1 0x4 DUP3 ADD MSTORE PUSH1 0xB PUSH1 0x24 DUP3 ADD MSTORE PUSH11 0x746F74616C427579466565 PUSH1 0xA8 SHL PUSH1 0x44 DUP3 ADD MSTORE PUSH1 0x64 ADD PUSH2 0xB7B JUMP JUMPDEST PUSH1 0x40 DUP1 MLOAD DUP7 DUP2 MSTORE PUSH1 0x20 DUP2 ADD DUP7 SWAP1 MSTORE SWAP1 DUP2 ADD DUP5 SWAP1 MSTORE PUSH1 0x60 DUP2 ADD DUP4 SWAP1 MSTORE PUSH1 0x80 DUP2 ADD DUP3 SWAP1 MSTORE PUSH32 0x881C278B86EF48391462A184EA0F2A579FEC4C752524D2982EB0E2C9A956B7A3 SWAP1 PUSH1 0xA0 ADD JUMPDEST PUSH1 0x40 MLOAD DUP1 SWAP2 SUB SWAP1 LOG1 POP POP POP POP POP JUMP JUMPDEST PUSH1 0x60 PUSH1 0x0 DUP1 SLOAD PUSH2 0xD1B SWAP1 PUSH2 0x3119 JUMP JUMPDEST DUP1 PUSH1 0x1F ADD PUSH1 0x20 DUP1 SWAP2 DIV MUL PUSH1 0x20 ADD PUSH1 0x40 MLOAD SWAP1 DUP2 ADD PUSH1 0x40 MSTORE DUP1 SWAP3 SWAP2 SWAP1 DUP2 DUP2 MSTORE PUSH1 0x20 ADD DUP3 DUP1 SLOAD PUSH2 0xD47 SWAP1 PUSH2 0x3119 JUMP JUMPDEST DUP1 ISZERO PUSH2 0xD94 JUMPI DUP1 PUSH1 0x1F LT PUSH2 0xD69 JUMPI PUSH2 0x100 DUP1 DUP4 SLOAD DIV MUL DUP4 MSTORE SWAP2 PUSH1 0x20 ADD SWAP2 PUSH2 0xD94 JUMP JUMPDEST DUP3 ADD SWAP2 SWAP1 PUSH1 0x0 MSTORE PUSH1 0x20 PUSH1 0x0 KECCAK256 SWAP1 JUMPDEST DUP2 SLOAD DUP2 MSTORE SWAP1 PUSH1 0x1 ADD SWAP1 PUSH1 0x20 ADD DUP1 DUP4 GT PUSH2 0xD77 JUMPI DUP3 SWAP1 SUB PUSH1 0x1F AND DUP3 ADD SWAP2 JUMPDEST POP POP POP POP POP SWAP1 POP SWAP1 JUMP JUMPDEST CALLER PUSH1 0x0 DUP2 DUP2 MSTORE PUSH1 0x22 PUSH1 0x20 SWAP1 DUP2 MSTORE PUSH1 0x40 DUP1 DUP4 KECCAK256 PUSH1 0x1 PUSH1 0x1 PUSH1 0xA0 SHL SUB DUP8 AND DUP1 DUP6 MSTORE SWAP3 MSTORE DUP1 DUP4 KECCAK256 DUP6 SWAP1 SSTORE MLOAD SWAP2 SWAP3 SWAP1 SWAP2 PUSH32 0x8C5BE1E5EBEC7D5BD14F71427D1E84F3DD0314C0F7B2291E5B200AC8C7C3B925 SWAP1 PUSH2 0xDF9 SWAP1 DUP7 DUP2 MSTORE PUSH1 0x20 ADD SWAP1 JUMP JUMPDEST PUSH1 0x40 MLOAD DUP1 SWAP2 SUB SWAP1 LOG3 POP PUSH1 0x1 JUMPDEST SWAP3 SWAP2 POP POP JUMP JUMPDEST PUSH1 0x0 DUP3 PUSH2 0xE17 DUP4 PUSH2 0x1A98 JUMP JUMPDEST GT SWAP4 SWAP3 POP POP POP JUMP JUMPDEST PUSH2 0xE27 PUSH2 0x1D17 JUMP JUMPDEST PUSH1 0x4 SLOAD PUSH1 0xFF AND ISZERO ISZERO DUP2 ISZERO ISZERO EQ ISZERO PUSH2 0xE6E JUMPI PUSH1 0x40 MLOAD PUSH3 0x461BCD PUSH1 0xE5 SHL DUP2 MSTORE PUSH1 0x20 PUSH1 0x4 DUP3 ADD MSTORE PUSH1 0xB PUSH1 0x24 DUP3 ADD MSTORE PUSH11 0x139BDD0818DA185B99D959 PUSH1 0xAA SHL PUSH1 0x44 DUP3 ADD MSTORE PUSH1 0x64 ADD PUSH2 0xB7B JUMP JUMPDEST PUSH1 0x4 DUP1 SLOAD PUSH1 0xFF NOT AND DUP3 ISZERO ISZERO SWAP1 DUP2 OR SWAP1 SWAP2 SSTORE PUSH1 0x40 MLOAD SWAP1 DUP2 MSTORE PUSH32 0x7FF743F3545E37DC045546239E43C5339AA2A94F682E0350554FB0FB044ED376 SWAP1 PUSH1 0x20 ADD JUMPDEST PUSH1 0x40 MLOAD DUP1 SWAP2 SUB SWAP1 LOG1 POP JUMP JUMPDEST PUSH2 0xEBE PUSH2 0x1D17 JUMP JUMPDEST PUSH1 0x1B DUP3 SWAP1 SSTORE PUSH1 0x1C DUP2 SWAP1 SSTORE PUSH1 0x40 DUP1 MLOAD DUP4 DUP2 MSTORE PUSH1 0x20 DUP2 ADD DUP4 SWAP1 MSTORE PUSH32 0x61B037FBF40888C3D344A3DFA6986A7D511FEDA40CAC15B93162E3E21713AED6 SWAP2 ADD PUSH2 0xB0B JUMP JUMPDEST PUSH1 0x0 DUP3 PUSH1 0x1 PUSH1 0x1 PUSH1 0xA0 SHL SUB DUP2 AND PUSH2 0xF57 JUMPI PUSH1 0x40 MLOAD PUSH3 0x461BCD PUSH1 0xE5 SHL DUP2 MSTORE PUSH1 0x20 PUSH1 0x4 DUP3 ADD MSTORE PUSH1 0x16 PUSH1 0x24 DUP3 ADD MSTORE PUSH32 0x526563697069656E74207A65726F206164647265737300000000000000000000 PUSH1 0x44 DUP3 ADD MSTORE PUSH1 0x64 ADD PUSH2 0xB7B JUMP JUMPDEST PUSH1 0x1 PUSH1 0x1 PUSH1 0xA0 SHL SUB DUP6 AND PUSH1 0x0 SWAP1 DUP2 MSTORE PUSH1 0x22 PUSH1 0x20 SWAP1 DUP2 MSTORE PUSH1 0x40 DUP1 DUP4 KECCAK256 CALLER DUP5 MSTORE SWAP1 SWAP2 MSTORE SWAP1 KECCAK256 SLOAD PUSH1 0x0 NOT EQ PUSH2 0x100B JUMPI PUSH1 0x40 DUP1 MLOAD DUP1 DUP3 ADD DUP3 MSTORE PUSH1 0x16 DUP2 MSTORE PUSH32 0x496E73756666696369656E7420416C6C6F77616E636500000000000000000000 PUSH1 0x20 DUP1 DUP4 ADD SWAP2 SWAP1 SWAP2 MSTORE PUSH1 0x1 PUSH1 0x1 PUSH1 0xA0 SHL SUB DUP9 AND PUSH1 0x0 SWAP1 DUP2 MSTORE PUSH1 0x22 DUP3 MSTORE DUP4 DUP2 KECCAK256 CALLER DUP3 MSTORE SWAP1 SWAP2 MSTORE SWAP2 SWAP1 SWAP2 KECCAK256 SLOAD PUSH2 0xFE6 SWAP2 DUP6 SWAP1 PUSH2 0x1D77 JUMP JUMPDEST PUSH1 0x1 PUSH1 0x1 PUSH1 0xA0 SHL SUB DUP7 AND PUSH1 0x0 SWAP1 DUP2 MSTORE PUSH1 0x22 PUSH1 0x20 SWAP1 DUP2 MSTORE PUSH1 0x40 DUP1 DUP4 KECCAK256 CALLER DUP5 MSTORE SWAP1 SWAP2 MSTORE SWAP1 KECCAK256 SSTORE JUMPDEST PUSH2 0x1016 DUP6 DUP6 DUP6 PUSH2 0x1DA3 JUMP JUMPDEST POP PUSH1 0x1 SWAP6 SWAP5 POP POP POP POP POP JUMP JUMPDEST PUSH1 0x1F SLOAD PUSH1 0xD SLOAD PUSH1 0x1 PUSH1 0x1 PUSH1 0xA0 SHL SUB SWAP1 DUP2 AND PUSH1 0x0 SWAP1 DUP2 MSTORE PUSH1 0x21 PUSH1 0x20 MSTORE PUSH1 0x40 DUP1 DUP3 KECCAK256 SLOAD PUSH1 0xC SLOAD SWAP1 SWAP4 AND DUP3 MSTORE DUP2 KECCAK256 SLOAD SWAP1 SWAP3 PUSH2 0x109D SWAP3 SWAP1 SWAP2 PUSH2 0x1097 SWAP2 SWAP1 PUSH2 0x1091 SWAP1 PUSH2 0x106B PUSH1 0x12 PUSH1 0xA PUSH2 0x303B JUMP JUMPDEST PUSH2 0x1079 SWAP1 PUSH4 0x89173700 PUSH2 0x30E3 JUMP JUMPDEST PUSH2 0x1085 SWAP1 PUSH1 0x0 NOT PUSH2 0x316F JUMP JUMPDEST PUSH2 0x1091 SWAP1 PUSH1 0x0 NOT PUSH2 0x3102 JUMP JUMPDEST SWAP1 PUSH2 0x1FF6 JUMP JUMPDEST SWAP1 PUSH2 0x1D0B JUMP JUMPDEST SWAP1 POP SWAP1 JUMP JUMPDEST CALLER PUSH1 0x0 SWAP1 DUP2 MSTORE PUSH1 0x22 PUSH1 0x20 SWAP1 DUP2 MSTORE PUSH1 0x40 DUP1 DUP4 KECCAK256 PUSH1 0x1 PUSH1 0x1 PUSH1 0xA0 SHL SUB DUP7 AND DUP5 MSTORE SWAP1 SWAP2 MSTORE DUP2 KECCAK256 SLOAD PUSH2 0x10D0 SWAP1 DUP4 PUSH2 0x1CFF JUMP JUMPDEST CALLER PUSH1 0x0 DUP2 DUP2 MSTORE PUSH1 0x22 PUSH1 0x20 SWAP1 DUP2 MSTORE PUSH1 0x40 DUP1 DUP4 KECCAK256 PUSH1 0x1 PUSH1 0x1 PUSH1 0xA0 SHL SUB DUP10 AND DUP1 DUP6 MSTORE SWAP1 DUP4 MSTORE SWAP3 DUP2 SWAP1 KECCAK256 DUP6 SWAP1 SSTORE MLOAD SWAP4 DUP5 MSTORE SWAP1 SWAP3 PUSH32 0x8C5BE1E5EBEC7D5BD14F71427D1E84F3DD0314C0F7B2291E5B200AC8C7C3B925 SWAP2 ADD PUSH2 0xDF9 JUMP JUMPDEST PUSH2 0x112F PUSH2 0x1D17 JUMP JUMPDEST PUSH2 0x708 DUP2 GT ISZERO PUSH2 0x116C JUMPI PUSH1 0x40 MLOAD PUSH3 0x461BCD PUSH1 0xE5 SHL DUP2 MSTORE PUSH1 0x20 PUSH1 0x4 DUP3 ADD MSTORE PUSH1 0x8 PUSH1 0x24 DUP3 ADD MSTORE PUSH8 0xA8DEDE40D0D2CED PUSH1 0xC3 SHL PUSH1 0x44 DUP3 ADD MSTORE PUSH1 0x64 ADD PUSH2 0xB7B JUMP JUMPDEST PUSH1 0x7 DUP2 SWAP1 SSTORE PUSH1 0x40 MLOAD DUP2 DUP2 MSTORE PUSH32 0x2B437B36906BBACFBC05B761A7C548A2789A8F89F67286F88E93B04560822BC7 SWAP1 PUSH1 0x20 ADD PUSH2 0xEAB JUMP JUMPDEST PUSH2 0x11A9 PUSH2 0x1D17 JUMP JUMPDEST PUSH1 0x4 SLOAD PUSH1 0xFF PUSH4 0x1000000 SWAP1 SWAP2 DIV AND ISZERO ISZERO DUP2 ISZERO ISZERO EQ ISZERO PUSH2 0x11F8 JUMPI PUSH1 0x40 MLOAD PUSH3 0x461BCD PUSH1 0xE5 SHL DUP2 MSTORE PUSH1 0x20 PUSH1 0x4 DUP3 ADD MSTORE PUSH1 0xB PUSH1 0x24 DUP3 ADD MSTORE PUSH11 0x139BDD0818DA185B99D959 PUSH1 0xAA SHL PUSH1 0x44 DUP3 ADD MSTORE PUSH1 0x64 ADD PUSH2 0xB7B JUMP JUMPDEST PUSH1 0x4 DUP1 SLOAD DUP3 ISZERO ISZERO PUSH4 0x1000000 MUL PUSH4 0xFF000000 NOT SWAP1 SWAP2 AND OR SWAP1 SSTORE PUSH1 0x40 MLOAD PUSH32 0x83E471AF05D20B81366748EBAAB0192FABE382E712B4F6EB181D018C41A799A7 SWAP1 PUSH2 0xEAB SWAP1 DUP4 ISZERO ISZERO DUP2 MSTORE PUSH1 0x20 ADD SWAP1 JUMP JUMPDEST PUSH2 0x124D PUSH2 0x2002 JUMP JUMPDEST PUSH1 0x1D SLOAD PUSH1 0xFF AND ISZERO PUSH2 0x128C JUMPI PUSH1 0x40 MLOAD PUSH3 0x461BCD PUSH1 0xE5 SHL DUP2 MSTORE PUSH1 0x20 PUSH1 0x4 DUP3 ADD MSTORE PUSH1 0x9 PUSH1 0x24 DUP3 ADD MSTORE PUSH9 0x2A393C9030B3B0B4B7 PUSH1 0xB9 SHL PUSH1 0x44 DUP3 ADD MSTORE PUSH1 0x64 ADD PUSH2 0xB7B JUMP JUMPDEST TIMESTAMP PUSH1 0x8 SLOAD GT ISZERO PUSH2 0x12CC JUMPI PUSH1 0x40 MLOAD PUSH3 0x461BCD PUSH1 0xE5 SHL DUP2 MSTORE PUSH1 0x20 PUSH1 0x4 DUP3 ADD MSTORE PUSH1 0xB PUSH1 0x24 DUP3 ADD MSTORE PUSH11 0x4E6F7420696E2074696D65 PUSH1 0xA8 SHL PUSH1 0x44 DUP3 ADD MSTORE PUSH1 0x64 ADD PUSH2 0xB7B JUMP JUMPDEST PUSH1 0x0 PUSH2 0x12EB PUSH1 0x6 SLOAD PUSH2 0x1097 PUSH1 0x5 SLOAD PUSH1 0x1E SLOAD PUSH2 0x205C SWAP1 SWAP2 SWAP1 PUSH4 0xFFFFFFFF AND JUMP JUMPDEST SWAP1 POP PUSH2 0x12F6 DUP2 PUSH2 0x2068 JUMP JUMPDEST POP PUSH2 0x12FF PUSH2 0x1392 JUMP JUMPDEST PUSH1 0x40 MLOAD DUP2 DUP2 MSTORE PUSH32 0x612668BB4420DF7D3F2FCC122DFD5FD434DC0CB2E1DCE1B8180712F920067711 SWAP1 PUSH1 0x20 ADD PUSH1 0x40 MLOAD DUP1 SWAP2 SUB SWAP1 LOG1 POP PUSH2 0x133D PUSH1 0x1 PUSH1 0x3 SSTORE JUMP JUMPDEST JUMP JUMPDEST PUSH1 0x0 PUSH2 0x109D PUSH1 0x1F SLOAD PUSH1 0x20 SLOAD PUSH2 0x1D0B SWAP1 SWAP2 SWAP1 PUSH4 0xFFFFFFFF AND JUMP JUMPDEST PUSH1 0x1F SLOAD PUSH1 0x1 PUSH1 0x1 PUSH1 0xA0 SHL SUB DUP3 AND PUSH1 0x0 SWAP1 DUP2 MSTORE PUSH1 0x21 PUSH1 0x20 MSTORE PUSH1 0x40 DUP2 KECCAK256 SLOAD SWAP1 SWAP2 PUSH2 0xE05 SWAP2 SWAP1 PUSH2 0x1D0B JUMP JUMPDEST PUSH2 0x1388 PUSH2 0x1D17 JUMP JUMPDEST PUSH2 0x133D PUSH1 0x0 PUSH2 0x2177 JUMP JUMPDEST PUSH1 0x0 JUMPDEST PUSH1 0xA SLOAD DUP2 LT ISZERO PUSH2 0x144C JUMPI PUSH1 0xA DUP2 DUP2 SLOAD DUP2 LT PUSH2 0x13C0 JUMPI PUSH4 0x4E487B71 PUSH1 0xE0 SHL PUSH1 0x0 MSTORE PUSH1 0x32 PUSH1 0x4 MSTORE PUSH1 0x24 PUSH1 0x0 REVERT JUMPDEST PUSH1 0x0 SWAP2 DUP3 MSTORE PUSH1 0x20 DUP3 KECCAK256 ADD SLOAD PUSH1 0x40 DUP1 MLOAD PUSH32 0xFFF6CAE900000000000000000000000000000000000000000000000000000000 DUP2 MSTORE SWAP1 MLOAD PUSH1 0x1 PUSH1 0x1 PUSH1 0xA0 SHL SUB SWAP1 SWAP3 AND SWAP3 PUSH4 0xFFF6CAE9 SWAP3 PUSH1 0x4 DUP1 DUP5 ADD SWAP4 DUP3 SWAP1 SUB ADD DUP2 DUP4 DUP8 DUP1 EXTCODESIZE ISZERO DUP1 ISZERO PUSH2 0x1421 JUMPI PUSH1 0x0 DUP1 REVERT JUMPDEST POP GAS CALL ISZERO DUP1 ISZERO PUSH2 0x1435 JUMPI RETURNDATASIZE PUSH1 0x0 DUP1 RETURNDATACOPY RETURNDATASIZE PUSH1 0x0 REVERT JUMPDEST POP POP POP POP DUP1 DUP1 PUSH2 0x1444 SWAP1 PUSH2 0x3154 JUMP JUMPDEST SWAP2 POP POP PUSH2 0x1395 JUMP JUMPDEST POP JUMP JUMPDEST PUSH2 0x1457 PUSH2 0x1D17 JUMP JUMPDEST PUSH1 0x40 MLOAD SELFBALANCE SWAP1 PUSH1 0x1 PUSH1 0x1 PUSH1 0xA0 SHL SUB DUP4 AND SWAP1 DUP3 ISZERO PUSH2 0x8FC MUL SWAP1 DUP4 SWAP1 PUSH1 0x0 DUP2 DUP2 DUP2 DUP6 DUP9 DUP9 CALL SWAP4 POP POP POP POP ISZERO DUP1 ISZERO PUSH2 0x148F JUMPI RETURNDATASIZE PUSH1 0x0 DUP1 RETURNDATACOPY RETURNDATASIZE PUSH1 0x0 REVERT JUMPDEST POP PUSH1 0x40 MLOAD PUSH1 0x1 PUSH1 0x1 PUSH1 0xA0 SHL SUB DUP4 AND DUP2 MSTORE PUSH32 0x2F0F983BC447DA14DA80EF6B41A88AB1EA636129DF3A6AF92B870934D6802A85 SWAP1 PUSH1 0x20 ADD PUSH2 0xB0B JUMP JUMPDEST PUSH2 0x14D1 PUSH2 0x1D17 JUMP JUMPDEST PUSH1 0x1 PUSH1 0x1 PUSH1 0xA0 SHL SUB DUP3 AND PUSH1 0x0 SWAP1 DUP2 MSTORE PUSH1 0x9 PUSH1 0x20 MSTORE PUSH1 0x40 SWAP1 KECCAK256 SLOAD PUSH1 0xFF AND ISZERO ISZERO DUP2 ISZERO ISZERO EQ ISZERO PUSH2 0x152E JUMPI PUSH1 0x40 MLOAD PUSH3 0x461BCD PUSH1 0xE5 SHL DUP2 MSTORE PUSH1 0x20 PUSH1 0x4 DUP3 ADD MSTORE PUSH1 0xB PUSH1 0x24 DUP3 ADD MSTORE PUSH11 0x139BDD0818DA185B99D959 PUSH1 0xAA SHL PUSH1 0x44 DUP3 ADD MSTORE PUSH1 0x64 ADD PUSH2 0xB7B JUMP JUMPDEST PUSH1 0x1 PUSH1 0x1 PUSH1 0xA0 SHL SUB DUP3 AND PUSH1 0x0 DUP2 DUP2 MSTORE PUSH1 0x9 PUSH1 0x20 SWAP1 DUP2 MSTORE PUSH1 0x40 SWAP2 DUP3 SWAP1 KECCAK256 DUP1 SLOAD PUSH1 0xFF NOT AND DUP6 ISZERO ISZERO SWAP1 DUP2 OR SWAP1 SWAP2 SSTORE DUP3 MLOAD SWAP4 DUP5 MSTORE SWAP1 DUP4 ADD MSTORE PUSH32 0x6BE51401060BE42994125D8C96B787433E7A641A3555E3C3C4765E8A950FA37A SWAP2 ADD PUSH2 0xB0B JUMP JUMPDEST PUSH1 0x60 PUSH1 0x1 DUP1 SLOAD PUSH2 0xD1B SWAP1 PUSH2 0x3119 JUMP JUMPDEST PUSH2 0x15A1 PUSH2 0x1D17 JUMP JUMPDEST PUSH1 0x1 PUSH1 0x1 PUSH1 0xA0 SHL SUB DUP3 AND PUSH1 0x0 SWAP1 DUP2 MSTORE PUSH1 0xB PUSH1 0x20 MSTORE PUSH1 0x40 SWAP1 KECCAK256 SLOAD PUSH1 0xFF AND ISZERO ISZERO DUP2 ISZERO ISZERO EQ ISZERO PUSH2 0x1610 JUMPI PUSH1 0x40 MLOAD PUSH3 0x461BCD PUSH1 0xE5 SHL DUP2 MSTORE PUSH1 0x20 PUSH1 0x4 DUP3 ADD MSTORE PUSH1 0x11 PUSH1 0x24 DUP3 ADD MSTORE PUSH32 0x56616C756520616C726561647920736574000000000000000000000000000000 PUSH1 0x44 DUP3 ADD MSTORE PUSH1 0x64 ADD PUSH2 0xB7B JUMP JUMPDEST PUSH1 0x1 PUSH1 0x1 PUSH1 0xA0 SHL SUB DUP3 AND PUSH1 0x0 SWAP1 DUP2 MSTORE PUSH1 0xB PUSH1 0x20 MSTORE PUSH1 0x40 SWAP1 KECCAK256 DUP1 SLOAD PUSH1 0xFF NOT AND DUP3 ISZERO DUP1 ISZERO SWAP2 SWAP1 SWAP2 OR SWAP1 SWAP2 SSTORE PUSH2 0x168D JUMPI PUSH1 0xA DUP1 SLOAD PUSH1 0x1 DUP2 ADD DUP3 SSTORE PUSH1 0x0 SWAP2 SWAP1 SWAP2 MSTORE PUSH32 0xC65A7BB8D6351C1CF70C95A316CC6A92839C986682D98BC35F958F4883F9D2A8 ADD DUP1 SLOAD PUSH1 0x1 PUSH1 0x1 PUSH1 0xA0 SHL SUB NOT AND PUSH1 0x1 PUSH1 0x1 PUSH1 0xA0 SHL SUB DUP5 AND OR SWAP1 SSTORE PUSH2 0x1822 JUMP JUMPDEST PUSH1 0xA SLOAD PUSH1 0x1 LT PUSH2 0x16DF JUMPI PUSH1 0x40 MLOAD PUSH3 0x461BCD PUSH1 0xE5 SHL DUP2 MSTORE PUSH1 0x20 PUSH1 0x4 DUP3 ADD MSTORE PUSH1 0xF PUSH1 0x24 DUP3 ADD MSTORE PUSH32 0x5265717569726564203120706169720000000000000000000000000000000000 PUSH1 0x44 DUP3 ADD MSTORE PUSH1 0x64 ADD PUSH2 0xB7B JUMP JUMPDEST PUSH1 0x0 JUMPDEST PUSH1 0xA SLOAD DUP2 LT ISZERO PUSH2 0x1820 JUMPI DUP3 PUSH1 0x1 PUSH1 0x1 PUSH1 0xA0 SHL SUB AND PUSH1 0xA DUP3 DUP2 SLOAD DUP2 LT PUSH2 0x1717 JUMPI PUSH4 0x4E487B71 PUSH1 0xE0 SHL PUSH1 0x0 MSTORE PUSH1 0x32 PUSH1 0x4 MSTORE PUSH1 0x24 PUSH1 0x0 REVERT JUMPDEST PUSH1 0x0 SWAP2 DUP3 MSTORE PUSH1 0x20 SWAP1 SWAP2 KECCAK256 ADD SLOAD PUSH1 0x1 PUSH1 0x1 PUSH1 0xA0 SHL SUB AND EQ ISZERO PUSH2 0x180E JUMPI PUSH1 0xA DUP1 SLOAD PUSH2 0x1742 SWAP1 PUSH1 0x1 SWAP1 PUSH2 0x3102 JUMP JUMPDEST DUP2 SLOAD DUP2 LT PUSH2 0x1760 JUMPI PUSH4 0x4E487B71 PUSH1 0xE0 SHL PUSH1 0x0 MSTORE PUSH1 0x32 PUSH1 0x4 MSTORE PUSH1 0x24 PUSH1 0x0 REVERT JUMPDEST PUSH1 0x0 SWAP2 DUP3 MSTORE PUSH1 0x20 SWAP1 SWAP2 KECCAK256 ADD SLOAD PUSH1 0xA DUP1 SLOAD PUSH1 0x1 PUSH1 0x1 PUSH1 0xA0 SHL SUB SWAP1 SWAP3 AND SWAP2 DUP4 SWAP1 DUP2 LT PUSH2 0x179A JUMPI PUSH4 0x4E487B71 PUSH1 0xE0 SHL PUSH1 0x0 MSTORE PUSH1 0x32 PUSH1 0x4 MSTORE PUSH1 0x24 PUSH1 0x0 REVERT JUMPDEST SWAP1 PUSH1 0x0 MSTORE PUSH1 0x20 PUSH1 0x0 KECCAK256 ADD PUSH1 0x0 PUSH2 0x100 EXP DUP2 SLOAD DUP2 PUSH1 0x1 PUSH1 0x1 PUSH1 0xA0 SHL SUB MUL NOT AND SWAP1 DUP4 PUSH1 0x1 PUSH1 0x1 PUSH1 0xA0 SHL SUB AND MUL OR SWAP1 SSTORE POP PUSH1 0xA DUP1 SLOAD DUP1 PUSH2 0x17E7 JUMPI PUSH4 0x4E487B71 PUSH1 0xE0 SHL PUSH1 0x0 MSTORE PUSH1 0x31 PUSH1 0x4 MSTORE PUSH1 0x24 PUSH1 0x0 REVERT JUMPDEST PUSH1 0x0 DUP3 DUP2 MSTORE PUSH1 0x20 SWAP1 KECCAK256 DUP2 ADD PUSH1 0x0 NOT SWAP1 DUP2 ADD DUP1 SLOAD PUSH1 0x1 PUSH1 0x1 PUSH1 0xA0 SHL SUB NOT AND SWAP1 SSTORE ADD SWAP1 SSTORE PUSH2 0x1820 JUMP JUMPDEST DUP1 PUSH2 0x1818 DUP2 PUSH2 0x3154 JUMP JUMPDEST SWAP2 POP POP PUSH2 0x16E2 JUMP JUMPDEST POP JUMPDEST PUSH1 0x40 MLOAD DUP2 ISZERO ISZERO SWAP1 PUSH1 0x1 PUSH1 0x1 PUSH1 0xA0 SHL SUB DUP5 AND SWAP1 PUSH32 0xFFA9187BF1F18BF477BD0EA1BCBB64E93B6A98132473929EDFCE215CD9B16FAB SWAP1 PUSH1 0x0 SWAP1 LOG3 POP POP JUMP JUMPDEST PUSH2 0x1866 PUSH2 0x1D17 JUMP JUMPDEST PUSH1 0x8 DUP2 SWAP1 SSTORE PUSH1 0x40 MLOAD DUP2 DUP2 MSTORE PUSH32 0xDE97971104F1E2EA739B6FA6BD7A7EB834D3ED54FFA08425C5EB48ED9FBC27B6 SWAP1 PUSH1 0x20 ADD PUSH2 0xEAB JUMP JUMPDEST CALLER PUSH1 0x0 SWAP1 DUP2 MSTORE PUSH1 0x22 PUSH1 0x20 SWAP1 DUP2 MSTORE PUSH1 0x40 DUP1 DUP4 KECCAK256 PUSH1 0x1 PUSH1 0x1 PUSH1 0xA0 SHL SUB DUP7 AND DUP5 MSTORE SWAP1 SWAP2 MSTORE DUP2 KECCAK256 SLOAD DUP1 DUP4 LT PUSH2 0x18EF JUMPI CALLER PUSH1 0x0 SWAP1 DUP2 MSTORE PUSH1 0x22 PUSH1 0x20 SWAP1 DUP2 MSTORE PUSH1 0x40 DUP1 DUP4 KECCAK256 PUSH1 0x1 PUSH1 0x1 PUSH1 0xA0 SHL SUB DUP9 AND DUP5 MSTORE SWAP1 SWAP2 MSTORE DUP2 KECCAK256 SSTORE PUSH2 0x191E JUMP JUMPDEST PUSH2 0x18F9 DUP2 DUP5 PUSH2 0x1FF6 JUMP JUMPDEST CALLER PUSH1 0x0 SWAP1 DUP2 MSTORE PUSH1 0x22 PUSH1 0x20 SWAP1 DUP2 MSTORE PUSH1 0x40 DUP1 DUP4 KECCAK256 PUSH1 0x1 PUSH1 0x1 PUSH1 0xA0 SHL SUB DUP10 AND DUP5 MSTORE SWAP1 SWAP2 MSTORE SWAP1 KECCAK256 SSTORE JUMPDEST CALLER PUSH1 0x0 DUP2 DUP2 MSTORE PUSH1 0x22 PUSH1 0x20 SWAP1 DUP2 MSTORE PUSH1 0x40 DUP1 DUP4 KECCAK256 PUSH1 0x1 PUSH1 0x1 PUSH1 0xA0 SHL SUB DUP10 AND DUP1 DUP6 MSTORE SWAP1 DUP4 MSTORE SWAP3 DUP2 SWAP1 KECCAK256 SLOAD SWAP1 MLOAD SWAP1 DUP2 MSTORE SWAP2 SWAP3 SWAP2 PUSH32 0x8C5BE1E5EBEC7D5BD14F71427D1E84F3DD0314C0F7B2291E5B200AC8C7C3B925 SWAP2 ADD PUSH1 0x40 MLOAD DUP1 SWAP2 SUB SWAP1 LOG3 POP PUSH1 0x1 SWAP4 SWAP3 POP POP POP JUMP JUMPDEST PUSH1 0x0 DUP3 PUSH1 0x1 PUSH1 0x1 PUSH1 0xA0 SHL SUB DUP2 AND PUSH2 0x19DB JUMPI PUSH1 0x40 MLOAD PUSH3 0x461BCD PUSH1 0xE5 SHL DUP2 MSTORE PUSH1 0x20 PUSH1 0x4 DUP3 ADD MSTORE PUSH1 0x16 PUSH1 0x24 DUP3 ADD MSTORE PUSH32 0x526563697069656E74207A65726F206164647265737300000000000000000000 PUSH1 0x44 DUP3 ADD MSTORE PUSH1 0x64 ADD PUSH2 0xB7B JUMP JUMPDEST PUSH2 0x19E6 CALLER DUP6 DUP6 PUSH2 0x1DA3 JUMP JUMPDEST POP PUSH1 0x1 SWAP5 SWAP4 POP POP POP POP JUMP JUMPDEST PUSH2 0x19F9 PUSH2 0x1D17 JUMP JUMPDEST PUSH1 0x4 DUP1 SLOAD PUSH2 0xFF00 NOT AND PUSH2 0x100 DUP6 ISZERO ISZERO MUL OR SWAP1 SSTORE PUSH2 0x1A4C DUP3 PUSH2 0x1A46 DUP4 PUSH2 0x1A20 PUSH1 0x12 PUSH1 0xA PUSH2 0x303B JUMP JUMPDEST PUSH2 0x1A2E SWAP1 PUSH4 0x89173700 PUSH2 0x30E3 JUMP JUMPDEST PUSH2 0x1A3A SWAP1 PUSH1 0x0 NOT PUSH2 0x316F JUMP JUMPDEST PUSH2 0x1097 SWAP1 PUSH1 0x0 NOT PUSH2 0x3102 JUMP JUMPDEST SWAP1 PUSH2 0x205C JUMP JUMPDEST PUSH1 0x20 SWAP1 DUP2 SSTORE PUSH1 0x40 DUP1 MLOAD DUP6 ISZERO ISZERO DUP2 MSTORE SWAP2 DUP3 ADD DUP5 SWAP1 MSTORE DUP2 ADD DUP3 SWAP1 MSTORE PUSH32 0x512CFE1AEDABDC06D12A680ACE7434D88A9532C8853515536842F5FF52CBE55A SWAP1 PUSH1 0x60 ADD JUMPDEST PUSH1 0x40 MLOAD DUP1 SWAP2 SUB SWAP1 LOG1 POP POP POP JUMP JUMPDEST PUSH1 0x0 DUP1 DUP1 JUMPDEST PUSH1 0xA SLOAD DUP2 LT ISZERO PUSH2 0x1B0A JUMPI PUSH2 0x1AF7 PUSH2 0x1AF0 PUSH4 0x3B9ACA00 PUSH2 0x1097 PUSH1 0xA DUP6 DUP2 SLOAD DUP2 LT PUSH2 0x1AD6 JUMPI PUSH4 0x4E487B71 PUSH1 0xE0 SHL PUSH1 0x0 MSTORE PUSH1 0x32 PUSH1 0x4 MSTORE PUSH1 0x24 PUSH1 0x0 REVERT JUMPDEST PUSH1 0x0 SWAP2 DUP3 MSTORE PUSH1 0x20 SWAP1 SWAP2 KECCAK256 ADD SLOAD PUSH1 0x1 PUSH1 0x1 PUSH1 0xA0 SHL SUB AND PUSH2 0x1358 JUMP JUMPDEST DUP4 SWAP1 PUSH2 0x1CFF JUMP JUMPDEST POP DUP1 PUSH2 0x1B02 DUP2 PUSH2 0x3154 JUMP JUMPDEST SWAP2 POP POP PUSH2 0x1A9D JUMP JUMPDEST POP PUSH2 0x1B33 PUSH2 0x1B1E PUSH4 0x3B9ACA00 PUSH2 0x1097 PUSH2 0x1022 JUMP JUMPDEST PUSH2 0x1097 PUSH2 0x1B2C DUP5 PUSH1 0x2 PUSH2 0x205C JUMP JUMPDEST DUP7 SWAP1 PUSH2 0x205C JUMP JUMPDEST SWAP4 SWAP3 POP POP POP JUMP JUMPDEST PUSH2 0x1B42 PUSH2 0x1D17 JUMP JUMPDEST PUSH1 0xE DUP1 SLOAD PUSH1 0x1 PUSH1 0x1 PUSH1 0xA0 SHL SUB DUP6 DUP2 AND PUSH1 0x1 PUSH1 0x1 PUSH1 0xA0 SHL SUB NOT SWAP3 DUP4 AND DUP2 OR SWAP1 SWAP4 SSTORE PUSH1 0xF DUP1 SLOAD DUP7 DUP4 AND SWAP1 DUP5 AND DUP2 OR SWAP1 SWAP2 SSTORE PUSH1 0x10 DUP1 SLOAD SWAP3 DUP7 AND SWAP3 SWAP1 SWAP4 AND DUP3 OR SWAP1 SWAP3 SSTORE PUSH1 0x40 DUP1 MLOAD SWAP4 DUP5 MSTORE PUSH1 0x20 DUP5 ADD SWAP3 SWAP1 SWAP3 MSTORE SWAP1 DUP3 ADD MSTORE PUSH32 0xB923DCDFA226A9163E9324BACC07634C44FC26E1268F8341BC0989D83F4794B8 SWAP1 PUSH1 0x60 ADD PUSH2 0x1A8B JUMP JUMPDEST PUSH2 0x1BC6 PUSH2 0x1D17 JUMP JUMPDEST PUSH1 0x4 SLOAD PUSH1 0xFF PUSH3 0x10000 SWAP1 SWAP2 DIV AND ISZERO ISZERO DUP2 ISZERO ISZERO EQ ISZERO PUSH2 0x1C14 JUMPI PUSH1 0x40 MLOAD PUSH3 0x461BCD PUSH1 0xE5 SHL DUP2 MSTORE PUSH1 0x20 PUSH1 0x4 DUP3 ADD MSTORE PUSH1 0xB PUSH1 0x24 DUP3 ADD MSTORE PUSH11 0x139BDD0818DA185B99D959 PUSH1 0xAA SHL PUSH1 0x44 DUP3 ADD MSTORE PUSH1 0x64 ADD PUSH2 0xB7B JUMP JUMPDEST PUSH1 0x4 DUP1 SLOAD DUP3 ISZERO ISZERO PUSH3 0x10000 MUL PUSH3 0xFF0000 NOT SWAP1 SWAP2 AND OR SWAP1 SSTORE PUSH1 0x40 MLOAD PUSH32 0x76A3B4A2762DAE8901450E92A099B166B4EC4B38D2509A67740A4D48FC642460 SWAP1 PUSH2 0xEAB SWAP1 DUP4 ISZERO ISZERO DUP2 MSTORE PUSH1 0x20 ADD SWAP1 JUMP JUMPDEST PUSH1 0xA DUP2 DUP2 SLOAD DUP2 LT PUSH2 0x1C6F JUMPI PUSH1 0x0 DUP1 REVERT JUMPDEST PUSH1 0x0 SWAP2 DUP3 MSTORE PUSH1 0x20 SWAP1 SWAP2 KECCAK256 ADD SLOAD PUSH1 0x1 PUSH1 0x1 PUSH1 0xA0 SHL SUB AND SWAP1 POP DUP2 JUMP JUMPDEST PUSH2 0x1C91 PUSH2 0x1D17 JUMP JUMPDEST PUSH1 0x1 PUSH1 0x1 PUSH1 0xA0 SHL SUB DUP2 AND PUSH2 0x1CF6 JUMPI PUSH1 0x40 MLOAD PUSH3 0x461BCD PUSH1 0xE5 SHL DUP2 MSTORE PUSH1 0x20 PUSH1 0x4 DUP3 ADD MSTORE PUSH1 0x26 PUSH1 0x24 DUP3 ADD MSTORE PUSH32 0x4F776E61626C653A206E6577206F776E657220697320746865207A65726F2061 PUSH1 0x44 DUP3 ADD MSTORE PUSH6 0x646472657373 PUSH1 0xD0 SHL PUSH1 0x64 DUP3 ADD MSTORE PUSH1 0x84 ADD PUSH2 0xB7B JUMP JUMPDEST PUSH2 0x144C DUP2 PUSH2 0x2177 JUMP JUMPDEST PUSH1 0x0 PUSH2 0x1B33 DUP3 DUP5 PUSH2 0x2FCC JUMP JUMPDEST PUSH1 0x0 PUSH2 0x1B33 DUP3 DUP5 PUSH2 0x2FE4 JUMP JUMPDEST PUSH1 0x2 SLOAD PUSH1 0x1 PUSH1 0x1 PUSH1 0xA0 SHL SUB PUSH2 0x100 SWAP1 SWAP2 DIV AND CALLER EQ PUSH2 0x133D JUMPI PUSH1 0x40 MLOAD PUSH3 0x461BCD PUSH1 0xE5 SHL DUP2 MSTORE PUSH1 0x20 PUSH1 0x4 DUP3 ADD DUP2 SWAP1 MSTORE PUSH1 0x24 DUP3 ADD MSTORE PUSH32 0x4F776E61626C653A2063616C6C6572206973206E6F7420746865206F776E6572 PUSH1 0x44 DUP3 ADD MSTORE PUSH1 0x64 ADD PUSH2 0xB7B JUMP JUMPDEST PUSH1 0x0 DUP2 DUP5 DUP5 GT ISZERO PUSH2 0x1D9B JUMPI PUSH1 0x40 MLOAD PUSH3 0x461BCD PUSH1 0xE5 SHL DUP2 MSTORE PUSH1 0x4 ADD PUSH2 0xB7B SWAP2 SWAP1 PUSH2 0x2F09 JUMP JUMPDEST POP POP POP SWAP1 SUB SWAP1 JUMP JUMPDEST PUSH1 0x1 PUSH1 0x1 PUSH1 0xA0 SHL SUB DUP4 AND PUSH1 0x0 SWAP1 DUP2 MSTORE PUSH1 0x9 PUSH1 0x20 MSTORE PUSH1 0x40 DUP2 KECCAK256 SLOAD DUP2 SWAP1 PUSH1 0xFF AND DUP1 PUSH2 0x1DE4 JUMPI POP PUSH1 0x1 PUSH1 0x1 PUSH1 0xA0 SHL SUB DUP5 AND PUSH1 0x0 SWAP1 DUP2 MSTORE PUSH1 0x9 PUSH1 0x20 MSTORE PUSH1 0x40 SWAP1 KECCAK256 SLOAD PUSH1 0xFF AND JUMPDEST PUSH1 0x4 SLOAD SWAP1 SWAP2 POP PUSH1 0xFF AND DUP1 PUSH2 0x1DF5 JUMPI POP DUP1 JUMPDEST PUSH2 0x1E41 JUMPI PUSH1 0x40 MLOAD PUSH3 0x461BCD PUSH1 0xE5 SHL DUP2 MSTORE PUSH1 0x20 PUSH1 0x4 DUP3 ADD MSTORE PUSH1 0x13 PUSH1 0x24 DUP3 ADD MSTORE PUSH32 0x54726164696E67206E6F74207374617274656400000000000000000000000000 PUSH1 0x44 DUP3 ADD MSTORE PUSH1 0x64 ADD PUSH2 0xB7B JUMP JUMPDEST PUSH1 0x1D SLOAD PUSH1 0xFF AND ISZERO PUSH2 0x1E5F JUMPI PUSH2 0x1E57 DUP6 DUP6 DUP6 PUSH2 0x21DE JUMP JUMPDEST SWAP2 POP POP PUSH2 0x1B33 JUMP JUMPDEST PUSH1 0x0 PUSH2 0x1E76 PUSH1 0x1F SLOAD DUP6 PUSH2 0x205C SWAP1 SWAP2 SWAP1 PUSH4 0xFFFFFFFF AND JUMP JUMPDEST SWAP1 POP PUSH2 0x1E80 PUSH2 0x22B2 JUMP JUMPDEST ISZERO PUSH2 0x1E8D JUMPI PUSH2 0x1E8D PUSH2 0x232C JUMP JUMPDEST PUSH1 0x1 PUSH1 0x1 PUSH1 0xA0 SHL SUB DUP7 AND PUSH1 0x0 SWAP1 DUP2 MSTORE PUSH1 0x21 PUSH1 0x20 MSTORE PUSH1 0x40 SWAP1 KECCAK256 SLOAD PUSH2 0x1EB0 SWAP1 DUP3 PUSH2 0x1FF6 JUMP JUMPDEST PUSH1 0x1 PUSH1 0x1 PUSH1 0xA0 SHL SUB DUP8 AND PUSH1 0x0 SWAP1 DUP2 MSTORE PUSH1 0x21 PUSH1 0x20 MSTORE PUSH1 0x40 DUP2 KECCAK256 SWAP2 SWAP1 SWAP2 SSTORE PUSH2 0x1ED6 DUP8 DUP8 PUSH2 0x24D5 JUMP JUMPDEST PUSH2 0x1EE0 JUMPI DUP2 PUSH2 0x1EEB JUMP JUMPDEST PUSH2 0x1EEB DUP8 DUP8 DUP5 PUSH2 0x2567 JUMP JUMPDEST PUSH1 0x1 PUSH1 0x1 PUSH1 0xA0 SHL SUB DUP8 AND PUSH1 0x0 SWAP1 DUP2 MSTORE PUSH1 0x21 PUSH1 0x20 MSTORE PUSH1 0x40 SWAP1 KECCAK256 SLOAD SWAP1 SWAP2 POP PUSH2 0x1F11 SWAP1 DUP3 PUSH2 0x1CFF JUMP JUMPDEST PUSH1 0x1 PUSH1 0x1 PUSH1 0xA0 SHL SUB DUP1 DUP9 AND PUSH1 0x0 DUP2 DUP2 MSTORE PUSH1 0x21 PUSH1 0x20 MSTORE PUSH1 0x40 SWAP1 KECCAK256 SWAP3 SWAP1 SWAP3 SSTORE PUSH1 0x1F SLOAD SWAP1 DUP10 AND SWAP1 PUSH32 0xDDF252AD1BE2C89B69C2B068FC378DAA952BA7F163C4A11628F55A4DF523B3EF SWAP1 PUSH2 0x1F62 SWAP1 DUP6 SWAP1 PUSH2 0x1D0B JUMP JUMPDEST PUSH1 0x40 MLOAD SWAP1 DUP2 MSTORE PUSH1 0x20 ADD PUSH1 0x40 MLOAD DUP1 SWAP2 SUB SWAP1 LOG3 PUSH1 0x8 SLOAD TIMESTAMP LT ISZERO DUP1 ISZERO PUSH2 0x1F8D JUMPI POP PUSH1 0x4 SLOAD PUSH3 0x10000 SWAP1 DIV PUSH1 0xFF AND JUMPDEST ISZERO PUSH2 0x1FE9 JUMPI PUSH2 0x1F9A PUSH2 0x2637 JUMP JUMPDEST PUSH1 0x1 PUSH1 0x1 PUSH1 0xA0 SHL SUB DUP8 AND PUSH1 0x0 SWAP1 DUP2 MSTORE PUSH1 0xB PUSH1 0x20 MSTORE PUSH1 0x40 SWAP1 KECCAK256 SLOAD PUSH1 0xFF AND ISZERO DUP1 ISZERO PUSH2 0x1FDC JUMPI POP PUSH1 0x1 PUSH1 0x1 PUSH1 0xA0 SHL SUB DUP7 AND PUSH1 0x0 SWAP1 DUP2 MSTORE PUSH1 0xB PUSH1 0x20 MSTORE PUSH1 0x40 SWAP1 KECCAK256 SLOAD PUSH1 0xFF AND ISZERO JUMPDEST ISZERO PUSH2 0x1FE9 JUMPI PUSH2 0x1FE9 PUSH2 0x1392 JUMP JUMPDEST POP PUSH1 0x1 SWAP7 SWAP6 POP POP POP POP POP POP JUMP JUMPDEST PUSH1 0x0 PUSH2 0x1B33 DUP3 DUP5 PUSH2 0x3102 JUMP JUMPDEST PUSH1 0x2 PUSH1 0x3 SLOAD EQ ISZERO PUSH2 0x2055 JUMPI PUSH1 0x40 MLOAD PUSH3 0x461BCD PUSH1 0xE5 SHL DUP2 MSTORE PUSH1 0x20 PUSH1 0x4 DUP3 ADD MSTORE PUSH1 0x1F PUSH1 0x24 DUP3 ADD MSTORE PUSH32 0x5265656E7472616E637947756172643A207265656E7472616E742063616C6C00 PUSH1 0x44 DUP3 ADD MSTORE PUSH1 0x64 ADD PUSH2 0xB7B JUMP JUMPDEST PUSH1 0x2 PUSH1 0x3 SSTORE JUMP JUMPDEST PUSH1 0x0 PUSH2 0x1B33 DUP3 DUP5 PUSH2 0x30E3 JUMP JUMPDEST PUSH1 0x0 TIMESTAMP DUP3 PUSH2 0x20B6 JUMPI DUP1 PUSH32 0x72725A3B1E5BD622D6BCD1339BB31279C351ABE8F541AC7FD320F24E1B1641F2 PUSH1 0x1E SLOAD PUSH1 0x40 MLOAD PUSH2 0x20A4 SWAP2 DUP2 MSTORE PUSH1 0x20 ADD SWAP1 JUMP JUMPDEST PUSH1 0x40 MLOAD DUP1 SWAP2 SUB SWAP1 LOG2 POP POP PUSH1 0x1E SLOAD SWAP2 SWAP1 POP JUMP JUMPDEST PUSH1 0x0 DUP4 SLT ISZERO PUSH2 0x20DC JUMPI PUSH2 0x20D4 PUSH2 0x20CB DUP5 PUSH2 0x3183 JUMP JUMPDEST PUSH1 0x1E SLOAD SWAP1 PUSH2 0x1FF6 JUMP JUMPDEST PUSH1 0x1E SSTORE PUSH2 0x20ED JUMP JUMPDEST PUSH1 0x1E SLOAD PUSH2 0x20E9 SWAP1 DUP5 PUSH2 0x1CFF JUMP JUMPDEST PUSH1 0x1E SSTORE JUMPDEST PUSH1 0x1E SLOAD PUSH16 0xFFFFFFFFFFFFFFFFFFFFFFFFFFFFFFFF LT ISZERO PUSH2 0x211C JUMPI PUSH16 0xFFFFFFFFFFFFFFFFFFFFFFFFFFFFFFFF PUSH1 0x1E SSTORE JUMPDEST PUSH1 0x1E SLOAD PUSH2 0x212F SWAP1 PUSH2 0x1A20 PUSH1 0x12 PUSH1 0xA PUSH2 0x303B JUMP JUMPDEST PUSH1 0x1F SSTORE PUSH1 0x7 SLOAD PUSH2 0x213F SWAP1 DUP3 PUSH2 0x2FCC JUMP JUMPDEST PUSH1 0x8 SSTORE PUSH1 0x1E SLOAD PUSH1 0x40 MLOAD SWAP1 DUP2 MSTORE DUP2 SWAP1 PUSH32 0x72725A3B1E5BD622D6BCD1339BB31279C351ABE8F541AC7FD320F24E1B1641F2 SWAP1 PUSH1 0x20 ADD PUSH2 0x20A4 JUMP JUMPDEST PUSH1 0x2 DUP1 SLOAD PUSH1 0x1 PUSH1 0x1 PUSH1 0xA0 SHL SUB DUP4 DUP2 AND PUSH2 0x100 DUP2 DUP2 MUL PUSH21 0xFFFFFFFFFFFFFFFFFFFFFFFFFFFFFFFFFFFFFFFF00 NOT DUP6 AND OR SWAP1 SWAP5 SSTORE PUSH1 0x40 MLOAD SWAP4 SWAP1 SWAP3 DIV AND SWAP2 DUP3 SWAP1 PUSH32 0x8BE0079C531659141344CD1FD0A4F28419497F9722A3DAAFE3B4186F6B6457E0 SWAP1 PUSH1 0x0 SWAP1 LOG3 POP POP JUMP JUMPDEST PUSH1 0x0 DUP1 PUSH2 0x21F6 PUSH1 0x1F SLOAD DUP5 PUSH2 0x205C SWAP1 SWAP2 SWAP1 PUSH4 0xFFFFFFFF AND JUMP JUMPDEST PUSH1 0x1 PUSH1 0x1 PUSH1 0xA0 SHL SUB DUP7 AND PUSH1 0x0 SWAP1 DUP2 MSTORE PUSH1 0x21 PUSH1 0x20 MSTORE PUSH1 0x40 SWAP1 KECCAK256 SLOAD SWAP1 SWAP2 POP PUSH2 0x221C SWAP1 DUP3 PUSH2 0x1FF6 JUMP JUMPDEST PUSH1 0x1 PUSH1 0x1 PUSH1 0xA0 SHL SUB DUP1 DUP8 AND PUSH1 0x0 SWAP1 DUP2 MSTORE PUSH1 0x21 PUSH1 0x20 MSTORE PUSH1 0x40 DUP1 DUP3 KECCAK256 SWAP4 SWAP1 SWAP4 SSTORE SWAP1 DUP7 AND DUP2 MSTORE KECCAK256 SLOAD PUSH2 0x224B SWAP1 DUP3 PUSH2 0x1CFF JUMP JUMPDEST PUSH1 0x1 PUSH1 0x1 PUSH1 0xA0 SHL SUB DUP1 DUP7 AND PUSH1 0x0 DUP2 DUP2 MSTORE PUSH1 0x21 PUSH1 0x20 MSTORE PUSH1 0x40 SWAP1 DUP2 SWAP1 KECCAK256 SWAP4 SWAP1 SWAP4 SSTORE SWAP2 MLOAD SWAP1 DUP8 AND SWAP1 PUSH32 0xDDF252AD1BE2C89B69C2B068FC378DAA952BA7F163C4A11628F55A4DF523B3EF SWAP1 PUSH2 0x229F SWAP1 DUP8 DUP2 MSTORE PUSH1 0x20 ADD SWAP1 JUMP JUMPDEST PUSH1 0x40 MLOAD DUP1 SWAP2 SUB SWAP1 LOG3 POP PUSH1 0x1 SWAP5 SWAP4 POP POP POP POP JUMP JUMPDEST CALLER PUSH1 0x0 SWAP1 DUP2 MSTORE PUSH1 0xB PUSH1 0x20 MSTORE PUSH1 0x40 DUP2 KECCAK256 SLOAD PUSH1 0xFF AND ISZERO DUP1 ISZERO PUSH2 0x22D5 JUMPI POP PUSH1 0x1D SLOAD PUSH1 0xFF AND ISZERO JUMPDEST DUP1 ISZERO PUSH2 0x22E8 JUMPI POP PUSH1 0x4 SLOAD PUSH2 0x100 SWAP1 DIV PUSH1 0xFF AND JUMPDEST DUP1 ISZERO PUSH2 0x230A JUMPI POP PUSH1 0x0 PUSH2 0x2308 PUSH1 0x19 SLOAD PUSH1 0x18 SLOAD PUSH2 0x1CFF SWAP1 SWAP2 SWAP1 PUSH4 0xFFFFFFFF AND JUMP JUMPDEST GT JUMPDEST DUP1 ISZERO PUSH2 0x109D JUMPI POP POP PUSH1 0x20 DUP1 SLOAD ADDRESS PUSH1 0x0 SWAP1 DUP2 MSTORE PUSH1 0x21 SWAP1 SWAP3 MSTORE PUSH1 0x40 SWAP1 SWAP2 KECCAK256 SLOAD LT ISZERO SWAP1 JUMP JUMPDEST PUSH1 0x1D SLOAD PUSH1 0xFF AND ISZERO PUSH2 0x237F JUMPI PUSH1 0x40 MLOAD PUSH3 0x461BCD PUSH1 0xE5 SHL DUP2 MSTORE PUSH1 0x20 PUSH1 0x4 DUP3 ADD MSTORE PUSH1 0x1F PUSH1 0x24 DUP3 ADD MSTORE PUSH32 0x5265656E7472616E637947756172643A207265656E7472616E742063616C6C00 PUSH1 0x44 DUP3 ADD MSTORE PUSH1 0x64 ADD PUSH2 0xB7B JUMP JUMPDEST PUSH1 0x1D DUP1 SLOAD PUSH1 0xFF NOT AND PUSH1 0x1 OR SWAP1 SSTORE PUSH1 0x19 SLOAD PUSH1 0x18 SLOAD PUSH1 0x0 SWAP2 PUSH2 0x239F SWAP2 SWAP1 PUSH2 0x1CFF JUMP JUMPDEST SWAP1 POP PUSH1 0x0 PUSH2 0x23B1 PUSH1 0x1B SLOAD PUSH1 0x1C SLOAD PUSH2 0xE0B JUMP JUMPDEST PUSH2 0x23BD JUMPI PUSH1 0x14 SLOAD PUSH2 0x23C0 JUMP JUMPDEST PUSH1 0x0 JUMPDEST PUSH1 0x1F SLOAD ADDRESS PUSH1 0x0 SWAP1 DUP2 MSTORE PUSH1 0x21 PUSH1 0x20 MSTORE PUSH1 0x40 DUP2 KECCAK256 SLOAD SWAP3 SWAP4 POP SWAP2 PUSH2 0x23E0 SWAP2 PUSH2 0x1D0B JUMP JUMPDEST SWAP1 POP PUSH1 0x0 PUSH2 0x23FD DUP5 PUSH2 0x1097 PUSH2 0x23F6 DUP7 PUSH1 0x2 PUSH2 0x205C JUMP JUMPDEST DUP6 SWAP1 PUSH2 0x205C JUMP JUMPDEST SWAP1 POP PUSH1 0x0 PUSH2 0x241E DUP6 PUSH2 0x1097 PUSH2 0x1B2C PUSH1 0x2 PUSH1 0x16 SLOAD PUSH2 0x205C SWAP1 SWAP2 SWAP1 PUSH4 0xFFFFFFFF AND JUMP JUMPDEST SWAP1 POP PUSH1 0x0 PUSH2 0x2430 DUP3 PUSH2 0x1091 DUP7 DUP7 PUSH2 0x1FF6 JUMP JUMPDEST SWAP1 POP DUP3 ISZERO PUSH2 0x2441 JUMPI PUSH2 0x2441 DUP4 PUSH2 0x266F JUMP JUMPDEST DUP2 ISZERO PUSH2 0x245E JUMPI PUSH1 0x10 SLOAD PUSH2 0x245E SWAP1 DUP4 SWAP1 PUSH1 0x1 PUSH1 0x1 PUSH1 0xA0 SHL SUB AND PUSH2 0x2854 JUMP JUMPDEST DUP1 ISZERO PUSH2 0x247B JUMPI PUSH1 0xF SLOAD PUSH2 0x247B SWAP1 DUP3 SWAP1 PUSH1 0x1 PUSH1 0x1 PUSH1 0xA0 SHL SUB AND PUSH2 0x2854 JUMP JUMPDEST PUSH1 0x40 DUP1 MLOAD DUP6 DUP2 MSTORE PUSH1 0x20 DUP2 ADD DUP6 SWAP1 MSTORE SWAP1 DUP2 ADD DUP4 SWAP1 MSTORE PUSH1 0x60 DUP2 ADD DUP3 SWAP1 MSTORE PUSH32 0xA4903880285538FA6FFA51CAD044F25C39CC7F89AA6CBBDA844135FF94827EDF SWAP1 PUSH1 0x80 ADD PUSH1 0x40 MLOAD DUP1 SWAP2 SUB SWAP1 LOG1 POP POP PUSH1 0x1D DUP1 SLOAD PUSH1 0xFF NOT AND SWAP1 SSTORE POP POP POP POP JUMP JUMPDEST PUSH1 0x1 PUSH1 0x1 PUSH1 0xA0 SHL SUB DUP3 AND PUSH1 0x0 SWAP1 DUP2 MSTORE PUSH1 0x9 PUSH1 0x20 MSTORE PUSH1 0x40 DUP2 KECCAK256 SLOAD PUSH1 0xFF AND DUP1 PUSH2 0x2514 JUMPI POP PUSH1 0x1 PUSH1 0x1 PUSH1 0xA0 SHL SUB DUP3 AND PUSH1 0x0 SWAP1 DUP2 MSTORE PUSH1 0x9 PUSH1 0x20 MSTORE PUSH1 0x40 SWAP1 KECCAK256 SLOAD PUSH1 0xFF AND JUMPDEST ISZERO PUSH2 0x2521 JUMPI POP PUSH1 0x0 PUSH2 0xE05 JUMP JUMPDEST PUSH1 0x1 PUSH1 0x1 PUSH1 0xA0 SHL SUB DUP4 AND PUSH1 0x0 SWAP1 DUP2 MSTORE PUSH1 0xB PUSH1 0x20 MSTORE PUSH1 0x40 SWAP1 KECCAK256 SLOAD PUSH1 0xFF AND DUP1 PUSH2 0x2560 JUMPI POP PUSH1 0x1 PUSH1 0x1 PUSH1 0xA0 SHL SUB DUP3 AND PUSH1 0x0 SWAP1 DUP2 MSTORE PUSH1 0xB PUSH1 0x20 MSTORE PUSH1 0x40 SWAP1 KECCAK256 SLOAD PUSH1 0xFF AND JUMPDEST SWAP1 POP PUSH2 0xE05 JUMP JUMPDEST PUSH1 0x18 SLOAD PUSH1 0x1 PUSH1 0x1 PUSH1 0xA0 SHL SUB DUP4 AND PUSH1 0x0 SWAP1 DUP2 MSTORE PUSH1 0xB PUSH1 0x20 MSTORE PUSH1 0x40 DUP2 KECCAK256 SLOAD SWAP1 SWAP2 SWAP1 PUSH1 0xFF AND ISZERO PUSH2 0x2593 JUMPI POP PUSH1 0x19 SLOAD JUMPDEST PUSH1 0x1A SLOAD PUSH1 0x0 SWAP1 PUSH2 0x25A7 SWAP1 PUSH2 0x1097 DUP7 DUP6 PUSH2 0x205C JUMP JUMPDEST ADDRESS PUSH1 0x0 SWAP1 DUP2 MSTORE PUSH1 0x21 PUSH1 0x20 MSTORE PUSH1 0x40 SWAP1 KECCAK256 SLOAD SWAP1 SWAP2 POP PUSH2 0x25C4 SWAP1 DUP3 PUSH2 0x1CFF JUMP JUMPDEST ADDRESS PUSH1 0x0 DUP2 DUP2 MSTORE PUSH1 0x21 PUSH1 0x20 MSTORE PUSH1 0x40 SWAP1 KECCAK256 SWAP2 SWAP1 SWAP2 SSTORE PUSH1 0x1F SLOAD PUSH1 0x1 PUSH1 0x1 PUSH1 0xA0 SHL SUB DUP9 AND SWAP1 PUSH32 0xDDF252AD1BE2C89B69C2B068FC378DAA952BA7F163C4A11628F55A4DF523B3EF SWAP1 PUSH2 0x2612 SWAP1 DUP6 SWAP1 PUSH2 0x1D0B JUMP JUMPDEST PUSH1 0x40 MLOAD SWAP1 DUP2 MSTORE PUSH1 0x20 ADD PUSH1 0x40 MLOAD DUP1 SWAP2 SUB SWAP1 LOG3 PUSH2 0x262D DUP5 DUP3 PUSH2 0x1FF6 JUMP JUMPDEST SWAP7 SWAP6 POP POP POP POP POP POP JUMP JUMPDEST PUSH1 0x1D SLOAD PUSH1 0xFF AND PUSH2 0x133D JUMPI PUSH1 0x0 PUSH2 0x2660 PUSH1 0x6 SLOAD PUSH2 0x1097 PUSH1 0x5 SLOAD PUSH1 0x1E SLOAD PUSH2 0x205C SWAP1 SWAP2 SWAP1 PUSH4 0xFFFFFFFF AND JUMP JUMPDEST SWAP1 POP PUSH2 0x266B DUP2 PUSH2 0x2068 JUMP JUMPDEST POP POP JUMP JUMPDEST PUSH1 0x0 PUSH2 0x267C DUP3 PUSH1 0x2 PUSH2 0x1D0B JUMP JUMPDEST SWAP1 POP PUSH1 0x0 PUSH2 0x268A DUP4 DUP4 PUSH2 0x1FF6 JUMP JUMPDEST PUSH1 0x4 SLOAD SWAP1 SWAP2 POP PUSH4 0x1000000 SWAP1 DIV PUSH1 0xFF AND ISZERO PUSH2 0x2700 JUMPI SELFBALANCE PUSH2 0x26AA DUP4 ADDRESS PUSH2 0x2854 JUMP JUMPDEST PUSH1 0x0 PUSH2 0x26B6 SELFBALANCE DUP4 PUSH2 0x1FF6 JUMP JUMPDEST SWAP1 POP PUSH2 0x26C2 DUP4 DUP3 PUSH2 0x29C1 JUMP JUMPDEST PUSH1 0x40 DUP1 MLOAD DUP6 DUP2 MSTORE PUSH1 0x20 DUP2 ADD DUP4 SWAP1 MSTORE SWAP1 DUP2 ADD DUP5 SWAP1 MSTORE PUSH32 0x17BBFB9A6069321B6DED73BD96327C9E6B7212A5CD51FF219CD61370ACAFB561 SWAP1 PUSH1 0x60 ADD PUSH2 0xCFD JUMP JUMPDEST PUSH1 0x11 SLOAD PUSH1 0x40 MLOAD PUSH4 0x70A08231 PUSH1 0xE0 SHL DUP2 MSTORE ADDRESS PUSH1 0x4 DUP3 ADD MSTORE PUSH1 0x0 SWAP2 PUSH1 0x1 PUSH1 0x1 PUSH1 0xA0 SHL SUB AND SWAP1 PUSH4 0x70A08231 SWAP1 PUSH1 0x24 ADD PUSH1 0x20 PUSH1 0x40 MLOAD DUP1 DUP4 SUB DUP2 DUP7 DUP1 EXTCODESIZE ISZERO DUP1 ISZERO PUSH2 0x2744 JUMPI PUSH1 0x0 DUP1 REVERT JUMPDEST POP GAS STATICCALL ISZERO DUP1 ISZERO PUSH2 0x2758 JUMPI RETURNDATASIZE PUSH1 0x0 DUP1 RETURNDATACOPY RETURNDATASIZE PUSH1 0x0 REVERT JUMPDEST POP POP POP POP PUSH1 0x40 MLOAD RETURNDATASIZE PUSH1 0x1F NOT PUSH1 0x1F DUP3 ADD AND DUP3 ADD DUP1 PUSH1 0x40 MSTORE POP DUP2 ADD SWAP1 PUSH2 0x277C SWAP2 SWAP1 PUSH2 0x2E69 JUMP JUMPDEST SWAP1 POP PUSH2 0x2788 DUP4 ADDRESS PUSH2 0x2A6C JUMP JUMPDEST PUSH1 0x11 SLOAD PUSH1 0x40 MLOAD PUSH4 0x70A08231 PUSH1 0xE0 SHL DUP2 MSTORE ADDRESS PUSH1 0x4 DUP3 ADD MSTORE PUSH1 0x0 SWAP2 PUSH2 0x280A SWAP2 DUP5 SWAP2 PUSH1 0x1 PUSH1 0x1 PUSH1 0xA0 SHL SUB AND SWAP1 PUSH4 0x70A08231 SWAP1 PUSH1 0x24 ADD PUSH1 0x20 PUSH1 0x40 MLOAD DUP1 DUP4 SUB DUP2 DUP7 DUP1 EXTCODESIZE ISZERO DUP1 ISZERO PUSH2 0x27D2 JUMPI PUSH1 0x0 DUP1 REVERT JUMPDEST POP GAS STATICCALL ISZERO DUP1 ISZERO PUSH2 0x27E6 JUMPI RETURNDATASIZE PUSH1 0x0 DUP1 RETURNDATACOPY RETURNDATASIZE PUSH1 0x0 REVERT JUMPDEST POP POP POP POP PUSH1 0x40 MLOAD RETURNDATASIZE PUSH1 0x1F NOT PUSH1 0x1F DUP3 ADD AND DUP3 ADD DUP1 PUSH1 0x40 MSTORE POP DUP2 ADD SWAP1 PUSH2 0x1091 SWAP2 SWAP1 PUSH2 0x2E69 JUMP JUMPDEST SWAP1 POP PUSH2 0x2816 DUP4 DUP3 PUSH2 0x2BE3 JUMP JUMPDEST PUSH1 0x40 DUP1 MLOAD DUP6 DUP2 MSTORE PUSH1 0x20 DUP2 ADD DUP4 SWAP1 MSTORE SWAP1 DUP2 ADD DUP5 SWAP1 MSTORE PUSH32 0x558E8EFB161691189A8C7D8E35D5831FD8EFC87C53C587FDDCD4F574D7C8C8CF SWAP1 PUSH1 0x60 ADD PUSH2 0xCFD JUMP JUMPDEST PUSH1 0x40 DUP1 MLOAD PUSH1 0x2 DUP1 DUP3 MSTORE PUSH1 0x60 DUP3 ADD DUP4 MSTORE PUSH1 0x0 SWAP3 PUSH1 0x20 DUP4 ADD SWAP1 DUP1 CALLDATASIZE DUP4 CALLDATACOPY ADD SWAP1 POP POP SWAP1 POP ADDRESS DUP2 PUSH1 0x0 DUP2 MLOAD DUP2 LT PUSH2 0x2897 JUMPI PUSH4 0x4E487B71 PUSH1 0xE0 SHL PUSH1 0x0 MSTORE PUSH1 0x32 PUSH1 0x4 MSTORE PUSH1 0x24 PUSH1 0x0 REVERT JUMPDEST PUSH1 0x1 PUSH1 0x1 PUSH1 0xA0 SHL SUB SWAP3 DUP4 AND PUSH1 0x20 SWAP2 DUP3 MUL SWAP3 SWAP1 SWAP3 ADD DUP2 ADD SWAP2 SWAP1 SWAP2 MSTORE PUSH1 0x12 SLOAD PUSH1 0x40 DUP1 MLOAD PUSH4 0x15AB88C9 PUSH1 0xE3 SHL DUP2 MSTORE SWAP1 MLOAD SWAP2 SWAP1 SWAP4 AND SWAP3 PUSH4 0xAD5C4648 SWAP3 PUSH1 0x4 DUP1 DUP4 ADD SWAP4 SWAP2 SWAP3 DUP3 SWAP1 SUB ADD DUP2 DUP7 DUP1 EXTCODESIZE ISZERO DUP1 ISZERO PUSH2 0x28EB JUMPI PUSH1 0x0 DUP1 REVERT JUMPDEST POP GAS STATICCALL ISZERO DUP1 ISZERO PUSH2 0x28FF JUMPI RETURNDATASIZE PUSH1 0x0 DUP1 RETURNDATACOPY RETURNDATASIZE PUSH1 0x0 REVERT JUMPDEST POP POP POP POP PUSH1 0x40 MLOAD RETURNDATASIZE PUSH1 0x1F NOT PUSH1 0x1F DUP3 ADD AND DUP3 ADD DUP1 PUSH1 0x40 MSTORE POP DUP2 ADD SWAP1 PUSH2 0x2923 SWAP2 SWAP1 PUSH2 0x2CC8 JUMP JUMPDEST DUP2 PUSH1 0x1 DUP2 MLOAD DUP2 LT PUSH2 0x2944 JUMPI PUSH4 0x4E487B71 PUSH1 0xE0 SHL PUSH1 0x0 MSTORE PUSH1 0x32 PUSH1 0x4 MSTORE PUSH1 0x24 PUSH1 0x0 REVERT JUMPDEST PUSH1 0x1 PUSH1 0x1 PUSH1 0xA0 SHL SUB SWAP3 DUP4 AND PUSH1 0x20 SWAP2 DUP3 MUL SWAP3 SWAP1 SWAP3 ADD ADD MSTORE PUSH1 0x12 SLOAD PUSH1 0x40 MLOAD PUSH4 0x791AC947 PUSH1 0xE0 SHL DUP2 MSTORE SWAP2 AND SWAP1 PUSH4 0x791AC947 SWAP1 PUSH2 0x298A SWAP1 DUP7 SWAP1 PUSH1 0x0 SWAP1 DUP7 SWAP1 DUP9 SWAP1 TIMESTAMP SWAP1 PUSH1 0x4 ADD PUSH2 0x2F5C JUMP JUMPDEST PUSH1 0x0 PUSH1 0x40 MLOAD DUP1 DUP4 SUB DUP2 PUSH1 0x0 DUP8 DUP1 EXTCODESIZE ISZERO DUP1 ISZERO PUSH2 0x29A4 JUMPI PUSH1 0x0 DUP1 REVERT JUMPDEST POP GAS CALL ISZERO DUP1 ISZERO PUSH2 0x29B8 JUMPI RETURNDATASIZE PUSH1 0x0 DUP1 RETURNDATACOPY RETURNDATASIZE PUSH1 0x0 REVERT JUMPDEST POP POP POP POP POP POP POP JUMP JUMPDEST PUSH1 0x12 SLOAD PUSH1 0xE SLOAD PUSH1 0x40 MLOAD PUSH4 0xF305D719 PUSH1 0xE0 SHL DUP2 MSTORE ADDRESS PUSH1 0x4 DUP3 ADD MSTORE PUSH1 0x24 DUP2 ADD DUP6 SWAP1 MSTORE PUSH1 0x0 PUSH1 0x44 DUP3 ADD DUP2 SWAP1 MSTORE PUSH1 0x64 DUP3 ADD MSTORE PUSH1 0x1 PUSH1 0x1 PUSH1 0xA0 SHL SUB SWAP2 DUP3 AND PUSH1 0x84 DUP3 ADD MSTORE TIMESTAMP PUSH1 0xA4 DUP3 ADD MSTORE SWAP2 AND SWAP1 PUSH4 0xF305D719 SWAP1 DUP4 SWAP1 PUSH1 0xC4 ADD PUSH1 0x60 PUSH1 0x40 MLOAD DUP1 DUP4 SUB DUP2 DUP6 DUP9 DUP1 EXTCODESIZE ISZERO DUP1 ISZERO PUSH2 0x2A2C JUMPI PUSH1 0x0 DUP1 REVERT JUMPDEST POP GAS CALL ISZERO DUP1 ISZERO PUSH2 0x2A40 JUMPI RETURNDATASIZE PUSH1 0x0 DUP1 RETURNDATACOPY RETURNDATASIZE PUSH1 0x0 REVERT JUMPDEST POP POP POP POP POP PUSH1 0x40 MLOAD RETURNDATASIZE PUSH1 0x1F NOT PUSH1 0x1F DUP3 ADD AND DUP3 ADD DUP1 PUSH1 0x40 MSTORE POP DUP2 ADD SWAP1 PUSH2 0x2A65 SWAP2 SWAP1 PUSH2 0x2EA2 JUMP JUMPDEST POP POP POP POP POP JUMP JUMPDEST PUSH1 0x40 DUP1 MLOAD PUSH1 0x3 DUP1 DUP3 MSTORE PUSH1 0x80 DUP3 ADD SWAP1 SWAP3 MSTORE PUSH1 0x0 SWAP2 PUSH1 0x20 DUP3 ADD PUSH1 0x60 DUP1 CALLDATASIZE DUP4 CALLDATACOPY ADD SWAP1 POP POP SWAP1 POP ADDRESS DUP2 PUSH1 0x0 DUP2 MLOAD DUP2 LT PUSH2 0x2AB1 JUMPI PUSH4 0x4E487B71 PUSH1 0xE0 SHL PUSH1 0x0 MSTORE PUSH1 0x32 PUSH1 0x4 MSTORE PUSH1 0x24 PUSH1 0x0 REVERT JUMPDEST PUSH1 0x1 PUSH1 0x1 PUSH1 0xA0 SHL SUB SWAP3 DUP4 AND PUSH1 0x20 SWAP2 DUP3 MUL SWAP3 SWAP1 SWAP3 ADD DUP2 ADD SWAP2 SWAP1 SWAP2 MSTORE PUSH1 0x12 SLOAD PUSH1 0x40 DUP1 MLOAD PUSH4 0x15AB88C9 PUSH1 0xE3 SHL DUP2 MSTORE SWAP1 MLOAD SWAP2 SWAP1 SWAP4 AND SWAP3 PUSH4 0xAD5C4648 SWAP3 PUSH1 0x4 DUP1 DUP4 ADD SWAP4 SWAP2 SWAP3 DUP3 SWAP1 SUB ADD DUP2 DUP7 DUP1 EXTCODESIZE ISZERO DUP1 ISZERO PUSH2 0x2B05 JUMPI PUSH1 0x0 DUP1 REVERT JUMPDEST POP GAS STATICCALL ISZERO DUP1 ISZERO PUSH2 0x2B19 JUMPI RETURNDATASIZE PUSH1 0x0 DUP1 RETURNDATACOPY RETURNDATASIZE PUSH1 0x0 REVERT JUMPDEST POP POP POP POP PUSH1 0x40 MLOAD RETURNDATASIZE PUSH1 0x1F NOT PUSH1 0x1F DUP3 ADD AND DUP3 ADD DUP1 PUSH1 0x40 MSTORE POP DUP2 ADD SWAP1 PUSH2 0x2B3D SWAP2 SWAP1 PUSH2 0x2CC8 JUMP JUMPDEST DUP2 PUSH1 0x1 DUP2 MLOAD DUP2 LT PUSH2 0x2B5E JUMPI PUSH4 0x4E487B71 PUSH1 0xE0 SHL PUSH1 0x0 MSTORE PUSH1 0x32 PUSH1 0x4 MSTORE PUSH1 0x24 PUSH1 0x0 REVERT JUMPDEST PUSH1 0x1 PUSH1 0x1 PUSH1 0xA0 SHL SUB SWAP3 DUP4 AND PUSH1 0x20 SWAP2 DUP3 MUL SWAP3 SWAP1 SWAP3 ADD ADD MSTORE PUSH1 0x11 SLOAD DUP3 MLOAD SWAP2 AND SWAP1 DUP3 SWAP1 PUSH1 0x2 SWAP1 DUP2 LT PUSH2 0x2B9D JUMPI PUSH4 0x4E487B71 PUSH1 0xE0 SHL PUSH1 0x0 MSTORE PUSH1 0x32 PUSH1 0x4 MSTORE PUSH1 0x24 PUSH1 0x0 REVERT JUMPDEST PUSH1 0x1 PUSH1 0x1 PUSH1 0xA0 SHL SUB SWAP3 DUP4 AND PUSH1 0x20 SWAP2 DUP3 MUL SWAP3 SWAP1 SWAP3 ADD ADD MSTORE PUSH1 0x12 SLOAD PUSH1 0x40 MLOAD PUSH4 0x5C11D795 PUSH1 0xE0 SHL DUP2 MSTORE SWAP2 AND SWAP1 PUSH4 0x5C11D795 SWAP1 PUSH2 0x298A SWAP1 DUP7 SWAP1 PUSH1 0x0 SWAP1 DUP7 SWAP1 DUP9 SWAP1 TIMESTAMP SWAP1 PUSH1 0x4 ADD PUSH2 0x2F5C JUMP JUMPDEST PUSH1 0x12 SLOAD PUSH1 0x11 SLOAD PUSH1 0xE SLOAD PUSH1 0x40 MLOAD PUSH3 0xE8E337 PUSH1 0xE8 SHL DUP2 MSTORE ADDRESS PUSH1 0x4 DUP3 ADD MSTORE PUSH1 0x1 PUSH1 0x1 PUSH1 0xA0 SHL SUB SWAP3 DUP4 AND PUSH1 0x24 DUP3 ADD MSTORE PUSH1 0x44 DUP2 ADD DUP7 SWAP1 MSTORE PUSH1 0x64 DUP2 ADD DUP6 SWAP1 MSTORE PUSH1 0x0 PUSH1 0x84 DUP3 ADD DUP2 SWAP1 MSTORE PUSH1 0xA4 DUP3 ADD MSTORE SWAP1 DUP3 AND PUSH1 0xC4 DUP3 ADD MSTORE TIMESTAMP PUSH1 0xE4 DUP3 ADD MSTORE SWAP2 AND SWAP1 PUSH4 0xE8E33700 SWAP1 PUSH2 0x104 ADD PUSH1 0x60 PUSH1 0x40 MLOAD DUP1 DUP4 SUB DUP2 PUSH1 0x0 DUP8 DUP1 EXTCODESIZE ISZERO DUP1 ISZERO PUSH2 0x2C5F JUMPI PUSH1 0x0 DUP1 REVERT JUMPDEST POP GAS CALL ISZERO DUP1 ISZERO PUSH2 0x2C73 JUMPI RETURNDATASIZE PUSH1 0x0 DUP1 RETURNDATACOPY RETURNDATASIZE PUSH1 0x0 REVERT JUMPDEST POP POP POP POP PUSH1 0x40 MLOAD RETURNDATASIZE PUSH1 0x1F NOT PUSH1 0x1F DUP3 ADD AND DUP3 ADD DUP1 PUSH1 0x40 MSTORE POP DUP2 ADD SWAP1 PUSH2 0x2A65 SWAP2 SWAP1 PUSH2 0x2EA2 JUMP JUMPDEST DUP1 CALLDATALOAD DUP1 ISZERO ISZERO DUP2 EQ PUSH2 0x2CA7 JUMPI PUSH1 0x0 DUP1 REVERT JUMPDEST SWAP2 SWAP1 POP JUMP JUMPDEST PUSH1 0x0 PUSH1 0x20 DUP3 DUP5 SUB SLT ISZERO PUSH2 0x2CBD JUMPI DUP1 DUP2 REVERT JUMPDEST DUP2 CALLDATALOAD PUSH2 0x1B33 DUP2 PUSH2 0x31C9 JUMP JUMPDEST PUSH1 0x0 PUSH1 0x20 DUP3 DUP5 SUB SLT ISZERO PUSH2 0x2CD9 JUMPI DUP1 DUP2 REVERT JUMPDEST DUP2 MLOAD PUSH2 0x1B33 DUP2 PUSH2 0x31C9 JUMP JUMPDEST PUSH1 0x0 DUP1 PUSH1 0x40 DUP4 DUP6 SUB SLT ISZERO PUSH2 0x2CF6 JUMPI DUP1 DUP2 REVERT JUMPDEST DUP3 CALLDATALOAD PUSH2 0x2D01 DUP2 PUSH2 0x31C9 JUMP JUMPDEST SWAP2 POP PUSH1 0x20 DUP4 ADD CALLDATALOAD PUSH2 0x2D11 DUP2 PUSH2 0x31C9 JUMP JUMPDEST DUP1 SWAP2 POP POP SWAP3 POP SWAP3 SWAP1 POP JUMP JUMPDEST PUSH1 0x0 DUP1 PUSH1 0x0 PUSH1 0x60 DUP5 DUP7 SUB SLT ISZERO PUSH2 0x2D30 JUMPI DUP1 DUP2 REVERT JUMPDEST DUP4 CALLDATALOAD PUSH2 0x2D3B DUP2 PUSH2 0x31C9 JUMP JUMPDEST SWAP3 POP PUSH1 0x20 DUP5 ADD CALLDATALOAD PUSH2 0x2D4B DUP2 PUSH2 0x31C9 JUMP JUMPDEST SWAP2 POP PUSH1 0x40 DUP5 ADD CALLDATALOAD PUSH2 0x2D5B DUP2 PUSH2 0x31C9 JUMP JUMPDEST DUP1 SWAP2 POP POP SWAP3 POP SWAP3 POP SWAP3 JUMP JUMPDEST PUSH1 0x0 DUP1 PUSH1 0x0 PUSH1 0x60 DUP5 DUP7 SUB SLT ISZERO PUSH2 0x2D7A JUMPI DUP3 DUP4 REVERT JUMPDEST DUP4 CALLDATALOAD PUSH2 0x2D85 DUP2 PUSH2 0x31C9 JUMP JUMPDEST SWAP3 POP PUSH1 0x20 DUP5 ADD CALLDATALOAD PUSH2 0x2D95 DUP2 PUSH2 0x31C9 JUMP JUMPDEST SWAP3 SWAP6 SWAP3 SWAP5 POP POP POP PUSH1 0x40 SWAP2 SWAP1 SWAP2 ADD CALLDATALOAD SWAP1 JUMP JUMPDEST PUSH1 0x0 DUP1 PUSH1 0x40 DUP4 DUP6 SUB SLT ISZERO PUSH2 0x2DB8 JUMPI DUP2 DUP3 REVERT JUMPDEST DUP3 CALLDATALOAD PUSH2 0x2DC3 DUP2 PUSH2 0x31C9 JUMP JUMPDEST SWAP2 POP PUSH2 0x2DD1 PUSH1 0x20 DUP5 ADD PUSH2 0x2C97 JUMP JUMPDEST SWAP1 POP SWAP3 POP SWAP3 SWAP1 POP JUMP JUMPDEST PUSH1 0x0 DUP1 PUSH1 0x40 DUP4 DUP6 SUB SLT ISZERO PUSH2 0x2DEC JUMPI DUP2 DUP3 REVERT JUMPDEST DUP3 CALLDATALOAD PUSH2 0x2DF7 DUP2 PUSH2 0x31C9 JUMP JUMPDEST SWAP5 PUSH1 0x20 SWAP4 SWAP1 SWAP4 ADD CALLDATALOAD SWAP4 POP POP POP JUMP JUMPDEST PUSH1 0x0 PUSH1 0x20 DUP3 DUP5 SUB SLT ISZERO PUSH2 0x2E16 JUMPI DUP1 DUP2 REVERT JUMPDEST PUSH2 0x1B33 DUP3 PUSH2 0x2C97 JUMP JUMPDEST PUSH1 0x0 DUP1 PUSH1 0x0 PUSH1 0x60 DUP5 DUP7 SUB SLT ISZERO PUSH2 0x2E33 JUMPI DUP3 DUP4 REVERT JUMPDEST PUSH2 0x2E3C DUP5 PUSH2 0x2C97 JUMP JUMPDEST SWAP6 PUSH1 0x20 DUP6 ADD CALLDATALOAD SWAP6 POP PUSH1 0x40 SWAP1 SWAP5 ADD CALLDATALOAD SWAP4 SWAP3 POP POP POP JUMP JUMPDEST PUSH1 0x0 PUSH1 0x20 DUP3 DUP5 SUB SLT ISZERO PUSH2 0x2E62 JUMPI DUP1 DUP2 REVERT JUMPDEST POP CALLDATALOAD SWAP2 SWAP1 POP JUMP JUMPDEST PUSH1 0x0 PUSH1 0x20 DUP3 DUP5 SUB SLT ISZERO PUSH2 0x2E7A JUMPI DUP1 DUP2 REVERT JUMPDEST POP MLOAD SWAP2 SWAP1 POP JUMP JUMPDEST PUSH1 0x0 DUP1 PUSH1 0x40 DUP4 DUP6 SUB SLT ISZERO PUSH2 0x2E93 JUMPI DUP2 DUP3 REVERT JUMPDEST POP POP DUP1 CALLDATALOAD SWAP3 PUSH1 0x20 SWAP1 SWAP2 ADD CALLDATALOAD SWAP2 POP JUMP JUMPDEST PUSH1 0x0 DUP1 PUSH1 0x0 PUSH1 0x60 DUP5 DUP7 SUB SLT ISZERO PUSH2 0x2EB6 JUMPI DUP3 DUP4 REVERT JUMPDEST DUP4 MLOAD SWAP3 POP PUSH1 0x20 DUP5 ADD MLOAD SWAP2 POP PUSH1 0x40 DUP5 ADD MLOAD SWAP1 POP SWAP3 POP SWAP3 POP SWAP3 JUMP JUMPDEST PUSH1 0x0 DUP1 PUSH1 0x0 DUP1 PUSH1 0x0 PUSH1 0xA0 DUP7 DUP9 SUB SLT ISZERO PUSH2 0x2EE6 JUMPI DUP1 DUP2 REVERT JUMPDEST POP POP DUP4 CALLDATALOAD SWAP6 PUSH1 0x20 DUP6 ADD CALLDATALOAD SWAP6 POP PUSH1 0x40 DUP6 ADD CALLDATALOAD SWAP5 PUSH1 0x60 DUP2 ADD CALLDATALOAD SWAP5 POP PUSH1 0x80 ADD CALLDATALOAD SWAP3 POP SWAP1 POP JUMP JUMPDEST PUSH1 0x0 PUSH1 0x20 DUP1 DUP4 MSTORE DUP4 MLOAD DUP1 DUP3 DUP6 ADD MSTORE DUP3 JUMPDEST DUP2 DUP2 LT ISZERO PUSH2 0x2F35 JUMPI DUP6 DUP2 ADD DUP4 ADD MLOAD DUP6 DUP3 ADD PUSH1 0x40 ADD MSTORE DUP3 ADD PUSH2 0x2F19 JUMP JUMPDEST DUP2 DUP2 GT ISZERO PUSH2 0x2F46 JUMPI DUP4 PUSH1 0x40 DUP4 DUP8 ADD ADD MSTORE JUMPDEST POP PUSH1 0x1F ADD PUSH1 0x1F NOT AND SWAP3 SWAP1 SWAP3 ADD PUSH1 0x40 ADD SWAP4 SWAP3 POP POP POP JUMP JUMPDEST PUSH1 0x0 PUSH1 0xA0 DUP3 ADD DUP8 DUP4 MSTORE PUSH1 0x20 DUP8 DUP2 DUP6 ADD MSTORE PUSH1 0xA0 PUSH1 0x40 DUP6 ADD MSTORE DUP2 DUP8 MLOAD DUP1 DUP5 MSTORE PUSH1 0xC0 DUP7 ADD SWAP2 POP DUP3 DUP10 ADD SWAP4 POP DUP5 JUMPDEST DUP2 DUP2 LT ISZERO PUSH2 0x2FAB JUMPI DUP5 MLOAD PUSH1 0x1 PUSH1 0x1 PUSH1 0xA0 SHL SUB AND DUP4 MSTORE SWAP4 DUP4 ADD SWAP4 SWAP2 DUP4 ADD SWAP2 PUSH1 0x1 ADD PUSH2 0x2F86 JUMP JUMPDEST POP POP PUSH1 0x1 PUSH1 0x1 PUSH1 0xA0 SHL SUB SWAP7 SWAP1 SWAP7 AND PUSH1 0x60 DUP6 ADD MSTORE POP POP POP PUSH1 0x80 ADD MSTORE SWAP4 SWAP3 POP POP POP JUMP JUMPDEST PUSH1 0x0 DUP3 NOT DUP3 GT ISZERO PUSH2 0x2FDF JUMPI PUSH2 0x2FDF PUSH2 0x319D JUMP JUMPDEST POP ADD SWAP1 JUMP JUMPDEST PUSH1 0x0 DUP3 PUSH2 0x2FF3 JUMPI PUSH2 0x2FF3 PUSH2 0x31B3 JUMP JUMPDEST POP DIV SWAP1 JUMP JUMPDEST PUSH1 0x1 DUP2 DUP2 JUMPDEST DUP1 DUP6 GT ISZERO PUSH2 0x3033 JUMPI DUP2 PUSH1 0x0 NOT DIV DUP3 GT ISZERO PUSH2 0x3019 JUMPI PUSH2 0x3019 PUSH2 0x319D JUMP JUMPDEST DUP1 DUP6 AND ISZERO PUSH2 0x3026 JUMPI SWAP2 DUP2 MUL SWAP2 JUMPDEST SWAP4 DUP5 SHR SWAP4 SWAP1 DUP1 MUL SWAP1 PUSH2 0x2FFD JUMP JUMPDEST POP SWAP3 POP SWAP3 SWAP1 POP JUMP JUMPDEST PUSH1 0x0 PUSH2 0x1B33 DUP4 DUP4 PUSH1 0x0 DUP3 PUSH2 0x3051 JUMPI POP PUSH1 0x1 PUSH2 0xE05 JUMP JUMPDEST DUP2 PUSH2 0x305E JUMPI POP PUSH1 0x0 PUSH2 0xE05 JUMP JUMPDEST DUP2 PUSH1 0x1 DUP2 EQ PUSH2 0x3074 JUMPI PUSH1 0x2 DUP2 EQ PUSH2 0x307E JUMPI PUSH2 0x309A JUMP JUMPDEST PUSH1 0x1 SWAP2 POP POP PUSH2 0xE05 JUMP JUMPDEST PUSH1 0xFF DUP5 GT ISZERO PUSH2 0x308F JUMPI PUSH2 0x308F PUSH2 0x319D JUMP JUMPDEST POP POP PUSH1 0x1 DUP3 SHL PUSH2 0xE05 JUMP JUMPDEST POP PUSH1 0x20 DUP4 LT PUSH2 0x133 DUP4 LT AND PUSH1 0x4E DUP5 LT PUSH1 0xB DUP5 LT AND OR ISZERO PUSH2 0x30BD JUMPI POP DUP2 DUP2 EXP PUSH2 0xE05 JUMP JUMPDEST PUSH2 0x30C7 DUP4 DUP4 PUSH2 0x2FF8 JUMP JUMPDEST DUP1 PUSH1 0x0 NOT DIV DUP3 GT ISZERO PUSH2 0x30DB JUMPI PUSH2 0x30DB PUSH2 0x319D JUMP JUMPDEST MUL SWAP4 SWAP3 POP POP POP JUMP JUMPDEST PUSH1 0x0 DUP2 PUSH1 0x0 NOT DIV DUP4 GT DUP3 ISZERO ISZERO AND ISZERO PUSH2 0x30FD JUMPI PUSH2 0x30FD PUSH2 0x319D JUMP JUMPDEST POP MUL SWAP1 JUMP JUMPDEST PUSH1 0x0 DUP3 DUP3 LT ISZERO PUSH2 0x3114 JUMPI PUSH2 0x3114 PUSH2 0x319D JUMP JUMPDEST POP SUB SWAP1 JUMP JUMPDEST PUSH1 0x1 DUP2 DUP2 SHR SWAP1 DUP3 AND DUP1 PUSH2 0x312D JUMPI PUSH1 0x7F DUP3 AND SWAP2 POP JUMPDEST PUSH1 0x20 DUP3 LT DUP2 EQ ISZERO PUSH2 0x314E JUMPI PUSH4 0x4E487B71 PUSH1 0xE0 SHL PUSH1 0x0 MSTORE PUSH1 0x22 PUSH1 0x4 MSTORE PUSH1 0x24 PUSH1 0x0 REVERT JUMPDEST POP SWAP2 SWAP1 POP JUMP JUMPDEST PUSH1 0x0 PUSH1 0x0 NOT DUP3 EQ ISZERO PUSH2 0x3168 JUMPI PUSH2 0x3168 PUSH2 0x319D JUMP JUMPDEST POP PUSH1 0x1 ADD SWAP1 JUMP JUMPDEST PUSH1 0x0 DUP3 PUSH2 0x317E JUMPI PUSH2 0x317E PUSH2 0x31B3 JUMP JUMPDEST POP MOD SWAP1 JUMP JUMPDEST PUSH1 0x0 PUSH1 0x1 PUSH1 0xFF SHL DUP3 EQ ISZERO PUSH2 0x3199 JUMPI PUSH2 0x3199 PUSH2 0x319D JUMP JUMPDEST SUB SWAP1 JUMP JUMPDEST PUSH4 0x4E487B71 PUSH1 0xE0 SHL PUSH1 0x0 MSTORE PUSH1 0x11 PUSH1 0x4 MSTORE PUSH1 0x24 PUSH1 0x0 REVERT JUMPDEST PUSH4 0x4E487B71 PUSH1 0xE0 SHL PUSH1 0x0 MSTORE PUSH1 0x12 PUSH1 0x4 MSTORE PUSH1 0x24 PUSH1 0x0 REVERT JUMPDEST PUSH1 0x1 PUSH1 0x1 PUSH1 0xA0 SHL SUB DUP2 AND DUP2 EQ PUSH2 0x144C JUMPI PUSH1 0x0 DUP1 REVERT INVALID LOG2 PUSH5 0x6970667358 0x22 SLT KECCAK256 DUP8 PUSH5 0xF5EEE71973 SELFBALANCE 0xD1 CALLVALUE GASLIMIT 0xDA PUSH2 0xDD27 0xB1 0xD5 DUP4 0xB3 0xEB PUSH9 0x6237B53AAF0B154442 SWAP1 SWAP10 PUSH5 0x736F6C6343 STOP ADDMOD DIV STOP CALLER "
		},
		"gasEstimates": {
			"creation": {
				"codeDepositCost": "2564000",
				"executionCost": "infinite",
				"totalCost": "infinite"
			},
			"external": {
				"MAX_FEE_BUY()": "330",
				"MAX_FEE_RATE()": "307",
				"MAX_FEE_SELL()": "285",
				"_markerPairs(uint256)": "2102",
				"allowance(address,address)": "infinite",
				"approve(address,uint256)": "22485",
				"autoRebase()": "1111",
				"automatedMarketMakerPairs(address)": "1315",
				"balanceOf(address)": "infinite",
				"buyFeeRFV()": "1063",
				"checkFeeExempt(address)": "1376",
				"checkSwapThreshold()": "infinite",
				"clearStuckBalance(address)": "infinite",
				"decimals()": "1058",
				"decreaseAllowance(address,uint256)": "24521",
				"feeDenominator()": "1108",
				"getCirculatingSupply()": "infinite",
				"getLiquidityBacking(uint256)": "infinite",
				"increaseAllowance(address,uint256)": "23552",
				"initialDistributionFinished()": "1121",
				"isLiquidityInBnb()": "1090",
				"isOverLiquified(uint256,uint256)": "infinite",
				"liquidityFee()": "1085",
				"liquidityReceiver()": "1149",
				"manualRebase()": "infinite",
				"manualSync()": "infinite",
				"name()": "infinite",
				"nextRebase()": "1107",
				"owner()": "1155",
				"pair()": "1148",
				"rebaseFrequency()": "1086",
				"renounceOwnership()": "infinite",
				"rewardYield()": "1108",
				"rewardYieldDenominator()": "1084",
				"riskFreeValueReceiver()": "1148",
				"router()": "1169",
				"sellFeeTreasuryAdded()": "1128",
				"setAutoRebase(bool)": "24019",
				"setAutomatedMarketMakerPair(address,bool)": "infinite",
				"setFeeExempt(address,bool)": "24542",
				"setFeeReceivers(address,address,address)": "infinite",
				"setFees(uint256,uint256,uint256,uint256,uint256)": "infinite",
				"setInitialDistributionFinished(bool)": "24002",
				"setIsLiquidityInBnb(bool)": "24021",
				"setNextRebase(uint256)": "22313",
				"setRebaseFrequency(uint256)": "22318",
				"setRewardYield(uint256,uint256)": "42549",
				"setSwapBackSettings(bool,uint256,uint256)": "infinite",
				"setTargetLiquidity(uint256,uint256)": "42558",
				"swapEnabled()": "1089",
				"symbol()": "infinite",
				"totalBuyFee()": "1085",
				"totalSellFee()": "1062",
				"totalSupply()": "1127",
				"transfer(address,uint256)": "infinite",
				"transferFrom(address,address,uint256)": "infinite",
				"transferOwnership(address)": "infinite",
				"treasuryFee()": "1062",
				"treasuryReceiver()": "1106",
				"usdtToken()": "1105"
			},
			"internal": {
				"_addLiquidity(uint256,uint256)": "infinite",
				"_addLiquidityBusd(uint256,uint256)": "infinite",
				"_basicTransfer(address,address,uint256)": "infinite",
				"_rebase()": "infinite",
				"_swapAndLiquify(uint256)": "infinite",
				"_swapTokensForBNB(uint256,address)": "infinite",
				"_swapTokensForBusd(uint256,address)": "infinite",
				"_transferFrom(address,address,uint256)": "infinite",
				"coreRebase(int256)": "infinite",
				"shouldRebase()": "infinite",
				"shouldSwapBack()": "infinite",
				"shouldTakeFee(address,address)": "3681",
				"swapBack()": "infinite",
				"takeFee(address,address,uint256)": "infinite"
			}
		},
		"methodIdentifiers": {
			"MAX_FEE_BUY()": "0e30b850",
			"MAX_FEE_RATE()": "92f6576e",
			"MAX_FEE_SELL()": "6def69e1",
			"_markerPairs(uint256)": "e1d5584c",
			"allowance(address,address)": "dd62ed3e",
			"approve(address,uint256)": "095ea7b3",
			"autoRebase()": "9079f932",
			"automatedMarketMakerPairs(address)": "b62496f5",
			"balanceOf(address)": "70a08231",
			"buyFeeRFV()": "9763eec4",
			"checkFeeExempt(address)": "d4399790",
			"checkSwapThreshold()": "6d351d1a",
			"clearStuckBalance(address)": "764d72bf",
			"decimals()": "313ce567",
			"decreaseAllowance(address,uint256)": "a457c2d7",
			"feeDenominator()": "180b0d7e",
			"getCirculatingSupply()": "2b112e49",
			"getLiquidityBacking(uint256)": "d51ed1c8",
			"increaseAllowance(address,uint256)": "39509351",
			"initialDistributionFinished()": "d1fce264",
			"isLiquidityInBnb()": "835439c7",
			"isOverLiquified(uint256,uint256)": "1161ae39",
			"liquidityFee()": "98118cb4",
			"liquidityReceiver()": "264d26dd",
			"manualRebase()": "61a9d1b1",
			"manualSync()": "753d02a1",
			"name()": "06fdde03",
			"nextRebase()": "bc7e68a3",
			"owner()": "8da5cb5b",
			"pair()": "a8aa1b31",
			"rebaseFrequency()": "89375abf",
			"renounceOwnership()": "715018a6",
			"rewardYield()": "0af08314",
			"rewardYieldDenominator()": "d7832b11",
			"riskFreeValueReceiver()": "7d4b5017",
			"router()": "f887ea40",
			"sellFeeTreasuryAdded()": "8102c570",
			"setAutoRebase(bool)": "e15beb80",
			"setAutomatedMarketMakerPair(address,bool)": "9a7a23d6",
			"setFeeExempt(address,bool)": "8ebfc796",
			"setFeeReceivers(address,address,address)": "d7c01032",
			"setFees(uint256,uint256,uint256,uint256,uint256)": "04a66b48",
			"setInitialDistributionFinished(bool)": "1276089b",
			"setIsLiquidityInBnb(bool)": "544727bc",
			"setNextRebase(uint256)": "9ae7372d",
			"setRebaseFrequency(uint256)": "4cd9ddf2",
			"setRewardYield(uint256,uint256)": "01b16827",
			"setSwapBackSettings(bool,uint256,uint256)": "d0889358",
			"setTargetLiquidity(uint256,uint256)": "201e7991",
			"swapEnabled()": "6ddd1713",
			"symbol()": "95d89b41",
			"totalBuyFee()": "59b107b9",
			"totalSellFee()": "9d9241ec",
			"totalSupply()": "18160ddd",
			"transfer(address,uint256)": "a9059cbb",
			"transferFrom(address,address,uint256)": "23b872dd",
			"transferOwnership(address)": "f2fde38b",
			"treasuryFee()": "cc32d176",
			"treasuryReceiver()": "08b1fd8f",
			"usdtToken()": "a98ad46c"
		}
	},
	"abi": [
		{
			"inputs": [],
			"stateMutability": "nonpayable",
			"type": "constructor"
		},
		{
			"anonymous": false,
			"inputs": [
				{
					"indexed": true,
					"internalType": "address",
					"name": "owner",
					"type": "address"
				},
				{
					"indexed": true,
					"internalType": "address",
					"name": "spender",
					"type": "address"
				},
				{
					"indexed": false,
					"internalType": "uint256",
					"name": "value",
					"type": "uint256"
				}
			],
			"name": "Approval",
			"type": "event"
		},
		{
			"anonymous": false,
			"inputs": [
				{
					"indexed": false,
					"internalType": "address",
					"name": "_receiver",
					"type": "address"
				}
			],
			"name": "ClearStuckBalance",
			"type": "event"
		},
		{
			"anonymous": false,
			"inputs": [
				{
					"indexed": true,
					"internalType": "uint256",
					"name": "epoch",
					"type": "uint256"
				},
				{
					"indexed": false,
					"internalType": "uint256",
					"name": "totalSupply",
					"type": "uint256"
				}
			],
			"name": "LogRebase",
			"type": "event"
		},
		{
			"anonymous": false,
			"inputs": [
				{
					"indexed": false,
					"internalType": "int256",
					"name": "supplyDelta",
					"type": "int256"
				}
			],
			"name": "ManualRebase",
			"type": "event"
		},
		{
			"anonymous": false,
			"inputs": [
				{
					"indexed": true,
					"internalType": "address",
					"name": "previousOwner",
					"type": "address"
				},
				{
					"indexed": true,
					"internalType": "address",
					"name": "newOwner",
					"type": "address"
				}
			],
			"name": "OwnershipTransferred",
			"type": "event"
		},
		{
			"anonymous": false,
			"inputs": [
				{
					"indexed": false,
					"internalType": "bool",
					"name": "_autoRebase",
					"type": "bool"
				}
			],
			"name": "SetAutoRebase",
			"type": "event"
		},
		{
			"anonymous": false,
			"inputs": [
				{
					"indexed": true,
					"internalType": "address",
					"name": "pair",
					"type": "address"
				},
				{
					"indexed": true,
					"internalType": "bool",
					"name": "value",
					"type": "bool"
				}
			],
			"name": "SetAutomatedMarketMakerPair",
			"type": "event"
		},
		{
			"anonymous": false,
			"inputs": [
				{
					"indexed": false,
					"internalType": "address",
					"name": "_addr",
					"type": "address"
				},
				{
					"indexed": false,
					"internalType": "bool",
					"name": "_value",
					"type": "bool"
				}
			],
			"name": "SetFeeExempted",
			"type": "event"
		},
		{
			"anonymous": false,
			"inputs": [
				{
					"indexed": false,
					"internalType": "address",
					"name": "_liquidityReceiver",
					"type": "address"
				},
				{
					"indexed": false,
					"internalType": "address",
					"name": "_treasuryReceiver",
					"type": "address"
				},
				{
					"indexed": false,
					"internalType": "address",
					"name": "_riskFreeValueReceiver",
					"type": "address"
				}
			],
			"name": "SetFeeReceivers",
			"type": "event"
		},
		{
			"anonymous": false,
			"inputs": [
				{
					"indexed": false,
					"internalType": "uint256",
					"name": "_liquidityFee",
					"type": "uint256"
				},
				{
					"indexed": false,
					"internalType": "uint256",
					"name": "_riskFreeValue",
					"type": "uint256"
				},
				{
					"indexed": false,
					"internalType": "uint256",
					"name": "_treasuryFee",
					"type": "uint256"
				},
				{
					"indexed": false,
					"internalType": "uint256",
					"name": "_sellFeeTreasuryAdded",
					"type": "uint256"
				},
				{
					"indexed": false,
					"internalType": "uint256",
					"name": "_feeDenominator",
					"type": "uint256"
				}
			],
			"name": "SetFees",
			"type": "event"
		},
		{
			"anonymous": false,
			"inputs": [
				{
					"indexed": false,
					"internalType": "bool",
					"name": "_value",
					"type": "bool"
				}
			],
			"name": "SetInitialDistributionFinished",
			"type": "event"
		},
		{
			"anonymous": false,
			"inputs": [
				{
					"indexed": false,
					"internalType": "bool",
					"name": "_value",
					"type": "bool"
				}
			],
			"name": "SetIsLiquidityInBnb",
			"type": "event"
		},
		{
			"anonymous": false,
			"inputs": [
				{
					"indexed": false,
					"internalType": "uint256",
					"name": "_nextRebase",
					"type": "uint256"
				}
			],
			"name": "SetNextRebase",
			"type": "event"
		},
		{
			"anonymous": false,
			"inputs": [
				{
					"indexed": false,
					"internalType": "uint256",
					"name": "_rebaseFrequency",
					"type": "uint256"
				}
			],
			"name": "SetRebaseFrequency",
			"type": "event"
		},
		{
			"anonymous": false,
			"inputs": [
				{
					"indexed": false,
					"internalType": "uint256",
					"name": "_rewardYield",
					"type": "uint256"
				},
				{
					"indexed": false,
					"internalType": "uint256",
					"name": "_rewardYieldDenominator",
					"type": "uint256"
				}
			],
			"name": "SetRewardYield",
			"type": "event"
		},
		{
			"anonymous": false,
			"inputs": [
				{
					"indexed": false,
					"internalType": "bool",
					"name": "_enabled",
					"type": "bool"
				},
				{
					"indexed": false,
					"internalType": "uint256",
					"name": "_num",
					"type": "uint256"
				},
				{
					"indexed": false,
					"internalType": "uint256",
					"name": "_denom",
					"type": "uint256"
				}
			],
			"name": "SetSwapBackSettings",
			"type": "event"
		},
		{
			"anonymous": false,
			"inputs": [
				{
					"indexed": false,
					"internalType": "uint256",
					"name": "target",
					"type": "uint256"
				},
				{
					"indexed": false,
					"internalType": "uint256",
					"name": "accuracy",
					"type": "uint256"
				}
			],
			"name": "SetTargetLiquidity",
			"type": "event"
		},
		{
			"anonymous": false,
			"inputs": [
				{
					"indexed": false,
					"internalType": "uint256",
					"name": "tokensSwapped",
					"type": "uint256"
				},
				{
					"indexed": false,
					"internalType": "uint256",
					"name": "bnbReceived",
					"type": "uint256"
				},
				{
					"indexed": false,
					"internalType": "uint256",
					"name": "tokensIntoLiqudity",
					"type": "uint256"
				}
			],
			"name": "SwapAndLiquify",
			"type": "event"
		},
		{
			"anonymous": false,
			"inputs": [
				{
					"indexed": false,
					"internalType": "uint256",
					"name": "tokensSwapped",
					"type": "uint256"
				},
				{
					"indexed": false,
					"internalType": "uint256",
					"name": "busdReceived",
					"type": "uint256"
				},
				{
					"indexed": false,
					"internalType": "uint256",
					"name": "tokensIntoLiqudity",
					"type": "uint256"
				}
			],
			"name": "SwapAndLiquifyBusd",
			"type": "event"
		},
		{
			"anonymous": false,
			"inputs": [
				{
					"indexed": false,
					"internalType": "uint256",
					"name": "contractTokenBalance",
					"type": "uint256"
				},
				{
					"indexed": false,
					"internalType": "uint256",
					"name": "amountToLiquify",
					"type": "uint256"
				},
				{
					"indexed": false,
					"internalType": "uint256",
					"name": "amountToRFV",
					"type": "uint256"
				},
				{
					"indexed": false,
					"internalType": "uint256",
					"name": "amountToTreasury",
					"type": "uint256"
				}
			],
			"name": "SwapBack",
			"type": "event"
		},
		{
			"anonymous": false,
			"inputs": [
				{
					"indexed": true,
					"internalType": "address",
					"name": "from",
					"type": "address"
				},
				{
					"indexed": true,
					"internalType": "address",
					"name": "to",
					"type": "address"
				},
				{
					"indexed": false,
					"internalType": "uint256",
					"name": "value",
					"type": "uint256"
				}
			],
			"name": "Transfer",
			"type": "event"
		},
		{
			"inputs": [],
			"name": "MAX_FEE_BUY",
			"outputs": [
				{
					"internalType": "uint256",
					"name": "",
					"type": "uint256"
				}
			],
			"stateMutability": "view",
			"type": "function"
		},
		{
			"inputs": [],
			"name": "MAX_FEE_RATE",
			"outputs": [
				{
					"internalType": "uint256",
					"name": "",
					"type": "uint256"
				}
			],
			"stateMutability": "view",
			"type": "function"
		},
		{
			"inputs": [],
			"name": "MAX_FEE_SELL",
			"outputs": [
				{
					"internalType": "uint256",
					"name": "",
					"type": "uint256"
				}
			],
			"stateMutability": "view",
			"type": "function"
		},
		{
			"inputs": [
				{
					"internalType": "uint256",
					"name": "",
					"type": "uint256"
				}
			],
			"name": "_markerPairs",
			"outputs": [
				{
					"internalType": "address",
					"name": "",
					"type": "address"
				}
			],
			"stateMutability": "view",
			"type": "function"
		},
		{
			"inputs": [
				{
					"internalType": "address",
					"name": "owner_",
					"type": "address"
				},
				{
					"internalType": "address",
					"name": "spender",
					"type": "address"
				}
			],
			"name": "allowance",
			"outputs": [
				{
					"internalType": "uint256",
					"name": "",
					"type": "uint256"
				}
			],
			"stateMutability": "view",
			"type": "function"
		},
		{
			"inputs": [
				{
					"internalType": "address",
					"name": "spender",
					"type": "address"
				},
				{
					"internalType": "uint256",
					"name": "value",
					"type": "uint256"
				}
			],
			"name": "approve",
			"outputs": [
				{
					"internalType": "bool",
					"name": "",
					"type": "bool"
				}
			],
			"stateMutability": "nonpayable",
			"type": "function"
		},
		{
			"inputs": [],
			"name": "autoRebase",
			"outputs": [
				{
					"internalType": "bool",
					"name": "",
					"type": "bool"
				}
			],
			"stateMutability": "view",
			"type": "function"
		},
		{
			"inputs": [
				{
					"internalType": "address",
					"name": "",
					"type": "address"
				}
			],
			"name": "automatedMarketMakerPairs",
			"outputs": [
				{
					"internalType": "bool",
					"name": "",
					"type": "bool"
				}
			],
			"stateMutability": "view",
			"type": "function"
		},
		{
			"inputs": [
				{
					"internalType": "address",
					"name": "who",
					"type": "address"
				}
			],
			"name": "balanceOf",
			"outputs": [
				{
					"internalType": "uint256",
					"name": "",
					"type": "uint256"
				}
			],
			"stateMutability": "view",
			"type": "function"
		},
		{
			"inputs": [],
			"name": "buyFeeRFV",
			"outputs": [
				{
					"internalType": "uint256",
					"name": "",
					"type": "uint256"
				}
			],
			"stateMutability": "view",
			"type": "function"
		},
		{
			"inputs": [
				{
					"internalType": "address",
					"name": "_addr",
					"type": "address"
				}
			],
			"name": "checkFeeExempt",
			"outputs": [
				{
					"internalType": "bool",
					"name": "",
					"type": "bool"
				}
			],
			"stateMutability": "view",
			"type": "function"
		},
		{
			"inputs": [],
			"name": "checkSwapThreshold",
			"outputs": [
				{
					"internalType": "uint256",
					"name": "",
					"type": "uint256"
				}
			],
			"stateMutability": "view",
			"type": "function"
		},
		{
			"inputs": [
				{
					"internalType": "address",
					"name": "_receiver",
					"type": "address"
				}
			],
			"name": "clearStuckBalance",
			"outputs": [],
			"stateMutability": "nonpayable",
			"type": "function"
		},
		{
			"inputs": [],
			"name": "decimals",
			"outputs": [
				{
					"internalType": "uint8",
					"name": "",
					"type": "uint8"
				}
			],
			"stateMutability": "view",
			"type": "function"
		},
		{
			"inputs": [
				{
					"internalType": "address",
					"name": "spender",
					"type": "address"
				},
				{
					"internalType": "uint256",
					"name": "subtractedValue",
					"type": "uint256"
				}
			],
			"name": "decreaseAllowance",
			"outputs": [
				{
					"internalType": "bool",
					"name": "",
					"type": "bool"
				}
			],
			"stateMutability": "nonpayable",
			"type": "function"
		},
		{
			"inputs": [],
			"name": "feeDenominator",
			"outputs": [
				{
					"internalType": "uint256",
					"name": "",
					"type": "uint256"
				}
			],
			"stateMutability": "view",
			"type": "function"
		},
		{
			"inputs": [],
			"name": "getCirculatingSupply",
			"outputs": [
				{
					"internalType": "uint256",
					"name": "",
					"type": "uint256"
				}
			],
			"stateMutability": "view",
			"type": "function"
		},
		{
			"inputs": [
				{
					"internalType": "uint256",
					"name": "accuracy",
					"type": "uint256"
				}
			],
			"name": "getLiquidityBacking",
			"outputs": [
				{
					"internalType": "uint256",
					"name": "",
					"type": "uint256"
				}
			],
			"stateMutability": "view",
			"type": "function"
		},
		{
			"inputs": [
				{
					"internalType": "address",
					"name": "spender",
					"type": "address"
				},
				{
					"internalType": "uint256",
					"name": "addedValue",
					"type": "uint256"
				}
			],
			"name": "increaseAllowance",
			"outputs": [
				{
					"internalType": "bool",
					"name": "",
					"type": "bool"
				}
			],
			"stateMutability": "nonpayable",
			"type": "function"
		},
		{
			"inputs": [],
			"name": "initialDistributionFinished",
			"outputs": [
				{
					"internalType": "bool",
					"name": "",
					"type": "bool"
				}
			],
			"stateMutability": "view",
			"type": "function"
		},
		{
			"inputs": [],
			"name": "isLiquidityInBnb",
			"outputs": [
				{
					"internalType": "bool",
					"name": "",
					"type": "bool"
				}
			],
			"stateMutability": "view",
			"type": "function"
		},
		{
			"inputs": [
				{
					"internalType": "uint256",
					"name": "target",
					"type": "uint256"
				},
				{
					"internalType": "uint256",
					"name": "accuracy",
					"type": "uint256"
				}
			],
			"name": "isOverLiquified",
			"outputs": [
				{
					"internalType": "bool",
					"name": "",
					"type": "bool"
				}
			],
			"stateMutability": "view",
			"type": "function"
		},
		{
			"inputs": [],
			"name": "liquidityFee",
			"outputs": [
				{
					"internalType": "uint256",
					"name": "",
					"type": "uint256"
				}
			],
			"stateMutability": "view",
			"type": "function"
		},
		{
			"inputs": [],
			"name": "liquidityReceiver",
			"outputs": [
				{
					"internalType": "address",
					"name": "",
					"type": "address"
				}
			],
			"stateMutability": "view",
			"type": "function"
		},
		{
			"inputs": [],
			"name": "manualRebase",
			"outputs": [],
			"stateMutability": "nonpayable",
			"type": "function"
		},
		{
			"inputs": [],
			"name": "manualSync",
			"outputs": [],
			"stateMutability": "nonpayable",
			"type": "function"
		},
		{
			"inputs": [],
			"name": "name",
			"outputs": [
				{
					"internalType": "string",
					"name": "",
					"type": "string"
				}
			],
			"stateMutability": "view",
			"type": "function"
		},
		{
			"inputs": [],
			"name": "nextRebase",
			"outputs": [
				{
					"internalType": "uint256",
					"name": "",
					"type": "uint256"
				}
			],
			"stateMutability": "view",
			"type": "function"
		},
		{
			"inputs": [],
			"name": "owner",
			"outputs": [
				{
					"internalType": "address",
					"name": "",
					"type": "address"
				}
			],
			"stateMutability": "view",
			"type": "function"
		},
		{
			"inputs": [],
			"name": "pair",
			"outputs": [
				{
					"internalType": "address",
					"name": "",
					"type": "address"
				}
			],
			"stateMutability": "view",
			"type": "function"
		},
		{
			"inputs": [],
			"name": "rebaseFrequency",
			"outputs": [
				{
					"internalType": "uint256",
					"name": "",
					"type": "uint256"
				}
			],
			"stateMutability": "view",
			"type": "function"
		},
		{
			"inputs": [],
			"name": "renounceOwnership",
			"outputs": [],
			"stateMutability": "nonpayable",
			"type": "function"
		},
		{
			"inputs": [],
			"name": "rewardYield",
			"outputs": [
				{
					"internalType": "uint256",
					"name": "",
					"type": "uint256"
				}
			],
			"stateMutability": "view",
			"type": "function"
		},
		{
			"inputs": [],
			"name": "rewardYieldDenominator",
			"outputs": [
				{
					"internalType": "uint256",
					"name": "",
					"type": "uint256"
				}
			],
			"stateMutability": "view",
			"type": "function"
		},
		{
			"inputs": [],
			"name": "riskFreeValueReceiver",
			"outputs": [
				{
					"internalType": "address",
					"name": "",
					"type": "address"
				}
			],
			"stateMutability": "view",
			"type": "function"
		},
		{
			"inputs": [],
			"name": "router",
			"outputs": [
				{
					"internalType": "contract IDEXRouter",
					"name": "",
					"type": "address"
				}
			],
			"stateMutability": "view",
			"type": "function"
		},
		{
			"inputs": [],
			"name": "sellFeeTreasuryAdded",
			"outputs": [
				{
					"internalType": "uint256",
					"name": "",
					"type": "uint256"
				}
			],
			"stateMutability": "view",
			"type": "function"
		},
		{
			"inputs": [
				{
					"internalType": "bool",
					"name": "_autoRebase",
					"type": "bool"
				}
			],
			"name": "setAutoRebase",
			"outputs": [],
			"stateMutability": "nonpayable",
			"type": "function"
		},
		{
			"inputs": [
				{
					"internalType": "address",
					"name": "_pair",
					"type": "address"
				},
				{
					"internalType": "bool",
					"name": "_value",
					"type": "bool"
				}
			],
			"name": "setAutomatedMarketMakerPair",
			"outputs": [],
			"stateMutability": "nonpayable",
			"type": "function"
		},
		{
			"inputs": [
				{
					"internalType": "address",
					"name": "_addr",
					"type": "address"
				},
				{
					"internalType": "bool",
					"name": "_value",
					"type": "bool"
				}
			],
			"name": "setFeeExempt",
			"outputs": [],
			"stateMutability": "nonpayable",
			"type": "function"
		},
		{
			"inputs": [
				{
					"internalType": "address",
					"name": "_liquidityReceiver",
					"type": "address"
				},
				{
					"internalType": "address",
					"name": "_treasuryReceiver",
					"type": "address"
				},
				{
					"internalType": "address",
					"name": "_riskFreeValueReceiver",
					"type": "address"
				}
			],
			"name": "setFeeReceivers",
			"outputs": [],
			"stateMutability": "nonpayable",
			"type": "function"
		},
		{
			"inputs": [
				{
					"internalType": "uint256",
					"name": "_liquidityFee",
					"type": "uint256"
				},
				{
					"internalType": "uint256",
					"name": "_riskFreeValue",
					"type": "uint256"
				},
				{
					"internalType": "uint256",
					"name": "_treasuryFee",
					"type": "uint256"
				},
				{
					"internalType": "uint256",
					"name": "_sellFeeTreasuryAdded",
					"type": "uint256"
				},
				{
					"internalType": "uint256",
					"name": "_feeDenominator",
					"type": "uint256"
				}
			],
			"name": "setFees",
			"outputs": [],
			"stateMutability": "nonpayable",
			"type": "function"
		},
		{
			"inputs": [
				{
					"internalType": "bool",
					"name": "_value",
					"type": "bool"
				}
			],
			"name": "setInitialDistributionFinished",
			"outputs": [],
			"stateMutability": "nonpayable",
			"type": "function"
		},
		{
			"inputs": [
				{
					"internalType": "bool",
					"name": "_value",
					"type": "bool"
				}
			],
			"name": "setIsLiquidityInBnb",
			"outputs": [],
			"stateMutability": "nonpayable",
			"type": "function"
		},
		{
			"inputs": [
				{
					"internalType": "uint256",
					"name": "_nextRebase",
					"type": "uint256"
				}
			],
			"name": "setNextRebase",
			"outputs": [],
			"stateMutability": "nonpayable",
			"type": "function"
		},
		{
			"inputs": [
				{
					"internalType": "uint256",
					"name": "_rebaseFrequency",
					"type": "uint256"
				}
			],
			"name": "setRebaseFrequency",
			"outputs": [],
			"stateMutability": "nonpayable",
			"type": "function"
		},
		{
			"inputs": [
				{
					"internalType": "uint256",
					"name": "_rewardYield",
					"type": "uint256"
				},
				{
					"internalType": "uint256",
					"name": "_rewardYieldDenominator",
					"type": "uint256"
				}
			],
			"name": "setRewardYield",
			"outputs": [],
			"stateMutability": "nonpayable",
			"type": "function"
		},
		{
			"inputs": [
				{
					"internalType": "bool",
					"name": "_enabled",
					"type": "bool"
				},
				{
					"internalType": "uint256",
					"name": "_num",
					"type": "uint256"
				},
				{
					"internalType": "uint256",
					"name": "_denom",
					"type": "uint256"
				}
			],
			"name": "setSwapBackSettings",
			"outputs": [],
			"stateMutability": "nonpayable",
			"type": "function"
		},
		{
			"inputs": [
				{
					"internalType": "uint256",
					"name": "target",
					"type": "uint256"
				},
				{
					"internalType": "uint256",
					"name": "accuracy",
					"type": "uint256"
				}
			],
			"name": "setTargetLiquidity",
			"outputs": [],
			"stateMutability": "nonpayable",
			"type": "function"
		},
		{
			"inputs": [],
			"name": "swapEnabled",
			"outputs": [
				{
					"internalType": "bool",
					"name": "",
					"type": "bool"
				}
			],
			"stateMutability": "view",
			"type": "function"
		},
		{
			"inputs": [],
			"name": "symbol",
			"outputs": [
				{
					"internalType": "string",
					"name": "",
					"type": "string"
				}
			],
			"stateMutability": "view",
			"type": "function"
		},
		{
			"inputs": [],
			"name": "totalBuyFee",
			"outputs": [
				{
					"internalType": "uint256",
					"name": "",
					"type": "uint256"
				}
			],
			"stateMutability": "view",
			"type": "function"
		},
		{
			"inputs": [],
			"name": "totalSellFee",
			"outputs": [
				{
					"internalType": "uint256",
					"name": "",
					"type": "uint256"
				}
			],
			"stateMutability": "view",
			"type": "function"
		},
		{
			"inputs": [],
			"name": "totalSupply",
			"outputs": [
				{
					"internalType": "uint256",
					"name": "",
					"type": "uint256"
				}
			],
			"stateMutability": "view",
			"type": "function"
		},
		{
			"inputs": [
				{
					"internalType": "address",
					"name": "to",
					"type": "address"
				},
				{
					"internalType": "uint256",
					"name": "value",
					"type": "uint256"
				}
			],
			"name": "transfer",
			"outputs": [
				{
					"internalType": "bool",
					"name": "",
					"type": "bool"
				}
			],
			"stateMutability": "nonpayable",
			"type": "function"
		},
		{
			"inputs": [
				{
					"internalType": "address",
					"name": "from",
					"type": "address"
				},
				{
					"internalType": "address",
					"name": "to",
					"type": "address"
				},
				{
					"internalType": "uint256",
					"name": "value",
					"type": "uint256"
				}
			],
			"name": "transferFrom",
			"outputs": [
				{
					"internalType": "bool",
					"name": "",
					"type": "bool"
				}
			],
			"stateMutability": "nonpayable",
			"type": "function"
		},
		{
			"inputs": [
				{
					"internalType": "address",
					"name": "newOwner",
					"type": "address"
				}
			],
			"name": "transferOwnership",
			"outputs": [],
			"stateMutability": "nonpayable",
			"type": "function"
		},
		{
			"inputs": [],
			"name": "treasuryFee",
			"outputs": [
				{
					"internalType": "uint256",
					"name": "",
					"type": "uint256"
				}
			],
			"stateMutability": "view",
			"type": "function"
		},
		{
			"inputs": [],
			"name": "treasuryReceiver",
			"outputs": [
				{
					"internalType": "address",
					"name": "",
					"type": "address"
				}
			],
			"stateMutability": "view",
			"type": "function"
		},
		{
			"inputs": [],
			"name": "usdtToken",
			"outputs": [
				{
					"internalType": "address",
					"name": "",
					"type": "address"
				}
			],
			"stateMutability": "view",
			"type": "function"
		},
		{
			"stateMutability": "payable",
			"type": "receive"
		}
	]
}