{
	"data": {
		"bytecode": {
			"linkReferences": {},
			"object": "60806040526b033b2e3c9fd0803ce800000060025534801561002057600080fd5b50600254732c604d9e15e6524f0bb2a2a22f63a7ca041e84c3600081815260208190527fb7a07c5f0332c350d219d103c30b3f8d55a382aeeef7f1ba4f6d049e5d945968839055604051919290917fddf252ad1be2c89b69c2b068fc378daa952ba7f163c4a11628f55a4df523b3ef91610099916100a6565b60405180910390a36100af565b90815260200190565b610c5c806100be6000396000f3fe608060405234801561001057600080fd5b50600436106101005760003560e01c806370a0823111610097578063bed9985011610066578063bed99850146101d0578063cc32d176146101d8578063d4698016146101e0578063dd62ed3e146101e857610100565b806370a082311461019a57806395d89b41146101ad57806398118cb4146101b5578063a9059cbb146101bd57610100565b8063311e6703116100d3578063311e670314610160578063313ce567146101755780634626402b1461018a578063472a0b2a1461019257610100565b806306fdde0314610105578063095ea7b31461012357806318160ddd146101435780632b14ca5614610158575b600080fd5b61010d6101fb565b60405161011a91906109c4565b60405180910390f35b61013661013136600461097c565b610234565b60405161011a91906109b9565b61014b610251565b60405161011a9190610b6b565b61014b6102be565b6101686102c3565b60405161011a91906109a5565b61017d6102c8565b60405161011a9190610b74565b6101686102cd565b6101686102e5565b61014b6101a8366004610930565b6102eb565b61010d61030a565b61014b61032b565b6101366101cb36600461097c565b610330565b61014b610344565b61014b610349565b61016861034e565b61014b6101f636600461094a565b610366565b6040518060400160405280601981526020017f5b544553545d204465666c6174696f6e61727920546f6b656e0000000000000081525081565b6000610248610241610391565b8484610395565b50600192915050565b600060208190527fad3228b676f7d3cd4284a5443f17f1962b36e491b30a40b2405849e597ba5fb55461dead82527f44ad89ba62b98ff34f51403ac22759b55759460c0bb5521eb4b6ee3cff49cf83546002546102b992916102b39190610452565b90610452565b905090565b600f81565b600081565b601281565b73cc5e043c5142033a800a72286356317dacb57a7781565b61dead81565b6001600160a01b0381166000908152602081905260409020545b919050565b60405180604001604052806005815260200164444654303560d81b81525081565b601981565b600061024861033d610391565b8484610465565b600581565b603281565b732c604d9e15e6524f0bb2a2a22f63a7ca041e84c381565b6001600160a01b03918216600090815260016020908152604080832093909416825291909152205490565b3390565b6001600160a01b0383166103c45760405162461bcd60e51b81526004016103bb90610b27565b60405180910390fd5b6001600160a01b0382166103ea5760405162461bcd60e51b81526004016103bb90610a5a565b6001600160a01b0380841660008181526001602090815260408083209487168084529490915290819020849055517f8c5be1e5ebec7d5bd14f71427d1e84f3dd0314c0f7b2291e5b200ac8c7c3b92590610445908590610b6b565b60405180910390a3505050565b600061045e8284610bd9565b9392505050565b6001600160a01b03831661048b5760405162461bcd60e51b81526004016103bb90610ae2565b6001600160a01b0382166104b15760405162461bcd60e51b81526004016103bb90610a17565b6001600160a01b038316600090815260208190526040902054818110156104ea5760405162461bcd60e51b81526004016103bb90610a9c565b60006105036127106104fd8560196108f5565b90610901565b905060006105186127106104fd8660326108f5565b9050600061052d6127106104fd87600f6108f5565b905060006105426127106104fd8860056108f5565b9050600061055a83610554878761090d565b9061090d565b9050600061056c836102b38a85610452565b90506105788789610452565b6001600160a01b03808c1660009081526020819052604080822093909355908b16815220546105a7908261090d565b6001600160a01b038a16600090815260208190526040812091909155732c604d9e15e6524f0bb2a2a22f63a7ca041e84c390527fb7a07c5f0332c350d219d103c30b3f8d55a382aeeef7f1ba4f6d049e5d94596854610606908761090d565b600060208190527fb7a07c5f0332c350d219d103c30b3f8d55a382aeeef7f1ba4f6d049e5d9459689190915573cc5e043c5142033a800a72286356317dacb57a7790527fa4a619a332312f3b10535105aaba4faa19a71ab9d685b400ddc4b24e4c7fcb2e54610675908661090d565b73cc5e043c5142033a800a72286356317dacb57a7760009081526020527fa4a619a332312f3b10535105aaba4faa19a71ab9d685b400ddc4b24e4c7fcb2e558315610791576106fb6106c8856002610901565b61dead60009081526020527f44ad89ba62b98ff34f51403ac22759b55759460c0bb5521eb4b6ee3cff49cf83549061090d565b61dead60009081526020527f44ad89ba62b98ff34f51403ac22759b55759460c0bb5521eb4b6ee3cff49cf8355610766610736856002610901565b60008080526020527fad3228b676f7d3cd4284a5443f17f1962b36e491b30a40b2405849e597ba5fb5549061090d565b60008080526020527fad3228b676f7d3cd4284a5443f17f1962b36e491b30a40b2405849e597ba5fb5555b886001600160a01b03168a6001600160a01b0316600080516020610c07833981519152836040516107c29190610b6b565b60405180910390a3811561086b57732c604d9e15e6524f0bb2a2a22f63a7ca041e84c36001600160a01b03168a6001600160a01b0316600080516020610c07833981519152886040516108159190610b6b565b60405180910390a373cc5e043c5142033a800a72286356317dacb57a776001600160a01b03168a6001600160a01b0316600080516020610c07833981519152876040516108629190610b6b565b60405180910390a35b82156108e95761dead6001600160a01b038b16600080516020610c07833981519152610898866002610901565b6040516108a59190610b6b565b60405180910390a360006001600160a01b038b16600080516020610c078339815191526108d3866002610901565b6040516108e09190610b6b565b60405180910390a35b50505050505050505050565b600061045e8284610bba565b600061045e8284610b9a565b600061045e8284610b82565b80356001600160a01b038116811461030557600080fd5b600060208284031215610941578081fd5b61045e82610919565b6000806040838503121561095c578081fd5b61096583610919565b915061097360208401610919565b90509250929050565b6000806040838503121561098e578182fd5b61099783610919565b946020939093013593505050565b6001600160a01b0391909116815260200190565b901515815260200190565b6000602080835283518082850152825b818110156109f0578581018301518582016040015282016109d4565b81811115610a015783604083870101525b50601f01601f1916929092016040019392505050565b60208082526023908201527f45524332303a207472616e7366657220746f20746865207a65726f206164647260408201526265737360e81b606082015260800190565b60208082526022908201527f45524332303a20617070726f766520746f20746865207a65726f206164647265604082015261737360f01b606082015260800190565b60208082526026908201527f45524332303a207472616e7366657220616d6f756e7420657863656564732062604082015265616c616e636560d01b606082015260800190565b60208082526025908201527f45524332303a207472616e736665722066726f6d20746865207a65726f206164604082015264647265737360d81b606082015260800190565b60208082526024908201527f45524332303a20617070726f76652066726f6d20746865207a65726f206164646040820152637265737360e01b606082015260800190565b90815260200190565b60ff91909116815260200190565b60008219821115610b9557610b95610bf0565b500190565b600082610bb557634e487b7160e01b81526012600452602481fd5b500490565b6000816000190483118215151615610bd457610bd4610bf0565b500290565b600082821015610beb57610beb610bf0565b500390565b634e487b7160e01b600052601160045260246000fdfeddf252ad1be2c89b69c2b068fc378daa952ba7f163c4a11628f55a4df523b3efa2646970667358221220c5323f078b7863b798879befd4601257dd8dde458d32a2b27b40643e6c7b71b364736f6c63430008010033",
			"opcodes": "PUSH1 0x80 PUSH1 0x40 MSTORE PUSH12 0x33B2E3C9FD0803CE8000000 PUSH1 0x2 SSTORE CALLVALUE DUP1 ISZERO PUSH2 0x20 JUMPI PUSH1 0x0 DUP1 REVERT JUMPDEST POP PUSH1 0x2 SLOAD PUSH20 0x2C604D9E15E6524F0BB2A2A22F63A7CA041E84C3 PUSH1 0x0 DUP2 DUP2 MSTORE PUSH1 0x20 DUP2 SWAP1 MSTORE PUSH32 0xB7A07C5F0332C350D219D103C30B3F8D55A382AEEEF7F1BA4F6D049E5D945968 DUP4 SWAP1 SSTORE PUSH1 0x40 MLOAD SWAP2 SWAP3 SWAP1 SWAP2 PUSH32 0xDDF252AD1BE2C89B69C2B068FC378DAA952BA7F163C4A11628F55A4DF523B3EF SWAP2 PUSH2 0x99 SWAP2 PUSH2 0xA6 JUMP JUMPDEST PUSH1 0x40 MLOAD DUP1 SWAP2 SUB SWAP1 LOG3 PUSH2 0xAF JUMP JUMPDEST SWAP1 DUP2 MSTORE PUSH1 0x20 ADD SWAP1 JUMP JUMPDEST PUSH2 0xC5C DUP1 PUSH2 0xBE PUSH1 0x0 CODECOPY PUSH1 0x0 RETURN INVALID PUSH1 0x80 PUSH1 0x40 MSTORE CALLVALUE DUP1 ISZERO PUSH2 0x10 JUMPI PUSH1 0x0 DUP1 REVERT JUMPDEST POP PUSH1 0x4 CALLDATASIZE LT PUSH2 0x100 JUMPI PUSH1 0x0 CALLDATALOAD PUSH1 0xE0 SHR DUP1 PUSH4 0x70A08231 GT PUSH2 0x97 JUMPI DUP1 PUSH4 0xBED99850 GT PUSH2 0x66 JUMPI DUP1 PUSH4 0xBED99850 EQ PUSH2 0x1D0 JUMPI DUP1 PUSH4 0xCC32D176 EQ PUSH2 0x1D8 JUMPI DUP1 PUSH4 0xD4698016 EQ PUSH2 0x1E0 JUMPI DUP1 PUSH4 0xDD62ED3E EQ PUSH2 0x1E8 JUMPI PUSH2 0x100 JUMP JUMPDEST DUP1 PUSH4 0x70A08231 EQ PUSH2 0x19A JUMPI DUP1 PUSH4 0x95D89B41 EQ PUSH2 0x1AD JUMPI DUP1 PUSH4 0x98118CB4 EQ PUSH2 0x1B5 JUMPI DUP1 PUSH4 0xA9059CBB EQ PUSH2 0x1BD JUMPI PUSH2 0x100 JUMP JUMPDEST DUP1 PUSH4 0x311E6703 GT PUSH2 0xD3 JUMPI DUP1 PUSH4 0x311E6703 EQ PUSH2 0x160 JUMPI DUP1 PUSH4 0x313CE567 EQ PUSH2 0x175 JUMPI DUP1 PUSH4 0x4626402B EQ PUSH2 0x18A JUMPI DUP1 PUSH4 0x472A0B2A EQ PUSH2 0x192 JUMPI PUSH2 0x100 JUMP JUMPDEST DUP1 PUSH4 0x6FDDE03 EQ PUSH2 0x105 JUMPI DUP1 PUSH4 0x95EA7B3 EQ PUSH2 0x123 JUMPI DUP1 PUSH4 0x18160DDD EQ PUSH2 0x143 JUMPI DUP1 PUSH4 0x2B14CA56 EQ PUSH2 0x158 JUMPI JUMPDEST PUSH1 0x0 DUP1 REVERT JUMPDEST PUSH2 0x10D PUSH2 0x1FB JUMP JUMPDEST PUSH1 0x40 MLOAD PUSH2 0x11A SWAP2 SWAP1 PUSH2 0x9C4 JUMP JUMPDEST PUSH1 0x40 MLOAD DUP1 SWAP2 SUB SWAP1 RETURN JUMPDEST PUSH2 0x136 PUSH2 0x131 CALLDATASIZE PUSH1 0x4 PUSH2 0x97C JUMP JUMPDEST PUSH2 0x234 JUMP JUMPDEST PUSH1 0x40 MLOAD PUSH2 0x11A SWAP2 SWAP1 PUSH2 0x9B9 JUMP JUMPDEST PUSH2 0x14B PUSH2 0x251 JUMP JUMPDEST PUSH1 0x40 MLOAD PUSH2 0x11A SWAP2 SWAP1 PUSH2 0xB6B JUMP JUMPDEST PUSH2 0x14B PUSH2 0x2BE JUMP JUMPDEST PUSH2 0x168 PUSH2 0x2C3 JUMP JUMPDEST PUSH1 0x40 MLOAD PUSH2 0x11A SWAP2 SWAP1 PUSH2 0x9A5 JUMP JUMPDEST PUSH2 0x17D PUSH2 0x2C8 JUMP JUMPDEST PUSH1 0x40 MLOAD PUSH2 0x11A SWAP2 SWAP1 PUSH2 0xB74 JUMP JUMPDEST PUSH2 0x168 PUSH2 0x2CD JUMP JUMPDEST PUSH2 0x168 PUSH2 0x2E5 JUMP JUMPDEST PUSH2 0x14B PUSH2 0x1A8 CALLDATASIZE PUSH1 0x4 PUSH2 0x930 JUMP JUMPDEST PUSH2 0x2EB JUMP JUMPDEST PUSH2 0x10D PUSH2 0x30A JUMP JUMPDEST PUSH2 0x14B PUSH2 0x32B JUMP JUMPDEST PUSH2 0x136 PUSH2 0x1CB CALLDATASIZE PUSH1 0x4 PUSH2 0x97C JUMP JUMPDEST PUSH2 0x330 JUMP JUMPDEST PUSH2 0x14B PUSH2 0x344 JUMP JUMPDEST PUSH2 0x14B PUSH2 0x349 JUMP JUMPDEST PUSH2 0x168 PUSH2 0x34E JUMP JUMPDEST PUSH2 0x14B PUSH2 0x1F6 CALLDATASIZE PUSH1 0x4 PUSH2 0x94A JUMP JUMPDEST PUSH2 0x366 JUMP JUMPDEST PUSH1 0x40 MLOAD DUP1 PUSH1 0x40 ADD PUSH1 0x40 MSTORE DUP1 PUSH1 0x19 DUP2 MSTORE PUSH1 0x20 ADD PUSH32 0x5B544553545D204465666C6174696F6E61727920546F6B656E00000000000000 DUP2 MSTORE POP DUP2 JUMP JUMPDEST PUSH1 0x0 PUSH2 0x248 PUSH2 0x241 PUSH2 0x391 JUMP JUMPDEST DUP5 DUP5 PUSH2 0x395 JUMP JUMPDEST POP PUSH1 0x1 SWAP3 SWAP2 POP POP JUMP JUMPDEST PUSH1 0x0 PUSH1 0x20 DUP2 SWAP1 MSTORE PUSH32 0xAD3228B676F7D3CD4284A5443F17F1962B36E491B30A40B2405849E597BA5FB5 SLOAD PUSH2 0xDEAD DUP3 MSTORE PUSH32 0x44AD89BA62B98FF34F51403AC22759B55759460C0BB5521EB4B6EE3CFF49CF83 SLOAD PUSH1 0x2 SLOAD PUSH2 0x2B9 SWAP3 SWAP2 PUSH2 0x2B3 SWAP2 SWAP1 PUSH2 0x452 JUMP JUMPDEST SWAP1 PUSH2 0x452 JUMP JUMPDEST SWAP1 POP SWAP1 JUMP JUMPDEST PUSH1 0xF DUP2 JUMP JUMPDEST PUSH1 0x0 DUP2 JUMP JUMPDEST PUSH1 0x12 DUP2 JUMP JUMPDEST PUSH20 0xCC5E043C5142033A800A72286356317DACB57A77 DUP2 JUMP JUMPDEST PUSH2 0xDEAD DUP2 JUMP JUMPDEST PUSH1 0x1 PUSH1 0x1 PUSH1 0xA0 SHL SUB DUP2 AND PUSH1 0x0 SWAP1 DUP2 MSTORE PUSH1 0x20 DUP2 SWAP1 MSTORE PUSH1 0x40 SWAP1 KECCAK256 SLOAD JUMPDEST SWAP2 SWAP1 POP JUMP JUMPDEST PUSH1 0x40 MLOAD DUP1 PUSH1 0x40 ADD PUSH1 0x40 MSTORE DUP1 PUSH1 0x5 DUP2 MSTORE PUSH1 0x20 ADD PUSH5 0x4446543035 PUSH1 0xD8 SHL DUP2 MSTORE POP DUP2 JUMP JUMPDEST PUSH1 0x19 DUP2 JUMP JUMPDEST PUSH1 0x0 PUSH2 0x248 PUSH2 0x33D PUSH2 0x391 JUMP JUMPDEST DUP5 DUP5 PUSH2 0x465 JUMP JUMPDEST PUSH1 0x5 DUP2 JUMP JUMPDEST PUSH1 0x32 DUP2 JUMP JUMPDEST PUSH20 0x2C604D9E15E6524F0BB2A2A22F63A7CA041E84C3 DUP2 JUMP JUMPDEST PUSH1 0x1 PUSH1 0x1 PUSH1 0xA0 SHL SUB SWAP2 DUP3 AND PUSH1 0x0 SWAP1 DUP2 MSTORE PUSH1 0x1 PUSH1 0x20 SWAP1 DUP2 MSTORE PUSH1 0x40 DUP1 DUP4 KECCAK256 SWAP4 SWAP1 SWAP5 AND DUP3 MSTORE SWAP2 SWAP1 SWAP2 MSTORE KECCAK256 SLOAD SWAP1 JUMP JUMPDEST CALLER SWAP1 JUMP JUMPDEST PUSH1 0x1 PUSH1 0x1 PUSH1 0xA0 SHL SUB DUP4 AND PUSH2 0x3C4 JUMPI PUSH1 0x40 MLOAD PUSH3 0x461BCD PUSH1 0xE5 SHL DUP2 MSTORE PUSH1 0x4 ADD PUSH2 0x3BB SWAP1 PUSH2 0xB27 JUMP JUMPDEST PUSH1 0x40 MLOAD DUP1 SWAP2 SUB SWAP1 REVERT JUMPDEST PUSH1 0x1 PUSH1 0x1 PUSH1 0xA0 SHL SUB DUP3 AND PUSH2 0x3EA JUMPI PUSH1 0x40 MLOAD PUSH3 0x461BCD PUSH1 0xE5 SHL DUP2 MSTORE PUSH1 0x4 ADD PUSH2 0x3BB SWAP1 PUSH2 0xA5A JUMP JUMPDEST PUSH1 0x1 PUSH1 0x1 PUSH1 0xA0 SHL SUB DUP1 DUP5 AND PUSH1 0x0 DUP2 DUP2 MSTORE PUSH1 0x1 PUSH1 0x20 SWAP1 DUP2 MSTORE PUSH1 0x40 DUP1 DUP4 KECCAK256 SWAP5 DUP8 AND DUP1 DUP5 MSTORE SWAP5 SWAP1 SWAP2 MSTORE SWAP1 DUP2 SWAP1 KECCAK256 DUP5 SWAP1 SSTORE MLOAD PUSH32 0x8C5BE1E5EBEC7D5BD14F71427D1E84F3DD0314C0F7B2291E5B200AC8C7C3B925 SWAP1 PUSH2 0x445 SWAP1 DUP6 SWAP1 PUSH2 0xB6B JUMP JUMPDEST PUSH1 0x40 MLOAD DUP1 SWAP2 SUB SWAP1 LOG3 POP POP POP JUMP JUMPDEST PUSH1 0x0 PUSH2 0x45E DUP3 DUP5 PUSH2 0xBD9 JUMP JUMPDEST SWAP4 SWAP3 POP POP POP JUMP JUMPDEST PUSH1 0x1 PUSH1 0x1 PUSH1 0xA0 SHL SUB DUP4 AND PUSH2 0x48B JUMPI PUSH1 0x40 MLOAD PUSH3 0x461BCD PUSH1 0xE5 SHL DUP2 MSTORE PUSH1 0x4 ADD PUSH2 0x3BB SWAP1 PUSH2 0xAE2 JUMP JUMPDEST PUSH1 0x1 PUSH1 0x1 PUSH1 0xA0 SHL SUB DUP3 AND PUSH2 0x4B1 JUMPI PUSH1 0x40 MLOAD PUSH3 0x461BCD PUSH1 0xE5 SHL DUP2 MSTORE PUSH1 0x4 ADD PUSH2 0x3BB SWAP1 PUSH2 0xA17 JUMP JUMPDEST PUSH1 0x1 PUSH1 0x1 PUSH1 0xA0 SHL SUB DUP4 AND PUSH1 0x0 SWAP1 DUP2 MSTORE PUSH1 0x20 DUP2 SWAP1 MSTORE PUSH1 0x40 SWAP1 KECCAK256 SLOAD DUP2 DUP2 LT ISZERO PUSH2 0x4EA JUMPI PUSH1 0x40 MLOAD PUSH3 0x461BCD PUSH1 0xE5 SHL DUP2 MSTORE PUSH1 0x4 ADD PUSH2 0x3BB SWAP1 PUSH2 0xA9C JUMP JUMPDEST PUSH1 0x0 PUSH2 0x503 PUSH2 0x2710 PUSH2 0x4FD DUP6 PUSH1 0x19 PUSH2 0x8F5 JUMP JUMPDEST SWAP1 PUSH2 0x901 JUMP JUMPDEST SWAP1 POP PUSH1 0x0 PUSH2 0x518 PUSH2 0x2710 PUSH2 0x4FD DUP7 PUSH1 0x32 PUSH2 0x8F5 JUMP JUMPDEST SWAP1 POP PUSH1 0x0 PUSH2 0x52D PUSH2 0x2710 PUSH2 0x4FD DUP8 PUSH1 0xF PUSH2 0x8F5 JUMP JUMPDEST SWAP1 POP PUSH1 0x0 PUSH2 0x542 PUSH2 0x2710 PUSH2 0x4FD DUP9 PUSH1 0x5 PUSH2 0x8F5 JUMP JUMPDEST SWAP1 POP PUSH1 0x0 PUSH2 0x55A DUP4 PUSH2 0x554 DUP8 DUP8 PUSH2 0x90D JUMP JUMPDEST SWAP1 PUSH2 0x90D JUMP JUMPDEST SWAP1 POP PUSH1 0x0 PUSH2 0x56C DUP4 PUSH2 0x2B3 DUP11 DUP6 PUSH2 0x452 JUMP JUMPDEST SWAP1 POP PUSH2 0x578 DUP8 DUP10 PUSH2 0x452 JUMP JUMPDEST PUSH1 0x1 PUSH1 0x1 PUSH1 0xA0 SHL SUB DUP1 DUP13 AND PUSH1 0x0 SWAP1 DUP2 MSTORE PUSH1 0x20 DUP2 SWAP1 MSTORE PUSH1 0x40 DUP1 DUP3 KECCAK256 SWAP4 SWAP1 SWAP4 SSTORE SWAP1 DUP12 AND DUP2 MSTORE KECCAK256 SLOAD PUSH2 0x5A7 SWAP1 DUP3 PUSH2 0x90D JUMP JUMPDEST PUSH1 0x1 PUSH1 0x1 PUSH1 0xA0 SHL SUB DUP11 AND PUSH1 0x0 SWAP1 DUP2 MSTORE PUSH1 0x20 DUP2 SWAP1 MSTORE PUSH1 0x40 DUP2 KECCAK256 SWAP2 SWAP1 SWAP2 SSTORE PUSH20 0x2C604D9E15E6524F0BB2A2A22F63A7CA041E84C3 SWAP1 MSTORE PUSH32 0xB7A07C5F0332C350D219D103C30B3F8D55A382AEEEF7F1BA4F6D049E5D945968 SLOAD PUSH2 0x606 SWAP1 DUP8 PUSH2 0x90D JUMP JUMPDEST PUSH1 0x0 PUSH1 0x20 DUP2 SWAP1 MSTORE PUSH32 0xB7A07C5F0332C350D219D103C30B3F8D55A382AEEEF7F1BA4F6D049E5D945968 SWAP2 SWAP1 SWAP2 SSTORE PUSH20 0xCC5E043C5142033A800A72286356317DACB57A77 SWAP1 MSTORE PUSH32 0xA4A619A332312F3B10535105AABA4FAA19A71AB9D685B400DDC4B24E4C7FCB2E SLOAD PUSH2 0x675 SWAP1 DUP7 PUSH2 0x90D JUMP JUMPDEST PUSH20 0xCC5E043C5142033A800A72286356317DACB57A77 PUSH1 0x0 SWAP1 DUP2 MSTORE PUSH1 0x20 MSTORE PUSH32 0xA4A619A332312F3B10535105AABA4FAA19A71AB9D685B400DDC4B24E4C7FCB2E SSTORE DUP4 ISZERO PUSH2 0x791 JUMPI PUSH2 0x6FB PUSH2 0x6C8 DUP6 PUSH1 0x2 PUSH2 0x901 JUMP JUMPDEST PUSH2 0xDEAD PUSH1 0x0 SWAP1 DUP2 MSTORE PUSH1 0x20 MSTORE PUSH32 0x44AD89BA62B98FF34F51403AC22759B55759460C0BB5521EB4B6EE3CFF49CF83 SLOAD SWAP1 PUSH2 0x90D JUMP JUMPDEST PUSH2 0xDEAD PUSH1 0x0 SWAP1 DUP2 MSTORE PUSH1 0x20 MSTORE PUSH32 0x44AD89BA62B98FF34F51403AC22759B55759460C0BB5521EB4B6EE3CFF49CF83 SSTORE PUSH2 0x766 PUSH2 0x736 DUP6 PUSH1 0x2 PUSH2 0x901 JUMP JUMPDEST PUSH1 0x0 DUP1 DUP1 MSTORE PUSH1 0x20 MSTORE PUSH32 0xAD3228B676F7D3CD4284A5443F17F1962B36E491B30A40B2405849E597BA5FB5 SLOAD SWAP1 PUSH2 0x90D JUMP JUMPDEST PUSH1 0x0 DUP1 DUP1 MSTORE PUSH1 0x20 MSTORE PUSH32 0xAD3228B676F7D3CD4284A5443F17F1962B36E491B30A40B2405849E597BA5FB5 SSTORE JUMPDEST DUP9 PUSH1 0x1 PUSH1 0x1 PUSH1 0xA0 SHL SUB AND DUP11 PUSH1 0x1 PUSH1 0x1 PUSH1 0xA0 SHL SUB AND PUSH1 0x0 DUP1 MLOAD PUSH1 0x20 PUSH2 0xC07 DUP4 CODECOPY DUP2 MLOAD SWAP2 MSTORE DUP4 PUSH1 0x40 MLOAD PUSH2 0x7C2 SWAP2 SWAP1 PUSH2 0xB6B JUMP JUMPDEST PUSH1 0x40 MLOAD DUP1 SWAP2 SUB SWAP1 LOG3 DUP2 ISZERO PUSH2 0x86B JUMPI PUSH20 0x2C604D9E15E6524F0BB2A2A22F63A7CA041E84C3 PUSH1 0x1 PUSH1 0x1 PUSH1 0xA0 SHL SUB AND DUP11 PUSH1 0x1 PUSH1 0x1 PUSH1 0xA0 SHL SUB AND PUSH1 0x0 DUP1 MLOAD PUSH1 0x20 PUSH2 0xC07 DUP4 CODECOPY DUP2 MLOAD SWAP2 MSTORE DUP9 PUSH1 0x40 MLOAD PUSH2 0x815 SWAP2 SWAP1 PUSH2 0xB6B JUMP JUMPDEST PUSH1 0x40 MLOAD DUP1 SWAP2 SUB SWAP1 LOG3 PUSH20 0xCC5E043C5142033A800A72286356317DACB57A77 PUSH1 0x1 PUSH1 0x1 PUSH1 0xA0 SHL SUB AND DUP11 PUSH1 0x1 PUSH1 0x1 PUSH1 0xA0 SHL SUB AND PUSH1 0x0 DUP1 MLOAD PUSH1 0x20 PUSH2 0xC07 DUP4 CODECOPY DUP2 MLOAD SWAP2 MSTORE DUP8 PUSH1 0x40 MLOAD PUSH2 0x862 SWAP2 SWAP1 PUSH2 0xB6B JUMP JUMPDEST PUSH1 0x40 MLOAD DUP1 SWAP2 SUB SWAP1 LOG3 JUMPDEST DUP3 ISZERO PUSH2 0x8E9 JUMPI PUSH2 0xDEAD PUSH1 0x1 PUSH1 0x1 PUSH1 0xA0 SHL SUB DUP12 AND PUSH1 0x0 DUP1 MLOAD PUSH1 0x20 PUSH2 0xC07 DUP4 CODECOPY DUP2 MLOAD SWAP2 MSTORE PUSH2 0x898 DUP7 PUSH1 0x2 PUSH2 0x901 JUMP JUMPDEST PUSH1 0x40 MLOAD PUSH2 0x8A5 SWAP2 SWAP1 PUSH2 0xB6B JUMP JUMPDEST PUSH1 0x40 MLOAD DUP1 SWAP2 SUB SWAP1 LOG3 PUSH1 0x0 PUSH1 0x1 PUSH1 0x1 PUSH1 0xA0 SHL SUB DUP12 AND PUSH1 0x0 DUP1 MLOAD PUSH1 0x20 PUSH2 0xC07 DUP4 CODECOPY DUP2 MLOAD SWAP2 MSTORE PUSH2 0x8D3 DUP7 PUSH1 0x2 PUSH2 0x901 JUMP JUMPDEST PUSH1 0x40 MLOAD PUSH2 0x8E0 SWAP2 SWAP1 PUSH2 0xB6B JUMP JUMPDEST PUSH1 0x40 MLOAD DUP1 SWAP2 SUB SWAP1 LOG3 JUMPDEST POP POP POP POP POP POP POP POP POP POP JUMP JUMPDEST PUSH1 0x0 PUSH2 0x45E DUP3 DUP5 PUSH2 0xBBA JUMP JUMPDEST PUSH1 0x0 PUSH2 0x45E DUP3 DUP5 PUSH2 0xB9A JUMP JUMPDEST PUSH1 0x0 PUSH2 0x45E DUP3 DUP5 PUSH2 0xB82 JUMP JUMPDEST DUP1 CALLDATALOAD PUSH1 0x1 PUSH1 0x1 PUSH1 0xA0 SHL SUB DUP2 AND DUP2 EQ PUSH2 0x305 JUMPI PUSH1 0x0 DUP1 REVERT JUMPDEST PUSH1 0x0 PUSH1 0x20 DUP3 DUP5 SUB SLT ISZERO PUSH2 0x941 JUMPI DUP1 DUP2 REVERT JUMPDEST PUSH2 0x45E DUP3 PUSH2 0x919 JUMP JUMPDEST PUSH1 0x0 DUP1 PUSH1 0x40 DUP4 DUP6 SUB SLT ISZERO PUSH2 0x95C JUMPI DUP1 DUP2 REVERT JUMPDEST PUSH2 0x965 DUP4 PUSH2 0x919 JUMP JUMPDEST SWAP2 POP PUSH2 0x973 PUSH1 0x20 DUP5 ADD PUSH2 0x919 JUMP JUMPDEST SWAP1 POP SWAP3 POP SWAP3 SWAP1 POP JUMP JUMPDEST PUSH1 0x0 DUP1 PUSH1 0x40 DUP4 DUP6 SUB SLT ISZERO PUSH2 0x98E JUMPI DUP2 DUP3 REVERT JUMPDEST PUSH2 0x997 DUP4 PUSH2 0x919 JUMP JUMPDEST SWAP5 PUSH1 0x20 SWAP4 SWAP1 SWAP4 ADD CALLDATALOAD SWAP4 POP POP POP JUMP JUMPDEST PUSH1 0x1 PUSH1 0x1 PUSH1 0xA0 SHL SUB SWAP2 SWAP1 SWAP2 AND DUP2 MSTORE PUSH1 0x20 ADD SWAP1 JUMP JUMPDEST SWAP1 ISZERO ISZERO DUP2 MSTORE PUSH1 0x20 ADD SWAP1 JUMP JUMPDEST PUSH1 0x0 PUSH1 0x20 DUP1 DUP4 MSTORE DUP4 MLOAD DUP1 DUP3 DUP6 ADD MSTORE DUP3 JUMPDEST DUP2 DUP2 LT ISZERO PUSH2 0x9F0 JUMPI DUP6 DUP2 ADD DUP4 ADD MLOAD DUP6 DUP3 ADD PUSH1 0x40 ADD MSTORE DUP3 ADD PUSH2 0x9D4 JUMP JUMPDEST DUP2 DUP2 GT ISZERO PUSH2 0xA01 JUMPI DUP4 PUSH1 0x40 DUP4 DUP8 ADD ADD MSTORE JUMPDEST POP PUSH1 0x1F ADD PUSH1 0x1F NOT AND SWAP3 SWAP1 SWAP3 ADD PUSH1 0x40 ADD SWAP4 SWAP3 POP POP POP JUMP JUMPDEST PUSH1 0x20 DUP1 DUP3 MSTORE PUSH1 0x23 SWAP1 DUP3 ADD MSTORE PUSH32 0x45524332303A207472616E7366657220746F20746865207A65726F2061646472 PUSH1 0x40 DUP3 ADD MSTORE PUSH3 0x657373 PUSH1 0xE8 SHL PUSH1 0x60 DUP3 ADD MSTORE PUSH1 0x80 ADD SWAP1 JUMP JUMPDEST PUSH1 0x20 DUP1 DUP3 MSTORE PUSH1 0x22 SWAP1 DUP3 ADD MSTORE PUSH32 0x45524332303A20617070726F766520746F20746865207A65726F206164647265 PUSH1 0x40 DUP3 ADD MSTORE PUSH2 0x7373 PUSH1 0xF0 SHL PUSH1 0x60 DUP3 ADD MSTORE PUSH1 0x80 ADD SWAP1 JUMP JUMPDEST PUSH1 0x20 DUP1 DUP3 MSTORE PUSH1 0x26 SWAP1 DUP3 ADD MSTORE PUSH32 0x45524332303A207472616E7366657220616D6F756E7420657863656564732062 PUSH1 0x40 DUP3 ADD MSTORE PUSH6 0x616C616E6365 PUSH1 0xD0 SHL PUSH1 0x60 DUP3 ADD MSTORE PUSH1 0x80 ADD SWAP1 JUMP JUMPDEST PUSH1 0x20 DUP1 DUP3 MSTORE PUSH1 0x25 SWAP1 DUP3 ADD MSTORE PUSH32 0x45524332303A207472616E736665722066726F6D20746865207A65726F206164 PUSH1 0x40 DUP3 ADD MSTORE PUSH5 0x6472657373 PUSH1 0xD8 SHL PUSH1 0x60 DUP3 ADD MSTORE PUSH1 0x80 ADD SWAP1 JUMP JUMPDEST PUSH1 0x20 DUP1 DUP3 MSTORE PUSH1 0x24 SWAP1 DUP3 ADD MSTORE PUSH32 0x45524332303A20617070726F76652066726F6D20746865207A65726F20616464 PUSH1 0x40 DUP3 ADD MSTORE PUSH4 0x72657373 PUSH1 0xE0 SHL PUSH1 0x60 DUP3 ADD MSTORE PUSH1 0x80 ADD SWAP1 JUMP JUMPDEST SWAP1 DUP2 MSTORE PUSH1 0x20 ADD SWAP1 JUMP JUMPDEST PUSH1 0xFF SWAP2 SWAP1 SWAP2 AND DUP2 MSTORE PUSH1 0x20 ADD SWAP1 JUMP JUMPDEST PUSH1 0x0 DUP3 NOT DUP3 GT ISZERO PUSH2 0xB95 JUMPI PUSH2 0xB95 PUSH2 0xBF0 JUMP JUMPDEST POP ADD SWAP1 JUMP JUMPDEST PUSH1 0x0 DUP3 PUSH2 0xBB5 JUMPI PUSH4 0x4E487B71 PUSH1 0xE0 SHL DUP2 MSTORE PUSH1 0x12 PUSH1 0x4 MSTORE PUSH1 0x24 DUP2 REVERT JUMPDEST POP DIV SWAP1 JUMP JUMPDEST PUSH1 0x0 DUP2 PUSH1 0x0 NOT DIV DUP4 GT DUP3 ISZERO ISZERO AND ISZERO PUSH2 0xBD4 JUMPI PUSH2 0xBD4 PUSH2 0xBF0 JUMP JUMPDEST POP MUL SWAP1 JUMP JUMPDEST PUSH1 0x0 DUP3 DUP3 LT ISZERO PUSH2 0xBEB JUMPI PUSH2 0xBEB PUSH2 0xBF0 JUMP JUMPDEST POP SUB SWAP1 JUMP JUMPDEST PUSH4 0x4E487B71 PUSH1 0xE0 SHL PUSH1 0x0 MSTORE PUSH1 0x11 PUSH1 0x4 MSTORE PUSH1 0x24 PUSH1 0x0 REVERT INVALID 0xDD CALLCODE MSTORE 0xAD SHL 0xE2 0xC8 SWAP12 PUSH10 0xC2B068FC378DAA952BA7 CALL PUSH4 0xC4A11628 CREATE2 GAS 0x4D CREATE2 0x23 0xB3 0xEF LOG2 PUSH5 0x6970667358 0x22 SLT KECCAK256 0xC5 ORIGIN EXTCODEHASH SMOD DUP12 PUSH25 0x63B798879BEFD4601257DD8DDE458D32A2B27B40643E6C7B71 0xB3 PUSH5 0x736F6C6343 STOP ADDMOD ADD STOP CALLER "
		},
		"gasEstimates": {
			"creation": {
				"codeDepositCost": "632800",
				"executionCost": "43364",
				"totalCost": "676164"
			},
			"external": {
				"allowance(address,address)": "infinite",
				"approve(address,uint256)": "22629",
				"balanceOf(address)": "infinite",
				"burnAddress1()": "341",
				"burnAddress2()": "275",
				"burnRate()": "250",
				"decimals()": "285",
				"liquidityFee()": "295",
				"liquidityWallet()": "318",
				"name()": "infinite",
				"sellFee()": "318",
				"symbol()": "infinite",
				"totalSupply()": "infinite",
				"transfer(address,uint256)": "infinite",
				"treasuryFee()": "272",
				"treasuryWallet()": "319"
			},
			"internal": {
				"_approve(address,address,uint256)": "infinite",
				"_msgSender()": "14",
				"_transfer(address,address,uint256)": "infinite"
			}
		},
		"methodIdentifiers": {
			"allowance(address,address)": "dd62ed3e",
			"approve(address,uint256)": "095ea7b3",
			"balanceOf(address)": "70a08231",
			"burnAddress1()": "472a0b2a",
			"burnAddress2()": "311e6703",
			"burnRate()": "bed99850",
			"decimals()": "313ce567",
			"liquidityFee()": "98118cb4",
			"liquidityWallet()": "d4698016",
			"name()": "06fdde03",
			"sellFee()": "2b14ca56",
			"symbol()": "95d89b41",
			"totalSupply()": "18160ddd",
			"transfer(address,uint256)": "a9059cbb",
			"treasuryFee()": "cc32d176",
			"treasuryWallet()": "4626402b"
		}
	},
	"abi": [
		{
			"inputs": [],
			"stateMutability": "nonpayable",
			"type": "constructor"
		},
		{
			"anonymous": false,
			"inputs": [
				{
					"indexed": true,
					"internalType": "address",
					"name": "owner",
					"type": "address"
				},
				{
					"indexed": true,
					"internalType": "address",
					"name": "spender",
					"type": "address"
				},
				{
					"indexed": false,
					"internalType": "uint256",
					"name": "value",
					"type": "uint256"
				}
			],
			"name": "Approval",
			"type": "event"
		},
		{
			"anonymous": false,
			"inputs": [
				{
					"indexed": true,
					"internalType": "address",
					"name": "from",
					"type": "address"
				},
				{
					"indexed": true,
					"internalType": "address",
					"name": "to",
					"type": "address"
				},
				{
					"indexed": false,
					"internalType": "uint256",
					"name": "value",
					"type": "uint256"
				}
			],
			"name": "Transfer",
			"type": "event"
		},
		{
			"inputs": [
				{
					"internalType": "address",
					"name": "owner",
					"type": "address"
				},
				{
					"internalType": "address",
					"name": "spender",
					"type": "address"
				}
			],
			"name": "allowance",
			"outputs": [
				{
					"internalType": "uint256",
					"name": "",
					"type": "uint256"
				}
			],
			"stateMutability": "view",
			"type": "function"
		},
		{
			"inputs": [
				{
					"internalType": "address",
					"name": "spender",
					"type": "address"
				},
				{
					"internalType": "uint256",
					"name": "amount",
					"type": "uint256"
				}
			],
			"name": "approve",
			"outputs": [
				{
					"internalType": "bool",
					"name": "",
					"type": "bool"
				}
			],
			"stateMutability": "nonpayable",
			"type": "function"
		},
		{
			"inputs": [
				{
					"internalType": "address",
					"name": "account",
					"type": "address"
				}
			],
			"name": "balanceOf",
			"outputs": [
				{
					"internalType": "uint256",
					"name": "",
					"type": "uint256"
				}
			],
			"stateMutability": "view",
			"type": "function"
		},
		{
			"inputs": [],
			"name": "burnAddress1",
			"outputs": [
				{
					"internalType": "address",
					"name": "",
					"type": "address"
				}
			],
			"stateMutability": "view",
			"type": "function"
		},
		{
			"inputs": [],
			"name": "burnAddress2",
			"outputs": [
				{
					"internalType": "address",
					"name": "",
					"type": "address"
				}
			],
			"stateMutability": "view",
			"type": "function"
		},
		{
			"inputs": [],
			"name": "burnRate",
			"outputs": [
				{
					"internalType": "uint256",
					"name": "",
					"type": "uint256"
				}
			],
			"stateMutability": "view",
			"type": "function"
		},
		{
			"inputs": [],
			"name": "decimals",
			"outputs": [
				{
					"internalType": "uint8",
					"name": "",
					"type": "uint8"
				}
			],
			"stateMutability": "view",
			"type": "function"
		},
		{
			"inputs": [],
			"name": "liquidityFee",
			"outputs": [
				{
					"internalType": "uint256",
					"name": "",
					"type": "uint256"
				}
			],
			"stateMutability": "view",
			"type": "function"
		},
		{
			"inputs": [],
			"name": "liquidityWallet",
			"outputs": [
				{
					"internalType": "address",
					"name": "",
					"type": "address"
				}
			],
			"stateMutability": "view",
			"type": "function"
		},
		{
			"inputs": [],
			"name": "name",
			"outputs": [
				{
					"internalType": "string",
					"name": "",
					"type": "string"
				}
			],
			"stateMutability": "view",
			"type": "function"
		},
		{
			"inputs": [],
			"name": "sellFee",
			"outputs": [
				{
					"internalType": "uint256",
					"name": "",
					"type": "uint256"
				}
			],
			"stateMutability": "view",
			"type": "function"
		},
		{
			"inputs": [],
			"name": "symbol",
			"outputs": [
				{
					"internalType": "string",
					"name": "",
					"type": "string"
				}
			],
			"stateMutability": "view",
			"type": "function"
		},
		{
			"inputs": [],
			"name": "totalSupply",
			"outputs": [
				{
					"internalType": "uint256",
					"name": "",
					"type": "uint256"
				}
			],
			"stateMutability": "view",
			"type": "function"
		},
		{
			"inputs": [
				{
					"internalType": "address",
					"name": "recipient",
					"type": "address"
				},
				{
					"internalType": "uint256",
					"name": "amount",
					"type": "uint256"
				}
			],
			"name": "transfer",
			"outputs": [
				{
					"internalType": "bool",
					"name": "",
					"type": "bool"
				}
			],
			"stateMutability": "nonpayable",
			"type": "function"
		},
		{
			"inputs": [],
			"name": "treasuryFee",
			"outputs": [
				{
					"internalType": "uint256",
					"name": "",
					"type": "uint256"
				}
			],
			"stateMutability": "view",
			"type": "function"
		},
		{
			"inputs": [],
			"name": "treasuryWallet",
			"outputs": [
				{
					"internalType": "address",
					"name": "",
					"type": "address"
				}
			],
			"stateMutability": "view",
			"type": "function"
		}
	]
}